{
  "abi": [
    {
      "inputs": [
        {
          "internalType": "contract FunderGovToken",
          "name": "_token",
          "type": "address"
        },
        {
          "internalType": "uint256",
          "name": "_aYesVote",
          "type": "uint256"
        },
        {
          "internalType": "contract Funder",
          "name": "_funder",
          "type": "address"
        }
      ],
      "stateMutability": "nonpayable",
      "type": "constructor"
    },
    {
      "anonymous": false,
      "inputs": [
        {
          "indexed": true,
          "internalType": "address",
          "name": "gov",
          "type": "address"
        },
        {
          "indexed": true,
          "internalType": "address",
          "name": "ben",
          "type": "address"
        }
      ],
      "name": "Voted",
      "type": "event"
    },
    {
      "anonymous": false,
      "inputs": [
        {
          "indexed": true,
          "internalType": "address",
          "name": "owner",
          "type": "address"
        },
        {
          "indexed": true,
          "internalType": "bool",
          "name": "_status",
          "type": "bool"
        }
      ],
      "name": "unlock",
      "type": "event"
    },
    {
      "inputs": [
        {
          "internalType": "address",
          "name": "",
          "type": "address"
        },
        {
          "internalType": "address",
          "name": "",
          "type": "address"
        }
      ],
      "name": "govVote",
      "outputs": [
        {
          "internalType": "bool",
          "name": "",
          "type": "bool"
        }
      ],
      "stateMutability": "view",
      "type": "function"
    },
    {
      "inputs": [
        {
          "internalType": "address",
          "name": "",
          "type": "address"
        },
        {
          "internalType": "address",
          "name": "",
          "type": "address"
        }
      ],
      "name": "govVoteCount",
      "outputs": [
        {
          "internalType": "uint256",
          "name": "",
          "type": "uint256"
        }
      ],
      "stateMutability": "view",
      "type": "function"
    },
    {
      "inputs": [
        {
          "internalType": "address",
          "name": "castVote",
          "type": "address"
        }
      ],
      "name": "unLocked",
      "outputs": [],
      "stateMutability": "nonpayable",
      "type": "function"
    },
    {
      "inputs": [
        {
          "internalType": "address",
          "name": "castVote",
          "type": "address"
        },
        {
          "internalType": "uint256",
          "name": "amount",
          "type": "uint256"
        }
      ],
      "name": "voteProposal",
      "outputs": [],
      "stateMutability": "nonpayable",
      "type": "function"
    }
  ],
  "bytecode": {
    "object": "0x6080604052680ad78ebc5ac620000060035534801561001d57600080fd5b5060405161073138038061073183398101604081905261003c9161008b565b600080546001600160a01b039485166001600160a01b031991821617909155600292909255600180549190931691161790556100ce565b6001600160a01b038116811461008857600080fd5b50565b6000806000606084860312156100a057600080fd5b83516100ab81610073565b6020850151604086015191945092506100c381610073565b809150509250925092565b610654806100dd6000396000f3fe608060405234801561001057600080fd5b506004361061004c5760003560e01c806366e5f2c51461005157806389d3895114610066578063abab7fa0146100a9578063cb7be0fd146100e2575b600080fd5b61006461005f3660046104ea565b6100f5565b005b610094610074366004610514565b600460209081526000928352604080842090915290825290205460ff1681565b60405190151581526020015b60405180910390f35b6100d46100b7366004610514565b600560209081526000928352604080842090915290825290205481565b6040519081526020016100a0565b6100646100f0366004610547565b6103b9565b6000546040516370a0823160e01b815233600482015282916001600160a01b0316906370a0823190602401602060405180830381865afa15801561013d573d6000803e3d6000fd5b505050506040513d601f19601f820116820180604052508101906101619190610569565b10156101ab5760405162461bcd60e51b8152602060048201526014602482015273696e73756666696369656e742062616c616e636560601b60448201526064015b60405180910390fd5b806002546101b99190610598565b156101fb5760405162461bcd60e51b8152602060048201526012602482015271313020746f6b656e7320697320312079657360701b60448201526064016101a2565b3360009081526004602090815260408083206001600160a01b038616845290915290205460ff161561022f5761022f6105ac565b60006002548261023f91906105c2565b60005460405163cec1460b60e01b8152600481018590526001600160a01b03868116602483015292935091169063cec1460b90604401600060405180830381600087803b15801561028f57600080fd5b505af11580156102a3573d6000803e3d6000fd5b50503360009081526005602090815260408083206001600160a01b0389168452909152812080548594509092506102db9084906105d6565b90915550506003543360009081526005602090815260408083206001600160a01b03881684529091529020541061037e576001546040516314204dbb60e01b81526001600160a01b038581166004830152909116906314204dbb906024016020604051808303816000875af1158015610358573d6000803e3d6000fd5b505050506040513d601f19601f8201168201806040525081019061037c91906105fc565b505b6040516001600160a01b0384169033907fce0c7a2a940807f7dc2ce7a615c2532e915e6c0ac9a08bc4ed9d515a710a53e290600090a3505050565b600154604051636a923eed60e11b81526001600160a01b038381166004830152600092169063d5247dda90602401602060405180830381865afa158015610404573d6000803e3d6000fd5b505050506040513d601f19601f8201168201806040525081019061042891906105fc565b905060018115151461043c5761043c6105ac565b600054604051632eb7a76160e21b81526001600160a01b0384811660048301529091169063bade9d8490602401600060405180830381600087803b15801561048357600080fd5b505af1158015610497573d6000803e3d6000fd5b505060405183151592503391507f1dd8abd0be84d78ba492e7da57b14db47aa163df6475af336fd802f47964421a90600090a35050565b80356001600160a01b03811681146104e557600080fd5b919050565b600080604083850312156104fd57600080fd5b610506836104ce565b946020939093013593505050565b6000806040838503121561052757600080fd5b610530836104ce565b915061053e602084016104ce565b90509250929050565b60006020828403121561055957600080fd5b610562826104ce565b9392505050565b60006020828403121561057b57600080fd5b5051919050565b634e487b7160e01b600052601260045260246000fd5b6000826105a7576105a7610582565b500690565b634e487b7160e01b600052600160045260246000fd5b6000826105d1576105d1610582565b500490565b600082198211156105f757634e487b7160e01b600052601160045260246000fd5b500190565b60006020828403121561060e57600080fd5b8151801515811461056257600080fdfea2646970667358221220e8bdd158d90cda800bf61919e5ced5265d80ca605da97179341ea36216b29e0264736f6c634300080a0033",
    "linkReferences": {}
  }
}