{
  "abi": [
    {
      "inputs": [
        {
          "internalType": "uint256",
          "name": "_aYesVote",
          "type": "uint256"
        },
        {
          "internalType": "contract Funder",
          "name": "_funder",
          "type": "address"
        }
      ],
      "stateMutability": "nonpayable",
      "type": "constructor"
    },
    {
      "anonymous": false,
      "inputs": [
        {
          "indexed": true,
          "internalType": "address",
          "name": "owner",
          "type": "address"
        },
        {
          "indexed": true,
          "internalType": "address",
          "name": "spender",
          "type": "address"
        },
        {
          "indexed": false,
          "internalType": "uint256",
          "name": "value",
          "type": "uint256"
        }
      ],
      "name": "Approval",
      "type": "event"
    },
    {
      "anonymous": false,
      "inputs": [
        {
          "indexed": true,
          "internalType": "address",
          "name": "from",
          "type": "address"
        },
        {
          "indexed": true,
          "internalType": "address",
          "name": "to",
          "type": "address"
        },
        {
          "indexed": false,
          "internalType": "uint256",
          "name": "value",
          "type": "uint256"
        }
      ],
      "name": "Transfer",
      "type": "event"
    },
    {
      "anonymous": false,
      "inputs": [
        {
          "indexed": true,
          "internalType": "address",
          "name": "gov",
          "type": "address"
        },
        {
          "indexed": true,
          "internalType": "address",
          "name": "ben",
          "type": "address"
        }
      ],
      "name": "Voted",
      "type": "event"
    },
    {
      "anonymous": false,
      "inputs": [
        {
          "indexed": true,
          "internalType": "address",
          "name": "owner",
          "type": "address"
        },
        {
          "indexed": true,
          "internalType": "bool",
          "name": "_status",
          "type": "bool"
        }
      ],
      "name": "unlock",
      "type": "event"
    },
    {
      "inputs": [
        {
          "internalType": "address",
          "name": "owner",
          "type": "address"
        },
        {
          "internalType": "address",
          "name": "spender",
          "type": "address"
        }
      ],
      "name": "allowance",
      "outputs": [
        {
          "internalType": "uint256",
          "name": "",
          "type": "uint256"
        }
      ],
      "stateMutability": "view",
      "type": "function"
    },
    {
      "inputs": [
        {
          "internalType": "address",
          "name": "spender",
          "type": "address"
        },
        {
          "internalType": "uint256",
          "name": "amount",
          "type": "uint256"
        }
      ],
      "name": "approve",
      "outputs": [
        {
          "internalType": "bool",
          "name": "",
          "type": "bool"
        }
      ],
      "stateMutability": "nonpayable",
      "type": "function"
    },
    {
      "inputs": [
        {
          "internalType": "address",
          "name": "account",
          "type": "address"
        }
      ],
      "name": "balanceOf",
      "outputs": [
        {
          "internalType": "uint256",
          "name": "",
          "type": "uint256"
        }
      ],
      "stateMutability": "view",
      "type": "function"
    },
    {
      "inputs": [],
      "name": "decimals",
      "outputs": [
        {
          "internalType": "uint8",
          "name": "",
          "type": "uint8"
        }
      ],
      "stateMutability": "view",
      "type": "function"
    },
    {
      "inputs": [
        {
          "internalType": "address",
          "name": "spender",
          "type": "address"
        },
        {
          "internalType": "uint256",
          "name": "subtractedValue",
          "type": "uint256"
        }
      ],
      "name": "decreaseAllowance",
      "outputs": [
        {
          "internalType": "bool",
          "name": "",
          "type": "bool"
        }
      ],
      "stateMutability": "nonpayable",
      "type": "function"
    },
    {
      "inputs": [
        {
          "internalType": "address",
          "name": "",
          "type": "address"
        },
        {
          "internalType": "address",
          "name": "",
          "type": "address"
        }
      ],
      "name": "govVote",
      "outputs": [
        {
          "internalType": "bool",
          "name": "",
          "type": "bool"
        }
      ],
      "stateMutability": "view",
      "type": "function"
    },
    {
      "inputs": [
        {
          "internalType": "address",
          "name": "",
          "type": "address"
        },
        {
          "internalType": "address",
          "name": "",
          "type": "address"
        }
      ],
      "name": "govVoteCount",
      "outputs": [
        {
          "internalType": "uint256",
          "name": "",
          "type": "uint256"
        }
      ],
      "stateMutability": "view",
      "type": "function"
    },
    {
      "inputs": [
        {
          "internalType": "address",
          "name": "spender",
          "type": "address"
        },
        {
          "internalType": "uint256",
          "name": "addedValue",
          "type": "uint256"
        }
      ],
      "name": "increaseAllowance",
      "outputs": [
        {
          "internalType": "bool",
          "name": "",
          "type": "bool"
        }
      ],
      "stateMutability": "nonpayable",
      "type": "function"
    },
    {
      "inputs": [],
      "name": "name",
      "outputs": [
        {
          "internalType": "string",
          "name": "",
          "type": "string"
        }
      ],
      "stateMutability": "view",
      "type": "function"
    },
    {
      "inputs": [],
      "name": "symbol",
      "outputs": [
        {
          "internalType": "string",
          "name": "",
          "type": "string"
        }
      ],
      "stateMutability": "view",
      "type": "function"
    },
    {
      "inputs": [],
      "name": "totalSupply",
      "outputs": [
        {
          "internalType": "uint256",
          "name": "",
          "type": "uint256"
        }
      ],
      "stateMutability": "view",
      "type": "function"
    },
    {
      "inputs": [
        {
          "internalType": "address",
          "name": "to",
          "type": "address"
        },
        {
          "internalType": "uint256",
          "name": "amount",
          "type": "uint256"
        }
      ],
      "name": "transfer",
      "outputs": [
        {
          "internalType": "bool",
          "name": "",
          "type": "bool"
        }
      ],
      "stateMutability": "nonpayable",
      "type": "function"
    },
    {
      "inputs": [
        {
          "internalType": "address",
          "name": "from",
          "type": "address"
        },
        {
          "internalType": "address",
          "name": "to",
          "type": "address"
        },
        {
          "internalType": "uint256",
          "name": "amount",
          "type": "uint256"
        }
      ],
      "name": "transferFrom",
      "outputs": [
        {
          "internalType": "bool",
          "name": "",
          "type": "bool"
        }
      ],
      "stateMutability": "nonpayable",
      "type": "function"
    },
    {
      "inputs": [
        {
          "internalType": "address",
          "name": "castVote",
          "type": "address"
        }
      ],
      "name": "unLocked",
      "outputs": [],
      "stateMutability": "nonpayable",
      "type": "function"
    },
    {
      "inputs": [
        {
          "internalType": "address",
          "name": "castVote",
          "type": "address"
        },
        {
          "internalType": "uint256",
          "name": "amount",
          "type": "uint256"
        }
      ],
      "name": "voteProposal",
      "outputs": [],
      "stateMutability": "nonpayable",
      "type": "function"
    }
  ],
  "bytecode": {
    "object": "0x6080604052680ad78ebc5ac62000006009553480156200001e57600080fd5b50604051620010cb380380620010cb833981016040819052620000419162000270565b604080518082018252600881526726aca33ab73232b960c11b60208083019182528351808501909452600384526226aca360e91b9084015281519192916200008c91600191620001ca565b508051620000a2906002906020840190620001ca565b5050506008829055600780546001600160a01b0319166001600160a01b038316179055620000db3369d3c21bcecceda1000000620000e3565b505062000313565b6001600160a01b0382166200013e5760405162461bcd60e51b815260206004820152601f60248201527f45524332303a206d696e7420746f20746865207a65726f206164647265737300604482015260640160405180910390fd5b80600080828254620001519190620002af565b90915550506001600160a01b0382166000908152600460205260408120805483929062000180908490620002af565b90915550506040518181526001600160a01b038316906000907fddf252ad1be2c89b69c2b068fc378daa952ba7f163c4a11628f55a4df523b3ef9060200160405180910390a35050565b828054620001d890620002d6565b90600052602060002090601f016020900481019282620001fc576000855562000247565b82601f106200021757805160ff191683800117855562000247565b8280016001018555821562000247579182015b82811115620002475782518255916020019190600101906200022a565b506200025592915062000259565b5090565b5b808211156200025557600081556001016200025a565b600080604083850312156200028457600080fd5b825160208401519092506001600160a01b0381168114620002a457600080fd5b809150509250929050565b60008219821115620002d157634e487b7160e01b600052601160045260246000fd5b500190565b600181811c90821680620002eb57607f821691505b602082108114156200030d57634e487b7160e01b600052602260045260246000fd5b50919050565b610da880620003236000396000f3fe608060405234801561001057600080fd5b50600436106100f55760003560e01c806370a0823111610097578063a9059cbb11610066578063a9059cbb14610209578063abab7fa01461021c578063cb7be0fd14610247578063dd62ed3e1461025a57600080fd5b806370a082311461019757806389d38951146101c057806395d89b41146101ee578063a457c2d7146101f657600080fd5b806323b872dd116100d357806323b872dd1461014d578063313ce56714610160578063395093511461016f57806366e5f2c51461018257600080fd5b806306fdde03146100fa578063095ea7b31461011857806318160ddd1461013b575b600080fd5b61010261026d565b60405161010f9190610b50565b60405180910390f35b61012b610126366004610bc1565b6102ff565b604051901515815260200161010f565b6000545b60405190815260200161010f565b61012b61015b366004610beb565b610317565b6040516012815260200161010f565b61012b61017d366004610bc1565b61033b565b610195610190366004610bc1565b61035d565b005b61013f6101a5366004610c27565b6001600160a01b031660009081526004602052604090205490565b61012b6101ce366004610c49565b600a60209081526000928352604080842090915290825290205460ff1681565b610102610569565b61012b610204366004610bc1565b610578565b61012b610217366004610bc1565b6105f3565b61013f61022a366004610c49565b600b60209081526000928352604080842090915290825290205481565b610195610255366004610c27565b610601565b61013f610268366004610c49565b6106c0565b60606001805461027c90610c7c565b80601f01602080910402602001604051908101604052809291908181526020018280546102a890610c7c565b80156102f55780601f106102ca576101008083540402835291602001916102f5565b820191906000526020600020905b8154815290600101906020018083116102d857829003601f168201915b5050505050905090565b60003361030d8185856106eb565b5060019392505050565b60003361032585828561080f565b610330858585610889565b506001949350505050565b60003361030d81858561034e83836106c0565b6103589190610ccd565b6106eb565b336000908152600460205260409020548111156103b85760405162461bcd60e51b8152602060048201526014602482015273696e73756666696369656e742062616c616e636560601b60448201526064015b60405180910390fd5b806008546103c69190610cfb565b156104085760405162461bcd60e51b8152602060048201526012602482015271313020746f6b656e7320697320312079657360701b60448201526064016103af565b336000908152600a602090815260408083206001600160a01b038616845290915290205460ff161561043c5761043c610d0f565b60006008548261044c9190610d25565b90506104588284610a7a565b336000908152600b602090815260408083206001600160a01b03871684529091528120805483929061048b908490610ccd565b9091555050600954336000908152600b602090815260408083206001600160a01b03881684529091529020541061052e576007546040516314204dbb60e01b81526001600160a01b038581166004830152909116906314204dbb906024016020604051808303816000875af1158015610508573d6000803e3d6000fd5b505050506040513d601f19601f8201168201806040525081019061052c9190610d39565b505b6040516001600160a01b0384169033907fce0c7a2a940807f7dc2ce7a615c2532e915e6c0ac9a08bc4ed9d515a710a53e290600090a3505050565b60606002805461027c90610c7c565b6000338161058682866106c0565b9050838110156105e65760405162461bcd60e51b815260206004820152602560248201527f45524332303a2064656372656173656420616c6c6f77616e63652062656c6f77604482015264207a65726f60d81b60648201526084016103af565b61033082868684036106eb565b60003361030d818585610889565b600754604051636a923eed60e11b81526001600160a01b038381166004830152600092169063d5247dda90602401602060405180830381865afa15801561064c573d6000803e3d6000fd5b505050506040513d601f19601f820116820180604052508101906106709190610d39565b905060018115151461068457610684610d0f565b61068d82610ada565b6040518115159033907f1dd8abd0be84d78ba492e7da57b14db47aa163df6475af336fd802f47964421a90600090a35050565b6001600160a01b03918216600090815260066020908152604080832093909416825291909152205490565b6001600160a01b03831661074d5760405162461bcd60e51b8152602060048201526024808201527f45524332303a20617070726f76652066726f6d20746865207a65726f206164646044820152637265737360e01b60648201526084016103af565b6001600160a01b0382166107ae5760405162461bcd60e51b815260206004820152602260248201527f45524332303a20617070726f766520746f20746865207a65726f206164647265604482015261737360f01b60648201526084016103af565b6001600160a01b0383811660008181526006602090815260408083209487168084529482529182902085905590518481527f8c5be1e5ebec7d5bd14f71427d1e84f3dd0314c0f7b2291e5b200ac8c7c3b925910160405180910390a3505050565b600061081b84846106c0565b9050600019811461088357818110156108765760405162461bcd60e51b815260206004820152601d60248201527f45524332303a20696e73756666696369656e7420616c6c6f77616e636500000060448201526064016103af565b61088384848484036106eb565b50505050565b6001600160a01b0383166108ed5760405162461bcd60e51b815260206004820152602560248201527f45524332303a207472616e736665722066726f6d20746865207a65726f206164604482015264647265737360d81b60648201526084016103af565b6001600160a01b03821661094f5760405162461bcd60e51b815260206004820152602360248201527f45524332303a207472616e7366657220746f20746865207a65726f206164647260448201526265737360e81b60648201526084016103af565b336000908152600560209081526040808320546001600160a01b0387168452600490925282205490916109828383610d5b565b9050838110156109e75760405162461bcd60e51b815260206004820152602a60248201527f45524332303a207472616e7366657261626c6520616d6f756e7420657863656560448201526964732062616c616e636560b01b60648201526084016103af565b6001600160a01b03808716600090815260046020526040808220878603905591871681529081208054869290610a1e908490610ccd565b92505081905550846001600160a01b0316866001600160a01b03167fddf252ad1be2c89b69c2b068fc378daa952ba7f163c4a11628f55a4df523b3ef86604051610a6a91815260200190565b60405180910390a3505050505050565b3360009081526003602090815260408083206001600160a01b038516845290915281208054849290610aad908490610ccd565b90915550503360009081526005602052604081208054849290610ad1908490610ccd565b90915550505050565b3360008181526003602090815260408083206001600160a01b0386168452825280832054938352600590915281208054839290610b18908490610d5b565b90915550503360009081526003602090815260408083206001600160a01b038616845290915281208054839290610ad1908490610d5b565b600060208083528351808285015260005b81811015610b7d57858101830151858201604001528201610b61565b81811115610b8f576000604083870101525b50601f01601f1916929092016040019392505050565b80356001600160a01b0381168114610bbc57600080fd5b919050565b60008060408385031215610bd457600080fd5b610bdd83610ba5565b946020939093013593505050565b600080600060608486031215610c0057600080fd5b610c0984610ba5565b9250610c1760208501610ba5565b9150604084013590509250925092565b600060208284031215610c3957600080fd5b610c4282610ba5565b9392505050565b60008060408385031215610c5c57600080fd5b610c6583610ba5565b9150610c7360208401610ba5565b90509250929050565b600181811c90821680610c9057607f821691505b60208210811415610cb157634e487b7160e01b600052602260045260246000fd5b50919050565b634e487b7160e01b600052601160045260246000fd5b60008219821115610ce057610ce0610cb7565b500190565b634e487b7160e01b600052601260045260246000fd5b600082610d0a57610d0a610ce5565b500690565b634e487b7160e01b600052600160045260246000fd5b600082610d3457610d34610ce5565b500490565b600060208284031215610d4b57600080fd5b81518015158114610c4257600080fd5b600082821015610d6d57610d6d610cb7565b50039056fea2646970667358221220755a5c8ead5e18c1ebb9e64c97a49b319026f362de2c3b5125705f607782a57164736f6c634300080a0033",
    "linkReferences": {}
  }
}