{
  "abi": [
    {
      "inputs": [
        {
          "internalType": "uint256",
          "name": "_aYesVote",
          "type": "uint256"
        }
      ],
      "stateMutability": "nonpayable",
      "type": "constructor"
    },
    {
      "anonymous": false,
      "inputs": [
        {
          "indexed": true,
          "internalType": "address",
          "name": "owner",
          "type": "address"
        },
        {
          "indexed": true,
          "internalType": "address",
          "name": "spender",
          "type": "address"
        },
        {
          "indexed": false,
          "internalType": "uint256",
          "name": "value",
          "type": "uint256"
        }
      ],
      "name": "Approval",
      "type": "event"
    },
    {
      "anonymous": false,
      "inputs": [
        {
          "indexed": true,
          "internalType": "address",
          "name": "from",
          "type": "address"
        },
        {
          "indexed": true,
          "internalType": "address",
          "name": "to",
          "type": "address"
        },
        {
          "indexed": false,
          "internalType": "uint256",
          "name": "value",
          "type": "uint256"
        }
      ],
      "name": "Transfer",
      "type": "event"
    },
    {
      "anonymous": false,
      "inputs": [
        {
          "indexed": true,
          "internalType": "address",
          "name": "gov",
          "type": "address"
        },
        {
          "indexed": true,
          "internalType": "address",
          "name": "ben",
          "type": "address"
        }
      ],
      "name": "Voted",
      "type": "event"
    },
    {
      "anonymous": false,
      "inputs": [
        {
          "indexed": true,
          "internalType": "address",
          "name": "owner",
          "type": "address"
        },
        {
          "indexed": true,
          "internalType": "uint256",
          "name": "_amount",
          "type": "uint256"
        }
      ],
      "name": "unlock",
      "type": "event"
    },
    {
      "inputs": [
        {
          "internalType": "address",
          "name": "",
          "type": "address"
        }
      ],
      "name": "RequestGranted",
      "outputs": [
        {
          "internalType": "bool",
          "name": "",
          "type": "bool"
        }
      ],
      "stateMutability": "view",
      "type": "function"
    },
    {
      "inputs": [
        {
          "internalType": "address",
          "name": "owner",
          "type": "address"
        },
        {
          "internalType": "address",
          "name": "spender",
          "type": "address"
        }
      ],
      "name": "allowance",
      "outputs": [
        {
          "internalType": "uint256",
          "name": "",
          "type": "uint256"
        }
      ],
      "stateMutability": "view",
      "type": "function"
    },
    {
      "inputs": [
        {
          "internalType": "address",
          "name": "spender",
          "type": "address"
        },
        {
          "internalType": "uint256",
          "name": "amount",
          "type": "uint256"
        }
      ],
      "name": "approve",
      "outputs": [
        {
          "internalType": "bool",
          "name": "",
          "type": "bool"
        }
      ],
      "stateMutability": "nonpayable",
      "type": "function"
    },
    {
      "inputs": [
        {
          "internalType": "address",
          "name": "account",
          "type": "address"
        }
      ],
      "name": "balanceOf",
      "outputs": [
        {
          "internalType": "uint256",
          "name": "",
          "type": "uint256"
        }
      ],
      "stateMutability": "view",
      "type": "function"
    },
    {
      "inputs": [],
      "name": "decimals",
      "outputs": [
        {
          "internalType": "uint8",
          "name": "",
          "type": "uint8"
        }
      ],
      "stateMutability": "view",
      "type": "function"
    },
    {
      "inputs": [
        {
          "internalType": "address",
          "name": "spender",
          "type": "address"
        },
        {
          "internalType": "uint256",
          "name": "subtractedValue",
          "type": "uint256"
        }
      ],
      "name": "decreaseAllowance",
      "outputs": [
        {
          "internalType": "bool",
          "name": "",
          "type": "bool"
        }
      ],
      "stateMutability": "nonpayable",
      "type": "function"
    },
    {
      "inputs": [
        {
          "internalType": "address",
          "name": "beneficiary",
          "type": "address"
        }
      ],
      "name": "getBeneficiaryVotingStatus",
      "outputs": [
        {
          "internalType": "bool",
          "name": "status",
          "type": "bool"
        }
      ],
      "stateMutability": "view",
      "type": "function"
    },
    {
      "inputs": [
        {
          "internalType": "address",
          "name": "",
          "type": "address"
        },
        {
          "internalType": "address",
          "name": "",
          "type": "address"
        }
      ],
      "name": "govVote",
      "outputs": [
        {
          "internalType": "bool",
          "name": "",
          "type": "bool"
        }
      ],
      "stateMutability": "view",
      "type": "function"
    },
    {
      "inputs": [
        {
          "internalType": "address",
          "name": "",
          "type": "address"
        },
        {
          "internalType": "address",
          "name": "",
          "type": "address"
        }
      ],
      "name": "govVoteCount",
      "outputs": [
        {
          "internalType": "uint256",
          "name": "",
          "type": "uint256"
        }
      ],
      "stateMutability": "view",
      "type": "function"
    },
    {
      "inputs": [
        {
          "internalType": "address",
          "name": "spender",
          "type": "address"
        },
        {
          "internalType": "uint256",
          "name": "addedValue",
          "type": "uint256"
        }
      ],
      "name": "increaseAllowance",
      "outputs": [
        {
          "internalType": "bool",
          "name": "",
          "type": "bool"
        }
      ],
      "stateMutability": "nonpayable",
      "type": "function"
    },
    {
      "inputs": [],
      "name": "name",
      "outputs": [
        {
          "internalType": "string",
          "name": "",
          "type": "string"
        }
      ],
      "stateMutability": "view",
      "type": "function"
    },
    {
      "inputs": [],
      "name": "symbol",
      "outputs": [
        {
          "internalType": "string",
          "name": "",
          "type": "string"
        }
      ],
      "stateMutability": "view",
      "type": "function"
    },
    {
      "inputs": [],
      "name": "totalSupply",
      "outputs": [
        {
          "internalType": "uint256",
          "name": "",
          "type": "uint256"
        }
      ],
      "stateMutability": "view",
      "type": "function"
    },
    {
      "inputs": [
        {
          "internalType": "address",
          "name": "to",
          "type": "address"
        },
        {
          "internalType": "uint256",
          "name": "amount",
          "type": "uint256"
        }
      ],
      "name": "transfer",
      "outputs": [
        {
          "internalType": "bool",
          "name": "",
          "type": "bool"
        }
      ],
      "stateMutability": "nonpayable",
      "type": "function"
    },
    {
      "inputs": [
        {
          "internalType": "address",
          "name": "from",
          "type": "address"
        },
        {
          "internalType": "address",
          "name": "to",
          "type": "address"
        },
        {
          "internalType": "uint256",
          "name": "amount",
          "type": "uint256"
        }
      ],
      "name": "transferFrom",
      "outputs": [
        {
          "internalType": "bool",
          "name": "",
          "type": "bool"
        }
      ],
      "stateMutability": "nonpayable",
      "type": "function"
    },
    {
      "inputs": [
        {
          "internalType": "address",
          "name": "castVote",
          "type": "address"
        }
      ],
      "name": "unLockToken",
      "outputs": [
        {
          "internalType": "uint256",
          "name": "",
          "type": "uint256"
        }
      ],
      "stateMutability": "nonpayable",
      "type": "function"
    },
    {
      "inputs": [
        {
          "internalType": "address",
          "name": "castVote",
          "type": "address"
        },
        {
          "internalType": "uint256",
          "name": "amount",
          "type": "uint256"
        }
      ],
      "name": "voteProposal",
      "outputs": [],
      "stateMutability": "nonpayable",
      "type": "function"
    }
  ],
  "bytecode": {
    "object": "0x608060405260146008553480156200001657600080fd5b506040516200108a3803806200108a83398101604081905262000039916200024c565b604080518082018252600881526726aca33ab73232b960c11b60208083019182528351808501909452600384526226aca360e91b9084015281519192916200008491600191620001a6565b5080516200009a906002906020840190620001a6565b5050506007819055620000b83369d3c21bcecceda1000000620000bf565b50620002ca565b6001600160a01b0382166200011a5760405162461bcd60e51b815260206004820152601f60248201527f45524332303a206d696e7420746f20746865207a65726f206164647265737300604482015260640160405180910390fd5b806000808282546200012d919062000266565b90915550506001600160a01b038216600090815260046020526040812080548392906200015c90849062000266565b90915550506040518181526001600160a01b038316906000907fddf252ad1be2c89b69c2b068fc378daa952ba7f163c4a11628f55a4df523b3ef9060200160405180910390a35050565b828054620001b4906200028d565b90600052602060002090601f016020900481019282620001d8576000855562000223565b82601f10620001f357805160ff191683800117855562000223565b8280016001018555821562000223579182015b828111156200022357825182559160200191906001019062000206565b506200023192915062000235565b5090565b5b8082111562000231576000815560010162000236565b6000602082840312156200025f57600080fd5b5051919050565b600082198211156200028857634e487b7160e01b600052601160045260246000fd5b500190565b600181811c90821680620002a257607f821691505b60208210811415620002c457634e487b7160e01b600052602260045260246000fd5b50919050565b610db080620002da6000396000f3fe608060405234801561001057600080fd5b506004361061010b5760003560e01c806389d38951116100a2578063abab7fa011610071578063abab7fa014610232578063bade9d841461025d578063c77c627d14610270578063dd62ed3e14610293578063e3a17b3b146102a657600080fd5b806389d38951146101d657806395d89b4114610204578063a457c2d71461020c578063a9059cbb1461021f57600080fd5b8063313ce567116100de578063313ce56714610176578063395093511461018557806366e5f2c51461019857806370a08231146101ad57600080fd5b806306fdde0314610110578063095ea7b31461012e57806318160ddd1461015157806323b872dd14610163575b600080fd5b6101186102d2565b6040516101259190610b7a565b60405180910390f35b61014161013c366004610beb565b610364565b6040519015158152602001610125565b6000545b604051908152602001610125565b610141610171366004610c15565b61037c565b60405160128152602001610125565b610141610193366004610beb565b6103a0565b6101ab6101a6366004610beb565b6103c2565b005b6101556101bb366004610c51565b6001600160a01b031660009081526004602052604090205490565b6101416101e4366004610c73565b600960209081526000928352604080842090915290825290205460ff1681565b6101186105a3565b61014161021a366004610beb565b6105b2565b61014161022d366004610beb565b61062d565b610155610240366004610c73565b600a60209081526000928352604080842090915290825290205481565b61015561026b366004610c51565b61063b565b61014161027e366004610c51565b600b6020526000908152604090205460ff1681565b6101556102a1366004610c73565b610760565b6101416102b4366004610c51565b6001600160a01b03166000908152600b602052604090205460ff1690565b6060600180546102e190610ca6565b80601f016020809104026020016040519081016040528092919081815260200182805461030d90610ca6565b801561035a5780601f1061032f5761010080835404028352916020019161035a565b820191906000526020600020905b81548152906001019060200180831161033d57829003601f168201915b5050505050905090565b60003361037281858561078b565b5060019392505050565b60003361038a8582856108af565b610395858585610929565b506001949350505050565b6000336103728185856103b38383610760565b6103bd9190610cf7565b61078b565b336000818152600560209081526040808320546004909252822054849250806103eb8484610cf7565b1061043d5760405162461bcd60e51b815260206004820152601c60248201527f796f7520646f6e2774206861766520746f6b656e20746f20766f74650000000060448201526064015b60405180910390fd5b60075461044a9086610d25565b1561048c5760405162461bcd60e51b8152602060048201526012602482015271313020746f6b656e7320697320312079657360701b6044820152606401610434565b3360009081526009602090815260408083206001600160a01b038a16845290915290205460ff16156104c0576104c0610d39565b6000600754866104d09190610d4f565b90506104dc8688610b1a565b336000908152600a602090815260408083206001600160a01b038b1684529091528120805483929061050f908490610cf7565b9091555050600854336000908152600a602090815260408083206001600160a01b038c16845290915290205410610564576001600160a01b0387166000908152600b60205260409020805460ff191660011790555b6040516001600160a01b0388169033907fce0c7a2a940807f7dc2ce7a615c2532e915e6c0ac9a08bc4ed9d515a710a53e290600090a350505050505050565b6060600280546102e190610ca6565b600033816105c08286610760565b9050838110156106205760405162461bcd60e51b815260206004820152602560248201527f45524332303a2064656372656173656420616c6c6f77616e63652062656c6f77604482015264207a65726f60d81b6064820152608401610434565b610395828686840361078b565b600033610372818585610929565b600854336000908152600a602090815260408083206001600160a01b0386168452909152812054909111156106b25760405162461bcd60e51b815260206004820152601d60248201527f5468697320766f74696e67206973207374696c6c206f6e20676f696e670000006044820152606401610434565b3360008181526003602090815260408083206001600160a01b03871684528252808320549383526005909152812080548392906106f0908490610d63565b90915550503360009081526003602090815260408083206001600160a01b038716845290915281208054839290610728908490610d63565b9091555050604051819033907f7eee288d96e16732b30eaad358f8d56ea6f818be95e3d8b56668dbed67d7b7a890600090a392915050565b6001600160a01b03918216600090815260066020908152604080832093909416825291909152205490565b6001600160a01b0383166107ed5760405162461bcd60e51b8152602060048201526024808201527f45524332303a20617070726f76652066726f6d20746865207a65726f206164646044820152637265737360e01b6064820152608401610434565b6001600160a01b03821661084e5760405162461bcd60e51b815260206004820152602260248201527f45524332303a20617070726f766520746f20746865207a65726f206164647265604482015261737360f01b6064820152608401610434565b6001600160a01b0383811660008181526006602090815260408083209487168084529482529182902085905590518481527f8c5be1e5ebec7d5bd14f71427d1e84f3dd0314c0f7b2291e5b200ac8c7c3b925910160405180910390a3505050565b60006108bb8484610760565b9050600019811461092357818110156109165760405162461bcd60e51b815260206004820152601d60248201527f45524332303a20696e73756666696369656e7420616c6c6f77616e63650000006044820152606401610434565b610923848484840361078b565b50505050565b6001600160a01b03831661098d5760405162461bcd60e51b815260206004820152602560248201527f45524332303a207472616e736665722066726f6d20746865207a65726f206164604482015264647265737360d81b6064820152608401610434565b6001600160a01b0382166109ef5760405162461bcd60e51b815260206004820152602360248201527f45524332303a207472616e7366657220746f20746865207a65726f206164647260448201526265737360e81b6064820152608401610434565b336000908152600560209081526040808320546001600160a01b038716845260049092528220549091610a228383610d63565b905083811015610a875760405162461bcd60e51b815260206004820152602a60248201527f45524332303a207472616e7366657261626c6520616d6f756e7420657863656560448201526964732062616c616e636560b01b6064820152608401610434565b6001600160a01b03808716600090815260046020526040808220878603905591871681529081208054869290610abe908490610cf7565b92505081905550846001600160a01b0316866001600160a01b03167fddf252ad1be2c89b69c2b068fc378daa952ba7f163c4a11628f55a4df523b3ef86604051610b0a91815260200190565b60405180910390a3505050505050565b3360009081526003602090815260408083206001600160a01b038516845290915281208054849290610b4d908490610cf7565b90915550503360009081526005602052604081208054849290610b71908490610cf7565b90915550505050565b600060208083528351808285015260005b81811015610ba757858101830151858201604001528201610b8b565b81811115610bb9576000604083870101525b50601f01601f1916929092016040019392505050565b80356001600160a01b0381168114610be657600080fd5b919050565b60008060408385031215610bfe57600080fd5b610c0783610bcf565b946020939093013593505050565b600080600060608486031215610c2a57600080fd5b610c3384610bcf565b9250610c4160208501610bcf565b9150604084013590509250925092565b600060208284031215610c6357600080fd5b610c6c82610bcf565b9392505050565b60008060408385031215610c8657600080fd5b610c8f83610bcf565b9150610c9d60208401610bcf565b90509250929050565b600181811c90821680610cba57607f821691505b60208210811415610cdb57634e487b7160e01b600052602260045260246000fd5b50919050565b634e487b7160e01b600052601160045260246000fd5b60008219821115610d0a57610d0a610ce1565b500190565b634e487b7160e01b600052601260045260246000fd5b600082610d3457610d34610d0f565b500690565b634e487b7160e01b600052600160045260246000fd5b600082610d5e57610d5e610d0f565b500490565b600082821015610d7557610d75610ce1565b50039056fea2646970667358221220fef11ed44e71549af41b0acf802a748ecd08558523687cd52474e51e86fbd90664736f6c634300080a0033",
    "linkReferences": {}
  }
}