{
	"backend/src/funder.sol": {
		"Funder": {
			"abi": [
				{
					"inputs": [
						{
							"internalType": "contract Voting",
							"name": "_vote",
							"type": "address"
						}
					],
					"stateMutability": "nonpayable",
					"type": "constructor"
				},
				{
					"anonymous": false,
					"inputs": [
						{
							"indexed": false,
							"internalType": "address",
							"name": "owner",
							"type": "address"
						},
						{
							"indexed": false,
							"internalType": "string",
							"name": "purpose",
							"type": "string"
						},
						{
							"indexed": false,
							"internalType": "uint256",
							"name": "amount",
							"type": "uint256"
						}
					],
					"name": "Request",
					"type": "event"
				},
				{
					"anonymous": false,
					"inputs": [
						{
							"indexed": false,
							"internalType": "address",
							"name": "owner",
							"type": "address"
						},
						{
							"indexed": false,
							"internalType": "address",
							"name": "beneficiary",
							"type": "address"
						},
						{
							"indexed": false,
							"internalType": "uint256",
							"name": "amount",
							"type": "uint256"
						}
					],
					"name": "donate",
					"type": "event"
				},
				{
					"anonymous": false,
					"inputs": [
						{
							"indexed": false,
							"internalType": "address",
							"name": "owner",
							"type": "address"
						},
						{
							"indexed": false,
							"internalType": "uint256",
							"name": "amount",
							"type": "uint256"
						},
						{
							"indexed": false,
							"internalType": "bool",
							"name": "status",
							"type": "bool"
						}
					],
					"name": "withdraw",
					"type": "event"
				},
				{
					"inputs": [
						{
							"internalType": "address",
							"name": "owner",
							"type": "address"
						}
					],
					"name": "checkBalanceOf",
					"outputs": [
						{
							"internalType": "uint256",
							"name": "",
							"type": "uint256"
						}
					],
					"stateMutability": "view",
					"type": "function"
				},
				{
					"inputs": [],
					"name": "checkBalanceOfContract",
					"outputs": [
						{
							"internalType": "uint256",
							"name": "",
							"type": "uint256"
						}
					],
					"stateMutability": "view",
					"type": "function"
				},
				{
					"inputs": [
						{
							"internalType": "address",
							"name": "beneficiary",
							"type": "address"
						}
					],
					"name": "donateFunds",
					"outputs": [],
					"stateMutability": "payable",
					"type": "function"
				},
				{
					"inputs": [
						{
							"internalType": "address",
							"name": "",
							"type": "address"
						}
					],
					"name": "fundsprosps",
					"outputs": [
						{
							"internalType": "string",
							"name": "Purpose",
							"type": "string"
						},
						{
							"internalType": "uint256",
							"name": "amount",
							"type": "uint256"
						},
						{
							"internalType": "uint256",
							"name": "amountGenerared",
							"type": "uint256"
						},
						{
							"internalType": "uint256",
							"name": "time",
							"type": "uint256"
						},
						{
							"internalType": "bool",
							"name": "status",
							"type": "bool"
						}
					],
					"stateMutability": "view",
					"type": "function"
				},
				{
					"inputs": [
						{
							"internalType": "address",
							"name": "beneficiary",
							"type": "address"
						}
					],
					"name": "getBeneficiaryProps",
					"outputs": [
						{
							"components": [
								{
									"internalType": "string",
									"name": "Purpose",
									"type": "string"
								},
								{
									"internalType": "uint256",
									"name": "amount",
									"type": "uint256"
								},
								{
									"internalType": "uint256",
									"name": "amountGenerared",
									"type": "uint256"
								},
								{
									"internalType": "uint256",
									"name": "time",
									"type": "uint256"
								},
								{
									"internalType": "bool",
									"name": "status",
									"type": "bool"
								}
							],
							"internalType": "struct Funder.FundProps",
							"name": "props",
							"type": "tuple"
						}
					],
					"stateMutability": "view",
					"type": "function"
				},
				{
					"inputs": [
						{
							"internalType": "address",
							"name": "beneficiary",
							"type": "address"
						}
					],
					"name": "getBeneficiaryStatus",
					"outputs": [
						{
							"internalType": "bool",
							"name": "status",
							"type": "bool"
						}
					],
					"stateMutability": "view",
					"type": "function"
				},
				{
					"inputs": [
						{
							"internalType": "address",
							"name": "",
							"type": "address"
						}
					],
					"name": "investors",
					"outputs": [
						{
							"internalType": "uint256",
							"name": "",
							"type": "uint256"
						}
					],
					"stateMutability": "view",
					"type": "function"
				},
				{
					"inputs": [
						{
							"internalType": "string",
							"name": "_purpose",
							"type": "string"
						},
						{
							"internalType": "uint256",
							"name": "_amount",
							"type": "uint256"
						},
						{
							"internalType": "uint256",
							"name": "_time",
							"type": "uint256"
						}
					],
					"name": "requestFund",
					"outputs": [],
					"stateMutability": "nonpayable",
					"type": "function"
				},
				{
					"inputs": [
						{
							"internalType": "address",
							"name": "beneficiary",
							"type": "address"
						}
					],
					"name": "setStatus",
					"outputs": [],
					"stateMutability": "nonpayable",
					"type": "function"
				},
				{
					"inputs": [],
					"name": "withdrawAll",
					"outputs": [],
					"stateMutability": "payable",
					"type": "function"
				},
				{
					"inputs": [
						{
							"internalType": "uint256",
							"name": "amount",
							"type": "uint256"
						}
					],
					"name": "withdrawPart",
					"outputs": [],
					"stateMutability": "payable",
					"type": "function"
				}
			],
			"devdoc": {
				"kind": "dev",
				"methods": {
					"checkBalanceOf(address)": {
						"returns": {
							"_0": "return the amount generated*"
						}
					},
					"donateFunds(address)": {
						"params": {
							"beneficiary": "The spender of the funds being donated"
						}
					},
					"requestFund(string,uint256,uint256)": {
						"params": {
							"_amount": "The amount needed to fulfill the purpose",
							"_purpose": "The Purpose of the fund requested for"
						}
					},
					"withdrawPart(uint256)": {
						"params": {
							"amount": "The amount to withdraw from the total amount generated"
						}
					}
				},
				"version": 1
			},
			"evm": {
				"assembly": "    /* \"backend/src/funder.sol\":187:4900  contract Funder{... */\n  mstore(0x40, 0x80)\n    /* \"backend/src/funder.sol\":1032:1088  constructor(Voting _vote){... */\n  callvalue\n  dup1\n  iszero\n  tag_1\n  jumpi\n  0x00\n  dup1\n  revert\ntag_1:\n  pop\n  mload(0x40)\n  sub(codesize, bytecodeSize)\n  dup1\n  bytecodeSize\n  dup4\n  codecopy\n  dup2\n  dup2\n  add\n  0x40\n  mstore\n  dup2\n  add\n  swap1\n  tag_2\n  swap2\n  swap1\n  tag_3\n  jump\t// in\ntag_2:\n    /* \"backend/src/funder.sol\":1075:1080  _vote */\n  dup1\n    /* \"backend/src/funder.sol\":1068:1072  vote */\n  0x00\n  dup1\n    /* \"backend/src/funder.sol\":1068:1080  vote = _vote */\n  0x0100\n  exp\n  dup2\n  sload\n  dup2\n  0xffffffffffffffffffffffffffffffffffffffff\n  mul\n  not\n  and\n  swap1\n  dup4\n  0xffffffffffffffffffffffffffffffffffffffff\n  and\n  mul\n  or\n  swap1\n  sstore\n  pop\n    /* \"backend/src/funder.sol\":1032:1088  constructor(Voting _vote){... */\n  pop\n    /* \"backend/src/funder.sol\":187:4900  contract Funder{... */\n  jump(tag_6)\n    /* \"#utility.yul\":88:205   */\ntag_8:\n    /* \"#utility.yul\":197:198   */\n  0x00\n    /* \"#utility.yul\":194:195   */\n  dup1\n    /* \"#utility.yul\":187:199   */\n  revert\n    /* \"#utility.yul\":334:460   */\ntag_10:\n    /* \"#utility.yul\":371:378   */\n  0x00\n    /* \"#utility.yul\":411:453   */\n  0xffffffffffffffffffffffffffffffffffffffff\n    /* \"#utility.yul\":404:409   */\n  dup3\n    /* \"#utility.yul\":400:454   */\n  and\n    /* \"#utility.yul\":389:454   */\n  swap1\n  pop\n    /* \"#utility.yul\":334:460   */\n  swap2\n  swap1\n  pop\n  jump\t// out\n    /* \"#utility.yul\":466:562   */\ntag_11:\n    /* \"#utility.yul\":503:510   */\n  0x00\n    /* \"#utility.yul\":532:556   */\n  tag_21\n    /* \"#utility.yul\":550:555   */\n  dup3\n    /* \"#utility.yul\":532:556   */\n  tag_10\n  jump\t// in\ntag_21:\n    /* \"#utility.yul\":521:556   */\n  swap1\n  pop\n    /* \"#utility.yul\":466:562   */\n  swap2\n  swap1\n  pop\n  jump\t// out\n    /* \"#utility.yul\":568:679   */\ntag_12:\n    /* \"#utility.yul\":620:627   */\n  0x00\n    /* \"#utility.yul\":649:673   */\n  tag_23\n    /* \"#utility.yul\":667:672   */\n  dup3\n    /* \"#utility.yul\":649:673   */\n  tag_11\n  jump\t// in\ntag_23:\n    /* \"#utility.yul\":638:673   */\n  swap1\n  pop\n    /* \"#utility.yul\":568:679   */\n  swap2\n  swap1\n  pop\n  jump\t// out\n    /* \"#utility.yul\":685:837   */\ntag_13:\n    /* \"#utility.yul\":773:812   */\n  tag_25\n    /* \"#utility.yul\":806:811   */\n  dup2\n    /* \"#utility.yul\":773:812   */\n  tag_12\n  jump\t// in\ntag_25:\n    /* \"#utility.yul\":766:771   */\n  dup2\n    /* \"#utility.yul\":763:813   */\n  eq\n    /* \"#utility.yul\":753:831   */\n  tag_26\n  jumpi\n    /* \"#utility.yul\":827:828   */\n  0x00\n    /* \"#utility.yul\":824:825   */\n  dup1\n    /* \"#utility.yul\":817:829   */\n  revert\n    /* \"#utility.yul\":753:831   */\ntag_26:\n    /* \"#utility.yul\":685:837   */\n  pop\n  jump\t// out\n    /* \"#utility.yul\":843:1016   */\ntag_14:\n    /* \"#utility.yul\":915:920   */\n  0x00\n    /* \"#utility.yul\":946:952   */\n  dup2\n    /* \"#utility.yul\":940:953   */\n  mload\n    /* \"#utility.yul\":931:953   */\n  swap1\n  pop\n    /* \"#utility.yul\":962:1010   */\n  tag_28\n    /* \"#utility.yul\":1004:1009   */\n  dup2\n    /* \"#utility.yul\":962:1010   */\n  tag_13\n  jump\t// in\ntag_28:\n    /* \"#utility.yul\":843:1016   */\n  swap3\n  swap2\n  pop\n  pop\n  jump\t// out\n    /* \"#utility.yul\":1022:1403   */\ntag_3:\n    /* \"#utility.yul\":1107:1113   */\n  0x00\n    /* \"#utility.yul\":1156:1158   */\n  0x20\n    /* \"#utility.yul\":1144:1153   */\n  dup3\n    /* \"#utility.yul\":1135:1142   */\n  dup5\n    /* \"#utility.yul\":1131:1154   */\n  sub\n    /* \"#utility.yul\":1127:1159   */\n  slt\n    /* \"#utility.yul\":1124:1243   */\n  iszero\n  tag_30\n  jumpi\n    /* \"#utility.yul\":1162:1241   */\n  tag_31\n  tag_8\n  jump\t// in\ntag_31:\n    /* \"#utility.yul\":1124:1243   */\ntag_30:\n    /* \"#utility.yul\":1282:1283   */\n  0x00\n    /* \"#utility.yul\":1307:1386   */\n  tag_32\n    /* \"#utility.yul\":1378:1385   */\n  dup5\n    /* \"#utility.yul\":1369:1375   */\n  dup3\n    /* \"#utility.yul\":1358:1367   */\n  dup6\n    /* \"#utility.yul\":1354:1376   */\n  add\n    /* \"#utility.yul\":1307:1386   */\n  tag_14\n  jump\t// in\ntag_32:\n    /* \"#utility.yul\":1297:1386   */\n  swap2\n  pop\n    /* \"#utility.yul\":1253:1396   */\n  pop\n    /* \"#utility.yul\":1022:1403   */\n  swap3\n  swap2\n  pop\n  pop\n  jump\t// out\n    /* \"backend/src/funder.sol\":187:4900  contract Funder{... */\ntag_6:\n  dataSize(sub_0)\n  dup1\n  dataOffset(sub_0)\n  0x00\n  codecopy\n  0x00\n  return\nstop\n\nsub_0: assembly {\n        /* \"backend/src/funder.sol\":187:4900  contract Funder{... */\n      mstore(0x40, 0x80)\n      jumpi(tag_1, lt(calldatasize, 0x04))\n      shr(0xe0, calldataload(0x00))\n      dup1\n      0x7b9cd8c2\n      gt\n      tag_13\n      jumpi\n      dup1\n      0x7b9cd8c2\n      eq\n      tag_7\n      jumpi\n      dup1\n      0x7daf06fd\n      eq\n      tag_8\n      jumpi\n      dup1\n      0x853828b6\n      eq\n      tag_9\n      jumpi\n      dup1\n      0xb540795b\n      eq\n      tag_10\n      jumpi\n      dup1\n      0xb6ec54de\n      eq\n      tag_11\n      jumpi\n      dup1\n      0xd5247dda\n      eq\n      tag_12\n      jumpi\n      jump(tag_1)\n    tag_13:\n      dup1\n      0x03147f39\n      eq\n      tag_2\n      jumpi\n      dup1\n      0x0e60bfad\n      eq\n      tag_3\n      jumpi\n      dup1\n      0x14204dbb\n      eq\n      tag_4\n      jumpi\n      dup1\n      0x4fb2d09d\n      eq\n      tag_5\n      jumpi\n      dup1\n      0x6f7bc9be\n      eq\n      tag_6\n      jumpi\n    tag_1:\n      0x00\n      dup1\n      revert\n        /* \"backend/src/funder.sol\":4204:4332  function checkBalanceOf(address owner) external view returns (uint256){... */\n    tag_2:\n      callvalue\n      dup1\n      iszero\n      tag_14\n      jumpi\n      0x00\n      dup1\n      revert\n    tag_14:\n      pop\n      tag_15\n      0x04\n      dup1\n      calldatasize\n      sub\n      dup2\n      add\n      swap1\n      tag_16\n      swap2\n      swap1\n      tag_17\n      jump\t// in\n    tag_16:\n      tag_18\n      jump\t// in\n    tag_15:\n      mload(0x40)\n      tag_19\n      swap2\n      swap1\n      tag_20\n      jump\t// in\n    tag_19:\n      mload(0x40)\n      dup1\n      swap2\n      sub\n      swap1\n      return\n        /* \"backend/src/funder.sol\":4453:4893  function getBeneficiaryProps(address beneficiary) external view returns(FundProps memory props){... */\n    tag_3:\n      callvalue\n      dup1\n      iszero\n      tag_21\n      jumpi\n      0x00\n      dup1\n      revert\n    tag_21:\n      pop\n      tag_22\n      0x04\n      dup1\n      calldatasize\n      sub\n      dup2\n      add\n      swap1\n      tag_23\n      swap2\n      swap1\n      tag_17\n      jump\t// in\n    tag_23:\n      tag_24\n      jump\t// in\n    tag_22:\n      mload(0x40)\n      tag_25\n      swap2\n      swap1\n      tag_26\n      jump\t// in\n    tag_25:\n      mload(0x40)\n      dup1\n      swap2\n      sub\n      swap1\n      return\n        /* \"backend/src/funder.sol\":1662:1946  function setStatus(address beneficiary) external{... */\n    tag_4:\n      callvalue\n      dup1\n      iszero\n      tag_27\n      jumpi\n      0x00\n      dup1\n      revert\n    tag_27:\n      pop\n      tag_28\n      0x04\n      dup1\n      calldatasize\n      sub\n      dup2\n      add\n      swap1\n      tag_29\n      swap2\n      swap1\n      tag_17\n      jump\t// in\n    tag_29:\n      tag_30\n      jump\t// in\n    tag_28:\n      stop\n        /* \"backend/src/funder.sol\":2087:2576  function donateFunds(address beneficiary) external payable{... */\n    tag_5:\n      tag_31\n      0x04\n      dup1\n      calldatasize\n      sub\n      dup2\n      add\n      swap1\n      tag_32\n      swap2\n      swap1\n      tag_17\n      jump\t// in\n    tag_32:\n      tag_33\n      jump\t// in\n    tag_31:\n      stop\n        /* \"backend/src/funder.sol\":617:659  mapping (address => uint) public investors */\n    tag_6:\n      callvalue\n      dup1\n      iszero\n      tag_34\n      jumpi\n      0x00\n      dup1\n      revert\n    tag_34:\n      pop\n      tag_35\n      0x04\n      dup1\n      calldatasize\n      sub\n      dup2\n      add\n      swap1\n      tag_36\n      swap2\n      swap1\n      tag_17\n      jump\t// in\n    tag_36:\n      tag_37\n      jump\t// in\n    tag_35:\n      mload(0x40)\n      tag_38\n      swap2\n      swap1\n      tag_20\n      jump\t// in\n    tag_38:\n      mload(0x40)\n      dup1\n      swap2\n      sub\n      swap1\n      return\n        /* \"backend/src/funder.sol\":4338:4447  function checkBalanceOfContract() external view returns(uint256){... */\n    tag_7:\n      callvalue\n      dup1\n      iszero\n      tag_39\n      jumpi\n      0x00\n      dup1\n      revert\n    tag_39:\n      pop\n      tag_40\n      tag_41\n      jump\t// in\n    tag_40:\n      mload(0x40)\n      tag_42\n      swap2\n      swap1\n      tag_20\n      jump\t// in\n    tag_42:\n      mload(0x40)\n      dup1\n      swap2\n      sub\n      swap1\n      return\n        /* \"backend/src/funder.sol\":3295:3819  function withdrawPart(uint amount) external payable {... */\n    tag_8:\n      tag_43\n      0x04\n      dup1\n      calldatasize\n      sub\n      dup2\n      add\n      swap1\n      tag_44\n      swap2\n      swap1\n      tag_45\n      jump\t// in\n    tag_44:\n      tag_46\n      jump\t// in\n    tag_43:\n      stop\n        /* \"backend/src/funder.sol\":2676:3148  function withdrawAll() external payable{... */\n    tag_9:\n      tag_47\n      tag_48\n      jump\t// in\n    tag_47:\n      stop\n        /* \"backend/src/funder.sol\":562:611  mapping (address => FundProps) public fundsprosps */\n    tag_10:\n      callvalue\n      dup1\n      iszero\n      tag_49\n      jumpi\n      0x00\n      dup1\n      revert\n    tag_49:\n      pop\n      tag_50\n      0x04\n      dup1\n      calldatasize\n      sub\n      dup2\n      add\n      swap1\n      tag_51\n      swap2\n      swap1\n      tag_17\n      jump\t// in\n    tag_51:\n      tag_52\n      jump\t// in\n    tag_50:\n      mload(0x40)\n      tag_53\n      swap6\n      swap5\n      swap4\n      swap3\n      swap2\n      swap1\n      tag_54\n      jump\t// in\n    tag_53:\n      mload(0x40)\n      dup1\n      swap2\n      sub\n      swap1\n      return\n        /* \"backend/src/funder.sol\":1365:1656  function requestFund(string memory _purpose, uint _amount, uint _time) external {... */\n    tag_11:\n      callvalue\n      dup1\n      iszero\n      tag_55\n      jumpi\n      0x00\n      dup1\n      revert\n    tag_55:\n      pop\n      tag_56\n      0x04\n      dup1\n      calldatasize\n      sub\n      dup2\n      add\n      swap1\n      tag_57\n      swap2\n      swap1\n      tag_58\n      jump\t// in\n    tag_57:\n      tag_59\n      jump\t// in\n    tag_56:\n      stop\n        /* \"backend/src/funder.sol\":3898:4079  function getBeneficiaryStatus(address beneficiary)  public view returns(bool status){... */\n    tag_12:\n      callvalue\n      dup1\n      iszero\n      tag_60\n      jumpi\n      0x00\n      dup1\n      revert\n    tag_60:\n      pop\n      tag_61\n      0x04\n      dup1\n      calldatasize\n      sub\n      dup2\n      add\n      swap1\n      tag_62\n      swap2\n      swap1\n      tag_17\n      jump\t// in\n    tag_62:\n      tag_63\n      jump\t// in\n    tag_61:\n      mload(0x40)\n      tag_64\n      swap2\n      swap1\n      tag_65\n      jump\t// in\n    tag_64:\n      mload(0x40)\n      dup1\n      swap2\n      sub\n      swap1\n      return\n        /* \"backend/src/funder.sol\":4204:4332  function checkBalanceOf(address owner) external view returns (uint256){... */\n    tag_18:\n        /* \"backend/src/funder.sol\":4266:4273  uint256 */\n      0x00\n        /* \"backend/src/funder.sol\":4291:4302  fundsprosps */\n      0x01\n        /* \"backend/src/funder.sol\":4291:4309  fundsprosps[owner] */\n      0x00\n        /* \"backend/src/funder.sol\":4303:4308  owner */\n      dup4\n        /* \"backend/src/funder.sol\":4291:4309  fundsprosps[owner] */\n      0xffffffffffffffffffffffffffffffffffffffff\n      and\n      0xffffffffffffffffffffffffffffffffffffffff\n      and\n      dup2\n      mstore\n      0x20\n      add\n      swap1\n      dup2\n      mstore\n      0x20\n      add\n      0x00\n      keccak256\n        /* \"backend/src/funder.sol\":4291:4325  fundsprosps[owner].amountGenerared */\n      0x02\n      add\n      sload\n        /* \"backend/src/funder.sol\":4284:4325  return fundsprosps[owner].amountGenerared */\n      swap1\n      pop\n        /* \"backend/src/funder.sol\":4204:4332  function checkBalanceOf(address owner) external view returns (uint256){... */\n      swap2\n      swap1\n      pop\n      jump\t// out\n        /* \"backend/src/funder.sol\":4453:4893  function getBeneficiaryProps(address beneficiary) external view returns(FundProps memory props){... */\n    tag_24:\n        /* \"backend/src/funder.sol\":4525:4547  FundProps memory props */\n      tag_67\n      tag_68\n      jump\t// in\n    tag_67:\n        /* \"backend/src/funder.sol\":4566:4577  fundsprosps */\n      0x01\n        /* \"backend/src/funder.sol\":4566:4590  fundsprosps[beneficiary] */\n      0x00\n        /* \"backend/src/funder.sol\":4578:4589  beneficiary */\n      dup4\n        /* \"backend/src/funder.sol\":4566:4590  fundsprosps[beneficiary] */\n      0xffffffffffffffffffffffffffffffffffffffff\n      and\n      0xffffffffffffffffffffffffffffffffffffffff\n      and\n      dup2\n      mstore\n      0x20\n      add\n      swap1\n      dup2\n      mstore\n      0x20\n      add\n      0x00\n      keccak256\n        /* \"backend/src/funder.sol\":4558:4590  props = fundsprosps[beneficiary] */\n      mload(0x40)\n      dup1\n      0xa0\n      add\n      0x40\n      mstore\n      swap1\n      dup2\n      0x00\n      dup3\n      add\n      dup1\n      sload\n      tag_70\n      swap1\n      tag_71\n      jump\t// in\n    tag_70:\n      dup1\n      0x1f\n      add\n      0x20\n      dup1\n      swap2\n      div\n      mul\n      0x20\n      add\n      mload(0x40)\n      swap1\n      dup2\n      add\n      0x40\n      mstore\n      dup1\n      swap3\n      swap2\n      swap1\n      dup2\n      dup2\n      mstore\n      0x20\n      add\n      dup3\n      dup1\n      sload\n      tag_72\n      swap1\n      tag_71\n      jump\t// in\n    tag_72:\n      dup1\n      iszero\n      tag_73\n      jumpi\n      dup1\n      0x1f\n      lt\n      tag_74\n      jumpi\n      0x0100\n      dup1\n      dup4\n      sload\n      div\n      mul\n      dup4\n      mstore\n      swap2\n      0x20\n      add\n      swap2\n      jump(tag_73)\n    tag_74:\n      dup3\n      add\n      swap2\n      swap1\n      0x00\n      mstore\n      keccak256(0x00, 0x20)\n      swap1\n    tag_75:\n      dup2\n      sload\n      dup2\n      mstore\n      swap1\n      0x01\n      add\n      swap1\n      0x20\n      add\n      dup1\n      dup4\n      gt\n      tag_75\n      jumpi\n      dup3\n      swap1\n      sub\n      0x1f\n      and\n      dup3\n      add\n      swap2\n    tag_73:\n      pop\n      pop\n      pop\n      pop\n      pop\n      dup2\n      mstore\n      0x20\n      add\n      0x01\n      dup3\n      add\n      sload\n      dup2\n      mstore\n      0x20\n      add\n      0x02\n      dup3\n      add\n      sload\n      dup2\n      mstore\n      0x20\n      add\n      0x03\n      dup3\n      add\n      sload\n      dup2\n      mstore\n      0x20\n      add\n      0x04\n      dup3\n      add\n      0x00\n      swap1\n      sload\n      swap1\n      0x0100\n      exp\n      swap1\n      div\n      0xff\n      and\n      iszero\n      iszero\n      iszero\n      iszero\n      dup2\n      mstore\n      pop\n      pop\n      swap1\n      pop\n        /* \"backend/src/funder.sol\":4616:4627  fundsprosps */\n      0x01\n        /* \"backend/src/funder.sol\":4616:4640  fundsprosps[beneficiary] */\n      0x00\n        /* \"backend/src/funder.sol\":4628:4639  beneficiary */\n      dup4\n        /* \"backend/src/funder.sol\":4616:4640  fundsprosps[beneficiary] */\n      0xffffffffffffffffffffffffffffffffffffffff\n      and\n      0xffffffffffffffffffffffffffffffffffffffff\n      and\n      dup2\n      mstore\n      0x20\n      add\n      swap1\n      dup2\n      mstore\n      0x20\n      add\n      0x00\n      keccak256\n        /* \"backend/src/funder.sol\":4616:4648  fundsprosps[beneficiary].Purpose */\n      0x00\n      add\n        /* \"backend/src/funder.sol\":4600:4648  props.Purpose = fundsprosps[beneficiary].Purpose */\n      dup1\n      sload\n      tag_76\n      swap1\n      tag_71\n      jump\t// in\n    tag_76:\n      dup1\n      0x1f\n      add\n      0x20\n      dup1\n      swap2\n      div\n      mul\n      0x20\n      add\n      mload(0x40)\n      swap1\n      dup2\n      add\n      0x40\n      mstore\n      dup1\n      swap3\n      swap2\n      swap1\n      dup2\n      dup2\n      mstore\n      0x20\n      add\n      dup3\n      dup1\n      sload\n      tag_77\n      swap1\n      tag_71\n      jump\t// in\n    tag_77:\n      dup1\n      iszero\n      tag_78\n      jumpi\n      dup1\n      0x1f\n      lt\n      tag_79\n      jumpi\n      0x0100\n      dup1\n      dup4\n      sload\n      div\n      mul\n      dup4\n      mstore\n      swap2\n      0x20\n      add\n      swap2\n      jump(tag_78)\n    tag_79:\n      dup3\n      add\n      swap2\n      swap1\n      0x00\n      mstore\n      keccak256(0x00, 0x20)\n      swap1\n    tag_80:\n      dup2\n      sload\n      dup2\n      mstore\n      swap1\n      0x01\n      add\n      swap1\n      0x20\n      add\n      dup1\n      dup4\n      gt\n      tag_80\n      jumpi\n      dup3\n      swap1\n      sub\n      0x1f\n      and\n      dup3\n      add\n      swap2\n    tag_78:\n      pop\n      pop\n      pop\n      pop\n      pop\n        /* \"backend/src/funder.sol\":4600:4605  props */\n      dup2\n        /* \"backend/src/funder.sol\":4600:4613  props.Purpose */\n      0x00\n      add\n        /* \"backend/src/funder.sol\":4600:4648  props.Purpose = fundsprosps[beneficiary].Purpose */\n      dup2\n      swap1\n      mstore\n      pop\n        /* \"backend/src/funder.sol\":4673:4684  fundsprosps */\n      0x01\n        /* \"backend/src/funder.sol\":4673:4697  fundsprosps[beneficiary] */\n      0x00\n        /* \"backend/src/funder.sol\":4685:4696  beneficiary */\n      dup4\n        /* \"backend/src/funder.sol\":4673:4697  fundsprosps[beneficiary] */\n      0xffffffffffffffffffffffffffffffffffffffff\n      and\n      0xffffffffffffffffffffffffffffffffffffffff\n      and\n      dup2\n      mstore\n      0x20\n      add\n      swap1\n      dup2\n      mstore\n      0x20\n      add\n      0x00\n      keccak256\n        /* \"backend/src/funder.sol\":4673:4704  fundsprosps[beneficiary].amount */\n      0x01\n      add\n      sload\n        /* \"backend/src/funder.sol\":4658:4663  props */\n      dup2\n        /* \"backend/src/funder.sol\":4658:4670  props.amount */\n      0x20\n      add\n        /* \"backend/src/funder.sol\":4658:4704  props.amount = fundsprosps[beneficiary].amount */\n      dup2\n      dup2\n      mstore\n      pop\n      pop\n        /* \"backend/src/funder.sol\":4738:4749  fundsprosps */\n      0x01\n        /* \"backend/src/funder.sol\":4738:4762  fundsprosps[beneficiary] */\n      0x00\n        /* \"backend/src/funder.sol\":4750:4761  beneficiary */\n      dup4\n        /* \"backend/src/funder.sol\":4738:4762  fundsprosps[beneficiary] */\n      0xffffffffffffffffffffffffffffffffffffffff\n      and\n      0xffffffffffffffffffffffffffffffffffffffff\n      and\n      dup2\n      mstore\n      0x20\n      add\n      swap1\n      dup2\n      mstore\n      0x20\n      add\n      0x00\n      keccak256\n        /* \"backend/src/funder.sol\":4738:4778  fundsprosps[beneficiary].amountGenerared */\n      0x02\n      add\n      sload\n        /* \"backend/src/funder.sol\":4714:4719  props */\n      dup2\n        /* \"backend/src/funder.sol\":4714:4735  props.amountGenerared */\n      0x40\n      add\n        /* \"backend/src/funder.sol\":4714:4778  props.amountGenerared = fundsprosps[beneficiary].amountGenerared */\n      dup2\n      dup2\n      mstore\n      pop\n      pop\n        /* \"backend/src/funder.sol\":4801:4812  fundsprosps */\n      0x01\n        /* \"backend/src/funder.sol\":4801:4825  fundsprosps[beneficiary] */\n      0x00\n        /* \"backend/src/funder.sol\":4813:4824  beneficiary */\n      dup4\n        /* \"backend/src/funder.sol\":4801:4825  fundsprosps[beneficiary] */\n      0xffffffffffffffffffffffffffffffffffffffff\n      and\n      0xffffffffffffffffffffffffffffffffffffffff\n      and\n      dup2\n      mstore\n      0x20\n      add\n      swap1\n      dup2\n      mstore\n      0x20\n      add\n      0x00\n      keccak256\n        /* \"backend/src/funder.sol\":4801:4830  fundsprosps[beneficiary].time */\n      0x03\n      add\n      sload\n        /* \"backend/src/funder.sol\":4788:4793  props */\n      dup2\n        /* \"backend/src/funder.sol\":4788:4798  props.time */\n      0x60\n      add\n        /* \"backend/src/funder.sol\":4788:4830  props.time = fundsprosps[beneficiary].time */\n      dup2\n      dup2\n      mstore\n      pop\n      pop\n        /* \"backend/src/funder.sol\":4855:4866  fundsprosps */\n      0x01\n        /* \"backend/src/funder.sol\":4855:4879  fundsprosps[beneficiary] */\n      0x00\n        /* \"backend/src/funder.sol\":4867:4878  beneficiary */\n      dup4\n        /* \"backend/src/funder.sol\":4855:4879  fundsprosps[beneficiary] */\n      0xffffffffffffffffffffffffffffffffffffffff\n      and\n      0xffffffffffffffffffffffffffffffffffffffff\n      and\n      dup2\n      mstore\n      0x20\n      add\n      swap1\n      dup2\n      mstore\n      0x20\n      add\n      0x00\n      keccak256\n        /* \"backend/src/funder.sol\":4855:4886  fundsprosps[beneficiary].status */\n      0x04\n      add\n      0x00\n      swap1\n      sload\n      swap1\n      0x0100\n      exp\n      swap1\n      div\n      0xff\n      and\n        /* \"backend/src/funder.sol\":4840:4845  props */\n      dup2\n        /* \"backend/src/funder.sol\":4840:4852  props.status */\n      0x80\n      add\n        /* \"backend/src/funder.sol\":4840:4886  props.status = fundsprosps[beneficiary].status */\n      swap1\n      iszero\n      iszero\n      swap1\n      dup2\n      iszero\n      iszero\n      dup2\n      mstore\n      pop\n      pop\n        /* \"backend/src/funder.sol\":4453:4893  function getBeneficiaryProps(address beneficiary) external view returns(FundProps memory props){... */\n      swap2\n      swap1\n      pop\n      jump\t// out\n        /* \"backend/src/funder.sol\":1662:1946  function setStatus(address beneficiary) external{... */\n    tag_30:\n        /* \"backend/src/funder.sol\":1720:1740  FundProps storage FP */\n      0x00\n        /* \"backend/src/funder.sol\":1743:1754  fundsprosps */\n      0x01\n        /* \"backend/src/funder.sol\":1743:1767  fundsprosps[beneficiary] */\n      0x00\n        /* \"backend/src/funder.sol\":1755:1766  beneficiary */\n      dup4\n        /* \"backend/src/funder.sol\":1743:1767  fundsprosps[beneficiary] */\n      0xffffffffffffffffffffffffffffffffffffffff\n      and\n      0xffffffffffffffffffffffffffffffffffffffff\n      and\n      dup2\n      mstore\n      0x20\n      add\n      swap1\n      dup2\n      mstore\n      0x20\n      add\n      0x00\n      keccak256\n        /* \"backend/src/funder.sol\":1720:1767  FundProps storage FP = fundsprosps[beneficiary] */\n      swap1\n      pop\n        /* \"backend/src/funder.sol\":1777:1788  bool status */\n      0x00\n        /* \"backend/src/funder.sol\":1791:1795  vote */\n      dup1\n      0x00\n      swap1\n      sload\n      swap1\n      0x0100\n      exp\n      swap1\n      div\n      0xffffffffffffffffffffffffffffffffffffffff\n      and\n        /* \"backend/src/funder.sol\":1791:1822  vote.getBeneficiaryVotingStatus */\n      0xffffffffffffffffffffffffffffffffffffffff\n      and\n      0xe3a17b3b\n        /* \"backend/src/funder.sol\":1823:1834  beneficiary */\n      dup5\n        /* \"backend/src/funder.sol\":1791:1835  vote.getBeneficiaryVotingStatus(beneficiary) */\n      mload(0x40)\n      dup3\n      0xffffffff\n      and\n      0xe0\n      shl\n      dup2\n      mstore\n      0x04\n      add\n      tag_82\n      swap2\n      swap1\n      tag_83\n      jump\t// in\n    tag_82:\n      0x20\n      mload(0x40)\n      dup1\n      dup4\n      sub\n      dup2\n      dup7\n      gas\n      staticcall\n      iszero\n      dup1\n      iszero\n      tag_85\n      jumpi\n      returndatasize\n      0x00\n      dup1\n      returndatacopy\n      revert(0x00, returndatasize)\n    tag_85:\n      pop\n      pop\n      pop\n      pop\n      mload(0x40)\n      returndatasize\n      not(0x1f)\n      0x1f\n      dup3\n      add\n      and\n      dup3\n      add\n      dup1\n      0x40\n      mstore\n      pop\n      dup2\n      add\n      swap1\n      tag_86\n      swap2\n      swap1\n      tag_87\n      jump\t// in\n    tag_86:\n        /* \"backend/src/funder.sol\":1777:1835  bool status = vote.getBeneficiaryVotingStatus(beneficiary) */\n      swap1\n      pop\n        /* \"backend/src/funder.sol\":1863:1867  true */\n      0x01\n        /* \"backend/src/funder.sol\":1853:1867  status == true */\n      iszero\n      iszero\n        /* \"backend/src/funder.sol\":1853:1859  status */\n      dup2\n        /* \"backend/src/funder.sol\":1853:1867  status == true */\n      iszero\n      iszero\n      eq\n        /* \"backend/src/funder.sol\":1845:1908  require(status == true, \"vote for this request is yet to pass\") */\n      tag_88\n      jumpi\n      mload(0x40)\n      0x08c379a000000000000000000000000000000000000000000000000000000000\n      dup2\n      mstore\n      0x04\n      add\n      tag_89\n      swap1\n      tag_90\n      jump\t// in\n    tag_89:\n      mload(0x40)\n      dup1\n      swap2\n      sub\n      swap1\n      revert\n    tag_88:\n        /* \"backend/src/funder.sol\":1930:1934  true */\n      0x01\n        /* \"backend/src/funder.sol\":1918:1920  FP */\n      dup3\n        /* \"backend/src/funder.sol\":1918:1927  FP.status */\n      0x04\n      add\n      0x00\n        /* \"backend/src/funder.sol\":1918:1934  FP.status = true */\n      0x0100\n      exp\n      dup2\n      sload\n      dup2\n      0xff\n      mul\n      not\n      and\n      swap1\n      dup4\n      iszero\n      iszero\n      mul\n      or\n      swap1\n      sstore\n      pop\n        /* \"backend/src/funder.sol\":1710:1946  {... */\n      pop\n      pop\n        /* \"backend/src/funder.sol\":1662:1946  function setStatus(address beneficiary) external{... */\n      pop\n      jump\t// out\n        /* \"backend/src/funder.sol\":2087:2576  function donateFunds(address beneficiary) external payable{... */\n    tag_33:\n        /* \"backend/src/funder.sol\":2155:2175  FundProps storage FP */\n      0x00\n        /* \"backend/src/funder.sol\":2178:2189  fundsprosps */\n      0x01\n        /* \"backend/src/funder.sol\":2178:2202  fundsprosps[beneficiary] */\n      0x00\n        /* \"backend/src/funder.sol\":2190:2201  beneficiary */\n      dup4\n        /* \"backend/src/funder.sol\":2178:2202  fundsprosps[beneficiary] */\n      0xffffffffffffffffffffffffffffffffffffffff\n      and\n      0xffffffffffffffffffffffffffffffffffffffff\n      and\n      dup2\n      mstore\n      0x20\n      add\n      swap1\n      dup2\n      mstore\n      0x20\n      add\n      0x00\n      keccak256\n        /* \"backend/src/funder.sol\":2155:2202  FundProps storage FP = fundsprosps[beneficiary] */\n      swap1\n      pop\n        /* \"backend/src/funder.sol\":2233:2234  0 */\n      0x00\n        /* \"backend/src/funder.sol\":2220:2229  msg.value */\n      callvalue\n        /* \"backend/src/funder.sol\":2220:2234  msg.value != 0 */\n      eq\n      iszero\n        /* \"backend/src/funder.sol\":2212:2265  require(msg.value != 0, \"you can't transfer 0 value\") */\n      tag_92\n      jumpi\n      mload(0x40)\n      0x08c379a000000000000000000000000000000000000000000000000000000000\n      dup2\n      mstore\n      0x04\n      add\n      tag_93\n      swap1\n      tag_94\n      jump\t// in\n    tag_93:\n      mload(0x40)\n      dup1\n      swap2\n      sub\n      swap1\n      revert\n    tag_92:\n        /* \"backend/src/funder.sol\":2296:2300  true */\n      0x01\n        /* \"backend/src/funder.sol\":2283:2300  FP.status == true */\n      iszero\n      iszero\n        /* \"backend/src/funder.sol\":2283:2285  FP */\n      dup2\n        /* \"backend/src/funder.sol\":2283:2292  FP.status */\n      0x04\n      add\n      0x00\n      swap1\n      sload\n      swap1\n      0x0100\n      exp\n      swap1\n      div\n      0xff\n      and\n        /* \"backend/src/funder.sol\":2283:2300  FP.status == true */\n      iszero\n      iszero\n      eq\n        /* \"backend/src/funder.sol\":2275:2345  require(FP.status == true, \"this proposal not available for donation\") */\n      tag_95\n      jumpi\n      mload(0x40)\n      0x08c379a000000000000000000000000000000000000000000000000000000000\n      dup2\n      mstore\n      0x04\n      add\n      tag_96\n      swap1\n      tag_97\n      jump\t// in\n    tag_96:\n      mload(0x40)\n      dup1\n      swap2\n      sub\n      swap1\n      revert\n    tag_95:\n        /* \"backend/src/funder.sol\":2384:2386  FP */\n      dup1\n        /* \"backend/src/funder.sol\":2384:2393  FP.amount */\n      0x01\n      add\n      sload\n        /* \"backend/src/funder.sol\":2363:2365  FP */\n      dup2\n        /* \"backend/src/funder.sol\":2363:2381  FP.amountGenerared */\n      0x02\n      add\n      sload\n        /* \"backend/src/funder.sol\":2363:2393  FP.amountGenerared < FP.amount */\n      lt\n        /* \"backend/src/funder.sol\":2355:2427  require(FP.amountGenerared < FP.amount, \"target reachead for this fund\") */\n      tag_98\n      jumpi\n      mload(0x40)\n      0x08c379a000000000000000000000000000000000000000000000000000000000\n      dup2\n      mstore\n      0x04\n      add\n      tag_99\n      swap1\n      tag_100\n      jump\t// in\n    tag_99:\n      mload(0x40)\n      dup1\n      swap2\n      sub\n      swap1\n      revert\n    tag_98:\n        /* \"backend/src/funder.sol\":2459:2468  msg.value */\n      callvalue\n        /* \"backend/src/funder.sol\":2437:2439  FP */\n      dup2\n        /* \"backend/src/funder.sol\":2437:2455  FP.amountGenerared */\n      0x02\n      add\n      0x00\n        /* \"backend/src/funder.sol\":2437:2468  FP.amountGenerared += msg.value */\n      dup3\n      dup3\n      sload\n      tag_101\n      swap2\n      swap1\n      tag_102\n      jump\t// in\n    tag_101:\n      swap3\n      pop\n      pop\n      dup2\n      swap1\n      sstore\n      pop\n        /* \"backend/src/funder.sol\":2502:2511  msg.value */\n      callvalue\n        /* \"backend/src/funder.sol\":2478:2487  investors */\n      0x02\n        /* \"backend/src/funder.sol\":2478:2499  investors[msg.sender] */\n      0x00\n        /* \"backend/src/funder.sol\":2488:2498  msg.sender */\n      caller\n        /* \"backend/src/funder.sol\":2478:2499  investors[msg.sender] */\n      0xffffffffffffffffffffffffffffffffffffffff\n      and\n      0xffffffffffffffffffffffffffffffffffffffff\n      and\n      dup2\n      mstore\n      0x20\n      add\n      swap1\n      dup2\n      mstore\n      0x20\n      add\n      0x00\n      keccak256\n      0x00\n        /* \"backend/src/funder.sol\":2478:2511  investors[msg.sender]+= msg.value */\n      dup3\n      dup3\n      sload\n      tag_103\n      swap2\n      swap1\n      tag_102\n      jump\t// in\n    tag_103:\n      swap3\n      pop\n      pop\n      dup2\n      swap1\n      sstore\n      pop\n        /* \"backend/src/funder.sol\":2526:2568  donate(msg.sender, beneficiary, msg.value) */\n      0x386bc05a2408454571efe4cbeeabd68940d5a301c55f31319f2b6aef331fedfc\n        /* \"backend/src/funder.sol\":2533:2543  msg.sender */\n      caller\n        /* \"backend/src/funder.sol\":2545:2556  beneficiary */\n      dup4\n        /* \"backend/src/funder.sol\":2558:2567  msg.value */\n      callvalue\n        /* \"backend/src/funder.sol\":2526:2568  donate(msg.sender, beneficiary, msg.value) */\n      mload(0x40)\n      tag_104\n      swap4\n      swap3\n      swap2\n      swap1\n      tag_105\n      jump\t// in\n    tag_104:\n      mload(0x40)\n      dup1\n      swap2\n      sub\n      swap1\n      log1\n        /* \"backend/src/funder.sol\":2145:2576  {... */\n      pop\n        /* \"backend/src/funder.sol\":2087:2576  function donateFunds(address beneficiary) external payable{... */\n      pop\n      jump\t// out\n        /* \"backend/src/funder.sol\":617:659  mapping (address => uint) public investors */\n    tag_37:\n      mstore(0x20, 0x02)\n      dup1\n      0x00\n      mstore\n      keccak256(0x00, 0x40)\n      0x00\n      swap2\n      pop\n      swap1\n      pop\n      sload\n      dup2\n      jump\t// out\n        /* \"backend/src/funder.sol\":4338:4447  function checkBalanceOfContract() external view returns(uint256){... */\n    tag_41:\n        /* \"backend/src/funder.sol\":4394:4401  uint256 */\n      0x00\n        /* \"backend/src/funder.sol\":4419:4440  address(this).balance */\n      selfbalance\n        /* \"backend/src/funder.sol\":4412:4440  return address(this).balance */\n      swap1\n      pop\n        /* \"backend/src/funder.sol\":4338:4447  function checkBalanceOfContract() external view returns(uint256){... */\n      swap1\n      jump\t// out\n        /* \"backend/src/funder.sol\":3295:3819  function withdrawPart(uint amount) external payable {... */\n    tag_46:\n        /* \"backend/src/funder.sol\":3357:3377  FundProps storage FP */\n      0x00\n        /* \"backend/src/funder.sol\":3380:3391  fundsprosps */\n      0x01\n        /* \"backend/src/funder.sol\":3380:3403  fundsprosps[msg.sender] */\n      0x00\n        /* \"backend/src/funder.sol\":3392:3402  msg.sender */\n      caller\n        /* \"backend/src/funder.sol\":3380:3403  fundsprosps[msg.sender] */\n      0xffffffffffffffffffffffffffffffffffffffff\n      and\n      0xffffffffffffffffffffffffffffffffffffffff\n      and\n      dup2\n      mstore\n      0x20\n      add\n      swap1\n      dup2\n      mstore\n      0x20\n      add\n      0x00\n      keccak256\n        /* \"backend/src/funder.sol\":3357:3403  FundProps storage FP = fundsprosps[msg.sender] */\n      swap1\n      pop\n        /* \"backend/src/funder.sol\":3434:3438  true */\n      0x01\n        /* \"backend/src/funder.sol\":3421:3438  FP.status == true */\n      iszero\n      iszero\n        /* \"backend/src/funder.sol\":3421:3423  FP */\n      dup2\n        /* \"backend/src/funder.sol\":3421:3430  FP.status */\n      0x04\n      add\n      0x00\n      swap1\n      sload\n      swap1\n      0x0100\n      exp\n      swap1\n      div\n      0xff\n      and\n        /* \"backend/src/funder.sol\":3421:3438  FP.status == true */\n      iszero\n      iszero\n      eq\n        /* \"backend/src/funder.sol\":3413:3473  require(FP.status == true, \"proposal has not been approved\") */\n      tag_108\n      jumpi\n      mload(0x40)\n      0x08c379a000000000000000000000000000000000000000000000000000000000\n      dup2\n      mstore\n      0x04\n      add\n      tag_109\n      swap1\n      tag_110\n      jump\t// in\n    tag_109:\n      mload(0x40)\n      dup1\n      swap2\n      sub\n      swap1\n      revert\n    tag_108:\n        /* \"backend/src/funder.sol\":3513:3515  FP */\n      dup1\n        /* \"backend/src/funder.sol\":3513:3522  FP.amount */\n      0x01\n      add\n      sload\n        /* \"backend/src/funder.sol\":3491:3493  FP */\n      dup2\n        /* \"backend/src/funder.sol\":3491:3509  FP.amountGenerared */\n      0x02\n      add\n      sload\n        /* \"backend/src/funder.sol\":3491:3522  FP.amountGenerared == FP.amount */\n      eq\n        /* \"backend/src/funder.sol\":3491:3551  FP.amountGenerared == FP.amount || block.timestamp > FP.time */\n      dup1\n      tag_111\n      jumpi\n      pop\n        /* \"backend/src/funder.sol\":3544:3546  FP */\n      dup1\n        /* \"backend/src/funder.sol\":3544:3551  FP.time */\n      0x03\n      add\n      sload\n        /* \"backend/src/funder.sol\":3526:3541  block.timestamp */\n      timestamp\n        /* \"backend/src/funder.sol\":3526:3551  block.timestamp > FP.time */\n      gt\n        /* \"backend/src/funder.sol\":3491:3551  FP.amountGenerared == FP.amount || block.timestamp > FP.time */\n    tag_111:\n        /* \"backend/src/funder.sol\":3483:3575  require(FP.amountGenerared == FP.amount || block.timestamp > FP.time, \"Funds yet to mature\") */\n      tag_112\n      jumpi\n      mload(0x40)\n      0x08c379a000000000000000000000000000000000000000000000000000000000\n      dup2\n      mstore\n      0x04\n      add\n      tag_113\n      swap1\n      tag_114\n      jump\t// in\n    tag_113:\n      mload(0x40)\n      dup1\n      swap2\n      sub\n      swap1\n      revert\n    tag_112:\n        /* \"backend/src/funder.sol\":3607:3613  amount */\n      dup2\n        /* \"backend/src/funder.sol\":3585:3587  FP */\n      dup2\n        /* \"backend/src/funder.sol\":3585:3603  FP.amountGenerared */\n      0x02\n      add\n      0x00\n        /* \"backend/src/funder.sol\":3585:3613  FP.amountGenerared -= amount */\n      dup3\n      dup3\n      sload\n      tag_115\n      swap2\n      swap1\n      tag_116\n      jump\t// in\n    tag_115:\n      swap3\n      pop\n      pop\n      dup2\n      swap1\n      sstore\n      pop\n        /* \"backend/src/funder.sol\":3636:3642  amount */\n      dup2\n        /* \"backend/src/funder.sol\":3623:3625  FP */\n      dup2\n        /* \"backend/src/funder.sol\":3623:3632  FP.amount */\n      0x01\n      add\n      0x00\n        /* \"backend/src/funder.sol\":3623:3642  FP.amount -= amount */\n      dup3\n      dup3\n      sload\n      tag_117\n      swap2\n      swap1\n      tag_116\n      jump\t// in\n    tag_117:\n      swap3\n      pop\n      pop\n      dup2\n      swap1\n      sstore\n      pop\n        /* \"backend/src/funder.sol\":3660:3670  msg.sender */\n      caller\n        /* \"backend/src/funder.sol\":3652:3680  payable(msg.sender).transfer */\n      0xffffffffffffffffffffffffffffffffffffffff\n      and\n        /* \"backend/src/funder.sol\":3652:3688  payable(msg.sender).transfer(amount) */\n      0x08fc\n        /* \"backend/src/funder.sol\":3681:3687  amount */\n      dup4\n        /* \"backend/src/funder.sol\":3652:3688  payable(msg.sender).transfer(amount) */\n      swap1\n      dup2\n      iszero\n      mul\n      swap1\n      mload(0x40)\n      0x00\n      mload(0x40)\n      dup1\n      dup4\n      sub\n      dup2\n      dup6\n      dup9\n      dup9\n      call\n      swap4\n      pop\n      pop\n      pop\n      pop\n      iszero\n      dup1\n      iszero\n      tag_119\n      jumpi\n      returndatasize\n      0x00\n      dup1\n      returndatacopy\n      revert(0x00, returndatasize)\n    tag_119:\n      pop\n        /* \"backend/src/funder.sol\":3720:3721  0 */\n      0x00\n        /* \"backend/src/funder.sol\":3698:3700  FP */\n      dup2\n        /* \"backend/src/funder.sol\":3698:3716  FP.amountGenerared */\n      0x02\n      add\n      sload\n        /* \"backend/src/funder.sol\":3698:3721  FP.amountGenerared == 0 */\n      eq\n        /* \"backend/src/funder.sol\":3698:3758  FP.amountGenerared == 0? FP.status = false: FP.status = true */\n      tag_120\n      jumpi\n        /* \"backend/src/funder.sol\":3754:3758  true */\n      0x01\n        /* \"backend/src/funder.sol\":3742:3744  FP */\n      dup2\n        /* \"backend/src/funder.sol\":3742:3751  FP.status */\n      0x04\n      add\n      0x00\n        /* \"backend/src/funder.sol\":3742:3758  FP.status = true */\n      0x0100\n      exp\n      dup2\n      sload\n      dup2\n      0xff\n      mul\n      not\n      and\n      swap1\n      dup4\n      iszero\n      iszero\n      mul\n      or\n      swap1\n      sstore\n        /* \"backend/src/funder.sol\":3698:3758  FP.amountGenerared == 0? FP.status = false: FP.status = true */\n      jump(tag_121)\n    tag_120:\n        /* \"backend/src/funder.sol\":3735:3740  false */\n      0x00\n        /* \"backend/src/funder.sol\":3723:3725  FP */\n      dup2\n        /* \"backend/src/funder.sol\":3723:3732  FP.status */\n      0x04\n      add\n      0x00\n        /* \"backend/src/funder.sol\":3723:3740  FP.status = false */\n      0x0100\n      exp\n      dup2\n      sload\n      dup2\n      0xff\n      mul\n      not\n      and\n      swap1\n      dup4\n      iszero\n      iszero\n      mul\n      or\n      swap1\n      sstore\n        /* \"backend/src/funder.sol\":3698:3758  FP.amountGenerared == 0? FP.status = false: FP.status = true */\n    tag_121:\n      pop\n        /* \"backend/src/funder.sol\":3773:3812  withdraw(msg.sender, amount, FP.status) */\n      0xead5d35910f3e2d6b0422579a65a204ac86cdeb6a6c0436657a33a90d397fb53\n        /* \"backend/src/funder.sol\":3782:3792  msg.sender */\n      caller\n        /* \"backend/src/funder.sol\":3794:3800  amount */\n      dup4\n        /* \"backend/src/funder.sol\":3802:3804  FP */\n      dup4\n        /* \"backend/src/funder.sol\":3802:3811  FP.status */\n      0x04\n      add\n      0x00\n      swap1\n      sload\n      swap1\n      0x0100\n      exp\n      swap1\n      div\n      0xff\n      and\n        /* \"backend/src/funder.sol\":3773:3812  withdraw(msg.sender, amount, FP.status) */\n      mload(0x40)\n      tag_122\n      swap4\n      swap3\n      swap2\n      swap1\n      tag_123\n      jump\t// in\n    tag_122:\n      mload(0x40)\n      dup1\n      swap2\n      sub\n      swap1\n      log1\n        /* \"backend/src/funder.sol\":3347:3819  {... */\n      pop\n        /* \"backend/src/funder.sol\":3295:3819  function withdrawPart(uint amount) external payable {... */\n      pop\n      jump\t// out\n        /* \"backend/src/funder.sol\":2676:3148  function withdrawAll() external payable{... */\n    tag_48:\n        /* \"backend/src/funder.sol\":2725:2745  FundProps storage FP */\n      0x00\n        /* \"backend/src/funder.sol\":2748:2759  fundsprosps */\n      0x01\n        /* \"backend/src/funder.sol\":2748:2771  fundsprosps[msg.sender] */\n      0x00\n        /* \"backend/src/funder.sol\":2760:2770  msg.sender */\n      caller\n        /* \"backend/src/funder.sol\":2748:2771  fundsprosps[msg.sender] */\n      0xffffffffffffffffffffffffffffffffffffffff\n      and\n      0xffffffffffffffffffffffffffffffffffffffff\n      and\n      dup2\n      mstore\n      0x20\n      add\n      swap1\n      dup2\n      mstore\n      0x20\n      add\n      0x00\n      keccak256\n        /* \"backend/src/funder.sol\":2725:2771  FundProps storage FP = fundsprosps[msg.sender] */\n      swap1\n      pop\n        /* \"backend/src/funder.sol\":2802:2806  true */\n      0x01\n        /* \"backend/src/funder.sol\":2789:2806  FP.status == true */\n      iszero\n      iszero\n        /* \"backend/src/funder.sol\":2789:2791  FP */\n      dup2\n        /* \"backend/src/funder.sol\":2789:2798  FP.status */\n      0x04\n      add\n      0x00\n      swap1\n      sload\n      swap1\n      0x0100\n      exp\n      swap1\n      div\n      0xff\n      and\n        /* \"backend/src/funder.sol\":2789:2806  FP.status == true */\n      iszero\n      iszero\n      eq\n        /* \"backend/src/funder.sol\":2781:2841  require(FP.status == true, \"proposal has not been approved\") */\n      tag_125\n      jumpi\n      mload(0x40)\n      0x08c379a000000000000000000000000000000000000000000000000000000000\n      dup2\n      mstore\n      0x04\n      add\n      tag_126\n      swap1\n      tag_110\n      jump\t// in\n    tag_126:\n      mload(0x40)\n      dup1\n      swap2\n      sub\n      swap1\n      revert\n    tag_125:\n        /* \"backend/src/funder.sol\":2881:2883  FP */\n      dup1\n        /* \"backend/src/funder.sol\":2881:2890  FP.amount */\n      0x01\n      add\n      sload\n        /* \"backend/src/funder.sol\":2859:2861  FP */\n      dup2\n        /* \"backend/src/funder.sol\":2859:2877  FP.amountGenerared */\n      0x02\n      add\n      sload\n        /* \"backend/src/funder.sol\":2859:2890  FP.amountGenerared == FP.amount */\n      eq\n        /* \"backend/src/funder.sol\":2859:2919  FP.amountGenerared == FP.amount || block.timestamp > FP.time */\n      dup1\n      tag_127\n      jumpi\n      pop\n        /* \"backend/src/funder.sol\":2912:2914  FP */\n      dup1\n        /* \"backend/src/funder.sol\":2912:2919  FP.time */\n      0x03\n      add\n      sload\n        /* \"backend/src/funder.sol\":2894:2909  block.timestamp */\n      timestamp\n        /* \"backend/src/funder.sol\":2894:2919  block.timestamp > FP.time */\n      gt\n        /* \"backend/src/funder.sol\":2859:2919  FP.amountGenerared == FP.amount || block.timestamp > FP.time */\n    tag_127:\n        /* \"backend/src/funder.sol\":2851:2943  require(FP.amountGenerared == FP.amount || block.timestamp > FP.time, \"Funds yet to mature\") */\n      tag_128\n      jumpi\n      mload(0x40)\n      0x08c379a000000000000000000000000000000000000000000000000000000000\n      dup2\n      mstore\n      0x04\n      add\n      tag_129\n      swap1\n      tag_114\n      jump\t// in\n    tag_129:\n      mload(0x40)\n      dup1\n      swap2\n      sub\n      swap1\n      revert\n    tag_128:\n        /* \"backend/src/funder.sol\":2953:2963  uint value */\n      0x00\n        /* \"backend/src/funder.sol\":2966:2968  FP */\n      dup2\n        /* \"backend/src/funder.sol\":2966:2984  FP.amountGenerared */\n      0x02\n      add\n      sload\n        /* \"backend/src/funder.sol\":2953:2984  uint value = FP.amountGenerared */\n      swap1\n      pop\n        /* \"backend/src/funder.sol\":3015:3016  0 */\n      0x00\n        /* \"backend/src/funder.sol\":2994:2996  FP */\n      dup3\n        /* \"backend/src/funder.sol\":2994:3012  FP.amountGenerared */\n      0x02\n      add\n        /* \"backend/src/funder.sol\":2994:3016  FP.amountGenerared = 0 */\n      dup2\n      swap1\n      sstore\n      pop\n        /* \"backend/src/funder.sol\":3038:3043  false */\n      0x00\n        /* \"backend/src/funder.sol\":3026:3028  FP */\n      dup3\n        /* \"backend/src/funder.sol\":3026:3035  FP.status */\n      0x04\n      add\n      0x00\n        /* \"backend/src/funder.sol\":3026:3043  FP.status = false */\n      0x0100\n      exp\n      dup2\n      sload\n      dup2\n      0xff\n      mul\n      not\n      and\n      swap1\n      dup4\n      iszero\n      iszero\n      mul\n      or\n      swap1\n      sstore\n      pop\n        /* \"backend/src/funder.sol\":3061:3071  msg.sender */\n      caller\n        /* \"backend/src/funder.sol\":3053:3081  payable(msg.sender).transfer */\n      0xffffffffffffffffffffffffffffffffffffffff\n      and\n        /* \"backend/src/funder.sol\":3053:3088  payable(msg.sender).transfer(value) */\n      0x08fc\n        /* \"backend/src/funder.sol\":3082:3087  value */\n      dup3\n        /* \"backend/src/funder.sol\":3053:3088  payable(msg.sender).transfer(value) */\n      swap1\n      dup2\n      iszero\n      mul\n      swap1\n      mload(0x40)\n      0x00\n      mload(0x40)\n      dup1\n      dup4\n      sub\n      dup2\n      dup6\n      dup9\n      dup9\n      call\n      swap4\n      pop\n      pop\n      pop\n      pop\n      iszero\n      dup1\n      iszero\n      tag_131\n      jumpi\n      returndatasize\n      0x00\n      dup1\n      returndatacopy\n      revert(0x00, returndatasize)\n    tag_131:\n      pop\n        /* \"backend/src/funder.sol\":3103:3141  withdraw(msg.sender, value, FP.status) */\n      0xead5d35910f3e2d6b0422579a65a204ac86cdeb6a6c0436657a33a90d397fb53\n        /* \"backend/src/funder.sol\":3112:3122  msg.sender */\n      caller\n        /* \"backend/src/funder.sol\":3124:3129  value */\n      dup3\n        /* \"backend/src/funder.sol\":3131:3133  FP */\n      dup5\n        /* \"backend/src/funder.sol\":3131:3140  FP.status */\n      0x04\n      add\n      0x00\n      swap1\n      sload\n      swap1\n      0x0100\n      exp\n      swap1\n      div\n      0xff\n      and\n        /* \"backend/src/funder.sol\":3103:3141  withdraw(msg.sender, value, FP.status) */\n      mload(0x40)\n      tag_132\n      swap4\n      swap3\n      swap2\n      swap1\n      tag_123\n      jump\t// in\n    tag_132:\n      mload(0x40)\n      dup1\n      swap2\n      sub\n      swap1\n      log1\n        /* \"backend/src/funder.sol\":2715:3148  {... */\n      pop\n      pop\n        /* \"backend/src/funder.sol\":2676:3148  function withdrawAll() external payable{... */\n      jump\t// out\n        /* \"backend/src/funder.sol\":562:611  mapping (address => FundProps) public fundsprosps */\n    tag_52:\n      mstore(0x20, 0x01)\n      dup1\n      0x00\n      mstore\n      keccak256(0x00, 0x40)\n      0x00\n      swap2\n      pop\n      swap1\n      pop\n      dup1\n      0x00\n      add\n      dup1\n      sload\n      tag_133\n      swap1\n      tag_71\n      jump\t// in\n    tag_133:\n      dup1\n      0x1f\n      add\n      0x20\n      dup1\n      swap2\n      div\n      mul\n      0x20\n      add\n      mload(0x40)\n      swap1\n      dup2\n      add\n      0x40\n      mstore\n      dup1\n      swap3\n      swap2\n      swap1\n      dup2\n      dup2\n      mstore\n      0x20\n      add\n      dup3\n      dup1\n      sload\n      tag_134\n      swap1\n      tag_71\n      jump\t// in\n    tag_134:\n      dup1\n      iszero\n      tag_135\n      jumpi\n      dup1\n      0x1f\n      lt\n      tag_136\n      jumpi\n      0x0100\n      dup1\n      dup4\n      sload\n      div\n      mul\n      dup4\n      mstore\n      swap2\n      0x20\n      add\n      swap2\n      jump(tag_135)\n    tag_136:\n      dup3\n      add\n      swap2\n      swap1\n      0x00\n      mstore\n      keccak256(0x00, 0x20)\n      swap1\n    tag_137:\n      dup2\n      sload\n      dup2\n      mstore\n      swap1\n      0x01\n      add\n      swap1\n      0x20\n      add\n      dup1\n      dup4\n      gt\n      tag_137\n      jumpi\n      dup3\n      swap1\n      sub\n      0x1f\n      and\n      dup3\n      add\n      swap2\n    tag_135:\n      pop\n      pop\n      pop\n      pop\n      pop\n      swap1\n      dup1\n      0x01\n      add\n      sload\n      swap1\n      dup1\n      0x02\n      add\n      sload\n      swap1\n      dup1\n      0x03\n      add\n      sload\n      swap1\n      dup1\n      0x04\n      add\n      0x00\n      swap1\n      sload\n      swap1\n      0x0100\n      exp\n      swap1\n      div\n      0xff\n      and\n      swap1\n      pop\n      dup6\n      jump\t// out\n        /* \"backend/src/funder.sol\":1365:1656  function requestFund(string memory _purpose, uint _amount, uint _time) external {... */\n    tag_59:\n        /* \"backend/src/funder.sol\":1455:1475  FundProps storage FP */\n      0x00\n        /* \"backend/src/funder.sol\":1479:1490  fundsprosps */\n      0x01\n        /* \"backend/src/funder.sol\":1479:1502  fundsprosps[msg.sender] */\n      0x00\n        /* \"backend/src/funder.sol\":1491:1501  msg.sender */\n      caller\n        /* \"backend/src/funder.sol\":1479:1502  fundsprosps[msg.sender] */\n      0xffffffffffffffffffffffffffffffffffffffff\n      and\n      0xffffffffffffffffffffffffffffffffffffffff\n      and\n      dup2\n      mstore\n      0x20\n      add\n      swap1\n      dup2\n      mstore\n      0x20\n      add\n      0x00\n      keccak256\n        /* \"backend/src/funder.sol\":1455:1502  FundProps storage FP =  fundsprosps[msg.sender] */\n      swap1\n      pop\n        /* \"backend/src/funder.sol\":1524:1531  _amount */\n      dup3\n        /* \"backend/src/funder.sol\":1512:1514  FP */\n      dup2\n        /* \"backend/src/funder.sol\":1512:1521  FP.amount */\n      0x01\n      add\n        /* \"backend/src/funder.sol\":1512:1531  FP.amount = _amount */\n      dup2\n      swap1\n      sstore\n      pop\n        /* \"backend/src/funder.sol\":1554:1562  _purpose */\n      dup4\n        /* \"backend/src/funder.sol\":1541:1543  FP */\n      dup2\n        /* \"backend/src/funder.sol\":1541:1551  FP.Purpose */\n      0x00\n      add\n        /* \"backend/src/funder.sol\":1541:1562  FP.Purpose = _purpose */\n      swap1\n      dup1\n      mload\n      swap1\n      0x20\n      add\n      swap1\n      tag_139\n      swap3\n      swap2\n      swap1\n      tag_140\n      jump\t// in\n    tag_139:\n      pop\n        /* \"backend/src/funder.sol\":1590:1596  2 days */\n      0x02a300\n        /* \"backend/src/funder.sol\":1582:1587  _time */\n      dup3\n        /* \"backend/src/funder.sol\":1582:1596  _time + 2 days */\n      tag_141\n      swap2\n      swap1\n      tag_102\n      jump\t// in\n    tag_141:\n        /* \"backend/src/funder.sol\":1572:1574  FP */\n      dup2\n        /* \"backend/src/funder.sol\":1572:1579  FP.time */\n      0x03\n      add\n        /* \"backend/src/funder.sol\":1572:1596  FP.time = _time + 2 days */\n      dup2\n      swap1\n      sstore\n      pop\n        /* \"backend/src/funder.sol\":1611:1649  Request(msg.sender, _purpose, _amount) */\n      0xf69a88136bb57871f0559f33e167c9cc90ed27fb806571f9bd595ccea4200082\n        /* \"backend/src/funder.sol\":1619:1629  msg.sender */\n      caller\n        /* \"backend/src/funder.sol\":1631:1639  _purpose */\n      dup6\n        /* \"backend/src/funder.sol\":1641:1648  _amount */\n      dup6\n        /* \"backend/src/funder.sol\":1611:1649  Request(msg.sender, _purpose, _amount) */\n      mload(0x40)\n      tag_142\n      swap4\n      swap3\n      swap2\n      swap1\n      tag_143\n      jump\t// in\n    tag_142:\n      mload(0x40)\n      dup1\n      swap2\n      sub\n      swap1\n      log1\n        /* \"backend/src/funder.sol\":1445:1656  {... */\n      pop\n        /* \"backend/src/funder.sol\":1365:1656  function requestFund(string memory _purpose, uint _amount, uint _time) external {... */\n      pop\n      pop\n      pop\n      jump\t// out\n        /* \"backend/src/funder.sol\":3898:4079  function getBeneficiaryStatus(address beneficiary)  public view returns(bool status){... */\n    tag_63:\n        /* \"backend/src/funder.sol\":3970:3981  bool status */\n      0x00\n        /* \"backend/src/funder.sol\":3992:4012  FundProps storage FP */\n      dup1\n        /* \"backend/src/funder.sol\":4015:4026  fundsprosps */\n      0x01\n        /* \"backend/src/funder.sol\":4015:4039  fundsprosps[beneficiary] */\n      0x00\n        /* \"backend/src/funder.sol\":4027:4038  beneficiary */\n      dup5\n        /* \"backend/src/funder.sol\":4015:4039  fundsprosps[beneficiary] */\n      0xffffffffffffffffffffffffffffffffffffffff\n      and\n      0xffffffffffffffffffffffffffffffffffffffff\n      and\n      dup2\n      mstore\n      0x20\n      add\n      swap1\n      dup2\n      mstore\n      0x20\n      add\n      0x00\n      keccak256\n        /* \"backend/src/funder.sol\":3992:4039  FundProps storage FP = fundsprosps[beneficiary] */\n      swap1\n      pop\n        /* \"backend/src/funder.sol\":4058:4060  FP */\n      dup1\n        /* \"backend/src/funder.sol\":4058:4067  FP.status */\n      0x04\n      add\n      0x00\n      swap1\n      sload\n      swap1\n      0x0100\n      exp\n      swap1\n      div\n      0xff\n      and\n        /* \"backend/src/funder.sol\":4049:4067  status = FP.status */\n      swap2\n      pop\n        /* \"backend/src/funder.sol\":3982:4079  {... */\n      pop\n        /* \"backend/src/funder.sol\":3898:4079  function getBeneficiaryStatus(address beneficiary)  public view returns(bool status){... */\n      swap2\n      swap1\n      pop\n      jump\t// out\n    tag_68:\n      mload(0x40)\n      dup1\n      0xa0\n      add\n      0x40\n      mstore\n      dup1\n      0x60\n      dup2\n      mstore\n      0x20\n      add\n      0x00\n      dup2\n      mstore\n      0x20\n      add\n      0x00\n      dup2\n      mstore\n      0x20\n      add\n      0x00\n      dup2\n      mstore\n      0x20\n      add\n      iszero(iszero(0x00))\n      dup2\n      mstore\n      pop\n      swap1\n      jump\t// out\n    tag_140:\n      dup3\n      dup1\n      sload\n      tag_145\n      swap1\n      tag_71\n      jump\t// in\n    tag_145:\n      swap1\n      0x00\n      mstore\n      keccak256(0x00, 0x20)\n      swap1\n      0x1f\n      add\n      0x20\n      swap1\n      div\n      dup2\n      add\n      swap3\n      dup3\n      tag_147\n      jumpi\n      0x00\n      dup6\n      sstore\n      jump(tag_146)\n    tag_147:\n      dup3\n      0x1f\n      lt\n      tag_148\n      jumpi\n      dup1\n      mload\n      not(0xff)\n      and\n      dup4\n      dup1\n      add\n      or\n      dup6\n      sstore\n      jump(tag_146)\n    tag_148:\n      dup3\n      dup1\n      add\n      0x01\n      add\n      dup6\n      sstore\n      dup3\n      iszero\n      tag_146\n      jumpi\n      swap2\n      dup3\n      add\n    tag_149:\n      dup3\n      dup2\n      gt\n      iszero\n      tag_150\n      jumpi\n      dup3\n      mload\n      dup3\n      sstore\n      swap2\n      0x20\n      add\n      swap2\n      swap1\n      0x01\n      add\n      swap1\n      jump(tag_149)\n    tag_150:\n    tag_146:\n      pop\n      swap1\n      pop\n      tag_151\n      swap2\n      swap1\n      tag_152\n      jump\t// in\n    tag_151:\n      pop\n      swap1\n      jump\t// out\n    tag_152:\n    tag_153:\n      dup1\n      dup3\n      gt\n      iszero\n      tag_154\n      jumpi\n      0x00\n      dup2\n      0x00\n      swap1\n      sstore\n      pop\n      0x01\n      add\n      jump(tag_153)\n    tag_154:\n      pop\n      swap1\n      jump\t// out\n        /* \"#utility.yul\":7:82   */\n    tag_155:\n        /* \"#utility.yul\":40:46   */\n      0x00\n        /* \"#utility.yul\":73:75   */\n      0x40\n        /* \"#utility.yul\":67:76   */\n      mload\n        /* \"#utility.yul\":57:76   */\n      swap1\n      pop\n        /* \"#utility.yul\":7:82   */\n      swap1\n      jump\t// out\n        /* \"#utility.yul\":88:205   */\n    tag_156:\n        /* \"#utility.yul\":197:198   */\n      0x00\n        /* \"#utility.yul\":194:195   */\n      dup1\n        /* \"#utility.yul\":187:199   */\n      revert\n        /* \"#utility.yul\":211:328   */\n    tag_157:\n        /* \"#utility.yul\":320:321   */\n      0x00\n        /* \"#utility.yul\":317:318   */\n      dup1\n        /* \"#utility.yul\":310:322   */\n      revert\n        /* \"#utility.yul\":334:460   */\n    tag_158:\n        /* \"#utility.yul\":371:378   */\n      0x00\n        /* \"#utility.yul\":411:453   */\n      0xffffffffffffffffffffffffffffffffffffffff\n        /* \"#utility.yul\":404:409   */\n      dup3\n        /* \"#utility.yul\":400:454   */\n      and\n        /* \"#utility.yul\":389:454   */\n      swap1\n      pop\n        /* \"#utility.yul\":334:460   */\n      swap2\n      swap1\n      pop\n      jump\t// out\n        /* \"#utility.yul\":466:562   */\n    tag_159:\n        /* \"#utility.yul\":503:510   */\n      0x00\n        /* \"#utility.yul\":532:556   */\n      tag_210\n        /* \"#utility.yul\":550:555   */\n      dup3\n        /* \"#utility.yul\":532:556   */\n      tag_158\n      jump\t// in\n    tag_210:\n        /* \"#utility.yul\":521:556   */\n      swap1\n      pop\n        /* \"#utility.yul\":466:562   */\n      swap2\n      swap1\n      pop\n      jump\t// out\n        /* \"#utility.yul\":568:690   */\n    tag_160:\n        /* \"#utility.yul\":641:665   */\n      tag_212\n        /* \"#utility.yul\":659:664   */\n      dup2\n        /* \"#utility.yul\":641:665   */\n      tag_159\n      jump\t// in\n    tag_212:\n        /* \"#utility.yul\":634:639   */\n      dup2\n        /* \"#utility.yul\":631:666   */\n      eq\n        /* \"#utility.yul\":621:684   */\n      tag_213\n      jumpi\n        /* \"#utility.yul\":680:681   */\n      0x00\n        /* \"#utility.yul\":677:678   */\n      dup1\n        /* \"#utility.yul\":670:682   */\n      revert\n        /* \"#utility.yul\":621:684   */\n    tag_213:\n        /* \"#utility.yul\":568:690   */\n      pop\n      jump\t// out\n        /* \"#utility.yul\":696:835   */\n    tag_161:\n        /* \"#utility.yul\":742:747   */\n      0x00\n        /* \"#utility.yul\":780:786   */\n      dup2\n        /* \"#utility.yul\":767:787   */\n      calldataload\n        /* \"#utility.yul\":758:787   */\n      swap1\n      pop\n        /* \"#utility.yul\":796:829   */\n      tag_215\n        /* \"#utility.yul\":823:828   */\n      dup2\n        /* \"#utility.yul\":796:829   */\n      tag_160\n      jump\t// in\n    tag_215:\n        /* \"#utility.yul\":696:835   */\n      swap3\n      swap2\n      pop\n      pop\n      jump\t// out\n        /* \"#utility.yul\":841:1170   */\n    tag_17:\n        /* \"#utility.yul\":900:906   */\n      0x00\n        /* \"#utility.yul\":949:951   */\n      0x20\n        /* \"#utility.yul\":937:946   */\n      dup3\n        /* \"#utility.yul\":928:935   */\n      dup5\n        /* \"#utility.yul\":924:947   */\n      sub\n        /* \"#utility.yul\":920:952   */\n      slt\n        /* \"#utility.yul\":917:1036   */\n      iszero\n      tag_217\n      jumpi\n        /* \"#utility.yul\":955:1034   */\n      tag_218\n      tag_156\n      jump\t// in\n    tag_218:\n        /* \"#utility.yul\":917:1036   */\n    tag_217:\n        /* \"#utility.yul\":1075:1076   */\n      0x00\n        /* \"#utility.yul\":1100:1153   */\n      tag_219\n        /* \"#utility.yul\":1145:1152   */\n      dup5\n        /* \"#utility.yul\":1136:1142   */\n      dup3\n        /* \"#utility.yul\":1125:1134   */\n      dup6\n        /* \"#utility.yul\":1121:1143   */\n      add\n        /* \"#utility.yul\":1100:1153   */\n      tag_161\n      jump\t// in\n    tag_219:\n        /* \"#utility.yul\":1090:1153   */\n      swap2\n      pop\n        /* \"#utility.yul\":1046:1163   */\n      pop\n        /* \"#utility.yul\":841:1170   */\n      swap3\n      swap2\n      pop\n      pop\n      jump\t// out\n        /* \"#utility.yul\":1176:1253   */\n    tag_162:\n        /* \"#utility.yul\":1213:1220   */\n      0x00\n        /* \"#utility.yul\":1242:1247   */\n      dup2\n        /* \"#utility.yul\":1231:1247   */\n      swap1\n      pop\n        /* \"#utility.yul\":1176:1253   */\n      swap2\n      swap1\n      pop\n      jump\t// out\n        /* \"#utility.yul\":1259:1377   */\n    tag_163:\n        /* \"#utility.yul\":1346:1370   */\n      tag_222\n        /* \"#utility.yul\":1364:1369   */\n      dup2\n        /* \"#utility.yul\":1346:1370   */\n      tag_162\n      jump\t// in\n    tag_222:\n        /* \"#utility.yul\":1341:1344   */\n      dup3\n        /* \"#utility.yul\":1334:1371   */\n      mstore\n        /* \"#utility.yul\":1259:1377   */\n      pop\n      pop\n      jump\t// out\n        /* \"#utility.yul\":1383:1605   */\n    tag_20:\n        /* \"#utility.yul\":1476:1480   */\n      0x00\n        /* \"#utility.yul\":1514:1516   */\n      0x20\n        /* \"#utility.yul\":1503:1512   */\n      dup3\n        /* \"#utility.yul\":1499:1517   */\n      add\n        /* \"#utility.yul\":1491:1517   */\n      swap1\n      pop\n        /* \"#utility.yul\":1527:1598   */\n      tag_224\n        /* \"#utility.yul\":1595:1596   */\n      0x00\n        /* \"#utility.yul\":1584:1593   */\n      dup4\n        /* \"#utility.yul\":1580:1597   */\n      add\n        /* \"#utility.yul\":1571:1577   */\n      dup5\n        /* \"#utility.yul\":1527:1598   */\n      tag_163\n      jump\t// in\n    tag_224:\n        /* \"#utility.yul\":1383:1605   */\n      swap3\n      swap2\n      pop\n      pop\n      jump\t// out\n        /* \"#utility.yul\":1611:1710   */\n    tag_164:\n        /* \"#utility.yul\":1663:1669   */\n      0x00\n        /* \"#utility.yul\":1697:1702   */\n      dup2\n        /* \"#utility.yul\":1691:1703   */\n      mload\n        /* \"#utility.yul\":1681:1703   */\n      swap1\n      pop\n        /* \"#utility.yul\":1611:1710   */\n      swap2\n      swap1\n      pop\n      jump\t// out\n        /* \"#utility.yul\":1716:1875   */\n    tag_165:\n        /* \"#utility.yul\":1790:1801   */\n      0x00\n        /* \"#utility.yul\":1824:1830   */\n      dup3\n        /* \"#utility.yul\":1819:1822   */\n      dup3\n        /* \"#utility.yul\":1812:1831   */\n      mstore\n        /* \"#utility.yul\":1864:1868   */\n      0x20\n        /* \"#utility.yul\":1859:1862   */\n      dup3\n        /* \"#utility.yul\":1855:1869   */\n      add\n        /* \"#utility.yul\":1840:1869   */\n      swap1\n      pop\n        /* \"#utility.yul\":1716:1875   */\n      swap3\n      swap2\n      pop\n      pop\n      jump\t// out\n        /* \"#utility.yul\":1881:2188   */\n    tag_166:\n        /* \"#utility.yul\":1949:1950   */\n      0x00\n        /* \"#utility.yul\":1959:2072   */\n    tag_228:\n        /* \"#utility.yul\":1973:1979   */\n      dup4\n        /* \"#utility.yul\":1970:1971   */\n      dup2\n        /* \"#utility.yul\":1967:1980   */\n      lt\n        /* \"#utility.yul\":1959:2072   */\n      iszero\n      tag_230\n      jumpi\n        /* \"#utility.yul\":2058:2059   */\n      dup1\n        /* \"#utility.yul\":2053:2056   */\n      dup3\n        /* \"#utility.yul\":2049:2060   */\n      add\n        /* \"#utility.yul\":2043:2061   */\n      mload\n        /* \"#utility.yul\":2039:2040   */\n      dup2\n        /* \"#utility.yul\":2034:2037   */\n      dup5\n        /* \"#utility.yul\":2030:2041   */\n      add\n        /* \"#utility.yul\":2023:2062   */\n      mstore\n        /* \"#utility.yul\":1995:1997   */\n      0x20\n        /* \"#utility.yul\":1992:1993   */\n      dup2\n        /* \"#utility.yul\":1988:1998   */\n      add\n        /* \"#utility.yul\":1983:1998   */\n      swap1\n      pop\n        /* \"#utility.yul\":1959:2072   */\n      jump(tag_228)\n    tag_230:\n        /* \"#utility.yul\":2090:2096   */\n      dup4\n        /* \"#utility.yul\":2087:2088   */\n      dup2\n        /* \"#utility.yul\":2084:2097   */\n      gt\n        /* \"#utility.yul\":2081:2182   */\n      iszero\n      tag_231\n      jumpi\n        /* \"#utility.yul\":2170:2171   */\n      0x00\n        /* \"#utility.yul\":2161:2167   */\n      dup5\n        /* \"#utility.yul\":2156:2159   */\n      dup5\n        /* \"#utility.yul\":2152:2168   */\n      add\n        /* \"#utility.yul\":2145:2172   */\n      mstore\n        /* \"#utility.yul\":2081:2182   */\n    tag_231:\n        /* \"#utility.yul\":1930:2188   */\n      pop\n        /* \"#utility.yul\":1881:2188   */\n      pop\n      pop\n      pop\n      jump\t// out\n        /* \"#utility.yul\":2194:2296   */\n    tag_167:\n        /* \"#utility.yul\":2235:2241   */\n      0x00\n        /* \"#utility.yul\":2286:2288   */\n      0x1f\n        /* \"#utility.yul\":2282:2289   */\n      not\n        /* \"#utility.yul\":2277:2279   */\n      0x1f\n        /* \"#utility.yul\":2270:2275   */\n      dup4\n        /* \"#utility.yul\":2266:2280   */\n      add\n        /* \"#utility.yul\":2262:2290   */\n      and\n        /* \"#utility.yul\":2252:2290   */\n      swap1\n      pop\n        /* \"#utility.yul\":2194:2296   */\n      swap2\n      swap1\n      pop\n      jump\t// out\n        /* \"#utility.yul\":2302:2646   */\n    tag_168:\n        /* \"#utility.yul\":2380:2383   */\n      0x00\n        /* \"#utility.yul\":2408:2447   */\n      tag_234\n        /* \"#utility.yul\":2441:2446   */\n      dup3\n        /* \"#utility.yul\":2408:2447   */\n      tag_164\n      jump\t// in\n    tag_234:\n        /* \"#utility.yul\":2463:2524   */\n      tag_235\n        /* \"#utility.yul\":2517:2523   */\n      dup2\n        /* \"#utility.yul\":2512:2515   */\n      dup6\n        /* \"#utility.yul\":2463:2524   */\n      tag_165\n      jump\t// in\n    tag_235:\n        /* \"#utility.yul\":2456:2524   */\n      swap4\n      pop\n        /* \"#utility.yul\":2533:2585   */\n      tag_236\n        /* \"#utility.yul\":2578:2584   */\n      dup2\n        /* \"#utility.yul\":2573:2576   */\n      dup6\n        /* \"#utility.yul\":2566:2570   */\n      0x20\n        /* \"#utility.yul\":2559:2564   */\n      dup7\n        /* \"#utility.yul\":2555:2571   */\n      add\n        /* \"#utility.yul\":2533:2585   */\n      tag_166\n      jump\t// in\n    tag_236:\n        /* \"#utility.yul\":2610:2639   */\n      tag_237\n        /* \"#utility.yul\":2632:2638   */\n      dup2\n        /* \"#utility.yul\":2610:2639   */\n      tag_167\n      jump\t// in\n    tag_237:\n        /* \"#utility.yul\":2605:2608   */\n      dup5\n        /* \"#utility.yul\":2601:2640   */\n      add\n        /* \"#utility.yul\":2594:2640   */\n      swap2\n      pop\n        /* \"#utility.yul\":2384:2646   */\n      pop\n        /* \"#utility.yul\":2302:2646   */\n      swap3\n      swap2\n      pop\n      pop\n      jump\t// out\n        /* \"#utility.yul\":2652:2760   */\n    tag_169:\n        /* \"#utility.yul\":2729:2753   */\n      tag_239\n        /* \"#utility.yul\":2747:2752   */\n      dup2\n        /* \"#utility.yul\":2729:2753   */\n      tag_162\n      jump\t// in\n    tag_239:\n        /* \"#utility.yul\":2724:2727   */\n      dup3\n        /* \"#utility.yul\":2717:2754   */\n      mstore\n        /* \"#utility.yul\":2652:2760   */\n      pop\n      pop\n      jump\t// out\n        /* \"#utility.yul\":2766:2856   */\n    tag_170:\n        /* \"#utility.yul\":2800:2807   */\n      0x00\n        /* \"#utility.yul\":2843:2848   */\n      dup2\n        /* \"#utility.yul\":2836:2849   */\n      iszero\n        /* \"#utility.yul\":2829:2850   */\n      iszero\n        /* \"#utility.yul\":2818:2850   */\n      swap1\n      pop\n        /* \"#utility.yul\":2766:2856   */\n      swap2\n      swap1\n      pop\n      jump\t// out\n        /* \"#utility.yul\":2862:2961   */\n    tag_171:\n        /* \"#utility.yul\":2933:2954   */\n      tag_242\n        /* \"#utility.yul\":2948:2953   */\n      dup2\n        /* \"#utility.yul\":2933:2954   */\n      tag_170\n      jump\t// in\n    tag_242:\n        /* \"#utility.yul\":2928:2931   */\n      dup3\n        /* \"#utility.yul\":2921:2955   */\n      mstore\n        /* \"#utility.yul\":2862:2961   */\n      pop\n      pop\n      jump\t// out\n        /* \"#utility.yul\":3025:4167   */\n    tag_172:\n        /* \"#utility.yul\":3146:3149   */\n      0x00\n        /* \"#utility.yul\":3182:3186   */\n      0xa0\n        /* \"#utility.yul\":3177:3180   */\n      dup4\n        /* \"#utility.yul\":3173:3187   */\n      add\n        /* \"#utility.yul\":3272:3276   */\n      0x00\n        /* \"#utility.yul\":3265:3270   */\n      dup4\n        /* \"#utility.yul\":3261:3277   */\n      add\n        /* \"#utility.yul\":3255:3278   */\n      mload\n        /* \"#utility.yul\":3325:3328   */\n      dup5\n        /* \"#utility.yul\":3319:3323   */\n      dup3\n        /* \"#utility.yul\":3315:3329   */\n      sub\n        /* \"#utility.yul\":3308:3312   */\n      0x00\n        /* \"#utility.yul\":3303:3306   */\n      dup7\n        /* \"#utility.yul\":3299:3313   */\n      add\n        /* \"#utility.yul\":3292:3330   */\n      mstore\n        /* \"#utility.yul\":3351:3424   */\n      tag_244\n        /* \"#utility.yul\":3419:3423   */\n      dup3\n        /* \"#utility.yul\":3405:3417   */\n      dup3\n        /* \"#utility.yul\":3351:3424   */\n      tag_168\n      jump\t// in\n    tag_244:\n        /* \"#utility.yul\":3343:3424   */\n      swap2\n      pop\n        /* \"#utility.yul\":3197:3435   */\n      pop\n        /* \"#utility.yul\":3519:3523   */\n      0x20\n        /* \"#utility.yul\":3512:3517   */\n      dup4\n        /* \"#utility.yul\":3508:3524   */\n      add\n        /* \"#utility.yul\":3502:3525   */\n      mload\n        /* \"#utility.yul\":3538:3601   */\n      tag_245\n        /* \"#utility.yul\":3595:3599   */\n      0x20\n        /* \"#utility.yul\":3590:3593   */\n      dup7\n        /* \"#utility.yul\":3586:3600   */\n      add\n        /* \"#utility.yul\":3572:3584   */\n      dup3\n        /* \"#utility.yul\":3538:3601   */\n      tag_169\n      jump\t// in\n    tag_245:\n        /* \"#utility.yul\":3445:3611   */\n      pop\n        /* \"#utility.yul\":3704:3708   */\n      0x40\n        /* \"#utility.yul\":3697:3702   */\n      dup4\n        /* \"#utility.yul\":3693:3709   */\n      add\n        /* \"#utility.yul\":3687:3710   */\n      mload\n        /* \"#utility.yul\":3723:3786   */\n      tag_246\n        /* \"#utility.yul\":3780:3784   */\n      0x40\n        /* \"#utility.yul\":3775:3778   */\n      dup7\n        /* \"#utility.yul\":3771:3785   */\n      add\n        /* \"#utility.yul\":3757:3769   */\n      dup3\n        /* \"#utility.yul\":3723:3786   */\n      tag_169\n      jump\t// in\n    tag_246:\n        /* \"#utility.yul\":3621:3796   */\n      pop\n        /* \"#utility.yul\":3878:3882   */\n      0x60\n        /* \"#utility.yul\":3871:3876   */\n      dup4\n        /* \"#utility.yul\":3867:3883   */\n      add\n        /* \"#utility.yul\":3861:3884   */\n      mload\n        /* \"#utility.yul\":3897:3960   */\n      tag_247\n        /* \"#utility.yul\":3954:3958   */\n      0x60\n        /* \"#utility.yul\":3949:3952   */\n      dup7\n        /* \"#utility.yul\":3945:3959   */\n      add\n        /* \"#utility.yul\":3931:3943   */\n      dup3\n        /* \"#utility.yul\":3897:3960   */\n      tag_169\n      jump\t// in\n    tag_247:\n        /* \"#utility.yul\":3806:3970   */\n      pop\n        /* \"#utility.yul\":4054:4058   */\n      0x80\n        /* \"#utility.yul\":4047:4052   */\n      dup4\n        /* \"#utility.yul\":4043:4059   */\n      add\n        /* \"#utility.yul\":4037:4060   */\n      mload\n        /* \"#utility.yul\":4073:4130   */\n      tag_248\n        /* \"#utility.yul\":4124:4128   */\n      0x80\n        /* \"#utility.yul\":4119:4122   */\n      dup7\n        /* \"#utility.yul\":4115:4129   */\n      add\n        /* \"#utility.yul\":4101:4113   */\n      dup3\n        /* \"#utility.yul\":4073:4130   */\n      tag_171\n      jump\t// in\n    tag_248:\n        /* \"#utility.yul\":3980:4140   */\n      pop\n        /* \"#utility.yul\":4157:4161   */\n      dup1\n        /* \"#utility.yul\":4150:4161   */\n      swap2\n      pop\n        /* \"#utility.yul\":3151:4167   */\n      pop\n        /* \"#utility.yul\":3025:4167   */\n      swap3\n      swap2\n      pop\n      pop\n      jump\t// out\n        /* \"#utility.yul\":4173:4550   */\n    tag_26:\n        /* \"#utility.yul\":4318:4322   */\n      0x00\n        /* \"#utility.yul\":4356:4358   */\n      0x20\n        /* \"#utility.yul\":4345:4354   */\n      dup3\n        /* \"#utility.yul\":4341:4359   */\n      add\n        /* \"#utility.yul\":4333:4359   */\n      swap1\n      pop\n        /* \"#utility.yul\":4405:4414   */\n      dup2\n        /* \"#utility.yul\":4399:4403   */\n      dup2\n        /* \"#utility.yul\":4395:4415   */\n      sub\n        /* \"#utility.yul\":4391:4392   */\n      0x00\n        /* \"#utility.yul\":4380:4389   */\n      dup4\n        /* \"#utility.yul\":4376:4393   */\n      add\n        /* \"#utility.yul\":4369:4416   */\n      mstore\n        /* \"#utility.yul\":4433:4543   */\n      tag_250\n        /* \"#utility.yul\":4538:4542   */\n      dup2\n        /* \"#utility.yul\":4529:4535   */\n      dup5\n        /* \"#utility.yul\":4433:4543   */\n      tag_172\n      jump\t// in\n    tag_250:\n        /* \"#utility.yul\":4425:4543   */\n      swap1\n      pop\n        /* \"#utility.yul\":4173:4550   */\n      swap3\n      swap2\n      pop\n      pop\n      jump\t// out\n        /* \"#utility.yul\":4556:4678   */\n    tag_173:\n        /* \"#utility.yul\":4629:4653   */\n      tag_252\n        /* \"#utility.yul\":4647:4652   */\n      dup2\n        /* \"#utility.yul\":4629:4653   */\n      tag_162\n      jump\t// in\n    tag_252:\n        /* \"#utility.yul\":4622:4627   */\n      dup2\n        /* \"#utility.yul\":4619:4654   */\n      eq\n        /* \"#utility.yul\":4609:4672   */\n      tag_253\n      jumpi\n        /* \"#utility.yul\":4668:4669   */\n      0x00\n        /* \"#utility.yul\":4665:4666   */\n      dup1\n        /* \"#utility.yul\":4658:4670   */\n      revert\n        /* \"#utility.yul\":4609:4672   */\n    tag_253:\n        /* \"#utility.yul\":4556:4678   */\n      pop\n      jump\t// out\n        /* \"#utility.yul\":4684:4823   */\n    tag_174:\n        /* \"#utility.yul\":4730:4735   */\n      0x00\n        /* \"#utility.yul\":4768:4774   */\n      dup2\n        /* \"#utility.yul\":4755:4775   */\n      calldataload\n        /* \"#utility.yul\":4746:4775   */\n      swap1\n      pop\n        /* \"#utility.yul\":4784:4817   */\n      tag_255\n        /* \"#utility.yul\":4811:4816   */\n      dup2\n        /* \"#utility.yul\":4784:4817   */\n      tag_173\n      jump\t// in\n    tag_255:\n        /* \"#utility.yul\":4684:4823   */\n      swap3\n      swap2\n      pop\n      pop\n      jump\t// out\n        /* \"#utility.yul\":4829:5158   */\n    tag_45:\n        /* \"#utility.yul\":4888:4894   */\n      0x00\n        /* \"#utility.yul\":4937:4939   */\n      0x20\n        /* \"#utility.yul\":4925:4934   */\n      dup3\n        /* \"#utility.yul\":4916:4923   */\n      dup5\n        /* \"#utility.yul\":4912:4935   */\n      sub\n        /* \"#utility.yul\":4908:4940   */\n      slt\n        /* \"#utility.yul\":4905:5024   */\n      iszero\n      tag_257\n      jumpi\n        /* \"#utility.yul\":4943:5022   */\n      tag_258\n      tag_156\n      jump\t// in\n    tag_258:\n        /* \"#utility.yul\":4905:5024   */\n    tag_257:\n        /* \"#utility.yul\":5063:5064   */\n      0x00\n        /* \"#utility.yul\":5088:5141   */\n      tag_259\n        /* \"#utility.yul\":5133:5140   */\n      dup5\n        /* \"#utility.yul\":5124:5130   */\n      dup3\n        /* \"#utility.yul\":5113:5122   */\n      dup6\n        /* \"#utility.yul\":5109:5131   */\n      add\n        /* \"#utility.yul\":5088:5141   */\n      tag_174\n      jump\t// in\n    tag_259:\n        /* \"#utility.yul\":5078:5141   */\n      swap2\n      pop\n        /* \"#utility.yul\":5034:5151   */\n      pop\n        /* \"#utility.yul\":4829:5158   */\n      swap3\n      swap2\n      pop\n      pop\n      jump\t// out\n        /* \"#utility.yul\":5164:5333   */\n    tag_175:\n        /* \"#utility.yul\":5248:5259   */\n      0x00\n        /* \"#utility.yul\":5282:5288   */\n      dup3\n        /* \"#utility.yul\":5277:5280   */\n      dup3\n        /* \"#utility.yul\":5270:5289   */\n      mstore\n        /* \"#utility.yul\":5322:5326   */\n      0x20\n        /* \"#utility.yul\":5317:5320   */\n      dup3\n        /* \"#utility.yul\":5313:5327   */\n      add\n        /* \"#utility.yul\":5298:5327   */\n      swap1\n      pop\n        /* \"#utility.yul\":5164:5333   */\n      swap3\n      swap2\n      pop\n      pop\n      jump\t// out\n        /* \"#utility.yul\":5339:5703   */\n    tag_176:\n        /* \"#utility.yul\":5427:5430   */\n      0x00\n        /* \"#utility.yul\":5455:5494   */\n      tag_262\n        /* \"#utility.yul\":5488:5493   */\n      dup3\n        /* \"#utility.yul\":5455:5494   */\n      tag_164\n      jump\t// in\n    tag_262:\n        /* \"#utility.yul\":5510:5581   */\n      tag_263\n        /* \"#utility.yul\":5574:5580   */\n      dup2\n        /* \"#utility.yul\":5569:5572   */\n      dup6\n        /* \"#utility.yul\":5510:5581   */\n      tag_175\n      jump\t// in\n    tag_263:\n        /* \"#utility.yul\":5503:5581   */\n      swap4\n      pop\n        /* \"#utility.yul\":5590:5642   */\n      tag_264\n        /* \"#utility.yul\":5635:5641   */\n      dup2\n        /* \"#utility.yul\":5630:5633   */\n      dup6\n        /* \"#utility.yul\":5623:5627   */\n      0x20\n        /* \"#utility.yul\":5616:5621   */\n      dup7\n        /* \"#utility.yul\":5612:5628   */\n      add\n        /* \"#utility.yul\":5590:5642   */\n      tag_166\n      jump\t// in\n    tag_264:\n        /* \"#utility.yul\":5667:5696   */\n      tag_265\n        /* \"#utility.yul\":5689:5695   */\n      dup2\n        /* \"#utility.yul\":5667:5696   */\n      tag_167\n      jump\t// in\n    tag_265:\n        /* \"#utility.yul\":5662:5665   */\n      dup5\n        /* \"#utility.yul\":5658:5697   */\n      add\n        /* \"#utility.yul\":5651:5697   */\n      swap2\n      pop\n        /* \"#utility.yul\":5431:5703   */\n      pop\n        /* \"#utility.yul\":5339:5703   */\n      swap3\n      swap2\n      pop\n      pop\n      jump\t// out\n        /* \"#utility.yul\":5709:5818   */\n    tag_177:\n        /* \"#utility.yul\":5790:5811   */\n      tag_267\n        /* \"#utility.yul\":5805:5810   */\n      dup2\n        /* \"#utility.yul\":5790:5811   */\n      tag_170\n      jump\t// in\n    tag_267:\n        /* \"#utility.yul\":5785:5788   */\n      dup3\n        /* \"#utility.yul\":5778:5812   */\n      mstore\n        /* \"#utility.yul\":5709:5818   */\n      pop\n      pop\n      jump\t// out\n        /* \"#utility.yul\":5824:6567   */\n    tag_54:\n        /* \"#utility.yul\":6043:6047   */\n      0x00\n        /* \"#utility.yul\":6081:6084   */\n      0xa0\n        /* \"#utility.yul\":6070:6079   */\n      dup3\n        /* \"#utility.yul\":6066:6085   */\n      add\n        /* \"#utility.yul\":6058:6085   */\n      swap1\n      pop\n        /* \"#utility.yul\":6131:6140   */\n      dup2\n        /* \"#utility.yul\":6125:6129   */\n      dup2\n        /* \"#utility.yul\":6121:6141   */\n      sub\n        /* \"#utility.yul\":6117:6118   */\n      0x00\n        /* \"#utility.yul\":6106:6115   */\n      dup4\n        /* \"#utility.yul\":6102:6119   */\n      add\n        /* \"#utility.yul\":6095:6142   */\n      mstore\n        /* \"#utility.yul\":6159:6237   */\n      tag_269\n        /* \"#utility.yul\":6232:6236   */\n      dup2\n        /* \"#utility.yul\":6223:6229   */\n      dup9\n        /* \"#utility.yul\":6159:6237   */\n      tag_176\n      jump\t// in\n    tag_269:\n        /* \"#utility.yul\":6151:6237   */\n      swap1\n      pop\n        /* \"#utility.yul\":6247:6319   */\n      tag_270\n        /* \"#utility.yul\":6315:6317   */\n      0x20\n        /* \"#utility.yul\":6304:6313   */\n      dup4\n        /* \"#utility.yul\":6300:6318   */\n      add\n        /* \"#utility.yul\":6291:6297   */\n      dup8\n        /* \"#utility.yul\":6247:6319   */\n      tag_163\n      jump\t// in\n    tag_270:\n        /* \"#utility.yul\":6329:6401   */\n      tag_271\n        /* \"#utility.yul\":6397:6399   */\n      0x40\n        /* \"#utility.yul\":6386:6395   */\n      dup4\n        /* \"#utility.yul\":6382:6400   */\n      add\n        /* \"#utility.yul\":6373:6379   */\n      dup7\n        /* \"#utility.yul\":6329:6401   */\n      tag_163\n      jump\t// in\n    tag_271:\n        /* \"#utility.yul\":6411:6483   */\n      tag_272\n        /* \"#utility.yul\":6479:6481   */\n      0x60\n        /* \"#utility.yul\":6468:6477   */\n      dup4\n        /* \"#utility.yul\":6464:6482   */\n      add\n        /* \"#utility.yul\":6455:6461   */\n      dup6\n        /* \"#utility.yul\":6411:6483   */\n      tag_163\n      jump\t// in\n    tag_272:\n        /* \"#utility.yul\":6493:6560   */\n      tag_273\n        /* \"#utility.yul\":6555:6558   */\n      0x80\n        /* \"#utility.yul\":6544:6553   */\n      dup4\n        /* \"#utility.yul\":6540:6559   */\n      add\n        /* \"#utility.yul\":6531:6537   */\n      dup5\n        /* \"#utility.yul\":6493:6560   */\n      tag_177\n      jump\t// in\n    tag_273:\n        /* \"#utility.yul\":5824:6567   */\n      swap7\n      swap6\n      pop\n      pop\n      pop\n      pop\n      pop\n      pop\n      jump\t// out\n        /* \"#utility.yul\":6573:6690   */\n    tag_178:\n        /* \"#utility.yul\":6682:6683   */\n      0x00\n        /* \"#utility.yul\":6679:6680   */\n      dup1\n        /* \"#utility.yul\":6672:6684   */\n      revert\n        /* \"#utility.yul\":6696:6813   */\n    tag_179:\n        /* \"#utility.yul\":6805:6806   */\n      0x00\n        /* \"#utility.yul\":6802:6803   */\n      dup1\n        /* \"#utility.yul\":6795:6807   */\n      revert\n        /* \"#utility.yul\":6819:6999   */\n    tag_180:\n        /* \"#utility.yul\":6867:6944   */\n      0x4e487b7100000000000000000000000000000000000000000000000000000000\n        /* \"#utility.yul\":6864:6865   */\n      0x00\n        /* \"#utility.yul\":6857:6945   */\n      mstore\n        /* \"#utility.yul\":6964:6968   */\n      0x41\n        /* \"#utility.yul\":6961:6962   */\n      0x04\n        /* \"#utility.yul\":6954:6969   */\n      mstore\n        /* \"#utility.yul\":6988:6992   */\n      0x24\n        /* \"#utility.yul\":6985:6986   */\n      0x00\n        /* \"#utility.yul\":6978:6993   */\n      revert\n        /* \"#utility.yul\":7005:7286   */\n    tag_181:\n        /* \"#utility.yul\":7088:7115   */\n      tag_278\n        /* \"#utility.yul\":7110:7114   */\n      dup3\n        /* \"#utility.yul\":7088:7115   */\n      tag_167\n      jump\t// in\n    tag_278:\n        /* \"#utility.yul\":7080:7086   */\n      dup2\n        /* \"#utility.yul\":7076:7116   */\n      add\n        /* \"#utility.yul\":7218:7224   */\n      dup2\n        /* \"#utility.yul\":7206:7216   */\n      dup2\n        /* \"#utility.yul\":7203:7225   */\n      lt\n        /* \"#utility.yul\":7182:7200   */\n      0xffffffffffffffff\n        /* \"#utility.yul\":7170:7180   */\n      dup3\n        /* \"#utility.yul\":7167:7201   */\n      gt\n        /* \"#utility.yul\":7164:7226   */\n      or\n        /* \"#utility.yul\":7161:7249   */\n      iszero\n      tag_279\n      jumpi\n        /* \"#utility.yul\":7229:7247   */\n      tag_280\n      tag_180\n      jump\t// in\n    tag_280:\n        /* \"#utility.yul\":7161:7249   */\n    tag_279:\n        /* \"#utility.yul\":7269:7279   */\n      dup1\n        /* \"#utility.yul\":7265:7267   */\n      0x40\n        /* \"#utility.yul\":7258:7280   */\n      mstore\n        /* \"#utility.yul\":7048:7286   */\n      pop\n        /* \"#utility.yul\":7005:7286   */\n      pop\n      pop\n      jump\t// out\n        /* \"#utility.yul\":7292:7421   */\n    tag_182:\n        /* \"#utility.yul\":7326:7332   */\n      0x00\n        /* \"#utility.yul\":7353:7373   */\n      tag_282\n      tag_155\n      jump\t// in\n    tag_282:\n        /* \"#utility.yul\":7343:7373   */\n      swap1\n      pop\n        /* \"#utility.yul\":7382:7415   */\n      tag_283\n        /* \"#utility.yul\":7410:7414   */\n      dup3\n        /* \"#utility.yul\":7402:7408   */\n      dup3\n        /* \"#utility.yul\":7382:7415   */\n      tag_181\n      jump\t// in\n    tag_283:\n        /* \"#utility.yul\":7292:7421   */\n      swap2\n      swap1\n      pop\n      jump\t// out\n        /* \"#utility.yul\":7427:7735   */\n    tag_183:\n        /* \"#utility.yul\":7489:7493   */\n      0x00\n        /* \"#utility.yul\":7579:7597   */\n      0xffffffffffffffff\n        /* \"#utility.yul\":7571:7577   */\n      dup3\n        /* \"#utility.yul\":7568:7598   */\n      gt\n        /* \"#utility.yul\":7565:7621   */\n      iszero\n      tag_285\n      jumpi\n        /* \"#utility.yul\":7601:7619   */\n      tag_286\n      tag_180\n      jump\t// in\n    tag_286:\n        /* \"#utility.yul\":7565:7621   */\n    tag_285:\n        /* \"#utility.yul\":7639:7668   */\n      tag_287\n        /* \"#utility.yul\":7661:7667   */\n      dup3\n        /* \"#utility.yul\":7639:7668   */\n      tag_167\n      jump\t// in\n    tag_287:\n        /* \"#utility.yul\":7631:7668   */\n      swap1\n      pop\n        /* \"#utility.yul\":7723:7727   */\n      0x20\n        /* \"#utility.yul\":7717:7721   */\n      dup2\n        /* \"#utility.yul\":7713:7728   */\n      add\n        /* \"#utility.yul\":7705:7728   */\n      swap1\n      pop\n        /* \"#utility.yul\":7427:7735   */\n      swap2\n      swap1\n      pop\n      jump\t// out\n        /* \"#utility.yul\":7741:7895   */\n    tag_184:\n        /* \"#utility.yul\":7825:7831   */\n      dup3\n        /* \"#utility.yul\":7820:7823   */\n      dup2\n        /* \"#utility.yul\":7815:7818   */\n      dup4\n        /* \"#utility.yul\":7802:7832   */\n      calldatacopy\n        /* \"#utility.yul\":7887:7888   */\n      0x00\n        /* \"#utility.yul\":7878:7884   */\n      dup4\n        /* \"#utility.yul\":7873:7876   */\n      dup4\n        /* \"#utility.yul\":7869:7885   */\n      add\n        /* \"#utility.yul\":7862:7889   */\n      mstore\n        /* \"#utility.yul\":7741:7895   */\n      pop\n      pop\n      pop\n      jump\t// out\n        /* \"#utility.yul\":7901:8313   */\n    tag_185:\n        /* \"#utility.yul\":7979:7984   */\n      0x00\n        /* \"#utility.yul\":8004:8070   */\n      tag_290\n        /* \"#utility.yul\":8020:8069   */\n      tag_291\n        /* \"#utility.yul\":8062:8068   */\n      dup5\n        /* \"#utility.yul\":8020:8069   */\n      tag_183\n      jump\t// in\n    tag_291:\n        /* \"#utility.yul\":8004:8070   */\n      tag_182\n      jump\t// in\n    tag_290:\n        /* \"#utility.yul\":7995:8070   */\n      swap1\n      pop\n        /* \"#utility.yul\":8093:8099   */\n      dup3\n        /* \"#utility.yul\":8086:8091   */\n      dup2\n        /* \"#utility.yul\":8079:8100   */\n      mstore\n        /* \"#utility.yul\":8131:8135   */\n      0x20\n        /* \"#utility.yul\":8124:8129   */\n      dup2\n        /* \"#utility.yul\":8120:8136   */\n      add\n        /* \"#utility.yul\":8169:8172   */\n      dup5\n        /* \"#utility.yul\":8160:8166   */\n      dup5\n        /* \"#utility.yul\":8155:8158   */\n      dup5\n        /* \"#utility.yul\":8151:8167   */\n      add\n        /* \"#utility.yul\":8148:8173   */\n      gt\n        /* \"#utility.yul\":8145:8257   */\n      iszero\n      tag_292\n      jumpi\n        /* \"#utility.yul\":8176:8255   */\n      tag_293\n      tag_179\n      jump\t// in\n    tag_293:\n        /* \"#utility.yul\":8145:8257   */\n    tag_292:\n        /* \"#utility.yul\":8266:8307   */\n      tag_294\n        /* \"#utility.yul\":8300:8306   */\n      dup5\n        /* \"#utility.yul\":8295:8298   */\n      dup3\n        /* \"#utility.yul\":8290:8293   */\n      dup6\n        /* \"#utility.yul\":8266:8307   */\n      tag_184\n      jump\t// in\n    tag_294:\n        /* \"#utility.yul\":7985:8313   */\n      pop\n        /* \"#utility.yul\":7901:8313   */\n      swap4\n      swap3\n      pop\n      pop\n      pop\n      jump\t// out\n        /* \"#utility.yul\":8333:8673   */\n    tag_186:\n        /* \"#utility.yul\":8389:8394   */\n      0x00\n        /* \"#utility.yul\":8438:8441   */\n      dup3\n        /* \"#utility.yul\":8431:8435   */\n      0x1f\n        /* \"#utility.yul\":8423:8429   */\n      dup4\n        /* \"#utility.yul\":8419:8436   */\n      add\n        /* \"#utility.yul\":8415:8442   */\n      slt\n        /* \"#utility.yul\":8405:8527   */\n      tag_296\n      jumpi\n        /* \"#utility.yul\":8446:8525   */\n      tag_297\n      tag_178\n      jump\t// in\n    tag_297:\n        /* \"#utility.yul\":8405:8527   */\n    tag_296:\n        /* \"#utility.yul\":8563:8569   */\n      dup2\n        /* \"#utility.yul\":8550:8570   */\n      calldataload\n        /* \"#utility.yul\":8588:8667   */\n      tag_298\n        /* \"#utility.yul\":8663:8666   */\n      dup5\n        /* \"#utility.yul\":8655:8661   */\n      dup3\n        /* \"#utility.yul\":8648:8652   */\n      0x20\n        /* \"#utility.yul\":8640:8646   */\n      dup7\n        /* \"#utility.yul\":8636:8653   */\n      add\n        /* \"#utility.yul\":8588:8667   */\n      tag_185\n      jump\t// in\n    tag_298:\n        /* \"#utility.yul\":8579:8667   */\n      swap2\n      pop\n        /* \"#utility.yul\":8395:8673   */\n      pop\n        /* \"#utility.yul\":8333:8673   */\n      swap3\n      swap2\n      pop\n      pop\n      jump\t// out\n        /* \"#utility.yul\":8679:9478   */\n    tag_58:\n        /* \"#utility.yul\":8766:8772   */\n      0x00\n        /* \"#utility.yul\":8774:8780   */\n      dup1\n        /* \"#utility.yul\":8782:8788   */\n      0x00\n        /* \"#utility.yul\":8831:8833   */\n      0x60\n        /* \"#utility.yul\":8819:8828   */\n      dup5\n        /* \"#utility.yul\":8810:8817   */\n      dup7\n        /* \"#utility.yul\":8806:8829   */\n      sub\n        /* \"#utility.yul\":8802:8834   */\n      slt\n        /* \"#utility.yul\":8799:8918   */\n      iszero\n      tag_300\n      jumpi\n        /* \"#utility.yul\":8837:8916   */\n      tag_301\n      tag_156\n      jump\t// in\n    tag_301:\n        /* \"#utility.yul\":8799:8918   */\n    tag_300:\n        /* \"#utility.yul\":8985:8986   */\n      0x00\n        /* \"#utility.yul\":8974:8983   */\n      dup5\n        /* \"#utility.yul\":8970:8987   */\n      add\n        /* \"#utility.yul\":8957:8988   */\n      calldataload\n        /* \"#utility.yul\":9015:9033   */\n      0xffffffffffffffff\n        /* \"#utility.yul\":9007:9013   */\n      dup2\n        /* \"#utility.yul\":9004:9034   */\n      gt\n        /* \"#utility.yul\":9001:9118   */\n      iszero\n      tag_302\n      jumpi\n        /* \"#utility.yul\":9037:9116   */\n      tag_303\n      tag_157\n      jump\t// in\n    tag_303:\n        /* \"#utility.yul\":9001:9118   */\n    tag_302:\n        /* \"#utility.yul\":9142:9205   */\n      tag_304\n        /* \"#utility.yul\":9197:9204   */\n      dup7\n        /* \"#utility.yul\":9188:9194   */\n      dup3\n        /* \"#utility.yul\":9177:9186   */\n      dup8\n        /* \"#utility.yul\":9173:9195   */\n      add\n        /* \"#utility.yul\":9142:9205   */\n      tag_186\n      jump\t// in\n    tag_304:\n        /* \"#utility.yul\":9132:9205   */\n      swap4\n      pop\n        /* \"#utility.yul\":8928:9215   */\n      pop\n        /* \"#utility.yul\":9254:9256   */\n      0x20\n        /* \"#utility.yul\":9280:9333   */\n      tag_305\n        /* \"#utility.yul\":9325:9332   */\n      dup7\n        /* \"#utility.yul\":9316:9322   */\n      dup3\n        /* \"#utility.yul\":9305:9314   */\n      dup8\n        /* \"#utility.yul\":9301:9323   */\n      add\n        /* \"#utility.yul\":9280:9333   */\n      tag_174\n      jump\t// in\n    tag_305:\n        /* \"#utility.yul\":9270:9333   */\n      swap3\n      pop\n        /* \"#utility.yul\":9225:9343   */\n      pop\n        /* \"#utility.yul\":9382:9384   */\n      0x40\n        /* \"#utility.yul\":9408:9461   */\n      tag_306\n        /* \"#utility.yul\":9453:9460   */\n      dup7\n        /* \"#utility.yul\":9444:9450   */\n      dup3\n        /* \"#utility.yul\":9433:9442   */\n      dup8\n        /* \"#utility.yul\":9429:9451   */\n      add\n        /* \"#utility.yul\":9408:9461   */\n      tag_174\n      jump\t// in\n    tag_306:\n        /* \"#utility.yul\":9398:9461   */\n      swap2\n      pop\n        /* \"#utility.yul\":9353:9471   */\n      pop\n        /* \"#utility.yul\":8679:9478   */\n      swap3\n      pop\n      swap3\n      pop\n      swap3\n      jump\t// out\n        /* \"#utility.yul\":9484:9694   */\n    tag_65:\n        /* \"#utility.yul\":9571:9575   */\n      0x00\n        /* \"#utility.yul\":9609:9611   */\n      0x20\n        /* \"#utility.yul\":9598:9607   */\n      dup3\n        /* \"#utility.yul\":9594:9612   */\n      add\n        /* \"#utility.yul\":9586:9612   */\n      swap1\n      pop\n        /* \"#utility.yul\":9622:9687   */\n      tag_308\n        /* \"#utility.yul\":9684:9685   */\n      0x00\n        /* \"#utility.yul\":9673:9682   */\n      dup4\n        /* \"#utility.yul\":9669:9686   */\n      add\n        /* \"#utility.yul\":9660:9666   */\n      dup5\n        /* \"#utility.yul\":9622:9687   */\n      tag_177\n      jump\t// in\n    tag_308:\n        /* \"#utility.yul\":9484:9694   */\n      swap3\n      swap2\n      pop\n      pop\n      jump\t// out\n        /* \"#utility.yul\":9700:9880   */\n    tag_187:\n        /* \"#utility.yul\":9748:9825   */\n      0x4e487b7100000000000000000000000000000000000000000000000000000000\n        /* \"#utility.yul\":9745:9746   */\n      0x00\n        /* \"#utility.yul\":9738:9826   */\n      mstore\n        /* \"#utility.yul\":9845:9849   */\n      0x22\n        /* \"#utility.yul\":9842:9843   */\n      0x04\n        /* \"#utility.yul\":9835:9850   */\n      mstore\n        /* \"#utility.yul\":9869:9873   */\n      0x24\n        /* \"#utility.yul\":9866:9867   */\n      0x00\n        /* \"#utility.yul\":9859:9874   */\n      revert\n        /* \"#utility.yul\":9886:10206   */\n    tag_71:\n        /* \"#utility.yul\":9930:9936   */\n      0x00\n        /* \"#utility.yul\":9967:9968   */\n      0x02\n        /* \"#utility.yul\":9961:9965   */\n      dup3\n        /* \"#utility.yul\":9957:9969   */\n      div\n        /* \"#utility.yul\":9947:9969   */\n      swap1\n      pop\n        /* \"#utility.yul\":10014:10015   */\n      0x01\n        /* \"#utility.yul\":10008:10012   */\n      dup3\n        /* \"#utility.yul\":10004:10016   */\n      and\n        /* \"#utility.yul\":10035:10053   */\n      dup1\n        /* \"#utility.yul\":10025:10106   */\n      tag_311\n      jumpi\n        /* \"#utility.yul\":10091:10095   */\n      0x7f\n        /* \"#utility.yul\":10083:10089   */\n      dup3\n        /* \"#utility.yul\":10079:10096   */\n      and\n        /* \"#utility.yul\":10069:10096   */\n      swap2\n      pop\n        /* \"#utility.yul\":10025:10106   */\n    tag_311:\n        /* \"#utility.yul\":10153:10155   */\n      0x20\n        /* \"#utility.yul\":10145:10151   */\n      dup3\n        /* \"#utility.yul\":10142:10156   */\n      lt\n        /* \"#utility.yul\":10122:10140   */\n      dup2\n        /* \"#utility.yul\":10119:10157   */\n      eq\n        /* \"#utility.yul\":10116:10200   */\n      iszero\n      tag_312\n      jumpi\n        /* \"#utility.yul\":10172:10190   */\n      tag_313\n      tag_187\n      jump\t// in\n    tag_313:\n        /* \"#utility.yul\":10116:10200   */\n    tag_312:\n        /* \"#utility.yul\":9937:10206   */\n      pop\n        /* \"#utility.yul\":9886:10206   */\n      swap2\n      swap1\n      pop\n      jump\t// out\n        /* \"#utility.yul\":10212:10330   */\n    tag_188:\n        /* \"#utility.yul\":10299:10323   */\n      tag_315\n        /* \"#utility.yul\":10317:10322   */\n      dup2\n        /* \"#utility.yul\":10299:10323   */\n      tag_159\n      jump\t// in\n    tag_315:\n        /* \"#utility.yul\":10294:10297   */\n      dup3\n        /* \"#utility.yul\":10287:10324   */\n      mstore\n        /* \"#utility.yul\":10212:10330   */\n      pop\n      pop\n      jump\t// out\n        /* \"#utility.yul\":10336:10558   */\n    tag_83:\n        /* \"#utility.yul\":10429:10433   */\n      0x00\n        /* \"#utility.yul\":10467:10469   */\n      0x20\n        /* \"#utility.yul\":10456:10465   */\n      dup3\n        /* \"#utility.yul\":10452:10470   */\n      add\n        /* \"#utility.yul\":10444:10470   */\n      swap1\n      pop\n        /* \"#utility.yul\":10480:10551   */\n      tag_317\n        /* \"#utility.yul\":10548:10549   */\n      0x00\n        /* \"#utility.yul\":10537:10546   */\n      dup4\n        /* \"#utility.yul\":10533:10550   */\n      add\n        /* \"#utility.yul\":10524:10530   */\n      dup5\n        /* \"#utility.yul\":10480:10551   */\n      tag_188\n      jump\t// in\n    tag_317:\n        /* \"#utility.yul\":10336:10558   */\n      swap3\n      swap2\n      pop\n      pop\n      jump\t// out\n        /* \"#utility.yul\":10564:10680   */\n    tag_189:\n        /* \"#utility.yul\":10634:10655   */\n      tag_319\n        /* \"#utility.yul\":10649:10654   */\n      dup2\n        /* \"#utility.yul\":10634:10655   */\n      tag_170\n      jump\t// in\n    tag_319:\n        /* \"#utility.yul\":10627:10632   */\n      dup2\n        /* \"#utility.yul\":10624:10656   */\n      eq\n        /* \"#utility.yul\":10614:10674   */\n      tag_320\n      jumpi\n        /* \"#utility.yul\":10670:10671   */\n      0x00\n        /* \"#utility.yul\":10667:10668   */\n      dup1\n        /* \"#utility.yul\":10660:10672   */\n      revert\n        /* \"#utility.yul\":10614:10674   */\n    tag_320:\n        /* \"#utility.yul\":10564:10680   */\n      pop\n      jump\t// out\n        /* \"#utility.yul\":10686:10823   */\n    tag_190:\n        /* \"#utility.yul\":10740:10745   */\n      0x00\n        /* \"#utility.yul\":10771:10777   */\n      dup2\n        /* \"#utility.yul\":10765:10778   */\n      mload\n        /* \"#utility.yul\":10756:10778   */\n      swap1\n      pop\n        /* \"#utility.yul\":10787:10817   */\n      tag_322\n        /* \"#utility.yul\":10811:10816   */\n      dup2\n        /* \"#utility.yul\":10787:10817   */\n      tag_189\n      jump\t// in\n    tag_322:\n        /* \"#utility.yul\":10686:10823   */\n      swap3\n      swap2\n      pop\n      pop\n      jump\t// out\n        /* \"#utility.yul\":10829:11174   */\n    tag_87:\n        /* \"#utility.yul\":10896:10902   */\n      0x00\n        /* \"#utility.yul\":10945:10947   */\n      0x20\n        /* \"#utility.yul\":10933:10942   */\n      dup3\n        /* \"#utility.yul\":10924:10931   */\n      dup5\n        /* \"#utility.yul\":10920:10943   */\n      sub\n        /* \"#utility.yul\":10916:10948   */\n      slt\n        /* \"#utility.yul\":10913:11032   */\n      iszero\n      tag_324\n      jumpi\n        /* \"#utility.yul\":10951:11030   */\n      tag_325\n      tag_156\n      jump\t// in\n    tag_325:\n        /* \"#utility.yul\":10913:11032   */\n    tag_324:\n        /* \"#utility.yul\":11071:11072   */\n      0x00\n        /* \"#utility.yul\":11096:11157   */\n      tag_326\n        /* \"#utility.yul\":11149:11156   */\n      dup5\n        /* \"#utility.yul\":11140:11146   */\n      dup3\n        /* \"#utility.yul\":11129:11138   */\n      dup6\n        /* \"#utility.yul\":11125:11147   */\n      add\n        /* \"#utility.yul\":11096:11157   */\n      tag_190\n      jump\t// in\n    tag_326:\n        /* \"#utility.yul\":11086:11157   */\n      swap2\n      pop\n        /* \"#utility.yul\":11042:11167   */\n      pop\n        /* \"#utility.yul\":10829:11174   */\n      swap3\n      swap2\n      pop\n      pop\n      jump\t// out\n        /* \"#utility.yul\":11180:11403   */\n    tag_191:\n        /* \"#utility.yul\":11320:11354   */\n      0x766f746520666f72207468697320726571756573742069732079657420746f20\n        /* \"#utility.yul\":11316:11317   */\n      0x00\n        /* \"#utility.yul\":11308:11314   */\n      dup3\n        /* \"#utility.yul\":11304:11318   */\n      add\n        /* \"#utility.yul\":11297:11355   */\n      mstore\n        /* \"#utility.yul\":11389:11395   */\n      0x7061737300000000000000000000000000000000000000000000000000000000\n        /* \"#utility.yul\":11384:11386   */\n      0x20\n        /* \"#utility.yul\":11376:11382   */\n      dup3\n        /* \"#utility.yul\":11372:11387   */\n      add\n        /* \"#utility.yul\":11365:11396   */\n      mstore\n        /* \"#utility.yul\":11180:11403   */\n      pop\n      jump\t// out\n        /* \"#utility.yul\":11409:11775   */\n    tag_192:\n        /* \"#utility.yul\":11551:11554   */\n      0x00\n        /* \"#utility.yul\":11572:11639   */\n      tag_329\n        /* \"#utility.yul\":11636:11638   */\n      0x24\n        /* \"#utility.yul\":11631:11634   */\n      dup4\n        /* \"#utility.yul\":11572:11639   */\n      tag_175\n      jump\t// in\n    tag_329:\n        /* \"#utility.yul\":11565:11639   */\n      swap2\n      pop\n        /* \"#utility.yul\":11648:11741   */\n      tag_330\n        /* \"#utility.yul\":11737:11740   */\n      dup3\n        /* \"#utility.yul\":11648:11741   */\n      tag_191\n      jump\t// in\n    tag_330:\n        /* \"#utility.yul\":11766:11768   */\n      0x40\n        /* \"#utility.yul\":11761:11764   */\n      dup3\n        /* \"#utility.yul\":11757:11769   */\n      add\n        /* \"#utility.yul\":11750:11769   */\n      swap1\n      pop\n        /* \"#utility.yul\":11409:11775   */\n      swap2\n      swap1\n      pop\n      jump\t// out\n        /* \"#utility.yul\":11781:12200   */\n    tag_90:\n        /* \"#utility.yul\":11947:11951   */\n      0x00\n        /* \"#utility.yul\":11985:11987   */\n      0x20\n        /* \"#utility.yul\":11974:11983   */\n      dup3\n        /* \"#utility.yul\":11970:11988   */\n      add\n        /* \"#utility.yul\":11962:11988   */\n      swap1\n      pop\n        /* \"#utility.yul\":12034:12043   */\n      dup2\n        /* \"#utility.yul\":12028:12032   */\n      dup2\n        /* \"#utility.yul\":12024:12044   */\n      sub\n        /* \"#utility.yul\":12020:12021   */\n      0x00\n        /* \"#utility.yul\":12009:12018   */\n      dup4\n        /* \"#utility.yul\":12005:12022   */\n      add\n        /* \"#utility.yul\":11998:12045   */\n      mstore\n        /* \"#utility.yul\":12062:12193   */\n      tag_332\n        /* \"#utility.yul\":12188:12192   */\n      dup2\n        /* \"#utility.yul\":12062:12193   */\n      tag_192\n      jump\t// in\n    tag_332:\n        /* \"#utility.yul\":12054:12193   */\n      swap1\n      pop\n        /* \"#utility.yul\":11781:12200   */\n      swap2\n      swap1\n      pop\n      jump\t// out\n        /* \"#utility.yul\":12206:12382   */\n    tag_193:\n        /* \"#utility.yul\":12346:12374   */\n      0x796f752063616e2774207472616e7366657220302076616c7565000000000000\n        /* \"#utility.yul\":12342:12343   */\n      0x00\n        /* \"#utility.yul\":12334:12340   */\n      dup3\n        /* \"#utility.yul\":12330:12344   */\n      add\n        /* \"#utility.yul\":12323:12375   */\n      mstore\n        /* \"#utility.yul\":12206:12382   */\n      pop\n      jump\t// out\n        /* \"#utility.yul\":12388:12754   */\n    tag_194:\n        /* \"#utility.yul\":12530:12533   */\n      0x00\n        /* \"#utility.yul\":12551:12618   */\n      tag_335\n        /* \"#utility.yul\":12615:12617   */\n      0x1a\n        /* \"#utility.yul\":12610:12613   */\n      dup4\n        /* \"#utility.yul\":12551:12618   */\n      tag_175\n      jump\t// in\n    tag_335:\n        /* \"#utility.yul\":12544:12618   */\n      swap2\n      pop\n        /* \"#utility.yul\":12627:12720   */\n      tag_336\n        /* \"#utility.yul\":12716:12719   */\n      dup3\n        /* \"#utility.yul\":12627:12720   */\n      tag_193\n      jump\t// in\n    tag_336:\n        /* \"#utility.yul\":12745:12747   */\n      0x20\n        /* \"#utility.yul\":12740:12743   */\n      dup3\n        /* \"#utility.yul\":12736:12748   */\n      add\n        /* \"#utility.yul\":12729:12748   */\n      swap1\n      pop\n        /* \"#utility.yul\":12388:12754   */\n      swap2\n      swap1\n      pop\n      jump\t// out\n        /* \"#utility.yul\":12760:13179   */\n    tag_94:\n        /* \"#utility.yul\":12926:12930   */\n      0x00\n        /* \"#utility.yul\":12964:12966   */\n      0x20\n        /* \"#utility.yul\":12953:12962   */\n      dup3\n        /* \"#utility.yul\":12949:12967   */\n      add\n        /* \"#utility.yul\":12941:12967   */\n      swap1\n      pop\n        /* \"#utility.yul\":13013:13022   */\n      dup2\n        /* \"#utility.yul\":13007:13011   */\n      dup2\n        /* \"#utility.yul\":13003:13023   */\n      sub\n        /* \"#utility.yul\":12999:13000   */\n      0x00\n        /* \"#utility.yul\":12988:12997   */\n      dup4\n        /* \"#utility.yul\":12984:13001   */\n      add\n        /* \"#utility.yul\":12977:13024   */\n      mstore\n        /* \"#utility.yul\":13041:13172   */\n      tag_338\n        /* \"#utility.yul\":13167:13171   */\n      dup2\n        /* \"#utility.yul\":13041:13172   */\n      tag_194\n      jump\t// in\n    tag_338:\n        /* \"#utility.yul\":13033:13172   */\n      swap1\n      pop\n        /* \"#utility.yul\":12760:13179   */\n      swap2\n      swap1\n      pop\n      jump\t// out\n        /* \"#utility.yul\":13185:13412   */\n    tag_195:\n        /* \"#utility.yul\":13325:13359   */\n      0x746869732070726f706f73616c206e6f7420617661696c61626c6520666f7220\n        /* \"#utility.yul\":13321:13322   */\n      0x00\n        /* \"#utility.yul\":13313:13319   */\n      dup3\n        /* \"#utility.yul\":13309:13323   */\n      add\n        /* \"#utility.yul\":13302:13360   */\n      mstore\n        /* \"#utility.yul\":13394:13404   */\n      0x646f6e6174696f6e000000000000000000000000000000000000000000000000\n        /* \"#utility.yul\":13389:13391   */\n      0x20\n        /* \"#utility.yul\":13381:13387   */\n      dup3\n        /* \"#utility.yul\":13377:13392   */\n      add\n        /* \"#utility.yul\":13370:13405   */\n      mstore\n        /* \"#utility.yul\":13185:13412   */\n      pop\n      jump\t// out\n        /* \"#utility.yul\":13418:13784   */\n    tag_196:\n        /* \"#utility.yul\":13560:13563   */\n      0x00\n        /* \"#utility.yul\":13581:13648   */\n      tag_341\n        /* \"#utility.yul\":13645:13647   */\n      0x28\n        /* \"#utility.yul\":13640:13643   */\n      dup4\n        /* \"#utility.yul\":13581:13648   */\n      tag_175\n      jump\t// in\n    tag_341:\n        /* \"#utility.yul\":13574:13648   */\n      swap2\n      pop\n        /* \"#utility.yul\":13657:13750   */\n      tag_342\n        /* \"#utility.yul\":13746:13749   */\n      dup3\n        /* \"#utility.yul\":13657:13750   */\n      tag_195\n      jump\t// in\n    tag_342:\n        /* \"#utility.yul\":13775:13777   */\n      0x40\n        /* \"#utility.yul\":13770:13773   */\n      dup3\n        /* \"#utility.yul\":13766:13778   */\n      add\n        /* \"#utility.yul\":13759:13778   */\n      swap1\n      pop\n        /* \"#utility.yul\":13418:13784   */\n      swap2\n      swap1\n      pop\n      jump\t// out\n        /* \"#utility.yul\":13790:14209   */\n    tag_97:\n        /* \"#utility.yul\":13956:13960   */\n      0x00\n        /* \"#utility.yul\":13994:13996   */\n      0x20\n        /* \"#utility.yul\":13983:13992   */\n      dup3\n        /* \"#utility.yul\":13979:13997   */\n      add\n        /* \"#utility.yul\":13971:13997   */\n      swap1\n      pop\n        /* \"#utility.yul\":14043:14052   */\n      dup2\n        /* \"#utility.yul\":14037:14041   */\n      dup2\n        /* \"#utility.yul\":14033:14053   */\n      sub\n        /* \"#utility.yul\":14029:14030   */\n      0x00\n        /* \"#utility.yul\":14018:14027   */\n      dup4\n        /* \"#utility.yul\":14014:14031   */\n      add\n        /* \"#utility.yul\":14007:14054   */\n      mstore\n        /* \"#utility.yul\":14071:14202   */\n      tag_344\n        /* \"#utility.yul\":14197:14201   */\n      dup2\n        /* \"#utility.yul\":14071:14202   */\n      tag_196\n      jump\t// in\n    tag_344:\n        /* \"#utility.yul\":14063:14202   */\n      swap1\n      pop\n        /* \"#utility.yul\":13790:14209   */\n      swap2\n      swap1\n      pop\n      jump\t// out\n        /* \"#utility.yul\":14215:14394   */\n    tag_197:\n        /* \"#utility.yul\":14355:14386   */\n      0x74617267657420726561636865616420666f7220746869732066756e64000000\n        /* \"#utility.yul\":14351:14352   */\n      0x00\n        /* \"#utility.yul\":14343:14349   */\n      dup3\n        /* \"#utility.yul\":14339:14353   */\n      add\n        /* \"#utility.yul\":14332:14387   */\n      mstore\n        /* \"#utility.yul\":14215:14394   */\n      pop\n      jump\t// out\n        /* \"#utility.yul\":14400:14766   */\n    tag_198:\n        /* \"#utility.yul\":14542:14545   */\n      0x00\n        /* \"#utility.yul\":14563:14630   */\n      tag_347\n        /* \"#utility.yul\":14627:14629   */\n      0x1d\n        /* \"#utility.yul\":14622:14625   */\n      dup4\n        /* \"#utility.yul\":14563:14630   */\n      tag_175\n      jump\t// in\n    tag_347:\n        /* \"#utility.yul\":14556:14630   */\n      swap2\n      pop\n        /* \"#utility.yul\":14639:14732   */\n      tag_348\n        /* \"#utility.yul\":14728:14731   */\n      dup3\n        /* \"#utility.yul\":14639:14732   */\n      tag_197\n      jump\t// in\n    tag_348:\n        /* \"#utility.yul\":14757:14759   */\n      0x20\n        /* \"#utility.yul\":14752:14755   */\n      dup3\n        /* \"#utility.yul\":14748:14760   */\n      add\n        /* \"#utility.yul\":14741:14760   */\n      swap1\n      pop\n        /* \"#utility.yul\":14400:14766   */\n      swap2\n      swap1\n      pop\n      jump\t// out\n        /* \"#utility.yul\":14772:15191   */\n    tag_100:\n        /* \"#utility.yul\":14938:14942   */\n      0x00\n        /* \"#utility.yul\":14976:14978   */\n      0x20\n        /* \"#utility.yul\":14965:14974   */\n      dup3\n        /* \"#utility.yul\":14961:14979   */\n      add\n        /* \"#utility.yul\":14953:14979   */\n      swap1\n      pop\n        /* \"#utility.yul\":15025:15034   */\n      dup2\n        /* \"#utility.yul\":15019:15023   */\n      dup2\n        /* \"#utility.yul\":15015:15035   */\n      sub\n        /* \"#utility.yul\":15011:15012   */\n      0x00\n        /* \"#utility.yul\":15000:15009   */\n      dup4\n        /* \"#utility.yul\":14996:15013   */\n      add\n        /* \"#utility.yul\":14989:15036   */\n      mstore\n        /* \"#utility.yul\":15053:15184   */\n      tag_350\n        /* \"#utility.yul\":15179:15183   */\n      dup2\n        /* \"#utility.yul\":15053:15184   */\n      tag_198\n      jump\t// in\n    tag_350:\n        /* \"#utility.yul\":15045:15184   */\n      swap1\n      pop\n        /* \"#utility.yul\":14772:15191   */\n      swap2\n      swap1\n      pop\n      jump\t// out\n        /* \"#utility.yul\":15197:15377   */\n    tag_199:\n        /* \"#utility.yul\":15245:15322   */\n      0x4e487b7100000000000000000000000000000000000000000000000000000000\n        /* \"#utility.yul\":15242:15243   */\n      0x00\n        /* \"#utility.yul\":15235:15323   */\n      mstore\n        /* \"#utility.yul\":15342:15346   */\n      0x11\n        /* \"#utility.yul\":15339:15340   */\n      0x04\n        /* \"#utility.yul\":15332:15347   */\n      mstore\n        /* \"#utility.yul\":15366:15370   */\n      0x24\n        /* \"#utility.yul\":15363:15364   */\n      0x00\n        /* \"#utility.yul\":15356:15371   */\n      revert\n        /* \"#utility.yul\":15383:15688   */\n    tag_102:\n        /* \"#utility.yul\":15423:15426   */\n      0x00\n        /* \"#utility.yul\":15442:15462   */\n      tag_353\n        /* \"#utility.yul\":15460:15461   */\n      dup3\n        /* \"#utility.yul\":15442:15462   */\n      tag_162\n      jump\t// in\n    tag_353:\n        /* \"#utility.yul\":15437:15462   */\n      swap2\n      pop\n        /* \"#utility.yul\":15476:15496   */\n      tag_354\n        /* \"#utility.yul\":15494:15495   */\n      dup4\n        /* \"#utility.yul\":15476:15496   */\n      tag_162\n      jump\t// in\n    tag_354:\n        /* \"#utility.yul\":15471:15496   */\n      swap3\n      pop\n        /* \"#utility.yul\":15630:15631   */\n      dup3\n        /* \"#utility.yul\":15562:15628   */\n      0xffffffffffffffffffffffffffffffffffffffffffffffffffffffffffffffff\n        /* \"#utility.yul\":15558:15632   */\n      sub\n        /* \"#utility.yul\":15555:15556   */\n      dup3\n        /* \"#utility.yul\":15552:15633   */\n      gt\n        /* \"#utility.yul\":15549:15656   */\n      iszero\n      tag_355\n      jumpi\n        /* \"#utility.yul\":15636:15654   */\n      tag_356\n      tag_199\n      jump\t// in\n    tag_356:\n        /* \"#utility.yul\":15549:15656   */\n    tag_355:\n        /* \"#utility.yul\":15680:15681   */\n      dup3\n        /* \"#utility.yul\":15677:15678   */\n      dup3\n        /* \"#utility.yul\":15673:15682   */\n      add\n        /* \"#utility.yul\":15666:15682   */\n      swap1\n      pop\n        /* \"#utility.yul\":15383:15688   */\n      swap3\n      swap2\n      pop\n      pop\n      jump\t// out\n        /* \"#utility.yul\":15694:16136   */\n    tag_105:\n        /* \"#utility.yul\":15843:15847   */\n      0x00\n        /* \"#utility.yul\":15881:15883   */\n      0x60\n        /* \"#utility.yul\":15870:15879   */\n      dup3\n        /* \"#utility.yul\":15866:15884   */\n      add\n        /* \"#utility.yul\":15858:15884   */\n      swap1\n      pop\n        /* \"#utility.yul\":15894:15965   */\n      tag_358\n        /* \"#utility.yul\":15962:15963   */\n      0x00\n        /* \"#utility.yul\":15951:15960   */\n      dup4\n        /* \"#utility.yul\":15947:15964   */\n      add\n        /* \"#utility.yul\":15938:15944   */\n      dup7\n        /* \"#utility.yul\":15894:15965   */\n      tag_188\n      jump\t// in\n    tag_358:\n        /* \"#utility.yul\":15975:16047   */\n      tag_359\n        /* \"#utility.yul\":16043:16045   */\n      0x20\n        /* \"#utility.yul\":16032:16041   */\n      dup4\n        /* \"#utility.yul\":16028:16046   */\n      add\n        /* \"#utility.yul\":16019:16025   */\n      dup6\n        /* \"#utility.yul\":15975:16047   */\n      tag_188\n      jump\t// in\n    tag_359:\n        /* \"#utility.yul\":16057:16129   */\n      tag_360\n        /* \"#utility.yul\":16125:16127   */\n      0x40\n        /* \"#utility.yul\":16114:16123   */\n      dup4\n        /* \"#utility.yul\":16110:16128   */\n      add\n        /* \"#utility.yul\":16101:16107   */\n      dup5\n        /* \"#utility.yul\":16057:16129   */\n      tag_163\n      jump\t// in\n    tag_360:\n        /* \"#utility.yul\":15694:16136   */\n      swap5\n      swap4\n      pop\n      pop\n      pop\n      pop\n      jump\t// out\n        /* \"#utility.yul\":16142:16322   */\n    tag_200:\n        /* \"#utility.yul\":16282:16314   */\n      0x70726f706f73616c20686173206e6f74206265656e20617070726f7665640000\n        /* \"#utility.yul\":16278:16279   */\n      0x00\n        /* \"#utility.yul\":16270:16276   */\n      dup3\n        /* \"#utility.yul\":16266:16280   */\n      add\n        /* \"#utility.yul\":16259:16315   */\n      mstore\n        /* \"#utility.yul\":16142:16322   */\n      pop\n      jump\t// out\n        /* \"#utility.yul\":16328:16694   */\n    tag_201:\n        /* \"#utility.yul\":16470:16473   */\n      0x00\n        /* \"#utility.yul\":16491:16558   */\n      tag_363\n        /* \"#utility.yul\":16555:16557   */\n      0x1e\n        /* \"#utility.yul\":16550:16553   */\n      dup4\n        /* \"#utility.yul\":16491:16558   */\n      tag_175\n      jump\t// in\n    tag_363:\n        /* \"#utility.yul\":16484:16558   */\n      swap2\n      pop\n        /* \"#utility.yul\":16567:16660   */\n      tag_364\n        /* \"#utility.yul\":16656:16659   */\n      dup3\n        /* \"#utility.yul\":16567:16660   */\n      tag_200\n      jump\t// in\n    tag_364:\n        /* \"#utility.yul\":16685:16687   */\n      0x20\n        /* \"#utility.yul\":16680:16683   */\n      dup3\n        /* \"#utility.yul\":16676:16688   */\n      add\n        /* \"#utility.yul\":16669:16688   */\n      swap1\n      pop\n        /* \"#utility.yul\":16328:16694   */\n      swap2\n      swap1\n      pop\n      jump\t// out\n        /* \"#utility.yul\":16700:17119   */\n    tag_110:\n        /* \"#utility.yul\":16866:16870   */\n      0x00\n        /* \"#utility.yul\":16904:16906   */\n      0x20\n        /* \"#utility.yul\":16893:16902   */\n      dup3\n        /* \"#utility.yul\":16889:16907   */\n      add\n        /* \"#utility.yul\":16881:16907   */\n      swap1\n      pop\n        /* \"#utility.yul\":16953:16962   */\n      dup2\n        /* \"#utility.yul\":16947:16951   */\n      dup2\n        /* \"#utility.yul\":16943:16963   */\n      sub\n        /* \"#utility.yul\":16939:16940   */\n      0x00\n        /* \"#utility.yul\":16928:16937   */\n      dup4\n        /* \"#utility.yul\":16924:16941   */\n      add\n        /* \"#utility.yul\":16917:16964   */\n      mstore\n        /* \"#utility.yul\":16981:17112   */\n      tag_366\n        /* \"#utility.yul\":17107:17111   */\n      dup2\n        /* \"#utility.yul\":16981:17112   */\n      tag_201\n      jump\t// in\n    tag_366:\n        /* \"#utility.yul\":16973:17112   */\n      swap1\n      pop\n        /* \"#utility.yul\":16700:17119   */\n      swap2\n      swap1\n      pop\n      jump\t// out\n        /* \"#utility.yul\":17125:17294   */\n    tag_202:\n        /* \"#utility.yul\":17265:17286   */\n      0x46756e64732079657420746f206d617475726500000000000000000000000000\n        /* \"#utility.yul\":17261:17262   */\n      0x00\n        /* \"#utility.yul\":17253:17259   */\n      dup3\n        /* \"#utility.yul\":17249:17263   */\n      add\n        /* \"#utility.yul\":17242:17287   */\n      mstore\n        /* \"#utility.yul\":17125:17294   */\n      pop\n      jump\t// out\n        /* \"#utility.yul\":17300:17666   */\n    tag_203:\n        /* \"#utility.yul\":17442:17445   */\n      0x00\n        /* \"#utility.yul\":17463:17530   */\n      tag_369\n        /* \"#utility.yul\":17527:17529   */\n      0x13\n        /* \"#utility.yul\":17522:17525   */\n      dup4\n        /* \"#utility.yul\":17463:17530   */\n      tag_175\n      jump\t// in\n    tag_369:\n        /* \"#utility.yul\":17456:17530   */\n      swap2\n      pop\n        /* \"#utility.yul\":17539:17632   */\n      tag_370\n        /* \"#utility.yul\":17628:17631   */\n      dup3\n        /* \"#utility.yul\":17539:17632   */\n      tag_202\n      jump\t// in\n    tag_370:\n        /* \"#utility.yul\":17657:17659   */\n      0x20\n        /* \"#utility.yul\":17652:17655   */\n      dup3\n        /* \"#utility.yul\":17648:17660   */\n      add\n        /* \"#utility.yul\":17641:17660   */\n      swap1\n      pop\n        /* \"#utility.yul\":17300:17666   */\n      swap2\n      swap1\n      pop\n      jump\t// out\n        /* \"#utility.yul\":17672:18091   */\n    tag_114:\n        /* \"#utility.yul\":17838:17842   */\n      0x00\n        /* \"#utility.yul\":17876:17878   */\n      0x20\n        /* \"#utility.yul\":17865:17874   */\n      dup3\n        /* \"#utility.yul\":17861:17879   */\n      add\n        /* \"#utility.yul\":17853:17879   */\n      swap1\n      pop\n        /* \"#utility.yul\":17925:17934   */\n      dup2\n        /* \"#utility.yul\":17919:17923   */\n      dup2\n        /* \"#utility.yul\":17915:17935   */\n      sub\n        /* \"#utility.yul\":17911:17912   */\n      0x00\n        /* \"#utility.yul\":17900:17909   */\n      dup4\n        /* \"#utility.yul\":17896:17913   */\n      add\n        /* \"#utility.yul\":17889:17936   */\n      mstore\n        /* \"#utility.yul\":17953:18084   */\n      tag_372\n        /* \"#utility.yul\":18079:18083   */\n      dup2\n        /* \"#utility.yul\":17953:18084   */\n      tag_203\n      jump\t// in\n    tag_372:\n        /* \"#utility.yul\":17945:18084   */\n      swap1\n      pop\n        /* \"#utility.yul\":17672:18091   */\n      swap2\n      swap1\n      pop\n      jump\t// out\n        /* \"#utility.yul\":18097:18288   */\n    tag_116:\n        /* \"#utility.yul\":18137:18141   */\n      0x00\n        /* \"#utility.yul\":18157:18177   */\n      tag_374\n        /* \"#utility.yul\":18175:18176   */\n      dup3\n        /* \"#utility.yul\":18157:18177   */\n      tag_162\n      jump\t// in\n    tag_374:\n        /* \"#utility.yul\":18152:18177   */\n      swap2\n      pop\n        /* \"#utility.yul\":18191:18211   */\n      tag_375\n        /* \"#utility.yul\":18209:18210   */\n      dup4\n        /* \"#utility.yul\":18191:18211   */\n      tag_162\n      jump\t// in\n    tag_375:\n        /* \"#utility.yul\":18186:18211   */\n      swap3\n      pop\n        /* \"#utility.yul\":18230:18231   */\n      dup3\n        /* \"#utility.yul\":18227:18228   */\n      dup3\n        /* \"#utility.yul\":18224:18232   */\n      lt\n        /* \"#utility.yul\":18221:18255   */\n      iszero\n      tag_376\n      jumpi\n        /* \"#utility.yul\":18235:18253   */\n      tag_377\n      tag_199\n      jump\t// in\n    tag_377:\n        /* \"#utility.yul\":18221:18255   */\n    tag_376:\n        /* \"#utility.yul\":18280:18281   */\n      dup3\n        /* \"#utility.yul\":18277:18278   */\n      dup3\n        /* \"#utility.yul\":18273:18282   */\n      sub\n        /* \"#utility.yul\":18265:18282   */\n      swap1\n      pop\n        /* \"#utility.yul\":18097:18288   */\n      swap3\n      swap2\n      pop\n      pop\n      jump\t// out\n        /* \"#utility.yul\":18294:18724   */\n    tag_123:\n        /* \"#utility.yul\":18437:18441   */\n      0x00\n        /* \"#utility.yul\":18475:18477   */\n      0x60\n        /* \"#utility.yul\":18464:18473   */\n      dup3\n        /* \"#utility.yul\":18460:18478   */\n      add\n        /* \"#utility.yul\":18452:18478   */\n      swap1\n      pop\n        /* \"#utility.yul\":18488:18559   */\n      tag_379\n        /* \"#utility.yul\":18556:18557   */\n      0x00\n        /* \"#utility.yul\":18545:18554   */\n      dup4\n        /* \"#utility.yul\":18541:18558   */\n      add\n        /* \"#utility.yul\":18532:18538   */\n      dup7\n        /* \"#utility.yul\":18488:18559   */\n      tag_188\n      jump\t// in\n    tag_379:\n        /* \"#utility.yul\":18569:18641   */\n      tag_380\n        /* \"#utility.yul\":18637:18639   */\n      0x20\n        /* \"#utility.yul\":18626:18635   */\n      dup4\n        /* \"#utility.yul\":18622:18640   */\n      add\n        /* \"#utility.yul\":18613:18619   */\n      dup6\n        /* \"#utility.yul\":18569:18641   */\n      tag_163\n      jump\t// in\n    tag_380:\n        /* \"#utility.yul\":18651:18717   */\n      tag_381\n        /* \"#utility.yul\":18713:18715   */\n      0x40\n        /* \"#utility.yul\":18702:18711   */\n      dup4\n        /* \"#utility.yul\":18698:18716   */\n      add\n        /* \"#utility.yul\":18689:18695   */\n      dup5\n        /* \"#utility.yul\":18651:18717   */\n      tag_177\n      jump\t// in\n    tag_381:\n        /* \"#utility.yul\":18294:18724   */\n      swap5\n      swap4\n      pop\n      pop\n      pop\n      pop\n      jump\t// out\n        /* \"#utility.yul\":18730:19263   */\n    tag_143:\n        /* \"#utility.yul\":18899:18903   */\n      0x00\n        /* \"#utility.yul\":18937:18939   */\n      0x60\n        /* \"#utility.yul\":18926:18935   */\n      dup3\n        /* \"#utility.yul\":18922:18940   */\n      add\n        /* \"#utility.yul\":18914:18940   */\n      swap1\n      pop\n        /* \"#utility.yul\":18950:19021   */\n      tag_383\n        /* \"#utility.yul\":19018:19019   */\n      0x00\n        /* \"#utility.yul\":19007:19016   */\n      dup4\n        /* \"#utility.yul\":19003:19020   */\n      add\n        /* \"#utility.yul\":18994:19000   */\n      dup7\n        /* \"#utility.yul\":18950:19021   */\n      tag_188\n      jump\t// in\n    tag_383:\n        /* \"#utility.yul\":19068:19077   */\n      dup2\n        /* \"#utility.yul\":19062:19066   */\n      dup2\n        /* \"#utility.yul\":19058:19078   */\n      sub\n        /* \"#utility.yul\":19053:19055   */\n      0x20\n        /* \"#utility.yul\":19042:19051   */\n      dup4\n        /* \"#utility.yul\":19038:19056   */\n      add\n        /* \"#utility.yul\":19031:19079   */\n      mstore\n        /* \"#utility.yul\":19096:19174   */\n      tag_384\n        /* \"#utility.yul\":19169:19173   */\n      dup2\n        /* \"#utility.yul\":19160:19166   */\n      dup6\n        /* \"#utility.yul\":19096:19174   */\n      tag_176\n      jump\t// in\n    tag_384:\n        /* \"#utility.yul\":19088:19174   */\n      swap1\n      pop\n        /* \"#utility.yul\":19184:19256   */\n      tag_385\n        /* \"#utility.yul\":19252:19254   */\n      0x40\n        /* \"#utility.yul\":19241:19250   */\n      dup4\n        /* \"#utility.yul\":19237:19255   */\n      add\n        /* \"#utility.yul\":19228:19234   */\n      dup5\n        /* \"#utility.yul\":19184:19256   */\n      tag_163\n      jump\t// in\n    tag_385:\n        /* \"#utility.yul\":18730:19263   */\n      swap5\n      swap4\n      pop\n      pop\n      pop\n      pop\n      jump\t// out\n\n    auxdata: 0xa264697066735822122001add6615af6d531ac73b2eb59455425276dc9cbbd2c5b86222ea31dd2d4ad8a64736f6c634300080a0033\n}\n",
				"bytecode": {
					"linkReferences": {},
					"object": "60806040523480156200001157600080fd5b5060405162001b6838038062001b688339818101604052810190620000379190620000fc565b806000806101000a81548173ffffffffffffffffffffffffffffffffffffffff021916908373ffffffffffffffffffffffffffffffffffffffff160217905550506200012e565b600080fd5b600073ffffffffffffffffffffffffffffffffffffffff82169050919050565b6000620000b08262000083565b9050919050565b6000620000c482620000a3565b9050919050565b620000d681620000b7565b8114620000e257600080fd5b50565b600081519050620000f681620000cb565b92915050565b6000602082840312156200011557620001146200007e565b5b60006200012584828501620000e5565b91505092915050565b611a2a806200013e6000396000f3fe60806040526004361061009c5760003560e01c80637b9cd8c2116100645780637b9cd8c21461019d5780637daf06fd146101c8578063853828b6146101e4578063b540795b146101ee578063b6ec54de1461022f578063d5247dda146102585761009c565b806303147f39146100a15780630e60bfad146100de57806314204dbb1461011b5780634fb2d09d146101445780636f7bc9be14610160575b600080fd5b3480156100ad57600080fd5b506100c860048036038101906100c39190611050565b610295565b6040516100d59190611096565b60405180910390f35b3480156100ea57600080fd5b5061010560048036038101906101009190611050565b6102e1565b60405161011291906111ea565b60405180910390f35b34801561012757600080fd5b50610142600480360381019061013d9190611050565b61061b565b005b61015e60048036038101906101599190611050565b610766565b005b34801561016c57600080fd5b5061018760048036038101906101829190611050565b61093f565b6040516101949190611096565b60405180910390f35b3480156101a957600080fd5b506101b2610957565b6040516101bf9190611096565b60405180910390f35b6101e260048036038101906101dd9190611238565b61095f565b005b6101ec610b6a565b005b3480156101fa57600080fd5b5061021560048036038101906102109190611050565b610d24565b6040516102269594939291906112be565b60405180910390f35b34801561023b57600080fd5b506102566004803603810190610251919061144d565b610def565b005b34801561026457600080fd5b5061027f600480360381019061027a9190611050565b610eac565b60405161028c91906114bc565b60405180910390f35b6000600160008373ffffffffffffffffffffffffffffffffffffffff1673ffffffffffffffffffffffffffffffffffffffff168152602001908152602001600020600201549050919050565b6102e9610f0a565b600160008373ffffffffffffffffffffffffffffffffffffffff1673ffffffffffffffffffffffffffffffffffffffff1681526020019081526020016000206040518060a001604052908160008201805461034390611506565b80601f016020809104026020016040519081016040528092919081815260200182805461036f90611506565b80156103bc5780601f10610391576101008083540402835291602001916103bc565b820191906000526020600020905b81548152906001019060200180831161039f57829003601f168201915b505050505081526020016001820154815260200160028201548152602001600382015481526020016004820160009054906101000a900460ff1615151515815250509050600160008373ffffffffffffffffffffffffffffffffffffffff1673ffffffffffffffffffffffffffffffffffffffff168152602001908152602001600020600001805461044d90611506565b80601f016020809104026020016040519081016040528092919081815260200182805461047990611506565b80156104c65780601f1061049b576101008083540402835291602001916104c6565b820191906000526020600020905b8154815290600101906020018083116104a957829003601f168201915b50505050508160000181905250600160008373ffffffffffffffffffffffffffffffffffffffff1673ffffffffffffffffffffffffffffffffffffffff16815260200190815260200160002060010154816020018181525050600160008373ffffffffffffffffffffffffffffffffffffffff1673ffffffffffffffffffffffffffffffffffffffff16815260200190815260200160002060020154816040018181525050600160008373ffffffffffffffffffffffffffffffffffffffff1673ffffffffffffffffffffffffffffffffffffffff16815260200190815260200160002060030154816060018181525050600160008373ffffffffffffffffffffffffffffffffffffffff1673ffffffffffffffffffffffffffffffffffffffff16815260200190815260200160002060040160009054906101000a900460ff16816080019015159081151581525050919050565b6000600160008373ffffffffffffffffffffffffffffffffffffffff1673ffffffffffffffffffffffffffffffffffffffff168152602001908152602001600020905060008060009054906101000a900473ffffffffffffffffffffffffffffffffffffffff1673ffffffffffffffffffffffffffffffffffffffff1663e3a17b3b846040518263ffffffff1660e01b81526004016106ba9190611547565b602060405180830381865afa1580156106d7573d6000803e3d6000fd5b505050506040513d601f19601f820116820180604052508101906106fb919061158e565b90506001151581151514610744576040517f08c379a000000000000000000000000000000000000000000000000000000000815260040161073b9061162d565b60405180910390fd5b60018260040160006101000a81548160ff021916908315150217905550505050565b6000600160008373ffffffffffffffffffffffffffffffffffffffff1673ffffffffffffffffffffffffffffffffffffffff168152602001908152602001600020905060003414156107ed576040517f08c379a00000000000000000000000000000000000000000000000000000000081526004016107e490611699565b60405180910390fd5b600115158160040160009054906101000a900460ff16151514610845576040517f08c379a000000000000000000000000000000000000000000000000000000000815260040161083c9061172b565b60405180910390fd5b806001015481600201541061088f576040517f08c379a000000000000000000000000000000000000000000000000000000000815260040161088690611797565b60405180910390fd5b348160020160008282546108a391906117e6565b9250508190555034600260003373ffffffffffffffffffffffffffffffffffffffff1673ffffffffffffffffffffffffffffffffffffffff16815260200190815260200160002060008282546108f991906117e6565b925050819055507f386bc05a2408454571efe4cbeeabd68940d5a301c55f31319f2b6aef331fedfc3383346040516109339392919061183c565b60405180910390a15050565b60026020528060005260406000206000915090505481565b600047905090565b6000600160003373ffffffffffffffffffffffffffffffffffffffff1673ffffffffffffffffffffffffffffffffffffffff1681526020019081526020016000209050600115158160040160009054906101000a900460ff161515146109fa576040517f08c379a00000000000000000000000000000000000000000000000000000000081526004016109f1906118bf565b60405180910390fd5b806001015481600201541480610a135750806003015442115b610a52576040517f08c379a0000000000000000000000000000000000000000000000000000000008152600401610a499061192b565b60405180910390fd5b81816002016000828254610a66919061194b565b9250508190555081816001016000828254610a81919061194b565b925050819055503373ffffffffffffffffffffffffffffffffffffffff166108fc839081150290604051600060405180830381858888f19350505050158015610ace573d6000803e3d6000fd5b506000816002015414610afc5760018160040160006101000a81548160ff0219169083151502179055610b19565b60008160040160006101000a81548160ff02191690831515021790555b507fead5d35910f3e2d6b0422579a65a204ac86cdeb6a6c0436657a33a90d397fb5333838360040160009054906101000a900460ff16604051610b5e9392919061197f565b60405180910390a15050565b6000600160003373ffffffffffffffffffffffffffffffffffffffff1673ffffffffffffffffffffffffffffffffffffffff1681526020019081526020016000209050600115158160040160009054906101000a900460ff16151514610c05576040517f08c379a0000000000000000000000000000000000000000000000000000000008152600401610bfc906118bf565b60405180910390fd5b806001015481600201541480610c1e5750806003015442115b610c5d576040517f08c379a0000000000000000000000000000000000000000000000000000000008152600401610c549061192b565b60405180910390fd5b6000816002015490506000826002018190555060008260040160006101000a81548160ff0219169083151502179055503373ffffffffffffffffffffffffffffffffffffffff166108fc829081150290604051600060405180830381858888f19350505050158015610cd3573d6000803e3d6000fd5b507fead5d35910f3e2d6b0422579a65a204ac86cdeb6a6c0436657a33a90d397fb5333828460040160009054906101000a900460ff16604051610d189392919061197f565b60405180910390a15050565b6001602052806000526040600020600091509050806000018054610d4790611506565b80601f0160208091040260200160405190810160405280929190818152602001828054610d7390611506565b8015610dc05780601f10610d9557610100808354040283529160200191610dc0565b820191906000526020600020905b815481529060010190602001808311610da357829003601f168201915b5050505050908060010154908060020154908060030154908060040160009054906101000a900460ff16905085565b6000600160003373ffffffffffffffffffffffffffffffffffffffff1673ffffffffffffffffffffffffffffffffffffffff168152602001908152602001600020905082816001018190555083816000019080519060200190610e53929190610f3b565b506202a30082610e6391906117e6565b81600301819055507ff69a88136bb57871f0559f33e167c9cc90ed27fb806571f9bd595ccea4200082338585604051610e9e939291906119b6565b60405180910390a150505050565b600080600160008473ffffffffffffffffffffffffffffffffffffffff1673ffffffffffffffffffffffffffffffffffffffff16815260200190815260200160002090508060040160009054906101000a900460ff16915050919050565b6040518060a00160405280606081526020016000815260200160008152602001600081526020016000151581525090565b828054610f4790611506565b90600052602060002090601f016020900481019282610f695760008555610fb0565b82601f10610f8257805160ff1916838001178555610fb0565b82800160010185558215610fb0579182015b82811115610faf578251825591602001919060010190610f94565b5b509050610fbd9190610fc1565b5090565b5b80821115610fda576000816000905550600101610fc2565b5090565b6000604051905090565b600080fd5b600080fd5b600073ffffffffffffffffffffffffffffffffffffffff82169050919050565b600061101d82610ff2565b9050919050565b61102d81611012565b811461103857600080fd5b50565b60008135905061104a81611024565b92915050565b60006020828403121561106657611065610fe8565b5b60006110748482850161103b565b91505092915050565b6000819050919050565b6110908161107d565b82525050565b60006020820190506110ab6000830184611087565b92915050565b600081519050919050565b600082825260208201905092915050565b60005b838110156110eb5780820151818401526020810190506110d0565b838111156110fa576000848401525b50505050565b6000601f19601f8301169050919050565b600061111c826110b1565b61112681856110bc565b93506111368185602086016110cd565b61113f81611100565b840191505092915050565b6111538161107d565b82525050565b60008115159050919050565b61116e81611159565b82525050565b600060a08301600083015184820360008601526111918282611111565b91505060208301516111a6602086018261114a565b5060408301516111b9604086018261114a565b5060608301516111cc606086018261114a565b5060808301516111df6080860182611165565b508091505092915050565b600060208201905081810360008301526112048184611174565b905092915050565b6112158161107d565b811461122057600080fd5b50565b6000813590506112328161120c565b92915050565b60006020828403121561124e5761124d610fe8565b5b600061125c84828501611223565b91505092915050565b600082825260208201905092915050565b6000611281826110b1565b61128b8185611265565b935061129b8185602086016110cd565b6112a481611100565b840191505092915050565b6112b881611159565b82525050565b600060a08201905081810360008301526112d88188611276565b90506112e76020830187611087565b6112f46040830186611087565b6113016060830185611087565b61130e60808301846112af565b9695505050505050565b600080fd5b600080fd5b7f4e487b7100000000000000000000000000000000000000000000000000000000600052604160045260246000fd5b61135a82611100565b810181811067ffffffffffffffff8211171561137957611378611322565b5b80604052505050565b600061138c610fde565b90506113988282611351565b919050565b600067ffffffffffffffff8211156113b8576113b7611322565b5b6113c182611100565b9050602081019050919050565b82818337600083830152505050565b60006113f06113eb8461139d565b611382565b90508281526020810184848401111561140c5761140b61131d565b5b6114178482856113ce565b509392505050565b600082601f83011261143457611433611318565b5b81356114448482602086016113dd565b91505092915050565b60008060006060848603121561146657611465610fe8565b5b600084013567ffffffffffffffff81111561148457611483610fed565b5b6114908682870161141f565b93505060206114a186828701611223565b92505060406114b286828701611223565b9150509250925092565b60006020820190506114d160008301846112af565b92915050565b7f4e487b7100000000000000000000000000000000000000000000000000000000600052602260045260246000fd5b6000600282049050600182168061151e57607f821691505b60208210811415611532576115316114d7565b5b50919050565b61154181611012565b82525050565b600060208201905061155c6000830184611538565b92915050565b61156b81611159565b811461157657600080fd5b50565b60008151905061158881611562565b92915050565b6000602082840312156115a4576115a3610fe8565b5b60006115b284828501611579565b91505092915050565b7f766f746520666f72207468697320726571756573742069732079657420746f2060008201527f7061737300000000000000000000000000000000000000000000000000000000602082015250565b6000611617602483611265565b9150611622826115bb565b604082019050919050565b600060208201905081810360008301526116468161160a565b9050919050565b7f796f752063616e2774207472616e7366657220302076616c7565000000000000600082015250565b6000611683601a83611265565b915061168e8261164d565b602082019050919050565b600060208201905081810360008301526116b281611676565b9050919050565b7f746869732070726f706f73616c206e6f7420617661696c61626c6520666f722060008201527f646f6e6174696f6e000000000000000000000000000000000000000000000000602082015250565b6000611715602883611265565b9150611720826116b9565b604082019050919050565b6000602082019050818103600083015261174481611708565b9050919050565b7f74617267657420726561636865616420666f7220746869732066756e64000000600082015250565b6000611781601d83611265565b915061178c8261174b565b602082019050919050565b600060208201905081810360008301526117b081611774565b9050919050565b7f4e487b7100000000000000000000000000000000000000000000000000000000600052601160045260246000fd5b60006117f18261107d565b91506117fc8361107d565b9250827fffffffffffffffffffffffffffffffffffffffffffffffffffffffffffffffff03821115611831576118306117b7565b5b828201905092915050565b60006060820190506118516000830186611538565b61185e6020830185611538565b61186b6040830184611087565b949350505050565b7f70726f706f73616c20686173206e6f74206265656e20617070726f7665640000600082015250565b60006118a9601e83611265565b91506118b482611873565b602082019050919050565b600060208201905081810360008301526118d88161189c565b9050919050565b7f46756e64732079657420746f206d617475726500000000000000000000000000600082015250565b6000611915601383611265565b9150611920826118df565b602082019050919050565b6000602082019050818103600083015261194481611908565b9050919050565b60006119568261107d565b91506119618361107d565b925082821015611974576119736117b7565b5b828203905092915050565b60006060820190506119946000830186611538565b6119a16020830185611087565b6119ae60408301846112af565b949350505050565b60006060820190506119cb6000830186611538565b81810360208301526119dd8185611276565b90506119ec6040830184611087565b94935050505056fea264697066735822122001add6615af6d531ac73b2eb59455425276dc9cbbd2c5b86222ea31dd2d4ad8a64736f6c634300080a0033",
					"opcodes": "PUSH1 0x80 PUSH1 0x40 MSTORE CALLVALUE DUP1 ISZERO PUSH3 0x11 JUMPI PUSH1 0x0 DUP1 REVERT JUMPDEST POP PUSH1 0x40 MLOAD PUSH3 0x1B68 CODESIZE SUB DUP1 PUSH3 0x1B68 DUP4 CODECOPY DUP2 DUP2 ADD PUSH1 0x40 MSTORE DUP2 ADD SWAP1 PUSH3 0x37 SWAP2 SWAP1 PUSH3 0xFC JUMP JUMPDEST DUP1 PUSH1 0x0 DUP1 PUSH2 0x100 EXP DUP2 SLOAD DUP2 PUSH20 0xFFFFFFFFFFFFFFFFFFFFFFFFFFFFFFFFFFFFFFFF MUL NOT AND SWAP1 DUP4 PUSH20 0xFFFFFFFFFFFFFFFFFFFFFFFFFFFFFFFFFFFFFFFF AND MUL OR SWAP1 SSTORE POP POP PUSH3 0x12E JUMP JUMPDEST PUSH1 0x0 DUP1 REVERT JUMPDEST PUSH1 0x0 PUSH20 0xFFFFFFFFFFFFFFFFFFFFFFFFFFFFFFFFFFFFFFFF DUP3 AND SWAP1 POP SWAP2 SWAP1 POP JUMP JUMPDEST PUSH1 0x0 PUSH3 0xB0 DUP3 PUSH3 0x83 JUMP JUMPDEST SWAP1 POP SWAP2 SWAP1 POP JUMP JUMPDEST PUSH1 0x0 PUSH3 0xC4 DUP3 PUSH3 0xA3 JUMP JUMPDEST SWAP1 POP SWAP2 SWAP1 POP JUMP JUMPDEST PUSH3 0xD6 DUP2 PUSH3 0xB7 JUMP JUMPDEST DUP2 EQ PUSH3 0xE2 JUMPI PUSH1 0x0 DUP1 REVERT JUMPDEST POP JUMP JUMPDEST PUSH1 0x0 DUP2 MLOAD SWAP1 POP PUSH3 0xF6 DUP2 PUSH3 0xCB JUMP JUMPDEST SWAP3 SWAP2 POP POP JUMP JUMPDEST PUSH1 0x0 PUSH1 0x20 DUP3 DUP5 SUB SLT ISZERO PUSH3 0x115 JUMPI PUSH3 0x114 PUSH3 0x7E JUMP JUMPDEST JUMPDEST PUSH1 0x0 PUSH3 0x125 DUP5 DUP3 DUP6 ADD PUSH3 0xE5 JUMP JUMPDEST SWAP2 POP POP SWAP3 SWAP2 POP POP JUMP JUMPDEST PUSH2 0x1A2A DUP1 PUSH3 0x13E PUSH1 0x0 CODECOPY PUSH1 0x0 RETURN INVALID PUSH1 0x80 PUSH1 0x40 MSTORE PUSH1 0x4 CALLDATASIZE LT PUSH2 0x9C JUMPI PUSH1 0x0 CALLDATALOAD PUSH1 0xE0 SHR DUP1 PUSH4 0x7B9CD8C2 GT PUSH2 0x64 JUMPI DUP1 PUSH4 0x7B9CD8C2 EQ PUSH2 0x19D JUMPI DUP1 PUSH4 0x7DAF06FD EQ PUSH2 0x1C8 JUMPI DUP1 PUSH4 0x853828B6 EQ PUSH2 0x1E4 JUMPI DUP1 PUSH4 0xB540795B EQ PUSH2 0x1EE JUMPI DUP1 PUSH4 0xB6EC54DE EQ PUSH2 0x22F JUMPI DUP1 PUSH4 0xD5247DDA EQ PUSH2 0x258 JUMPI PUSH2 0x9C JUMP JUMPDEST DUP1 PUSH4 0x3147F39 EQ PUSH2 0xA1 JUMPI DUP1 PUSH4 0xE60BFAD EQ PUSH2 0xDE JUMPI DUP1 PUSH4 0x14204DBB EQ PUSH2 0x11B JUMPI DUP1 PUSH4 0x4FB2D09D EQ PUSH2 0x144 JUMPI DUP1 PUSH4 0x6F7BC9BE EQ PUSH2 0x160 JUMPI JUMPDEST PUSH1 0x0 DUP1 REVERT JUMPDEST CALLVALUE DUP1 ISZERO PUSH2 0xAD JUMPI PUSH1 0x0 DUP1 REVERT JUMPDEST POP PUSH2 0xC8 PUSH1 0x4 DUP1 CALLDATASIZE SUB DUP2 ADD SWAP1 PUSH2 0xC3 SWAP2 SWAP1 PUSH2 0x1050 JUMP JUMPDEST PUSH2 0x295 JUMP JUMPDEST PUSH1 0x40 MLOAD PUSH2 0xD5 SWAP2 SWAP1 PUSH2 0x1096 JUMP JUMPDEST PUSH1 0x40 MLOAD DUP1 SWAP2 SUB SWAP1 RETURN JUMPDEST CALLVALUE DUP1 ISZERO PUSH2 0xEA JUMPI PUSH1 0x0 DUP1 REVERT JUMPDEST POP PUSH2 0x105 PUSH1 0x4 DUP1 CALLDATASIZE SUB DUP2 ADD SWAP1 PUSH2 0x100 SWAP2 SWAP1 PUSH2 0x1050 JUMP JUMPDEST PUSH2 0x2E1 JUMP JUMPDEST PUSH1 0x40 MLOAD PUSH2 0x112 SWAP2 SWAP1 PUSH2 0x11EA JUMP JUMPDEST PUSH1 0x40 MLOAD DUP1 SWAP2 SUB SWAP1 RETURN JUMPDEST CALLVALUE DUP1 ISZERO PUSH2 0x127 JUMPI PUSH1 0x0 DUP1 REVERT JUMPDEST POP PUSH2 0x142 PUSH1 0x4 DUP1 CALLDATASIZE SUB DUP2 ADD SWAP1 PUSH2 0x13D SWAP2 SWAP1 PUSH2 0x1050 JUMP JUMPDEST PUSH2 0x61B JUMP JUMPDEST STOP JUMPDEST PUSH2 0x15E PUSH1 0x4 DUP1 CALLDATASIZE SUB DUP2 ADD SWAP1 PUSH2 0x159 SWAP2 SWAP1 PUSH2 0x1050 JUMP JUMPDEST PUSH2 0x766 JUMP JUMPDEST STOP JUMPDEST CALLVALUE DUP1 ISZERO PUSH2 0x16C JUMPI PUSH1 0x0 DUP1 REVERT JUMPDEST POP PUSH2 0x187 PUSH1 0x4 DUP1 CALLDATASIZE SUB DUP2 ADD SWAP1 PUSH2 0x182 SWAP2 SWAP1 PUSH2 0x1050 JUMP JUMPDEST PUSH2 0x93F JUMP JUMPDEST PUSH1 0x40 MLOAD PUSH2 0x194 SWAP2 SWAP1 PUSH2 0x1096 JUMP JUMPDEST PUSH1 0x40 MLOAD DUP1 SWAP2 SUB SWAP1 RETURN JUMPDEST CALLVALUE DUP1 ISZERO PUSH2 0x1A9 JUMPI PUSH1 0x0 DUP1 REVERT JUMPDEST POP PUSH2 0x1B2 PUSH2 0x957 JUMP JUMPDEST PUSH1 0x40 MLOAD PUSH2 0x1BF SWAP2 SWAP1 PUSH2 0x1096 JUMP JUMPDEST PUSH1 0x40 MLOAD DUP1 SWAP2 SUB SWAP1 RETURN JUMPDEST PUSH2 0x1E2 PUSH1 0x4 DUP1 CALLDATASIZE SUB DUP2 ADD SWAP1 PUSH2 0x1DD SWAP2 SWAP1 PUSH2 0x1238 JUMP JUMPDEST PUSH2 0x95F JUMP JUMPDEST STOP JUMPDEST PUSH2 0x1EC PUSH2 0xB6A JUMP JUMPDEST STOP JUMPDEST CALLVALUE DUP1 ISZERO PUSH2 0x1FA JUMPI PUSH1 0x0 DUP1 REVERT JUMPDEST POP PUSH2 0x215 PUSH1 0x4 DUP1 CALLDATASIZE SUB DUP2 ADD SWAP1 PUSH2 0x210 SWAP2 SWAP1 PUSH2 0x1050 JUMP JUMPDEST PUSH2 0xD24 JUMP JUMPDEST PUSH1 0x40 MLOAD PUSH2 0x226 SWAP6 SWAP5 SWAP4 SWAP3 SWAP2 SWAP1 PUSH2 0x12BE JUMP JUMPDEST PUSH1 0x40 MLOAD DUP1 SWAP2 SUB SWAP1 RETURN JUMPDEST CALLVALUE DUP1 ISZERO PUSH2 0x23B JUMPI PUSH1 0x0 DUP1 REVERT JUMPDEST POP PUSH2 0x256 PUSH1 0x4 DUP1 CALLDATASIZE SUB DUP2 ADD SWAP1 PUSH2 0x251 SWAP2 SWAP1 PUSH2 0x144D JUMP JUMPDEST PUSH2 0xDEF JUMP JUMPDEST STOP JUMPDEST CALLVALUE DUP1 ISZERO PUSH2 0x264 JUMPI PUSH1 0x0 DUP1 REVERT JUMPDEST POP PUSH2 0x27F PUSH1 0x4 DUP1 CALLDATASIZE SUB DUP2 ADD SWAP1 PUSH2 0x27A SWAP2 SWAP1 PUSH2 0x1050 JUMP JUMPDEST PUSH2 0xEAC JUMP JUMPDEST PUSH1 0x40 MLOAD PUSH2 0x28C SWAP2 SWAP1 PUSH2 0x14BC JUMP JUMPDEST PUSH1 0x40 MLOAD DUP1 SWAP2 SUB SWAP1 RETURN JUMPDEST PUSH1 0x0 PUSH1 0x1 PUSH1 0x0 DUP4 PUSH20 0xFFFFFFFFFFFFFFFFFFFFFFFFFFFFFFFFFFFFFFFF AND PUSH20 0xFFFFFFFFFFFFFFFFFFFFFFFFFFFFFFFFFFFFFFFF AND DUP2 MSTORE PUSH1 0x20 ADD SWAP1 DUP2 MSTORE PUSH1 0x20 ADD PUSH1 0x0 KECCAK256 PUSH1 0x2 ADD SLOAD SWAP1 POP SWAP2 SWAP1 POP JUMP JUMPDEST PUSH2 0x2E9 PUSH2 0xF0A JUMP JUMPDEST PUSH1 0x1 PUSH1 0x0 DUP4 PUSH20 0xFFFFFFFFFFFFFFFFFFFFFFFFFFFFFFFFFFFFFFFF AND PUSH20 0xFFFFFFFFFFFFFFFFFFFFFFFFFFFFFFFFFFFFFFFF AND DUP2 MSTORE PUSH1 0x20 ADD SWAP1 DUP2 MSTORE PUSH1 0x20 ADD PUSH1 0x0 KECCAK256 PUSH1 0x40 MLOAD DUP1 PUSH1 0xA0 ADD PUSH1 0x40 MSTORE SWAP1 DUP2 PUSH1 0x0 DUP3 ADD DUP1 SLOAD PUSH2 0x343 SWAP1 PUSH2 0x1506 JUMP JUMPDEST DUP1 PUSH1 0x1F ADD PUSH1 0x20 DUP1 SWAP2 DIV MUL PUSH1 0x20 ADD PUSH1 0x40 MLOAD SWAP1 DUP2 ADD PUSH1 0x40 MSTORE DUP1 SWAP3 SWAP2 SWAP1 DUP2 DUP2 MSTORE PUSH1 0x20 ADD DUP3 DUP1 SLOAD PUSH2 0x36F SWAP1 PUSH2 0x1506 JUMP JUMPDEST DUP1 ISZERO PUSH2 0x3BC JUMPI DUP1 PUSH1 0x1F LT PUSH2 0x391 JUMPI PUSH2 0x100 DUP1 DUP4 SLOAD DIV MUL DUP4 MSTORE SWAP2 PUSH1 0x20 ADD SWAP2 PUSH2 0x3BC JUMP JUMPDEST DUP3 ADD SWAP2 SWAP1 PUSH1 0x0 MSTORE PUSH1 0x20 PUSH1 0x0 KECCAK256 SWAP1 JUMPDEST DUP2 SLOAD DUP2 MSTORE SWAP1 PUSH1 0x1 ADD SWAP1 PUSH1 0x20 ADD DUP1 DUP4 GT PUSH2 0x39F JUMPI DUP3 SWAP1 SUB PUSH1 0x1F AND DUP3 ADD SWAP2 JUMPDEST POP POP POP POP POP DUP2 MSTORE PUSH1 0x20 ADD PUSH1 0x1 DUP3 ADD SLOAD DUP2 MSTORE PUSH1 0x20 ADD PUSH1 0x2 DUP3 ADD SLOAD DUP2 MSTORE PUSH1 0x20 ADD PUSH1 0x3 DUP3 ADD SLOAD DUP2 MSTORE PUSH1 0x20 ADD PUSH1 0x4 DUP3 ADD PUSH1 0x0 SWAP1 SLOAD SWAP1 PUSH2 0x100 EXP SWAP1 DIV PUSH1 0xFF AND ISZERO ISZERO ISZERO ISZERO DUP2 MSTORE POP POP SWAP1 POP PUSH1 0x1 PUSH1 0x0 DUP4 PUSH20 0xFFFFFFFFFFFFFFFFFFFFFFFFFFFFFFFFFFFFFFFF AND PUSH20 0xFFFFFFFFFFFFFFFFFFFFFFFFFFFFFFFFFFFFFFFF AND DUP2 MSTORE PUSH1 0x20 ADD SWAP1 DUP2 MSTORE PUSH1 0x20 ADD PUSH1 0x0 KECCAK256 PUSH1 0x0 ADD DUP1 SLOAD PUSH2 0x44D SWAP1 PUSH2 0x1506 JUMP JUMPDEST DUP1 PUSH1 0x1F ADD PUSH1 0x20 DUP1 SWAP2 DIV MUL PUSH1 0x20 ADD PUSH1 0x40 MLOAD SWAP1 DUP2 ADD PUSH1 0x40 MSTORE DUP1 SWAP3 SWAP2 SWAP1 DUP2 DUP2 MSTORE PUSH1 0x20 ADD DUP3 DUP1 SLOAD PUSH2 0x479 SWAP1 PUSH2 0x1506 JUMP JUMPDEST DUP1 ISZERO PUSH2 0x4C6 JUMPI DUP1 PUSH1 0x1F LT PUSH2 0x49B JUMPI PUSH2 0x100 DUP1 DUP4 SLOAD DIV MUL DUP4 MSTORE SWAP2 PUSH1 0x20 ADD SWAP2 PUSH2 0x4C6 JUMP JUMPDEST DUP3 ADD SWAP2 SWAP1 PUSH1 0x0 MSTORE PUSH1 0x20 PUSH1 0x0 KECCAK256 SWAP1 JUMPDEST DUP2 SLOAD DUP2 MSTORE SWAP1 PUSH1 0x1 ADD SWAP1 PUSH1 0x20 ADD DUP1 DUP4 GT PUSH2 0x4A9 JUMPI DUP3 SWAP1 SUB PUSH1 0x1F AND DUP3 ADD SWAP2 JUMPDEST POP POP POP POP POP DUP2 PUSH1 0x0 ADD DUP2 SWAP1 MSTORE POP PUSH1 0x1 PUSH1 0x0 DUP4 PUSH20 0xFFFFFFFFFFFFFFFFFFFFFFFFFFFFFFFFFFFFFFFF AND PUSH20 0xFFFFFFFFFFFFFFFFFFFFFFFFFFFFFFFFFFFFFFFF AND DUP2 MSTORE PUSH1 0x20 ADD SWAP1 DUP2 MSTORE PUSH1 0x20 ADD PUSH1 0x0 KECCAK256 PUSH1 0x1 ADD SLOAD DUP2 PUSH1 0x20 ADD DUP2 DUP2 MSTORE POP POP PUSH1 0x1 PUSH1 0x0 DUP4 PUSH20 0xFFFFFFFFFFFFFFFFFFFFFFFFFFFFFFFFFFFFFFFF AND PUSH20 0xFFFFFFFFFFFFFFFFFFFFFFFFFFFFFFFFFFFFFFFF AND DUP2 MSTORE PUSH1 0x20 ADD SWAP1 DUP2 MSTORE PUSH1 0x20 ADD PUSH1 0x0 KECCAK256 PUSH1 0x2 ADD SLOAD DUP2 PUSH1 0x40 ADD DUP2 DUP2 MSTORE POP POP PUSH1 0x1 PUSH1 0x0 DUP4 PUSH20 0xFFFFFFFFFFFFFFFFFFFFFFFFFFFFFFFFFFFFFFFF AND PUSH20 0xFFFFFFFFFFFFFFFFFFFFFFFFFFFFFFFFFFFFFFFF AND DUP2 MSTORE PUSH1 0x20 ADD SWAP1 DUP2 MSTORE PUSH1 0x20 ADD PUSH1 0x0 KECCAK256 PUSH1 0x3 ADD SLOAD DUP2 PUSH1 0x60 ADD DUP2 DUP2 MSTORE POP POP PUSH1 0x1 PUSH1 0x0 DUP4 PUSH20 0xFFFFFFFFFFFFFFFFFFFFFFFFFFFFFFFFFFFFFFFF AND PUSH20 0xFFFFFFFFFFFFFFFFFFFFFFFFFFFFFFFFFFFFFFFF AND DUP2 MSTORE PUSH1 0x20 ADD SWAP1 DUP2 MSTORE PUSH1 0x20 ADD PUSH1 0x0 KECCAK256 PUSH1 0x4 ADD PUSH1 0x0 SWAP1 SLOAD SWAP1 PUSH2 0x100 EXP SWAP1 DIV PUSH1 0xFF AND DUP2 PUSH1 0x80 ADD SWAP1 ISZERO ISZERO SWAP1 DUP2 ISZERO ISZERO DUP2 MSTORE POP POP SWAP2 SWAP1 POP JUMP JUMPDEST PUSH1 0x0 PUSH1 0x1 PUSH1 0x0 DUP4 PUSH20 0xFFFFFFFFFFFFFFFFFFFFFFFFFFFFFFFFFFFFFFFF AND PUSH20 0xFFFFFFFFFFFFFFFFFFFFFFFFFFFFFFFFFFFFFFFF AND DUP2 MSTORE PUSH1 0x20 ADD SWAP1 DUP2 MSTORE PUSH1 0x20 ADD PUSH1 0x0 KECCAK256 SWAP1 POP PUSH1 0x0 DUP1 PUSH1 0x0 SWAP1 SLOAD SWAP1 PUSH2 0x100 EXP SWAP1 DIV PUSH20 0xFFFFFFFFFFFFFFFFFFFFFFFFFFFFFFFFFFFFFFFF AND PUSH20 0xFFFFFFFFFFFFFFFFFFFFFFFFFFFFFFFFFFFFFFFF AND PUSH4 0xE3A17B3B DUP5 PUSH1 0x40 MLOAD DUP3 PUSH4 0xFFFFFFFF AND PUSH1 0xE0 SHL DUP2 MSTORE PUSH1 0x4 ADD PUSH2 0x6BA SWAP2 SWAP1 PUSH2 0x1547 JUMP JUMPDEST PUSH1 0x20 PUSH1 0x40 MLOAD DUP1 DUP4 SUB DUP2 DUP7 GAS STATICCALL ISZERO DUP1 ISZERO PUSH2 0x6D7 JUMPI RETURNDATASIZE PUSH1 0x0 DUP1 RETURNDATACOPY RETURNDATASIZE PUSH1 0x0 REVERT JUMPDEST POP POP POP POP PUSH1 0x40 MLOAD RETURNDATASIZE PUSH1 0x1F NOT PUSH1 0x1F DUP3 ADD AND DUP3 ADD DUP1 PUSH1 0x40 MSTORE POP DUP2 ADD SWAP1 PUSH2 0x6FB SWAP2 SWAP1 PUSH2 0x158E JUMP JUMPDEST SWAP1 POP PUSH1 0x1 ISZERO ISZERO DUP2 ISZERO ISZERO EQ PUSH2 0x744 JUMPI PUSH1 0x40 MLOAD PUSH32 0x8C379A000000000000000000000000000000000000000000000000000000000 DUP2 MSTORE PUSH1 0x4 ADD PUSH2 0x73B SWAP1 PUSH2 0x162D JUMP JUMPDEST PUSH1 0x40 MLOAD DUP1 SWAP2 SUB SWAP1 REVERT JUMPDEST PUSH1 0x1 DUP3 PUSH1 0x4 ADD PUSH1 0x0 PUSH2 0x100 EXP DUP2 SLOAD DUP2 PUSH1 0xFF MUL NOT AND SWAP1 DUP4 ISZERO ISZERO MUL OR SWAP1 SSTORE POP POP POP POP JUMP JUMPDEST PUSH1 0x0 PUSH1 0x1 PUSH1 0x0 DUP4 PUSH20 0xFFFFFFFFFFFFFFFFFFFFFFFFFFFFFFFFFFFFFFFF AND PUSH20 0xFFFFFFFFFFFFFFFFFFFFFFFFFFFFFFFFFFFFFFFF AND DUP2 MSTORE PUSH1 0x20 ADD SWAP1 DUP2 MSTORE PUSH1 0x20 ADD PUSH1 0x0 KECCAK256 SWAP1 POP PUSH1 0x0 CALLVALUE EQ ISZERO PUSH2 0x7ED JUMPI PUSH1 0x40 MLOAD PUSH32 0x8C379A000000000000000000000000000000000000000000000000000000000 DUP2 MSTORE PUSH1 0x4 ADD PUSH2 0x7E4 SWAP1 PUSH2 0x1699 JUMP JUMPDEST PUSH1 0x40 MLOAD DUP1 SWAP2 SUB SWAP1 REVERT JUMPDEST PUSH1 0x1 ISZERO ISZERO DUP2 PUSH1 0x4 ADD PUSH1 0x0 SWAP1 SLOAD SWAP1 PUSH2 0x100 EXP SWAP1 DIV PUSH1 0xFF AND ISZERO ISZERO EQ PUSH2 0x845 JUMPI PUSH1 0x40 MLOAD PUSH32 0x8C379A000000000000000000000000000000000000000000000000000000000 DUP2 MSTORE PUSH1 0x4 ADD PUSH2 0x83C SWAP1 PUSH2 0x172B JUMP JUMPDEST PUSH1 0x40 MLOAD DUP1 SWAP2 SUB SWAP1 REVERT JUMPDEST DUP1 PUSH1 0x1 ADD SLOAD DUP2 PUSH1 0x2 ADD SLOAD LT PUSH2 0x88F JUMPI PUSH1 0x40 MLOAD PUSH32 0x8C379A000000000000000000000000000000000000000000000000000000000 DUP2 MSTORE PUSH1 0x4 ADD PUSH2 0x886 SWAP1 PUSH2 0x1797 JUMP JUMPDEST PUSH1 0x40 MLOAD DUP1 SWAP2 SUB SWAP1 REVERT JUMPDEST CALLVALUE DUP2 PUSH1 0x2 ADD PUSH1 0x0 DUP3 DUP3 SLOAD PUSH2 0x8A3 SWAP2 SWAP1 PUSH2 0x17E6 JUMP JUMPDEST SWAP3 POP POP DUP2 SWAP1 SSTORE POP CALLVALUE PUSH1 0x2 PUSH1 0x0 CALLER PUSH20 0xFFFFFFFFFFFFFFFFFFFFFFFFFFFFFFFFFFFFFFFF AND PUSH20 0xFFFFFFFFFFFFFFFFFFFFFFFFFFFFFFFFFFFFFFFF AND DUP2 MSTORE PUSH1 0x20 ADD SWAP1 DUP2 MSTORE PUSH1 0x20 ADD PUSH1 0x0 KECCAK256 PUSH1 0x0 DUP3 DUP3 SLOAD PUSH2 0x8F9 SWAP2 SWAP1 PUSH2 0x17E6 JUMP JUMPDEST SWAP3 POP POP DUP2 SWAP1 SSTORE POP PUSH32 0x386BC05A2408454571EFE4CBEEABD68940D5A301C55F31319F2B6AEF331FEDFC CALLER DUP4 CALLVALUE PUSH1 0x40 MLOAD PUSH2 0x933 SWAP4 SWAP3 SWAP2 SWAP1 PUSH2 0x183C JUMP JUMPDEST PUSH1 0x40 MLOAD DUP1 SWAP2 SUB SWAP1 LOG1 POP POP JUMP JUMPDEST PUSH1 0x2 PUSH1 0x20 MSTORE DUP1 PUSH1 0x0 MSTORE PUSH1 0x40 PUSH1 0x0 KECCAK256 PUSH1 0x0 SWAP2 POP SWAP1 POP SLOAD DUP2 JUMP JUMPDEST PUSH1 0x0 SELFBALANCE SWAP1 POP SWAP1 JUMP JUMPDEST PUSH1 0x0 PUSH1 0x1 PUSH1 0x0 CALLER PUSH20 0xFFFFFFFFFFFFFFFFFFFFFFFFFFFFFFFFFFFFFFFF AND PUSH20 0xFFFFFFFFFFFFFFFFFFFFFFFFFFFFFFFFFFFFFFFF AND DUP2 MSTORE PUSH1 0x20 ADD SWAP1 DUP2 MSTORE PUSH1 0x20 ADD PUSH1 0x0 KECCAK256 SWAP1 POP PUSH1 0x1 ISZERO ISZERO DUP2 PUSH1 0x4 ADD PUSH1 0x0 SWAP1 SLOAD SWAP1 PUSH2 0x100 EXP SWAP1 DIV PUSH1 0xFF AND ISZERO ISZERO EQ PUSH2 0x9FA JUMPI PUSH1 0x40 MLOAD PUSH32 0x8C379A000000000000000000000000000000000000000000000000000000000 DUP2 MSTORE PUSH1 0x4 ADD PUSH2 0x9F1 SWAP1 PUSH2 0x18BF JUMP JUMPDEST PUSH1 0x40 MLOAD DUP1 SWAP2 SUB SWAP1 REVERT JUMPDEST DUP1 PUSH1 0x1 ADD SLOAD DUP2 PUSH1 0x2 ADD SLOAD EQ DUP1 PUSH2 0xA13 JUMPI POP DUP1 PUSH1 0x3 ADD SLOAD TIMESTAMP GT JUMPDEST PUSH2 0xA52 JUMPI PUSH1 0x40 MLOAD PUSH32 0x8C379A000000000000000000000000000000000000000000000000000000000 DUP2 MSTORE PUSH1 0x4 ADD PUSH2 0xA49 SWAP1 PUSH2 0x192B JUMP JUMPDEST PUSH1 0x40 MLOAD DUP1 SWAP2 SUB SWAP1 REVERT JUMPDEST DUP2 DUP2 PUSH1 0x2 ADD PUSH1 0x0 DUP3 DUP3 SLOAD PUSH2 0xA66 SWAP2 SWAP1 PUSH2 0x194B JUMP JUMPDEST SWAP3 POP POP DUP2 SWAP1 SSTORE POP DUP2 DUP2 PUSH1 0x1 ADD PUSH1 0x0 DUP3 DUP3 SLOAD PUSH2 0xA81 SWAP2 SWAP1 PUSH2 0x194B JUMP JUMPDEST SWAP3 POP POP DUP2 SWAP1 SSTORE POP CALLER PUSH20 0xFFFFFFFFFFFFFFFFFFFFFFFFFFFFFFFFFFFFFFFF AND PUSH2 0x8FC DUP4 SWAP1 DUP2 ISZERO MUL SWAP1 PUSH1 0x40 MLOAD PUSH1 0x0 PUSH1 0x40 MLOAD DUP1 DUP4 SUB DUP2 DUP6 DUP9 DUP9 CALL SWAP4 POP POP POP POP ISZERO DUP1 ISZERO PUSH2 0xACE JUMPI RETURNDATASIZE PUSH1 0x0 DUP1 RETURNDATACOPY RETURNDATASIZE PUSH1 0x0 REVERT JUMPDEST POP PUSH1 0x0 DUP2 PUSH1 0x2 ADD SLOAD EQ PUSH2 0xAFC JUMPI PUSH1 0x1 DUP2 PUSH1 0x4 ADD PUSH1 0x0 PUSH2 0x100 EXP DUP2 SLOAD DUP2 PUSH1 0xFF MUL NOT AND SWAP1 DUP4 ISZERO ISZERO MUL OR SWAP1 SSTORE PUSH2 0xB19 JUMP JUMPDEST PUSH1 0x0 DUP2 PUSH1 0x4 ADD PUSH1 0x0 PUSH2 0x100 EXP DUP2 SLOAD DUP2 PUSH1 0xFF MUL NOT AND SWAP1 DUP4 ISZERO ISZERO MUL OR SWAP1 SSTORE JUMPDEST POP PUSH32 0xEAD5D35910F3E2D6B0422579A65A204AC86CDEB6A6C0436657A33A90D397FB53 CALLER DUP4 DUP4 PUSH1 0x4 ADD PUSH1 0x0 SWAP1 SLOAD SWAP1 PUSH2 0x100 EXP SWAP1 DIV PUSH1 0xFF AND PUSH1 0x40 MLOAD PUSH2 0xB5E SWAP4 SWAP3 SWAP2 SWAP1 PUSH2 0x197F JUMP JUMPDEST PUSH1 0x40 MLOAD DUP1 SWAP2 SUB SWAP1 LOG1 POP POP JUMP JUMPDEST PUSH1 0x0 PUSH1 0x1 PUSH1 0x0 CALLER PUSH20 0xFFFFFFFFFFFFFFFFFFFFFFFFFFFFFFFFFFFFFFFF AND PUSH20 0xFFFFFFFFFFFFFFFFFFFFFFFFFFFFFFFFFFFFFFFF AND DUP2 MSTORE PUSH1 0x20 ADD SWAP1 DUP2 MSTORE PUSH1 0x20 ADD PUSH1 0x0 KECCAK256 SWAP1 POP PUSH1 0x1 ISZERO ISZERO DUP2 PUSH1 0x4 ADD PUSH1 0x0 SWAP1 SLOAD SWAP1 PUSH2 0x100 EXP SWAP1 DIV PUSH1 0xFF AND ISZERO ISZERO EQ PUSH2 0xC05 JUMPI PUSH1 0x40 MLOAD PUSH32 0x8C379A000000000000000000000000000000000000000000000000000000000 DUP2 MSTORE PUSH1 0x4 ADD PUSH2 0xBFC SWAP1 PUSH2 0x18BF JUMP JUMPDEST PUSH1 0x40 MLOAD DUP1 SWAP2 SUB SWAP1 REVERT JUMPDEST DUP1 PUSH1 0x1 ADD SLOAD DUP2 PUSH1 0x2 ADD SLOAD EQ DUP1 PUSH2 0xC1E JUMPI POP DUP1 PUSH1 0x3 ADD SLOAD TIMESTAMP GT JUMPDEST PUSH2 0xC5D JUMPI PUSH1 0x40 MLOAD PUSH32 0x8C379A000000000000000000000000000000000000000000000000000000000 DUP2 MSTORE PUSH1 0x4 ADD PUSH2 0xC54 SWAP1 PUSH2 0x192B JUMP JUMPDEST PUSH1 0x40 MLOAD DUP1 SWAP2 SUB SWAP1 REVERT JUMPDEST PUSH1 0x0 DUP2 PUSH1 0x2 ADD SLOAD SWAP1 POP PUSH1 0x0 DUP3 PUSH1 0x2 ADD DUP2 SWAP1 SSTORE POP PUSH1 0x0 DUP3 PUSH1 0x4 ADD PUSH1 0x0 PUSH2 0x100 EXP DUP2 SLOAD DUP2 PUSH1 0xFF MUL NOT AND SWAP1 DUP4 ISZERO ISZERO MUL OR SWAP1 SSTORE POP CALLER PUSH20 0xFFFFFFFFFFFFFFFFFFFFFFFFFFFFFFFFFFFFFFFF AND PUSH2 0x8FC DUP3 SWAP1 DUP2 ISZERO MUL SWAP1 PUSH1 0x40 MLOAD PUSH1 0x0 PUSH1 0x40 MLOAD DUP1 DUP4 SUB DUP2 DUP6 DUP9 DUP9 CALL SWAP4 POP POP POP POP ISZERO DUP1 ISZERO PUSH2 0xCD3 JUMPI RETURNDATASIZE PUSH1 0x0 DUP1 RETURNDATACOPY RETURNDATASIZE PUSH1 0x0 REVERT JUMPDEST POP PUSH32 0xEAD5D35910F3E2D6B0422579A65A204AC86CDEB6A6C0436657A33A90D397FB53 CALLER DUP3 DUP5 PUSH1 0x4 ADD PUSH1 0x0 SWAP1 SLOAD SWAP1 PUSH2 0x100 EXP SWAP1 DIV PUSH1 0xFF AND PUSH1 0x40 MLOAD PUSH2 0xD18 SWAP4 SWAP3 SWAP2 SWAP1 PUSH2 0x197F JUMP JUMPDEST PUSH1 0x40 MLOAD DUP1 SWAP2 SUB SWAP1 LOG1 POP POP JUMP JUMPDEST PUSH1 0x1 PUSH1 0x20 MSTORE DUP1 PUSH1 0x0 MSTORE PUSH1 0x40 PUSH1 0x0 KECCAK256 PUSH1 0x0 SWAP2 POP SWAP1 POP DUP1 PUSH1 0x0 ADD DUP1 SLOAD PUSH2 0xD47 SWAP1 PUSH2 0x1506 JUMP JUMPDEST DUP1 PUSH1 0x1F ADD PUSH1 0x20 DUP1 SWAP2 DIV MUL PUSH1 0x20 ADD PUSH1 0x40 MLOAD SWAP1 DUP2 ADD PUSH1 0x40 MSTORE DUP1 SWAP3 SWAP2 SWAP1 DUP2 DUP2 MSTORE PUSH1 0x20 ADD DUP3 DUP1 SLOAD PUSH2 0xD73 SWAP1 PUSH2 0x1506 JUMP JUMPDEST DUP1 ISZERO PUSH2 0xDC0 JUMPI DUP1 PUSH1 0x1F LT PUSH2 0xD95 JUMPI PUSH2 0x100 DUP1 DUP4 SLOAD DIV MUL DUP4 MSTORE SWAP2 PUSH1 0x20 ADD SWAP2 PUSH2 0xDC0 JUMP JUMPDEST DUP3 ADD SWAP2 SWAP1 PUSH1 0x0 MSTORE PUSH1 0x20 PUSH1 0x0 KECCAK256 SWAP1 JUMPDEST DUP2 SLOAD DUP2 MSTORE SWAP1 PUSH1 0x1 ADD SWAP1 PUSH1 0x20 ADD DUP1 DUP4 GT PUSH2 0xDA3 JUMPI DUP3 SWAP1 SUB PUSH1 0x1F AND DUP3 ADD SWAP2 JUMPDEST POP POP POP POP POP SWAP1 DUP1 PUSH1 0x1 ADD SLOAD SWAP1 DUP1 PUSH1 0x2 ADD SLOAD SWAP1 DUP1 PUSH1 0x3 ADD SLOAD SWAP1 DUP1 PUSH1 0x4 ADD PUSH1 0x0 SWAP1 SLOAD SWAP1 PUSH2 0x100 EXP SWAP1 DIV PUSH1 0xFF AND SWAP1 POP DUP6 JUMP JUMPDEST PUSH1 0x0 PUSH1 0x1 PUSH1 0x0 CALLER PUSH20 0xFFFFFFFFFFFFFFFFFFFFFFFFFFFFFFFFFFFFFFFF AND PUSH20 0xFFFFFFFFFFFFFFFFFFFFFFFFFFFFFFFFFFFFFFFF AND DUP2 MSTORE PUSH1 0x20 ADD SWAP1 DUP2 MSTORE PUSH1 0x20 ADD PUSH1 0x0 KECCAK256 SWAP1 POP DUP3 DUP2 PUSH1 0x1 ADD DUP2 SWAP1 SSTORE POP DUP4 DUP2 PUSH1 0x0 ADD SWAP1 DUP1 MLOAD SWAP1 PUSH1 0x20 ADD SWAP1 PUSH2 0xE53 SWAP3 SWAP2 SWAP1 PUSH2 0xF3B JUMP JUMPDEST POP PUSH3 0x2A300 DUP3 PUSH2 0xE63 SWAP2 SWAP1 PUSH2 0x17E6 JUMP JUMPDEST DUP2 PUSH1 0x3 ADD DUP2 SWAP1 SSTORE POP PUSH32 0xF69A88136BB57871F0559F33E167C9CC90ED27FB806571F9BD595CCEA4200082 CALLER DUP6 DUP6 PUSH1 0x40 MLOAD PUSH2 0xE9E SWAP4 SWAP3 SWAP2 SWAP1 PUSH2 0x19B6 JUMP JUMPDEST PUSH1 0x40 MLOAD DUP1 SWAP2 SUB SWAP1 LOG1 POP POP POP POP JUMP JUMPDEST PUSH1 0x0 DUP1 PUSH1 0x1 PUSH1 0x0 DUP5 PUSH20 0xFFFFFFFFFFFFFFFFFFFFFFFFFFFFFFFFFFFFFFFF AND PUSH20 0xFFFFFFFFFFFFFFFFFFFFFFFFFFFFFFFFFFFFFFFF AND DUP2 MSTORE PUSH1 0x20 ADD SWAP1 DUP2 MSTORE PUSH1 0x20 ADD PUSH1 0x0 KECCAK256 SWAP1 POP DUP1 PUSH1 0x4 ADD PUSH1 0x0 SWAP1 SLOAD SWAP1 PUSH2 0x100 EXP SWAP1 DIV PUSH1 0xFF AND SWAP2 POP POP SWAP2 SWAP1 POP JUMP JUMPDEST PUSH1 0x40 MLOAD DUP1 PUSH1 0xA0 ADD PUSH1 0x40 MSTORE DUP1 PUSH1 0x60 DUP2 MSTORE PUSH1 0x20 ADD PUSH1 0x0 DUP2 MSTORE PUSH1 0x20 ADD PUSH1 0x0 DUP2 MSTORE PUSH1 0x20 ADD PUSH1 0x0 DUP2 MSTORE PUSH1 0x20 ADD PUSH1 0x0 ISZERO ISZERO DUP2 MSTORE POP SWAP1 JUMP JUMPDEST DUP3 DUP1 SLOAD PUSH2 0xF47 SWAP1 PUSH2 0x1506 JUMP JUMPDEST SWAP1 PUSH1 0x0 MSTORE PUSH1 0x20 PUSH1 0x0 KECCAK256 SWAP1 PUSH1 0x1F ADD PUSH1 0x20 SWAP1 DIV DUP2 ADD SWAP3 DUP3 PUSH2 0xF69 JUMPI PUSH1 0x0 DUP6 SSTORE PUSH2 0xFB0 JUMP JUMPDEST DUP3 PUSH1 0x1F LT PUSH2 0xF82 JUMPI DUP1 MLOAD PUSH1 0xFF NOT AND DUP4 DUP1 ADD OR DUP6 SSTORE PUSH2 0xFB0 JUMP JUMPDEST DUP3 DUP1 ADD PUSH1 0x1 ADD DUP6 SSTORE DUP3 ISZERO PUSH2 0xFB0 JUMPI SWAP2 DUP3 ADD JUMPDEST DUP3 DUP2 GT ISZERO PUSH2 0xFAF JUMPI DUP3 MLOAD DUP3 SSTORE SWAP2 PUSH1 0x20 ADD SWAP2 SWAP1 PUSH1 0x1 ADD SWAP1 PUSH2 0xF94 JUMP JUMPDEST JUMPDEST POP SWAP1 POP PUSH2 0xFBD SWAP2 SWAP1 PUSH2 0xFC1 JUMP JUMPDEST POP SWAP1 JUMP JUMPDEST JUMPDEST DUP1 DUP3 GT ISZERO PUSH2 0xFDA JUMPI PUSH1 0x0 DUP2 PUSH1 0x0 SWAP1 SSTORE POP PUSH1 0x1 ADD PUSH2 0xFC2 JUMP JUMPDEST POP SWAP1 JUMP JUMPDEST PUSH1 0x0 PUSH1 0x40 MLOAD SWAP1 POP SWAP1 JUMP JUMPDEST PUSH1 0x0 DUP1 REVERT JUMPDEST PUSH1 0x0 DUP1 REVERT JUMPDEST PUSH1 0x0 PUSH20 0xFFFFFFFFFFFFFFFFFFFFFFFFFFFFFFFFFFFFFFFF DUP3 AND SWAP1 POP SWAP2 SWAP1 POP JUMP JUMPDEST PUSH1 0x0 PUSH2 0x101D DUP3 PUSH2 0xFF2 JUMP JUMPDEST SWAP1 POP SWAP2 SWAP1 POP JUMP JUMPDEST PUSH2 0x102D DUP2 PUSH2 0x1012 JUMP JUMPDEST DUP2 EQ PUSH2 0x1038 JUMPI PUSH1 0x0 DUP1 REVERT JUMPDEST POP JUMP JUMPDEST PUSH1 0x0 DUP2 CALLDATALOAD SWAP1 POP PUSH2 0x104A DUP2 PUSH2 0x1024 JUMP JUMPDEST SWAP3 SWAP2 POP POP JUMP JUMPDEST PUSH1 0x0 PUSH1 0x20 DUP3 DUP5 SUB SLT ISZERO PUSH2 0x1066 JUMPI PUSH2 0x1065 PUSH2 0xFE8 JUMP JUMPDEST JUMPDEST PUSH1 0x0 PUSH2 0x1074 DUP5 DUP3 DUP6 ADD PUSH2 0x103B JUMP JUMPDEST SWAP2 POP POP SWAP3 SWAP2 POP POP JUMP JUMPDEST PUSH1 0x0 DUP2 SWAP1 POP SWAP2 SWAP1 POP JUMP JUMPDEST PUSH2 0x1090 DUP2 PUSH2 0x107D JUMP JUMPDEST DUP3 MSTORE POP POP JUMP JUMPDEST PUSH1 0x0 PUSH1 0x20 DUP3 ADD SWAP1 POP PUSH2 0x10AB PUSH1 0x0 DUP4 ADD DUP5 PUSH2 0x1087 JUMP JUMPDEST SWAP3 SWAP2 POP POP JUMP JUMPDEST PUSH1 0x0 DUP2 MLOAD SWAP1 POP SWAP2 SWAP1 POP JUMP JUMPDEST PUSH1 0x0 DUP3 DUP3 MSTORE PUSH1 0x20 DUP3 ADD SWAP1 POP SWAP3 SWAP2 POP POP JUMP JUMPDEST PUSH1 0x0 JUMPDEST DUP4 DUP2 LT ISZERO PUSH2 0x10EB JUMPI DUP1 DUP3 ADD MLOAD DUP2 DUP5 ADD MSTORE PUSH1 0x20 DUP2 ADD SWAP1 POP PUSH2 0x10D0 JUMP JUMPDEST DUP4 DUP2 GT ISZERO PUSH2 0x10FA JUMPI PUSH1 0x0 DUP5 DUP5 ADD MSTORE JUMPDEST POP POP POP POP JUMP JUMPDEST PUSH1 0x0 PUSH1 0x1F NOT PUSH1 0x1F DUP4 ADD AND SWAP1 POP SWAP2 SWAP1 POP JUMP JUMPDEST PUSH1 0x0 PUSH2 0x111C DUP3 PUSH2 0x10B1 JUMP JUMPDEST PUSH2 0x1126 DUP2 DUP6 PUSH2 0x10BC JUMP JUMPDEST SWAP4 POP PUSH2 0x1136 DUP2 DUP6 PUSH1 0x20 DUP7 ADD PUSH2 0x10CD JUMP JUMPDEST PUSH2 0x113F DUP2 PUSH2 0x1100 JUMP JUMPDEST DUP5 ADD SWAP2 POP POP SWAP3 SWAP2 POP POP JUMP JUMPDEST PUSH2 0x1153 DUP2 PUSH2 0x107D JUMP JUMPDEST DUP3 MSTORE POP POP JUMP JUMPDEST PUSH1 0x0 DUP2 ISZERO ISZERO SWAP1 POP SWAP2 SWAP1 POP JUMP JUMPDEST PUSH2 0x116E DUP2 PUSH2 0x1159 JUMP JUMPDEST DUP3 MSTORE POP POP JUMP JUMPDEST PUSH1 0x0 PUSH1 0xA0 DUP4 ADD PUSH1 0x0 DUP4 ADD MLOAD DUP5 DUP3 SUB PUSH1 0x0 DUP7 ADD MSTORE PUSH2 0x1191 DUP3 DUP3 PUSH2 0x1111 JUMP JUMPDEST SWAP2 POP POP PUSH1 0x20 DUP4 ADD MLOAD PUSH2 0x11A6 PUSH1 0x20 DUP7 ADD DUP3 PUSH2 0x114A JUMP JUMPDEST POP PUSH1 0x40 DUP4 ADD MLOAD PUSH2 0x11B9 PUSH1 0x40 DUP7 ADD DUP3 PUSH2 0x114A JUMP JUMPDEST POP PUSH1 0x60 DUP4 ADD MLOAD PUSH2 0x11CC PUSH1 0x60 DUP7 ADD DUP3 PUSH2 0x114A JUMP JUMPDEST POP PUSH1 0x80 DUP4 ADD MLOAD PUSH2 0x11DF PUSH1 0x80 DUP7 ADD DUP3 PUSH2 0x1165 JUMP JUMPDEST POP DUP1 SWAP2 POP POP SWAP3 SWAP2 POP POP JUMP JUMPDEST PUSH1 0x0 PUSH1 0x20 DUP3 ADD SWAP1 POP DUP2 DUP2 SUB PUSH1 0x0 DUP4 ADD MSTORE PUSH2 0x1204 DUP2 DUP5 PUSH2 0x1174 JUMP JUMPDEST SWAP1 POP SWAP3 SWAP2 POP POP JUMP JUMPDEST PUSH2 0x1215 DUP2 PUSH2 0x107D JUMP JUMPDEST DUP2 EQ PUSH2 0x1220 JUMPI PUSH1 0x0 DUP1 REVERT JUMPDEST POP JUMP JUMPDEST PUSH1 0x0 DUP2 CALLDATALOAD SWAP1 POP PUSH2 0x1232 DUP2 PUSH2 0x120C JUMP JUMPDEST SWAP3 SWAP2 POP POP JUMP JUMPDEST PUSH1 0x0 PUSH1 0x20 DUP3 DUP5 SUB SLT ISZERO PUSH2 0x124E JUMPI PUSH2 0x124D PUSH2 0xFE8 JUMP JUMPDEST JUMPDEST PUSH1 0x0 PUSH2 0x125C DUP5 DUP3 DUP6 ADD PUSH2 0x1223 JUMP JUMPDEST SWAP2 POP POP SWAP3 SWAP2 POP POP JUMP JUMPDEST PUSH1 0x0 DUP3 DUP3 MSTORE PUSH1 0x20 DUP3 ADD SWAP1 POP SWAP3 SWAP2 POP POP JUMP JUMPDEST PUSH1 0x0 PUSH2 0x1281 DUP3 PUSH2 0x10B1 JUMP JUMPDEST PUSH2 0x128B DUP2 DUP6 PUSH2 0x1265 JUMP JUMPDEST SWAP4 POP PUSH2 0x129B DUP2 DUP6 PUSH1 0x20 DUP7 ADD PUSH2 0x10CD JUMP JUMPDEST PUSH2 0x12A4 DUP2 PUSH2 0x1100 JUMP JUMPDEST DUP5 ADD SWAP2 POP POP SWAP3 SWAP2 POP POP JUMP JUMPDEST PUSH2 0x12B8 DUP2 PUSH2 0x1159 JUMP JUMPDEST DUP3 MSTORE POP POP JUMP JUMPDEST PUSH1 0x0 PUSH1 0xA0 DUP3 ADD SWAP1 POP DUP2 DUP2 SUB PUSH1 0x0 DUP4 ADD MSTORE PUSH2 0x12D8 DUP2 DUP9 PUSH2 0x1276 JUMP JUMPDEST SWAP1 POP PUSH2 0x12E7 PUSH1 0x20 DUP4 ADD DUP8 PUSH2 0x1087 JUMP JUMPDEST PUSH2 0x12F4 PUSH1 0x40 DUP4 ADD DUP7 PUSH2 0x1087 JUMP JUMPDEST PUSH2 0x1301 PUSH1 0x60 DUP4 ADD DUP6 PUSH2 0x1087 JUMP JUMPDEST PUSH2 0x130E PUSH1 0x80 DUP4 ADD DUP5 PUSH2 0x12AF JUMP JUMPDEST SWAP7 SWAP6 POP POP POP POP POP POP JUMP JUMPDEST PUSH1 0x0 DUP1 REVERT JUMPDEST PUSH1 0x0 DUP1 REVERT JUMPDEST PUSH32 0x4E487B7100000000000000000000000000000000000000000000000000000000 PUSH1 0x0 MSTORE PUSH1 0x41 PUSH1 0x4 MSTORE PUSH1 0x24 PUSH1 0x0 REVERT JUMPDEST PUSH2 0x135A DUP3 PUSH2 0x1100 JUMP JUMPDEST DUP2 ADD DUP2 DUP2 LT PUSH8 0xFFFFFFFFFFFFFFFF DUP3 GT OR ISZERO PUSH2 0x1379 JUMPI PUSH2 0x1378 PUSH2 0x1322 JUMP JUMPDEST JUMPDEST DUP1 PUSH1 0x40 MSTORE POP POP POP JUMP JUMPDEST PUSH1 0x0 PUSH2 0x138C PUSH2 0xFDE JUMP JUMPDEST SWAP1 POP PUSH2 0x1398 DUP3 DUP3 PUSH2 0x1351 JUMP JUMPDEST SWAP2 SWAP1 POP JUMP JUMPDEST PUSH1 0x0 PUSH8 0xFFFFFFFFFFFFFFFF DUP3 GT ISZERO PUSH2 0x13B8 JUMPI PUSH2 0x13B7 PUSH2 0x1322 JUMP JUMPDEST JUMPDEST PUSH2 0x13C1 DUP3 PUSH2 0x1100 JUMP JUMPDEST SWAP1 POP PUSH1 0x20 DUP2 ADD SWAP1 POP SWAP2 SWAP1 POP JUMP JUMPDEST DUP3 DUP2 DUP4 CALLDATACOPY PUSH1 0x0 DUP4 DUP4 ADD MSTORE POP POP POP JUMP JUMPDEST PUSH1 0x0 PUSH2 0x13F0 PUSH2 0x13EB DUP5 PUSH2 0x139D JUMP JUMPDEST PUSH2 0x1382 JUMP JUMPDEST SWAP1 POP DUP3 DUP2 MSTORE PUSH1 0x20 DUP2 ADD DUP5 DUP5 DUP5 ADD GT ISZERO PUSH2 0x140C JUMPI PUSH2 0x140B PUSH2 0x131D JUMP JUMPDEST JUMPDEST PUSH2 0x1417 DUP5 DUP3 DUP6 PUSH2 0x13CE JUMP JUMPDEST POP SWAP4 SWAP3 POP POP POP JUMP JUMPDEST PUSH1 0x0 DUP3 PUSH1 0x1F DUP4 ADD SLT PUSH2 0x1434 JUMPI PUSH2 0x1433 PUSH2 0x1318 JUMP JUMPDEST JUMPDEST DUP2 CALLDATALOAD PUSH2 0x1444 DUP5 DUP3 PUSH1 0x20 DUP7 ADD PUSH2 0x13DD JUMP JUMPDEST SWAP2 POP POP SWAP3 SWAP2 POP POP JUMP JUMPDEST PUSH1 0x0 DUP1 PUSH1 0x0 PUSH1 0x60 DUP5 DUP7 SUB SLT ISZERO PUSH2 0x1466 JUMPI PUSH2 0x1465 PUSH2 0xFE8 JUMP JUMPDEST JUMPDEST PUSH1 0x0 DUP5 ADD CALLDATALOAD PUSH8 0xFFFFFFFFFFFFFFFF DUP2 GT ISZERO PUSH2 0x1484 JUMPI PUSH2 0x1483 PUSH2 0xFED JUMP JUMPDEST JUMPDEST PUSH2 0x1490 DUP7 DUP3 DUP8 ADD PUSH2 0x141F JUMP JUMPDEST SWAP4 POP POP PUSH1 0x20 PUSH2 0x14A1 DUP7 DUP3 DUP8 ADD PUSH2 0x1223 JUMP JUMPDEST SWAP3 POP POP PUSH1 0x40 PUSH2 0x14B2 DUP7 DUP3 DUP8 ADD PUSH2 0x1223 JUMP JUMPDEST SWAP2 POP POP SWAP3 POP SWAP3 POP SWAP3 JUMP JUMPDEST PUSH1 0x0 PUSH1 0x20 DUP3 ADD SWAP1 POP PUSH2 0x14D1 PUSH1 0x0 DUP4 ADD DUP5 PUSH2 0x12AF JUMP JUMPDEST SWAP3 SWAP2 POP POP JUMP JUMPDEST PUSH32 0x4E487B7100000000000000000000000000000000000000000000000000000000 PUSH1 0x0 MSTORE PUSH1 0x22 PUSH1 0x4 MSTORE PUSH1 0x24 PUSH1 0x0 REVERT JUMPDEST PUSH1 0x0 PUSH1 0x2 DUP3 DIV SWAP1 POP PUSH1 0x1 DUP3 AND DUP1 PUSH2 0x151E JUMPI PUSH1 0x7F DUP3 AND SWAP2 POP JUMPDEST PUSH1 0x20 DUP3 LT DUP2 EQ ISZERO PUSH2 0x1532 JUMPI PUSH2 0x1531 PUSH2 0x14D7 JUMP JUMPDEST JUMPDEST POP SWAP2 SWAP1 POP JUMP JUMPDEST PUSH2 0x1541 DUP2 PUSH2 0x1012 JUMP JUMPDEST DUP3 MSTORE POP POP JUMP JUMPDEST PUSH1 0x0 PUSH1 0x20 DUP3 ADD SWAP1 POP PUSH2 0x155C PUSH1 0x0 DUP4 ADD DUP5 PUSH2 0x1538 JUMP JUMPDEST SWAP3 SWAP2 POP POP JUMP JUMPDEST PUSH2 0x156B DUP2 PUSH2 0x1159 JUMP JUMPDEST DUP2 EQ PUSH2 0x1576 JUMPI PUSH1 0x0 DUP1 REVERT JUMPDEST POP JUMP JUMPDEST PUSH1 0x0 DUP2 MLOAD SWAP1 POP PUSH2 0x1588 DUP2 PUSH2 0x1562 JUMP JUMPDEST SWAP3 SWAP2 POP POP JUMP JUMPDEST PUSH1 0x0 PUSH1 0x20 DUP3 DUP5 SUB SLT ISZERO PUSH2 0x15A4 JUMPI PUSH2 0x15A3 PUSH2 0xFE8 JUMP JUMPDEST JUMPDEST PUSH1 0x0 PUSH2 0x15B2 DUP5 DUP3 DUP6 ADD PUSH2 0x1579 JUMP JUMPDEST SWAP2 POP POP SWAP3 SWAP2 POP POP JUMP JUMPDEST PUSH32 0x766F746520666F72207468697320726571756573742069732079657420746F20 PUSH1 0x0 DUP3 ADD MSTORE PUSH32 0x7061737300000000000000000000000000000000000000000000000000000000 PUSH1 0x20 DUP3 ADD MSTORE POP JUMP JUMPDEST PUSH1 0x0 PUSH2 0x1617 PUSH1 0x24 DUP4 PUSH2 0x1265 JUMP JUMPDEST SWAP2 POP PUSH2 0x1622 DUP3 PUSH2 0x15BB JUMP JUMPDEST PUSH1 0x40 DUP3 ADD SWAP1 POP SWAP2 SWAP1 POP JUMP JUMPDEST PUSH1 0x0 PUSH1 0x20 DUP3 ADD SWAP1 POP DUP2 DUP2 SUB PUSH1 0x0 DUP4 ADD MSTORE PUSH2 0x1646 DUP2 PUSH2 0x160A JUMP JUMPDEST SWAP1 POP SWAP2 SWAP1 POP JUMP JUMPDEST PUSH32 0x796F752063616E2774207472616E7366657220302076616C7565000000000000 PUSH1 0x0 DUP3 ADD MSTORE POP JUMP JUMPDEST PUSH1 0x0 PUSH2 0x1683 PUSH1 0x1A DUP4 PUSH2 0x1265 JUMP JUMPDEST SWAP2 POP PUSH2 0x168E DUP3 PUSH2 0x164D JUMP JUMPDEST PUSH1 0x20 DUP3 ADD SWAP1 POP SWAP2 SWAP1 POP JUMP JUMPDEST PUSH1 0x0 PUSH1 0x20 DUP3 ADD SWAP1 POP DUP2 DUP2 SUB PUSH1 0x0 DUP4 ADD MSTORE PUSH2 0x16B2 DUP2 PUSH2 0x1676 JUMP JUMPDEST SWAP1 POP SWAP2 SWAP1 POP JUMP JUMPDEST PUSH32 0x746869732070726F706F73616C206E6F7420617661696C61626C6520666F7220 PUSH1 0x0 DUP3 ADD MSTORE PUSH32 0x646F6E6174696F6E000000000000000000000000000000000000000000000000 PUSH1 0x20 DUP3 ADD MSTORE POP JUMP JUMPDEST PUSH1 0x0 PUSH2 0x1715 PUSH1 0x28 DUP4 PUSH2 0x1265 JUMP JUMPDEST SWAP2 POP PUSH2 0x1720 DUP3 PUSH2 0x16B9 JUMP JUMPDEST PUSH1 0x40 DUP3 ADD SWAP1 POP SWAP2 SWAP1 POP JUMP JUMPDEST PUSH1 0x0 PUSH1 0x20 DUP3 ADD SWAP1 POP DUP2 DUP2 SUB PUSH1 0x0 DUP4 ADD MSTORE PUSH2 0x1744 DUP2 PUSH2 0x1708 JUMP JUMPDEST SWAP1 POP SWAP2 SWAP1 POP JUMP JUMPDEST PUSH32 0x74617267657420726561636865616420666F7220746869732066756E64000000 PUSH1 0x0 DUP3 ADD MSTORE POP JUMP JUMPDEST PUSH1 0x0 PUSH2 0x1781 PUSH1 0x1D DUP4 PUSH2 0x1265 JUMP JUMPDEST SWAP2 POP PUSH2 0x178C DUP3 PUSH2 0x174B JUMP JUMPDEST PUSH1 0x20 DUP3 ADD SWAP1 POP SWAP2 SWAP1 POP JUMP JUMPDEST PUSH1 0x0 PUSH1 0x20 DUP3 ADD SWAP1 POP DUP2 DUP2 SUB PUSH1 0x0 DUP4 ADD MSTORE PUSH2 0x17B0 DUP2 PUSH2 0x1774 JUMP JUMPDEST SWAP1 POP SWAP2 SWAP1 POP JUMP JUMPDEST PUSH32 0x4E487B7100000000000000000000000000000000000000000000000000000000 PUSH1 0x0 MSTORE PUSH1 0x11 PUSH1 0x4 MSTORE PUSH1 0x24 PUSH1 0x0 REVERT JUMPDEST PUSH1 0x0 PUSH2 0x17F1 DUP3 PUSH2 0x107D JUMP JUMPDEST SWAP2 POP PUSH2 0x17FC DUP4 PUSH2 0x107D JUMP JUMPDEST SWAP3 POP DUP3 PUSH32 0xFFFFFFFFFFFFFFFFFFFFFFFFFFFFFFFFFFFFFFFFFFFFFFFFFFFFFFFFFFFFFFFF SUB DUP3 GT ISZERO PUSH2 0x1831 JUMPI PUSH2 0x1830 PUSH2 0x17B7 JUMP JUMPDEST JUMPDEST DUP3 DUP3 ADD SWAP1 POP SWAP3 SWAP2 POP POP JUMP JUMPDEST PUSH1 0x0 PUSH1 0x60 DUP3 ADD SWAP1 POP PUSH2 0x1851 PUSH1 0x0 DUP4 ADD DUP7 PUSH2 0x1538 JUMP JUMPDEST PUSH2 0x185E PUSH1 0x20 DUP4 ADD DUP6 PUSH2 0x1538 JUMP JUMPDEST PUSH2 0x186B PUSH1 0x40 DUP4 ADD DUP5 PUSH2 0x1087 JUMP JUMPDEST SWAP5 SWAP4 POP POP POP POP JUMP JUMPDEST PUSH32 0x70726F706F73616C20686173206E6F74206265656E20617070726F7665640000 PUSH1 0x0 DUP3 ADD MSTORE POP JUMP JUMPDEST PUSH1 0x0 PUSH2 0x18A9 PUSH1 0x1E DUP4 PUSH2 0x1265 JUMP JUMPDEST SWAP2 POP PUSH2 0x18B4 DUP3 PUSH2 0x1873 JUMP JUMPDEST PUSH1 0x20 DUP3 ADD SWAP1 POP SWAP2 SWAP1 POP JUMP JUMPDEST PUSH1 0x0 PUSH1 0x20 DUP3 ADD SWAP1 POP DUP2 DUP2 SUB PUSH1 0x0 DUP4 ADD MSTORE PUSH2 0x18D8 DUP2 PUSH2 0x189C JUMP JUMPDEST SWAP1 POP SWAP2 SWAP1 POP JUMP JUMPDEST PUSH32 0x46756E64732079657420746F206D617475726500000000000000000000000000 PUSH1 0x0 DUP3 ADD MSTORE POP JUMP JUMPDEST PUSH1 0x0 PUSH2 0x1915 PUSH1 0x13 DUP4 PUSH2 0x1265 JUMP JUMPDEST SWAP2 POP PUSH2 0x1920 DUP3 PUSH2 0x18DF JUMP JUMPDEST PUSH1 0x20 DUP3 ADD SWAP1 POP SWAP2 SWAP1 POP JUMP JUMPDEST PUSH1 0x0 PUSH1 0x20 DUP3 ADD SWAP1 POP DUP2 DUP2 SUB PUSH1 0x0 DUP4 ADD MSTORE PUSH2 0x1944 DUP2 PUSH2 0x1908 JUMP JUMPDEST SWAP1 POP SWAP2 SWAP1 POP JUMP JUMPDEST PUSH1 0x0 PUSH2 0x1956 DUP3 PUSH2 0x107D JUMP JUMPDEST SWAP2 POP PUSH2 0x1961 DUP4 PUSH2 0x107D JUMP JUMPDEST SWAP3 POP DUP3 DUP3 LT ISZERO PUSH2 0x1974 JUMPI PUSH2 0x1973 PUSH2 0x17B7 JUMP JUMPDEST JUMPDEST DUP3 DUP3 SUB SWAP1 POP SWAP3 SWAP2 POP POP JUMP JUMPDEST PUSH1 0x0 PUSH1 0x60 DUP3 ADD SWAP1 POP PUSH2 0x1994 PUSH1 0x0 DUP4 ADD DUP7 PUSH2 0x1538 JUMP JUMPDEST PUSH2 0x19A1 PUSH1 0x20 DUP4 ADD DUP6 PUSH2 0x1087 JUMP JUMPDEST PUSH2 0x19AE PUSH1 0x40 DUP4 ADD DUP5 PUSH2 0x12AF JUMP JUMPDEST SWAP5 SWAP4 POP POP POP POP JUMP JUMPDEST PUSH1 0x0 PUSH1 0x60 DUP3 ADD SWAP1 POP PUSH2 0x19CB PUSH1 0x0 DUP4 ADD DUP7 PUSH2 0x1538 JUMP JUMPDEST DUP2 DUP2 SUB PUSH1 0x20 DUP4 ADD MSTORE PUSH2 0x19DD DUP2 DUP6 PUSH2 0x1276 JUMP JUMPDEST SWAP1 POP PUSH2 0x19EC PUSH1 0x40 DUP4 ADD DUP5 PUSH2 0x1087 JUMP JUMPDEST SWAP5 SWAP4 POP POP POP POP JUMP INVALID LOG2 PUSH5 0x6970667358 0x22 SLT KECCAK256 ADD 0xAD 0xD6 PUSH2 0x5AF6 0xD5 BALANCE 0xAC PUSH20 0xB2EB59455425276DC9CBBD2C5B86222EA31DD2D4 0xAD DUP11 PUSH5 0x736F6C6343 STOP ADDMOD EXP STOP CALLER "
				},
				"gasEstimates": {
					"creation": {
						"codeDepositCost": "1339600",
						"executionCost": "infinite",
						"totalCost": "infinite"
					},
					"external": {
						"checkBalanceOf(address)": "2848",
						"checkBalanceOfContract()": "339",
						"donateFunds(address)": "infinite",
						"fundsprosps(address)": "infinite",
						"getBeneficiaryProps(address)": "infinite",
						"getBeneficiaryStatus(address)": "3012",
						"investors(address)": "2903",
						"requestFund(string,uint256,uint256)": "infinite",
						"setStatus(address)": "infinite",
						"withdrawAll()": "infinite",
						"withdrawPart(uint256)": "infinite"
					}
				},
				"methodIdentifiers": {
					"checkBalanceOf(address)": "03147f39",
					"checkBalanceOfContract()": "7b9cd8c2",
					"donateFunds(address)": "4fb2d09d",
					"fundsprosps(address)": "b540795b",
					"getBeneficiaryProps(address)": "0e60bfad",
					"getBeneficiaryStatus(address)": "d5247dda",
					"investors(address)": "6f7bc9be",
					"requestFund(string,uint256,uint256)": "b6ec54de",
					"setStatus(address)": "14204dbb",
					"withdrawAll()": "853828b6",
					"withdrawPart(uint256)": "7daf06fd"
				}
			},
			"storageLayout": {
				"storage": [
					{
						"astId": 133,
						"contract": "backend/src/funder.sol:Funder",
						"label": "vote",
						"offset": 0,
						"slot": "0",
						"type": "t_contract(Voting)1466"
					},
					{
						"astId": 149,
						"contract": "backend/src/funder.sol:Funder",
						"label": "fundsprosps",
						"offset": 0,
						"slot": "1",
						"type": "t_mapping(t_address,t_struct(FundProps)144_storage)"
					},
					{
						"astId": 153,
						"contract": "backend/src/funder.sol:Funder",
						"label": "investors",
						"offset": 0,
						"slot": "2",
						"type": "t_mapping(t_address,t_uint256)"
					},
					{
						"astId": 157,
						"contract": "backend/src/funder.sol:Funder",
						"label": "RequestStatus",
						"offset": 0,
						"slot": "3",
						"type": "t_mapping(t_address,t_uint256)"
					}
				],
				"types": {
					"t_address": {
						"encoding": "inplace",
						"label": "address",
						"numberOfBytes": "20"
					},
					"t_bool": {
						"encoding": "inplace",
						"label": "bool",
						"numberOfBytes": "1"
					},
					"t_contract(Voting)1466": {
						"encoding": "inplace",
						"label": "contract Voting",
						"numberOfBytes": "20"
					},
					"t_mapping(t_address,t_struct(FundProps)144_storage)": {
						"encoding": "mapping",
						"key": "t_address",
						"label": "mapping(address => struct Funder.FundProps)",
						"numberOfBytes": "32",
						"value": "t_struct(FundProps)144_storage"
					},
					"t_mapping(t_address,t_uint256)": {
						"encoding": "mapping",
						"key": "t_address",
						"label": "mapping(address => uint256)",
						"numberOfBytes": "32",
						"value": "t_uint256"
					},
					"t_string_storage": {
						"encoding": "bytes",
						"label": "string",
						"numberOfBytes": "32"
					},
					"t_struct(FundProps)144_storage": {
						"encoding": "inplace",
						"label": "struct Funder.FundProps",
						"members": [
							{
								"astId": 135,
								"contract": "backend/src/funder.sol:Funder",
								"label": "Purpose",
								"offset": 0,
								"slot": "0",
								"type": "t_string_storage"
							},
							{
								"astId": 137,
								"contract": "backend/src/funder.sol:Funder",
								"label": "amount",
								"offset": 0,
								"slot": "1",
								"type": "t_uint256"
							},
							{
								"astId": 139,
								"contract": "backend/src/funder.sol:Funder",
								"label": "amountGenerared",
								"offset": 0,
								"slot": "2",
								"type": "t_uint256"
							},
							{
								"astId": 141,
								"contract": "backend/src/funder.sol:Funder",
								"label": "time",
								"offset": 0,
								"slot": "3",
								"type": "t_uint256"
							},
							{
								"astId": 143,
								"contract": "backend/src/funder.sol:Funder",
								"label": "status",
								"offset": 0,
								"slot": "4",
								"type": "t_bool"
							}
						],
						"numberOfBytes": "160"
					},
					"t_uint256": {
						"encoding": "inplace",
						"label": "uint256",
						"numberOfBytes": "32"
					}
				}
			},
			"userdoc": {
				"kind": "user",
				"methods": {
					"checkBalanceOf(address)": {
						"notice": "check the amount generated by a beneficiary"
					},
					"donateFunds(address)": {
						"notice": "Donate Funds for a beneficiary"
					},
					"requestFund(string,uint256,uint256)": {
						"notice": "Construct the FundsProperty for a benficiary"
					},
					"withdrawAll()": {
						"notice": "Withdraw all money contributed on behalf of the msg.sender;"
					},
					"withdrawPart(uint256)": {
						"notice": "Construct an interest rate model"
					}
				},
				"version": 1
			}
		}
	}
}