{
	"backend/src/governance.sol": {
		"Voting": {
			"abi": [
				{
					"inputs": [
						{
							"internalType": "uint256",
							"name": "_aYesVote",
							"type": "uint256"
						}
					],
					"stateMutability": "nonpayable",
					"type": "constructor"
				},
				{
					"anonymous": false,
					"inputs": [
						{
							"indexed": true,
							"internalType": "address",
							"name": "owner",
							"type": "address"
						},
						{
							"indexed": true,
							"internalType": "address",
							"name": "spender",
							"type": "address"
						},
						{
							"indexed": false,
							"internalType": "uint256",
							"name": "value",
							"type": "uint256"
						}
					],
					"name": "Approval",
					"type": "event"
				},
				{
					"anonymous": false,
					"inputs": [
						{
							"indexed": true,
							"internalType": "address",
							"name": "from",
							"type": "address"
						},
						{
							"indexed": true,
							"internalType": "address",
							"name": "to",
							"type": "address"
						},
						{
							"indexed": false,
							"internalType": "uint256",
							"name": "value",
							"type": "uint256"
						}
					],
					"name": "Transfer",
					"type": "event"
				},
				{
					"anonymous": false,
					"inputs": [
						{
							"indexed": true,
							"internalType": "address",
							"name": "gov",
							"type": "address"
						},
						{
							"indexed": true,
							"internalType": "address",
							"name": "ben",
							"type": "address"
						}
					],
					"name": "Voted",
					"type": "event"
				},
				{
					"anonymous": false,
					"inputs": [
						{
							"indexed": true,
							"internalType": "address",
							"name": "owner",
							"type": "address"
						},
						{
							"indexed": true,
							"internalType": "uint256",
							"name": "_amount",
							"type": "uint256"
						}
					],
					"name": "unlock",
					"type": "event"
				},
				{
					"inputs": [
						{
							"internalType": "address",
							"name": "",
							"type": "address"
						}
					],
					"name": "RequestGranted",
					"outputs": [
						{
							"internalType": "bool",
							"name": "",
							"type": "bool"
						}
					],
					"stateMutability": "view",
					"type": "function"
				},
				{
					"inputs": [
						{
							"internalType": "address",
							"name": "owner",
							"type": "address"
						},
						{
							"internalType": "address",
							"name": "spender",
							"type": "address"
						}
					],
					"name": "allowance",
					"outputs": [
						{
							"internalType": "uint256",
							"name": "",
							"type": "uint256"
						}
					],
					"stateMutability": "view",
					"type": "function"
				},
				{
					"inputs": [
						{
							"internalType": "address",
							"name": "spender",
							"type": "address"
						},
						{
							"internalType": "uint256",
							"name": "amount",
							"type": "uint256"
						}
					],
					"name": "approve",
					"outputs": [
						{
							"internalType": "bool",
							"name": "",
							"type": "bool"
						}
					],
					"stateMutability": "nonpayable",
					"type": "function"
				},
				{
					"inputs": [
						{
							"internalType": "address",
							"name": "account",
							"type": "address"
						}
					],
					"name": "balanceOf",
					"outputs": [
						{
							"internalType": "uint256",
							"name": "",
							"type": "uint256"
						}
					],
					"stateMutability": "view",
					"type": "function"
				},
				{
					"inputs": [],
					"name": "decimals",
					"outputs": [
						{
							"internalType": "uint8",
							"name": "",
							"type": "uint8"
						}
					],
					"stateMutability": "view",
					"type": "function"
				},
				{
					"inputs": [
						{
							"internalType": "address",
							"name": "spender",
							"type": "address"
						},
						{
							"internalType": "uint256",
							"name": "subtractedValue",
							"type": "uint256"
						}
					],
					"name": "decreaseAllowance",
					"outputs": [
						{
							"internalType": "bool",
							"name": "",
							"type": "bool"
						}
					],
					"stateMutability": "nonpayable",
					"type": "function"
				},
				{
					"inputs": [
						{
							"internalType": "address",
							"name": "beneficiary",
							"type": "address"
						}
					],
					"name": "getBeneficiaryVotingStatus",
					"outputs": [
						{
							"internalType": "bool",
							"name": "status",
							"type": "bool"
						}
					],
					"stateMutability": "view",
					"type": "function"
				},
				{
					"inputs": [
						{
							"internalType": "address",
							"name": "",
							"type": "address"
						},
						{
							"internalType": "address",
							"name": "",
							"type": "address"
						}
					],
					"name": "govVote",
					"outputs": [
						{
							"internalType": "bool",
							"name": "",
							"type": "bool"
						}
					],
					"stateMutability": "view",
					"type": "function"
				},
				{
					"inputs": [
						{
							"internalType": "address",
							"name": "",
							"type": "address"
						},
						{
							"internalType": "address",
							"name": "",
							"type": "address"
						}
					],
					"name": "govVoteCount",
					"outputs": [
						{
							"internalType": "uint256",
							"name": "",
							"type": "uint256"
						}
					],
					"stateMutability": "view",
					"type": "function"
				},
				{
					"inputs": [
						{
							"internalType": "address",
							"name": "spender",
							"type": "address"
						},
						{
							"internalType": "uint256",
							"name": "addedValue",
							"type": "uint256"
						}
					],
					"name": "increaseAllowance",
					"outputs": [
						{
							"internalType": "bool",
							"name": "",
							"type": "bool"
						}
					],
					"stateMutability": "nonpayable",
					"type": "function"
				},
				{
					"inputs": [],
					"name": "name",
					"outputs": [
						{
							"internalType": "string",
							"name": "",
							"type": "string"
						}
					],
					"stateMutability": "view",
					"type": "function"
				},
				{
					"inputs": [],
					"name": "symbol",
					"outputs": [
						{
							"internalType": "string",
							"name": "",
							"type": "string"
						}
					],
					"stateMutability": "view",
					"type": "function"
				},
				{
					"inputs": [],
					"name": "totalSupply",
					"outputs": [
						{
							"internalType": "uint256",
							"name": "",
							"type": "uint256"
						}
					],
					"stateMutability": "view",
					"type": "function"
				},
				{
					"inputs": [
						{
							"internalType": "address",
							"name": "to",
							"type": "address"
						},
						{
							"internalType": "uint256",
							"name": "amount",
							"type": "uint256"
						}
					],
					"name": "transfer",
					"outputs": [
						{
							"internalType": "bool",
							"name": "",
							"type": "bool"
						}
					],
					"stateMutability": "nonpayable",
					"type": "function"
				},
				{
					"inputs": [
						{
							"internalType": "address",
							"name": "from",
							"type": "address"
						},
						{
							"internalType": "address",
							"name": "to",
							"type": "address"
						},
						{
							"internalType": "uint256",
							"name": "amount",
							"type": "uint256"
						}
					],
					"name": "transferFrom",
					"outputs": [
						{
							"internalType": "bool",
							"name": "",
							"type": "bool"
						}
					],
					"stateMutability": "nonpayable",
					"type": "function"
				},
				{
					"inputs": [
						{
							"internalType": "address",
							"name": "castVote",
							"type": "address"
						}
					],
					"name": "unLocked",
					"outputs": [],
					"stateMutability": "nonpayable",
					"type": "function"
				},
				{
					"inputs": [
						{
							"internalType": "address",
							"name": "castVote",
							"type": "address"
						},
						{
							"internalType": "uint256",
							"name": "amount",
							"type": "uint256"
						}
					],
					"name": "voteProposal",
					"outputs": [],
					"stateMutability": "nonpayable",
					"type": "function"
				}
			],
			"devdoc": {
				"kind": "dev",
				"methods": {
					"allowance(address,address)": {
						"details": "See {IERC20-allowance}."
					},
					"approve(address,uint256)": {
						"details": "See {IERC20-approve}. NOTE: If `amount` is the maximum `uint256`, the allowance is not updated on `transferFrom`. This is semantically equivalent to an infinite approval. Requirements: - `spender` cannot be the zero address."
					},
					"balanceOf(address)": {
						"details": "See {IERC20-balanceOf}."
					},
					"decimals()": {
						"details": "Returns the number of decimals used to get its user representation. For example, if `decimals` equals `2`, a balance of `505` tokens should be displayed to a user as `5.05` (`505 / 10 ** 2`). Tokens usually opt for a value of 18, imitating the relationship between Ether and Wei. This is the value {ERC20} uses, unless this function is overridden; NOTE: This information is only used for _display_ purposes: it in no way affects any of the arithmetic of the contract, including {IERC20-balanceOf} and {IERC20-transfer}."
					},
					"decreaseAllowance(address,uint256)": {
						"details": "Atomically decreases the allowance granted to `spender` by the caller. This is an alternative to {approve} that can be used as a mitigation for problems described in {IERC20-approve}. Emits an {Approval} event indicating the updated allowance. Requirements: - `spender` cannot be the zero address. - `spender` must have allowance for the caller of at least `subtractedValue`."
					},
					"increaseAllowance(address,uint256)": {
						"details": "Atomically increases the allowance granted to `spender` by the caller. This is an alternative to {approve} that can be used as a mitigation for problems described in {IERC20-approve}. Emits an {Approval} event indicating the updated allowance. Requirements: - `spender` cannot be the zero address."
					},
					"name()": {
						"details": "Returns the name of the token."
					},
					"symbol()": {
						"details": "Returns the symbol of the token, usually a shorter version of the name."
					},
					"totalSupply()": {
						"details": "See {IERC20-totalSupply}."
					},
					"transfer(address,uint256)": {
						"details": "Moves `amount` tokens from the caller's account to `to`. Returns a boolean value indicating whether the operation succeeded. Emits a {Transfer} event."
					},
					"transferFrom(address,address,uint256)": {
						"details": "See {IERC20-transferFrom}. Emits an {Approval} event indicating the updated allowance. This is not required by the EIP. See the note at the beginning of {ERC20}. NOTE: Does not update the allowance if the current allowance is the maximum `uint256`. Requirements: - `from` and `to` cannot be the zero address. - `from` must have a balance of at least `amount`. - the caller must have allowance for ``from``'s tokens of at least `amount`."
					}
				},
				"version": 1
			},
			"evm": {
				"assembly": "    /* \"backend/src/governance.sol\":190:2776  contract Voting is FunderGovToken{... */\n  mstore(0x40, 0x80)\n    /* \"backend/src/governance.sol\":339:345  200e18 */\n  0x0ad78ebc5ac6200000\n    /* \"backend/src/governance.sol\":316:345  uint MINIMUMAPPROVAL = 200e18 */\n  0x08\n  sstore\n    /* \"backend/src/governance.sol\":1146:1285  constructor(uint _aYesVote) FunderGovToken(\"MYFunder\",\"MYF\"){... */\n  callvalue\n  dup1\n  iszero\n  tag_1\n  jumpi\n  0x00\n  dup1\n  revert\ntag_1:\n  pop\n  mload(0x40)\n  sub(codesize, bytecodeSize)\n  dup1\n  bytecodeSize\n  dup4\n  codecopy\n  dup2\n  dup2\n  add\n  0x40\n  mstore\n  dup2\n  add\n  swap1\n  tag_2\n  swap2\n  swap1\n  tag_3\n  jump\t// in\ntag_2:\n    /* \"backend/src/funderGovToken.sol\":1044:1157  constructor(string memory name_, string memory symbol_) {... */\n  mload(0x40)\n  dup1\n  0x40\n  add\n  0x40\n  mstore\n  dup1\n  0x08\n  dup2\n  mstore\n  0x20\n  add\n  0x4d5946756e646572000000000000000000000000000000000000000000000000\n  dup2\n  mstore\n  pop\n  mload(0x40)\n  dup1\n  0x40\n  add\n  0x40\n  mstore\n  dup1\n  0x03\n  dup2\n  mstore\n  0x20\n  add\n  0x4d59460000000000000000000000000000000000000000000000000000000000\n  dup2\n  mstore\n  pop\n    /* \"backend/src/funderGovToken.sol\":1118:1123  name_ */\n  dup2\n    /* \"backend/src/funderGovToken.sol\":1110:1115  _name */\n  0x01\n    /* \"backend/src/funderGovToken.sol\":1110:1123  _name = name_ */\n  swap1\n  dup1\n  mload\n  swap1\n  0x20\n  add\n  swap1\n  tag_7\n  swap3\n  swap2\n  swap1\n  tag_8\n  jump\t// in\ntag_7:\n  pop\n    /* \"backend/src/funderGovToken.sol\":1143:1150  symbol_ */\n  dup1\n    /* \"backend/src/funderGovToken.sol\":1133:1140  _symbol */\n  0x02\n    /* \"backend/src/funderGovToken.sol\":1133:1150  _symbol = symbol_ */\n  swap1\n  dup1\n  mload\n  swap1\n  0x20\n  add\n  swap1\n  tag_9\n  swap3\n  swap2\n  swap1\n  tag_8\n  jump\t// in\ntag_9:\n  pop\n    /* \"backend/src/funderGovToken.sol\":1044:1157  constructor(string memory name_, string memory symbol_) {... */\n  pop\n  pop\n    /* \"backend/src/governance.sol\":1227:1236  _aYesVote */\n  dup1\n    /* \"backend/src/governance.sol\":1216:1224  aYesVote */\n  0x07\n    /* \"backend/src/governance.sol\":1216:1236  aYesVote = _aYesVote */\n  dup2\n  swap1\n  sstore\n  pop\n    /* \"backend/src/governance.sol\":1246:1275  _mint(msg.sender, 1000000e18) */\n  tag_11\n    /* \"backend/src/governance.sol\":1252:1262  msg.sender */\n  caller\n    /* \"backend/src/governance.sol\":1264:1274  1000000e18 */\n  0xd3c21bcecceda1000000\n    /* \"backend/src/governance.sol\":1246:1251  _mint */\n  shl(0x20, tag_12)\n    /* \"backend/src/governance.sol\":1246:1275  _mint(msg.sender, 1000000e18) */\n  0x20\n  shr\n  jump\t// in\ntag_11:\n    /* \"backend/src/governance.sol\":1146:1285  constructor(uint _aYesVote) FunderGovToken(\"MYFunder\",\"MYF\"){... */\n  pop\n    /* \"backend/src/governance.sol\":190:2776  contract Voting is FunderGovToken{... */\n  jump(tag_13)\n    /* \"backend/src/funderGovToken.sol\":7442:7831  function _mint(address account, uint256 amount) internal virtual {... */\ntag_12:\n    /* \"backend/src/funderGovToken.sol\":7544:7545  0 */\n  0x00\n    /* \"backend/src/funderGovToken.sol\":7525:7546  account != address(0) */\n  0xffffffffffffffffffffffffffffffffffffffff\n  and\n    /* \"backend/src/funderGovToken.sol\":7525:7532  account */\n  dup3\n    /* \"backend/src/funderGovToken.sol\":7525:7546  account != address(0) */\n  0xffffffffffffffffffffffffffffffffffffffff\n  and\n  eq\n  iszero\n    /* \"backend/src/funderGovToken.sol\":7517:7582  require(account != address(0), \"ERC20: mint to the zero address\") */\n  tag_15\n  jumpi\n  mload(0x40)\n  0x08c379a000000000000000000000000000000000000000000000000000000000\n  dup2\n  mstore\n  0x04\n  add\n  tag_16\n  swap1\n  tag_17\n  jump\t// in\ntag_16:\n  mload(0x40)\n  dup1\n  swap2\n  sub\n  swap1\n  revert\ntag_15:\n    /* \"backend/src/funderGovToken.sol\":7593:7642  _beforeTokenTransfer(address(0), account, amount) */\n  tag_18\n    /* \"backend/src/funderGovToken.sol\":7622:7623  0 */\n  0x00\n    /* \"backend/src/funderGovToken.sol\":7626:7633  account */\n  dup4\n    /* \"backend/src/funderGovToken.sol\":7635:7641  amount */\n  dup4\n    /* \"backend/src/funderGovToken.sol\":7593:7613  _beforeTokenTransfer */\n  shl(0x20, tag_19)\n    /* \"backend/src/funderGovToken.sol\":7593:7642  _beforeTokenTransfer(address(0), account, amount) */\n  0x20\n  shr\n  jump\t// in\ntag_18:\n    /* \"backend/src/funderGovToken.sol\":7669:7675  amount */\n  dup1\n    /* \"backend/src/funderGovToken.sol\":7653:7665  _totalSupply */\n  0x00\n  dup1\n    /* \"backend/src/funderGovToken.sol\":7653:7675  _totalSupply += amount */\n  dup3\n  dup3\n  sload\n  tag_20\n  swap2\n  swap1\n  tag_21\n  jump\t// in\ntag_20:\n  swap3\n  pop\n  pop\n  dup2\n  swap1\n  sstore\n  pop\n    /* \"backend/src/funderGovToken.sol\":7707:7713  amount */\n  dup1\n    /* \"backend/src/funderGovToken.sol\":7685:7694  _balances */\n  0x04\n    /* \"backend/src/funderGovToken.sol\":7685:7703  _balances[account] */\n  0x00\n    /* \"backend/src/funderGovToken.sol\":7695:7702  account */\n  dup5\n    /* \"backend/src/funderGovToken.sol\":7685:7703  _balances[account] */\n  0xffffffffffffffffffffffffffffffffffffffff\n  and\n  0xffffffffffffffffffffffffffffffffffffffff\n  and\n  dup2\n  mstore\n  0x20\n  add\n  swap1\n  dup2\n  mstore\n  0x20\n  add\n  0x00\n  keccak256\n  0x00\n    /* \"backend/src/funderGovToken.sol\":7685:7713  _balances[account] += amount */\n  dup3\n  dup3\n  sload\n  tag_22\n  swap2\n  swap1\n  tag_21\n  jump\t// in\ntag_22:\n  swap3\n  pop\n  pop\n  dup2\n  swap1\n  sstore\n  pop\n    /* \"backend/src/funderGovToken.sol\":7749:7756  account */\n  dup2\n    /* \"backend/src/funderGovToken.sol\":7728:7765  Transfer(address(0), account, amount) */\n  0xffffffffffffffffffffffffffffffffffffffff\n  and\n    /* \"backend/src/funderGovToken.sol\":7745:7746  0 */\n  0x00\n    /* \"backend/src/funderGovToken.sol\":7728:7765  Transfer(address(0), account, amount) */\n  0xffffffffffffffffffffffffffffffffffffffff\n  and\n  0xddf252ad1be2c89b69c2b068fc378daa952ba7f163c4a11628f55a4df523b3ef\n    /* \"backend/src/funderGovToken.sol\":7758:7764  amount */\n  dup4\n    /* \"backend/src/funderGovToken.sol\":7728:7765  Transfer(address(0), account, amount) */\n  mload(0x40)\n  tag_23\n  swap2\n  swap1\n  tag_24\n  jump\t// in\ntag_23:\n  mload(0x40)\n  dup1\n  swap2\n  sub\n  swap1\n  log3\n    /* \"backend/src/funderGovToken.sol\":7776:7824  _afterTokenTransfer(address(0), account, amount) */\n  tag_25\n    /* \"backend/src/funderGovToken.sol\":7804:7805  0 */\n  0x00\n    /* \"backend/src/funderGovToken.sol\":7808:7815  account */\n  dup4\n    /* \"backend/src/funderGovToken.sol\":7817:7823  amount */\n  dup4\n    /* \"backend/src/funderGovToken.sol\":7776:7795  _afterTokenTransfer */\n  shl(0x20, tag_26)\n    /* \"backend/src/funderGovToken.sol\":7776:7824  _afterTokenTransfer(address(0), account, amount) */\n  0x20\n  shr\n  jump\t// in\ntag_25:\n    /* \"backend/src/funderGovToken.sol\":7442:7831  function _mint(address account, uint256 amount) internal virtual {... */\n  pop\n  pop\n  jump\t// out\n    /* \"backend/src/funderGovToken.sol\":10826:10947  function _beforeTokenTransfer(... */\ntag_19:\n  pop\n  pop\n  pop\n  jump\t// out\n    /* \"backend/src/funderGovToken.sol\":11535:11655  function _afterTokenTransfer(... */\ntag_26:\n  pop\n  pop\n  pop\n  jump\t// out\n    /* \"backend/src/governance.sol\":190:2776  contract Voting is FunderGovToken{... */\ntag_8:\n  dup3\n  dup1\n  sload\n  tag_29\n  swap1\n  tag_30\n  jump\t// in\ntag_29:\n  swap1\n  0x00\n  mstore\n  keccak256(0x00, 0x20)\n  swap1\n  0x1f\n  add\n  0x20\n  swap1\n  div\n  dup2\n  add\n  swap3\n  dup3\n  tag_32\n  jumpi\n  0x00\n  dup6\n  sstore\n  jump(tag_31)\ntag_32:\n  dup3\n  0x1f\n  lt\n  tag_33\n  jumpi\n  dup1\n  mload\n  not(0xff)\n  and\n  dup4\n  dup1\n  add\n  or\n  dup6\n  sstore\n  jump(tag_31)\ntag_33:\n  dup3\n  dup1\n  add\n  0x01\n  add\n  dup6\n  sstore\n  dup3\n  iszero\n  tag_31\n  jumpi\n  swap2\n  dup3\n  add\ntag_34:\n  dup3\n  dup2\n  gt\n  iszero\n  tag_35\n  jumpi\n  dup3\n  mload\n  dup3\n  sstore\n  swap2\n  0x20\n  add\n  swap2\n  swap1\n  0x01\n  add\n  swap1\n  jump(tag_34)\ntag_35:\ntag_31:\n  pop\n  swap1\n  pop\n  tag_36\n  swap2\n  swap1\n  tag_37\n  jump\t// in\ntag_36:\n  pop\n  swap1\n  jump\t// out\ntag_37:\ntag_38:\n  dup1\n  dup3\n  gt\n  iszero\n  tag_39\n  jumpi\n  0x00\n  dup2\n  0x00\n  swap1\n  sstore\n  pop\n  0x01\n  add\n  jump(tag_38)\ntag_39:\n  pop\n  swap1\n  jump\t// out\n    /* \"#utility.yul\":88:205   */\ntag_41:\n    /* \"#utility.yul\":197:198   */\n  0x00\n    /* \"#utility.yul\":194:195   */\n  dup1\n    /* \"#utility.yul\":187:199   */\n  revert\n    /* \"#utility.yul\":334:411   */\ntag_43:\n    /* \"#utility.yul\":371:378   */\n  0x00\n    /* \"#utility.yul\":400:405   */\n  dup2\n    /* \"#utility.yul\":389:405   */\n  swap1\n  pop\n    /* \"#utility.yul\":334:411   */\n  swap2\n  swap1\n  pop\n  jump\t// out\n    /* \"#utility.yul\":417:539   */\ntag_44:\n    /* \"#utility.yul\":490:514   */\n  tag_58\n    /* \"#utility.yul\":508:513   */\n  dup2\n    /* \"#utility.yul\":490:514   */\n  tag_43\n  jump\t// in\ntag_58:\n    /* \"#utility.yul\":483:488   */\n  dup2\n    /* \"#utility.yul\":480:515   */\n  eq\n    /* \"#utility.yul\":470:533   */\n  tag_59\n  jumpi\n    /* \"#utility.yul\":529:530   */\n  0x00\n    /* \"#utility.yul\":526:527   */\n  dup1\n    /* \"#utility.yul\":519:531   */\n  revert\n    /* \"#utility.yul\":470:533   */\ntag_59:\n    /* \"#utility.yul\":417:539   */\n  pop\n  jump\t// out\n    /* \"#utility.yul\":545:688   */\ntag_45:\n    /* \"#utility.yul\":602:607   */\n  0x00\n    /* \"#utility.yul\":633:639   */\n  dup2\n    /* \"#utility.yul\":627:640   */\n  mload\n    /* \"#utility.yul\":618:640   */\n  swap1\n  pop\n    /* \"#utility.yul\":649:682   */\n  tag_61\n    /* \"#utility.yul\":676:681   */\n  dup2\n    /* \"#utility.yul\":649:682   */\n  tag_44\n  jump\t// in\ntag_61:\n    /* \"#utility.yul\":545:688   */\n  swap3\n  swap2\n  pop\n  pop\n  jump\t// out\n    /* \"#utility.yul\":694:1045   */\ntag_3:\n    /* \"#utility.yul\":764:770   */\n  0x00\n    /* \"#utility.yul\":813:815   */\n  0x20\n    /* \"#utility.yul\":801:810   */\n  dup3\n    /* \"#utility.yul\":792:799   */\n  dup5\n    /* \"#utility.yul\":788:811   */\n  sub\n    /* \"#utility.yul\":784:816   */\n  slt\n    /* \"#utility.yul\":781:900   */\n  iszero\n  tag_63\n  jumpi\n    /* \"#utility.yul\":819:898   */\n  tag_64\n  tag_41\n  jump\t// in\ntag_64:\n    /* \"#utility.yul\":781:900   */\ntag_63:\n    /* \"#utility.yul\":939:940   */\n  0x00\n    /* \"#utility.yul\":964:1028   */\n  tag_65\n    /* \"#utility.yul\":1020:1027   */\n  dup5\n    /* \"#utility.yul\":1011:1017   */\n  dup3\n    /* \"#utility.yul\":1000:1009   */\n  dup6\n    /* \"#utility.yul\":996:1018   */\n  add\n    /* \"#utility.yul\":964:1028   */\n  tag_45\n  jump\t// in\ntag_65:\n    /* \"#utility.yul\":954:1028   */\n  swap2\n  pop\n    /* \"#utility.yul\":910:1038   */\n  pop\n    /* \"#utility.yul\":694:1045   */\n  swap3\n  swap2\n  pop\n  pop\n  jump\t// out\n    /* \"#utility.yul\":1051:1220   */\ntag_46:\n    /* \"#utility.yul\":1135:1146   */\n  0x00\n    /* \"#utility.yul\":1169:1175   */\n  dup3\n    /* \"#utility.yul\":1164:1167   */\n  dup3\n    /* \"#utility.yul\":1157:1176   */\n  mstore\n    /* \"#utility.yul\":1209:1213   */\n  0x20\n    /* \"#utility.yul\":1204:1207   */\n  dup3\n    /* \"#utility.yul\":1200:1214   */\n  add\n    /* \"#utility.yul\":1185:1214   */\n  swap1\n  pop\n    /* \"#utility.yul\":1051:1220   */\n  swap3\n  swap2\n  pop\n  pop\n  jump\t// out\n    /* \"#utility.yul\":1226:1407   */\ntag_47:\n    /* \"#utility.yul\":1366:1399   */\n  0x45524332303a206d696e7420746f20746865207a65726f206164647265737300\n    /* \"#utility.yul\":1362:1363   */\n  0x00\n    /* \"#utility.yul\":1354:1360   */\n  dup3\n    /* \"#utility.yul\":1350:1364   */\n  add\n    /* \"#utility.yul\":1343:1400   */\n  mstore\n    /* \"#utility.yul\":1226:1407   */\n  pop\n  jump\t// out\n    /* \"#utility.yul\":1413:1779   */\ntag_48:\n    /* \"#utility.yul\":1555:1558   */\n  0x00\n    /* \"#utility.yul\":1576:1643   */\n  tag_69\n    /* \"#utility.yul\":1640:1642   */\n  0x1f\n    /* \"#utility.yul\":1635:1638   */\n  dup4\n    /* \"#utility.yul\":1576:1643   */\n  tag_46\n  jump\t// in\ntag_69:\n    /* \"#utility.yul\":1569:1643   */\n  swap2\n  pop\n    /* \"#utility.yul\":1652:1745   */\n  tag_70\n    /* \"#utility.yul\":1741:1744   */\n  dup3\n    /* \"#utility.yul\":1652:1745   */\n  tag_47\n  jump\t// in\ntag_70:\n    /* \"#utility.yul\":1770:1772   */\n  0x20\n    /* \"#utility.yul\":1765:1768   */\n  dup3\n    /* \"#utility.yul\":1761:1773   */\n  add\n    /* \"#utility.yul\":1754:1773   */\n  swap1\n  pop\n    /* \"#utility.yul\":1413:1779   */\n  swap2\n  swap1\n  pop\n  jump\t// out\n    /* \"#utility.yul\":1785:2204   */\ntag_17:\n    /* \"#utility.yul\":1951:1955   */\n  0x00\n    /* \"#utility.yul\":1989:1991   */\n  0x20\n    /* \"#utility.yul\":1978:1987   */\n  dup3\n    /* \"#utility.yul\":1974:1992   */\n  add\n    /* \"#utility.yul\":1966:1992   */\n  swap1\n  pop\n    /* \"#utility.yul\":2038:2047   */\n  dup2\n    /* \"#utility.yul\":2032:2036   */\n  dup2\n    /* \"#utility.yul\":2028:2048   */\n  sub\n    /* \"#utility.yul\":2024:2025   */\n  0x00\n    /* \"#utility.yul\":2013:2022   */\n  dup4\n    /* \"#utility.yul\":2009:2026   */\n  add\n    /* \"#utility.yul\":2002:2049   */\n  mstore\n    /* \"#utility.yul\":2066:2197   */\n  tag_72\n    /* \"#utility.yul\":2192:2196   */\n  dup2\n    /* \"#utility.yul\":2066:2197   */\n  tag_48\n  jump\t// in\ntag_72:\n    /* \"#utility.yul\":2058:2197   */\n  swap1\n  pop\n    /* \"#utility.yul\":1785:2204   */\n  swap2\n  swap1\n  pop\n  jump\t// out\n    /* \"#utility.yul\":2210:2390   */\ntag_49:\n    /* \"#utility.yul\":2258:2335   */\n  0x4e487b7100000000000000000000000000000000000000000000000000000000\n    /* \"#utility.yul\":2255:2256   */\n  0x00\n    /* \"#utility.yul\":2248:2336   */\n  mstore\n    /* \"#utility.yul\":2355:2359   */\n  0x11\n    /* \"#utility.yul\":2352:2353   */\n  0x04\n    /* \"#utility.yul\":2345:2360   */\n  mstore\n    /* \"#utility.yul\":2379:2383   */\n  0x24\n    /* \"#utility.yul\":2376:2377   */\n  0x00\n    /* \"#utility.yul\":2369:2384   */\n  revert\n    /* \"#utility.yul\":2396:2701   */\ntag_21:\n    /* \"#utility.yul\":2436:2439   */\n  0x00\n    /* \"#utility.yul\":2455:2475   */\n  tag_75\n    /* \"#utility.yul\":2473:2474   */\n  dup3\n    /* \"#utility.yul\":2455:2475   */\n  tag_43\n  jump\t// in\ntag_75:\n    /* \"#utility.yul\":2450:2475   */\n  swap2\n  pop\n    /* \"#utility.yul\":2489:2509   */\n  tag_76\n    /* \"#utility.yul\":2507:2508   */\n  dup4\n    /* \"#utility.yul\":2489:2509   */\n  tag_43\n  jump\t// in\ntag_76:\n    /* \"#utility.yul\":2484:2509   */\n  swap3\n  pop\n    /* \"#utility.yul\":2643:2644   */\n  dup3\n    /* \"#utility.yul\":2575:2641   */\n  0xffffffffffffffffffffffffffffffffffffffffffffffffffffffffffffffff\n    /* \"#utility.yul\":2571:2645   */\n  sub\n    /* \"#utility.yul\":2568:2569   */\n  dup3\n    /* \"#utility.yul\":2565:2646   */\n  gt\n    /* \"#utility.yul\":2562:2669   */\n  iszero\n  tag_77\n  jumpi\n    /* \"#utility.yul\":2649:2667   */\n  tag_78\n  tag_49\n  jump\t// in\ntag_78:\n    /* \"#utility.yul\":2562:2669   */\ntag_77:\n    /* \"#utility.yul\":2693:2694   */\n  dup3\n    /* \"#utility.yul\":2690:2691   */\n  dup3\n    /* \"#utility.yul\":2686:2695   */\n  add\n    /* \"#utility.yul\":2679:2695   */\n  swap1\n  pop\n    /* \"#utility.yul\":2396:2701   */\n  swap3\n  swap2\n  pop\n  pop\n  jump\t// out\n    /* \"#utility.yul\":2707:2825   */\ntag_50:\n    /* \"#utility.yul\":2794:2818   */\n  tag_80\n    /* \"#utility.yul\":2812:2817   */\n  dup2\n    /* \"#utility.yul\":2794:2818   */\n  tag_43\n  jump\t// in\ntag_80:\n    /* \"#utility.yul\":2789:2792   */\n  dup3\n    /* \"#utility.yul\":2782:2819   */\n  mstore\n    /* \"#utility.yul\":2707:2825   */\n  pop\n  pop\n  jump\t// out\n    /* \"#utility.yul\":2831:3053   */\ntag_24:\n    /* \"#utility.yul\":2924:2928   */\n  0x00\n    /* \"#utility.yul\":2962:2964   */\n  0x20\n    /* \"#utility.yul\":2951:2960   */\n  dup3\n    /* \"#utility.yul\":2947:2965   */\n  add\n    /* \"#utility.yul\":2939:2965   */\n  swap1\n  pop\n    /* \"#utility.yul\":2975:3046   */\n  tag_82\n    /* \"#utility.yul\":3043:3044   */\n  0x00\n    /* \"#utility.yul\":3032:3041   */\n  dup4\n    /* \"#utility.yul\":3028:3045   */\n  add\n    /* \"#utility.yul\":3019:3025   */\n  dup5\n    /* \"#utility.yul\":2975:3046   */\n  tag_50\n  jump\t// in\ntag_82:\n    /* \"#utility.yul\":2831:3053   */\n  swap3\n  swap2\n  pop\n  pop\n  jump\t// out\n    /* \"#utility.yul\":3059:3239   */\ntag_51:\n    /* \"#utility.yul\":3107:3184   */\n  0x4e487b7100000000000000000000000000000000000000000000000000000000\n    /* \"#utility.yul\":3104:3105   */\n  0x00\n    /* \"#utility.yul\":3097:3185   */\n  mstore\n    /* \"#utility.yul\":3204:3208   */\n  0x22\n    /* \"#utility.yul\":3201:3202   */\n  0x04\n    /* \"#utility.yul\":3194:3209   */\n  mstore\n    /* \"#utility.yul\":3228:3232   */\n  0x24\n    /* \"#utility.yul\":3225:3226   */\n  0x00\n    /* \"#utility.yul\":3218:3233   */\n  revert\n    /* \"#utility.yul\":3245:3565   */\ntag_30:\n    /* \"#utility.yul\":3289:3295   */\n  0x00\n    /* \"#utility.yul\":3326:3327   */\n  0x02\n    /* \"#utility.yul\":3320:3324   */\n  dup3\n    /* \"#utility.yul\":3316:3328   */\n  div\n    /* \"#utility.yul\":3306:3328   */\n  swap1\n  pop\n    /* \"#utility.yul\":3373:3374   */\n  0x01\n    /* \"#utility.yul\":3367:3371   */\n  dup3\n    /* \"#utility.yul\":3363:3375   */\n  and\n    /* \"#utility.yul\":3394:3412   */\n  dup1\n    /* \"#utility.yul\":3384:3465   */\n  tag_85\n  jumpi\n    /* \"#utility.yul\":3450:3454   */\n  0x7f\n    /* \"#utility.yul\":3442:3448   */\n  dup3\n    /* \"#utility.yul\":3438:3455   */\n  and\n    /* \"#utility.yul\":3428:3455   */\n  swap2\n  pop\n    /* \"#utility.yul\":3384:3465   */\ntag_85:\n    /* \"#utility.yul\":3512:3514   */\n  0x20\n    /* \"#utility.yul\":3504:3510   */\n  dup3\n    /* \"#utility.yul\":3501:3515   */\n  lt\n    /* \"#utility.yul\":3481:3499   */\n  dup2\n    /* \"#utility.yul\":3478:3516   */\n  eq\n    /* \"#utility.yul\":3475:3559   */\n  iszero\n  tag_86\n  jumpi\n    /* \"#utility.yul\":3531:3549   */\n  tag_87\n  tag_51\n  jump\t// in\ntag_87:\n    /* \"#utility.yul\":3475:3559   */\ntag_86:\n    /* \"#utility.yul\":3296:3565   */\n  pop\n    /* \"#utility.yul\":3245:3565   */\n  swap2\n  swap1\n  pop\n  jump\t// out\n    /* \"backend/src/governance.sol\":190:2776  contract Voting is FunderGovToken{... */\ntag_13:\n  dataSize(sub_0)\n  dup1\n  dataOffset(sub_0)\n  0x00\n  codecopy\n  0x00\n  return\nstop\n\nsub_0: assembly {\n        /* \"backend/src/governance.sol\":190:2776  contract Voting is FunderGovToken{... */\n      mstore(0x40, 0x80)\n      callvalue\n      dup1\n      iszero\n      tag_1\n      jumpi\n      0x00\n      dup1\n      revert\n    tag_1:\n      pop\n      jumpi(tag_2, lt(calldatasize, 0x04))\n      shr(0xe0, calldataload(0x00))\n      dup1\n      0x89d38951\n      gt\n      tag_20\n      jumpi\n      dup1\n      0xabab7fa0\n      gt\n      tag_21\n      jumpi\n      dup1\n      0xabab7fa0\n      eq\n      tag_15\n      jumpi\n      dup1\n      0xc77c627d\n      eq\n      tag_16\n      jumpi\n      dup1\n      0xcb7be0fd\n      eq\n      tag_17\n      jumpi\n      dup1\n      0xdd62ed3e\n      eq\n      tag_18\n      jumpi\n      dup1\n      0xe3a17b3b\n      eq\n      tag_19\n      jumpi\n      jump(tag_2)\n    tag_21:\n      dup1\n      0x89d38951\n      eq\n      tag_11\n      jumpi\n      dup1\n      0x95d89b41\n      eq\n      tag_12\n      jumpi\n      dup1\n      0xa457c2d7\n      eq\n      tag_13\n      jumpi\n      dup1\n      0xa9059cbb\n      eq\n      tag_14\n      jumpi\n      jump(tag_2)\n    tag_20:\n      dup1\n      0x313ce567\n      gt\n      tag_22\n      jumpi\n      dup1\n      0x313ce567\n      eq\n      tag_7\n      jumpi\n      dup1\n      0x39509351\n      eq\n      tag_8\n      jumpi\n      dup1\n      0x66e5f2c5\n      eq\n      tag_9\n      jumpi\n      dup1\n      0x70a08231\n      eq\n      tag_10\n      jumpi\n      jump(tag_2)\n    tag_22:\n      dup1\n      0x06fdde03\n      eq\n      tag_3\n      jumpi\n      dup1\n      0x095ea7b3\n      eq\n      tag_4\n      jumpi\n      dup1\n      0x18160ddd\n      eq\n      tag_5\n      jumpi\n      dup1\n      0x23b872dd\n      eq\n      tag_6\n      jumpi\n    tag_2:\n      0x00\n      dup1\n      revert\n        /* \"backend/src/funderGovToken.sol\":1282:1380  function name() public view virtual override returns (string memory) {... */\n    tag_3:\n      tag_23\n      tag_24\n      jump\t// in\n    tag_23:\n      mload(0x40)\n      tag_25\n      swap2\n      swap1\n      tag_26\n      jump\t// in\n    tag_25:\n      mload(0x40)\n      dup1\n      swap2\n      sub\n      swap1\n      return\n        /* \"backend/src/funderGovToken.sol\":3368:3565  function approve(address spender, uint256 amount) public virtual override returns (bool) {... */\n    tag_4:\n      tag_27\n      0x04\n      dup1\n      calldatasize\n      sub\n      dup2\n      add\n      swap1\n      tag_28\n      swap2\n      swap1\n      tag_29\n      jump\t// in\n    tag_28:\n      tag_30\n      jump\t// in\n    tag_27:\n      mload(0x40)\n      tag_31\n      swap2\n      swap1\n      tag_32\n      jump\t// in\n    tag_31:\n      mload(0x40)\n      dup1\n      swap2\n      sub\n      swap1\n      return\n        /* \"backend/src/funderGovToken.sol\":2371:2477  function totalSupply() public view virtual override returns (uint256) {... */\n    tag_5:\n      tag_33\n      tag_34\n      jump\t// in\n    tag_33:\n      mload(0x40)\n      tag_35\n      swap2\n      swap1\n      tag_36\n      jump\t// in\n    tag_35:\n      mload(0x40)\n      dup1\n      swap2\n      sub\n      swap1\n      return\n        /* \"backend/src/funderGovToken.sol\":4127:4413  function transferFrom(... */\n    tag_6:\n      tag_37\n      0x04\n      dup1\n      calldatasize\n      sub\n      dup2\n      add\n      swap1\n      tag_38\n      swap2\n      swap1\n      tag_39\n      jump\t// in\n    tag_38:\n      tag_40\n      jump\t// in\n    tag_37:\n      mload(0x40)\n      tag_41\n      swap2\n      swap1\n      tag_32\n      jump\t// in\n    tag_41:\n      mload(0x40)\n      dup1\n      swap2\n      sub\n      swap1\n      return\n        /* \"backend/src/funderGovToken.sol\":2220:2311  function decimals() public view virtual override returns (uint8) {... */\n    tag_7:\n      tag_42\n      tag_43\n      jump\t// in\n    tag_42:\n      mload(0x40)\n      tag_44\n      swap2\n      swap1\n      tag_45\n      jump\t// in\n    tag_44:\n      mload(0x40)\n      dup1\n      swap2\n      sub\n      swap1\n      return\n        /* \"backend/src/funderGovToken.sol\":4808:5042  function increaseAllowance(address spender, uint256 addedValue) public virtual returns (bool) {... */\n    tag_8:\n      tag_46\n      0x04\n      dup1\n      calldatasize\n      sub\n      dup2\n      add\n      swap1\n      tag_47\n      swap2\n      swap1\n      tag_29\n      jump\t// in\n    tag_47:\n      tag_48\n      jump\t// in\n    tag_46:\n      mload(0x40)\n      tag_49\n      swap2\n      swap1\n      tag_32\n      jump\t// in\n    tag_49:\n      mload(0x40)\n      dup1\n      swap2\n      sub\n      swap1\n      return\n        /* \"backend/src/governance.sol\":1375:1906  function voteProposal(address castVote, uint amount) external checkUnlockToken(msg.sender, amount) {... */\n    tag_9:\n      tag_50\n      0x04\n      dup1\n      calldatasize\n      sub\n      dup2\n      add\n      swap1\n      tag_51\n      swap2\n      swap1\n      tag_29\n      jump\t// in\n    tag_51:\n      tag_52\n      jump\t// in\n    tag_50:\n      stop\n        /* \"backend/src/funderGovToken.sol\":2535:2660  function balanceOf(address account) public view virtual override returns (uint256) {... */\n    tag_10:\n      tag_53\n      0x04\n      dup1\n      calldatasize\n      sub\n      dup2\n      add\n      swap1\n      tag_54\n      swap2\n      swap1\n      tag_55\n      jump\t// in\n    tag_54:\n      tag_56\n      jump\t// in\n    tag_53:\n      mload(0x40)\n      tag_57\n      swap2\n      swap1\n      tag_36\n      jump\t// in\n    tag_57:\n      mload(0x40)\n      dup1\n      swap2\n      sub\n      swap1\n      return\n        /* \"backend/src/governance.sol\":408:467  mapping (address => mapping(address => bool))public govVote */\n    tag_11:\n      tag_58\n      0x04\n      dup1\n      calldatasize\n      sub\n      dup2\n      add\n      swap1\n      tag_59\n      swap2\n      swap1\n      tag_60\n      jump\t// in\n    tag_59:\n      tag_61\n      jump\t// in\n    tag_58:\n      mload(0x40)\n      tag_62\n      swap2\n      swap1\n      tag_32\n      jump\t// in\n    tag_62:\n      mload(0x40)\n      dup1\n      swap2\n      sub\n      swap1\n      return\n        /* \"backend/src/funderGovToken.sol\":1493:1595  function symbol() public view virtual override returns (string memory) {... */\n    tag_12:\n      tag_63\n      tag_64\n      jump\t// in\n    tag_63:\n      mload(0x40)\n      tag_65\n      swap2\n      swap1\n      tag_26\n      jump\t// in\n    tag_65:\n      mload(0x40)\n      dup1\n      swap2\n      sub\n      swap1\n      return\n        /* \"backend/src/funderGovToken.sol\":5529:5956  function decreaseAllowance(address spender, uint256 subtractedValue) public virtual returns (bool) {... */\n    tag_13:\n      tag_66\n      0x04\n      dup1\n      calldatasize\n      sub\n      dup2\n      add\n      swap1\n      tag_67\n      swap2\n      swap1\n      tag_29\n      jump\t// in\n    tag_67:\n      tag_68\n      jump\t// in\n    tag_66:\n      mload(0x40)\n      tag_69\n      swap2\n      swap1\n      tag_32\n      jump\t// in\n    tag_69:\n      mload(0x40)\n      dup1\n      swap2\n      sub\n      swap1\n      return\n        /* \"backend/src/funderGovToken.sol\":2671:2852  function transfer(address to, uint256 amount) public override returns (bool) {... */\n    tag_14:\n      tag_70\n      0x04\n      dup1\n      calldatasize\n      sub\n      dup2\n      add\n      swap1\n      tag_71\n      swap2\n      swap1\n      tag_29\n      jump\t// in\n    tag_71:\n      tag_72\n      jump\t// in\n    tag_70:\n      mload(0x40)\n      tag_73\n      swap2\n      swap1\n      tag_32\n      jump\t// in\n    tag_73:\n      mload(0x40)\n      dup1\n      swap2\n      sub\n      swap1\n      return\n        /* \"backend/src/governance.sol\":473:537  mapping (address => mapping(address => uint))public govVoteCount */\n    tag_15:\n      tag_74\n      0x04\n      dup1\n      calldatasize\n      sub\n      dup2\n      add\n      swap1\n      tag_75\n      swap2\n      swap1\n      tag_60\n      jump\t// in\n    tag_75:\n      tag_76\n      jump\t// in\n    tag_74:\n      mload(0x40)\n      tag_77\n      swap2\n      swap1\n      tag_36\n      jump\t// in\n    tag_77:\n      mload(0x40)\n      dup1\n      swap2\n      sub\n      swap1\n      return\n        /* \"backend/src/governance.sol\":543:590  mapping (address => bool) public RequestGranted */\n    tag_16:\n      tag_78\n      0x04\n      dup1\n      calldatasize\n      sub\n      dup2\n      add\n      swap1\n      tag_79\n      swap2\n      swap1\n      tag_55\n      jump\t// in\n    tag_79:\n      tag_80\n      jump\t// in\n    tag_78:\n      mload(0x40)\n      tag_81\n      swap2\n      swap1\n      tag_32\n      jump\t// in\n    tag_81:\n      mload(0x40)\n      dup1\n      swap2\n      sub\n      swap1\n      return\n        /* \"backend/src/governance.sol\":2315:2567  function unLocked( address castVote) external{... */\n    tag_17:\n      tag_82\n      0x04\n      dup1\n      calldatasize\n      sub\n      dup2\n      add\n      swap1\n      tag_83\n      swap2\n      swap1\n      tag_55\n      jump\t// in\n    tag_83:\n      tag_84\n      jump\t// in\n    tag_82:\n      stop\n        /* \"backend/src/funderGovToken.sol\":2911:3060  function allowance(address owner, address spender) public view virtual override returns (uint256) {... */\n    tag_18:\n      tag_85\n      0x04\n      dup1\n      calldatasize\n      sub\n      dup2\n      add\n      swap1\n      tag_86\n      swap2\n      swap1\n      tag_60\n      jump\t// in\n    tag_86:\n      tag_87\n      jump\t// in\n    tag_85:\n      mload(0x40)\n      tag_88\n      swap2\n      swap1\n      tag_36\n      jump\t// in\n    tag_88:\n      mload(0x40)\n      dup1\n      swap2\n      sub\n      swap1\n      return\n        /* \"backend/src/governance.sol\":2633:2770  function getBeneficiaryVotingStatus(address beneficiary) public view returns(bool status){... */\n    tag_19:\n      tag_89\n      0x04\n      dup1\n      calldatasize\n      sub\n      dup2\n      add\n      swap1\n      tag_90\n      swap2\n      swap1\n      tag_55\n      jump\t// in\n    tag_90:\n      tag_91\n      jump\t// in\n    tag_89:\n      mload(0x40)\n      tag_92\n      swap2\n      swap1\n      tag_32\n      jump\t// in\n    tag_92:\n      mload(0x40)\n      dup1\n      swap2\n      sub\n      swap1\n      return\n        /* \"backend/src/funderGovToken.sol\":1282:1380  function name() public view virtual override returns (string memory) {... */\n    tag_24:\n        /* \"backend/src/funderGovToken.sol\":1336:1349  string memory */\n      0x60\n        /* \"backend/src/funderGovToken.sol\":1368:1373  _name */\n      0x01\n        /* \"backend/src/funderGovToken.sol\":1361:1373  return _name */\n      dup1\n      sload\n      tag_94\n      swap1\n      tag_95\n      jump\t// in\n    tag_94:\n      dup1\n      0x1f\n      add\n      0x20\n      dup1\n      swap2\n      div\n      mul\n      0x20\n      add\n      mload(0x40)\n      swap1\n      dup2\n      add\n      0x40\n      mstore\n      dup1\n      swap3\n      swap2\n      swap1\n      dup2\n      dup2\n      mstore\n      0x20\n      add\n      dup3\n      dup1\n      sload\n      tag_96\n      swap1\n      tag_95\n      jump\t// in\n    tag_96:\n      dup1\n      iszero\n      tag_97\n      jumpi\n      dup1\n      0x1f\n      lt\n      tag_98\n      jumpi\n      0x0100\n      dup1\n      dup4\n      sload\n      div\n      mul\n      dup4\n      mstore\n      swap2\n      0x20\n      add\n      swap2\n      jump(tag_97)\n    tag_98:\n      dup3\n      add\n      swap2\n      swap1\n      0x00\n      mstore\n      keccak256(0x00, 0x20)\n      swap1\n    tag_99:\n      dup2\n      sload\n      dup2\n      mstore\n      swap1\n      0x01\n      add\n      swap1\n      0x20\n      add\n      dup1\n      dup4\n      gt\n      tag_99\n      jumpi\n      dup3\n      swap1\n      sub\n      0x1f\n      and\n      dup3\n      add\n      swap2\n    tag_97:\n      pop\n      pop\n      pop\n      pop\n      pop\n      swap1\n      pop\n        /* \"backend/src/funderGovToken.sol\":1282:1380  function name() public view virtual override returns (string memory) {... */\n      swap1\n      jump\t// out\n        /* \"backend/src/funderGovToken.sol\":3368:3565  function approve(address spender, uint256 amount) public virtual override returns (bool) {... */\n    tag_30:\n        /* \"backend/src/funderGovToken.sol\":3451:3455  bool */\n      0x00\n        /* \"backend/src/funderGovToken.sol\":3467:3480  address owner */\n      dup1\n        /* \"backend/src/funderGovToken.sol\":3483:3495  _msgSender() */\n      tag_101\n        /* \"backend/src/funderGovToken.sol\":3483:3493  _msgSender */\n      tag_102\n        /* \"backend/src/funderGovToken.sol\":3483:3495  _msgSender() */\n      jump\t// in\n    tag_101:\n        /* \"backend/src/funderGovToken.sol\":3467:3495  address owner = _msgSender() */\n      swap1\n      pop\n        /* \"backend/src/funderGovToken.sol\":3505:3537  _approve(owner, spender, amount) */\n      tag_103\n        /* \"backend/src/funderGovToken.sol\":3514:3519  owner */\n      dup2\n        /* \"backend/src/funderGovToken.sol\":3521:3528  spender */\n      dup6\n        /* \"backend/src/funderGovToken.sol\":3530:3536  amount */\n      dup6\n        /* \"backend/src/funderGovToken.sol\":3505:3513  _approve */\n      tag_104\n        /* \"backend/src/funderGovToken.sol\":3505:3537  _approve(owner, spender, amount) */\n      jump\t// in\n    tag_103:\n        /* \"backend/src/funderGovToken.sol\":3554:3558  true */\n      0x01\n        /* \"backend/src/funderGovToken.sol\":3547:3558  return true */\n      swap2\n      pop\n      pop\n        /* \"backend/src/funderGovToken.sol\":3368:3565  function approve(address spender, uint256 amount) public virtual override returns (bool) {... */\n      swap3\n      swap2\n      pop\n      pop\n      jump\t// out\n        /* \"backend/src/funderGovToken.sol\":2371:2477  function totalSupply() public view virtual override returns (uint256) {... */\n    tag_34:\n        /* \"backend/src/funderGovToken.sol\":2432:2439  uint256 */\n      0x00\n        /* \"backend/src/funderGovToken.sol\":2458:2470  _totalSupply */\n      dup1\n      sload\n        /* \"backend/src/funderGovToken.sol\":2451:2470  return _totalSupply */\n      swap1\n      pop\n        /* \"backend/src/funderGovToken.sol\":2371:2477  function totalSupply() public view virtual override returns (uint256) {... */\n      swap1\n      jump\t// out\n        /* \"backend/src/funderGovToken.sol\":4127:4413  function transferFrom(... */\n    tag_40:\n        /* \"backend/src/funderGovToken.sol\":4254:4258  bool */\n      0x00\n        /* \"backend/src/funderGovToken.sol\":4270:4285  address spender */\n      dup1\n        /* \"backend/src/funderGovToken.sol\":4288:4300  _msgSender() */\n      tag_107\n        /* \"backend/src/funderGovToken.sol\":4288:4298  _msgSender */\n      tag_102\n        /* \"backend/src/funderGovToken.sol\":4288:4300  _msgSender() */\n      jump\t// in\n    tag_107:\n        /* \"backend/src/funderGovToken.sol\":4270:4300  address spender = _msgSender() */\n      swap1\n      pop\n        /* \"backend/src/funderGovToken.sol\":4310:4348  _spendAllowance(from, spender, amount) */\n      tag_108\n        /* \"backend/src/funderGovToken.sol\":4326:4330  from */\n      dup6\n        /* \"backend/src/funderGovToken.sol\":4332:4339  spender */\n      dup3\n        /* \"backend/src/funderGovToken.sol\":4341:4347  amount */\n      dup6\n        /* \"backend/src/funderGovToken.sol\":4310:4325  _spendAllowance */\n      tag_109\n        /* \"backend/src/funderGovToken.sol\":4310:4348  _spendAllowance(from, spender, amount) */\n      jump\t// in\n    tag_108:\n        /* \"backend/src/funderGovToken.sol\":4358:4385  _transfer(from, to, amount) */\n      tag_110\n        /* \"backend/src/funderGovToken.sol\":4368:4372  from */\n      dup6\n        /* \"backend/src/funderGovToken.sol\":4374:4376  to */\n      dup6\n        /* \"backend/src/funderGovToken.sol\":4378:4384  amount */\n      dup6\n        /* \"backend/src/funderGovToken.sol\":4358:4367  _transfer */\n      tag_111\n        /* \"backend/src/funderGovToken.sol\":4358:4385  _transfer(from, to, amount) */\n      jump\t// in\n    tag_110:\n        /* \"backend/src/funderGovToken.sol\":4402:4406  true */\n      0x01\n        /* \"backend/src/funderGovToken.sol\":4395:4406  return true */\n      swap2\n      pop\n      pop\n        /* \"backend/src/funderGovToken.sol\":4127:4413  function transferFrom(... */\n      swap4\n      swap3\n      pop\n      pop\n      pop\n      jump\t// out\n        /* \"backend/src/funderGovToken.sol\":2220:2311  function decimals() public view virtual override returns (uint8) {... */\n    tag_43:\n        /* \"backend/src/funderGovToken.sol\":2278:2283  uint8 */\n      0x00\n        /* \"backend/src/funderGovToken.sol\":2302:2304  18 */\n      0x12\n        /* \"backend/src/funderGovToken.sol\":2295:2304  return 18 */\n      swap1\n      pop\n        /* \"backend/src/funderGovToken.sol\":2220:2311  function decimals() public view virtual override returns (uint8) {... */\n      swap1\n      jump\t// out\n        /* \"backend/src/funderGovToken.sol\":4808:5042  function increaseAllowance(address spender, uint256 addedValue) public virtual returns (bool) {... */\n    tag_48:\n        /* \"backend/src/funderGovToken.sol\":4896:4900  bool */\n      0x00\n        /* \"backend/src/funderGovToken.sol\":4912:4925  address owner */\n      dup1\n        /* \"backend/src/funderGovToken.sol\":4928:4940  _msgSender() */\n      tag_114\n        /* \"backend/src/funderGovToken.sol\":4928:4938  _msgSender */\n      tag_102\n        /* \"backend/src/funderGovToken.sol\":4928:4940  _msgSender() */\n      jump\t// in\n    tag_114:\n        /* \"backend/src/funderGovToken.sol\":4912:4940  address owner = _msgSender() */\n      swap1\n      pop\n        /* \"backend/src/funderGovToken.sol\":4950:5014  _approve(owner, spender, allowance(owner, spender) + addedValue) */\n      tag_115\n        /* \"backend/src/funderGovToken.sol\":4959:4964  owner */\n      dup2\n        /* \"backend/src/funderGovToken.sol\":4966:4973  spender */\n      dup6\n        /* \"backend/src/funderGovToken.sol\":5003:5013  addedValue */\n      dup6\n        /* \"backend/src/funderGovToken.sol\":4975:5000  allowance(owner, spender) */\n      tag_116\n        /* \"backend/src/funderGovToken.sol\":4985:4990  owner */\n      dup6\n        /* \"backend/src/funderGovToken.sol\":4992:4999  spender */\n      dup10\n        /* \"backend/src/funderGovToken.sol\":4975:4984  allowance */\n      tag_87\n        /* \"backend/src/funderGovToken.sol\":4975:5000  allowance(owner, spender) */\n      jump\t// in\n    tag_116:\n        /* \"backend/src/funderGovToken.sol\":4975:5013  allowance(owner, spender) + addedValue */\n      tag_117\n      swap2\n      swap1\n      tag_118\n      jump\t// in\n    tag_117:\n        /* \"backend/src/funderGovToken.sol\":4950:4958  _approve */\n      tag_104\n        /* \"backend/src/funderGovToken.sol\":4950:5014  _approve(owner, spender, allowance(owner, spender) + addedValue) */\n      jump\t// in\n    tag_115:\n        /* \"backend/src/funderGovToken.sol\":5031:5035  true */\n      0x01\n        /* \"backend/src/funderGovToken.sol\":5024:5035  return true */\n      swap2\n      pop\n      pop\n        /* \"backend/src/funderGovToken.sol\":4808:5042  function increaseAllowance(address spender, uint256 addedValue) public virtual returns (bool) {... */\n      swap3\n      swap2\n      pop\n      pop\n      jump\t// out\n        /* \"backend/src/governance.sol\":1375:1906  function voteProposal(address castVote, uint amount) external checkUnlockToken(msg.sender, amount) {... */\n    tag_52:\n        /* \"backend/src/governance.sol\":1454:1464  msg.sender */\n      caller\n        /* \"backend/src/governance.sol\":1466:1472  amount */\n      dup2\n        /* \"backend/src/governance.sol\":908:924  uint valueLocked */\n      0x00\n        /* \"backend/src/governance.sol\":927:938  lockedToken */\n      0x05\n        /* \"backend/src/governance.sol\":927:950  lockedToken[msg.sender] */\n      0x00\n        /* \"backend/src/governance.sol\":939:949  msg.sender */\n      caller\n        /* \"backend/src/governance.sol\":927:950  lockedToken[msg.sender] */\n      0xffffffffffffffffffffffffffffffffffffffff\n      and\n      0xffffffffffffffffffffffffffffffffffffffff\n      and\n      dup2\n      mstore\n      0x20\n      add\n      swap1\n      dup2\n      mstore\n      0x20\n      add\n      0x00\n      keccak256\n      sload\n        /* \"backend/src/governance.sol\":908:950  uint valueLocked = lockedToken[msg.sender] */\n      swap1\n      pop\n        /* \"backend/src/governance.sol\":958:966  uint bal */\n      0x00\n        /* \"backend/src/governance.sol\":969:985  balanceOf(owner) */\n      tag_120\n        /* \"backend/src/governance.sol\":979:984  owner */\n      dup5\n        /* \"backend/src/governance.sol\":969:978  balanceOf */\n      tag_56\n        /* \"backend/src/governance.sol\":969:985  balanceOf(owner) */\n      jump\t// in\n    tag_120:\n        /* \"backend/src/governance.sol\":958:985  uint bal = balanceOf(owner) */\n      swap1\n      pop\n        /* \"backend/src/governance.sol\":1024:1027  bal */\n      dup1\n        /* \"backend/src/governance.sol\":1015:1021  amount */\n      dup4\n        /* \"backend/src/governance.sol\":1001:1012  valueLocked */\n      dup4\n        /* \"backend/src/governance.sol\":1001:1021  valueLocked + amount */\n      tag_121\n      swap2\n      swap1\n      tag_118\n      jump\t// in\n    tag_121:\n        /* \"backend/src/governance.sol\":1001:1027  valueLocked + amount < bal */\n      lt\n        /* \"backend/src/governance.sol\":993:1060  require(valueLocked + amount < bal, \"you don't have token to vote\") */\n      tag_122\n      jumpi\n      mload(0x40)\n      0x08c379a000000000000000000000000000000000000000000000000000000000\n      dup2\n      mstore\n      0x04\n      add\n      tag_123\n      swap1\n      tag_124\n      jump\t// in\n    tag_123:\n      mload(0x40)\n      dup1\n      swap2\n      sub\n      swap1\n      revert\n    tag_122:\n        /* \"backend/src/governance.sol\":1514:1515  0 */\n      0x00\n        /* \"backend/src/governance.sol\":1503:1511  aYesVote */\n      sload(0x07)\n        /* \"backend/src/governance.sol\":1493:1499  amount */\n      dup7\n        /* \"backend/src/governance.sol\":1493:1511  amount  % aYesVote */\n      tag_126\n      swap2\n      swap1\n      tag_127\n      jump\t// in\n    tag_126:\n        /* \"backend/src/governance.sol\":1493:1515  amount  % aYesVote== 0 */\n      eq\n        /* \"backend/src/governance.sol\":1485:1538  require(amount  % aYesVote== 0, \"10 tokens is 1 yes\") */\n      tag_128\n      jumpi\n      mload(0x40)\n      0x08c379a000000000000000000000000000000000000000000000000000000000\n      dup2\n      mstore\n      0x04\n      add\n      tag_129\n      swap1\n      tag_130\n      jump\t// in\n    tag_129:\n      mload(0x40)\n      dup1\n      swap2\n      sub\n      swap1\n      revert\n    tag_128:\n        /* \"backend/src/governance.sol\":1558:1565  govVote */\n      0x09\n        /* \"backend/src/governance.sol\":1558:1577  govVote[msg.sender] */\n      0x00\n        /* \"backend/src/governance.sol\":1566:1576  msg.sender */\n      caller\n        /* \"backend/src/governance.sol\":1558:1577  govVote[msg.sender] */\n      0xffffffffffffffffffffffffffffffffffffffff\n      and\n      0xffffffffffffffffffffffffffffffffffffffff\n      and\n      dup2\n      mstore\n      0x20\n      add\n      swap1\n      dup2\n      mstore\n      0x20\n      add\n      0x00\n      keccak256\n        /* \"backend/src/governance.sol\":1558:1587  govVote[msg.sender][castVote] */\n      0x00\n        /* \"backend/src/governance.sol\":1578:1586  castVote */\n      dup8\n        /* \"backend/src/governance.sol\":1558:1587  govVote[msg.sender][castVote] */\n      0xffffffffffffffffffffffffffffffffffffffff\n      and\n      0xffffffffffffffffffffffffffffffffffffffff\n      and\n      dup2\n      mstore\n      0x20\n      add\n      swap1\n      dup2\n      mstore\n      0x20\n      add\n      0x00\n      keccak256\n      0x00\n      swap1\n      sload\n      swap1\n      0x0100\n      exp\n      swap1\n      div\n      0xff\n      and\n        /* \"backend/src/governance.sol\":1556:1588  !(govVote[msg.sender][castVote]) */\n      iszero\n        /* \"backend/src/governance.sol\":1549:1589  assert(!(govVote[msg.sender][castVote])) */\n      tag_131\n      jumpi\n      tag_132\n      tag_133\n      jump\t// in\n    tag_132:\n    tag_131:\n        /* \"backend/src/governance.sol\":1600:1613  uint noOfVote */\n      0x00\n        /* \"backend/src/governance.sol\":1625:1633  aYesVote */\n      sload(0x07)\n        /* \"backend/src/governance.sol\":1616:1622  amount */\n      dup7\n        /* \"backend/src/governance.sol\":1616:1633  amount / aYesVote */\n      tag_134\n      swap2\n      swap1\n      tag_135\n      jump\t// in\n    tag_134:\n        /* \"backend/src/governance.sol\":1600:1633  uint noOfVote = amount / aYesVote */\n      swap1\n      pop\n        /* \"backend/src/governance.sol\":1644:1671  lockToken(amount, castVote) */\n      tag_136\n        /* \"backend/src/governance.sol\":1654:1660  amount */\n      dup7\n        /* \"backend/src/governance.sol\":1662:1670  castVote */\n      dup9\n        /* \"backend/src/governance.sol\":1644:1653  lockToken */\n      tag_137\n        /* \"backend/src/governance.sol\":1644:1671  lockToken(amount, castVote) */\n      jump\t// in\n    tag_136:\n        /* \"backend/src/governance.sol\":1720:1728  noOfVote */\n      dup1\n        /* \"backend/src/governance.sol\":1682:1694  govVoteCount */\n      0x0a\n        /* \"backend/src/governance.sol\":1682:1706  govVoteCount[msg.sender] */\n      0x00\n        /* \"backend/src/governance.sol\":1695:1705  msg.sender */\n      caller\n        /* \"backend/src/governance.sol\":1682:1706  govVoteCount[msg.sender] */\n      0xffffffffffffffffffffffffffffffffffffffff\n      and\n      0xffffffffffffffffffffffffffffffffffffffff\n      and\n      dup2\n      mstore\n      0x20\n      add\n      swap1\n      dup2\n      mstore\n      0x20\n      add\n      0x00\n      keccak256\n        /* \"backend/src/governance.sol\":1682:1716  govVoteCount[msg.sender][castVote] */\n      0x00\n        /* \"backend/src/governance.sol\":1707:1715  castVote */\n      dup10\n        /* \"backend/src/governance.sol\":1682:1716  govVoteCount[msg.sender][castVote] */\n      0xffffffffffffffffffffffffffffffffffffffff\n      and\n      0xffffffffffffffffffffffffffffffffffffffff\n      and\n      dup2\n      mstore\n      0x20\n      add\n      swap1\n      dup2\n      mstore\n      0x20\n      add\n      0x00\n      keccak256\n      0x00\n        /* \"backend/src/governance.sol\":1682:1728  govVoteCount[msg.sender][castVote] += noOfVote */\n      dup3\n      dup3\n      sload\n      tag_138\n      swap2\n      swap1\n      tag_118\n      jump\t// in\n    tag_138:\n      swap3\n      pop\n      pop\n      dup2\n      swap1\n      sstore\n      pop\n        /* \"backend/src/governance.sol\":1780:1795  MINIMUMAPPROVAL */\n      sload(0x08)\n        /* \"backend/src/governance.sol\":1742:1754  govVoteCount */\n      0x0a\n        /* \"backend/src/governance.sol\":1742:1766  govVoteCount[msg.sender] */\n      0x00\n        /* \"backend/src/governance.sol\":1755:1765  msg.sender */\n      caller\n        /* \"backend/src/governance.sol\":1742:1766  govVoteCount[msg.sender] */\n      0xffffffffffffffffffffffffffffffffffffffff\n      and\n      0xffffffffffffffffffffffffffffffffffffffff\n      and\n      dup2\n      mstore\n      0x20\n      add\n      swap1\n      dup2\n      mstore\n      0x20\n      add\n      0x00\n      keccak256\n        /* \"backend/src/governance.sol\":1742:1776  govVoteCount[msg.sender][castVote] */\n      0x00\n        /* \"backend/src/governance.sol\":1767:1775  castVote */\n      dup10\n        /* \"backend/src/governance.sol\":1742:1776  govVoteCount[msg.sender][castVote] */\n      0xffffffffffffffffffffffffffffffffffffffff\n      and\n      0xffffffffffffffffffffffffffffffffffffffff\n      and\n      dup2\n      mstore\n      0x20\n      add\n      swap1\n      dup2\n      mstore\n      0x20\n      add\n      0x00\n      keccak256\n      sload\n        /* \"backend/src/governance.sol\":1742:1795  govVoteCount[msg.sender][castVote] >= MINIMUMAPPROVAL */\n      lt\n        /* \"backend/src/governance.sol\":1739:1856  if(govVoteCount[msg.sender][castVote] >= MINIMUMAPPROVAL){... */\n      tag_139\n      jumpi\n        /* \"backend/src/governance.sol\":1837:1841  true */\n      0x01\n        /* \"backend/src/governance.sol\":1810:1824  RequestGranted */\n      0x0b\n        /* \"backend/src/governance.sol\":1810:1834  RequestGranted[castVote] */\n      0x00\n        /* \"backend/src/governance.sol\":1825:1833  castVote */\n      dup10\n        /* \"backend/src/governance.sol\":1810:1834  RequestGranted[castVote] */\n      0xffffffffffffffffffffffffffffffffffffffff\n      and\n      0xffffffffffffffffffffffffffffffffffffffff\n      and\n      dup2\n      mstore\n      0x20\n      add\n      swap1\n      dup2\n      mstore\n      0x20\n      add\n      0x00\n      keccak256\n      0x00\n        /* \"backend/src/governance.sol\":1810:1841  RequestGranted[castVote] = true */\n      0x0100\n      exp\n      dup2\n      sload\n      dup2\n      0xff\n      mul\n      not\n      and\n      swap1\n      dup4\n      iszero\n      iszero\n      mul\n      or\n      swap1\n      sstore\n      pop\n        /* \"backend/src/governance.sol\":1739:1856  if(govVoteCount[msg.sender][castVote] >= MINIMUMAPPROVAL){... */\n    tag_139:\n        /* \"backend/src/governance.sol\":1889:1897  castVote */\n      dup7\n        /* \"backend/src/governance.sol\":1871:1898  Voted(msg.sender, castVote) */\n      0xffffffffffffffffffffffffffffffffffffffff\n      and\n        /* \"backend/src/governance.sol\":1877:1887  msg.sender */\n      caller\n        /* \"backend/src/governance.sol\":1871:1898  Voted(msg.sender, castVote) */\n      0xffffffffffffffffffffffffffffffffffffffff\n      and\n      0xce0c7a2a940807f7dc2ce7a615c2532e915e6c0ac9a08bc4ed9d515a710a53e2\n      mload(0x40)\n      mload(0x40)\n      dup1\n      swap2\n      sub\n      swap1\n      log3\n        /* \"backend/src/governance.sol\":1474:1906  {... */\n      pop\n        /* \"backend/src/governance.sol\":900:1074  {... */\n      pop\n      pop\n        /* \"backend/src/governance.sol\":1375:1906  function voteProposal(address castVote, uint amount) external checkUnlockToken(msg.sender, amount) {... */\n      pop\n      pop\n      pop\n      pop\n      jump\t// out\n        /* \"backend/src/funderGovToken.sol\":2535:2660  function balanceOf(address account) public view virtual override returns (uint256) {... */\n    tag_56:\n        /* \"backend/src/funderGovToken.sol\":2609:2616  uint256 */\n      0x00\n        /* \"backend/src/funderGovToken.sol\":2635:2644  _balances */\n      0x04\n        /* \"backend/src/funderGovToken.sol\":2635:2653  _balances[account] */\n      0x00\n        /* \"backend/src/funderGovToken.sol\":2645:2652  account */\n      dup4\n        /* \"backend/src/funderGovToken.sol\":2635:2653  _balances[account] */\n      0xffffffffffffffffffffffffffffffffffffffff\n      and\n      0xffffffffffffffffffffffffffffffffffffffff\n      and\n      dup2\n      mstore\n      0x20\n      add\n      swap1\n      dup2\n      mstore\n      0x20\n      add\n      0x00\n      keccak256\n      sload\n        /* \"backend/src/funderGovToken.sol\":2628:2653  return _balances[account] */\n      swap1\n      pop\n        /* \"backend/src/funderGovToken.sol\":2535:2660  function balanceOf(address account) public view virtual override returns (uint256) {... */\n      swap2\n      swap1\n      pop\n      jump\t// out\n        /* \"backend/src/governance.sol\":408:467  mapping (address => mapping(address => bool))public govVote */\n    tag_61:\n      mstore(0x20, 0x09)\n      dup2\n      0x00\n      mstore\n      mstore(0x20, keccak256(0x00, 0x40))\n      dup1\n      0x00\n      mstore\n      keccak256(0x00, 0x40)\n      0x00\n      swap2\n      pop\n      swap2\n      pop\n      swap1\n      sload\n      swap1\n      0x0100\n      exp\n      swap1\n      div\n      0xff\n      and\n      dup2\n      jump\t// out\n        /* \"backend/src/funderGovToken.sol\":1493:1595  function symbol() public view virtual override returns (string memory) {... */\n    tag_64:\n        /* \"backend/src/funderGovToken.sol\":1549:1562  string memory */\n      0x60\n        /* \"backend/src/funderGovToken.sol\":1581:1588  _symbol */\n      0x02\n        /* \"backend/src/funderGovToken.sol\":1574:1588  return _symbol */\n      dup1\n      sload\n      tag_142\n      swap1\n      tag_95\n      jump\t// in\n    tag_142:\n      dup1\n      0x1f\n      add\n      0x20\n      dup1\n      swap2\n      div\n      mul\n      0x20\n      add\n      mload(0x40)\n      swap1\n      dup2\n      add\n      0x40\n      mstore\n      dup1\n      swap3\n      swap2\n      swap1\n      dup2\n      dup2\n      mstore\n      0x20\n      add\n      dup3\n      dup1\n      sload\n      tag_143\n      swap1\n      tag_95\n      jump\t// in\n    tag_143:\n      dup1\n      iszero\n      tag_144\n      jumpi\n      dup1\n      0x1f\n      lt\n      tag_145\n      jumpi\n      0x0100\n      dup1\n      dup4\n      sload\n      div\n      mul\n      dup4\n      mstore\n      swap2\n      0x20\n      add\n      swap2\n      jump(tag_144)\n    tag_145:\n      dup3\n      add\n      swap2\n      swap1\n      0x00\n      mstore\n      keccak256(0x00, 0x20)\n      swap1\n    tag_146:\n      dup2\n      sload\n      dup2\n      mstore\n      swap1\n      0x01\n      add\n      swap1\n      0x20\n      add\n      dup1\n      dup4\n      gt\n      tag_146\n      jumpi\n      dup3\n      swap1\n      sub\n      0x1f\n      and\n      dup3\n      add\n      swap2\n    tag_144:\n      pop\n      pop\n      pop\n      pop\n      pop\n      swap1\n      pop\n        /* \"backend/src/funderGovToken.sol\":1493:1595  function symbol() public view virtual override returns (string memory) {... */\n      swap1\n      jump\t// out\n        /* \"backend/src/funderGovToken.sol\":5529:5956  function decreaseAllowance(address spender, uint256 subtractedValue) public virtual returns (bool) {... */\n    tag_68:\n        /* \"backend/src/funderGovToken.sol\":5622:5626  bool */\n      0x00\n        /* \"backend/src/funderGovToken.sol\":5638:5651  address owner */\n      dup1\n        /* \"backend/src/funderGovToken.sol\":5654:5666  _msgSender() */\n      tag_148\n        /* \"backend/src/funderGovToken.sol\":5654:5664  _msgSender */\n      tag_102\n        /* \"backend/src/funderGovToken.sol\":5654:5666  _msgSender() */\n      jump\t// in\n    tag_148:\n        /* \"backend/src/funderGovToken.sol\":5638:5666  address owner = _msgSender() */\n      swap1\n      pop\n        /* \"backend/src/funderGovToken.sol\":5676:5700  uint256 currentAllowance */\n      0x00\n        /* \"backend/src/funderGovToken.sol\":5703:5728  allowance(owner, spender) */\n      tag_149\n        /* \"backend/src/funderGovToken.sol\":5713:5718  owner */\n      dup3\n        /* \"backend/src/funderGovToken.sol\":5720:5727  spender */\n      dup7\n        /* \"backend/src/funderGovToken.sol\":5703:5712  allowance */\n      tag_87\n        /* \"backend/src/funderGovToken.sol\":5703:5728  allowance(owner, spender) */\n      jump\t// in\n    tag_149:\n        /* \"backend/src/funderGovToken.sol\":5676:5728  uint256 currentAllowance = allowance(owner, spender) */\n      swap1\n      pop\n        /* \"backend/src/funderGovToken.sol\":5766:5781  subtractedValue */\n      dup4\n        /* \"backend/src/funderGovToken.sol\":5746:5762  currentAllowance */\n      dup2\n        /* \"backend/src/funderGovToken.sol\":5746:5781  currentAllowance >= subtractedValue */\n      lt\n      iszero\n        /* \"backend/src/funderGovToken.sol\":5738:5823  require(currentAllowance >= subtractedValue, \"ERC20: decreased allowance below zero\") */\n      tag_150\n      jumpi\n      mload(0x40)\n      0x08c379a000000000000000000000000000000000000000000000000000000000\n      dup2\n      mstore\n      0x04\n      add\n      tag_151\n      swap1\n      tag_152\n      jump\t// in\n    tag_151:\n      mload(0x40)\n      dup1\n      swap2\n      sub\n      swap1\n      revert\n    tag_150:\n        /* \"backend/src/funderGovToken.sol\":5857:5917  _approve(owner, spender, currentAllowance - subtractedValue) */\n      tag_153\n        /* \"backend/src/funderGovToken.sol\":5866:5871  owner */\n      dup3\n        /* \"backend/src/funderGovToken.sol\":5873:5880  spender */\n      dup7\n        /* \"backend/src/funderGovToken.sol\":5901:5916  subtractedValue */\n      dup7\n        /* \"backend/src/funderGovToken.sol\":5882:5898  currentAllowance */\n      dup5\n        /* \"backend/src/funderGovToken.sol\":5882:5916  currentAllowance - subtractedValue */\n      sub\n        /* \"backend/src/funderGovToken.sol\":5857:5865  _approve */\n      tag_104\n        /* \"backend/src/funderGovToken.sol\":5857:5917  _approve(owner, spender, currentAllowance - subtractedValue) */\n      jump\t// in\n    tag_153:\n        /* \"backend/src/funderGovToken.sol\":5945:5949  true */\n      0x01\n        /* \"backend/src/funderGovToken.sol\":5938:5949  return true */\n      swap3\n      pop\n      pop\n      pop\n        /* \"backend/src/funderGovToken.sol\":5529:5956  function decreaseAllowance(address spender, uint256 subtractedValue) public virtual returns (bool) {... */\n      swap3\n      swap2\n      pop\n      pop\n      jump\t// out\n        /* \"backend/src/funderGovToken.sol\":2671:2852  function transfer(address to, uint256 amount) public override returns (bool) {... */\n    tag_72:\n        /* \"backend/src/funderGovToken.sol\":2742:2746  bool */\n      0x00\n        /* \"backend/src/funderGovToken.sol\":2758:2771  address owner */\n      dup1\n        /* \"backend/src/funderGovToken.sol\":2774:2786  _msgSender() */\n      tag_155\n        /* \"backend/src/funderGovToken.sol\":2774:2784  _msgSender */\n      tag_102\n        /* \"backend/src/funderGovToken.sol\":2774:2786  _msgSender() */\n      jump\t// in\n    tag_155:\n        /* \"backend/src/funderGovToken.sol\":2758:2786  address owner = _msgSender() */\n      swap1\n      pop\n        /* \"backend/src/funderGovToken.sol\":2796:2824  _transfer(owner, to, amount) */\n      tag_156\n        /* \"backend/src/funderGovToken.sol\":2806:2811  owner */\n      dup2\n        /* \"backend/src/funderGovToken.sol\":2813:2815  to */\n      dup6\n        /* \"backend/src/funderGovToken.sol\":2817:2823  amount */\n      dup6\n        /* \"backend/src/funderGovToken.sol\":2796:2805  _transfer */\n      tag_111\n        /* \"backend/src/funderGovToken.sol\":2796:2824  _transfer(owner, to, amount) */\n      jump\t// in\n    tag_156:\n        /* \"backend/src/funderGovToken.sol\":2841:2845  true */\n      0x01\n        /* \"backend/src/funderGovToken.sol\":2834:2845  return true */\n      swap2\n      pop\n      pop\n        /* \"backend/src/funderGovToken.sol\":2671:2852  function transfer(address to, uint256 amount) public override returns (bool) {... */\n      swap3\n      swap2\n      pop\n      pop\n      jump\t// out\n        /* \"backend/src/governance.sol\":473:537  mapping (address => mapping(address => uint))public govVoteCount */\n    tag_76:\n      mstore(0x20, 0x0a)\n      dup2\n      0x00\n      mstore\n      mstore(0x20, keccak256(0x00, 0x40))\n      dup1\n      0x00\n      mstore\n      keccak256(0x00, 0x40)\n      0x00\n      swap2\n      pop\n      swap2\n      pop\n      pop\n      sload\n      dup2\n      jump\t// out\n        /* \"backend/src/governance.sol\":543:590  mapping (address => bool) public RequestGranted */\n    tag_80:\n      mstore(0x20, 0x0b)\n      dup1\n      0x00\n      mstore\n      keccak256(0x00, 0x40)\n      0x00\n      swap2\n      pop\n      sload\n      swap1\n      0x0100\n      exp\n      swap1\n      div\n      0xff\n      and\n      dup2\n      jump\t// out\n        /* \"backend/src/governance.sol\":2315:2567  function unLocked( address castVote) external{... */\n    tag_84:\n        /* \"backend/src/governance.sol\":2418:2433  MINIMUMAPPROVAL */\n      sload(0x08)\n        /* \"backend/src/governance.sol\":2380:2392  govVoteCount */\n      0x0a\n        /* \"backend/src/governance.sol\":2380:2404  govVoteCount[msg.sender] */\n      0x00\n        /* \"backend/src/governance.sol\":2393:2403  msg.sender */\n      caller\n        /* \"backend/src/governance.sol\":2380:2404  govVoteCount[msg.sender] */\n      0xffffffffffffffffffffffffffffffffffffffff\n      and\n      0xffffffffffffffffffffffffffffffffffffffff\n      and\n      dup2\n      mstore\n      0x20\n      add\n      swap1\n      dup2\n      mstore\n      0x20\n      add\n      0x00\n      keccak256\n        /* \"backend/src/governance.sol\":2380:2414  govVoteCount[msg.sender][castVote] */\n      0x00\n        /* \"backend/src/governance.sol\":2405:2413  castVote */\n      dup4\n        /* \"backend/src/governance.sol\":2380:2414  govVoteCount[msg.sender][castVote] */\n      0xffffffffffffffffffffffffffffffffffffffff\n      and\n      0xffffffffffffffffffffffffffffffffffffffff\n      and\n      dup2\n      mstore\n      0x20\n      add\n      swap1\n      dup2\n      mstore\n      0x20\n      add\n      0x00\n      keccak256\n      sload\n        /* \"backend/src/governance.sol\":2380:2433  govVoteCount[msg.sender][castVote] >= MINIMUMAPPROVAL */\n      lt\n      iszero\n        /* \"backend/src/governance.sol\":2372:2467  require(govVoteCount[msg.sender][castVote] >= MINIMUMAPPROVAL, \"This voting is still on going\") */\n      tag_158\n      jumpi\n      mload(0x40)\n      0x08c379a000000000000000000000000000000000000000000000000000000000\n      dup2\n      mstore\n      0x04\n      add\n      tag_159\n      swap1\n      tag_160\n      jump\t// in\n    tag_159:\n      mload(0x40)\n      dup1\n      swap2\n      sub\n      swap1\n      revert\n    tag_158:\n        /* \"backend/src/governance.sol\":2479:2489  uint value */\n      0x00\n        /* \"backend/src/governance.sol\":2492:2513  unLockToken(castVote) */\n      tag_161\n        /* \"backend/src/governance.sol\":2504:2512  castVote */\n      dup3\n        /* \"backend/src/governance.sol\":2492:2503  unLockToken */\n      tag_162\n        /* \"backend/src/governance.sol\":2492:2513  unLockToken(castVote) */\n      jump\t// in\n    tag_161:\n        /* \"backend/src/governance.sol\":2479:2513  uint value = unLockToken(castVote) */\n      swap1\n      pop\n        /* \"backend/src/governance.sol\":2549:2554  value */\n      dup1\n        /* \"backend/src/governance.sol\":2537:2547  msg.sender */\n      caller\n        /* \"backend/src/governance.sol\":2530:2555  unlock(msg.sender, value) */\n      0xffffffffffffffffffffffffffffffffffffffff\n      and\n      0x7eee288d96e16732b30eaad358f8d56ea6f818be95e3d8b56668dbed67d7b7a8\n      mload(0x40)\n      mload(0x40)\n      dup1\n      swap2\n      sub\n      swap1\n      log3\n        /* \"backend/src/governance.sol\":2360:2567  {... */\n      pop\n        /* \"backend/src/governance.sol\":2315:2567  function unLocked( address castVote) external{... */\n      pop\n      jump\t// out\n        /* \"backend/src/funderGovToken.sol\":2911:3060  function allowance(address owner, address spender) public view virtual override returns (uint256) {... */\n    tag_87:\n        /* \"backend/src/funderGovToken.sol\":3000:3007  uint256 */\n      0x00\n        /* \"backend/src/funderGovToken.sol\":3026:3037  _allowances */\n      0x06\n        /* \"backend/src/funderGovToken.sol\":3026:3044  _allowances[owner] */\n      0x00\n        /* \"backend/src/funderGovToken.sol\":3038:3043  owner */\n      dup5\n        /* \"backend/src/funderGovToken.sol\":3026:3044  _allowances[owner] */\n      0xffffffffffffffffffffffffffffffffffffffff\n      and\n      0xffffffffffffffffffffffffffffffffffffffff\n      and\n      dup2\n      mstore\n      0x20\n      add\n      swap1\n      dup2\n      mstore\n      0x20\n      add\n      0x00\n      keccak256\n        /* \"backend/src/funderGovToken.sol\":3026:3053  _allowances[owner][spender] */\n      0x00\n        /* \"backend/src/funderGovToken.sol\":3045:3052  spender */\n      dup4\n        /* \"backend/src/funderGovToken.sol\":3026:3053  _allowances[owner][spender] */\n      0xffffffffffffffffffffffffffffffffffffffff\n      and\n      0xffffffffffffffffffffffffffffffffffffffff\n      and\n      dup2\n      mstore\n      0x20\n      add\n      swap1\n      dup2\n      mstore\n      0x20\n      add\n      0x00\n      keccak256\n      sload\n        /* \"backend/src/funderGovToken.sol\":3019:3053  return _allowances[owner][spender] */\n      swap1\n      pop\n        /* \"backend/src/funderGovToken.sol\":2911:3060  function allowance(address owner, address spender) public view virtual override returns (uint256) {... */\n      swap3\n      swap2\n      pop\n      pop\n      jump\t// out\n        /* \"backend/src/governance.sol\":2633:2770  function getBeneficiaryVotingStatus(address beneficiary) public view returns(bool status){... */\n    tag_91:\n        /* \"backend/src/governance.sol\":2710:2721  bool status */\n      0x00\n        /* \"backend/src/governance.sol\":2737:2751  RequestGranted */\n      0x0b\n        /* \"backend/src/governance.sol\":2737:2764  RequestGranted[beneficiary] */\n      0x00\n        /* \"backend/src/governance.sol\":2752:2763  beneficiary */\n      dup4\n        /* \"backend/src/governance.sol\":2737:2764  RequestGranted[beneficiary] */\n      0xffffffffffffffffffffffffffffffffffffffff\n      and\n      0xffffffffffffffffffffffffffffffffffffffff\n      and\n      dup2\n      mstore\n      0x20\n      add\n      swap1\n      dup2\n      mstore\n      0x20\n      add\n      0x00\n      keccak256\n      0x00\n      swap1\n      sload\n      swap1\n      0x0100\n      exp\n      swap1\n      div\n      0xff\n      and\n        /* \"backend/src/governance.sol\":2728:2764  status = RequestGranted[beneficiary] */\n      swap1\n      pop\n        /* \"backend/src/governance.sol\":2633:2770  function getBeneficiaryVotingStatus(address beneficiary) public view returns(bool status){... */\n      swap2\n      swap1\n      pop\n      jump\t// out\n        /* \"@openzeppelin/contracts/utils/Context.sol\":640:736  function _msgSender() internal view virtual returns (address) {... */\n    tag_102:\n        /* \"@openzeppelin/contracts/utils/Context.sol\":693:700  address */\n      0x00\n        /* \"@openzeppelin/contracts/utils/Context.sol\":719:729  msg.sender */\n      caller\n        /* \"@openzeppelin/contracts/utils/Context.sol\":712:729  return msg.sender */\n      swap1\n      pop\n        /* \"@openzeppelin/contracts/utils/Context.sol\":640:736  function _msgSender() internal view virtual returns (address) {... */\n      swap1\n      jump\t// out\n        /* \"backend/src/funderGovToken.sol\":9150:9520  function _approve(... */\n    tag_104:\n        /* \"backend/src/funderGovToken.sol\":9298:9299  0 */\n      0x00\n        /* \"backend/src/funderGovToken.sol\":9281:9300  owner != address(0) */\n      0xffffffffffffffffffffffffffffffffffffffff\n      and\n        /* \"backend/src/funderGovToken.sol\":9281:9286  owner */\n      dup4\n        /* \"backend/src/funderGovToken.sol\":9281:9300  owner != address(0) */\n      0xffffffffffffffffffffffffffffffffffffffff\n      and\n      eq\n      iszero\n        /* \"backend/src/funderGovToken.sol\":9273:9341  require(owner != address(0), \"ERC20: approve from the zero address\") */\n      tag_167\n      jumpi\n      mload(0x40)\n      0x08c379a000000000000000000000000000000000000000000000000000000000\n      dup2\n      mstore\n      0x04\n      add\n      tag_168\n      swap1\n      tag_169\n      jump\t// in\n    tag_168:\n      mload(0x40)\n      dup1\n      swap2\n      sub\n      swap1\n      revert\n    tag_167:\n        /* \"backend/src/funderGovToken.sol\":9378:9379  0 */\n      0x00\n        /* \"backend/src/funderGovToken.sol\":9359:9380  spender != address(0) */\n      0xffffffffffffffffffffffffffffffffffffffff\n      and\n        /* \"backend/src/funderGovToken.sol\":9359:9366  spender */\n      dup3\n        /* \"backend/src/funderGovToken.sol\":9359:9380  spender != address(0) */\n      0xffffffffffffffffffffffffffffffffffffffff\n      and\n      eq\n      iszero\n        /* \"backend/src/funderGovToken.sol\":9351:9419  require(spender != address(0), \"ERC20: approve to the zero address\") */\n      tag_170\n      jumpi\n      mload(0x40)\n      0x08c379a000000000000000000000000000000000000000000000000000000000\n      dup2\n      mstore\n      0x04\n      add\n      tag_171\n      swap1\n      tag_172\n      jump\t// in\n    tag_171:\n      mload(0x40)\n      dup1\n      swap2\n      sub\n      swap1\n      revert\n    tag_170:\n        /* \"backend/src/funderGovToken.sol\":9460:9466  amount */\n      dup1\n        /* \"backend/src/funderGovToken.sol\":9430:9441  _allowances */\n      0x06\n        /* \"backend/src/funderGovToken.sol\":9430:9448  _allowances[owner] */\n      0x00\n        /* \"backend/src/funderGovToken.sol\":9442:9447  owner */\n      dup6\n        /* \"backend/src/funderGovToken.sol\":9430:9448  _allowances[owner] */\n      0xffffffffffffffffffffffffffffffffffffffff\n      and\n      0xffffffffffffffffffffffffffffffffffffffff\n      and\n      dup2\n      mstore\n      0x20\n      add\n      swap1\n      dup2\n      mstore\n      0x20\n      add\n      0x00\n      keccak256\n        /* \"backend/src/funderGovToken.sol\":9430:9457  _allowances[owner][spender] */\n      0x00\n        /* \"backend/src/funderGovToken.sol\":9449:9456  spender */\n      dup5\n        /* \"backend/src/funderGovToken.sol\":9430:9457  _allowances[owner][spender] */\n      0xffffffffffffffffffffffffffffffffffffffff\n      and\n      0xffffffffffffffffffffffffffffffffffffffff\n      and\n      dup2\n      mstore\n      0x20\n      add\n      swap1\n      dup2\n      mstore\n      0x20\n      add\n      0x00\n      keccak256\n        /* \"backend/src/funderGovToken.sol\":9430:9466  _allowances[owner][spender] = amount */\n      dup2\n      swap1\n      sstore\n      pop\n        /* \"backend/src/funderGovToken.sol\":9497:9504  spender */\n      dup2\n        /* \"backend/src/funderGovToken.sol\":9481:9513  Approval(owner, spender, amount) */\n      0xffffffffffffffffffffffffffffffffffffffff\n      and\n        /* \"backend/src/funderGovToken.sol\":9490:9495  owner */\n      dup4\n        /* \"backend/src/funderGovToken.sol\":9481:9513  Approval(owner, spender, amount) */\n      0xffffffffffffffffffffffffffffffffffffffff\n      and\n      0x8c5be1e5ebec7d5bd14f71427d1e84f3dd0314c0f7b2291e5b200ac8c7c3b925\n        /* \"backend/src/funderGovToken.sol\":9506:9512  amount */\n      dup4\n        /* \"backend/src/funderGovToken.sol\":9481:9513  Approval(owner, spender, amount) */\n      mload(0x40)\n      tag_173\n      swap2\n      swap1\n      tag_36\n      jump\t// in\n    tag_173:\n      mload(0x40)\n      dup1\n      swap2\n      sub\n      swap1\n      log3\n        /* \"backend/src/funderGovToken.sol\":9150:9520  function _approve(... */\n      pop\n      pop\n      pop\n      jump\t// out\n        /* \"backend/src/funderGovToken.sol\":9801:10242  function _spendAllowance(... */\n    tag_109:\n        /* \"backend/src/funderGovToken.sol\":9931:9955  uint256 currentAllowance */\n      0x00\n        /* \"backend/src/funderGovToken.sol\":9958:9983  allowance(owner, spender) */\n      tag_175\n        /* \"backend/src/funderGovToken.sol\":9968:9973  owner */\n      dup5\n        /* \"backend/src/funderGovToken.sol\":9975:9982  spender */\n      dup5\n        /* \"backend/src/funderGovToken.sol\":9958:9967  allowance */\n      tag_87\n        /* \"backend/src/funderGovToken.sol\":9958:9983  allowance(owner, spender) */\n      jump\t// in\n    tag_175:\n        /* \"backend/src/funderGovToken.sol\":9931:9983  uint256 currentAllowance = allowance(owner, spender) */\n      swap1\n      pop\n        /* \"backend/src/funderGovToken.sol\":10017:10034  type(uint256).max */\n      0xffffffffffffffffffffffffffffffffffffffffffffffffffffffffffffffff\n        /* \"backend/src/funderGovToken.sol\":9997:10013  currentAllowance */\n      dup2\n        /* \"backend/src/funderGovToken.sol\":9997:10034  currentAllowance != type(uint256).max */\n      eq\n        /* \"backend/src/funderGovToken.sol\":9993:10236  if (currentAllowance != type(uint256).max) {... */\n      tag_176\n      jumpi\n        /* \"backend/src/funderGovToken.sol\":10078:10084  amount */\n      dup2\n        /* \"backend/src/funderGovToken.sol\":10058:10074  currentAllowance */\n      dup2\n        /* \"backend/src/funderGovToken.sol\":10058:10084  currentAllowance >= amount */\n      lt\n      iszero\n        /* \"backend/src/funderGovToken.sol\":10050:10118  require(currentAllowance >= amount, \"ERC20: insufficient allowance\") */\n      tag_177\n      jumpi\n      mload(0x40)\n      0x08c379a000000000000000000000000000000000000000000000000000000000\n      dup2\n      mstore\n      0x04\n      add\n      tag_178\n      swap1\n      tag_179\n      jump\t// in\n    tag_178:\n      mload(0x40)\n      dup1\n      swap2\n      sub\n      swap1\n      revert\n    tag_177:\n        /* \"backend/src/funderGovToken.sol\":10160:10211  _approve(owner, spender, currentAllowance - amount) */\n      tag_180\n        /* \"backend/src/funderGovToken.sol\":10169:10174  owner */\n      dup5\n        /* \"backend/src/funderGovToken.sol\":10176:10183  spender */\n      dup5\n        /* \"backend/src/funderGovToken.sol\":10204:10210  amount */\n      dup5\n        /* \"backend/src/funderGovToken.sol\":10185:10201  currentAllowance */\n      dup5\n        /* \"backend/src/funderGovToken.sol\":10185:10210  currentAllowance - amount */\n      sub\n        /* \"backend/src/funderGovToken.sol\":10160:10168  _approve */\n      tag_104\n        /* \"backend/src/funderGovToken.sol\":10160:10211  _approve(owner, spender, currentAllowance - amount) */\n      jump\t// in\n    tag_180:\n        /* \"backend/src/funderGovToken.sol\":9993:10236  if (currentAllowance != type(uint256).max) {... */\n    tag_176:\n        /* \"backend/src/funderGovToken.sol\":9921:10242  {... */\n      pop\n        /* \"backend/src/funderGovToken.sol\":9801:10242  function _spendAllowance(... */\n      pop\n      pop\n      pop\n      jump\t// out\n        /* \"backend/src/funderGovToken.sol\":6410:7165  function _transfer(... */\n    tag_111:\n        /* \"backend/src/funderGovToken.sol\":6544:6545  0 */\n      0x00\n        /* \"backend/src/funderGovToken.sol\":6528:6546  from != address(0) */\n      0xffffffffffffffffffffffffffffffffffffffff\n      and\n        /* \"backend/src/funderGovToken.sol\":6528:6532  from */\n      dup4\n        /* \"backend/src/funderGovToken.sol\":6528:6546  from != address(0) */\n      0xffffffffffffffffffffffffffffffffffffffff\n      and\n      eq\n      iszero\n        /* \"backend/src/funderGovToken.sol\":6520:6588  require(from != address(0), \"ERC20: transfer from the zero address\") */\n      tag_182\n      jumpi\n      mload(0x40)\n      0x08c379a000000000000000000000000000000000000000000000000000000000\n      dup2\n      mstore\n      0x04\n      add\n      tag_183\n      swap1\n      tag_184\n      jump\t// in\n    tag_183:\n      mload(0x40)\n      dup1\n      swap2\n      sub\n      swap1\n      revert\n    tag_182:\n        /* \"backend/src/funderGovToken.sol\":6620:6621  0 */\n      0x00\n        /* \"backend/src/funderGovToken.sol\":6606:6622  to != address(0) */\n      0xffffffffffffffffffffffffffffffffffffffff\n      and\n        /* \"backend/src/funderGovToken.sol\":6606:6608  to */\n      dup3\n        /* \"backend/src/funderGovToken.sol\":6606:6622  to != address(0) */\n      0xffffffffffffffffffffffffffffffffffffffff\n      and\n      eq\n      iszero\n        /* \"backend/src/funderGovToken.sol\":6598:6662  require(to != address(0), \"ERC20: transfer to the zero address\") */\n      tag_185\n      jumpi\n      mload(0x40)\n      0x08c379a000000000000000000000000000000000000000000000000000000000\n      dup2\n      mstore\n      0x04\n      add\n      tag_186\n      swap1\n      tag_187\n      jump\t// in\n    tag_186:\n      mload(0x40)\n      dup1\n      swap2\n      sub\n      swap1\n      revert\n    tag_185:\n        /* \"backend/src/funderGovToken.sol\":6673:6711  _beforeTokenTransfer(from, to, amount) */\n      tag_188\n        /* \"backend/src/funderGovToken.sol\":6694:6698  from */\n      dup4\n        /* \"backend/src/funderGovToken.sol\":6700:6702  to */\n      dup4\n        /* \"backend/src/funderGovToken.sol\":6704:6710  amount */\n      dup4\n        /* \"backend/src/funderGovToken.sol\":6673:6693  _beforeTokenTransfer */\n      tag_189\n        /* \"backend/src/funderGovToken.sol\":6673:6711  _beforeTokenTransfer(from, to, amount) */\n      jump\t// in\n    tag_188:\n        /* \"backend/src/funderGovToken.sol\":6722:6733  uint locked */\n      0x00\n        /* \"backend/src/funderGovToken.sol\":6736:6747  lockedToken */\n      0x05\n        /* \"backend/src/funderGovToken.sol\":6736:6759  lockedToken[msg.sender] */\n      0x00\n        /* \"backend/src/funderGovToken.sol\":6748:6758  msg.sender */\n      caller\n        /* \"backend/src/funderGovToken.sol\":6736:6759  lockedToken[msg.sender] */\n      0xffffffffffffffffffffffffffffffffffffffff\n      and\n      0xffffffffffffffffffffffffffffffffffffffff\n      and\n      dup2\n      mstore\n      0x20\n      add\n      swap1\n      dup2\n      mstore\n      0x20\n      add\n      0x00\n      keccak256\n      sload\n        /* \"backend/src/funderGovToken.sol\":6722:6759  uint locked = lockedToken[msg.sender] */\n      swap1\n      pop\n        /* \"backend/src/funderGovToken.sol\":6769:6788  uint256 fromBalance */\n      0x00\n        /* \"backend/src/funderGovToken.sol\":6791:6800  _balances */\n      0x04\n        /* \"backend/src/funderGovToken.sol\":6791:6806  _balances[from] */\n      0x00\n        /* \"backend/src/funderGovToken.sol\":6801:6805  from */\n      dup7\n        /* \"backend/src/funderGovToken.sol\":6791:6806  _balances[from] */\n      0xffffffffffffffffffffffffffffffffffffffff\n      and\n      0xffffffffffffffffffffffffffffffffffffffff\n      and\n      dup2\n      mstore\n      0x20\n      add\n      swap1\n      dup2\n      mstore\n      0x20\n      add\n      0x00\n      keccak256\n      sload\n        /* \"backend/src/funderGovToken.sol\":6769:6806  uint256 fromBalance = _balances[from] */\n      swap1\n      pop\n        /* \"backend/src/funderGovToken.sol\":6816:6838  uint transferableToken */\n      0x00\n        /* \"backend/src/funderGovToken.sol\":6855:6861  locked */\n      dup3\n        /* \"backend/src/funderGovToken.sol\":6841:6852  fromBalance */\n      dup3\n        /* \"backend/src/funderGovToken.sol\":6841:6861  fromBalance - locked */\n      tag_190\n      swap2\n      swap1\n      tag_191\n      jump\t// in\n    tag_190:\n        /* \"backend/src/funderGovToken.sol\":6816:6861  uint transferableToken = fromBalance - locked */\n      swap1\n      pop\n        /* \"backend/src/funderGovToken.sol\":6900:6906  amount */\n      dup4\n        /* \"backend/src/funderGovToken.sol\":6879:6896  transferableToken */\n      dup2\n        /* \"backend/src/funderGovToken.sol\":6879:6906  transferableToken >= amount */\n      lt\n      iszero\n        /* \"backend/src/funderGovToken.sol\":6871:6953  require(transferableToken >= amount, \"ERC20: transferable amount exceeds balance\") */\n      tag_192\n      jumpi\n      mload(0x40)\n      0x08c379a000000000000000000000000000000000000000000000000000000000\n      dup2\n      mstore\n      0x04\n      add\n      tag_193\n      swap1\n      tag_194\n      jump\t// in\n    tag_193:\n      mload(0x40)\n      dup1\n      swap2\n      sub\n      swap1\n      revert\n    tag_192:\n        /* \"backend/src/funderGovToken.sol\":7019:7025  amount */\n      dup4\n        /* \"backend/src/funderGovToken.sol\":7005:7016  fromBalance */\n      dup3\n        /* \"backend/src/funderGovToken.sol\":7005:7025  fromBalance - amount */\n      sub\n        /* \"backend/src/funderGovToken.sol\":6987:6996  _balances */\n      0x04\n        /* \"backend/src/funderGovToken.sol\":6987:7002  _balances[from] */\n      0x00\n        /* \"backend/src/funderGovToken.sol\":6997:7001  from */\n      dup9\n        /* \"backend/src/funderGovToken.sol\":6987:7002  _balances[from] */\n      0xffffffffffffffffffffffffffffffffffffffff\n      and\n      0xffffffffffffffffffffffffffffffffffffffff\n      and\n      dup2\n      mstore\n      0x20\n      add\n      swap1\n      dup2\n      mstore\n      0x20\n      add\n      0x00\n      keccak256\n        /* \"backend/src/funderGovToken.sol\":6987:7025  _balances[from] = fromBalance - amount */\n      dup2\n      swap1\n      sstore\n      pop\n        /* \"backend/src/funderGovToken.sol\":7062:7068  amount */\n      dup4\n        /* \"backend/src/funderGovToken.sol\":7045:7054  _balances */\n      0x04\n        /* \"backend/src/funderGovToken.sol\":7045:7058  _balances[to] */\n      0x00\n        /* \"backend/src/funderGovToken.sol\":7055:7057  to */\n      dup8\n        /* \"backend/src/funderGovToken.sol\":7045:7058  _balances[to] */\n      0xffffffffffffffffffffffffffffffffffffffff\n      and\n      0xffffffffffffffffffffffffffffffffffffffff\n      and\n      dup2\n      mstore\n      0x20\n      add\n      swap1\n      dup2\n      mstore\n      0x20\n      add\n      0x00\n      keccak256\n      0x00\n        /* \"backend/src/funderGovToken.sol\":7045:7068  _balances[to] += amount */\n      dup3\n      dup3\n      sload\n      tag_195\n      swap2\n      swap1\n      tag_118\n      jump\t// in\n    tag_195:\n      swap3\n      pop\n      pop\n      dup2\n      swap1\n      sstore\n      pop\n        /* \"backend/src/funderGovToken.sol\":7099:7101  to */\n      dup5\n        /* \"backend/src/funderGovToken.sol\":7084:7110  Transfer(from, to, amount) */\n      0xffffffffffffffffffffffffffffffffffffffff\n      and\n        /* \"backend/src/funderGovToken.sol\":7093:7097  from */\n      dup7\n        /* \"backend/src/funderGovToken.sol\":7084:7110  Transfer(from, to, amount) */\n      0xffffffffffffffffffffffffffffffffffffffff\n      and\n      0xddf252ad1be2c89b69c2b068fc378daa952ba7f163c4a11628f55a4df523b3ef\n        /* \"backend/src/funderGovToken.sol\":7103:7109  amount */\n      dup7\n        /* \"backend/src/funderGovToken.sol\":7084:7110  Transfer(from, to, amount) */\n      mload(0x40)\n      tag_196\n      swap2\n      swap1\n      tag_36\n      jump\t// in\n    tag_196:\n      mload(0x40)\n      dup1\n      swap2\n      sub\n      swap1\n      log3\n        /* \"backend/src/funderGovToken.sol\":7121:7158  _afterTokenTransfer(from, to, amount) */\n      tag_197\n        /* \"backend/src/funderGovToken.sol\":7141:7145  from */\n      dup7\n        /* \"backend/src/funderGovToken.sol\":7147:7149  to */\n      dup7\n        /* \"backend/src/funderGovToken.sol\":7151:7157  amount */\n      dup7\n        /* \"backend/src/funderGovToken.sol\":7121:7140  _afterTokenTransfer */\n      tag_198\n        /* \"backend/src/funderGovToken.sol\":7121:7158  _afterTokenTransfer(from, to, amount) */\n      jump\t// in\n    tag_197:\n        /* \"backend/src/funderGovToken.sol\":6510:7165  {... */\n      pop\n      pop\n      pop\n        /* \"backend/src/funderGovToken.sol\":6410:7165  function _transfer(... */\n      pop\n      pop\n      pop\n      jump\t// out\n        /* \"backend/src/governance.sol\":1914:2071  function lockToken(uint _amount, address castVote) private {... */\n    tag_137:\n        /* \"backend/src/governance.sol\":2017:2024  _amount */\n      dup2\n        /* \"backend/src/governance.sol\":1981:1992  tokenOwners */\n      0x03\n        /* \"backend/src/governance.sol\":1981:2004  tokenOwners[msg.sender] */\n      0x00\n        /* \"backend/src/governance.sol\":1993:2003  msg.sender */\n      caller\n        /* \"backend/src/governance.sol\":1981:2004  tokenOwners[msg.sender] */\n      0xffffffffffffffffffffffffffffffffffffffff\n      and\n      0xffffffffffffffffffffffffffffffffffffffff\n      and\n      dup2\n      mstore\n      0x20\n      add\n      swap1\n      dup2\n      mstore\n      0x20\n      add\n      0x00\n      keccak256\n        /* \"backend/src/governance.sol\":1981:2014  tokenOwners[msg.sender][castVote] */\n      0x00\n        /* \"backend/src/governance.sol\":2005:2013  castVote */\n      dup4\n        /* \"backend/src/governance.sol\":1981:2014  tokenOwners[msg.sender][castVote] */\n      0xffffffffffffffffffffffffffffffffffffffff\n      and\n      0xffffffffffffffffffffffffffffffffffffffff\n      and\n      dup2\n      mstore\n      0x20\n      add\n      swap1\n      dup2\n      mstore\n      0x20\n      add\n      0x00\n      keccak256\n      0x00\n        /* \"backend/src/governance.sol\":1981:2024  tokenOwners[msg.sender][castVote]+= _amount */\n      dup3\n      dup3\n      sload\n      tag_200\n      swap2\n      swap1\n      tag_118\n      jump\t// in\n    tag_200:\n      swap3\n      pop\n      pop\n      dup2\n      swap1\n      sstore\n      pop\n        /* \"backend/src/governance.sol\":2059:2066  _amount */\n      dup2\n        /* \"backend/src/governance.sol\":2032:2043  lockedToken */\n      0x05\n        /* \"backend/src/governance.sol\":2032:2055  lockedToken[msg.sender] */\n      0x00\n        /* \"backend/src/governance.sol\":2044:2054  msg.sender */\n      caller\n        /* \"backend/src/governance.sol\":2032:2055  lockedToken[msg.sender] */\n      0xffffffffffffffffffffffffffffffffffffffff\n      and\n      0xffffffffffffffffffffffffffffffffffffffff\n      and\n      dup2\n      mstore\n      0x20\n      add\n      swap1\n      dup2\n      mstore\n      0x20\n      add\n      0x00\n      keccak256\n      0x00\n        /* \"backend/src/governance.sol\":2032:2066  lockedToken[msg.sender] += _amount */\n      dup3\n      dup3\n      sload\n      tag_201\n      swap2\n      swap1\n      tag_118\n      jump\t// in\n    tag_201:\n      swap3\n      pop\n      pop\n      dup2\n      swap1\n      sstore\n      pop\n        /* \"backend/src/governance.sol\":1914:2071  function lockToken(uint _amount, address castVote) private {... */\n      pop\n      pop\n      jump\t// out\n        /* \"backend/src/governance.sol\":2074:2307  function unLockToken(address castVote) private returns(uint){... */\n    tag_162:\n        /* \"backend/src/governance.sol\":2129:2133  uint */\n      0x00\n        /* \"backend/src/governance.sol\":2142:2155  uint256 value */\n      dup1\n        /* \"backend/src/governance.sol\":2159:2170  tokenOwners */\n      0x03\n        /* \"backend/src/governance.sol\":2159:2182  tokenOwners[msg.sender] */\n      0x00\n        /* \"backend/src/governance.sol\":2171:2181  msg.sender */\n      caller\n        /* \"backend/src/governance.sol\":2159:2182  tokenOwners[msg.sender] */\n      0xffffffffffffffffffffffffffffffffffffffff\n      and\n      0xffffffffffffffffffffffffffffffffffffffff\n      and\n      dup2\n      mstore\n      0x20\n      add\n      swap1\n      dup2\n      mstore\n      0x20\n      add\n      0x00\n      keccak256\n        /* \"backend/src/governance.sol\":2159:2192  tokenOwners[msg.sender][castVote] */\n      0x00\n        /* \"backend/src/governance.sol\":2183:2191  castVote */\n      dup5\n        /* \"backend/src/governance.sol\":2159:2192  tokenOwners[msg.sender][castVote] */\n      0xffffffffffffffffffffffffffffffffffffffff\n      and\n      0xffffffffffffffffffffffffffffffffffffffff\n      and\n      dup2\n      mstore\n      0x20\n      add\n      swap1\n      dup2\n      mstore\n      0x20\n      add\n      0x00\n      keccak256\n      sload\n        /* \"backend/src/governance.sol\":2142:2192  uint256 value =  tokenOwners[msg.sender][castVote] */\n      swap1\n      pop\n        /* \"backend/src/governance.sol\":2227:2232  value */\n      dup1\n        /* \"backend/src/governance.sol\":2200:2211  lockedToken */\n      0x05\n        /* \"backend/src/governance.sol\":2200:2223  lockedToken[msg.sender] */\n      0x00\n        /* \"backend/src/governance.sol\":2212:2222  msg.sender */\n      caller\n        /* \"backend/src/governance.sol\":2200:2223  lockedToken[msg.sender] */\n      0xffffffffffffffffffffffffffffffffffffffff\n      and\n      0xffffffffffffffffffffffffffffffffffffffff\n      and\n      dup2\n      mstore\n      0x20\n      add\n      swap1\n      dup2\n      mstore\n      0x20\n      add\n      0x00\n      keccak256\n      0x00\n        /* \"backend/src/governance.sol\":2200:2232  lockedToken[msg.sender] -= value */\n      dup3\n      dup3\n      sload\n      tag_203\n      swap2\n      swap1\n      tag_191\n      jump\t// in\n    tag_203:\n      swap3\n      pop\n      pop\n      dup2\n      swap1\n      sstore\n      pop\n        /* \"backend/src/governance.sol\":2276:2281  value */\n      dup1\n        /* \"backend/src/governance.sol\":2240:2251  tokenOwners */\n      0x03\n        /* \"backend/src/governance.sol\":2240:2263  tokenOwners[msg.sender] */\n      0x00\n        /* \"backend/src/governance.sol\":2252:2262  msg.sender */\n      caller\n        /* \"backend/src/governance.sol\":2240:2263  tokenOwners[msg.sender] */\n      0xffffffffffffffffffffffffffffffffffffffff\n      and\n      0xffffffffffffffffffffffffffffffffffffffff\n      and\n      dup2\n      mstore\n      0x20\n      add\n      swap1\n      dup2\n      mstore\n      0x20\n      add\n      0x00\n      keccak256\n        /* \"backend/src/governance.sol\":2240:2273  tokenOwners[msg.sender][castVote] */\n      0x00\n        /* \"backend/src/governance.sol\":2264:2272  castVote */\n      dup6\n        /* \"backend/src/governance.sol\":2240:2273  tokenOwners[msg.sender][castVote] */\n      0xffffffffffffffffffffffffffffffffffffffff\n      and\n      0xffffffffffffffffffffffffffffffffffffffff\n      and\n      dup2\n      mstore\n      0x20\n      add\n      swap1\n      dup2\n      mstore\n      0x20\n      add\n      0x00\n      keccak256\n      0x00\n        /* \"backend/src/governance.sol\":2240:2281  tokenOwners[msg.sender][castVote]-= value */\n      dup3\n      dup3\n      sload\n      tag_204\n      swap2\n      swap1\n      tag_191\n      jump\t// in\n    tag_204:\n      swap3\n      pop\n      pop\n      dup2\n      swap1\n      sstore\n      pop\n        /* \"backend/src/governance.sol\":2296:2301  value */\n      dup1\n        /* \"backend/src/governance.sol\":2289:2301  return value */\n      swap2\n      pop\n      pop\n        /* \"backend/src/governance.sol\":2074:2307  function unLockToken(address castVote) private returns(uint){... */\n      swap2\n      swap1\n      pop\n      jump\t// out\n        /* \"backend/src/funderGovToken.sol\":10826:10947  function _beforeTokenTransfer(... */\n    tag_189:\n      pop\n      pop\n      pop\n      jump\t// out\n        /* \"backend/src/funderGovToken.sol\":11535:11655  function _afterTokenTransfer(... */\n    tag_198:\n      pop\n      pop\n      pop\n      jump\t// out\n        /* \"#utility.yul\":7:106   */\n    tag_207:\n        /* \"#utility.yul\":59:65   */\n      0x00\n        /* \"#utility.yul\":93:98   */\n      dup2\n        /* \"#utility.yul\":87:99   */\n      mload\n        /* \"#utility.yul\":77:99   */\n      swap1\n      pop\n        /* \"#utility.yul\":7:106   */\n      swap2\n      swap1\n      pop\n      jump\t// out\n        /* \"#utility.yul\":112:281   */\n    tag_208:\n        /* \"#utility.yul\":196:207   */\n      0x00\n        /* \"#utility.yul\":230:236   */\n      dup3\n        /* \"#utility.yul\":225:228   */\n      dup3\n        /* \"#utility.yul\":218:237   */\n      mstore\n        /* \"#utility.yul\":270:274   */\n      0x20\n        /* \"#utility.yul\":265:268   */\n      dup3\n        /* \"#utility.yul\":261:275   */\n      add\n        /* \"#utility.yul\":246:275   */\n      swap1\n      pop\n        /* \"#utility.yul\":112:281   */\n      swap3\n      swap2\n      pop\n      pop\n      jump\t// out\n        /* \"#utility.yul\":287:594   */\n    tag_209:\n        /* \"#utility.yul\":355:356   */\n      0x00\n        /* \"#utility.yul\":365:478   */\n    tag_254:\n        /* \"#utility.yul\":379:385   */\n      dup4\n        /* \"#utility.yul\":376:377   */\n      dup2\n        /* \"#utility.yul\":373:386   */\n      lt\n        /* \"#utility.yul\":365:478   */\n      iszero\n      tag_256\n      jumpi\n        /* \"#utility.yul\":464:465   */\n      dup1\n        /* \"#utility.yul\":459:462   */\n      dup3\n        /* \"#utility.yul\":455:466   */\n      add\n        /* \"#utility.yul\":449:467   */\n      mload\n        /* \"#utility.yul\":445:446   */\n      dup2\n        /* \"#utility.yul\":440:443   */\n      dup5\n        /* \"#utility.yul\":436:447   */\n      add\n        /* \"#utility.yul\":429:468   */\n      mstore\n        /* \"#utility.yul\":401:403   */\n      0x20\n        /* \"#utility.yul\":398:399   */\n      dup2\n        /* \"#utility.yul\":394:404   */\n      add\n        /* \"#utility.yul\":389:404   */\n      swap1\n      pop\n        /* \"#utility.yul\":365:478   */\n      jump(tag_254)\n    tag_256:\n        /* \"#utility.yul\":496:502   */\n      dup4\n        /* \"#utility.yul\":493:494   */\n      dup2\n        /* \"#utility.yul\":490:503   */\n      gt\n        /* \"#utility.yul\":487:588   */\n      iszero\n      tag_257\n      jumpi\n        /* \"#utility.yul\":576:577   */\n      0x00\n        /* \"#utility.yul\":567:573   */\n      dup5\n        /* \"#utility.yul\":562:565   */\n      dup5\n        /* \"#utility.yul\":558:574   */\n      add\n        /* \"#utility.yul\":551:578   */\n      mstore\n        /* \"#utility.yul\":487:588   */\n    tag_257:\n        /* \"#utility.yul\":336:594   */\n      pop\n        /* \"#utility.yul\":287:594   */\n      pop\n      pop\n      pop\n      jump\t// out\n        /* \"#utility.yul\":600:702   */\n    tag_210:\n        /* \"#utility.yul\":641:647   */\n      0x00\n        /* \"#utility.yul\":692:694   */\n      0x1f\n        /* \"#utility.yul\":688:695   */\n      not\n        /* \"#utility.yul\":683:685   */\n      0x1f\n        /* \"#utility.yul\":676:681   */\n      dup4\n        /* \"#utility.yul\":672:686   */\n      add\n        /* \"#utility.yul\":668:696   */\n      and\n        /* \"#utility.yul\":658:696   */\n      swap1\n      pop\n        /* \"#utility.yul\":600:702   */\n      swap2\n      swap1\n      pop\n      jump\t// out\n        /* \"#utility.yul\":708:1072   */\n    tag_211:\n        /* \"#utility.yul\":796:799   */\n      0x00\n        /* \"#utility.yul\":824:863   */\n      tag_260\n        /* \"#utility.yul\":857:862   */\n      dup3\n        /* \"#utility.yul\":824:863   */\n      tag_207\n      jump\t// in\n    tag_260:\n        /* \"#utility.yul\":879:950   */\n      tag_261\n        /* \"#utility.yul\":943:949   */\n      dup2\n        /* \"#utility.yul\":938:941   */\n      dup6\n        /* \"#utility.yul\":879:950   */\n      tag_208\n      jump\t// in\n    tag_261:\n        /* \"#utility.yul\":872:950   */\n      swap4\n      pop\n        /* \"#utility.yul\":959:1011   */\n      tag_262\n        /* \"#utility.yul\":1004:1010   */\n      dup2\n        /* \"#utility.yul\":999:1002   */\n      dup6\n        /* \"#utility.yul\":992:996   */\n      0x20\n        /* \"#utility.yul\":985:990   */\n      dup7\n        /* \"#utility.yul\":981:997   */\n      add\n        /* \"#utility.yul\":959:1011   */\n      tag_209\n      jump\t// in\n    tag_262:\n        /* \"#utility.yul\":1036:1065   */\n      tag_263\n        /* \"#utility.yul\":1058:1064   */\n      dup2\n        /* \"#utility.yul\":1036:1065   */\n      tag_210\n      jump\t// in\n    tag_263:\n        /* \"#utility.yul\":1031:1034   */\n      dup5\n        /* \"#utility.yul\":1027:1066   */\n      add\n        /* \"#utility.yul\":1020:1066   */\n      swap2\n      pop\n        /* \"#utility.yul\":800:1072   */\n      pop\n        /* \"#utility.yul\":708:1072   */\n      swap3\n      swap2\n      pop\n      pop\n      jump\t// out\n        /* \"#utility.yul\":1078:1391   */\n    tag_26:\n        /* \"#utility.yul\":1191:1195   */\n      0x00\n        /* \"#utility.yul\":1229:1231   */\n      0x20\n        /* \"#utility.yul\":1218:1227   */\n      dup3\n        /* \"#utility.yul\":1214:1232   */\n      add\n        /* \"#utility.yul\":1206:1232   */\n      swap1\n      pop\n        /* \"#utility.yul\":1278:1287   */\n      dup2\n        /* \"#utility.yul\":1272:1276   */\n      dup2\n        /* \"#utility.yul\":1268:1288   */\n      sub\n        /* \"#utility.yul\":1264:1265   */\n      0x00\n        /* \"#utility.yul\":1253:1262   */\n      dup4\n        /* \"#utility.yul\":1249:1266   */\n      add\n        /* \"#utility.yul\":1242:1289   */\n      mstore\n        /* \"#utility.yul\":1306:1384   */\n      tag_265\n        /* \"#utility.yul\":1379:1383   */\n      dup2\n        /* \"#utility.yul\":1370:1376   */\n      dup5\n        /* \"#utility.yul\":1306:1384   */\n      tag_211\n      jump\t// in\n    tag_265:\n        /* \"#utility.yul\":1298:1384   */\n      swap1\n      pop\n        /* \"#utility.yul\":1078:1391   */\n      swap3\n      swap2\n      pop\n      pop\n      jump\t// out\n        /* \"#utility.yul\":1478:1595   */\n    tag_213:\n        /* \"#utility.yul\":1587:1588   */\n      0x00\n        /* \"#utility.yul\":1584:1585   */\n      dup1\n        /* \"#utility.yul\":1577:1589   */\n      revert\n        /* \"#utility.yul\":1724:1850   */\n    tag_215:\n        /* \"#utility.yul\":1761:1768   */\n      0x00\n        /* \"#utility.yul\":1801:1843   */\n      0xffffffffffffffffffffffffffffffffffffffff\n        /* \"#utility.yul\":1794:1799   */\n      dup3\n        /* \"#utility.yul\":1790:1844   */\n      and\n        /* \"#utility.yul\":1779:1844   */\n      swap1\n      pop\n        /* \"#utility.yul\":1724:1850   */\n      swap2\n      swap1\n      pop\n      jump\t// out\n        /* \"#utility.yul\":1856:1952   */\n    tag_216:\n        /* \"#utility.yul\":1893:1900   */\n      0x00\n        /* \"#utility.yul\":1922:1946   */\n      tag_271\n        /* \"#utility.yul\":1940:1945   */\n      dup3\n        /* \"#utility.yul\":1922:1946   */\n      tag_215\n      jump\t// in\n    tag_271:\n        /* \"#utility.yul\":1911:1946   */\n      swap1\n      pop\n        /* \"#utility.yul\":1856:1952   */\n      swap2\n      swap1\n      pop\n      jump\t// out\n        /* \"#utility.yul\":1958:2080   */\n    tag_217:\n        /* \"#utility.yul\":2031:2055   */\n      tag_273\n        /* \"#utility.yul\":2049:2054   */\n      dup2\n        /* \"#utility.yul\":2031:2055   */\n      tag_216\n      jump\t// in\n    tag_273:\n        /* \"#utility.yul\":2024:2029   */\n      dup2\n        /* \"#utility.yul\":2021:2056   */\n      eq\n        /* \"#utility.yul\":2011:2074   */\n      tag_274\n      jumpi\n        /* \"#utility.yul\":2070:2071   */\n      0x00\n        /* \"#utility.yul\":2067:2068   */\n      dup1\n        /* \"#utility.yul\":2060:2072   */\n      revert\n        /* \"#utility.yul\":2011:2074   */\n    tag_274:\n        /* \"#utility.yul\":1958:2080   */\n      pop\n      jump\t// out\n        /* \"#utility.yul\":2086:2225   */\n    tag_218:\n        /* \"#utility.yul\":2132:2137   */\n      0x00\n        /* \"#utility.yul\":2170:2176   */\n      dup2\n        /* \"#utility.yul\":2157:2177   */\n      calldataload\n        /* \"#utility.yul\":2148:2177   */\n      swap1\n      pop\n        /* \"#utility.yul\":2186:2219   */\n      tag_276\n        /* \"#utility.yul\":2213:2218   */\n      dup2\n        /* \"#utility.yul\":2186:2219   */\n      tag_217\n      jump\t// in\n    tag_276:\n        /* \"#utility.yul\":2086:2225   */\n      swap3\n      swap2\n      pop\n      pop\n      jump\t// out\n        /* \"#utility.yul\":2231:2308   */\n    tag_219:\n        /* \"#utility.yul\":2268:2275   */\n      0x00\n        /* \"#utility.yul\":2297:2302   */\n      dup2\n        /* \"#utility.yul\":2286:2302   */\n      swap1\n      pop\n        /* \"#utility.yul\":2231:2308   */\n      swap2\n      swap1\n      pop\n      jump\t// out\n        /* \"#utility.yul\":2314:2436   */\n    tag_220:\n        /* \"#utility.yul\":2387:2411   */\n      tag_279\n        /* \"#utility.yul\":2405:2410   */\n      dup2\n        /* \"#utility.yul\":2387:2411   */\n      tag_219\n      jump\t// in\n    tag_279:\n        /* \"#utility.yul\":2380:2385   */\n      dup2\n        /* \"#utility.yul\":2377:2412   */\n      eq\n        /* \"#utility.yul\":2367:2430   */\n      tag_280\n      jumpi\n        /* \"#utility.yul\":2426:2427   */\n      0x00\n        /* \"#utility.yul\":2423:2424   */\n      dup1\n        /* \"#utility.yul\":2416:2428   */\n      revert\n        /* \"#utility.yul\":2367:2430   */\n    tag_280:\n        /* \"#utility.yul\":2314:2436   */\n      pop\n      jump\t// out\n        /* \"#utility.yul\":2442:2581   */\n    tag_221:\n        /* \"#utility.yul\":2488:2493   */\n      0x00\n        /* \"#utility.yul\":2526:2532   */\n      dup2\n        /* \"#utility.yul\":2513:2533   */\n      calldataload\n        /* \"#utility.yul\":2504:2533   */\n      swap1\n      pop\n        /* \"#utility.yul\":2542:2575   */\n      tag_282\n        /* \"#utility.yul\":2569:2574   */\n      dup2\n        /* \"#utility.yul\":2542:2575   */\n      tag_220\n      jump\t// in\n    tag_282:\n        /* \"#utility.yul\":2442:2581   */\n      swap3\n      swap2\n      pop\n      pop\n      jump\t// out\n        /* \"#utility.yul\":2587:3061   */\n    tag_29:\n        /* \"#utility.yul\":2655:2661   */\n      0x00\n        /* \"#utility.yul\":2663:2669   */\n      dup1\n        /* \"#utility.yul\":2712:2714   */\n      0x40\n        /* \"#utility.yul\":2700:2709   */\n      dup4\n        /* \"#utility.yul\":2691:2698   */\n      dup6\n        /* \"#utility.yul\":2687:2710   */\n      sub\n        /* \"#utility.yul\":2683:2715   */\n      slt\n        /* \"#utility.yul\":2680:2799   */\n      iszero\n      tag_284\n      jumpi\n        /* \"#utility.yul\":2718:2797   */\n      tag_285\n      tag_213\n      jump\t// in\n    tag_285:\n        /* \"#utility.yul\":2680:2799   */\n    tag_284:\n        /* \"#utility.yul\":2838:2839   */\n      0x00\n        /* \"#utility.yul\":2863:2916   */\n      tag_286\n        /* \"#utility.yul\":2908:2915   */\n      dup6\n        /* \"#utility.yul\":2899:2905   */\n      dup3\n        /* \"#utility.yul\":2888:2897   */\n      dup7\n        /* \"#utility.yul\":2884:2906   */\n      add\n        /* \"#utility.yul\":2863:2916   */\n      tag_218\n      jump\t// in\n    tag_286:\n        /* \"#utility.yul\":2853:2916   */\n      swap3\n      pop\n        /* \"#utility.yul\":2809:2926   */\n      pop\n        /* \"#utility.yul\":2965:2967   */\n      0x20\n        /* \"#utility.yul\":2991:3044   */\n      tag_287\n        /* \"#utility.yul\":3036:3043   */\n      dup6\n        /* \"#utility.yul\":3027:3033   */\n      dup3\n        /* \"#utility.yul\":3016:3025   */\n      dup7\n        /* \"#utility.yul\":3012:3034   */\n      add\n        /* \"#utility.yul\":2991:3044   */\n      tag_221\n      jump\t// in\n    tag_287:\n        /* \"#utility.yul\":2981:3044   */\n      swap2\n      pop\n        /* \"#utility.yul\":2936:3054   */\n      pop\n        /* \"#utility.yul\":2587:3061   */\n      swap3\n      pop\n      swap3\n      swap1\n      pop\n      jump\t// out\n        /* \"#utility.yul\":3067:3157   */\n    tag_222:\n        /* \"#utility.yul\":3101:3108   */\n      0x00\n        /* \"#utility.yul\":3144:3149   */\n      dup2\n        /* \"#utility.yul\":3137:3150   */\n      iszero\n        /* \"#utility.yul\":3130:3151   */\n      iszero\n        /* \"#utility.yul\":3119:3151   */\n      swap1\n      pop\n        /* \"#utility.yul\":3067:3157   */\n      swap2\n      swap1\n      pop\n      jump\t// out\n        /* \"#utility.yul\":3163:3272   */\n    tag_223:\n        /* \"#utility.yul\":3244:3265   */\n      tag_290\n        /* \"#utility.yul\":3259:3264   */\n      dup2\n        /* \"#utility.yul\":3244:3265   */\n      tag_222\n      jump\t// in\n    tag_290:\n        /* \"#utility.yul\":3239:3242   */\n      dup3\n        /* \"#utility.yul\":3232:3266   */\n      mstore\n        /* \"#utility.yul\":3163:3272   */\n      pop\n      pop\n      jump\t// out\n        /* \"#utility.yul\":3278:3488   */\n    tag_32:\n        /* \"#utility.yul\":3365:3369   */\n      0x00\n        /* \"#utility.yul\":3403:3405   */\n      0x20\n        /* \"#utility.yul\":3392:3401   */\n      dup3\n        /* \"#utility.yul\":3388:3406   */\n      add\n        /* \"#utility.yul\":3380:3406   */\n      swap1\n      pop\n        /* \"#utility.yul\":3416:3481   */\n      tag_292\n        /* \"#utility.yul\":3478:3479   */\n      0x00\n        /* \"#utility.yul\":3467:3476   */\n      dup4\n        /* \"#utility.yul\":3463:3480   */\n      add\n        /* \"#utility.yul\":3454:3460   */\n      dup5\n        /* \"#utility.yul\":3416:3481   */\n      tag_223\n      jump\t// in\n    tag_292:\n        /* \"#utility.yul\":3278:3488   */\n      swap3\n      swap2\n      pop\n      pop\n      jump\t// out\n        /* \"#utility.yul\":3494:3612   */\n    tag_224:\n        /* \"#utility.yul\":3581:3605   */\n      tag_294\n        /* \"#utility.yul\":3599:3604   */\n      dup2\n        /* \"#utility.yul\":3581:3605   */\n      tag_219\n      jump\t// in\n    tag_294:\n        /* \"#utility.yul\":3576:3579   */\n      dup3\n        /* \"#utility.yul\":3569:3606   */\n      mstore\n        /* \"#utility.yul\":3494:3612   */\n      pop\n      pop\n      jump\t// out\n        /* \"#utility.yul\":3618:3840   */\n    tag_36:\n        /* \"#utility.yul\":3711:3715   */\n      0x00\n        /* \"#utility.yul\":3749:3751   */\n      0x20\n        /* \"#utility.yul\":3738:3747   */\n      dup3\n        /* \"#utility.yul\":3734:3752   */\n      add\n        /* \"#utility.yul\":3726:3752   */\n      swap1\n      pop\n        /* \"#utility.yul\":3762:3833   */\n      tag_296\n        /* \"#utility.yul\":3830:3831   */\n      0x00\n        /* \"#utility.yul\":3819:3828   */\n      dup4\n        /* \"#utility.yul\":3815:3832   */\n      add\n        /* \"#utility.yul\":3806:3812   */\n      dup5\n        /* \"#utility.yul\":3762:3833   */\n      tag_224\n      jump\t// in\n    tag_296:\n        /* \"#utility.yul\":3618:3840   */\n      swap3\n      swap2\n      pop\n      pop\n      jump\t// out\n        /* \"#utility.yul\":3846:4465   */\n    tag_39:\n        /* \"#utility.yul\":3923:3929   */\n      0x00\n        /* \"#utility.yul\":3931:3937   */\n      dup1\n        /* \"#utility.yul\":3939:3945   */\n      0x00\n        /* \"#utility.yul\":3988:3990   */\n      0x60\n        /* \"#utility.yul\":3976:3985   */\n      dup5\n        /* \"#utility.yul\":3967:3974   */\n      dup7\n        /* \"#utility.yul\":3963:3986   */\n      sub\n        /* \"#utility.yul\":3959:3991   */\n      slt\n        /* \"#utility.yul\":3956:4075   */\n      iszero\n      tag_298\n      jumpi\n        /* \"#utility.yul\":3994:4073   */\n      tag_299\n      tag_213\n      jump\t// in\n    tag_299:\n        /* \"#utility.yul\":3956:4075   */\n    tag_298:\n        /* \"#utility.yul\":4114:4115   */\n      0x00\n        /* \"#utility.yul\":4139:4192   */\n      tag_300\n        /* \"#utility.yul\":4184:4191   */\n      dup7\n        /* \"#utility.yul\":4175:4181   */\n      dup3\n        /* \"#utility.yul\":4164:4173   */\n      dup8\n        /* \"#utility.yul\":4160:4182   */\n      add\n        /* \"#utility.yul\":4139:4192   */\n      tag_218\n      jump\t// in\n    tag_300:\n        /* \"#utility.yul\":4129:4192   */\n      swap4\n      pop\n        /* \"#utility.yul\":4085:4202   */\n      pop\n        /* \"#utility.yul\":4241:4243   */\n      0x20\n        /* \"#utility.yul\":4267:4320   */\n      tag_301\n        /* \"#utility.yul\":4312:4319   */\n      dup7\n        /* \"#utility.yul\":4303:4309   */\n      dup3\n        /* \"#utility.yul\":4292:4301   */\n      dup8\n        /* \"#utility.yul\":4288:4310   */\n      add\n        /* \"#utility.yul\":4267:4320   */\n      tag_218\n      jump\t// in\n    tag_301:\n        /* \"#utility.yul\":4257:4320   */\n      swap3\n      pop\n        /* \"#utility.yul\":4212:4330   */\n      pop\n        /* \"#utility.yul\":4369:4371   */\n      0x40\n        /* \"#utility.yul\":4395:4448   */\n      tag_302\n        /* \"#utility.yul\":4440:4447   */\n      dup7\n        /* \"#utility.yul\":4431:4437   */\n      dup3\n        /* \"#utility.yul\":4420:4429   */\n      dup8\n        /* \"#utility.yul\":4416:4438   */\n      add\n        /* \"#utility.yul\":4395:4448   */\n      tag_221\n      jump\t// in\n    tag_302:\n        /* \"#utility.yul\":4385:4448   */\n      swap2\n      pop\n        /* \"#utility.yul\":4340:4458   */\n      pop\n        /* \"#utility.yul\":3846:4465   */\n      swap3\n      pop\n      swap3\n      pop\n      swap3\n      jump\t// out\n        /* \"#utility.yul\":4471:4557   */\n    tag_225:\n        /* \"#utility.yul\":4506:4513   */\n      0x00\n        /* \"#utility.yul\":4546:4550   */\n      0xff\n        /* \"#utility.yul\":4539:4544   */\n      dup3\n        /* \"#utility.yul\":4535:4551   */\n      and\n        /* \"#utility.yul\":4524:4551   */\n      swap1\n      pop\n        /* \"#utility.yul\":4471:4557   */\n      swap2\n      swap1\n      pop\n      jump\t// out\n        /* \"#utility.yul\":4563:4675   */\n    tag_226:\n        /* \"#utility.yul\":4646:4668   */\n      tag_305\n        /* \"#utility.yul\":4662:4667   */\n      dup2\n        /* \"#utility.yul\":4646:4668   */\n      tag_225\n      jump\t// in\n    tag_305:\n        /* \"#utility.yul\":4641:4644   */\n      dup3\n        /* \"#utility.yul\":4634:4669   */\n      mstore\n        /* \"#utility.yul\":4563:4675   */\n      pop\n      pop\n      jump\t// out\n        /* \"#utility.yul\":4681:4895   */\n    tag_45:\n        /* \"#utility.yul\":4770:4774   */\n      0x00\n        /* \"#utility.yul\":4808:4810   */\n      0x20\n        /* \"#utility.yul\":4797:4806   */\n      dup3\n        /* \"#utility.yul\":4793:4811   */\n      add\n        /* \"#utility.yul\":4785:4811   */\n      swap1\n      pop\n        /* \"#utility.yul\":4821:4888   */\n      tag_307\n        /* \"#utility.yul\":4885:4886   */\n      0x00\n        /* \"#utility.yul\":4874:4883   */\n      dup4\n        /* \"#utility.yul\":4870:4887   */\n      add\n        /* \"#utility.yul\":4861:4867   */\n      dup5\n        /* \"#utility.yul\":4821:4888   */\n      tag_226\n      jump\t// in\n    tag_307:\n        /* \"#utility.yul\":4681:4895   */\n      swap3\n      swap2\n      pop\n      pop\n      jump\t// out\n        /* \"#utility.yul\":4901:5230   */\n    tag_55:\n        /* \"#utility.yul\":4960:4966   */\n      0x00\n        /* \"#utility.yul\":5009:5011   */\n      0x20\n        /* \"#utility.yul\":4997:5006   */\n      dup3\n        /* \"#utility.yul\":4988:4995   */\n      dup5\n        /* \"#utility.yul\":4984:5007   */\n      sub\n        /* \"#utility.yul\":4980:5012   */\n      slt\n        /* \"#utility.yul\":4977:5096   */\n      iszero\n      tag_309\n      jumpi\n        /* \"#utility.yul\":5015:5094   */\n      tag_310\n      tag_213\n      jump\t// in\n    tag_310:\n        /* \"#utility.yul\":4977:5096   */\n    tag_309:\n        /* \"#utility.yul\":5135:5136   */\n      0x00\n        /* \"#utility.yul\":5160:5213   */\n      tag_311\n        /* \"#utility.yul\":5205:5212   */\n      dup5\n        /* \"#utility.yul\":5196:5202   */\n      dup3\n        /* \"#utility.yul\":5185:5194   */\n      dup6\n        /* \"#utility.yul\":5181:5203   */\n      add\n        /* \"#utility.yul\":5160:5213   */\n      tag_218\n      jump\t// in\n    tag_311:\n        /* \"#utility.yul\":5150:5213   */\n      swap2\n      pop\n        /* \"#utility.yul\":5106:5223   */\n      pop\n        /* \"#utility.yul\":4901:5230   */\n      swap3\n      swap2\n      pop\n      pop\n      jump\t// out\n        /* \"#utility.yul\":5236:5710   */\n    tag_60:\n        /* \"#utility.yul\":5304:5310   */\n      0x00\n        /* \"#utility.yul\":5312:5318   */\n      dup1\n        /* \"#utility.yul\":5361:5363   */\n      0x40\n        /* \"#utility.yul\":5349:5358   */\n      dup4\n        /* \"#utility.yul\":5340:5347   */\n      dup6\n        /* \"#utility.yul\":5336:5359   */\n      sub\n        /* \"#utility.yul\":5332:5364   */\n      slt\n        /* \"#utility.yul\":5329:5448   */\n      iszero\n      tag_313\n      jumpi\n        /* \"#utility.yul\":5367:5446   */\n      tag_314\n      tag_213\n      jump\t// in\n    tag_314:\n        /* \"#utility.yul\":5329:5448   */\n    tag_313:\n        /* \"#utility.yul\":5487:5488   */\n      0x00\n        /* \"#utility.yul\":5512:5565   */\n      tag_315\n        /* \"#utility.yul\":5557:5564   */\n      dup6\n        /* \"#utility.yul\":5548:5554   */\n      dup3\n        /* \"#utility.yul\":5537:5546   */\n      dup7\n        /* \"#utility.yul\":5533:5555   */\n      add\n        /* \"#utility.yul\":5512:5565   */\n      tag_218\n      jump\t// in\n    tag_315:\n        /* \"#utility.yul\":5502:5565   */\n      swap3\n      pop\n        /* \"#utility.yul\":5458:5575   */\n      pop\n        /* \"#utility.yul\":5614:5616   */\n      0x20\n        /* \"#utility.yul\":5640:5693   */\n      tag_316\n        /* \"#utility.yul\":5685:5692   */\n      dup6\n        /* \"#utility.yul\":5676:5682   */\n      dup3\n        /* \"#utility.yul\":5665:5674   */\n      dup7\n        /* \"#utility.yul\":5661:5683   */\n      add\n        /* \"#utility.yul\":5640:5693   */\n      tag_218\n      jump\t// in\n    tag_316:\n        /* \"#utility.yul\":5630:5693   */\n      swap2\n      pop\n        /* \"#utility.yul\":5585:5703   */\n      pop\n        /* \"#utility.yul\":5236:5710   */\n      swap3\n      pop\n      swap3\n      swap1\n      pop\n      jump\t// out\n        /* \"#utility.yul\":5716:5896   */\n    tag_227:\n        /* \"#utility.yul\":5764:5841   */\n      0x4e487b7100000000000000000000000000000000000000000000000000000000\n        /* \"#utility.yul\":5761:5762   */\n      0x00\n        /* \"#utility.yul\":5754:5842   */\n      mstore\n        /* \"#utility.yul\":5861:5865   */\n      0x22\n        /* \"#utility.yul\":5858:5859   */\n      0x04\n        /* \"#utility.yul\":5851:5866   */\n      mstore\n        /* \"#utility.yul\":5885:5889   */\n      0x24\n        /* \"#utility.yul\":5882:5883   */\n      0x00\n        /* \"#utility.yul\":5875:5890   */\n      revert\n        /* \"#utility.yul\":5902:6222   */\n    tag_95:\n        /* \"#utility.yul\":5946:5952   */\n      0x00\n        /* \"#utility.yul\":5983:5984   */\n      0x02\n        /* \"#utility.yul\":5977:5981   */\n      dup3\n        /* \"#utility.yul\":5973:5985   */\n      div\n        /* \"#utility.yul\":5963:5985   */\n      swap1\n      pop\n        /* \"#utility.yul\":6030:6031   */\n      0x01\n        /* \"#utility.yul\":6024:6028   */\n      dup3\n        /* \"#utility.yul\":6020:6032   */\n      and\n        /* \"#utility.yul\":6051:6069   */\n      dup1\n        /* \"#utility.yul\":6041:6122   */\n      tag_319\n      jumpi\n        /* \"#utility.yul\":6107:6111   */\n      0x7f\n        /* \"#utility.yul\":6099:6105   */\n      dup3\n        /* \"#utility.yul\":6095:6112   */\n      and\n        /* \"#utility.yul\":6085:6112   */\n      swap2\n      pop\n        /* \"#utility.yul\":6041:6122   */\n    tag_319:\n        /* \"#utility.yul\":6169:6171   */\n      0x20\n        /* \"#utility.yul\":6161:6167   */\n      dup3\n        /* \"#utility.yul\":6158:6172   */\n      lt\n        /* \"#utility.yul\":6138:6156   */\n      dup2\n        /* \"#utility.yul\":6135:6173   */\n      eq\n        /* \"#utility.yul\":6132:6216   */\n      iszero\n      tag_320\n      jumpi\n        /* \"#utility.yul\":6188:6206   */\n      tag_321\n      tag_227\n      jump\t// in\n    tag_321:\n        /* \"#utility.yul\":6132:6216   */\n    tag_320:\n        /* \"#utility.yul\":5953:6222   */\n      pop\n        /* \"#utility.yul\":5902:6222   */\n      swap2\n      swap1\n      pop\n      jump\t// out\n        /* \"#utility.yul\":6228:6408   */\n    tag_228:\n        /* \"#utility.yul\":6276:6353   */\n      0x4e487b7100000000000000000000000000000000000000000000000000000000\n        /* \"#utility.yul\":6273:6274   */\n      0x00\n        /* \"#utility.yul\":6266:6354   */\n      mstore\n        /* \"#utility.yul\":6373:6377   */\n      0x11\n        /* \"#utility.yul\":6370:6371   */\n      0x04\n        /* \"#utility.yul\":6363:6378   */\n      mstore\n        /* \"#utility.yul\":6397:6401   */\n      0x24\n        /* \"#utility.yul\":6394:6395   */\n      0x00\n        /* \"#utility.yul\":6387:6402   */\n      revert\n        /* \"#utility.yul\":6414:6719   */\n    tag_118:\n        /* \"#utility.yul\":6454:6457   */\n      0x00\n        /* \"#utility.yul\":6473:6493   */\n      tag_324\n        /* \"#utility.yul\":6491:6492   */\n      dup3\n        /* \"#utility.yul\":6473:6493   */\n      tag_219\n      jump\t// in\n    tag_324:\n        /* \"#utility.yul\":6468:6493   */\n      swap2\n      pop\n        /* \"#utility.yul\":6507:6527   */\n      tag_325\n        /* \"#utility.yul\":6525:6526   */\n      dup4\n        /* \"#utility.yul\":6507:6527   */\n      tag_219\n      jump\t// in\n    tag_325:\n        /* \"#utility.yul\":6502:6527   */\n      swap3\n      pop\n        /* \"#utility.yul\":6661:6662   */\n      dup3\n        /* \"#utility.yul\":6593:6659   */\n      0xffffffffffffffffffffffffffffffffffffffffffffffffffffffffffffffff\n        /* \"#utility.yul\":6589:6663   */\n      sub\n        /* \"#utility.yul\":6586:6587   */\n      dup3\n        /* \"#utility.yul\":6583:6664   */\n      gt\n        /* \"#utility.yul\":6580:6687   */\n      iszero\n      tag_326\n      jumpi\n        /* \"#utility.yul\":6667:6685   */\n      tag_327\n      tag_228\n      jump\t// in\n    tag_327:\n        /* \"#utility.yul\":6580:6687   */\n    tag_326:\n        /* \"#utility.yul\":6711:6712   */\n      dup3\n        /* \"#utility.yul\":6708:6709   */\n      dup3\n        /* \"#utility.yul\":6704:6713   */\n      add\n        /* \"#utility.yul\":6697:6713   */\n      swap1\n      pop\n        /* \"#utility.yul\":6414:6719   */\n      swap3\n      swap2\n      pop\n      pop\n      jump\t// out\n        /* \"#utility.yul\":6725:6903   */\n    tag_229:\n        /* \"#utility.yul\":6865:6895   */\n      0x796f7520646f6e2774206861766520746f6b656e20746f20766f746500000000\n        /* \"#utility.yul\":6861:6862   */\n      0x00\n        /* \"#utility.yul\":6853:6859   */\n      dup3\n        /* \"#utility.yul\":6849:6863   */\n      add\n        /* \"#utility.yul\":6842:6896   */\n      mstore\n        /* \"#utility.yul\":6725:6903   */\n      pop\n      jump\t// out\n        /* \"#utility.yul\":6909:7275   */\n    tag_230:\n        /* \"#utility.yul\":7051:7054   */\n      0x00\n        /* \"#utility.yul\":7072:7139   */\n      tag_330\n        /* \"#utility.yul\":7136:7138   */\n      0x1c\n        /* \"#utility.yul\":7131:7134   */\n      dup4\n        /* \"#utility.yul\":7072:7139   */\n      tag_208\n      jump\t// in\n    tag_330:\n        /* \"#utility.yul\":7065:7139   */\n      swap2\n      pop\n        /* \"#utility.yul\":7148:7241   */\n      tag_331\n        /* \"#utility.yul\":7237:7240   */\n      dup3\n        /* \"#utility.yul\":7148:7241   */\n      tag_229\n      jump\t// in\n    tag_331:\n        /* \"#utility.yul\":7266:7268   */\n      0x20\n        /* \"#utility.yul\":7261:7264   */\n      dup3\n        /* \"#utility.yul\":7257:7269   */\n      add\n        /* \"#utility.yul\":7250:7269   */\n      swap1\n      pop\n        /* \"#utility.yul\":6909:7275   */\n      swap2\n      swap1\n      pop\n      jump\t// out\n        /* \"#utility.yul\":7281:7700   */\n    tag_124:\n        /* \"#utility.yul\":7447:7451   */\n      0x00\n        /* \"#utility.yul\":7485:7487   */\n      0x20\n        /* \"#utility.yul\":7474:7483   */\n      dup3\n        /* \"#utility.yul\":7470:7488   */\n      add\n        /* \"#utility.yul\":7462:7488   */\n      swap1\n      pop\n        /* \"#utility.yul\":7534:7543   */\n      dup2\n        /* \"#utility.yul\":7528:7532   */\n      dup2\n        /* \"#utility.yul\":7524:7544   */\n      sub\n        /* \"#utility.yul\":7520:7521   */\n      0x00\n        /* \"#utility.yul\":7509:7518   */\n      dup4\n        /* \"#utility.yul\":7505:7522   */\n      add\n        /* \"#utility.yul\":7498:7545   */\n      mstore\n        /* \"#utility.yul\":7562:7693   */\n      tag_333\n        /* \"#utility.yul\":7688:7692   */\n      dup2\n        /* \"#utility.yul\":7562:7693   */\n      tag_230\n      jump\t// in\n    tag_333:\n        /* \"#utility.yul\":7554:7693   */\n      swap1\n      pop\n        /* \"#utility.yul\":7281:7700   */\n      swap2\n      swap1\n      pop\n      jump\t// out\n        /* \"#utility.yul\":7706:7886   */\n    tag_231:\n        /* \"#utility.yul\":7754:7831   */\n      0x4e487b7100000000000000000000000000000000000000000000000000000000\n        /* \"#utility.yul\":7751:7752   */\n      0x00\n        /* \"#utility.yul\":7744:7832   */\n      mstore\n        /* \"#utility.yul\":7851:7855   */\n      0x12\n        /* \"#utility.yul\":7848:7849   */\n      0x04\n        /* \"#utility.yul\":7841:7856   */\n      mstore\n        /* \"#utility.yul\":7875:7879   */\n      0x24\n        /* \"#utility.yul\":7872:7873   */\n      0x00\n        /* \"#utility.yul\":7865:7880   */\n      revert\n        /* \"#utility.yul\":7892:8068   */\n    tag_127:\n        /* \"#utility.yul\":7924:7925   */\n      0x00\n        /* \"#utility.yul\":7941:7961   */\n      tag_336\n        /* \"#utility.yul\":7959:7960   */\n      dup3\n        /* \"#utility.yul\":7941:7961   */\n      tag_219\n      jump\t// in\n    tag_336:\n        /* \"#utility.yul\":7936:7961   */\n      swap2\n      pop\n        /* \"#utility.yul\":7975:7995   */\n      tag_337\n        /* \"#utility.yul\":7993:7994   */\n      dup4\n        /* \"#utility.yul\":7975:7995   */\n      tag_219\n      jump\t// in\n    tag_337:\n        /* \"#utility.yul\":7970:7995   */\n      swap3\n      pop\n        /* \"#utility.yul\":8014:8015   */\n      dup3\n        /* \"#utility.yul\":8004:8039   */\n      tag_338\n      jumpi\n        /* \"#utility.yul\":8019:8037   */\n      tag_339\n      tag_231\n      jump\t// in\n    tag_339:\n        /* \"#utility.yul\":8004:8039   */\n    tag_338:\n        /* \"#utility.yul\":8060:8061   */\n      dup3\n        /* \"#utility.yul\":8057:8058   */\n      dup3\n        /* \"#utility.yul\":8053:8062   */\n      mod\n        /* \"#utility.yul\":8048:8062   */\n      swap1\n      pop\n        /* \"#utility.yul\":7892:8068   */\n      swap3\n      swap2\n      pop\n      pop\n      jump\t// out\n        /* \"#utility.yul\":8074:8242   */\n    tag_232:\n        /* \"#utility.yul\":8214:8234   */\n      0x313020746f6b656e732069732031207965730000000000000000000000000000\n        /* \"#utility.yul\":8210:8211   */\n      0x00\n        /* \"#utility.yul\":8202:8208   */\n      dup3\n        /* \"#utility.yul\":8198:8212   */\n      add\n        /* \"#utility.yul\":8191:8235   */\n      mstore\n        /* \"#utility.yul\":8074:8242   */\n      pop\n      jump\t// out\n        /* \"#utility.yul\":8248:8614   */\n    tag_233:\n        /* \"#utility.yul\":8390:8393   */\n      0x00\n        /* \"#utility.yul\":8411:8478   */\n      tag_342\n        /* \"#utility.yul\":8475:8477   */\n      0x12\n        /* \"#utility.yul\":8470:8473   */\n      dup4\n        /* \"#utility.yul\":8411:8478   */\n      tag_208\n      jump\t// in\n    tag_342:\n        /* \"#utility.yul\":8404:8478   */\n      swap2\n      pop\n        /* \"#utility.yul\":8487:8580   */\n      tag_343\n        /* \"#utility.yul\":8576:8579   */\n      dup3\n        /* \"#utility.yul\":8487:8580   */\n      tag_232\n      jump\t// in\n    tag_343:\n        /* \"#utility.yul\":8605:8607   */\n      0x20\n        /* \"#utility.yul\":8600:8603   */\n      dup3\n        /* \"#utility.yul\":8596:8608   */\n      add\n        /* \"#utility.yul\":8589:8608   */\n      swap1\n      pop\n        /* \"#utility.yul\":8248:8614   */\n      swap2\n      swap1\n      pop\n      jump\t// out\n        /* \"#utility.yul\":8620:9039   */\n    tag_130:\n        /* \"#utility.yul\":8786:8790   */\n      0x00\n        /* \"#utility.yul\":8824:8826   */\n      0x20\n        /* \"#utility.yul\":8813:8822   */\n      dup3\n        /* \"#utility.yul\":8809:8827   */\n      add\n        /* \"#utility.yul\":8801:8827   */\n      swap1\n      pop\n        /* \"#utility.yul\":8873:8882   */\n      dup2\n        /* \"#utility.yul\":8867:8871   */\n      dup2\n        /* \"#utility.yul\":8863:8883   */\n      sub\n        /* \"#utility.yul\":8859:8860   */\n      0x00\n        /* \"#utility.yul\":8848:8857   */\n      dup4\n        /* \"#utility.yul\":8844:8861   */\n      add\n        /* \"#utility.yul\":8837:8884   */\n      mstore\n        /* \"#utility.yul\":8901:9032   */\n      tag_345\n        /* \"#utility.yul\":9027:9031   */\n      dup2\n        /* \"#utility.yul\":8901:9032   */\n      tag_233\n      jump\t// in\n    tag_345:\n        /* \"#utility.yul\":8893:9032   */\n      swap1\n      pop\n        /* \"#utility.yul\":8620:9039   */\n      swap2\n      swap1\n      pop\n      jump\t// out\n        /* \"#utility.yul\":9045:9225   */\n    tag_133:\n        /* \"#utility.yul\":9093:9170   */\n      0x4e487b7100000000000000000000000000000000000000000000000000000000\n        /* \"#utility.yul\":9090:9091   */\n      0x00\n        /* \"#utility.yul\":9083:9171   */\n      mstore\n        /* \"#utility.yul\":9190:9194   */\n      0x01\n        /* \"#utility.yul\":9187:9188   */\n      0x04\n        /* \"#utility.yul\":9180:9195   */\n      mstore\n        /* \"#utility.yul\":9214:9218   */\n      0x24\n        /* \"#utility.yul\":9211:9212   */\n      0x00\n        /* \"#utility.yul\":9204:9219   */\n      revert\n        /* \"#utility.yul\":9231:9416   */\n    tag_135:\n        /* \"#utility.yul\":9271:9272   */\n      0x00\n        /* \"#utility.yul\":9288:9308   */\n      tag_348\n        /* \"#utility.yul\":9306:9307   */\n      dup3\n        /* \"#utility.yul\":9288:9308   */\n      tag_219\n      jump\t// in\n    tag_348:\n        /* \"#utility.yul\":9283:9308   */\n      swap2\n      pop\n        /* \"#utility.yul\":9322:9342   */\n      tag_349\n        /* \"#utility.yul\":9340:9341   */\n      dup4\n        /* \"#utility.yul\":9322:9342   */\n      tag_219\n      jump\t// in\n    tag_349:\n        /* \"#utility.yul\":9317:9342   */\n      swap3\n      pop\n        /* \"#utility.yul\":9361:9362   */\n      dup3\n        /* \"#utility.yul\":9351:9386   */\n      tag_350\n      jumpi\n        /* \"#utility.yul\":9366:9384   */\n      tag_351\n      tag_231\n      jump\t// in\n    tag_351:\n        /* \"#utility.yul\":9351:9386   */\n    tag_350:\n        /* \"#utility.yul\":9408:9409   */\n      dup3\n        /* \"#utility.yul\":9405:9406   */\n      dup3\n        /* \"#utility.yul\":9401:9410   */\n      div\n        /* \"#utility.yul\":9396:9410   */\n      swap1\n      pop\n        /* \"#utility.yul\":9231:9416   */\n      swap3\n      swap2\n      pop\n      pop\n      jump\t// out\n        /* \"#utility.yul\":9422:9646   */\n    tag_234:\n        /* \"#utility.yul\":9562:9596   */\n      0x45524332303a2064656372656173656420616c6c6f77616e63652062656c6f77\n        /* \"#utility.yul\":9558:9559   */\n      0x00\n        /* \"#utility.yul\":9550:9556   */\n      dup3\n        /* \"#utility.yul\":9546:9560   */\n      add\n        /* \"#utility.yul\":9539:9597   */\n      mstore\n        /* \"#utility.yul\":9631:9638   */\n      0x207a65726f000000000000000000000000000000000000000000000000000000\n        /* \"#utility.yul\":9626:9628   */\n      0x20\n        /* \"#utility.yul\":9618:9624   */\n      dup3\n        /* \"#utility.yul\":9614:9629   */\n      add\n        /* \"#utility.yul\":9607:9639   */\n      mstore\n        /* \"#utility.yul\":9422:9646   */\n      pop\n      jump\t// out\n        /* \"#utility.yul\":9652:10018   */\n    tag_235:\n        /* \"#utility.yul\":9794:9797   */\n      0x00\n        /* \"#utility.yul\":9815:9882   */\n      tag_354\n        /* \"#utility.yul\":9879:9881   */\n      0x25\n        /* \"#utility.yul\":9874:9877   */\n      dup4\n        /* \"#utility.yul\":9815:9882   */\n      tag_208\n      jump\t// in\n    tag_354:\n        /* \"#utility.yul\":9808:9882   */\n      swap2\n      pop\n        /* \"#utility.yul\":9891:9984   */\n      tag_355\n        /* \"#utility.yul\":9980:9983   */\n      dup3\n        /* \"#utility.yul\":9891:9984   */\n      tag_234\n      jump\t// in\n    tag_355:\n        /* \"#utility.yul\":10009:10011   */\n      0x40\n        /* \"#utility.yul\":10004:10007   */\n      dup3\n        /* \"#utility.yul\":10000:10012   */\n      add\n        /* \"#utility.yul\":9993:10012   */\n      swap1\n      pop\n        /* \"#utility.yul\":9652:10018   */\n      swap2\n      swap1\n      pop\n      jump\t// out\n        /* \"#utility.yul\":10024:10443   */\n    tag_152:\n        /* \"#utility.yul\":10190:10194   */\n      0x00\n        /* \"#utility.yul\":10228:10230   */\n      0x20\n        /* \"#utility.yul\":10217:10226   */\n      dup3\n        /* \"#utility.yul\":10213:10231   */\n      add\n        /* \"#utility.yul\":10205:10231   */\n      swap1\n      pop\n        /* \"#utility.yul\":10277:10286   */\n      dup2\n        /* \"#utility.yul\":10271:10275   */\n      dup2\n        /* \"#utility.yul\":10267:10287   */\n      sub\n        /* \"#utility.yul\":10263:10264   */\n      0x00\n        /* \"#utility.yul\":10252:10261   */\n      dup4\n        /* \"#utility.yul\":10248:10265   */\n      add\n        /* \"#utility.yul\":10241:10288   */\n      mstore\n        /* \"#utility.yul\":10305:10436   */\n      tag_357\n        /* \"#utility.yul\":10431:10435   */\n      dup2\n        /* \"#utility.yul\":10305:10436   */\n      tag_235\n      jump\t// in\n    tag_357:\n        /* \"#utility.yul\":10297:10436   */\n      swap1\n      pop\n        /* \"#utility.yul\":10024:10443   */\n      swap2\n      swap1\n      pop\n      jump\t// out\n        /* \"#utility.yul\":10449:10628   */\n    tag_236:\n        /* \"#utility.yul\":10589:10620   */\n      0x5468697320766f74696e67206973207374696c6c206f6e20676f696e67000000\n        /* \"#utility.yul\":10585:10586   */\n      0x00\n        /* \"#utility.yul\":10577:10583   */\n      dup3\n        /* \"#utility.yul\":10573:10587   */\n      add\n        /* \"#utility.yul\":10566:10621   */\n      mstore\n        /* \"#utility.yul\":10449:10628   */\n      pop\n      jump\t// out\n        /* \"#utility.yul\":10634:11000   */\n    tag_237:\n        /* \"#utility.yul\":10776:10779   */\n      0x00\n        /* \"#utility.yul\":10797:10864   */\n      tag_360\n        /* \"#utility.yul\":10861:10863   */\n      0x1d\n        /* \"#utility.yul\":10856:10859   */\n      dup4\n        /* \"#utility.yul\":10797:10864   */\n      tag_208\n      jump\t// in\n    tag_360:\n        /* \"#utility.yul\":10790:10864   */\n      swap2\n      pop\n        /* \"#utility.yul\":10873:10966   */\n      tag_361\n        /* \"#utility.yul\":10962:10965   */\n      dup3\n        /* \"#utility.yul\":10873:10966   */\n      tag_236\n      jump\t// in\n    tag_361:\n        /* \"#utility.yul\":10991:10993   */\n      0x20\n        /* \"#utility.yul\":10986:10989   */\n      dup3\n        /* \"#utility.yul\":10982:10994   */\n      add\n        /* \"#utility.yul\":10975:10994   */\n      swap1\n      pop\n        /* \"#utility.yul\":10634:11000   */\n      swap2\n      swap1\n      pop\n      jump\t// out\n        /* \"#utility.yul\":11006:11425   */\n    tag_160:\n        /* \"#utility.yul\":11172:11176   */\n      0x00\n        /* \"#utility.yul\":11210:11212   */\n      0x20\n        /* \"#utility.yul\":11199:11208   */\n      dup3\n        /* \"#utility.yul\":11195:11213   */\n      add\n        /* \"#utility.yul\":11187:11213   */\n      swap1\n      pop\n        /* \"#utility.yul\":11259:11268   */\n      dup2\n        /* \"#utility.yul\":11253:11257   */\n      dup2\n        /* \"#utility.yul\":11249:11269   */\n      sub\n        /* \"#utility.yul\":11245:11246   */\n      0x00\n        /* \"#utility.yul\":11234:11243   */\n      dup4\n        /* \"#utility.yul\":11230:11247   */\n      add\n        /* \"#utility.yul\":11223:11270   */\n      mstore\n        /* \"#utility.yul\":11287:11418   */\n      tag_363\n        /* \"#utility.yul\":11413:11417   */\n      dup2\n        /* \"#utility.yul\":11287:11418   */\n      tag_237\n      jump\t// in\n    tag_363:\n        /* \"#utility.yul\":11279:11418   */\n      swap1\n      pop\n        /* \"#utility.yul\":11006:11425   */\n      swap2\n      swap1\n      pop\n      jump\t// out\n        /* \"#utility.yul\":11431:11654   */\n    tag_238:\n        /* \"#utility.yul\":11571:11605   */\n      0x45524332303a20617070726f76652066726f6d20746865207a65726f20616464\n        /* \"#utility.yul\":11567:11568   */\n      0x00\n        /* \"#utility.yul\":11559:11565   */\n      dup3\n        /* \"#utility.yul\":11555:11569   */\n      add\n        /* \"#utility.yul\":11548:11606   */\n      mstore\n        /* \"#utility.yul\":11640:11646   */\n      0x7265737300000000000000000000000000000000000000000000000000000000\n        /* \"#utility.yul\":11635:11637   */\n      0x20\n        /* \"#utility.yul\":11627:11633   */\n      dup3\n        /* \"#utility.yul\":11623:11638   */\n      add\n        /* \"#utility.yul\":11616:11647   */\n      mstore\n        /* \"#utility.yul\":11431:11654   */\n      pop\n      jump\t// out\n        /* \"#utility.yul\":11660:12026   */\n    tag_239:\n        /* \"#utility.yul\":11802:11805   */\n      0x00\n        /* \"#utility.yul\":11823:11890   */\n      tag_366\n        /* \"#utility.yul\":11887:11889   */\n      0x24\n        /* \"#utility.yul\":11882:11885   */\n      dup4\n        /* \"#utility.yul\":11823:11890   */\n      tag_208\n      jump\t// in\n    tag_366:\n        /* \"#utility.yul\":11816:11890   */\n      swap2\n      pop\n        /* \"#utility.yul\":11899:11992   */\n      tag_367\n        /* \"#utility.yul\":11988:11991   */\n      dup3\n        /* \"#utility.yul\":11899:11992   */\n      tag_238\n      jump\t// in\n    tag_367:\n        /* \"#utility.yul\":12017:12019   */\n      0x40\n        /* \"#utility.yul\":12012:12015   */\n      dup3\n        /* \"#utility.yul\":12008:12020   */\n      add\n        /* \"#utility.yul\":12001:12020   */\n      swap1\n      pop\n        /* \"#utility.yul\":11660:12026   */\n      swap2\n      swap1\n      pop\n      jump\t// out\n        /* \"#utility.yul\":12032:12451   */\n    tag_169:\n        /* \"#utility.yul\":12198:12202   */\n      0x00\n        /* \"#utility.yul\":12236:12238   */\n      0x20\n        /* \"#utility.yul\":12225:12234   */\n      dup3\n        /* \"#utility.yul\":12221:12239   */\n      add\n        /* \"#utility.yul\":12213:12239   */\n      swap1\n      pop\n        /* \"#utility.yul\":12285:12294   */\n      dup2\n        /* \"#utility.yul\":12279:12283   */\n      dup2\n        /* \"#utility.yul\":12275:12295   */\n      sub\n        /* \"#utility.yul\":12271:12272   */\n      0x00\n        /* \"#utility.yul\":12260:12269   */\n      dup4\n        /* \"#utility.yul\":12256:12273   */\n      add\n        /* \"#utility.yul\":12249:12296   */\n      mstore\n        /* \"#utility.yul\":12313:12444   */\n      tag_369\n        /* \"#utility.yul\":12439:12443   */\n      dup2\n        /* \"#utility.yul\":12313:12444   */\n      tag_239\n      jump\t// in\n    tag_369:\n        /* \"#utility.yul\":12305:12444   */\n      swap1\n      pop\n        /* \"#utility.yul\":12032:12451   */\n      swap2\n      swap1\n      pop\n      jump\t// out\n        /* \"#utility.yul\":12457:12678   */\n    tag_240:\n        /* \"#utility.yul\":12597:12631   */\n      0x45524332303a20617070726f766520746f20746865207a65726f206164647265\n        /* \"#utility.yul\":12593:12594   */\n      0x00\n        /* \"#utility.yul\":12585:12591   */\n      dup3\n        /* \"#utility.yul\":12581:12595   */\n      add\n        /* \"#utility.yul\":12574:12632   */\n      mstore\n        /* \"#utility.yul\":12666:12670   */\n      0x7373000000000000000000000000000000000000000000000000000000000000\n        /* \"#utility.yul\":12661:12663   */\n      0x20\n        /* \"#utility.yul\":12653:12659   */\n      dup3\n        /* \"#utility.yul\":12649:12664   */\n      add\n        /* \"#utility.yul\":12642:12671   */\n      mstore\n        /* \"#utility.yul\":12457:12678   */\n      pop\n      jump\t// out\n        /* \"#utility.yul\":12684:13050   */\n    tag_241:\n        /* \"#utility.yul\":12826:12829   */\n      0x00\n        /* \"#utility.yul\":12847:12914   */\n      tag_372\n        /* \"#utility.yul\":12911:12913   */\n      0x22\n        /* \"#utility.yul\":12906:12909   */\n      dup4\n        /* \"#utility.yul\":12847:12914   */\n      tag_208\n      jump\t// in\n    tag_372:\n        /* \"#utility.yul\":12840:12914   */\n      swap2\n      pop\n        /* \"#utility.yul\":12923:13016   */\n      tag_373\n        /* \"#utility.yul\":13012:13015   */\n      dup3\n        /* \"#utility.yul\":12923:13016   */\n      tag_240\n      jump\t// in\n    tag_373:\n        /* \"#utility.yul\":13041:13043   */\n      0x40\n        /* \"#utility.yul\":13036:13039   */\n      dup3\n        /* \"#utility.yul\":13032:13044   */\n      add\n        /* \"#utility.yul\":13025:13044   */\n      swap1\n      pop\n        /* \"#utility.yul\":12684:13050   */\n      swap2\n      swap1\n      pop\n      jump\t// out\n        /* \"#utility.yul\":13056:13475   */\n    tag_172:\n        /* \"#utility.yul\":13222:13226   */\n      0x00\n        /* \"#utility.yul\":13260:13262   */\n      0x20\n        /* \"#utility.yul\":13249:13258   */\n      dup3\n        /* \"#utility.yul\":13245:13263   */\n      add\n        /* \"#utility.yul\":13237:13263   */\n      swap1\n      pop\n        /* \"#utility.yul\":13309:13318   */\n      dup2\n        /* \"#utility.yul\":13303:13307   */\n      dup2\n        /* \"#utility.yul\":13299:13319   */\n      sub\n        /* \"#utility.yul\":13295:13296   */\n      0x00\n        /* \"#utility.yul\":13284:13293   */\n      dup4\n        /* \"#utility.yul\":13280:13297   */\n      add\n        /* \"#utility.yul\":13273:13320   */\n      mstore\n        /* \"#utility.yul\":13337:13468   */\n      tag_375\n        /* \"#utility.yul\":13463:13467   */\n      dup2\n        /* \"#utility.yul\":13337:13468   */\n      tag_241\n      jump\t// in\n    tag_375:\n        /* \"#utility.yul\":13329:13468   */\n      swap1\n      pop\n        /* \"#utility.yul\":13056:13475   */\n      swap2\n      swap1\n      pop\n      jump\t// out\n        /* \"#utility.yul\":13481:13660   */\n    tag_242:\n        /* \"#utility.yul\":13621:13652   */\n      0x45524332303a20696e73756666696369656e7420616c6c6f77616e6365000000\n        /* \"#utility.yul\":13617:13618   */\n      0x00\n        /* \"#utility.yul\":13609:13615   */\n      dup3\n        /* \"#utility.yul\":13605:13619   */\n      add\n        /* \"#utility.yul\":13598:13653   */\n      mstore\n        /* \"#utility.yul\":13481:13660   */\n      pop\n      jump\t// out\n        /* \"#utility.yul\":13666:14032   */\n    tag_243:\n        /* \"#utility.yul\":13808:13811   */\n      0x00\n        /* \"#utility.yul\":13829:13896   */\n      tag_378\n        /* \"#utility.yul\":13893:13895   */\n      0x1d\n        /* \"#utility.yul\":13888:13891   */\n      dup4\n        /* \"#utility.yul\":13829:13896   */\n      tag_208\n      jump\t// in\n    tag_378:\n        /* \"#utility.yul\":13822:13896   */\n      swap2\n      pop\n        /* \"#utility.yul\":13905:13998   */\n      tag_379\n        /* \"#utility.yul\":13994:13997   */\n      dup3\n        /* \"#utility.yul\":13905:13998   */\n      tag_242\n      jump\t// in\n    tag_379:\n        /* \"#utility.yul\":14023:14025   */\n      0x20\n        /* \"#utility.yul\":14018:14021   */\n      dup3\n        /* \"#utility.yul\":14014:14026   */\n      add\n        /* \"#utility.yul\":14007:14026   */\n      swap1\n      pop\n        /* \"#utility.yul\":13666:14032   */\n      swap2\n      swap1\n      pop\n      jump\t// out\n        /* \"#utility.yul\":14038:14457   */\n    tag_179:\n        /* \"#utility.yul\":14204:14208   */\n      0x00\n        /* \"#utility.yul\":14242:14244   */\n      0x20\n        /* \"#utility.yul\":14231:14240   */\n      dup3\n        /* \"#utility.yul\":14227:14245   */\n      add\n        /* \"#utility.yul\":14219:14245   */\n      swap1\n      pop\n        /* \"#utility.yul\":14291:14300   */\n      dup2\n        /* \"#utility.yul\":14285:14289   */\n      dup2\n        /* \"#utility.yul\":14281:14301   */\n      sub\n        /* \"#utility.yul\":14277:14278   */\n      0x00\n        /* \"#utility.yul\":14266:14275   */\n      dup4\n        /* \"#utility.yul\":14262:14279   */\n      add\n        /* \"#utility.yul\":14255:14302   */\n      mstore\n        /* \"#utility.yul\":14319:14450   */\n      tag_381\n        /* \"#utility.yul\":14445:14449   */\n      dup2\n        /* \"#utility.yul\":14319:14450   */\n      tag_243\n      jump\t// in\n    tag_381:\n        /* \"#utility.yul\":14311:14450   */\n      swap1\n      pop\n        /* \"#utility.yul\":14038:14457   */\n      swap2\n      swap1\n      pop\n      jump\t// out\n        /* \"#utility.yul\":14463:14687   */\n    tag_244:\n        /* \"#utility.yul\":14603:14637   */\n      0x45524332303a207472616e736665722066726f6d20746865207a65726f206164\n        /* \"#utility.yul\":14599:14600   */\n      0x00\n        /* \"#utility.yul\":14591:14597   */\n      dup3\n        /* \"#utility.yul\":14587:14601   */\n      add\n        /* \"#utility.yul\":14580:14638   */\n      mstore\n        /* \"#utility.yul\":14672:14679   */\n      0x6472657373000000000000000000000000000000000000000000000000000000\n        /* \"#utility.yul\":14667:14669   */\n      0x20\n        /* \"#utility.yul\":14659:14665   */\n      dup3\n        /* \"#utility.yul\":14655:14670   */\n      add\n        /* \"#utility.yul\":14648:14680   */\n      mstore\n        /* \"#utility.yul\":14463:14687   */\n      pop\n      jump\t// out\n        /* \"#utility.yul\":14693:15059   */\n    tag_245:\n        /* \"#utility.yul\":14835:14838   */\n      0x00\n        /* \"#utility.yul\":14856:14923   */\n      tag_384\n        /* \"#utility.yul\":14920:14922   */\n      0x25\n        /* \"#utility.yul\":14915:14918   */\n      dup4\n        /* \"#utility.yul\":14856:14923   */\n      tag_208\n      jump\t// in\n    tag_384:\n        /* \"#utility.yul\":14849:14923   */\n      swap2\n      pop\n        /* \"#utility.yul\":14932:15025   */\n      tag_385\n        /* \"#utility.yul\":15021:15024   */\n      dup3\n        /* \"#utility.yul\":14932:15025   */\n      tag_244\n      jump\t// in\n    tag_385:\n        /* \"#utility.yul\":15050:15052   */\n      0x40\n        /* \"#utility.yul\":15045:15048   */\n      dup3\n        /* \"#utility.yul\":15041:15053   */\n      add\n        /* \"#utility.yul\":15034:15053   */\n      swap1\n      pop\n        /* \"#utility.yul\":14693:15059   */\n      swap2\n      swap1\n      pop\n      jump\t// out\n        /* \"#utility.yul\":15065:15484   */\n    tag_184:\n        /* \"#utility.yul\":15231:15235   */\n      0x00\n        /* \"#utility.yul\":15269:15271   */\n      0x20\n        /* \"#utility.yul\":15258:15267   */\n      dup3\n        /* \"#utility.yul\":15254:15272   */\n      add\n        /* \"#utility.yul\":15246:15272   */\n      swap1\n      pop\n        /* \"#utility.yul\":15318:15327   */\n      dup2\n        /* \"#utility.yul\":15312:15316   */\n      dup2\n        /* \"#utility.yul\":15308:15328   */\n      sub\n        /* \"#utility.yul\":15304:15305   */\n      0x00\n        /* \"#utility.yul\":15293:15302   */\n      dup4\n        /* \"#utility.yul\":15289:15306   */\n      add\n        /* \"#utility.yul\":15282:15329   */\n      mstore\n        /* \"#utility.yul\":15346:15477   */\n      tag_387\n        /* \"#utility.yul\":15472:15476   */\n      dup2\n        /* \"#utility.yul\":15346:15477   */\n      tag_245\n      jump\t// in\n    tag_387:\n        /* \"#utility.yul\":15338:15477   */\n      swap1\n      pop\n        /* \"#utility.yul\":15065:15484   */\n      swap2\n      swap1\n      pop\n      jump\t// out\n        /* \"#utility.yul\":15490:15712   */\n    tag_246:\n        /* \"#utility.yul\":15630:15664   */\n      0x45524332303a207472616e7366657220746f20746865207a65726f2061646472\n        /* \"#utility.yul\":15626:15627   */\n      0x00\n        /* \"#utility.yul\":15618:15624   */\n      dup3\n        /* \"#utility.yul\":15614:15628   */\n      add\n        /* \"#utility.yul\":15607:15665   */\n      mstore\n        /* \"#utility.yul\":15699:15704   */\n      0x6573730000000000000000000000000000000000000000000000000000000000\n        /* \"#utility.yul\":15694:15696   */\n      0x20\n        /* \"#utility.yul\":15686:15692   */\n      dup3\n        /* \"#utility.yul\":15682:15697   */\n      add\n        /* \"#utility.yul\":15675:15705   */\n      mstore\n        /* \"#utility.yul\":15490:15712   */\n      pop\n      jump\t// out\n        /* \"#utility.yul\":15718:16084   */\n    tag_247:\n        /* \"#utility.yul\":15860:15863   */\n      0x00\n        /* \"#utility.yul\":15881:15948   */\n      tag_390\n        /* \"#utility.yul\":15945:15947   */\n      0x23\n        /* \"#utility.yul\":15940:15943   */\n      dup4\n        /* \"#utility.yul\":15881:15948   */\n      tag_208\n      jump\t// in\n    tag_390:\n        /* \"#utility.yul\":15874:15948   */\n      swap2\n      pop\n        /* \"#utility.yul\":15957:16050   */\n      tag_391\n        /* \"#utility.yul\":16046:16049   */\n      dup3\n        /* \"#utility.yul\":15957:16050   */\n      tag_246\n      jump\t// in\n    tag_391:\n        /* \"#utility.yul\":16075:16077   */\n      0x40\n        /* \"#utility.yul\":16070:16073   */\n      dup3\n        /* \"#utility.yul\":16066:16078   */\n      add\n        /* \"#utility.yul\":16059:16078   */\n      swap1\n      pop\n        /* \"#utility.yul\":15718:16084   */\n      swap2\n      swap1\n      pop\n      jump\t// out\n        /* \"#utility.yul\":16090:16509   */\n    tag_187:\n        /* \"#utility.yul\":16256:16260   */\n      0x00\n        /* \"#utility.yul\":16294:16296   */\n      0x20\n        /* \"#utility.yul\":16283:16292   */\n      dup3\n        /* \"#utility.yul\":16279:16297   */\n      add\n        /* \"#utility.yul\":16271:16297   */\n      swap1\n      pop\n        /* \"#utility.yul\":16343:16352   */\n      dup2\n        /* \"#utility.yul\":16337:16341   */\n      dup2\n        /* \"#utility.yul\":16333:16353   */\n      sub\n        /* \"#utility.yul\":16329:16330   */\n      0x00\n        /* \"#utility.yul\":16318:16327   */\n      dup4\n        /* \"#utility.yul\":16314:16331   */\n      add\n        /* \"#utility.yul\":16307:16354   */\n      mstore\n        /* \"#utility.yul\":16371:16502   */\n      tag_393\n        /* \"#utility.yul\":16497:16501   */\n      dup2\n        /* \"#utility.yul\":16371:16502   */\n      tag_247\n      jump\t// in\n    tag_393:\n        /* \"#utility.yul\":16363:16502   */\n      swap1\n      pop\n        /* \"#utility.yul\":16090:16509   */\n      swap2\n      swap1\n      pop\n      jump\t// out\n        /* \"#utility.yul\":16515:16706   */\n    tag_191:\n        /* \"#utility.yul\":16555:16559   */\n      0x00\n        /* \"#utility.yul\":16575:16595   */\n      tag_395\n        /* \"#utility.yul\":16593:16594   */\n      dup3\n        /* \"#utility.yul\":16575:16595   */\n      tag_219\n      jump\t// in\n    tag_395:\n        /* \"#utility.yul\":16570:16595   */\n      swap2\n      pop\n        /* \"#utility.yul\":16609:16629   */\n      tag_396\n        /* \"#utility.yul\":16627:16628   */\n      dup4\n        /* \"#utility.yul\":16609:16629   */\n      tag_219\n      jump\t// in\n    tag_396:\n        /* \"#utility.yul\":16604:16629   */\n      swap3\n      pop\n        /* \"#utility.yul\":16648:16649   */\n      dup3\n        /* \"#utility.yul\":16645:16646   */\n      dup3\n        /* \"#utility.yul\":16642:16650   */\n      lt\n        /* \"#utility.yul\":16639:16673   */\n      iszero\n      tag_397\n      jumpi\n        /* \"#utility.yul\":16653:16671   */\n      tag_398\n      tag_228\n      jump\t// in\n    tag_398:\n        /* \"#utility.yul\":16639:16673   */\n    tag_397:\n        /* \"#utility.yul\":16698:16699   */\n      dup3\n        /* \"#utility.yul\":16695:16696   */\n      dup3\n        /* \"#utility.yul\":16691:16700   */\n      sub\n        /* \"#utility.yul\":16683:16700   */\n      swap1\n      pop\n        /* \"#utility.yul\":16515:16706   */\n      swap3\n      swap2\n      pop\n      pop\n      jump\t// out\n        /* \"#utility.yul\":16712:16941   */\n    tag_248:\n        /* \"#utility.yul\":16852:16886   */\n      0x45524332303a207472616e7366657261626c6520616d6f756e74206578636565\n        /* \"#utility.yul\":16848:16849   */\n      0x00\n        /* \"#utility.yul\":16840:16846   */\n      dup3\n        /* \"#utility.yul\":16836:16850   */\n      add\n        /* \"#utility.yul\":16829:16887   */\n      mstore\n        /* \"#utility.yul\":16921:16933   */\n      0x64732062616c616e636500000000000000000000000000000000000000000000\n        /* \"#utility.yul\":16916:16918   */\n      0x20\n        /* \"#utility.yul\":16908:16914   */\n      dup3\n        /* \"#utility.yul\":16904:16919   */\n      add\n        /* \"#utility.yul\":16897:16934   */\n      mstore\n        /* \"#utility.yul\":16712:16941   */\n      pop\n      jump\t// out\n        /* \"#utility.yul\":16947:17313   */\n    tag_249:\n        /* \"#utility.yul\":17089:17092   */\n      0x00\n        /* \"#utility.yul\":17110:17177   */\n      tag_401\n        /* \"#utility.yul\":17174:17176   */\n      0x2a\n        /* \"#utility.yul\":17169:17172   */\n      dup4\n        /* \"#utility.yul\":17110:17177   */\n      tag_208\n      jump\t// in\n    tag_401:\n        /* \"#utility.yul\":17103:17177   */\n      swap2\n      pop\n        /* \"#utility.yul\":17186:17279   */\n      tag_402\n        /* \"#utility.yul\":17275:17278   */\n      dup3\n        /* \"#utility.yul\":17186:17279   */\n      tag_248\n      jump\t// in\n    tag_402:\n        /* \"#utility.yul\":17304:17306   */\n      0x40\n        /* \"#utility.yul\":17299:17302   */\n      dup3\n        /* \"#utility.yul\":17295:17307   */\n      add\n        /* \"#utility.yul\":17288:17307   */\n      swap1\n      pop\n        /* \"#utility.yul\":16947:17313   */\n      swap2\n      swap1\n      pop\n      jump\t// out\n        /* \"#utility.yul\":17319:17738   */\n    tag_194:\n        /* \"#utility.yul\":17485:17489   */\n      0x00\n        /* \"#utility.yul\":17523:17525   */\n      0x20\n        /* \"#utility.yul\":17512:17521   */\n      dup3\n        /* \"#utility.yul\":17508:17526   */\n      add\n        /* \"#utility.yul\":17500:17526   */\n      swap1\n      pop\n        /* \"#utility.yul\":17572:17581   */\n      dup2\n        /* \"#utility.yul\":17566:17570   */\n      dup2\n        /* \"#utility.yul\":17562:17582   */\n      sub\n        /* \"#utility.yul\":17558:17559   */\n      0x00\n        /* \"#utility.yul\":17547:17556   */\n      dup4\n        /* \"#utility.yul\":17543:17560   */\n      add\n        /* \"#utility.yul\":17536:17583   */\n      mstore\n        /* \"#utility.yul\":17600:17731   */\n      tag_404\n        /* \"#utility.yul\":17726:17730   */\n      dup2\n        /* \"#utility.yul\":17600:17731   */\n      tag_249\n      jump\t// in\n    tag_404:\n        /* \"#utility.yul\":17592:17731   */\n      swap1\n      pop\n        /* \"#utility.yul\":17319:17738   */\n      swap2\n      swap1\n      pop\n      jump\t// out\n\n    auxdata: 0xa2646970667358221220a577f59b3030cf2fc7fabb2760b6a21c87337c16b097e4b7e0acfd6253f7652c64736f6c634300080a0033\n}\n",
				"bytecode": {
					"linkReferences": {},
					"object": "6080604052680ad78ebc5ac62000006008553480156200001e57600080fd5b506040516200237138038062002371833981810160405281019062000044919062000381565b6040518060400160405280600881526020017f4d5946756e6465720000000000000000000000000000000000000000000000008152506040518060400160405280600381526020017f4d594600000000000000000000000000000000000000000000000000000000008152508160019080519060200190620000c892919062000291565b508060029080519060200190620000e192919062000291565b50505080600781905550620001073369d3c21bcecceda10000006200010e60201b60201c565b5062000555565b600073ffffffffffffffffffffffffffffffffffffffff168273ffffffffffffffffffffffffffffffffffffffff16141562000181576040517f08c379a0000000000000000000000000000000000000000000000000000000008152600401620001789062000414565b60405180910390fd5b62000195600083836200028760201b60201c565b80600080828254620001a8919062000465565b9250508190555080600460008473ffffffffffffffffffffffffffffffffffffffff1673ffffffffffffffffffffffffffffffffffffffff168152602001908152602001600020600082825462000200919062000465565b925050819055508173ffffffffffffffffffffffffffffffffffffffff16600073ffffffffffffffffffffffffffffffffffffffff167fddf252ad1be2c89b69c2b068fc378daa952ba7f163c4a11628f55a4df523b3ef83604051620002679190620004d3565b60405180910390a362000283600083836200028c60201b60201c565b5050565b505050565b505050565b8280546200029f906200051f565b90600052602060002090601f016020900481019282620002c357600085556200030f565b82601f10620002de57805160ff19168380011785556200030f565b828001600101855582156200030f579182015b828111156200030e578251825591602001919060010190620002f1565b5b5090506200031e919062000322565b5090565b5b808211156200033d57600081600090555060010162000323565b5090565b600080fd5b6000819050919050565b6200035b8162000346565b81146200036757600080fd5b50565b6000815190506200037b8162000350565b92915050565b6000602082840312156200039a576200039962000341565b5b6000620003aa848285016200036a565b91505092915050565b600082825260208201905092915050565b7f45524332303a206d696e7420746f20746865207a65726f206164647265737300600082015250565b6000620003fc601f83620003b3565b91506200040982620003c4565b602082019050919050565b600060208201905081810360008301526200042f81620003ed565b9050919050565b7f4e487b7100000000000000000000000000000000000000000000000000000000600052601160045260246000fd5b6000620004728262000346565b91506200047f8362000346565b9250827fffffffffffffffffffffffffffffffffffffffffffffffffffffffffffffffff03821115620004b757620004b662000436565b5b828201905092915050565b620004cd8162000346565b82525050565b6000602082019050620004ea6000830184620004c2565b92915050565b7f4e487b7100000000000000000000000000000000000000000000000000000000600052602260045260246000fd5b600060028204905060018216806200053857607f821691505b602082108114156200054f576200054e620004f0565b5b50919050565b611e0c80620005656000396000f3fe608060405234801561001057600080fd5b506004361061010b5760003560e01c806389d38951116100a2578063abab7fa011610071578063abab7fa0146102f4578063c77c627d14610324578063cb7be0fd14610354578063dd62ed3e14610370578063e3a17b3b146103a05761010b565b806389d389511461024657806395d89b4114610276578063a457c2d714610294578063a9059cbb146102c45761010b565b8063313ce567116100de578063313ce567146101ac57806339509351146101ca57806366e5f2c5146101fa57806370a08231146102165761010b565b806306fdde0314610110578063095ea7b31461012e57806318160ddd1461015e57806323b872dd1461017c575b600080fd5b6101186103d0565b604051610125919061148e565b60405180910390f35b61014860048036038101906101439190611549565b610462565b60405161015591906115a4565b60405180910390f35b610166610485565b60405161017391906115ce565b60405180910390f35b610196600480360381019061019191906115e9565b61048e565b6040516101a391906115a4565b60405180910390f35b6101b46104bd565b6040516101c19190611658565b60405180910390f35b6101e460048036038101906101df9190611549565b6104c6565b6040516101f191906115a4565b60405180910390f35b610214600480360381019061020f9190611549565b6104fd565b005b610230600480360381019061022b9190611673565b610875565b60405161023d91906115ce565b60405180910390f35b610260600480360381019061025b91906116a0565b6108be565b60405161026d91906115a4565b60405180910390f35b61027e6108ed565b60405161028b919061148e565b60405180910390f35b6102ae60048036038101906102a99190611549565b61097f565b6040516102bb91906115a4565b60405180910390f35b6102de60048036038101906102d99190611549565b6109f6565b6040516102eb91906115a4565b60405180910390f35b61030e600480360381019061030991906116a0565b610a19565b60405161031b91906115ce565b60405180910390f35b61033e60048036038101906103399190611673565b610a3e565b60405161034b91906115a4565b60405180910390f35b61036e60048036038101906103699190611673565b610a5e565b005b61038a600480360381019061038591906116a0565b610b74565b60405161039791906115ce565b60405180910390f35b6103ba60048036038101906103b59190611673565b610bfb565b6040516103c791906115a4565b60405180910390f35b6060600180546103df9061170f565b80601f016020809104026020016040519081016040528092919081815260200182805461040b9061170f565b80156104585780601f1061042d57610100808354040283529160200191610458565b820191906000526020600020905b81548152906001019060200180831161043b57829003601f168201915b5050505050905090565b60008061046d610c51565b905061047a818585610c59565b600191505092915050565b60008054905090565b600080610499610c51565b90506104a6858285610e24565b6104b1858585610eb0565b60019150509392505050565b60006012905090565b6000806104d1610c51565b90506104f28185856104e38589610b74565b6104ed9190611770565b610c59565b600191505092915050565b33816000600560003373ffffffffffffffffffffffffffffffffffffffff1673ffffffffffffffffffffffffffffffffffffffff168152602001908152602001600020549050600061054e84610875565b905080838361055d9190611770565b1061059d576040517f08c379a000000000000000000000000000000000000000000000000000000000815260040161059490611812565b60405180910390fd5b6000600754866105ad9190611861565b146105ed576040517f08c379a00000000000000000000000000000000000000000000000000000000081526004016105e4906118de565b60405180910390fd5b600960003373ffffffffffffffffffffffffffffffffffffffff1673ffffffffffffffffffffffffffffffffffffffff16815260200190815260200160002060008773ffffffffffffffffffffffffffffffffffffffff1673ffffffffffffffffffffffffffffffffffffffff16815260200190815260200160002060009054906101000a900460ff1615610685576106846118fe565b5b600060075486610695919061192d565b90506106a1868861118a565b80600a60003373ffffffffffffffffffffffffffffffffffffffff1673ffffffffffffffffffffffffffffffffffffffff16815260200190815260200160002060008973ffffffffffffffffffffffffffffffffffffffff1673ffffffffffffffffffffffffffffffffffffffff168152602001908152602001600020600082825461072d9190611770565b92505081905550600854600a60003373ffffffffffffffffffffffffffffffffffffffff1673ffffffffffffffffffffffffffffffffffffffff16815260200190815260200160002060008973ffffffffffffffffffffffffffffffffffffffff1673ffffffffffffffffffffffffffffffffffffffff1681526020019081526020016000205410610812576001600b60008973ffffffffffffffffffffffffffffffffffffffff1673ffffffffffffffffffffffffffffffffffffffff16815260200190815260200160002060006101000a81548160ff0219169083151502179055505b8673ffffffffffffffffffffffffffffffffffffffff163373ffffffffffffffffffffffffffffffffffffffff167fce0c7a2a940807f7dc2ce7a615c2532e915e6c0ac9a08bc4ed9d515a710a53e260405160405180910390a350505050505050565b6000600460008373ffffffffffffffffffffffffffffffffffffffff1673ffffffffffffffffffffffffffffffffffffffff168152602001908152602001600020549050919050565b60096020528160005260406000206020528060005260406000206000915091509054906101000a900460ff1681565b6060600280546108fc9061170f565b80601f01602080910402602001604051908101604052809291908181526020018280546109289061170f565b80156109755780601f1061094a57610100808354040283529160200191610975565b820191906000526020600020905b81548152906001019060200180831161095857829003601f168201915b5050505050905090565b60008061098a610c51565b905060006109988286610b74565b9050838110156109dd576040517f08c379a00000000000000000000000000000000000000000000000000000000081526004016109d4906119d0565b60405180910390fd5b6109ea8286868403610c59565b60019250505092915050565b600080610a01610c51565b9050610a0e818585610eb0565b600191505092915050565b600a602052816000526040600020602052806000526040600020600091509150505481565b600b6020528060005260406000206000915054906101000a900460ff1681565b600854600a60003373ffffffffffffffffffffffffffffffffffffffff1673ffffffffffffffffffffffffffffffffffffffff16815260200190815260200160002060008373ffffffffffffffffffffffffffffffffffffffff1673ffffffffffffffffffffffffffffffffffffffff168152602001908152602001600020541015610b1f576040517f08c379a0000000000000000000000000000000000000000000000000000000008152600401610b1690611a3c565b60405180910390fd5b6000610b2a82611277565b9050803373ffffffffffffffffffffffffffffffffffffffff167f7eee288d96e16732b30eaad358f8d56ea6f818be95e3d8b56668dbed67d7b7a860405160405180910390a35050565b6000600660008473ffffffffffffffffffffffffffffffffffffffff1673ffffffffffffffffffffffffffffffffffffffff16815260200190815260200160002060008373ffffffffffffffffffffffffffffffffffffffff1673ffffffffffffffffffffffffffffffffffffffff16815260200190815260200160002054905092915050565b6000600b60008373ffffffffffffffffffffffffffffffffffffffff1673ffffffffffffffffffffffffffffffffffffffff16815260200190815260200160002060009054906101000a900460ff169050919050565b600033905090565b600073ffffffffffffffffffffffffffffffffffffffff168373ffffffffffffffffffffffffffffffffffffffff161415610cc9576040517f08c379a0000000000000000000000000000000000000000000000000000000008152600401610cc090611ace565b60405180910390fd5b600073ffffffffffffffffffffffffffffffffffffffff168273ffffffffffffffffffffffffffffffffffffffff161415610d39576040517f08c379a0000000000000000000000000000000000000000000000000000000008152600401610d3090611b60565b60405180910390fd5b80600660008573ffffffffffffffffffffffffffffffffffffffff1673ffffffffffffffffffffffffffffffffffffffff16815260200190815260200160002060008473ffffffffffffffffffffffffffffffffffffffff1673ffffffffffffffffffffffffffffffffffffffff168152602001908152602001600020819055508173ffffffffffffffffffffffffffffffffffffffff168373ffffffffffffffffffffffffffffffffffffffff167f8c5be1e5ebec7d5bd14f71427d1e84f3dd0314c0f7b2291e5b200ac8c7c3b92583604051610e1791906115ce565b60405180910390a3505050565b6000610e308484610b74565b90507fffffffffffffffffffffffffffffffffffffffffffffffffffffffffffffffff8114610eaa5781811015610e9c576040517f08c379a0000000000000000000000000000000000000000000000000000000008152600401610e9390611bcc565b60405180910390fd5b610ea98484848403610c59565b5b50505050565b600073ffffffffffffffffffffffffffffffffffffffff168373ffffffffffffffffffffffffffffffffffffffff161415610f20576040517f08c379a0000000000000000000000000000000000000000000000000000000008152600401610f1790611c5e565b60405180910390fd5b600073ffffffffffffffffffffffffffffffffffffffff168273ffffffffffffffffffffffffffffffffffffffff161415610f90576040517f08c379a0000000000000000000000000000000000000000000000000000000008152600401610f8790611cf0565b60405180910390fd5b610f9b8383836113eb565b6000600560003373ffffffffffffffffffffffffffffffffffffffff1673ffffffffffffffffffffffffffffffffffffffff1681526020019081526020016000205490506000600460008673ffffffffffffffffffffffffffffffffffffffff1673ffffffffffffffffffffffffffffffffffffffff168152602001908152602001600020549050600082826110319190611d10565b905083811015611076576040517f08c379a000000000000000000000000000000000000000000000000000000000815260040161106d90611db6565b60405180910390fd5b838203600460008873ffffffffffffffffffffffffffffffffffffffff1673ffffffffffffffffffffffffffffffffffffffff1681526020019081526020016000208190555083600460008773ffffffffffffffffffffffffffffffffffffffff1673ffffffffffffffffffffffffffffffffffffffff168152602001908152602001600020600082825461110b9190611770565b925050819055508473ffffffffffffffffffffffffffffffffffffffff168673ffffffffffffffffffffffffffffffffffffffff167fddf252ad1be2c89b69c2b068fc378daa952ba7f163c4a11628f55a4df523b3ef8660405161116f91906115ce565b60405180910390a36111828686866113f0565b505050505050565b81600360003373ffffffffffffffffffffffffffffffffffffffff1673ffffffffffffffffffffffffffffffffffffffff16815260200190815260200160002060008373ffffffffffffffffffffffffffffffffffffffff1673ffffffffffffffffffffffffffffffffffffffff16815260200190815260200160002060008282546112169190611770565b9250508190555081600560003373ffffffffffffffffffffffffffffffffffffffff1673ffffffffffffffffffffffffffffffffffffffff168152602001908152602001600020600082825461126c9190611770565b925050819055505050565b600080600360003373ffffffffffffffffffffffffffffffffffffffff1673ffffffffffffffffffffffffffffffffffffffff16815260200190815260200160002060008473ffffffffffffffffffffffffffffffffffffffff1673ffffffffffffffffffffffffffffffffffffffff16815260200190815260200160002054905080600560003373ffffffffffffffffffffffffffffffffffffffff1673ffffffffffffffffffffffffffffffffffffffff16815260200190815260200160002060008282546113489190611d10565b9250508190555080600360003373ffffffffffffffffffffffffffffffffffffffff1673ffffffffffffffffffffffffffffffffffffffff16815260200190815260200160002060008573ffffffffffffffffffffffffffffffffffffffff1673ffffffffffffffffffffffffffffffffffffffff16815260200190815260200160002060008282546113db9190611d10565b9250508190555080915050919050565b505050565b505050565b600081519050919050565b600082825260208201905092915050565b60005b8381101561142f578082015181840152602081019050611414565b8381111561143e576000848401525b50505050565b6000601f19601f8301169050919050565b6000611460826113f5565b61146a8185611400565b935061147a818560208601611411565b61148381611444565b840191505092915050565b600060208201905081810360008301526114a88184611455565b905092915050565b600080fd5b600073ffffffffffffffffffffffffffffffffffffffff82169050919050565b60006114e0826114b5565b9050919050565b6114f0816114d5565b81146114fb57600080fd5b50565b60008135905061150d816114e7565b92915050565b6000819050919050565b61152681611513565b811461153157600080fd5b50565b6000813590506115438161151d565b92915050565b600080604083850312156115605761155f6114b0565b5b600061156e858286016114fe565b925050602061157f85828601611534565b9150509250929050565b60008115159050919050565b61159e81611589565b82525050565b60006020820190506115b96000830184611595565b92915050565b6115c881611513565b82525050565b60006020820190506115e360008301846115bf565b92915050565b600080600060608486031215611602576116016114b0565b5b6000611610868287016114fe565b9350506020611621868287016114fe565b925050604061163286828701611534565b9150509250925092565b600060ff82169050919050565b6116528161163c565b82525050565b600060208201905061166d6000830184611649565b92915050565b600060208284031215611689576116886114b0565b5b6000611697848285016114fe565b91505092915050565b600080604083850312156116b7576116b66114b0565b5b60006116c5858286016114fe565b92505060206116d6858286016114fe565b9150509250929050565b7f4e487b7100000000000000000000000000000000000000000000000000000000600052602260045260246000fd5b6000600282049050600182168061172757607f821691505b6020821081141561173b5761173a6116e0565b5b50919050565b7f4e487b7100000000000000000000000000000000000000000000000000000000600052601160045260246000fd5b600061177b82611513565b915061178683611513565b9250827fffffffffffffffffffffffffffffffffffffffffffffffffffffffffffffffff038211156117bb576117ba611741565b5b828201905092915050565b7f796f7520646f6e2774206861766520746f6b656e20746f20766f746500000000600082015250565b60006117fc601c83611400565b9150611807826117c6565b602082019050919050565b6000602082019050818103600083015261182b816117ef565b9050919050565b7f4e487b7100000000000000000000000000000000000000000000000000000000600052601260045260246000fd5b600061186c82611513565b915061187783611513565b92508261188757611886611832565b5b828206905092915050565b7f313020746f6b656e732069732031207965730000000000000000000000000000600082015250565b60006118c8601283611400565b91506118d382611892565b602082019050919050565b600060208201905081810360008301526118f7816118bb565b9050919050565b7f4e487b7100000000000000000000000000000000000000000000000000000000600052600160045260246000fd5b600061193882611513565b915061194383611513565b92508261195357611952611832565b5b828204905092915050565b7f45524332303a2064656372656173656420616c6c6f77616e63652062656c6f7760008201527f207a65726f000000000000000000000000000000000000000000000000000000602082015250565b60006119ba602583611400565b91506119c58261195e565b604082019050919050565b600060208201905081810360008301526119e9816119ad565b9050919050565b7f5468697320766f74696e67206973207374696c6c206f6e20676f696e67000000600082015250565b6000611a26601d83611400565b9150611a31826119f0565b602082019050919050565b60006020820190508181036000830152611a5581611a19565b9050919050565b7f45524332303a20617070726f76652066726f6d20746865207a65726f2061646460008201527f7265737300000000000000000000000000000000000000000000000000000000602082015250565b6000611ab8602483611400565b9150611ac382611a5c565b604082019050919050565b60006020820190508181036000830152611ae781611aab565b9050919050565b7f45524332303a20617070726f766520746f20746865207a65726f20616464726560008201527f7373000000000000000000000000000000000000000000000000000000000000602082015250565b6000611b4a602283611400565b9150611b5582611aee565b604082019050919050565b60006020820190508181036000830152611b7981611b3d565b9050919050565b7f45524332303a20696e73756666696369656e7420616c6c6f77616e6365000000600082015250565b6000611bb6601d83611400565b9150611bc182611b80565b602082019050919050565b60006020820190508181036000830152611be581611ba9565b9050919050565b7f45524332303a207472616e736665722066726f6d20746865207a65726f20616460008201527f6472657373000000000000000000000000000000000000000000000000000000602082015250565b6000611c48602583611400565b9150611c5382611bec565b604082019050919050565b60006020820190508181036000830152611c7781611c3b565b9050919050565b7f45524332303a207472616e7366657220746f20746865207a65726f206164647260008201527f6573730000000000000000000000000000000000000000000000000000000000602082015250565b6000611cda602383611400565b9150611ce582611c7e565b604082019050919050565b60006020820190508181036000830152611d0981611ccd565b9050919050565b6000611d1b82611513565b9150611d2683611513565b925082821015611d3957611d38611741565b5b828203905092915050565b7f45524332303a207472616e7366657261626c6520616d6f756e7420657863656560008201527f64732062616c616e636500000000000000000000000000000000000000000000602082015250565b6000611da0602a83611400565b9150611dab82611d44565b604082019050919050565b60006020820190508181036000830152611dcf81611d93565b905091905056fea2646970667358221220a577f59b3030cf2fc7fabb2760b6a21c87337c16b097e4b7e0acfd6253f7652c64736f6c634300080a0033",
					"opcodes": "PUSH1 0x80 PUSH1 0x40 MSTORE PUSH9 0xAD78EBC5AC6200000 PUSH1 0x8 SSTORE CALLVALUE DUP1 ISZERO PUSH3 0x1E JUMPI PUSH1 0x0 DUP1 REVERT JUMPDEST POP PUSH1 0x40 MLOAD PUSH3 0x2371 CODESIZE SUB DUP1 PUSH3 0x2371 DUP4 CODECOPY DUP2 DUP2 ADD PUSH1 0x40 MSTORE DUP2 ADD SWAP1 PUSH3 0x44 SWAP2 SWAP1 PUSH3 0x381 JUMP JUMPDEST PUSH1 0x40 MLOAD DUP1 PUSH1 0x40 ADD PUSH1 0x40 MSTORE DUP1 PUSH1 0x8 DUP2 MSTORE PUSH1 0x20 ADD PUSH32 0x4D5946756E646572000000000000000000000000000000000000000000000000 DUP2 MSTORE POP PUSH1 0x40 MLOAD DUP1 PUSH1 0x40 ADD PUSH1 0x40 MSTORE DUP1 PUSH1 0x3 DUP2 MSTORE PUSH1 0x20 ADD PUSH32 0x4D59460000000000000000000000000000000000000000000000000000000000 DUP2 MSTORE POP DUP2 PUSH1 0x1 SWAP1 DUP1 MLOAD SWAP1 PUSH1 0x20 ADD SWAP1 PUSH3 0xC8 SWAP3 SWAP2 SWAP1 PUSH3 0x291 JUMP JUMPDEST POP DUP1 PUSH1 0x2 SWAP1 DUP1 MLOAD SWAP1 PUSH1 0x20 ADD SWAP1 PUSH3 0xE1 SWAP3 SWAP2 SWAP1 PUSH3 0x291 JUMP JUMPDEST POP POP POP DUP1 PUSH1 0x7 DUP2 SWAP1 SSTORE POP PUSH3 0x107 CALLER PUSH10 0xD3C21BCECCEDA1000000 PUSH3 0x10E PUSH1 0x20 SHL PUSH1 0x20 SHR JUMP JUMPDEST POP PUSH3 0x555 JUMP JUMPDEST PUSH1 0x0 PUSH20 0xFFFFFFFFFFFFFFFFFFFFFFFFFFFFFFFFFFFFFFFF AND DUP3 PUSH20 0xFFFFFFFFFFFFFFFFFFFFFFFFFFFFFFFFFFFFFFFF AND EQ ISZERO PUSH3 0x181 JUMPI PUSH1 0x40 MLOAD PUSH32 0x8C379A000000000000000000000000000000000000000000000000000000000 DUP2 MSTORE PUSH1 0x4 ADD PUSH3 0x178 SWAP1 PUSH3 0x414 JUMP JUMPDEST PUSH1 0x40 MLOAD DUP1 SWAP2 SUB SWAP1 REVERT JUMPDEST PUSH3 0x195 PUSH1 0x0 DUP4 DUP4 PUSH3 0x287 PUSH1 0x20 SHL PUSH1 0x20 SHR JUMP JUMPDEST DUP1 PUSH1 0x0 DUP1 DUP3 DUP3 SLOAD PUSH3 0x1A8 SWAP2 SWAP1 PUSH3 0x465 JUMP JUMPDEST SWAP3 POP POP DUP2 SWAP1 SSTORE POP DUP1 PUSH1 0x4 PUSH1 0x0 DUP5 PUSH20 0xFFFFFFFFFFFFFFFFFFFFFFFFFFFFFFFFFFFFFFFF AND PUSH20 0xFFFFFFFFFFFFFFFFFFFFFFFFFFFFFFFFFFFFFFFF AND DUP2 MSTORE PUSH1 0x20 ADD SWAP1 DUP2 MSTORE PUSH1 0x20 ADD PUSH1 0x0 KECCAK256 PUSH1 0x0 DUP3 DUP3 SLOAD PUSH3 0x200 SWAP2 SWAP1 PUSH3 0x465 JUMP JUMPDEST SWAP3 POP POP DUP2 SWAP1 SSTORE POP DUP2 PUSH20 0xFFFFFFFFFFFFFFFFFFFFFFFFFFFFFFFFFFFFFFFF AND PUSH1 0x0 PUSH20 0xFFFFFFFFFFFFFFFFFFFFFFFFFFFFFFFFFFFFFFFF AND PUSH32 0xDDF252AD1BE2C89B69C2B068FC378DAA952BA7F163C4A11628F55A4DF523B3EF DUP4 PUSH1 0x40 MLOAD PUSH3 0x267 SWAP2 SWAP1 PUSH3 0x4D3 JUMP JUMPDEST PUSH1 0x40 MLOAD DUP1 SWAP2 SUB SWAP1 LOG3 PUSH3 0x283 PUSH1 0x0 DUP4 DUP4 PUSH3 0x28C PUSH1 0x20 SHL PUSH1 0x20 SHR JUMP JUMPDEST POP POP JUMP JUMPDEST POP POP POP JUMP JUMPDEST POP POP POP JUMP JUMPDEST DUP3 DUP1 SLOAD PUSH3 0x29F SWAP1 PUSH3 0x51F JUMP JUMPDEST SWAP1 PUSH1 0x0 MSTORE PUSH1 0x20 PUSH1 0x0 KECCAK256 SWAP1 PUSH1 0x1F ADD PUSH1 0x20 SWAP1 DIV DUP2 ADD SWAP3 DUP3 PUSH3 0x2C3 JUMPI PUSH1 0x0 DUP6 SSTORE PUSH3 0x30F JUMP JUMPDEST DUP3 PUSH1 0x1F LT PUSH3 0x2DE JUMPI DUP1 MLOAD PUSH1 0xFF NOT AND DUP4 DUP1 ADD OR DUP6 SSTORE PUSH3 0x30F JUMP JUMPDEST DUP3 DUP1 ADD PUSH1 0x1 ADD DUP6 SSTORE DUP3 ISZERO PUSH3 0x30F JUMPI SWAP2 DUP3 ADD JUMPDEST DUP3 DUP2 GT ISZERO PUSH3 0x30E JUMPI DUP3 MLOAD DUP3 SSTORE SWAP2 PUSH1 0x20 ADD SWAP2 SWAP1 PUSH1 0x1 ADD SWAP1 PUSH3 0x2F1 JUMP JUMPDEST JUMPDEST POP SWAP1 POP PUSH3 0x31E SWAP2 SWAP1 PUSH3 0x322 JUMP JUMPDEST POP SWAP1 JUMP JUMPDEST JUMPDEST DUP1 DUP3 GT ISZERO PUSH3 0x33D JUMPI PUSH1 0x0 DUP2 PUSH1 0x0 SWAP1 SSTORE POP PUSH1 0x1 ADD PUSH3 0x323 JUMP JUMPDEST POP SWAP1 JUMP JUMPDEST PUSH1 0x0 DUP1 REVERT JUMPDEST PUSH1 0x0 DUP2 SWAP1 POP SWAP2 SWAP1 POP JUMP JUMPDEST PUSH3 0x35B DUP2 PUSH3 0x346 JUMP JUMPDEST DUP2 EQ PUSH3 0x367 JUMPI PUSH1 0x0 DUP1 REVERT JUMPDEST POP JUMP JUMPDEST PUSH1 0x0 DUP2 MLOAD SWAP1 POP PUSH3 0x37B DUP2 PUSH3 0x350 JUMP JUMPDEST SWAP3 SWAP2 POP POP JUMP JUMPDEST PUSH1 0x0 PUSH1 0x20 DUP3 DUP5 SUB SLT ISZERO PUSH3 0x39A JUMPI PUSH3 0x399 PUSH3 0x341 JUMP JUMPDEST JUMPDEST PUSH1 0x0 PUSH3 0x3AA DUP5 DUP3 DUP6 ADD PUSH3 0x36A JUMP JUMPDEST SWAP2 POP POP SWAP3 SWAP2 POP POP JUMP JUMPDEST PUSH1 0x0 DUP3 DUP3 MSTORE PUSH1 0x20 DUP3 ADD SWAP1 POP SWAP3 SWAP2 POP POP JUMP JUMPDEST PUSH32 0x45524332303A206D696E7420746F20746865207A65726F206164647265737300 PUSH1 0x0 DUP3 ADD MSTORE POP JUMP JUMPDEST PUSH1 0x0 PUSH3 0x3FC PUSH1 0x1F DUP4 PUSH3 0x3B3 JUMP JUMPDEST SWAP2 POP PUSH3 0x409 DUP3 PUSH3 0x3C4 JUMP JUMPDEST PUSH1 0x20 DUP3 ADD SWAP1 POP SWAP2 SWAP1 POP JUMP JUMPDEST PUSH1 0x0 PUSH1 0x20 DUP3 ADD SWAP1 POP DUP2 DUP2 SUB PUSH1 0x0 DUP4 ADD MSTORE PUSH3 0x42F DUP2 PUSH3 0x3ED JUMP JUMPDEST SWAP1 POP SWAP2 SWAP1 POP JUMP JUMPDEST PUSH32 0x4E487B7100000000000000000000000000000000000000000000000000000000 PUSH1 0x0 MSTORE PUSH1 0x11 PUSH1 0x4 MSTORE PUSH1 0x24 PUSH1 0x0 REVERT JUMPDEST PUSH1 0x0 PUSH3 0x472 DUP3 PUSH3 0x346 JUMP JUMPDEST SWAP2 POP PUSH3 0x47F DUP4 PUSH3 0x346 JUMP JUMPDEST SWAP3 POP DUP3 PUSH32 0xFFFFFFFFFFFFFFFFFFFFFFFFFFFFFFFFFFFFFFFFFFFFFFFFFFFFFFFFFFFFFFFF SUB DUP3 GT ISZERO PUSH3 0x4B7 JUMPI PUSH3 0x4B6 PUSH3 0x436 JUMP JUMPDEST JUMPDEST DUP3 DUP3 ADD SWAP1 POP SWAP3 SWAP2 POP POP JUMP JUMPDEST PUSH3 0x4CD DUP2 PUSH3 0x346 JUMP JUMPDEST DUP3 MSTORE POP POP JUMP JUMPDEST PUSH1 0x0 PUSH1 0x20 DUP3 ADD SWAP1 POP PUSH3 0x4EA PUSH1 0x0 DUP4 ADD DUP5 PUSH3 0x4C2 JUMP JUMPDEST SWAP3 SWAP2 POP POP JUMP JUMPDEST PUSH32 0x4E487B7100000000000000000000000000000000000000000000000000000000 PUSH1 0x0 MSTORE PUSH1 0x22 PUSH1 0x4 MSTORE PUSH1 0x24 PUSH1 0x0 REVERT JUMPDEST PUSH1 0x0 PUSH1 0x2 DUP3 DIV SWAP1 POP PUSH1 0x1 DUP3 AND DUP1 PUSH3 0x538 JUMPI PUSH1 0x7F DUP3 AND SWAP2 POP JUMPDEST PUSH1 0x20 DUP3 LT DUP2 EQ ISZERO PUSH3 0x54F JUMPI PUSH3 0x54E PUSH3 0x4F0 JUMP JUMPDEST JUMPDEST POP SWAP2 SWAP1 POP JUMP JUMPDEST PUSH2 0x1E0C DUP1 PUSH3 0x565 PUSH1 0x0 CODECOPY PUSH1 0x0 RETURN INVALID PUSH1 0x80 PUSH1 0x40 MSTORE CALLVALUE DUP1 ISZERO PUSH2 0x10 JUMPI PUSH1 0x0 DUP1 REVERT JUMPDEST POP PUSH1 0x4 CALLDATASIZE LT PUSH2 0x10B JUMPI PUSH1 0x0 CALLDATALOAD PUSH1 0xE0 SHR DUP1 PUSH4 0x89D38951 GT PUSH2 0xA2 JUMPI DUP1 PUSH4 0xABAB7FA0 GT PUSH2 0x71 JUMPI DUP1 PUSH4 0xABAB7FA0 EQ PUSH2 0x2F4 JUMPI DUP1 PUSH4 0xC77C627D EQ PUSH2 0x324 JUMPI DUP1 PUSH4 0xCB7BE0FD EQ PUSH2 0x354 JUMPI DUP1 PUSH4 0xDD62ED3E EQ PUSH2 0x370 JUMPI DUP1 PUSH4 0xE3A17B3B EQ PUSH2 0x3A0 JUMPI PUSH2 0x10B JUMP JUMPDEST DUP1 PUSH4 0x89D38951 EQ PUSH2 0x246 JUMPI DUP1 PUSH4 0x95D89B41 EQ PUSH2 0x276 JUMPI DUP1 PUSH4 0xA457C2D7 EQ PUSH2 0x294 JUMPI DUP1 PUSH4 0xA9059CBB EQ PUSH2 0x2C4 JUMPI PUSH2 0x10B JUMP JUMPDEST DUP1 PUSH4 0x313CE567 GT PUSH2 0xDE JUMPI DUP1 PUSH4 0x313CE567 EQ PUSH2 0x1AC JUMPI DUP1 PUSH4 0x39509351 EQ PUSH2 0x1CA JUMPI DUP1 PUSH4 0x66E5F2C5 EQ PUSH2 0x1FA JUMPI DUP1 PUSH4 0x70A08231 EQ PUSH2 0x216 JUMPI PUSH2 0x10B JUMP JUMPDEST DUP1 PUSH4 0x6FDDE03 EQ PUSH2 0x110 JUMPI DUP1 PUSH4 0x95EA7B3 EQ PUSH2 0x12E JUMPI DUP1 PUSH4 0x18160DDD EQ PUSH2 0x15E JUMPI DUP1 PUSH4 0x23B872DD EQ PUSH2 0x17C JUMPI JUMPDEST PUSH1 0x0 DUP1 REVERT JUMPDEST PUSH2 0x118 PUSH2 0x3D0 JUMP JUMPDEST PUSH1 0x40 MLOAD PUSH2 0x125 SWAP2 SWAP1 PUSH2 0x148E JUMP JUMPDEST PUSH1 0x40 MLOAD DUP1 SWAP2 SUB SWAP1 RETURN JUMPDEST PUSH2 0x148 PUSH1 0x4 DUP1 CALLDATASIZE SUB DUP2 ADD SWAP1 PUSH2 0x143 SWAP2 SWAP1 PUSH2 0x1549 JUMP JUMPDEST PUSH2 0x462 JUMP JUMPDEST PUSH1 0x40 MLOAD PUSH2 0x155 SWAP2 SWAP1 PUSH2 0x15A4 JUMP JUMPDEST PUSH1 0x40 MLOAD DUP1 SWAP2 SUB SWAP1 RETURN JUMPDEST PUSH2 0x166 PUSH2 0x485 JUMP JUMPDEST PUSH1 0x40 MLOAD PUSH2 0x173 SWAP2 SWAP1 PUSH2 0x15CE JUMP JUMPDEST PUSH1 0x40 MLOAD DUP1 SWAP2 SUB SWAP1 RETURN JUMPDEST PUSH2 0x196 PUSH1 0x4 DUP1 CALLDATASIZE SUB DUP2 ADD SWAP1 PUSH2 0x191 SWAP2 SWAP1 PUSH2 0x15E9 JUMP JUMPDEST PUSH2 0x48E JUMP JUMPDEST PUSH1 0x40 MLOAD PUSH2 0x1A3 SWAP2 SWAP1 PUSH2 0x15A4 JUMP JUMPDEST PUSH1 0x40 MLOAD DUP1 SWAP2 SUB SWAP1 RETURN JUMPDEST PUSH2 0x1B4 PUSH2 0x4BD JUMP JUMPDEST PUSH1 0x40 MLOAD PUSH2 0x1C1 SWAP2 SWAP1 PUSH2 0x1658 JUMP JUMPDEST PUSH1 0x40 MLOAD DUP1 SWAP2 SUB SWAP1 RETURN JUMPDEST PUSH2 0x1E4 PUSH1 0x4 DUP1 CALLDATASIZE SUB DUP2 ADD SWAP1 PUSH2 0x1DF SWAP2 SWAP1 PUSH2 0x1549 JUMP JUMPDEST PUSH2 0x4C6 JUMP JUMPDEST PUSH1 0x40 MLOAD PUSH2 0x1F1 SWAP2 SWAP1 PUSH2 0x15A4 JUMP JUMPDEST PUSH1 0x40 MLOAD DUP1 SWAP2 SUB SWAP1 RETURN JUMPDEST PUSH2 0x214 PUSH1 0x4 DUP1 CALLDATASIZE SUB DUP2 ADD SWAP1 PUSH2 0x20F SWAP2 SWAP1 PUSH2 0x1549 JUMP JUMPDEST PUSH2 0x4FD JUMP JUMPDEST STOP JUMPDEST PUSH2 0x230 PUSH1 0x4 DUP1 CALLDATASIZE SUB DUP2 ADD SWAP1 PUSH2 0x22B SWAP2 SWAP1 PUSH2 0x1673 JUMP JUMPDEST PUSH2 0x875 JUMP JUMPDEST PUSH1 0x40 MLOAD PUSH2 0x23D SWAP2 SWAP1 PUSH2 0x15CE JUMP JUMPDEST PUSH1 0x40 MLOAD DUP1 SWAP2 SUB SWAP1 RETURN JUMPDEST PUSH2 0x260 PUSH1 0x4 DUP1 CALLDATASIZE SUB DUP2 ADD SWAP1 PUSH2 0x25B SWAP2 SWAP1 PUSH2 0x16A0 JUMP JUMPDEST PUSH2 0x8BE JUMP JUMPDEST PUSH1 0x40 MLOAD PUSH2 0x26D SWAP2 SWAP1 PUSH2 0x15A4 JUMP JUMPDEST PUSH1 0x40 MLOAD DUP1 SWAP2 SUB SWAP1 RETURN JUMPDEST PUSH2 0x27E PUSH2 0x8ED JUMP JUMPDEST PUSH1 0x40 MLOAD PUSH2 0x28B SWAP2 SWAP1 PUSH2 0x148E JUMP JUMPDEST PUSH1 0x40 MLOAD DUP1 SWAP2 SUB SWAP1 RETURN JUMPDEST PUSH2 0x2AE PUSH1 0x4 DUP1 CALLDATASIZE SUB DUP2 ADD SWAP1 PUSH2 0x2A9 SWAP2 SWAP1 PUSH2 0x1549 JUMP JUMPDEST PUSH2 0x97F JUMP JUMPDEST PUSH1 0x40 MLOAD PUSH2 0x2BB SWAP2 SWAP1 PUSH2 0x15A4 JUMP JUMPDEST PUSH1 0x40 MLOAD DUP1 SWAP2 SUB SWAP1 RETURN JUMPDEST PUSH2 0x2DE PUSH1 0x4 DUP1 CALLDATASIZE SUB DUP2 ADD SWAP1 PUSH2 0x2D9 SWAP2 SWAP1 PUSH2 0x1549 JUMP JUMPDEST PUSH2 0x9F6 JUMP JUMPDEST PUSH1 0x40 MLOAD PUSH2 0x2EB SWAP2 SWAP1 PUSH2 0x15A4 JUMP JUMPDEST PUSH1 0x40 MLOAD DUP1 SWAP2 SUB SWAP1 RETURN JUMPDEST PUSH2 0x30E PUSH1 0x4 DUP1 CALLDATASIZE SUB DUP2 ADD SWAP1 PUSH2 0x309 SWAP2 SWAP1 PUSH2 0x16A0 JUMP JUMPDEST PUSH2 0xA19 JUMP JUMPDEST PUSH1 0x40 MLOAD PUSH2 0x31B SWAP2 SWAP1 PUSH2 0x15CE JUMP JUMPDEST PUSH1 0x40 MLOAD DUP1 SWAP2 SUB SWAP1 RETURN JUMPDEST PUSH2 0x33E PUSH1 0x4 DUP1 CALLDATASIZE SUB DUP2 ADD SWAP1 PUSH2 0x339 SWAP2 SWAP1 PUSH2 0x1673 JUMP JUMPDEST PUSH2 0xA3E JUMP JUMPDEST PUSH1 0x40 MLOAD PUSH2 0x34B SWAP2 SWAP1 PUSH2 0x15A4 JUMP JUMPDEST PUSH1 0x40 MLOAD DUP1 SWAP2 SUB SWAP1 RETURN JUMPDEST PUSH2 0x36E PUSH1 0x4 DUP1 CALLDATASIZE SUB DUP2 ADD SWAP1 PUSH2 0x369 SWAP2 SWAP1 PUSH2 0x1673 JUMP JUMPDEST PUSH2 0xA5E JUMP JUMPDEST STOP JUMPDEST PUSH2 0x38A PUSH1 0x4 DUP1 CALLDATASIZE SUB DUP2 ADD SWAP1 PUSH2 0x385 SWAP2 SWAP1 PUSH2 0x16A0 JUMP JUMPDEST PUSH2 0xB74 JUMP JUMPDEST PUSH1 0x40 MLOAD PUSH2 0x397 SWAP2 SWAP1 PUSH2 0x15CE JUMP JUMPDEST PUSH1 0x40 MLOAD DUP1 SWAP2 SUB SWAP1 RETURN JUMPDEST PUSH2 0x3BA PUSH1 0x4 DUP1 CALLDATASIZE SUB DUP2 ADD SWAP1 PUSH2 0x3B5 SWAP2 SWAP1 PUSH2 0x1673 JUMP JUMPDEST PUSH2 0xBFB JUMP JUMPDEST PUSH1 0x40 MLOAD PUSH2 0x3C7 SWAP2 SWAP1 PUSH2 0x15A4 JUMP JUMPDEST PUSH1 0x40 MLOAD DUP1 SWAP2 SUB SWAP1 RETURN JUMPDEST PUSH1 0x60 PUSH1 0x1 DUP1 SLOAD PUSH2 0x3DF SWAP1 PUSH2 0x170F JUMP JUMPDEST DUP1 PUSH1 0x1F ADD PUSH1 0x20 DUP1 SWAP2 DIV MUL PUSH1 0x20 ADD PUSH1 0x40 MLOAD SWAP1 DUP2 ADD PUSH1 0x40 MSTORE DUP1 SWAP3 SWAP2 SWAP1 DUP2 DUP2 MSTORE PUSH1 0x20 ADD DUP3 DUP1 SLOAD PUSH2 0x40B SWAP1 PUSH2 0x170F JUMP JUMPDEST DUP1 ISZERO PUSH2 0x458 JUMPI DUP1 PUSH1 0x1F LT PUSH2 0x42D JUMPI PUSH2 0x100 DUP1 DUP4 SLOAD DIV MUL DUP4 MSTORE SWAP2 PUSH1 0x20 ADD SWAP2 PUSH2 0x458 JUMP JUMPDEST DUP3 ADD SWAP2 SWAP1 PUSH1 0x0 MSTORE PUSH1 0x20 PUSH1 0x0 KECCAK256 SWAP1 JUMPDEST DUP2 SLOAD DUP2 MSTORE SWAP1 PUSH1 0x1 ADD SWAP1 PUSH1 0x20 ADD DUP1 DUP4 GT PUSH2 0x43B JUMPI DUP3 SWAP1 SUB PUSH1 0x1F AND DUP3 ADD SWAP2 JUMPDEST POP POP POP POP POP SWAP1 POP SWAP1 JUMP JUMPDEST PUSH1 0x0 DUP1 PUSH2 0x46D PUSH2 0xC51 JUMP JUMPDEST SWAP1 POP PUSH2 0x47A DUP2 DUP6 DUP6 PUSH2 0xC59 JUMP JUMPDEST PUSH1 0x1 SWAP2 POP POP SWAP3 SWAP2 POP POP JUMP JUMPDEST PUSH1 0x0 DUP1 SLOAD SWAP1 POP SWAP1 JUMP JUMPDEST PUSH1 0x0 DUP1 PUSH2 0x499 PUSH2 0xC51 JUMP JUMPDEST SWAP1 POP PUSH2 0x4A6 DUP6 DUP3 DUP6 PUSH2 0xE24 JUMP JUMPDEST PUSH2 0x4B1 DUP6 DUP6 DUP6 PUSH2 0xEB0 JUMP JUMPDEST PUSH1 0x1 SWAP2 POP POP SWAP4 SWAP3 POP POP POP JUMP JUMPDEST PUSH1 0x0 PUSH1 0x12 SWAP1 POP SWAP1 JUMP JUMPDEST PUSH1 0x0 DUP1 PUSH2 0x4D1 PUSH2 0xC51 JUMP JUMPDEST SWAP1 POP PUSH2 0x4F2 DUP2 DUP6 DUP6 PUSH2 0x4E3 DUP6 DUP10 PUSH2 0xB74 JUMP JUMPDEST PUSH2 0x4ED SWAP2 SWAP1 PUSH2 0x1770 JUMP JUMPDEST PUSH2 0xC59 JUMP JUMPDEST PUSH1 0x1 SWAP2 POP POP SWAP3 SWAP2 POP POP JUMP JUMPDEST CALLER DUP2 PUSH1 0x0 PUSH1 0x5 PUSH1 0x0 CALLER PUSH20 0xFFFFFFFFFFFFFFFFFFFFFFFFFFFFFFFFFFFFFFFF AND PUSH20 0xFFFFFFFFFFFFFFFFFFFFFFFFFFFFFFFFFFFFFFFF AND DUP2 MSTORE PUSH1 0x20 ADD SWAP1 DUP2 MSTORE PUSH1 0x20 ADD PUSH1 0x0 KECCAK256 SLOAD SWAP1 POP PUSH1 0x0 PUSH2 0x54E DUP5 PUSH2 0x875 JUMP JUMPDEST SWAP1 POP DUP1 DUP4 DUP4 PUSH2 0x55D SWAP2 SWAP1 PUSH2 0x1770 JUMP JUMPDEST LT PUSH2 0x59D JUMPI PUSH1 0x40 MLOAD PUSH32 0x8C379A000000000000000000000000000000000000000000000000000000000 DUP2 MSTORE PUSH1 0x4 ADD PUSH2 0x594 SWAP1 PUSH2 0x1812 JUMP JUMPDEST PUSH1 0x40 MLOAD DUP1 SWAP2 SUB SWAP1 REVERT JUMPDEST PUSH1 0x0 PUSH1 0x7 SLOAD DUP7 PUSH2 0x5AD SWAP2 SWAP1 PUSH2 0x1861 JUMP JUMPDEST EQ PUSH2 0x5ED JUMPI PUSH1 0x40 MLOAD PUSH32 0x8C379A000000000000000000000000000000000000000000000000000000000 DUP2 MSTORE PUSH1 0x4 ADD PUSH2 0x5E4 SWAP1 PUSH2 0x18DE JUMP JUMPDEST PUSH1 0x40 MLOAD DUP1 SWAP2 SUB SWAP1 REVERT JUMPDEST PUSH1 0x9 PUSH1 0x0 CALLER PUSH20 0xFFFFFFFFFFFFFFFFFFFFFFFFFFFFFFFFFFFFFFFF AND PUSH20 0xFFFFFFFFFFFFFFFFFFFFFFFFFFFFFFFFFFFFFFFF AND DUP2 MSTORE PUSH1 0x20 ADD SWAP1 DUP2 MSTORE PUSH1 0x20 ADD PUSH1 0x0 KECCAK256 PUSH1 0x0 DUP8 PUSH20 0xFFFFFFFFFFFFFFFFFFFFFFFFFFFFFFFFFFFFFFFF AND PUSH20 0xFFFFFFFFFFFFFFFFFFFFFFFFFFFFFFFFFFFFFFFF AND DUP2 MSTORE PUSH1 0x20 ADD SWAP1 DUP2 MSTORE PUSH1 0x20 ADD PUSH1 0x0 KECCAK256 PUSH1 0x0 SWAP1 SLOAD SWAP1 PUSH2 0x100 EXP SWAP1 DIV PUSH1 0xFF AND ISZERO PUSH2 0x685 JUMPI PUSH2 0x684 PUSH2 0x18FE JUMP JUMPDEST JUMPDEST PUSH1 0x0 PUSH1 0x7 SLOAD DUP7 PUSH2 0x695 SWAP2 SWAP1 PUSH2 0x192D JUMP JUMPDEST SWAP1 POP PUSH2 0x6A1 DUP7 DUP9 PUSH2 0x118A JUMP JUMPDEST DUP1 PUSH1 0xA PUSH1 0x0 CALLER PUSH20 0xFFFFFFFFFFFFFFFFFFFFFFFFFFFFFFFFFFFFFFFF AND PUSH20 0xFFFFFFFFFFFFFFFFFFFFFFFFFFFFFFFFFFFFFFFF AND DUP2 MSTORE PUSH1 0x20 ADD SWAP1 DUP2 MSTORE PUSH1 0x20 ADD PUSH1 0x0 KECCAK256 PUSH1 0x0 DUP10 PUSH20 0xFFFFFFFFFFFFFFFFFFFFFFFFFFFFFFFFFFFFFFFF AND PUSH20 0xFFFFFFFFFFFFFFFFFFFFFFFFFFFFFFFFFFFFFFFF AND DUP2 MSTORE PUSH1 0x20 ADD SWAP1 DUP2 MSTORE PUSH1 0x20 ADD PUSH1 0x0 KECCAK256 PUSH1 0x0 DUP3 DUP3 SLOAD PUSH2 0x72D SWAP2 SWAP1 PUSH2 0x1770 JUMP JUMPDEST SWAP3 POP POP DUP2 SWAP1 SSTORE POP PUSH1 0x8 SLOAD PUSH1 0xA PUSH1 0x0 CALLER PUSH20 0xFFFFFFFFFFFFFFFFFFFFFFFFFFFFFFFFFFFFFFFF AND PUSH20 0xFFFFFFFFFFFFFFFFFFFFFFFFFFFFFFFFFFFFFFFF AND DUP2 MSTORE PUSH1 0x20 ADD SWAP1 DUP2 MSTORE PUSH1 0x20 ADD PUSH1 0x0 KECCAK256 PUSH1 0x0 DUP10 PUSH20 0xFFFFFFFFFFFFFFFFFFFFFFFFFFFFFFFFFFFFFFFF AND PUSH20 0xFFFFFFFFFFFFFFFFFFFFFFFFFFFFFFFFFFFFFFFF AND DUP2 MSTORE PUSH1 0x20 ADD SWAP1 DUP2 MSTORE PUSH1 0x20 ADD PUSH1 0x0 KECCAK256 SLOAD LT PUSH2 0x812 JUMPI PUSH1 0x1 PUSH1 0xB PUSH1 0x0 DUP10 PUSH20 0xFFFFFFFFFFFFFFFFFFFFFFFFFFFFFFFFFFFFFFFF AND PUSH20 0xFFFFFFFFFFFFFFFFFFFFFFFFFFFFFFFFFFFFFFFF AND DUP2 MSTORE PUSH1 0x20 ADD SWAP1 DUP2 MSTORE PUSH1 0x20 ADD PUSH1 0x0 KECCAK256 PUSH1 0x0 PUSH2 0x100 EXP DUP2 SLOAD DUP2 PUSH1 0xFF MUL NOT AND SWAP1 DUP4 ISZERO ISZERO MUL OR SWAP1 SSTORE POP JUMPDEST DUP7 PUSH20 0xFFFFFFFFFFFFFFFFFFFFFFFFFFFFFFFFFFFFFFFF AND CALLER PUSH20 0xFFFFFFFFFFFFFFFFFFFFFFFFFFFFFFFFFFFFFFFF AND PUSH32 0xCE0C7A2A940807F7DC2CE7A615C2532E915E6C0AC9A08BC4ED9D515A710A53E2 PUSH1 0x40 MLOAD PUSH1 0x40 MLOAD DUP1 SWAP2 SUB SWAP1 LOG3 POP POP POP POP POP POP POP JUMP JUMPDEST PUSH1 0x0 PUSH1 0x4 PUSH1 0x0 DUP4 PUSH20 0xFFFFFFFFFFFFFFFFFFFFFFFFFFFFFFFFFFFFFFFF AND PUSH20 0xFFFFFFFFFFFFFFFFFFFFFFFFFFFFFFFFFFFFFFFF AND DUP2 MSTORE PUSH1 0x20 ADD SWAP1 DUP2 MSTORE PUSH1 0x20 ADD PUSH1 0x0 KECCAK256 SLOAD SWAP1 POP SWAP2 SWAP1 POP JUMP JUMPDEST PUSH1 0x9 PUSH1 0x20 MSTORE DUP2 PUSH1 0x0 MSTORE PUSH1 0x40 PUSH1 0x0 KECCAK256 PUSH1 0x20 MSTORE DUP1 PUSH1 0x0 MSTORE PUSH1 0x40 PUSH1 0x0 KECCAK256 PUSH1 0x0 SWAP2 POP SWAP2 POP SWAP1 SLOAD SWAP1 PUSH2 0x100 EXP SWAP1 DIV PUSH1 0xFF AND DUP2 JUMP JUMPDEST PUSH1 0x60 PUSH1 0x2 DUP1 SLOAD PUSH2 0x8FC SWAP1 PUSH2 0x170F JUMP JUMPDEST DUP1 PUSH1 0x1F ADD PUSH1 0x20 DUP1 SWAP2 DIV MUL PUSH1 0x20 ADD PUSH1 0x40 MLOAD SWAP1 DUP2 ADD PUSH1 0x40 MSTORE DUP1 SWAP3 SWAP2 SWAP1 DUP2 DUP2 MSTORE PUSH1 0x20 ADD DUP3 DUP1 SLOAD PUSH2 0x928 SWAP1 PUSH2 0x170F JUMP JUMPDEST DUP1 ISZERO PUSH2 0x975 JUMPI DUP1 PUSH1 0x1F LT PUSH2 0x94A JUMPI PUSH2 0x100 DUP1 DUP4 SLOAD DIV MUL DUP4 MSTORE SWAP2 PUSH1 0x20 ADD SWAP2 PUSH2 0x975 JUMP JUMPDEST DUP3 ADD SWAP2 SWAP1 PUSH1 0x0 MSTORE PUSH1 0x20 PUSH1 0x0 KECCAK256 SWAP1 JUMPDEST DUP2 SLOAD DUP2 MSTORE SWAP1 PUSH1 0x1 ADD SWAP1 PUSH1 0x20 ADD DUP1 DUP4 GT PUSH2 0x958 JUMPI DUP3 SWAP1 SUB PUSH1 0x1F AND DUP3 ADD SWAP2 JUMPDEST POP POP POP POP POP SWAP1 POP SWAP1 JUMP JUMPDEST PUSH1 0x0 DUP1 PUSH2 0x98A PUSH2 0xC51 JUMP JUMPDEST SWAP1 POP PUSH1 0x0 PUSH2 0x998 DUP3 DUP7 PUSH2 0xB74 JUMP JUMPDEST SWAP1 POP DUP4 DUP2 LT ISZERO PUSH2 0x9DD JUMPI PUSH1 0x40 MLOAD PUSH32 0x8C379A000000000000000000000000000000000000000000000000000000000 DUP2 MSTORE PUSH1 0x4 ADD PUSH2 0x9D4 SWAP1 PUSH2 0x19D0 JUMP JUMPDEST PUSH1 0x40 MLOAD DUP1 SWAP2 SUB SWAP1 REVERT JUMPDEST PUSH2 0x9EA DUP3 DUP7 DUP7 DUP5 SUB PUSH2 0xC59 JUMP JUMPDEST PUSH1 0x1 SWAP3 POP POP POP SWAP3 SWAP2 POP POP JUMP JUMPDEST PUSH1 0x0 DUP1 PUSH2 0xA01 PUSH2 0xC51 JUMP JUMPDEST SWAP1 POP PUSH2 0xA0E DUP2 DUP6 DUP6 PUSH2 0xEB0 JUMP JUMPDEST PUSH1 0x1 SWAP2 POP POP SWAP3 SWAP2 POP POP JUMP JUMPDEST PUSH1 0xA PUSH1 0x20 MSTORE DUP2 PUSH1 0x0 MSTORE PUSH1 0x40 PUSH1 0x0 KECCAK256 PUSH1 0x20 MSTORE DUP1 PUSH1 0x0 MSTORE PUSH1 0x40 PUSH1 0x0 KECCAK256 PUSH1 0x0 SWAP2 POP SWAP2 POP POP SLOAD DUP2 JUMP JUMPDEST PUSH1 0xB PUSH1 0x20 MSTORE DUP1 PUSH1 0x0 MSTORE PUSH1 0x40 PUSH1 0x0 KECCAK256 PUSH1 0x0 SWAP2 POP SLOAD SWAP1 PUSH2 0x100 EXP SWAP1 DIV PUSH1 0xFF AND DUP2 JUMP JUMPDEST PUSH1 0x8 SLOAD PUSH1 0xA PUSH1 0x0 CALLER PUSH20 0xFFFFFFFFFFFFFFFFFFFFFFFFFFFFFFFFFFFFFFFF AND PUSH20 0xFFFFFFFFFFFFFFFFFFFFFFFFFFFFFFFFFFFFFFFF AND DUP2 MSTORE PUSH1 0x20 ADD SWAP1 DUP2 MSTORE PUSH1 0x20 ADD PUSH1 0x0 KECCAK256 PUSH1 0x0 DUP4 PUSH20 0xFFFFFFFFFFFFFFFFFFFFFFFFFFFFFFFFFFFFFFFF AND PUSH20 0xFFFFFFFFFFFFFFFFFFFFFFFFFFFFFFFFFFFFFFFF AND DUP2 MSTORE PUSH1 0x20 ADD SWAP1 DUP2 MSTORE PUSH1 0x20 ADD PUSH1 0x0 KECCAK256 SLOAD LT ISZERO PUSH2 0xB1F JUMPI PUSH1 0x40 MLOAD PUSH32 0x8C379A000000000000000000000000000000000000000000000000000000000 DUP2 MSTORE PUSH1 0x4 ADD PUSH2 0xB16 SWAP1 PUSH2 0x1A3C JUMP JUMPDEST PUSH1 0x40 MLOAD DUP1 SWAP2 SUB SWAP1 REVERT JUMPDEST PUSH1 0x0 PUSH2 0xB2A DUP3 PUSH2 0x1277 JUMP JUMPDEST SWAP1 POP DUP1 CALLER PUSH20 0xFFFFFFFFFFFFFFFFFFFFFFFFFFFFFFFFFFFFFFFF AND PUSH32 0x7EEE288D96E16732B30EAAD358F8D56EA6F818BE95E3D8B56668DBED67D7B7A8 PUSH1 0x40 MLOAD PUSH1 0x40 MLOAD DUP1 SWAP2 SUB SWAP1 LOG3 POP POP JUMP JUMPDEST PUSH1 0x0 PUSH1 0x6 PUSH1 0x0 DUP5 PUSH20 0xFFFFFFFFFFFFFFFFFFFFFFFFFFFFFFFFFFFFFFFF AND PUSH20 0xFFFFFFFFFFFFFFFFFFFFFFFFFFFFFFFFFFFFFFFF AND DUP2 MSTORE PUSH1 0x20 ADD SWAP1 DUP2 MSTORE PUSH1 0x20 ADD PUSH1 0x0 KECCAK256 PUSH1 0x0 DUP4 PUSH20 0xFFFFFFFFFFFFFFFFFFFFFFFFFFFFFFFFFFFFFFFF AND PUSH20 0xFFFFFFFFFFFFFFFFFFFFFFFFFFFFFFFFFFFFFFFF AND DUP2 MSTORE PUSH1 0x20 ADD SWAP1 DUP2 MSTORE PUSH1 0x20 ADD PUSH1 0x0 KECCAK256 SLOAD SWAP1 POP SWAP3 SWAP2 POP POP JUMP JUMPDEST PUSH1 0x0 PUSH1 0xB PUSH1 0x0 DUP4 PUSH20 0xFFFFFFFFFFFFFFFFFFFFFFFFFFFFFFFFFFFFFFFF AND PUSH20 0xFFFFFFFFFFFFFFFFFFFFFFFFFFFFFFFFFFFFFFFF AND DUP2 MSTORE PUSH1 0x20 ADD SWAP1 DUP2 MSTORE PUSH1 0x20 ADD PUSH1 0x0 KECCAK256 PUSH1 0x0 SWAP1 SLOAD SWAP1 PUSH2 0x100 EXP SWAP1 DIV PUSH1 0xFF AND SWAP1 POP SWAP2 SWAP1 POP JUMP JUMPDEST PUSH1 0x0 CALLER SWAP1 POP SWAP1 JUMP JUMPDEST PUSH1 0x0 PUSH20 0xFFFFFFFFFFFFFFFFFFFFFFFFFFFFFFFFFFFFFFFF AND DUP4 PUSH20 0xFFFFFFFFFFFFFFFFFFFFFFFFFFFFFFFFFFFFFFFF AND EQ ISZERO PUSH2 0xCC9 JUMPI PUSH1 0x40 MLOAD PUSH32 0x8C379A000000000000000000000000000000000000000000000000000000000 DUP2 MSTORE PUSH1 0x4 ADD PUSH2 0xCC0 SWAP1 PUSH2 0x1ACE JUMP JUMPDEST PUSH1 0x40 MLOAD DUP1 SWAP2 SUB SWAP1 REVERT JUMPDEST PUSH1 0x0 PUSH20 0xFFFFFFFFFFFFFFFFFFFFFFFFFFFFFFFFFFFFFFFF AND DUP3 PUSH20 0xFFFFFFFFFFFFFFFFFFFFFFFFFFFFFFFFFFFFFFFF AND EQ ISZERO PUSH2 0xD39 JUMPI PUSH1 0x40 MLOAD PUSH32 0x8C379A000000000000000000000000000000000000000000000000000000000 DUP2 MSTORE PUSH1 0x4 ADD PUSH2 0xD30 SWAP1 PUSH2 0x1B60 JUMP JUMPDEST PUSH1 0x40 MLOAD DUP1 SWAP2 SUB SWAP1 REVERT JUMPDEST DUP1 PUSH1 0x6 PUSH1 0x0 DUP6 PUSH20 0xFFFFFFFFFFFFFFFFFFFFFFFFFFFFFFFFFFFFFFFF AND PUSH20 0xFFFFFFFFFFFFFFFFFFFFFFFFFFFFFFFFFFFFFFFF AND DUP2 MSTORE PUSH1 0x20 ADD SWAP1 DUP2 MSTORE PUSH1 0x20 ADD PUSH1 0x0 KECCAK256 PUSH1 0x0 DUP5 PUSH20 0xFFFFFFFFFFFFFFFFFFFFFFFFFFFFFFFFFFFFFFFF AND PUSH20 0xFFFFFFFFFFFFFFFFFFFFFFFFFFFFFFFFFFFFFFFF AND DUP2 MSTORE PUSH1 0x20 ADD SWAP1 DUP2 MSTORE PUSH1 0x20 ADD PUSH1 0x0 KECCAK256 DUP2 SWAP1 SSTORE POP DUP2 PUSH20 0xFFFFFFFFFFFFFFFFFFFFFFFFFFFFFFFFFFFFFFFF AND DUP4 PUSH20 0xFFFFFFFFFFFFFFFFFFFFFFFFFFFFFFFFFFFFFFFF AND PUSH32 0x8C5BE1E5EBEC7D5BD14F71427D1E84F3DD0314C0F7B2291E5B200AC8C7C3B925 DUP4 PUSH1 0x40 MLOAD PUSH2 0xE17 SWAP2 SWAP1 PUSH2 0x15CE JUMP JUMPDEST PUSH1 0x40 MLOAD DUP1 SWAP2 SUB SWAP1 LOG3 POP POP POP JUMP JUMPDEST PUSH1 0x0 PUSH2 0xE30 DUP5 DUP5 PUSH2 0xB74 JUMP JUMPDEST SWAP1 POP PUSH32 0xFFFFFFFFFFFFFFFFFFFFFFFFFFFFFFFFFFFFFFFFFFFFFFFFFFFFFFFFFFFFFFFF DUP2 EQ PUSH2 0xEAA JUMPI DUP2 DUP2 LT ISZERO PUSH2 0xE9C JUMPI PUSH1 0x40 MLOAD PUSH32 0x8C379A000000000000000000000000000000000000000000000000000000000 DUP2 MSTORE PUSH1 0x4 ADD PUSH2 0xE93 SWAP1 PUSH2 0x1BCC JUMP JUMPDEST PUSH1 0x40 MLOAD DUP1 SWAP2 SUB SWAP1 REVERT JUMPDEST PUSH2 0xEA9 DUP5 DUP5 DUP5 DUP5 SUB PUSH2 0xC59 JUMP JUMPDEST JUMPDEST POP POP POP POP JUMP JUMPDEST PUSH1 0x0 PUSH20 0xFFFFFFFFFFFFFFFFFFFFFFFFFFFFFFFFFFFFFFFF AND DUP4 PUSH20 0xFFFFFFFFFFFFFFFFFFFFFFFFFFFFFFFFFFFFFFFF AND EQ ISZERO PUSH2 0xF20 JUMPI PUSH1 0x40 MLOAD PUSH32 0x8C379A000000000000000000000000000000000000000000000000000000000 DUP2 MSTORE PUSH1 0x4 ADD PUSH2 0xF17 SWAP1 PUSH2 0x1C5E JUMP JUMPDEST PUSH1 0x40 MLOAD DUP1 SWAP2 SUB SWAP1 REVERT JUMPDEST PUSH1 0x0 PUSH20 0xFFFFFFFFFFFFFFFFFFFFFFFFFFFFFFFFFFFFFFFF AND DUP3 PUSH20 0xFFFFFFFFFFFFFFFFFFFFFFFFFFFFFFFFFFFFFFFF AND EQ ISZERO PUSH2 0xF90 JUMPI PUSH1 0x40 MLOAD PUSH32 0x8C379A000000000000000000000000000000000000000000000000000000000 DUP2 MSTORE PUSH1 0x4 ADD PUSH2 0xF87 SWAP1 PUSH2 0x1CF0 JUMP JUMPDEST PUSH1 0x40 MLOAD DUP1 SWAP2 SUB SWAP1 REVERT JUMPDEST PUSH2 0xF9B DUP4 DUP4 DUP4 PUSH2 0x13EB JUMP JUMPDEST PUSH1 0x0 PUSH1 0x5 PUSH1 0x0 CALLER PUSH20 0xFFFFFFFFFFFFFFFFFFFFFFFFFFFFFFFFFFFFFFFF AND PUSH20 0xFFFFFFFFFFFFFFFFFFFFFFFFFFFFFFFFFFFFFFFF AND DUP2 MSTORE PUSH1 0x20 ADD SWAP1 DUP2 MSTORE PUSH1 0x20 ADD PUSH1 0x0 KECCAK256 SLOAD SWAP1 POP PUSH1 0x0 PUSH1 0x4 PUSH1 0x0 DUP7 PUSH20 0xFFFFFFFFFFFFFFFFFFFFFFFFFFFFFFFFFFFFFFFF AND PUSH20 0xFFFFFFFFFFFFFFFFFFFFFFFFFFFFFFFFFFFFFFFF AND DUP2 MSTORE PUSH1 0x20 ADD SWAP1 DUP2 MSTORE PUSH1 0x20 ADD PUSH1 0x0 KECCAK256 SLOAD SWAP1 POP PUSH1 0x0 DUP3 DUP3 PUSH2 0x1031 SWAP2 SWAP1 PUSH2 0x1D10 JUMP JUMPDEST SWAP1 POP DUP4 DUP2 LT ISZERO PUSH2 0x1076 JUMPI PUSH1 0x40 MLOAD PUSH32 0x8C379A000000000000000000000000000000000000000000000000000000000 DUP2 MSTORE PUSH1 0x4 ADD PUSH2 0x106D SWAP1 PUSH2 0x1DB6 JUMP JUMPDEST PUSH1 0x40 MLOAD DUP1 SWAP2 SUB SWAP1 REVERT JUMPDEST DUP4 DUP3 SUB PUSH1 0x4 PUSH1 0x0 DUP9 PUSH20 0xFFFFFFFFFFFFFFFFFFFFFFFFFFFFFFFFFFFFFFFF AND PUSH20 0xFFFFFFFFFFFFFFFFFFFFFFFFFFFFFFFFFFFFFFFF AND DUP2 MSTORE PUSH1 0x20 ADD SWAP1 DUP2 MSTORE PUSH1 0x20 ADD PUSH1 0x0 KECCAK256 DUP2 SWAP1 SSTORE POP DUP4 PUSH1 0x4 PUSH1 0x0 DUP8 PUSH20 0xFFFFFFFFFFFFFFFFFFFFFFFFFFFFFFFFFFFFFFFF AND PUSH20 0xFFFFFFFFFFFFFFFFFFFFFFFFFFFFFFFFFFFFFFFF AND DUP2 MSTORE PUSH1 0x20 ADD SWAP1 DUP2 MSTORE PUSH1 0x20 ADD PUSH1 0x0 KECCAK256 PUSH1 0x0 DUP3 DUP3 SLOAD PUSH2 0x110B SWAP2 SWAP1 PUSH2 0x1770 JUMP JUMPDEST SWAP3 POP POP DUP2 SWAP1 SSTORE POP DUP5 PUSH20 0xFFFFFFFFFFFFFFFFFFFFFFFFFFFFFFFFFFFFFFFF AND DUP7 PUSH20 0xFFFFFFFFFFFFFFFFFFFFFFFFFFFFFFFFFFFFFFFF AND PUSH32 0xDDF252AD1BE2C89B69C2B068FC378DAA952BA7F163C4A11628F55A4DF523B3EF DUP7 PUSH1 0x40 MLOAD PUSH2 0x116F SWAP2 SWAP1 PUSH2 0x15CE JUMP JUMPDEST PUSH1 0x40 MLOAD DUP1 SWAP2 SUB SWAP1 LOG3 PUSH2 0x1182 DUP7 DUP7 DUP7 PUSH2 0x13F0 JUMP JUMPDEST POP POP POP POP POP POP JUMP JUMPDEST DUP2 PUSH1 0x3 PUSH1 0x0 CALLER PUSH20 0xFFFFFFFFFFFFFFFFFFFFFFFFFFFFFFFFFFFFFFFF AND PUSH20 0xFFFFFFFFFFFFFFFFFFFFFFFFFFFFFFFFFFFFFFFF AND DUP2 MSTORE PUSH1 0x20 ADD SWAP1 DUP2 MSTORE PUSH1 0x20 ADD PUSH1 0x0 KECCAK256 PUSH1 0x0 DUP4 PUSH20 0xFFFFFFFFFFFFFFFFFFFFFFFFFFFFFFFFFFFFFFFF AND PUSH20 0xFFFFFFFFFFFFFFFFFFFFFFFFFFFFFFFFFFFFFFFF AND DUP2 MSTORE PUSH1 0x20 ADD SWAP1 DUP2 MSTORE PUSH1 0x20 ADD PUSH1 0x0 KECCAK256 PUSH1 0x0 DUP3 DUP3 SLOAD PUSH2 0x1216 SWAP2 SWAP1 PUSH2 0x1770 JUMP JUMPDEST SWAP3 POP POP DUP2 SWAP1 SSTORE POP DUP2 PUSH1 0x5 PUSH1 0x0 CALLER PUSH20 0xFFFFFFFFFFFFFFFFFFFFFFFFFFFFFFFFFFFFFFFF AND PUSH20 0xFFFFFFFFFFFFFFFFFFFFFFFFFFFFFFFFFFFFFFFF AND DUP2 MSTORE PUSH1 0x20 ADD SWAP1 DUP2 MSTORE PUSH1 0x20 ADD PUSH1 0x0 KECCAK256 PUSH1 0x0 DUP3 DUP3 SLOAD PUSH2 0x126C SWAP2 SWAP1 PUSH2 0x1770 JUMP JUMPDEST SWAP3 POP POP DUP2 SWAP1 SSTORE POP POP POP JUMP JUMPDEST PUSH1 0x0 DUP1 PUSH1 0x3 PUSH1 0x0 CALLER PUSH20 0xFFFFFFFFFFFFFFFFFFFFFFFFFFFFFFFFFFFFFFFF AND PUSH20 0xFFFFFFFFFFFFFFFFFFFFFFFFFFFFFFFFFFFFFFFF AND DUP2 MSTORE PUSH1 0x20 ADD SWAP1 DUP2 MSTORE PUSH1 0x20 ADD PUSH1 0x0 KECCAK256 PUSH1 0x0 DUP5 PUSH20 0xFFFFFFFFFFFFFFFFFFFFFFFFFFFFFFFFFFFFFFFF AND PUSH20 0xFFFFFFFFFFFFFFFFFFFFFFFFFFFFFFFFFFFFFFFF AND DUP2 MSTORE PUSH1 0x20 ADD SWAP1 DUP2 MSTORE PUSH1 0x20 ADD PUSH1 0x0 KECCAK256 SLOAD SWAP1 POP DUP1 PUSH1 0x5 PUSH1 0x0 CALLER PUSH20 0xFFFFFFFFFFFFFFFFFFFFFFFFFFFFFFFFFFFFFFFF AND PUSH20 0xFFFFFFFFFFFFFFFFFFFFFFFFFFFFFFFFFFFFFFFF AND DUP2 MSTORE PUSH1 0x20 ADD SWAP1 DUP2 MSTORE PUSH1 0x20 ADD PUSH1 0x0 KECCAK256 PUSH1 0x0 DUP3 DUP3 SLOAD PUSH2 0x1348 SWAP2 SWAP1 PUSH2 0x1D10 JUMP JUMPDEST SWAP3 POP POP DUP2 SWAP1 SSTORE POP DUP1 PUSH1 0x3 PUSH1 0x0 CALLER PUSH20 0xFFFFFFFFFFFFFFFFFFFFFFFFFFFFFFFFFFFFFFFF AND PUSH20 0xFFFFFFFFFFFFFFFFFFFFFFFFFFFFFFFFFFFFFFFF AND DUP2 MSTORE PUSH1 0x20 ADD SWAP1 DUP2 MSTORE PUSH1 0x20 ADD PUSH1 0x0 KECCAK256 PUSH1 0x0 DUP6 PUSH20 0xFFFFFFFFFFFFFFFFFFFFFFFFFFFFFFFFFFFFFFFF AND PUSH20 0xFFFFFFFFFFFFFFFFFFFFFFFFFFFFFFFFFFFFFFFF AND DUP2 MSTORE PUSH1 0x20 ADD SWAP1 DUP2 MSTORE PUSH1 0x20 ADD PUSH1 0x0 KECCAK256 PUSH1 0x0 DUP3 DUP3 SLOAD PUSH2 0x13DB SWAP2 SWAP1 PUSH2 0x1D10 JUMP JUMPDEST SWAP3 POP POP DUP2 SWAP1 SSTORE POP DUP1 SWAP2 POP POP SWAP2 SWAP1 POP JUMP JUMPDEST POP POP POP JUMP JUMPDEST POP POP POP JUMP JUMPDEST PUSH1 0x0 DUP2 MLOAD SWAP1 POP SWAP2 SWAP1 POP JUMP JUMPDEST PUSH1 0x0 DUP3 DUP3 MSTORE PUSH1 0x20 DUP3 ADD SWAP1 POP SWAP3 SWAP2 POP POP JUMP JUMPDEST PUSH1 0x0 JUMPDEST DUP4 DUP2 LT ISZERO PUSH2 0x142F JUMPI DUP1 DUP3 ADD MLOAD DUP2 DUP5 ADD MSTORE PUSH1 0x20 DUP2 ADD SWAP1 POP PUSH2 0x1414 JUMP JUMPDEST DUP4 DUP2 GT ISZERO PUSH2 0x143E JUMPI PUSH1 0x0 DUP5 DUP5 ADD MSTORE JUMPDEST POP POP POP POP JUMP JUMPDEST PUSH1 0x0 PUSH1 0x1F NOT PUSH1 0x1F DUP4 ADD AND SWAP1 POP SWAP2 SWAP1 POP JUMP JUMPDEST PUSH1 0x0 PUSH2 0x1460 DUP3 PUSH2 0x13F5 JUMP JUMPDEST PUSH2 0x146A DUP2 DUP6 PUSH2 0x1400 JUMP JUMPDEST SWAP4 POP PUSH2 0x147A DUP2 DUP6 PUSH1 0x20 DUP7 ADD PUSH2 0x1411 JUMP JUMPDEST PUSH2 0x1483 DUP2 PUSH2 0x1444 JUMP JUMPDEST DUP5 ADD SWAP2 POP POP SWAP3 SWAP2 POP POP JUMP JUMPDEST PUSH1 0x0 PUSH1 0x20 DUP3 ADD SWAP1 POP DUP2 DUP2 SUB PUSH1 0x0 DUP4 ADD MSTORE PUSH2 0x14A8 DUP2 DUP5 PUSH2 0x1455 JUMP JUMPDEST SWAP1 POP SWAP3 SWAP2 POP POP JUMP JUMPDEST PUSH1 0x0 DUP1 REVERT JUMPDEST PUSH1 0x0 PUSH20 0xFFFFFFFFFFFFFFFFFFFFFFFFFFFFFFFFFFFFFFFF DUP3 AND SWAP1 POP SWAP2 SWAP1 POP JUMP JUMPDEST PUSH1 0x0 PUSH2 0x14E0 DUP3 PUSH2 0x14B5 JUMP JUMPDEST SWAP1 POP SWAP2 SWAP1 POP JUMP JUMPDEST PUSH2 0x14F0 DUP2 PUSH2 0x14D5 JUMP JUMPDEST DUP2 EQ PUSH2 0x14FB JUMPI PUSH1 0x0 DUP1 REVERT JUMPDEST POP JUMP JUMPDEST PUSH1 0x0 DUP2 CALLDATALOAD SWAP1 POP PUSH2 0x150D DUP2 PUSH2 0x14E7 JUMP JUMPDEST SWAP3 SWAP2 POP POP JUMP JUMPDEST PUSH1 0x0 DUP2 SWAP1 POP SWAP2 SWAP1 POP JUMP JUMPDEST PUSH2 0x1526 DUP2 PUSH2 0x1513 JUMP JUMPDEST DUP2 EQ PUSH2 0x1531 JUMPI PUSH1 0x0 DUP1 REVERT JUMPDEST POP JUMP JUMPDEST PUSH1 0x0 DUP2 CALLDATALOAD SWAP1 POP PUSH2 0x1543 DUP2 PUSH2 0x151D JUMP JUMPDEST SWAP3 SWAP2 POP POP JUMP JUMPDEST PUSH1 0x0 DUP1 PUSH1 0x40 DUP4 DUP6 SUB SLT ISZERO PUSH2 0x1560 JUMPI PUSH2 0x155F PUSH2 0x14B0 JUMP JUMPDEST JUMPDEST PUSH1 0x0 PUSH2 0x156E DUP6 DUP3 DUP7 ADD PUSH2 0x14FE JUMP JUMPDEST SWAP3 POP POP PUSH1 0x20 PUSH2 0x157F DUP6 DUP3 DUP7 ADD PUSH2 0x1534 JUMP JUMPDEST SWAP2 POP POP SWAP3 POP SWAP3 SWAP1 POP JUMP JUMPDEST PUSH1 0x0 DUP2 ISZERO ISZERO SWAP1 POP SWAP2 SWAP1 POP JUMP JUMPDEST PUSH2 0x159E DUP2 PUSH2 0x1589 JUMP JUMPDEST DUP3 MSTORE POP POP JUMP JUMPDEST PUSH1 0x0 PUSH1 0x20 DUP3 ADD SWAP1 POP PUSH2 0x15B9 PUSH1 0x0 DUP4 ADD DUP5 PUSH2 0x1595 JUMP JUMPDEST SWAP3 SWAP2 POP POP JUMP JUMPDEST PUSH2 0x15C8 DUP2 PUSH2 0x1513 JUMP JUMPDEST DUP3 MSTORE POP POP JUMP JUMPDEST PUSH1 0x0 PUSH1 0x20 DUP3 ADD SWAP1 POP PUSH2 0x15E3 PUSH1 0x0 DUP4 ADD DUP5 PUSH2 0x15BF JUMP JUMPDEST SWAP3 SWAP2 POP POP JUMP JUMPDEST PUSH1 0x0 DUP1 PUSH1 0x0 PUSH1 0x60 DUP5 DUP7 SUB SLT ISZERO PUSH2 0x1602 JUMPI PUSH2 0x1601 PUSH2 0x14B0 JUMP JUMPDEST JUMPDEST PUSH1 0x0 PUSH2 0x1610 DUP7 DUP3 DUP8 ADD PUSH2 0x14FE JUMP JUMPDEST SWAP4 POP POP PUSH1 0x20 PUSH2 0x1621 DUP7 DUP3 DUP8 ADD PUSH2 0x14FE JUMP JUMPDEST SWAP3 POP POP PUSH1 0x40 PUSH2 0x1632 DUP7 DUP3 DUP8 ADD PUSH2 0x1534 JUMP JUMPDEST SWAP2 POP POP SWAP3 POP SWAP3 POP SWAP3 JUMP JUMPDEST PUSH1 0x0 PUSH1 0xFF DUP3 AND SWAP1 POP SWAP2 SWAP1 POP JUMP JUMPDEST PUSH2 0x1652 DUP2 PUSH2 0x163C JUMP JUMPDEST DUP3 MSTORE POP POP JUMP JUMPDEST PUSH1 0x0 PUSH1 0x20 DUP3 ADD SWAP1 POP PUSH2 0x166D PUSH1 0x0 DUP4 ADD DUP5 PUSH2 0x1649 JUMP JUMPDEST SWAP3 SWAP2 POP POP JUMP JUMPDEST PUSH1 0x0 PUSH1 0x20 DUP3 DUP5 SUB SLT ISZERO PUSH2 0x1689 JUMPI PUSH2 0x1688 PUSH2 0x14B0 JUMP JUMPDEST JUMPDEST PUSH1 0x0 PUSH2 0x1697 DUP5 DUP3 DUP6 ADD PUSH2 0x14FE JUMP JUMPDEST SWAP2 POP POP SWAP3 SWAP2 POP POP JUMP JUMPDEST PUSH1 0x0 DUP1 PUSH1 0x40 DUP4 DUP6 SUB SLT ISZERO PUSH2 0x16B7 JUMPI PUSH2 0x16B6 PUSH2 0x14B0 JUMP JUMPDEST JUMPDEST PUSH1 0x0 PUSH2 0x16C5 DUP6 DUP3 DUP7 ADD PUSH2 0x14FE JUMP JUMPDEST SWAP3 POP POP PUSH1 0x20 PUSH2 0x16D6 DUP6 DUP3 DUP7 ADD PUSH2 0x14FE JUMP JUMPDEST SWAP2 POP POP SWAP3 POP SWAP3 SWAP1 POP JUMP JUMPDEST PUSH32 0x4E487B7100000000000000000000000000000000000000000000000000000000 PUSH1 0x0 MSTORE PUSH1 0x22 PUSH1 0x4 MSTORE PUSH1 0x24 PUSH1 0x0 REVERT JUMPDEST PUSH1 0x0 PUSH1 0x2 DUP3 DIV SWAP1 POP PUSH1 0x1 DUP3 AND DUP1 PUSH2 0x1727 JUMPI PUSH1 0x7F DUP3 AND SWAP2 POP JUMPDEST PUSH1 0x20 DUP3 LT DUP2 EQ ISZERO PUSH2 0x173B JUMPI PUSH2 0x173A PUSH2 0x16E0 JUMP JUMPDEST JUMPDEST POP SWAP2 SWAP1 POP JUMP JUMPDEST PUSH32 0x4E487B7100000000000000000000000000000000000000000000000000000000 PUSH1 0x0 MSTORE PUSH1 0x11 PUSH1 0x4 MSTORE PUSH1 0x24 PUSH1 0x0 REVERT JUMPDEST PUSH1 0x0 PUSH2 0x177B DUP3 PUSH2 0x1513 JUMP JUMPDEST SWAP2 POP PUSH2 0x1786 DUP4 PUSH2 0x1513 JUMP JUMPDEST SWAP3 POP DUP3 PUSH32 0xFFFFFFFFFFFFFFFFFFFFFFFFFFFFFFFFFFFFFFFFFFFFFFFFFFFFFFFFFFFFFFFF SUB DUP3 GT ISZERO PUSH2 0x17BB JUMPI PUSH2 0x17BA PUSH2 0x1741 JUMP JUMPDEST JUMPDEST DUP3 DUP3 ADD SWAP1 POP SWAP3 SWAP2 POP POP JUMP JUMPDEST PUSH32 0x796F7520646F6E2774206861766520746F6B656E20746F20766F746500000000 PUSH1 0x0 DUP3 ADD MSTORE POP JUMP JUMPDEST PUSH1 0x0 PUSH2 0x17FC PUSH1 0x1C DUP4 PUSH2 0x1400 JUMP JUMPDEST SWAP2 POP PUSH2 0x1807 DUP3 PUSH2 0x17C6 JUMP JUMPDEST PUSH1 0x20 DUP3 ADD SWAP1 POP SWAP2 SWAP1 POP JUMP JUMPDEST PUSH1 0x0 PUSH1 0x20 DUP3 ADD SWAP1 POP DUP2 DUP2 SUB PUSH1 0x0 DUP4 ADD MSTORE PUSH2 0x182B DUP2 PUSH2 0x17EF JUMP JUMPDEST SWAP1 POP SWAP2 SWAP1 POP JUMP JUMPDEST PUSH32 0x4E487B7100000000000000000000000000000000000000000000000000000000 PUSH1 0x0 MSTORE PUSH1 0x12 PUSH1 0x4 MSTORE PUSH1 0x24 PUSH1 0x0 REVERT JUMPDEST PUSH1 0x0 PUSH2 0x186C DUP3 PUSH2 0x1513 JUMP JUMPDEST SWAP2 POP PUSH2 0x1877 DUP4 PUSH2 0x1513 JUMP JUMPDEST SWAP3 POP DUP3 PUSH2 0x1887 JUMPI PUSH2 0x1886 PUSH2 0x1832 JUMP JUMPDEST JUMPDEST DUP3 DUP3 MOD SWAP1 POP SWAP3 SWAP2 POP POP JUMP JUMPDEST PUSH32 0x313020746F6B656E732069732031207965730000000000000000000000000000 PUSH1 0x0 DUP3 ADD MSTORE POP JUMP JUMPDEST PUSH1 0x0 PUSH2 0x18C8 PUSH1 0x12 DUP4 PUSH2 0x1400 JUMP JUMPDEST SWAP2 POP PUSH2 0x18D3 DUP3 PUSH2 0x1892 JUMP JUMPDEST PUSH1 0x20 DUP3 ADD SWAP1 POP SWAP2 SWAP1 POP JUMP JUMPDEST PUSH1 0x0 PUSH1 0x20 DUP3 ADD SWAP1 POP DUP2 DUP2 SUB PUSH1 0x0 DUP4 ADD MSTORE PUSH2 0x18F7 DUP2 PUSH2 0x18BB JUMP JUMPDEST SWAP1 POP SWAP2 SWAP1 POP JUMP JUMPDEST PUSH32 0x4E487B7100000000000000000000000000000000000000000000000000000000 PUSH1 0x0 MSTORE PUSH1 0x1 PUSH1 0x4 MSTORE PUSH1 0x24 PUSH1 0x0 REVERT JUMPDEST PUSH1 0x0 PUSH2 0x1938 DUP3 PUSH2 0x1513 JUMP JUMPDEST SWAP2 POP PUSH2 0x1943 DUP4 PUSH2 0x1513 JUMP JUMPDEST SWAP3 POP DUP3 PUSH2 0x1953 JUMPI PUSH2 0x1952 PUSH2 0x1832 JUMP JUMPDEST JUMPDEST DUP3 DUP3 DIV SWAP1 POP SWAP3 SWAP2 POP POP JUMP JUMPDEST PUSH32 0x45524332303A2064656372656173656420616C6C6F77616E63652062656C6F77 PUSH1 0x0 DUP3 ADD MSTORE PUSH32 0x207A65726F000000000000000000000000000000000000000000000000000000 PUSH1 0x20 DUP3 ADD MSTORE POP JUMP JUMPDEST PUSH1 0x0 PUSH2 0x19BA PUSH1 0x25 DUP4 PUSH2 0x1400 JUMP JUMPDEST SWAP2 POP PUSH2 0x19C5 DUP3 PUSH2 0x195E JUMP JUMPDEST PUSH1 0x40 DUP3 ADD SWAP1 POP SWAP2 SWAP1 POP JUMP JUMPDEST PUSH1 0x0 PUSH1 0x20 DUP3 ADD SWAP1 POP DUP2 DUP2 SUB PUSH1 0x0 DUP4 ADD MSTORE PUSH2 0x19E9 DUP2 PUSH2 0x19AD JUMP JUMPDEST SWAP1 POP SWAP2 SWAP1 POP JUMP JUMPDEST PUSH32 0x5468697320766F74696E67206973207374696C6C206F6E20676F696E67000000 PUSH1 0x0 DUP3 ADD MSTORE POP JUMP JUMPDEST PUSH1 0x0 PUSH2 0x1A26 PUSH1 0x1D DUP4 PUSH2 0x1400 JUMP JUMPDEST SWAP2 POP PUSH2 0x1A31 DUP3 PUSH2 0x19F0 JUMP JUMPDEST PUSH1 0x20 DUP3 ADD SWAP1 POP SWAP2 SWAP1 POP JUMP JUMPDEST PUSH1 0x0 PUSH1 0x20 DUP3 ADD SWAP1 POP DUP2 DUP2 SUB PUSH1 0x0 DUP4 ADD MSTORE PUSH2 0x1A55 DUP2 PUSH2 0x1A19 JUMP JUMPDEST SWAP1 POP SWAP2 SWAP1 POP JUMP JUMPDEST PUSH32 0x45524332303A20617070726F76652066726F6D20746865207A65726F20616464 PUSH1 0x0 DUP3 ADD MSTORE PUSH32 0x7265737300000000000000000000000000000000000000000000000000000000 PUSH1 0x20 DUP3 ADD MSTORE POP JUMP JUMPDEST PUSH1 0x0 PUSH2 0x1AB8 PUSH1 0x24 DUP4 PUSH2 0x1400 JUMP JUMPDEST SWAP2 POP PUSH2 0x1AC3 DUP3 PUSH2 0x1A5C JUMP JUMPDEST PUSH1 0x40 DUP3 ADD SWAP1 POP SWAP2 SWAP1 POP JUMP JUMPDEST PUSH1 0x0 PUSH1 0x20 DUP3 ADD SWAP1 POP DUP2 DUP2 SUB PUSH1 0x0 DUP4 ADD MSTORE PUSH2 0x1AE7 DUP2 PUSH2 0x1AAB JUMP JUMPDEST SWAP1 POP SWAP2 SWAP1 POP JUMP JUMPDEST PUSH32 0x45524332303A20617070726F766520746F20746865207A65726F206164647265 PUSH1 0x0 DUP3 ADD MSTORE PUSH32 0x7373000000000000000000000000000000000000000000000000000000000000 PUSH1 0x20 DUP3 ADD MSTORE POP JUMP JUMPDEST PUSH1 0x0 PUSH2 0x1B4A PUSH1 0x22 DUP4 PUSH2 0x1400 JUMP JUMPDEST SWAP2 POP PUSH2 0x1B55 DUP3 PUSH2 0x1AEE JUMP JUMPDEST PUSH1 0x40 DUP3 ADD SWAP1 POP SWAP2 SWAP1 POP JUMP JUMPDEST PUSH1 0x0 PUSH1 0x20 DUP3 ADD SWAP1 POP DUP2 DUP2 SUB PUSH1 0x0 DUP4 ADD MSTORE PUSH2 0x1B79 DUP2 PUSH2 0x1B3D JUMP JUMPDEST SWAP1 POP SWAP2 SWAP1 POP JUMP JUMPDEST PUSH32 0x45524332303A20696E73756666696369656E7420616C6C6F77616E6365000000 PUSH1 0x0 DUP3 ADD MSTORE POP JUMP JUMPDEST PUSH1 0x0 PUSH2 0x1BB6 PUSH1 0x1D DUP4 PUSH2 0x1400 JUMP JUMPDEST SWAP2 POP PUSH2 0x1BC1 DUP3 PUSH2 0x1B80 JUMP JUMPDEST PUSH1 0x20 DUP3 ADD SWAP1 POP SWAP2 SWAP1 POP JUMP JUMPDEST PUSH1 0x0 PUSH1 0x20 DUP3 ADD SWAP1 POP DUP2 DUP2 SUB PUSH1 0x0 DUP4 ADD MSTORE PUSH2 0x1BE5 DUP2 PUSH2 0x1BA9 JUMP JUMPDEST SWAP1 POP SWAP2 SWAP1 POP JUMP JUMPDEST PUSH32 0x45524332303A207472616E736665722066726F6D20746865207A65726F206164 PUSH1 0x0 DUP3 ADD MSTORE PUSH32 0x6472657373000000000000000000000000000000000000000000000000000000 PUSH1 0x20 DUP3 ADD MSTORE POP JUMP JUMPDEST PUSH1 0x0 PUSH2 0x1C48 PUSH1 0x25 DUP4 PUSH2 0x1400 JUMP JUMPDEST SWAP2 POP PUSH2 0x1C53 DUP3 PUSH2 0x1BEC JUMP JUMPDEST PUSH1 0x40 DUP3 ADD SWAP1 POP SWAP2 SWAP1 POP JUMP JUMPDEST PUSH1 0x0 PUSH1 0x20 DUP3 ADD SWAP1 POP DUP2 DUP2 SUB PUSH1 0x0 DUP4 ADD MSTORE PUSH2 0x1C77 DUP2 PUSH2 0x1C3B JUMP JUMPDEST SWAP1 POP SWAP2 SWAP1 POP JUMP JUMPDEST PUSH32 0x45524332303A207472616E7366657220746F20746865207A65726F2061646472 PUSH1 0x0 DUP3 ADD MSTORE PUSH32 0x6573730000000000000000000000000000000000000000000000000000000000 PUSH1 0x20 DUP3 ADD MSTORE POP JUMP JUMPDEST PUSH1 0x0 PUSH2 0x1CDA PUSH1 0x23 DUP4 PUSH2 0x1400 JUMP JUMPDEST SWAP2 POP PUSH2 0x1CE5 DUP3 PUSH2 0x1C7E JUMP JUMPDEST PUSH1 0x40 DUP3 ADD SWAP1 POP SWAP2 SWAP1 POP JUMP JUMPDEST PUSH1 0x0 PUSH1 0x20 DUP3 ADD SWAP1 POP DUP2 DUP2 SUB PUSH1 0x0 DUP4 ADD MSTORE PUSH2 0x1D09 DUP2 PUSH2 0x1CCD JUMP JUMPDEST SWAP1 POP SWAP2 SWAP1 POP JUMP JUMPDEST PUSH1 0x0 PUSH2 0x1D1B DUP3 PUSH2 0x1513 JUMP JUMPDEST SWAP2 POP PUSH2 0x1D26 DUP4 PUSH2 0x1513 JUMP JUMPDEST SWAP3 POP DUP3 DUP3 LT ISZERO PUSH2 0x1D39 JUMPI PUSH2 0x1D38 PUSH2 0x1741 JUMP JUMPDEST JUMPDEST DUP3 DUP3 SUB SWAP1 POP SWAP3 SWAP2 POP POP JUMP JUMPDEST PUSH32 0x45524332303A207472616E7366657261626C6520616D6F756E74206578636565 PUSH1 0x0 DUP3 ADD MSTORE PUSH32 0x64732062616C616E636500000000000000000000000000000000000000000000 PUSH1 0x20 DUP3 ADD MSTORE POP JUMP JUMPDEST PUSH1 0x0 PUSH2 0x1DA0 PUSH1 0x2A DUP4 PUSH2 0x1400 JUMP JUMPDEST SWAP2 POP PUSH2 0x1DAB DUP3 PUSH2 0x1D44 JUMP JUMPDEST PUSH1 0x40 DUP3 ADD SWAP1 POP SWAP2 SWAP1 POP JUMP JUMPDEST PUSH1 0x0 PUSH1 0x20 DUP3 ADD SWAP1 POP DUP2 DUP2 SUB PUSH1 0x0 DUP4 ADD MSTORE PUSH2 0x1DCF DUP2 PUSH2 0x1D93 JUMP JUMPDEST SWAP1 POP SWAP2 SWAP1 POP JUMP INVALID LOG2 PUSH5 0x6970667358 0x22 SLT KECCAK256 0xA5 PUSH24 0xF59B3030CF2FC7FABB2760B6A21C87337C16B097E4B7E0AC REVERT PUSH3 0x53F765 0x2C PUSH5 0x736F6C6343 STOP ADDMOD EXP STOP CALLER "
				},
				"gasEstimates": {
					"creation": {
						"codeDepositCost": "1538400",
						"executionCost": "infinite",
						"totalCost": "infinite"
					},
					"external": {
						"RequestGranted(address)": "2889",
						"allowance(address,address)": "infinite",
						"approve(address,uint256)": "infinite",
						"balanceOf(address)": "2930",
						"decimals()": "366",
						"decreaseAllowance(address,uint256)": "infinite",
						"getBeneficiaryVotingStatus(address)": "2993",
						"govVote(address,address)": "infinite",
						"govVoteCount(address,address)": "infinite",
						"increaseAllowance(address,uint256)": "infinite",
						"name()": "infinite",
						"symbol()": "infinite",
						"totalSupply()": "2505",
						"transfer(address,uint256)": "infinite",
						"transferFrom(address,address,uint256)": "infinite",
						"unLocked(address)": "infinite",
						"voteProposal(address,uint256)": "infinite"
					},
					"internal": {
						"lockToken(uint256,address)": "infinite",
						"unLockToken(address)": "infinite"
					}
				},
				"methodIdentifiers": {
					"RequestGranted(address)": "c77c627d",
					"allowance(address,address)": "dd62ed3e",
					"approve(address,uint256)": "095ea7b3",
					"balanceOf(address)": "70a08231",
					"decimals()": "313ce567",
					"decreaseAllowance(address,uint256)": "a457c2d7",
					"getBeneficiaryVotingStatus(address)": "e3a17b3b",
					"govVote(address,address)": "89d38951",
					"govVoteCount(address,address)": "abab7fa0",
					"increaseAllowance(address,uint256)": "39509351",
					"name()": "06fdde03",
					"symbol()": "95d89b41",
					"totalSupply()": "18160ddd",
					"transfer(address,uint256)": "a9059cbb",
					"transferFrom(address,address,uint256)": "23b872dd",
					"unLocked(address)": "cb7be0fd",
					"voteProposal(address,uint256)": "66e5f2c5"
				}
			},
			"storageLayout": {
				"storage": [
					{
						"astId": 140,
						"contract": "backend/src/governance.sol:Voting",
						"label": "_totalSupply",
						"offset": 0,
						"slot": "0",
						"type": "t_uint256"
					},
					{
						"astId": 142,
						"contract": "backend/src/governance.sol:Voting",
						"label": "_name",
						"offset": 0,
						"slot": "1",
						"type": "t_string_storage"
					},
					{
						"astId": 144,
						"contract": "backend/src/governance.sol:Voting",
						"label": "_symbol",
						"offset": 0,
						"slot": "2",
						"type": "t_string_storage"
					},
					{
						"astId": 150,
						"contract": "backend/src/governance.sol:Voting",
						"label": "tokenOwners",
						"offset": 0,
						"slot": "3",
						"type": "t_mapping(t_address,t_mapping(t_address,t_uint256))"
					},
					{
						"astId": 154,
						"contract": "backend/src/governance.sol:Voting",
						"label": "_balances",
						"offset": 0,
						"slot": "4",
						"type": "t_mapping(t_address,t_uint256)"
					},
					{
						"astId": 158,
						"contract": "backend/src/governance.sol:Voting",
						"label": "lockedToken",
						"offset": 0,
						"slot": "5",
						"type": "t_mapping(t_address,t_uint256)"
					},
					{
						"astId": 164,
						"contract": "backend/src/governance.sol:Voting",
						"label": "_allowances",
						"offset": 0,
						"slot": "6",
						"type": "t_mapping(t_address,t_mapping(t_address,t_uint256))"
					},
					{
						"astId": 741,
						"contract": "backend/src/governance.sol:Voting",
						"label": "aYesVote",
						"offset": 0,
						"slot": "7",
						"type": "t_uint256"
					},
					{
						"astId": 744,
						"contract": "backend/src/governance.sol:Voting",
						"label": "MINIMUMAPPROVAL",
						"offset": 0,
						"slot": "8",
						"type": "t_uint256"
					},
					{
						"astId": 750,
						"contract": "backend/src/governance.sol:Voting",
						"label": "govVote",
						"offset": 0,
						"slot": "9",
						"type": "t_mapping(t_address,t_mapping(t_address,t_bool))"
					},
					{
						"astId": 756,
						"contract": "backend/src/governance.sol:Voting",
						"label": "govVoteCount",
						"offset": 0,
						"slot": "10",
						"type": "t_mapping(t_address,t_mapping(t_address,t_uint256))"
					},
					{
						"astId": 760,
						"contract": "backend/src/governance.sol:Voting",
						"label": "RequestGranted",
						"offset": 0,
						"slot": "11",
						"type": "t_mapping(t_address,t_bool)"
					}
				],
				"types": {
					"t_address": {
						"encoding": "inplace",
						"label": "address",
						"numberOfBytes": "20"
					},
					"t_bool": {
						"encoding": "inplace",
						"label": "bool",
						"numberOfBytes": "1"
					},
					"t_mapping(t_address,t_bool)": {
						"encoding": "mapping",
						"key": "t_address",
						"label": "mapping(address => bool)",
						"numberOfBytes": "32",
						"value": "t_bool"
					},
					"t_mapping(t_address,t_mapping(t_address,t_bool))": {
						"encoding": "mapping",
						"key": "t_address",
						"label": "mapping(address => mapping(address => bool))",
						"numberOfBytes": "32",
						"value": "t_mapping(t_address,t_bool)"
					},
					"t_mapping(t_address,t_mapping(t_address,t_uint256))": {
						"encoding": "mapping",
						"key": "t_address",
						"label": "mapping(address => mapping(address => uint256))",
						"numberOfBytes": "32",
						"value": "t_mapping(t_address,t_uint256)"
					},
					"t_mapping(t_address,t_uint256)": {
						"encoding": "mapping",
						"key": "t_address",
						"label": "mapping(address => uint256)",
						"numberOfBytes": "32",
						"value": "t_uint256"
					},
					"t_string_storage": {
						"encoding": "bytes",
						"label": "string",
						"numberOfBytes": "32"
					},
					"t_uint256": {
						"encoding": "inplace",
						"label": "uint256",
						"numberOfBytes": "32"
					}
				}
			},
			"userdoc": {
				"kind": "user",
				"methods": {},
				"version": 1
			}
		}
	}
}