{
	"backend/src/voting.sol": {
		"Voting": {
			"abi": [
				{
					"inputs": [
						{
							"internalType": "contract FunderGovToken",
							"name": "_token",
							"type": "address"
						},
						{
							"internalType": "uint256",
							"name": "_aYesVote",
							"type": "uint256"
						},
						{
							"internalType": "contract Funder",
							"name": "_funder",
							"type": "address"
						}
					],
					"stateMutability": "nonpayable",
					"type": "constructor"
				},
				{
					"anonymous": false,
					"inputs": [
						{
							"indexed": true,
							"internalType": "address",
							"name": "gov",
							"type": "address"
						},
						{
							"indexed": true,
							"internalType": "address",
							"name": "ben",
							"type": "address"
						}
					],
					"name": "Voted",
					"type": "event"
				},
				{
					"anonymous": false,
					"inputs": [
						{
							"indexed": true,
							"internalType": "address",
							"name": "owner",
							"type": "address"
						},
						{
							"indexed": true,
							"internalType": "bool",
							"name": "_status",
							"type": "bool"
						}
					],
					"name": "unlock",
					"type": "event"
				},
				{
					"inputs": [
						{
							"internalType": "address",
							"name": "",
							"type": "address"
						},
						{
							"internalType": "address",
							"name": "",
							"type": "address"
						}
					],
					"name": "govVote",
					"outputs": [
						{
							"internalType": "bool",
							"name": "",
							"type": "bool"
						}
					],
					"stateMutability": "view",
					"type": "function"
				},
				{
					"inputs": [
						{
							"internalType": "address",
							"name": "",
							"type": "address"
						},
						{
							"internalType": "address",
							"name": "",
							"type": "address"
						}
					],
					"name": "govVoteCount",
					"outputs": [
						{
							"internalType": "uint256",
							"name": "",
							"type": "uint256"
						}
					],
					"stateMutability": "view",
					"type": "function"
				},
				{
					"inputs": [
						{
							"internalType": "address",
							"name": "castVote",
							"type": "address"
						}
					],
					"name": "unLocked",
					"outputs": [],
					"stateMutability": "nonpayable",
					"type": "function"
				},
				{
					"inputs": [
						{
							"internalType": "address",
							"name": "castVote",
							"type": "address"
						},
						{
							"internalType": "uint256",
							"name": "amount",
							"type": "uint256"
						}
					],
					"name": "voteProposal",
					"outputs": [],
					"stateMutability": "nonpayable",
					"type": "function"
				}
			],
			"devdoc": {
				"kind": "dev",
				"methods": {},
				"version": 1
			},
			"evm": {
				"assembly": "    /* \"backend/src/voting.sol\":213:1938  contract Voting {... */\n  mstore(0x40, 0x80)\n    /* \"backend/src/voting.sol\":395:401  200e18 */\n  0x0ad78ebc5ac6200000\n    /* \"backend/src/voting.sol\":372:401  uint MINIMUMAPPROVAL = 200e18 */\n  0x03\n  sstore\n    /* \"backend/src/voting.sol\":850:1008  constructor(FunderGovToken _token, uint _aYesVote, Funder _funder){... */\n  callvalue\n  dup1\n  iszero\n  tag_1\n  jumpi\n  0x00\n  dup1\n  revert\ntag_1:\n  pop\n  mload(0x40)\n  sub(codesize, bytecodeSize)\n  dup1\n  bytecodeSize\n  dup4\n  codecopy\n  dup2\n  dup2\n  add\n  0x40\n  mstore\n  dup2\n  add\n  swap1\n  tag_2\n  swap2\n  swap1\n  tag_3\n  jump\t// in\ntag_2:\n    /* \"backend/src/voting.sol\":937:943  _token */\n  dup3\n    /* \"backend/src/voting.sol\":926:934  govToken */\n  0x00\n  dup1\n    /* \"backend/src/voting.sol\":926:943  govToken = _token */\n  0x0100\n  exp\n  dup2\n  sload\n  dup2\n  0xffffffffffffffffffffffffffffffffffffffff\n  mul\n  not\n  and\n  swap1\n  dup4\n  0xffffffffffffffffffffffffffffffffffffffff\n  and\n  mul\n  or\n  swap1\n  sstore\n  pop\n    /* \"backend/src/voting.sol\":964:973  _aYesVote */\n  dup2\n    /* \"backend/src/voting.sol\":953:961  aYesVote */\n  0x02\n    /* \"backend/src/voting.sol\":953:973  aYesVote = _aYesVote */\n  dup2\n  swap1\n  sstore\n  pop\n    /* \"backend/src/voting.sol\":992:999  _funder */\n  dup1\n    /* \"backend/src/voting.sol\":983:989  funder */\n  0x01\n  0x00\n    /* \"backend/src/voting.sol\":983:999  funder = _funder */\n  0x0100\n  exp\n  dup2\n  sload\n  dup2\n  0xffffffffffffffffffffffffffffffffffffffff\n  mul\n  not\n  and\n  swap1\n  dup4\n  0xffffffffffffffffffffffffffffffffffffffff\n  and\n  mul\n  or\n  swap1\n  sstore\n  pop\n    /* \"backend/src/voting.sol\":850:1008  constructor(FunderGovToken _token, uint _aYesVote, Funder _funder){... */\n  pop\n  pop\n  pop\n    /* \"backend/src/voting.sol\":213:1938  contract Voting {... */\n  jump(tag_6)\n    /* \"#utility.yul\":88:205   */\ntag_8:\n    /* \"#utility.yul\":197:198   */\n  0x00\n    /* \"#utility.yul\":194:195   */\n  dup1\n    /* \"#utility.yul\":187:199   */\n  revert\n    /* \"#utility.yul\":334:460   */\ntag_10:\n    /* \"#utility.yul\":371:378   */\n  0x00\n    /* \"#utility.yul\":411:453   */\n  0xffffffffffffffffffffffffffffffffffffffff\n    /* \"#utility.yul\":404:409   */\n  dup3\n    /* \"#utility.yul\":400:454   */\n  and\n    /* \"#utility.yul\":389:454   */\n  swap1\n  pop\n    /* \"#utility.yul\":334:460   */\n  swap2\n  swap1\n  pop\n  jump\t// out\n    /* \"#utility.yul\":466:562   */\ntag_11:\n    /* \"#utility.yul\":503:510   */\n  0x00\n    /* \"#utility.yul\":532:556   */\n  tag_27\n    /* \"#utility.yul\":550:555   */\n  dup3\n    /* \"#utility.yul\":532:556   */\n  tag_10\n  jump\t// in\ntag_27:\n    /* \"#utility.yul\":521:556   */\n  swap1\n  pop\n    /* \"#utility.yul\":466:562   */\n  swap2\n  swap1\n  pop\n  jump\t// out\n    /* \"#utility.yul\":568:687   */\ntag_12:\n    /* \"#utility.yul\":628:635   */\n  0x00\n    /* \"#utility.yul\":657:681   */\n  tag_29\n    /* \"#utility.yul\":675:680   */\n  dup3\n    /* \"#utility.yul\":657:681   */\n  tag_11\n  jump\t// in\ntag_29:\n    /* \"#utility.yul\":646:681   */\n  swap1\n  pop\n    /* \"#utility.yul\":568:687   */\n  swap2\n  swap1\n  pop\n  jump\t// out\n    /* \"#utility.yul\":693:861   */\ntag_13:\n    /* \"#utility.yul\":789:836   */\n  tag_31\n    /* \"#utility.yul\":830:835   */\n  dup2\n    /* \"#utility.yul\":789:836   */\n  tag_12\n  jump\t// in\ntag_31:\n    /* \"#utility.yul\":782:787   */\n  dup2\n    /* \"#utility.yul\":779:837   */\n  eq\n    /* \"#utility.yul\":769:855   */\n  tag_32\n  jumpi\n    /* \"#utility.yul\":851:852   */\n  0x00\n    /* \"#utility.yul\":848:849   */\n  dup1\n    /* \"#utility.yul\":841:853   */\n  revert\n    /* \"#utility.yul\":769:855   */\ntag_32:\n    /* \"#utility.yul\":693:861   */\n  pop\n  jump\t// out\n    /* \"#utility.yul\":867:1056   */\ntag_14:\n    /* \"#utility.yul\":947:952   */\n  0x00\n    /* \"#utility.yul\":978:984   */\n  dup2\n    /* \"#utility.yul\":972:985   */\n  mload\n    /* \"#utility.yul\":963:985   */\n  swap1\n  pop\n    /* \"#utility.yul\":994:1050   */\n  tag_34\n    /* \"#utility.yul\":1044:1049   */\n  dup2\n    /* \"#utility.yul\":994:1050   */\n  tag_13\n  jump\t// in\ntag_34:\n    /* \"#utility.yul\":867:1056   */\n  swap3\n  swap2\n  pop\n  pop\n  jump\t// out\n    /* \"#utility.yul\":1062:1139   */\ntag_15:\n    /* \"#utility.yul\":1099:1106   */\n  0x00\n    /* \"#utility.yul\":1128:1133   */\n  dup2\n    /* \"#utility.yul\":1117:1133   */\n  swap1\n  pop\n    /* \"#utility.yul\":1062:1139   */\n  swap2\n  swap1\n  pop\n  jump\t// out\n    /* \"#utility.yul\":1145:1267   */\ntag_16:\n    /* \"#utility.yul\":1218:1242   */\n  tag_37\n    /* \"#utility.yul\":1236:1241   */\n  dup2\n    /* \"#utility.yul\":1218:1242   */\n  tag_15\n  jump\t// in\ntag_37:\n    /* \"#utility.yul\":1211:1216   */\n  dup2\n    /* \"#utility.yul\":1208:1243   */\n  eq\n    /* \"#utility.yul\":1198:1261   */\n  tag_38\n  jumpi\n    /* \"#utility.yul\":1257:1258   */\n  0x00\n    /* \"#utility.yul\":1254:1255   */\n  dup1\n    /* \"#utility.yul\":1247:1259   */\n  revert\n    /* \"#utility.yul\":1198:1261   */\ntag_38:\n    /* \"#utility.yul\":1145:1267   */\n  pop\n  jump\t// out\n    /* \"#utility.yul\":1273:1416   */\ntag_17:\n    /* \"#utility.yul\":1330:1335   */\n  0x00\n    /* \"#utility.yul\":1361:1367   */\n  dup2\n    /* \"#utility.yul\":1355:1368   */\n  mload\n    /* \"#utility.yul\":1346:1368   */\n  swap1\n  pop\n    /* \"#utility.yul\":1377:1410   */\n  tag_40\n    /* \"#utility.yul\":1404:1409   */\n  dup2\n    /* \"#utility.yul\":1377:1410   */\n  tag_16\n  jump\t// in\ntag_40:\n    /* \"#utility.yul\":1273:1416   */\n  swap3\n  swap2\n  pop\n  pop\n  jump\t// out\n    /* \"#utility.yul\":1422:1532   */\ntag_18:\n    /* \"#utility.yul\":1473:1480   */\n  0x00\n    /* \"#utility.yul\":1502:1526   */\n  tag_42\n    /* \"#utility.yul\":1520:1525   */\n  dup3\n    /* \"#utility.yul\":1502:1526   */\n  tag_11\n  jump\t// in\ntag_42:\n    /* \"#utility.yul\":1491:1526   */\n  swap1\n  pop\n    /* \"#utility.yul\":1422:1532   */\n  swap2\n  swap1\n  pop\n  jump\t// out\n    /* \"#utility.yul\":1538:1688   */\ntag_19:\n    /* \"#utility.yul\":1625:1663   */\n  tag_44\n    /* \"#utility.yul\":1657:1662   */\n  dup2\n    /* \"#utility.yul\":1625:1663   */\n  tag_18\n  jump\t// in\ntag_44:\n    /* \"#utility.yul\":1618:1623   */\n  dup2\n    /* \"#utility.yul\":1615:1664   */\n  eq\n    /* \"#utility.yul\":1605:1682   */\n  tag_45\n  jumpi\n    /* \"#utility.yul\":1678:1679   */\n  0x00\n    /* \"#utility.yul\":1675:1676   */\n  dup1\n    /* \"#utility.yul\":1668:1680   */\n  revert\n    /* \"#utility.yul\":1605:1682   */\ntag_45:\n    /* \"#utility.yul\":1538:1688   */\n  pop\n  jump\t// out\n    /* \"#utility.yul\":1694:1865   */\ntag_20:\n    /* \"#utility.yul\":1765:1770   */\n  0x00\n    /* \"#utility.yul\":1796:1802   */\n  dup2\n    /* \"#utility.yul\":1790:1803   */\n  mload\n    /* \"#utility.yul\":1781:1803   */\n  swap1\n  pop\n    /* \"#utility.yul\":1812:1859   */\n  tag_47\n    /* \"#utility.yul\":1853:1858   */\n  dup2\n    /* \"#utility.yul\":1812:1859   */\n  tag_19\n  jump\t// in\ntag_47:\n    /* \"#utility.yul\":1694:1865   */\n  swap3\n  swap2\n  pop\n  pop\n  jump\t// out\n    /* \"#utility.yul\":1871:2608   */\ntag_3:\n    /* \"#utility.yul\":1996:2002   */\n  0x00\n    /* \"#utility.yul\":2004:2010   */\n  dup1\n    /* \"#utility.yul\":2012:2018   */\n  0x00\n    /* \"#utility.yul\":2061:2063   */\n  0x60\n    /* \"#utility.yul\":2049:2058   */\n  dup5\n    /* \"#utility.yul\":2040:2047   */\n  dup7\n    /* \"#utility.yul\":2036:2059   */\n  sub\n    /* \"#utility.yul\":2032:2064   */\n  slt\n    /* \"#utility.yul\":2029:2148   */\n  iszero\n  tag_49\n  jumpi\n    /* \"#utility.yul\":2067:2146   */\n  tag_50\n  tag_8\n  jump\t// in\ntag_50:\n    /* \"#utility.yul\":2029:2148   */\ntag_49:\n    /* \"#utility.yul\":2187:2188   */\n  0x00\n    /* \"#utility.yul\":2212:2299   */\n  tag_51\n    /* \"#utility.yul\":2291:2298   */\n  dup7\n    /* \"#utility.yul\":2282:2288   */\n  dup3\n    /* \"#utility.yul\":2271:2280   */\n  dup8\n    /* \"#utility.yul\":2267:2289   */\n  add\n    /* \"#utility.yul\":2212:2299   */\n  tag_14\n  jump\t// in\ntag_51:\n    /* \"#utility.yul\":2202:2299   */\n  swap4\n  pop\n    /* \"#utility.yul\":2158:2309   */\n  pop\n    /* \"#utility.yul\":2348:2350   */\n  0x20\n    /* \"#utility.yul\":2374:2438   */\n  tag_52\n    /* \"#utility.yul\":2430:2437   */\n  dup7\n    /* \"#utility.yul\":2421:2427   */\n  dup3\n    /* \"#utility.yul\":2410:2419   */\n  dup8\n    /* \"#utility.yul\":2406:2428   */\n  add\n    /* \"#utility.yul\":2374:2438   */\n  tag_17\n  jump\t// in\ntag_52:\n    /* \"#utility.yul\":2364:2438   */\n  swap3\n  pop\n    /* \"#utility.yul\":2319:2448   */\n  pop\n    /* \"#utility.yul\":2487:2489   */\n  0x40\n    /* \"#utility.yul\":2513:2591   */\n  tag_53\n    /* \"#utility.yul\":2583:2590   */\n  dup7\n    /* \"#utility.yul\":2574:2580   */\n  dup3\n    /* \"#utility.yul\":2563:2572   */\n  dup8\n    /* \"#utility.yul\":2559:2581   */\n  add\n    /* \"#utility.yul\":2513:2591   */\n  tag_20\n  jump\t// in\ntag_53:\n    /* \"#utility.yul\":2503:2591   */\n  swap2\n  pop\n    /* \"#utility.yul\":2458:2601   */\n  pop\n    /* \"#utility.yul\":1871:2608   */\n  swap3\n  pop\n  swap3\n  pop\n  swap3\n  jump\t// out\n    /* \"backend/src/voting.sol\":213:1938  contract Voting {... */\ntag_6:\n  dataSize(sub_0)\n  dup1\n  dataOffset(sub_0)\n  0x00\n  codecopy\n  0x00\n  return\nstop\n\nsub_0: assembly {\n        /* \"backend/src/voting.sol\":213:1938  contract Voting {... */\n      mstore(0x40, 0x80)\n      callvalue\n      dup1\n      iszero\n      tag_1\n      jumpi\n      0x00\n      dup1\n      revert\n    tag_1:\n      pop\n      jumpi(tag_2, lt(calldatasize, 0x04))\n      shr(0xe0, calldataload(0x00))\n      dup1\n      0x66e5f2c5\n      eq\n      tag_3\n      jumpi\n      dup1\n      0x89d38951\n      eq\n      tag_4\n      jumpi\n      dup1\n      0xabab7fa0\n      eq\n      tag_5\n      jumpi\n      dup1\n      0xcb7be0fd\n      eq\n      tag_6\n      jumpi\n    tag_2:\n      0x00\n      dup1\n      revert\n        /* \"backend/src/voting.sol\":1089:1688  function voteProposal(address castVote, uint amount) external {... */\n    tag_3:\n      tag_7\n      0x04\n      dup1\n      calldatasize\n      sub\n      dup2\n      add\n      swap1\n      tag_8\n      swap2\n      swap1\n      tag_9\n      jump\t// in\n    tag_8:\n      tag_10\n      jump\t// in\n    tag_7:\n      stop\n        /* \"backend/src/voting.sol\":464:523  mapping (address => mapping(address => bool))public govVote */\n    tag_4:\n      tag_11\n      0x04\n      dup1\n      calldatasize\n      sub\n      dup2\n      add\n      swap1\n      tag_12\n      swap2\n      swap1\n      tag_13\n      jump\t// in\n    tag_12:\n      tag_14\n      jump\t// in\n    tag_11:\n      mload(0x40)\n      tag_15\n      swap2\n      swap1\n      tag_16\n      jump\t// in\n    tag_15:\n      mload(0x40)\n      dup1\n      swap2\n      sub\n      swap1\n      return\n        /* \"backend/src/voting.sol\":529:593  mapping (address => mapping(address => uint))public govVoteCount */\n    tag_5:\n      tag_17\n      0x04\n      dup1\n      calldatasize\n      sub\n      dup2\n      add\n      swap1\n      tag_18\n      swap2\n      swap1\n      tag_13\n      jump\t// in\n    tag_18:\n      tag_19\n      jump\t// in\n    tag_17:\n      mload(0x40)\n      tag_20\n      swap2\n      swap1\n      tag_21\n      jump\t// in\n    tag_20:\n      mload(0x40)\n      dup1\n      swap2\n      sub\n      swap1\n      return\n        /* \"backend/src/voting.sol\":1696:1934  function unLocked( address castVote) public{... */\n    tag_6:\n      tag_22\n      0x04\n      dup1\n      calldatasize\n      sub\n      dup2\n      add\n      swap1\n      tag_23\n      swap2\n      swap1\n      tag_24\n      jump\t// in\n    tag_23:\n      tag_25\n      jump\t// in\n    tag_22:\n      stop\n        /* \"backend/src/voting.sol\":1089:1688  function voteProposal(address castVote, uint amount) external {... */\n    tag_10:\n        /* \"backend/src/voting.sol\":1204:1210  amount */\n      dup1\n        /* \"backend/src/voting.sol\":1170:1178  govToken */\n      0x00\n      dup1\n      sload\n      swap1\n      0x0100\n      exp\n      swap1\n      div\n      0xffffffffffffffffffffffffffffffffffffffff\n      and\n        /* \"backend/src/voting.sol\":1170:1188  govToken.balanceOf */\n      0xffffffffffffffffffffffffffffffffffffffff\n      and\n      0x70a08231\n        /* \"backend/src/voting.sol\":1189:1199  msg.sender */\n      caller\n        /* \"backend/src/voting.sol\":1170:1200  govToken.balanceOf(msg.sender) */\n      mload(0x40)\n      dup3\n      0xffffffff\n      and\n      0xe0\n      shl\n      dup2\n      mstore\n      0x04\n      add\n      tag_27\n      swap2\n      swap1\n      tag_28\n      jump\t// in\n    tag_27:\n      0x20\n      mload(0x40)\n      dup1\n      dup4\n      sub\n      dup2\n      dup7\n      gas\n      staticcall\n      iszero\n      dup1\n      iszero\n      tag_30\n      jumpi\n      returndatasize\n      0x00\n      dup1\n      returndatacopy\n      revert(0x00, returndatasize)\n    tag_30:\n      pop\n      pop\n      pop\n      pop\n      mload(0x40)\n      returndatasize\n      not(0x1f)\n      0x1f\n      dup3\n      add\n      and\n      dup3\n      add\n      dup1\n      0x40\n      mstore\n      pop\n      dup2\n      add\n      swap1\n      tag_31\n      swap2\n      swap1\n      tag_32\n      jump\t// in\n    tag_31:\n        /* \"backend/src/voting.sol\":1170:1210  govToken.balanceOf(msg.sender) >= amount */\n      lt\n      iszero\n        /* \"backend/src/voting.sol\":1162:1235  require(govToken.balanceOf(msg.sender) >= amount, \"insufficient balance\") */\n      tag_33\n      jumpi\n      mload(0x40)\n      0x08c379a000000000000000000000000000000000000000000000000000000000\n      dup2\n      mstore\n      0x04\n      add\n      tag_34\n      swap1\n      tag_35\n      jump\t// in\n    tag_34:\n      mload(0x40)\n      dup1\n      swap2\n      sub\n      swap1\n      revert\n    tag_33:\n        /* \"backend/src/voting.sol\":1275:1276  0 */\n      0x00\n        /* \"backend/src/voting.sol\":1265:1271  amount */\n      dup2\n        /* \"backend/src/voting.sol\":1254:1262  aYesVote */\n      sload(0x02)\n        /* \"backend/src/voting.sol\":1254:1271  aYesVote % amount */\n      tag_36\n      swap2\n      swap1\n      tag_37\n      jump\t// in\n    tag_36:\n        /* \"backend/src/voting.sol\":1254:1276  aYesVote % amount == 0 */\n      eq\n        /* \"backend/src/voting.sol\":1246:1299  require(aYesVote % amount == 0, \"10 tokens is 1 yes\") */\n      tag_38\n      jumpi\n      mload(0x40)\n      0x08c379a000000000000000000000000000000000000000000000000000000000\n      dup2\n      mstore\n      0x04\n      add\n      tag_39\n      swap1\n      tag_40\n      jump\t// in\n    tag_39:\n      mload(0x40)\n      dup1\n      swap2\n      sub\n      swap1\n      revert\n    tag_38:\n        /* \"backend/src/voting.sol\":1319:1326  govVote */\n      0x04\n        /* \"backend/src/voting.sol\":1319:1338  govVote[msg.sender] */\n      0x00\n        /* \"backend/src/voting.sol\":1327:1337  msg.sender */\n      caller\n        /* \"backend/src/voting.sol\":1319:1338  govVote[msg.sender] */\n      0xffffffffffffffffffffffffffffffffffffffff\n      and\n      0xffffffffffffffffffffffffffffffffffffffff\n      and\n      dup2\n      mstore\n      0x20\n      add\n      swap1\n      dup2\n      mstore\n      0x20\n      add\n      0x00\n      keccak256\n        /* \"backend/src/voting.sol\":1319:1348  govVote[msg.sender][castVote] */\n      0x00\n        /* \"backend/src/voting.sol\":1339:1347  castVote */\n      dup4\n        /* \"backend/src/voting.sol\":1319:1348  govVote[msg.sender][castVote] */\n      0xffffffffffffffffffffffffffffffffffffffff\n      and\n      0xffffffffffffffffffffffffffffffffffffffff\n      and\n      dup2\n      mstore\n      0x20\n      add\n      swap1\n      dup2\n      mstore\n      0x20\n      add\n      0x00\n      keccak256\n      0x00\n      swap1\n      sload\n      swap1\n      0x0100\n      exp\n      swap1\n      div\n      0xff\n      and\n        /* \"backend/src/voting.sol\":1317:1349  !(govVote[msg.sender][castVote]) */\n      iszero\n        /* \"backend/src/voting.sol\":1310:1350  assert(!(govVote[msg.sender][castVote])) */\n      tag_41\n      jumpi\n      tag_42\n      tag_43\n      jump\t// in\n    tag_42:\n    tag_41:\n        /* \"backend/src/voting.sol\":1361:1374  uint noOfVote */\n      0x00\n        /* \"backend/src/voting.sol\":1386:1394  aYesVote */\n      sload(0x02)\n        /* \"backend/src/voting.sol\":1377:1383  amount */\n      dup3\n        /* \"backend/src/voting.sol\":1377:1394  amount / aYesVote */\n      tag_44\n      swap2\n      swap1\n      tag_45\n      jump\t// in\n    tag_44:\n        /* \"backend/src/voting.sol\":1361:1394  uint noOfVote = amount / aYesVote */\n      swap1\n      pop\n        /* \"backend/src/voting.sol\":1405:1413  govToken */\n      0x00\n      dup1\n      sload\n      swap1\n      0x0100\n      exp\n      swap1\n      div\n      0xffffffffffffffffffffffffffffffffffffffff\n      and\n        /* \"backend/src/voting.sol\":1405:1423  govToken.lockToken */\n      0xffffffffffffffffffffffffffffffffffffffff\n      and\n      0xcec1460b\n        /* \"backend/src/voting.sol\":1424:1430  amount */\n      dup4\n        /* \"backend/src/voting.sol\":1432:1440  castVote */\n      dup6\n        /* \"backend/src/voting.sol\":1405:1441  govToken.lockToken(amount, castVote) */\n      mload(0x40)\n      dup4\n      0xffffffff\n      and\n      0xe0\n      shl\n      dup2\n      mstore\n      0x04\n      add\n      tag_46\n      swap3\n      swap2\n      swap1\n      tag_47\n      jump\t// in\n    tag_46:\n      0x00\n      mload(0x40)\n      dup1\n      dup4\n      sub\n      dup2\n      0x00\n      dup8\n      dup1\n      extcodesize\n      iszero\n      dup1\n      iszero\n      tag_48\n      jumpi\n      0x00\n      dup1\n      revert\n    tag_48:\n      pop\n      gas\n      call\n      iszero\n      dup1\n      iszero\n      tag_50\n      jumpi\n      returndatasize\n      0x00\n      dup1\n      returndatacopy\n      revert(0x00, returndatasize)\n    tag_50:\n      pop\n      pop\n      pop\n      pop\n        /* \"backend/src/voting.sol\":1490:1498  noOfVote */\n      dup1\n        /* \"backend/src/voting.sol\":1452:1464  govVoteCount */\n      0x05\n        /* \"backend/src/voting.sol\":1452:1476  govVoteCount[msg.sender] */\n      0x00\n        /* \"backend/src/voting.sol\":1465:1475  msg.sender */\n      caller\n        /* \"backend/src/voting.sol\":1452:1476  govVoteCount[msg.sender] */\n      0xffffffffffffffffffffffffffffffffffffffff\n      and\n      0xffffffffffffffffffffffffffffffffffffffff\n      and\n      dup2\n      mstore\n      0x20\n      add\n      swap1\n      dup2\n      mstore\n      0x20\n      add\n      0x00\n      keccak256\n        /* \"backend/src/voting.sol\":1452:1486  govVoteCount[msg.sender][castVote] */\n      0x00\n        /* \"backend/src/voting.sol\":1477:1485  castVote */\n      dup6\n        /* \"backend/src/voting.sol\":1452:1486  govVoteCount[msg.sender][castVote] */\n      0xffffffffffffffffffffffffffffffffffffffff\n      and\n      0xffffffffffffffffffffffffffffffffffffffff\n      and\n      dup2\n      mstore\n      0x20\n      add\n      swap1\n      dup2\n      mstore\n      0x20\n      add\n      0x00\n      keccak256\n      0x00\n        /* \"backend/src/voting.sol\":1452:1498  govVoteCount[msg.sender][castVote] += noOfVote */\n      dup3\n      dup3\n      sload\n      tag_51\n      swap2\n      swap1\n      tag_52\n      jump\t// in\n    tag_51:\n      swap3\n      pop\n      pop\n      dup2\n      swap1\n      sstore\n      pop\n        /* \"backend/src/voting.sol\":1550:1565  MINIMUMAPPROVAL */\n      sload(0x03)\n        /* \"backend/src/voting.sol\":1512:1524  govVoteCount */\n      0x05\n        /* \"backend/src/voting.sol\":1512:1536  govVoteCount[msg.sender] */\n      0x00\n        /* \"backend/src/voting.sol\":1525:1535  msg.sender */\n      caller\n        /* \"backend/src/voting.sol\":1512:1536  govVoteCount[msg.sender] */\n      0xffffffffffffffffffffffffffffffffffffffff\n      and\n      0xffffffffffffffffffffffffffffffffffffffff\n      and\n      dup2\n      mstore\n      0x20\n      add\n      swap1\n      dup2\n      mstore\n      0x20\n      add\n      0x00\n      keccak256\n        /* \"backend/src/voting.sol\":1512:1546  govVoteCount[msg.sender][castVote] */\n      0x00\n        /* \"backend/src/voting.sol\":1537:1545  castVote */\n      dup6\n        /* \"backend/src/voting.sol\":1512:1546  govVoteCount[msg.sender][castVote] */\n      0xffffffffffffffffffffffffffffffffffffffff\n      and\n      0xffffffffffffffffffffffffffffffffffffffff\n      and\n      dup2\n      mstore\n      0x20\n      add\n      swap1\n      dup2\n      mstore\n      0x20\n      add\n      0x00\n      keccak256\n      sload\n        /* \"backend/src/voting.sol\":1512:1565  govVoteCount[msg.sender][castVote] >= MINIMUMAPPROVAL */\n      lt\n        /* \"backend/src/voting.sol\":1509:1638  if(govVoteCount[msg.sender][castVote] >= MINIMUMAPPROVAL){... */\n      tag_53\n      jumpi\n        /* \"backend/src/voting.sol\":1580:1586  funder */\n      0x01\n      0x00\n      swap1\n      sload\n      swap1\n      0x0100\n      exp\n      swap1\n      div\n      0xffffffffffffffffffffffffffffffffffffffff\n      and\n        /* \"backend/src/voting.sol\":1580:1596  funder.setStatus */\n      0xffffffffffffffffffffffffffffffffffffffff\n      and\n      0x14204dbb\n        /* \"backend/src/voting.sol\":1597:1605  castVote */\n      dup5\n        /* \"backend/src/voting.sol\":1580:1606  funder.setStatus(castVote) */\n      mload(0x40)\n      dup3\n      0xffffffff\n      and\n      0xe0\n      shl\n      dup2\n      mstore\n      0x04\n      add\n      tag_54\n      swap2\n      swap1\n      tag_28\n      jump\t// in\n    tag_54:\n      0x20\n      mload(0x40)\n      dup1\n      dup4\n      sub\n      dup2\n      0x00\n      dup8\n      gas\n      call\n      iszero\n      dup1\n      iszero\n      tag_56\n      jumpi\n      returndatasize\n      0x00\n      dup1\n      returndatacopy\n      revert(0x00, returndatasize)\n    tag_56:\n      pop\n      pop\n      pop\n      pop\n      mload(0x40)\n      returndatasize\n      not(0x1f)\n      0x1f\n      dup3\n      add\n      and\n      dup3\n      add\n      dup1\n      0x40\n      mstore\n      pop\n      dup2\n      add\n      swap1\n      tag_57\n      swap2\n      swap1\n      tag_58\n      jump\t// in\n    tag_57:\n      pop\n        /* \"backend/src/voting.sol\":1509:1638  if(govVoteCount[msg.sender][castVote] >= MINIMUMAPPROVAL){... */\n    tag_53:\n        /* \"backend/src/voting.sol\":1671:1679  castVote */\n      dup3\n        /* \"backend/src/voting.sol\":1653:1680  Voted(msg.sender, castVote) */\n      0xffffffffffffffffffffffffffffffffffffffff\n      and\n        /* \"backend/src/voting.sol\":1659:1669  msg.sender */\n      caller\n        /* \"backend/src/voting.sol\":1653:1680  Voted(msg.sender, castVote) */\n      0xffffffffffffffffffffffffffffffffffffffff\n      and\n      0xce0c7a2a940807f7dc2ce7a615c2532e915e6c0ac9a08bc4ed9d515a710a53e2\n      mload(0x40)\n      mload(0x40)\n      dup1\n      swap2\n      sub\n      swap1\n      log3\n        /* \"backend/src/voting.sol\":1151:1688  {... */\n      pop\n        /* \"backend/src/voting.sol\":1089:1688  function voteProposal(address castVote, uint amount) external {... */\n      pop\n      pop\n      jump\t// out\n        /* \"backend/src/voting.sol\":464:523  mapping (address => mapping(address => bool))public govVote */\n    tag_14:\n      mstore(0x20, 0x04)\n      dup2\n      0x00\n      mstore\n      mstore(0x20, keccak256(0x00, 0x40))\n      dup1\n      0x00\n      mstore\n      keccak256(0x00, 0x40)\n      0x00\n      swap2\n      pop\n      swap2\n      pop\n      swap1\n      sload\n      swap1\n      0x0100\n      exp\n      swap1\n      div\n      0xff\n      and\n      dup2\n      jump\t// out\n        /* \"backend/src/voting.sol\":529:593  mapping (address => mapping(address => uint))public govVoteCount */\n    tag_19:\n      mstore(0x20, 0x05)\n      dup2\n      0x00\n      mstore\n      mstore(0x20, keccak256(0x00, 0x40))\n      dup1\n      0x00\n      mstore\n      keccak256(0x00, 0x40)\n      0x00\n      swap2\n      pop\n      swap2\n      pop\n      pop\n      sload\n      dup2\n      jump\t// out\n        /* \"backend/src/voting.sol\":1696:1934  function unLocked( address castVote) public{... */\n    tag_25:\n        /* \"backend/src/voting.sol\":1751:1762  bool result */\n      0x00\n        /* \"backend/src/voting.sol\":1766:1772  funder */\n      0x01\n      0x00\n      swap1\n      sload\n      swap1\n      0x0100\n      exp\n      swap1\n      div\n      0xffffffffffffffffffffffffffffffffffffffff\n      and\n        /* \"backend/src/voting.sol\":1766:1793  funder.getBeneficiaryStatus */\n      0xffffffffffffffffffffffffffffffffffffffff\n      and\n      0xd5247dda\n        /* \"backend/src/voting.sol\":1794:1802  castVote */\n      dup4\n        /* \"backend/src/voting.sol\":1766:1803  funder.getBeneficiaryStatus(castVote) */\n      mload(0x40)\n      dup3\n      0xffffffff\n      and\n      0xe0\n      shl\n      dup2\n      mstore\n      0x04\n      add\n      tag_60\n      swap2\n      swap1\n      tag_28\n      jump\t// in\n    tag_60:\n      0x20\n      mload(0x40)\n      dup1\n      dup4\n      sub\n      dup2\n      dup7\n      gas\n      staticcall\n      iszero\n      dup1\n      iszero\n      tag_62\n      jumpi\n      returndatasize\n      0x00\n      dup1\n      returndatacopy\n      revert(0x00, returndatasize)\n    tag_62:\n      pop\n      pop\n      pop\n      pop\n      mload(0x40)\n      returndatasize\n      not(0x1f)\n      0x1f\n      dup3\n      add\n      and\n      dup3\n      add\n      dup1\n      0x40\n      mstore\n      pop\n      dup2\n      add\n      swap1\n      tag_63\n      swap2\n      swap1\n      tag_58\n      jump\t// in\n    tag_63:\n        /* \"backend/src/voting.sol\":1751:1803  bool result =  funder.getBeneficiaryStatus(castVote) */\n      swap1\n      pop\n        /* \"backend/src/voting.sol\":1832:1836  true */\n      0x01\n        /* \"backend/src/voting.sol\":1822:1836  result == true */\n      iszero\n      iszero\n        /* \"backend/src/voting.sol\":1822:1828  result */\n      dup2\n        /* \"backend/src/voting.sol\":1822:1836  result == true */\n      iszero\n      iszero\n      eq\n        /* \"backend/src/voting.sol\":1815:1837  assert(result == true) */\n      tag_64\n      jumpi\n      tag_65\n      tag_43\n      jump\t// in\n    tag_65:\n    tag_64:\n        /* \"backend/src/voting.sol\":1849:1857  govToken */\n      0x00\n      dup1\n      sload\n      swap1\n      0x0100\n      exp\n      swap1\n      div\n      0xffffffffffffffffffffffffffffffffffffffff\n      and\n        /* \"backend/src/voting.sol\":1849:1869  govToken.unLockToken */\n      0xffffffffffffffffffffffffffffffffffffffff\n      and\n      0xbade9d84\n        /* \"backend/src/voting.sol\":1870:1878  castVote */\n      dup4\n        /* \"backend/src/voting.sol\":1849:1879  govToken.unLockToken(castVote) */\n      mload(0x40)\n      dup3\n      0xffffffff\n      and\n      0xe0\n      shl\n      dup2\n      mstore\n      0x04\n      add\n      tag_66\n      swap2\n      swap1\n      tag_28\n      jump\t// in\n    tag_66:\n      0x00\n      mload(0x40)\n      dup1\n      dup4\n      sub\n      dup2\n      0x00\n      dup8\n      dup1\n      extcodesize\n      iszero\n      dup1\n      iszero\n      tag_67\n      jumpi\n      0x00\n      dup1\n      revert\n    tag_67:\n      pop\n      gas\n      call\n      iszero\n      dup1\n      iszero\n      tag_69\n      jumpi\n      returndatasize\n      0x00\n      dup1\n      returndatacopy\n      revert(0x00, returndatasize)\n    tag_69:\n      pop\n      pop\n      pop\n      pop\n        /* \"backend/src/voting.sol\":1915:1921  result */\n      dup1\n        /* \"backend/src/voting.sol\":1896:1922  unlock(msg.sender, result) */\n      iszero\n      iszero\n        /* \"backend/src/voting.sol\":1903:1913  msg.sender */\n      caller\n        /* \"backend/src/voting.sol\":1896:1922  unlock(msg.sender, result) */\n      0xffffffffffffffffffffffffffffffffffffffff\n      and\n      0x1dd8abd0be84d78ba492e7da57b14db47aa163df6475af336fd802f47964421a\n      mload(0x40)\n      mload(0x40)\n      dup1\n      swap2\n      sub\n      swap1\n      log3\n        /* \"backend/src/voting.sol\":1739:1934  {... */\n      pop\n        /* \"backend/src/voting.sol\":1696:1934  function unLocked( address castVote) public{... */\n      pop\n      jump\t// out\n        /* \"#utility.yul\":88:205   */\n    tag_71:\n        /* \"#utility.yul\":197:198   */\n      0x00\n        /* \"#utility.yul\":194:195   */\n      dup1\n        /* \"#utility.yul\":187:199   */\n      revert\n        /* \"#utility.yul\":334:460   */\n    tag_73:\n        /* \"#utility.yul\":371:378   */\n      0x00\n        /* \"#utility.yul\":411:453   */\n      0xffffffffffffffffffffffffffffffffffffffff\n        /* \"#utility.yul\":404:409   */\n      dup3\n        /* \"#utility.yul\":400:454   */\n      and\n        /* \"#utility.yul\":389:454   */\n      swap1\n      pop\n        /* \"#utility.yul\":334:460   */\n      swap2\n      swap1\n      pop\n      jump\t// out\n        /* \"#utility.yul\":466:562   */\n    tag_74:\n        /* \"#utility.yul\":503:510   */\n      0x00\n        /* \"#utility.yul\":532:556   */\n      tag_100\n        /* \"#utility.yul\":550:555   */\n      dup3\n        /* \"#utility.yul\":532:556   */\n      tag_73\n      jump\t// in\n    tag_100:\n        /* \"#utility.yul\":521:556   */\n      swap1\n      pop\n        /* \"#utility.yul\":466:562   */\n      swap2\n      swap1\n      pop\n      jump\t// out\n        /* \"#utility.yul\":568:690   */\n    tag_75:\n        /* \"#utility.yul\":641:665   */\n      tag_102\n        /* \"#utility.yul\":659:664   */\n      dup2\n        /* \"#utility.yul\":641:665   */\n      tag_74\n      jump\t// in\n    tag_102:\n        /* \"#utility.yul\":634:639   */\n      dup2\n        /* \"#utility.yul\":631:666   */\n      eq\n        /* \"#utility.yul\":621:684   */\n      tag_103\n      jumpi\n        /* \"#utility.yul\":680:681   */\n      0x00\n        /* \"#utility.yul\":677:678   */\n      dup1\n        /* \"#utility.yul\":670:682   */\n      revert\n        /* \"#utility.yul\":621:684   */\n    tag_103:\n        /* \"#utility.yul\":568:690   */\n      pop\n      jump\t// out\n        /* \"#utility.yul\":696:835   */\n    tag_76:\n        /* \"#utility.yul\":742:747   */\n      0x00\n        /* \"#utility.yul\":780:786   */\n      dup2\n        /* \"#utility.yul\":767:787   */\n      calldataload\n        /* \"#utility.yul\":758:787   */\n      swap1\n      pop\n        /* \"#utility.yul\":796:829   */\n      tag_105\n        /* \"#utility.yul\":823:828   */\n      dup2\n        /* \"#utility.yul\":796:829   */\n      tag_75\n      jump\t// in\n    tag_105:\n        /* \"#utility.yul\":696:835   */\n      swap3\n      swap2\n      pop\n      pop\n      jump\t// out\n        /* \"#utility.yul\":841:918   */\n    tag_77:\n        /* \"#utility.yul\":878:885   */\n      0x00\n        /* \"#utility.yul\":907:912   */\n      dup2\n        /* \"#utility.yul\":896:912   */\n      swap1\n      pop\n        /* \"#utility.yul\":841:918   */\n      swap2\n      swap1\n      pop\n      jump\t// out\n        /* \"#utility.yul\":924:1046   */\n    tag_78:\n        /* \"#utility.yul\":997:1021   */\n      tag_108\n        /* \"#utility.yul\":1015:1020   */\n      dup2\n        /* \"#utility.yul\":997:1021   */\n      tag_77\n      jump\t// in\n    tag_108:\n        /* \"#utility.yul\":990:995   */\n      dup2\n        /* \"#utility.yul\":987:1022   */\n      eq\n        /* \"#utility.yul\":977:1040   */\n      tag_109\n      jumpi\n        /* \"#utility.yul\":1036:1037   */\n      0x00\n        /* \"#utility.yul\":1033:1034   */\n      dup1\n        /* \"#utility.yul\":1026:1038   */\n      revert\n        /* \"#utility.yul\":977:1040   */\n    tag_109:\n        /* \"#utility.yul\":924:1046   */\n      pop\n      jump\t// out\n        /* \"#utility.yul\":1052:1191   */\n    tag_79:\n        /* \"#utility.yul\":1098:1103   */\n      0x00\n        /* \"#utility.yul\":1136:1142   */\n      dup2\n        /* \"#utility.yul\":1123:1143   */\n      calldataload\n        /* \"#utility.yul\":1114:1143   */\n      swap1\n      pop\n        /* \"#utility.yul\":1152:1185   */\n      tag_111\n        /* \"#utility.yul\":1179:1184   */\n      dup2\n        /* \"#utility.yul\":1152:1185   */\n      tag_78\n      jump\t// in\n    tag_111:\n        /* \"#utility.yul\":1052:1191   */\n      swap3\n      swap2\n      pop\n      pop\n      jump\t// out\n        /* \"#utility.yul\":1197:1671   */\n    tag_9:\n        /* \"#utility.yul\":1265:1271   */\n      0x00\n        /* \"#utility.yul\":1273:1279   */\n      dup1\n        /* \"#utility.yul\":1322:1324   */\n      0x40\n        /* \"#utility.yul\":1310:1319   */\n      dup4\n        /* \"#utility.yul\":1301:1308   */\n      dup6\n        /* \"#utility.yul\":1297:1320   */\n      sub\n        /* \"#utility.yul\":1293:1325   */\n      slt\n        /* \"#utility.yul\":1290:1409   */\n      iszero\n      tag_113\n      jumpi\n        /* \"#utility.yul\":1328:1407   */\n      tag_114\n      tag_71\n      jump\t// in\n    tag_114:\n        /* \"#utility.yul\":1290:1409   */\n    tag_113:\n        /* \"#utility.yul\":1448:1449   */\n      0x00\n        /* \"#utility.yul\":1473:1526   */\n      tag_115\n        /* \"#utility.yul\":1518:1525   */\n      dup6\n        /* \"#utility.yul\":1509:1515   */\n      dup3\n        /* \"#utility.yul\":1498:1507   */\n      dup7\n        /* \"#utility.yul\":1494:1516   */\n      add\n        /* \"#utility.yul\":1473:1526   */\n      tag_76\n      jump\t// in\n    tag_115:\n        /* \"#utility.yul\":1463:1526   */\n      swap3\n      pop\n        /* \"#utility.yul\":1419:1536   */\n      pop\n        /* \"#utility.yul\":1575:1577   */\n      0x20\n        /* \"#utility.yul\":1601:1654   */\n      tag_116\n        /* \"#utility.yul\":1646:1653   */\n      dup6\n        /* \"#utility.yul\":1637:1643   */\n      dup3\n        /* \"#utility.yul\":1626:1635   */\n      dup7\n        /* \"#utility.yul\":1622:1644   */\n      add\n        /* \"#utility.yul\":1601:1654   */\n      tag_79\n      jump\t// in\n    tag_116:\n        /* \"#utility.yul\":1591:1654   */\n      swap2\n      pop\n        /* \"#utility.yul\":1546:1664   */\n      pop\n        /* \"#utility.yul\":1197:1671   */\n      swap3\n      pop\n      swap3\n      swap1\n      pop\n      jump\t// out\n        /* \"#utility.yul\":1677:2151   */\n    tag_13:\n        /* \"#utility.yul\":1745:1751   */\n      0x00\n        /* \"#utility.yul\":1753:1759   */\n      dup1\n        /* \"#utility.yul\":1802:1804   */\n      0x40\n        /* \"#utility.yul\":1790:1799   */\n      dup4\n        /* \"#utility.yul\":1781:1788   */\n      dup6\n        /* \"#utility.yul\":1777:1800   */\n      sub\n        /* \"#utility.yul\":1773:1805   */\n      slt\n        /* \"#utility.yul\":1770:1889   */\n      iszero\n      tag_118\n      jumpi\n        /* \"#utility.yul\":1808:1887   */\n      tag_119\n      tag_71\n      jump\t// in\n    tag_119:\n        /* \"#utility.yul\":1770:1889   */\n    tag_118:\n        /* \"#utility.yul\":1928:1929   */\n      0x00\n        /* \"#utility.yul\":1953:2006   */\n      tag_120\n        /* \"#utility.yul\":1998:2005   */\n      dup6\n        /* \"#utility.yul\":1989:1995   */\n      dup3\n        /* \"#utility.yul\":1978:1987   */\n      dup7\n        /* \"#utility.yul\":1974:1996   */\n      add\n        /* \"#utility.yul\":1953:2006   */\n      tag_76\n      jump\t// in\n    tag_120:\n        /* \"#utility.yul\":1943:2006   */\n      swap3\n      pop\n        /* \"#utility.yul\":1899:2016   */\n      pop\n        /* \"#utility.yul\":2055:2057   */\n      0x20\n        /* \"#utility.yul\":2081:2134   */\n      tag_121\n        /* \"#utility.yul\":2126:2133   */\n      dup6\n        /* \"#utility.yul\":2117:2123   */\n      dup3\n        /* \"#utility.yul\":2106:2115   */\n      dup7\n        /* \"#utility.yul\":2102:2124   */\n      add\n        /* \"#utility.yul\":2081:2134   */\n      tag_76\n      jump\t// in\n    tag_121:\n        /* \"#utility.yul\":2071:2134   */\n      swap2\n      pop\n        /* \"#utility.yul\":2026:2144   */\n      pop\n        /* \"#utility.yul\":1677:2151   */\n      swap3\n      pop\n      swap3\n      swap1\n      pop\n      jump\t// out\n        /* \"#utility.yul\":2157:2247   */\n    tag_80:\n        /* \"#utility.yul\":2191:2198   */\n      0x00\n        /* \"#utility.yul\":2234:2239   */\n      dup2\n        /* \"#utility.yul\":2227:2240   */\n      iszero\n        /* \"#utility.yul\":2220:2241   */\n      iszero\n        /* \"#utility.yul\":2209:2241   */\n      swap1\n      pop\n        /* \"#utility.yul\":2157:2247   */\n      swap2\n      swap1\n      pop\n      jump\t// out\n        /* \"#utility.yul\":2253:2362   */\n    tag_81:\n        /* \"#utility.yul\":2334:2355   */\n      tag_124\n        /* \"#utility.yul\":2349:2354   */\n      dup2\n        /* \"#utility.yul\":2334:2355   */\n      tag_80\n      jump\t// in\n    tag_124:\n        /* \"#utility.yul\":2329:2332   */\n      dup3\n        /* \"#utility.yul\":2322:2356   */\n      mstore\n        /* \"#utility.yul\":2253:2362   */\n      pop\n      pop\n      jump\t// out\n        /* \"#utility.yul\":2368:2578   */\n    tag_16:\n        /* \"#utility.yul\":2455:2459   */\n      0x00\n        /* \"#utility.yul\":2493:2495   */\n      0x20\n        /* \"#utility.yul\":2482:2491   */\n      dup3\n        /* \"#utility.yul\":2478:2496   */\n      add\n        /* \"#utility.yul\":2470:2496   */\n      swap1\n      pop\n        /* \"#utility.yul\":2506:2571   */\n      tag_126\n        /* \"#utility.yul\":2568:2569   */\n      0x00\n        /* \"#utility.yul\":2557:2566   */\n      dup4\n        /* \"#utility.yul\":2553:2570   */\n      add\n        /* \"#utility.yul\":2544:2550   */\n      dup5\n        /* \"#utility.yul\":2506:2571   */\n      tag_81\n      jump\t// in\n    tag_126:\n        /* \"#utility.yul\":2368:2578   */\n      swap3\n      swap2\n      pop\n      pop\n      jump\t// out\n        /* \"#utility.yul\":2584:2702   */\n    tag_82:\n        /* \"#utility.yul\":2671:2695   */\n      tag_128\n        /* \"#utility.yul\":2689:2694   */\n      dup2\n        /* \"#utility.yul\":2671:2695   */\n      tag_77\n      jump\t// in\n    tag_128:\n        /* \"#utility.yul\":2666:2669   */\n      dup3\n        /* \"#utility.yul\":2659:2696   */\n      mstore\n        /* \"#utility.yul\":2584:2702   */\n      pop\n      pop\n      jump\t// out\n        /* \"#utility.yul\":2708:2930   */\n    tag_21:\n        /* \"#utility.yul\":2801:2805   */\n      0x00\n        /* \"#utility.yul\":2839:2841   */\n      0x20\n        /* \"#utility.yul\":2828:2837   */\n      dup3\n        /* \"#utility.yul\":2824:2842   */\n      add\n        /* \"#utility.yul\":2816:2842   */\n      swap1\n      pop\n        /* \"#utility.yul\":2852:2923   */\n      tag_130\n        /* \"#utility.yul\":2920:2921   */\n      0x00\n        /* \"#utility.yul\":2909:2918   */\n      dup4\n        /* \"#utility.yul\":2905:2922   */\n      add\n        /* \"#utility.yul\":2896:2902   */\n      dup5\n        /* \"#utility.yul\":2852:2923   */\n      tag_82\n      jump\t// in\n    tag_130:\n        /* \"#utility.yul\":2708:2930   */\n      swap3\n      swap2\n      pop\n      pop\n      jump\t// out\n        /* \"#utility.yul\":2936:3265   */\n    tag_24:\n        /* \"#utility.yul\":2995:3001   */\n      0x00\n        /* \"#utility.yul\":3044:3046   */\n      0x20\n        /* \"#utility.yul\":3032:3041   */\n      dup3\n        /* \"#utility.yul\":3023:3030   */\n      dup5\n        /* \"#utility.yul\":3019:3042   */\n      sub\n        /* \"#utility.yul\":3015:3047   */\n      slt\n        /* \"#utility.yul\":3012:3131   */\n      iszero\n      tag_132\n      jumpi\n        /* \"#utility.yul\":3050:3129   */\n      tag_133\n      tag_71\n      jump\t// in\n    tag_133:\n        /* \"#utility.yul\":3012:3131   */\n    tag_132:\n        /* \"#utility.yul\":3170:3171   */\n      0x00\n        /* \"#utility.yul\":3195:3248   */\n      tag_134\n        /* \"#utility.yul\":3240:3247   */\n      dup5\n        /* \"#utility.yul\":3231:3237   */\n      dup3\n        /* \"#utility.yul\":3220:3229   */\n      dup6\n        /* \"#utility.yul\":3216:3238   */\n      add\n        /* \"#utility.yul\":3195:3248   */\n      tag_76\n      jump\t// in\n    tag_134:\n        /* \"#utility.yul\":3185:3248   */\n      swap2\n      pop\n        /* \"#utility.yul\":3141:3258   */\n      pop\n        /* \"#utility.yul\":2936:3265   */\n      swap3\n      swap2\n      pop\n      pop\n      jump\t// out\n        /* \"#utility.yul\":3271:3389   */\n    tag_83:\n        /* \"#utility.yul\":3358:3382   */\n      tag_136\n        /* \"#utility.yul\":3376:3381   */\n      dup2\n        /* \"#utility.yul\":3358:3382   */\n      tag_74\n      jump\t// in\n    tag_136:\n        /* \"#utility.yul\":3353:3356   */\n      dup3\n        /* \"#utility.yul\":3346:3383   */\n      mstore\n        /* \"#utility.yul\":3271:3389   */\n      pop\n      pop\n      jump\t// out\n        /* \"#utility.yul\":3395:3617   */\n    tag_28:\n        /* \"#utility.yul\":3488:3492   */\n      0x00\n        /* \"#utility.yul\":3526:3528   */\n      0x20\n        /* \"#utility.yul\":3515:3524   */\n      dup3\n        /* \"#utility.yul\":3511:3529   */\n      add\n        /* \"#utility.yul\":3503:3529   */\n      swap1\n      pop\n        /* \"#utility.yul\":3539:3610   */\n      tag_138\n        /* \"#utility.yul\":3607:3608   */\n      0x00\n        /* \"#utility.yul\":3596:3605   */\n      dup4\n        /* \"#utility.yul\":3592:3609   */\n      add\n        /* \"#utility.yul\":3583:3589   */\n      dup5\n        /* \"#utility.yul\":3539:3610   */\n      tag_83\n      jump\t// in\n    tag_138:\n        /* \"#utility.yul\":3395:3617   */\n      swap3\n      swap2\n      pop\n      pop\n      jump\t// out\n        /* \"#utility.yul\":3623:3766   */\n    tag_84:\n        /* \"#utility.yul\":3680:3685   */\n      0x00\n        /* \"#utility.yul\":3711:3717   */\n      dup2\n        /* \"#utility.yul\":3705:3718   */\n      mload\n        /* \"#utility.yul\":3696:3718   */\n      swap1\n      pop\n        /* \"#utility.yul\":3727:3760   */\n      tag_140\n        /* \"#utility.yul\":3754:3759   */\n      dup2\n        /* \"#utility.yul\":3727:3760   */\n      tag_78\n      jump\t// in\n    tag_140:\n        /* \"#utility.yul\":3623:3766   */\n      swap3\n      swap2\n      pop\n      pop\n      jump\t// out\n        /* \"#utility.yul\":3772:4123   */\n    tag_32:\n        /* \"#utility.yul\":3842:3848   */\n      0x00\n        /* \"#utility.yul\":3891:3893   */\n      0x20\n        /* \"#utility.yul\":3879:3888   */\n      dup3\n        /* \"#utility.yul\":3870:3877   */\n      dup5\n        /* \"#utility.yul\":3866:3889   */\n      sub\n        /* \"#utility.yul\":3862:3894   */\n      slt\n        /* \"#utility.yul\":3859:3978   */\n      iszero\n      tag_142\n      jumpi\n        /* \"#utility.yul\":3897:3976   */\n      tag_143\n      tag_71\n      jump\t// in\n    tag_143:\n        /* \"#utility.yul\":3859:3978   */\n    tag_142:\n        /* \"#utility.yul\":4017:4018   */\n      0x00\n        /* \"#utility.yul\":4042:4106   */\n      tag_144\n        /* \"#utility.yul\":4098:4105   */\n      dup5\n        /* \"#utility.yul\":4089:4095   */\n      dup3\n        /* \"#utility.yul\":4078:4087   */\n      dup6\n        /* \"#utility.yul\":4074:4096   */\n      add\n        /* \"#utility.yul\":4042:4106   */\n      tag_84\n      jump\t// in\n    tag_144:\n        /* \"#utility.yul\":4032:4106   */\n      swap2\n      pop\n        /* \"#utility.yul\":3988:4116   */\n      pop\n        /* \"#utility.yul\":3772:4123   */\n      swap3\n      swap2\n      pop\n      pop\n      jump\t// out\n        /* \"#utility.yul\":4129:4298   */\n    tag_85:\n        /* \"#utility.yul\":4213:4224   */\n      0x00\n        /* \"#utility.yul\":4247:4253   */\n      dup3\n        /* \"#utility.yul\":4242:4245   */\n      dup3\n        /* \"#utility.yul\":4235:4254   */\n      mstore\n        /* \"#utility.yul\":4287:4291   */\n      0x20\n        /* \"#utility.yul\":4282:4285   */\n      dup3\n        /* \"#utility.yul\":4278:4292   */\n      add\n        /* \"#utility.yul\":4263:4292   */\n      swap1\n      pop\n        /* \"#utility.yul\":4129:4298   */\n      swap3\n      swap2\n      pop\n      pop\n      jump\t// out\n        /* \"#utility.yul\":4304:4474   */\n    tag_86:\n        /* \"#utility.yul\":4444:4466   */\n      0x696e73756666696369656e742062616c616e6365000000000000000000000000\n        /* \"#utility.yul\":4440:4441   */\n      0x00\n        /* \"#utility.yul\":4432:4438   */\n      dup3\n        /* \"#utility.yul\":4428:4442   */\n      add\n        /* \"#utility.yul\":4421:4467   */\n      mstore\n        /* \"#utility.yul\":4304:4474   */\n      pop\n      jump\t// out\n        /* \"#utility.yul\":4480:4846   */\n    tag_87:\n        /* \"#utility.yul\":4622:4625   */\n      0x00\n        /* \"#utility.yul\":4643:4710   */\n      tag_148\n        /* \"#utility.yul\":4707:4709   */\n      0x14\n        /* \"#utility.yul\":4702:4705   */\n      dup4\n        /* \"#utility.yul\":4643:4710   */\n      tag_85\n      jump\t// in\n    tag_148:\n        /* \"#utility.yul\":4636:4710   */\n      swap2\n      pop\n        /* \"#utility.yul\":4719:4812   */\n      tag_149\n        /* \"#utility.yul\":4808:4811   */\n      dup3\n        /* \"#utility.yul\":4719:4812   */\n      tag_86\n      jump\t// in\n    tag_149:\n        /* \"#utility.yul\":4837:4839   */\n      0x20\n        /* \"#utility.yul\":4832:4835   */\n      dup3\n        /* \"#utility.yul\":4828:4840   */\n      add\n        /* \"#utility.yul\":4821:4840   */\n      swap1\n      pop\n        /* \"#utility.yul\":4480:4846   */\n      swap2\n      swap1\n      pop\n      jump\t// out\n        /* \"#utility.yul\":4852:5271   */\n    tag_35:\n        /* \"#utility.yul\":5018:5022   */\n      0x00\n        /* \"#utility.yul\":5056:5058   */\n      0x20\n        /* \"#utility.yul\":5045:5054   */\n      dup3\n        /* \"#utility.yul\":5041:5059   */\n      add\n        /* \"#utility.yul\":5033:5059   */\n      swap1\n      pop\n        /* \"#utility.yul\":5105:5114   */\n      dup2\n        /* \"#utility.yul\":5099:5103   */\n      dup2\n        /* \"#utility.yul\":5095:5115   */\n      sub\n        /* \"#utility.yul\":5091:5092   */\n      0x00\n        /* \"#utility.yul\":5080:5089   */\n      dup4\n        /* \"#utility.yul\":5076:5093   */\n      add\n        /* \"#utility.yul\":5069:5116   */\n      mstore\n        /* \"#utility.yul\":5133:5264   */\n      tag_151\n        /* \"#utility.yul\":5259:5263   */\n      dup2\n        /* \"#utility.yul\":5133:5264   */\n      tag_87\n      jump\t// in\n    tag_151:\n        /* \"#utility.yul\":5125:5264   */\n      swap1\n      pop\n        /* \"#utility.yul\":4852:5271   */\n      swap2\n      swap1\n      pop\n      jump\t// out\n        /* \"#utility.yul\":5277:5457   */\n    tag_88:\n        /* \"#utility.yul\":5325:5402   */\n      0x4e487b7100000000000000000000000000000000000000000000000000000000\n        /* \"#utility.yul\":5322:5323   */\n      0x00\n        /* \"#utility.yul\":5315:5403   */\n      mstore\n        /* \"#utility.yul\":5422:5426   */\n      0x12\n        /* \"#utility.yul\":5419:5420   */\n      0x04\n        /* \"#utility.yul\":5412:5427   */\n      mstore\n        /* \"#utility.yul\":5446:5450   */\n      0x24\n        /* \"#utility.yul\":5443:5444   */\n      0x00\n        /* \"#utility.yul\":5436:5451   */\n      revert\n        /* \"#utility.yul\":5463:5639   */\n    tag_37:\n        /* \"#utility.yul\":5495:5496   */\n      0x00\n        /* \"#utility.yul\":5512:5532   */\n      tag_154\n        /* \"#utility.yul\":5530:5531   */\n      dup3\n        /* \"#utility.yul\":5512:5532   */\n      tag_77\n      jump\t// in\n    tag_154:\n        /* \"#utility.yul\":5507:5532   */\n      swap2\n      pop\n        /* \"#utility.yul\":5546:5566   */\n      tag_155\n        /* \"#utility.yul\":5564:5565   */\n      dup4\n        /* \"#utility.yul\":5546:5566   */\n      tag_77\n      jump\t// in\n    tag_155:\n        /* \"#utility.yul\":5541:5566   */\n      swap3\n      pop\n        /* \"#utility.yul\":5585:5586   */\n      dup3\n        /* \"#utility.yul\":5575:5610   */\n      tag_156\n      jumpi\n        /* \"#utility.yul\":5590:5608   */\n      tag_157\n      tag_88\n      jump\t// in\n    tag_157:\n        /* \"#utility.yul\":5575:5610   */\n    tag_156:\n        /* \"#utility.yul\":5631:5632   */\n      dup3\n        /* \"#utility.yul\":5628:5629   */\n      dup3\n        /* \"#utility.yul\":5624:5633   */\n      mod\n        /* \"#utility.yul\":5619:5633   */\n      swap1\n      pop\n        /* \"#utility.yul\":5463:5639   */\n      swap3\n      swap2\n      pop\n      pop\n      jump\t// out\n        /* \"#utility.yul\":5645:5813   */\n    tag_89:\n        /* \"#utility.yul\":5785:5805   */\n      0x313020746f6b656e732069732031207965730000000000000000000000000000\n        /* \"#utility.yul\":5781:5782   */\n      0x00\n        /* \"#utility.yul\":5773:5779   */\n      dup3\n        /* \"#utility.yul\":5769:5783   */\n      add\n        /* \"#utility.yul\":5762:5806   */\n      mstore\n        /* \"#utility.yul\":5645:5813   */\n      pop\n      jump\t// out\n        /* \"#utility.yul\":5819:6185   */\n    tag_90:\n        /* \"#utility.yul\":5961:5964   */\n      0x00\n        /* \"#utility.yul\":5982:6049   */\n      tag_160\n        /* \"#utility.yul\":6046:6048   */\n      0x12\n        /* \"#utility.yul\":6041:6044   */\n      dup4\n        /* \"#utility.yul\":5982:6049   */\n      tag_85\n      jump\t// in\n    tag_160:\n        /* \"#utility.yul\":5975:6049   */\n      swap2\n      pop\n        /* \"#utility.yul\":6058:6151   */\n      tag_161\n        /* \"#utility.yul\":6147:6150   */\n      dup3\n        /* \"#utility.yul\":6058:6151   */\n      tag_89\n      jump\t// in\n    tag_161:\n        /* \"#utility.yul\":6176:6178   */\n      0x20\n        /* \"#utility.yul\":6171:6174   */\n      dup3\n        /* \"#utility.yul\":6167:6179   */\n      add\n        /* \"#utility.yul\":6160:6179   */\n      swap1\n      pop\n        /* \"#utility.yul\":5819:6185   */\n      swap2\n      swap1\n      pop\n      jump\t// out\n        /* \"#utility.yul\":6191:6610   */\n    tag_40:\n        /* \"#utility.yul\":6357:6361   */\n      0x00\n        /* \"#utility.yul\":6395:6397   */\n      0x20\n        /* \"#utility.yul\":6384:6393   */\n      dup3\n        /* \"#utility.yul\":6380:6398   */\n      add\n        /* \"#utility.yul\":6372:6398   */\n      swap1\n      pop\n        /* \"#utility.yul\":6444:6453   */\n      dup2\n        /* \"#utility.yul\":6438:6442   */\n      dup2\n        /* \"#utility.yul\":6434:6454   */\n      sub\n        /* \"#utility.yul\":6430:6431   */\n      0x00\n        /* \"#utility.yul\":6419:6428   */\n      dup4\n        /* \"#utility.yul\":6415:6432   */\n      add\n        /* \"#utility.yul\":6408:6455   */\n      mstore\n        /* \"#utility.yul\":6472:6603   */\n      tag_163\n        /* \"#utility.yul\":6598:6602   */\n      dup2\n        /* \"#utility.yul\":6472:6603   */\n      tag_90\n      jump\t// in\n    tag_163:\n        /* \"#utility.yul\":6464:6603   */\n      swap1\n      pop\n        /* \"#utility.yul\":6191:6610   */\n      swap2\n      swap1\n      pop\n      jump\t// out\n        /* \"#utility.yul\":6616:6796   */\n    tag_43:\n        /* \"#utility.yul\":6664:6741   */\n      0x4e487b7100000000000000000000000000000000000000000000000000000000\n        /* \"#utility.yul\":6661:6662   */\n      0x00\n        /* \"#utility.yul\":6654:6742   */\n      mstore\n        /* \"#utility.yul\":6761:6765   */\n      0x01\n        /* \"#utility.yul\":6758:6759   */\n      0x04\n        /* \"#utility.yul\":6751:6766   */\n      mstore\n        /* \"#utility.yul\":6785:6789   */\n      0x24\n        /* \"#utility.yul\":6782:6783   */\n      0x00\n        /* \"#utility.yul\":6775:6790   */\n      revert\n        /* \"#utility.yul\":6802:6982   */\n    tag_91:\n        /* \"#utility.yul\":6850:6927   */\n      0x4e487b7100000000000000000000000000000000000000000000000000000000\n        /* \"#utility.yul\":6847:6848   */\n      0x00\n        /* \"#utility.yul\":6840:6928   */\n      mstore\n        /* \"#utility.yul\":6947:6951   */\n      0x11\n        /* \"#utility.yul\":6944:6945   */\n      0x04\n        /* \"#utility.yul\":6937:6952   */\n      mstore\n        /* \"#utility.yul\":6971:6975   */\n      0x24\n        /* \"#utility.yul\":6968:6969   */\n      0x00\n        /* \"#utility.yul\":6961:6976   */\n      revert\n        /* \"#utility.yul\":6988:7173   */\n    tag_45:\n        /* \"#utility.yul\":7028:7029   */\n      0x00\n        /* \"#utility.yul\":7045:7065   */\n      tag_167\n        /* \"#utility.yul\":7063:7064   */\n      dup3\n        /* \"#utility.yul\":7045:7065   */\n      tag_77\n      jump\t// in\n    tag_167:\n        /* \"#utility.yul\":7040:7065   */\n      swap2\n      pop\n        /* \"#utility.yul\":7079:7099   */\n      tag_168\n        /* \"#utility.yul\":7097:7098   */\n      dup4\n        /* \"#utility.yul\":7079:7099   */\n      tag_77\n      jump\t// in\n    tag_168:\n        /* \"#utility.yul\":7074:7099   */\n      swap3\n      pop\n        /* \"#utility.yul\":7118:7119   */\n      dup3\n        /* \"#utility.yul\":7108:7143   */\n      tag_169\n      jumpi\n        /* \"#utility.yul\":7123:7141   */\n      tag_170\n      tag_88\n      jump\t// in\n    tag_170:\n        /* \"#utility.yul\":7108:7143   */\n    tag_169:\n        /* \"#utility.yul\":7165:7166   */\n      dup3\n        /* \"#utility.yul\":7162:7163   */\n      dup3\n        /* \"#utility.yul\":7158:7167   */\n      div\n        /* \"#utility.yul\":7153:7167   */\n      swap1\n      pop\n        /* \"#utility.yul\":6988:7173   */\n      swap3\n      swap2\n      pop\n      pop\n      jump\t// out\n        /* \"#utility.yul\":7179:7511   */\n    tag_47:\n        /* \"#utility.yul\":7300:7304   */\n      0x00\n        /* \"#utility.yul\":7338:7340   */\n      0x40\n        /* \"#utility.yul\":7327:7336   */\n      dup3\n        /* \"#utility.yul\":7323:7341   */\n      add\n        /* \"#utility.yul\":7315:7341   */\n      swap1\n      pop\n        /* \"#utility.yul\":7351:7422   */\n      tag_172\n        /* \"#utility.yul\":7419:7420   */\n      0x00\n        /* \"#utility.yul\":7408:7417   */\n      dup4\n        /* \"#utility.yul\":7404:7421   */\n      add\n        /* \"#utility.yul\":7395:7401   */\n      dup6\n        /* \"#utility.yul\":7351:7422   */\n      tag_82\n      jump\t// in\n    tag_172:\n        /* \"#utility.yul\":7432:7504   */\n      tag_173\n        /* \"#utility.yul\":7500:7502   */\n      0x20\n        /* \"#utility.yul\":7489:7498   */\n      dup4\n        /* \"#utility.yul\":7485:7503   */\n      add\n        /* \"#utility.yul\":7476:7482   */\n      dup5\n        /* \"#utility.yul\":7432:7504   */\n      tag_83\n      jump\t// in\n    tag_173:\n        /* \"#utility.yul\":7179:7511   */\n      swap4\n      swap3\n      pop\n      pop\n      pop\n      jump\t// out\n        /* \"#utility.yul\":7517:7822   */\n    tag_52:\n        /* \"#utility.yul\":7557:7560   */\n      0x00\n        /* \"#utility.yul\":7576:7596   */\n      tag_175\n        /* \"#utility.yul\":7594:7595   */\n      dup3\n        /* \"#utility.yul\":7576:7596   */\n      tag_77\n      jump\t// in\n    tag_175:\n        /* \"#utility.yul\":7571:7596   */\n      swap2\n      pop\n        /* \"#utility.yul\":7610:7630   */\n      tag_176\n        /* \"#utility.yul\":7628:7629   */\n      dup4\n        /* \"#utility.yul\":7610:7630   */\n      tag_77\n      jump\t// in\n    tag_176:\n        /* \"#utility.yul\":7605:7630   */\n      swap3\n      pop\n        /* \"#utility.yul\":7764:7765   */\n      dup3\n        /* \"#utility.yul\":7696:7762   */\n      0xffffffffffffffffffffffffffffffffffffffffffffffffffffffffffffffff\n        /* \"#utility.yul\":7692:7766   */\n      sub\n        /* \"#utility.yul\":7689:7690   */\n      dup3\n        /* \"#utility.yul\":7686:7767   */\n      gt\n        /* \"#utility.yul\":7683:7790   */\n      iszero\n      tag_177\n      jumpi\n        /* \"#utility.yul\":7770:7788   */\n      tag_178\n      tag_91\n      jump\t// in\n    tag_178:\n        /* \"#utility.yul\":7683:7790   */\n    tag_177:\n        /* \"#utility.yul\":7814:7815   */\n      dup3\n        /* \"#utility.yul\":7811:7812   */\n      dup3\n        /* \"#utility.yul\":7807:7816   */\n      add\n        /* \"#utility.yul\":7800:7816   */\n      swap1\n      pop\n        /* \"#utility.yul\":7517:7822   */\n      swap3\n      swap2\n      pop\n      pop\n      jump\t// out\n        /* \"#utility.yul\":7828:7944   */\n    tag_92:\n        /* \"#utility.yul\":7898:7919   */\n      tag_180\n        /* \"#utility.yul\":7913:7918   */\n      dup2\n        /* \"#utility.yul\":7898:7919   */\n      tag_80\n      jump\t// in\n    tag_180:\n        /* \"#utility.yul\":7891:7896   */\n      dup2\n        /* \"#utility.yul\":7888:7920   */\n      eq\n        /* \"#utility.yul\":7878:7938   */\n      tag_181\n      jumpi\n        /* \"#utility.yul\":7934:7935   */\n      0x00\n        /* \"#utility.yul\":7931:7932   */\n      dup1\n        /* \"#utility.yul\":7924:7936   */\n      revert\n        /* \"#utility.yul\":7878:7938   */\n    tag_181:\n        /* \"#utility.yul\":7828:7944   */\n      pop\n      jump\t// out\n        /* \"#utility.yul\":7950:8087   */\n    tag_93:\n        /* \"#utility.yul\":8004:8009   */\n      0x00\n        /* \"#utility.yul\":8035:8041   */\n      dup2\n        /* \"#utility.yul\":8029:8042   */\n      mload\n        /* \"#utility.yul\":8020:8042   */\n      swap1\n      pop\n        /* \"#utility.yul\":8051:8081   */\n      tag_183\n        /* \"#utility.yul\":8075:8080   */\n      dup2\n        /* \"#utility.yul\":8051:8081   */\n      tag_92\n      jump\t// in\n    tag_183:\n        /* \"#utility.yul\":7950:8087   */\n      swap3\n      swap2\n      pop\n      pop\n      jump\t// out\n        /* \"#utility.yul\":8093:8438   */\n    tag_58:\n        /* \"#utility.yul\":8160:8166   */\n      0x00\n        /* \"#utility.yul\":8209:8211   */\n      0x20\n        /* \"#utility.yul\":8197:8206   */\n      dup3\n        /* \"#utility.yul\":8188:8195   */\n      dup5\n        /* \"#utility.yul\":8184:8207   */\n      sub\n        /* \"#utility.yul\":8180:8212   */\n      slt\n        /* \"#utility.yul\":8177:8296   */\n      iszero\n      tag_185\n      jumpi\n        /* \"#utility.yul\":8215:8294   */\n      tag_186\n      tag_71\n      jump\t// in\n    tag_186:\n        /* \"#utility.yul\":8177:8296   */\n    tag_185:\n        /* \"#utility.yul\":8335:8336   */\n      0x00\n        /* \"#utility.yul\":8360:8421   */\n      tag_187\n        /* \"#utility.yul\":8413:8420   */\n      dup5\n        /* \"#utility.yul\":8404:8410   */\n      dup3\n        /* \"#utility.yul\":8393:8402   */\n      dup6\n        /* \"#utility.yul\":8389:8411   */\n      add\n        /* \"#utility.yul\":8360:8421   */\n      tag_93\n      jump\t// in\n    tag_187:\n        /* \"#utility.yul\":8350:8421   */\n      swap2\n      pop\n        /* \"#utility.yul\":8306:8431   */\n      pop\n        /* \"#utility.yul\":8093:8438   */\n      swap3\n      swap2\n      pop\n      pop\n      jump\t// out\n\n    auxdata: 0xa2646970667358221220f42268ac1e87c4259a16a5b6ad86fee7ab196f6a05349655ce4e8b320000682164736f6c634300080a0033\n}\n",
				"bytecode": {
					"linkReferences": {},
					"object": "6080604052680ad78ebc5ac62000006003553480156200001e57600080fd5b5060405162000e7838038062000e788339818101604052810190620000449190620001d3565b826000806101000a81548173ffffffffffffffffffffffffffffffffffffffff021916908373ffffffffffffffffffffffffffffffffffffffff1602179055508160028190555080600160006101000a81548173ffffffffffffffffffffffffffffffffffffffff021916908373ffffffffffffffffffffffffffffffffffffffff1602179055505050506200022f565b600080fd5b600073ffffffffffffffffffffffffffffffffffffffff82169050919050565b60006200010782620000da565b9050919050565b60006200011b82620000fa565b9050919050565b6200012d816200010e565b81146200013957600080fd5b50565b6000815190506200014d8162000122565b92915050565b6000819050919050565b620001688162000153565b81146200017457600080fd5b50565b60008151905062000188816200015d565b92915050565b60006200019b82620000fa565b9050919050565b620001ad816200018e565b8114620001b957600080fd5b50565b600081519050620001cd81620001a2565b92915050565b600080600060608486031215620001ef57620001ee620000d5565b5b6000620001ff868287016200013c565b9350506020620002128682870162000177565b92505060406200022586828701620001bc565b9150509250925092565b610c39806200023f6000396000f3fe608060405234801561001057600080fd5b506004361061004c5760003560e01c806366e5f2c51461005157806389d389511461006d578063abab7fa01461009d578063cb7be0fd146100cd575b600080fd5b61006b600480360381019061006691906107da565b6100e9565b005b6100876004803603810190610082919061081a565b610563565b6040516100949190610875565b60405180910390f35b6100b760048036038101906100b2919061081a565b610592565b6040516100c4919061089f565b60405180910390f35b6100e760048036038101906100e291906108ba565b6105b7565b005b8060008054906101000a900473ffffffffffffffffffffffffffffffffffffffff1673ffffffffffffffffffffffffffffffffffffffff166370a08231336040518263ffffffff1660e01b815260040161014391906108f6565b602060405180830381865afa158015610160573d6000803e3d6000fd5b505050506040513d601f19601f820116820180604052508101906101849190610926565b10156101c5576040517f08c379a00000000000000000000000000000000000000000000000000000000081526004016101bc906109b0565b60405180910390fd5b6000816002546101d591906109ff565b14610215576040517f08c379a000000000000000000000000000000000000000000000000000000000815260040161020c90610a7c565b60405180910390fd5b600460003373ffffffffffffffffffffffffffffffffffffffff1673ffffffffffffffffffffffffffffffffffffffff16815260200190815260200160002060008373ffffffffffffffffffffffffffffffffffffffff1673ffffffffffffffffffffffffffffffffffffffff16815260200190815260200160002060009054906101000a900460ff16156102ad576102ac610a9c565b5b6000600254826102bd9190610afa565b905060008054906101000a900473ffffffffffffffffffffffffffffffffffffffff1673ffffffffffffffffffffffffffffffffffffffff1663cec1460b83856040518363ffffffff1660e01b815260040161031a929190610b2b565b600060405180830381600087803b15801561033457600080fd5b505af1158015610348573d6000803e3d6000fd5b5050505080600560003373ffffffffffffffffffffffffffffffffffffffff1673ffffffffffffffffffffffffffffffffffffffff16815260200190815260200160002060008573ffffffffffffffffffffffffffffffffffffffff1673ffffffffffffffffffffffffffffffffffffffff16815260200190815260200160002060008282546103d89190610b54565b92505081905550600354600560003373ffffffffffffffffffffffffffffffffffffffff1673ffffffffffffffffffffffffffffffffffffffff16815260200190815260200160002060008573ffffffffffffffffffffffffffffffffffffffff1673ffffffffffffffffffffffffffffffffffffffff168152602001908152602001600020541061050457600160009054906101000a900473ffffffffffffffffffffffffffffffffffffffff1673ffffffffffffffffffffffffffffffffffffffff166314204dbb846040518263ffffffff1660e01b81526004016104bf91906108f6565b6020604051808303816000875af11580156104de573d6000803e3d6000fd5b505050506040513d601f19601f820116820180604052508101906105029190610bd6565b505b8273ffffffffffffffffffffffffffffffffffffffff163373ffffffffffffffffffffffffffffffffffffffff167fce0c7a2a940807f7dc2ce7a615c2532e915e6c0ac9a08bc4ed9d515a710a53e260405160405180910390a3505050565b60046020528160005260406000206020528060005260406000206000915091509054906101000a900460ff1681565b6005602052816000526040600020602052806000526040600020600091509150505481565b6000600160009054906101000a900473ffffffffffffffffffffffffffffffffffffffff1673ffffffffffffffffffffffffffffffffffffffff1663d5247dda836040518263ffffffff1660e01b815260040161061491906108f6565b602060405180830381865afa158015610631573d6000803e3d6000fd5b505050506040513d601f19601f820116820180604052508101906106559190610bd6565b9050600115158115151461066c5761066b610a9c565b5b60008054906101000a900473ffffffffffffffffffffffffffffffffffffffff1673ffffffffffffffffffffffffffffffffffffffff1663bade9d84836040518263ffffffff1660e01b81526004016106c591906108f6565b600060405180830381600087803b1580156106df57600080fd5b505af11580156106f3573d6000803e3d6000fd5b505050508015153373ffffffffffffffffffffffffffffffffffffffff167f1dd8abd0be84d78ba492e7da57b14db47aa163df6475af336fd802f47964421a60405160405180910390a35050565b600080fd5b600073ffffffffffffffffffffffffffffffffffffffff82169050919050565b600061077182610746565b9050919050565b61078181610766565b811461078c57600080fd5b50565b60008135905061079e81610778565b92915050565b6000819050919050565b6107b7816107a4565b81146107c257600080fd5b50565b6000813590506107d4816107ae565b92915050565b600080604083850312156107f1576107f0610741565b5b60006107ff8582860161078f565b9250506020610810858286016107c5565b9150509250929050565b6000806040838503121561083157610830610741565b5b600061083f8582860161078f565b92505060206108508582860161078f565b9150509250929050565b60008115159050919050565b61086f8161085a565b82525050565b600060208201905061088a6000830184610866565b92915050565b610899816107a4565b82525050565b60006020820190506108b46000830184610890565b92915050565b6000602082840312156108d0576108cf610741565b5b60006108de8482850161078f565b91505092915050565b6108f081610766565b82525050565b600060208201905061090b60008301846108e7565b92915050565b600081519050610920816107ae565b92915050565b60006020828403121561093c5761093b610741565b5b600061094a84828501610911565b91505092915050565b600082825260208201905092915050565b7f696e73756666696369656e742062616c616e6365000000000000000000000000600082015250565b600061099a601483610953565b91506109a582610964565b602082019050919050565b600060208201905081810360008301526109c98161098d565b9050919050565b7f4e487b7100000000000000000000000000000000000000000000000000000000600052601260045260246000fd5b6000610a0a826107a4565b9150610a15836107a4565b925082610a2557610a246109d0565b5b828206905092915050565b7f313020746f6b656e732069732031207965730000000000000000000000000000600082015250565b6000610a66601283610953565b9150610a7182610a30565b602082019050919050565b60006020820190508181036000830152610a9581610a59565b9050919050565b7f4e487b7100000000000000000000000000000000000000000000000000000000600052600160045260246000fd5b7f4e487b7100000000000000000000000000000000000000000000000000000000600052601160045260246000fd5b6000610b05826107a4565b9150610b10836107a4565b925082610b2057610b1f6109d0565b5b828204905092915050565b6000604082019050610b406000830185610890565b610b4d60208301846108e7565b9392505050565b6000610b5f826107a4565b9150610b6a836107a4565b9250827fffffffffffffffffffffffffffffffffffffffffffffffffffffffffffffffff03821115610b9f57610b9e610acb565b5b828201905092915050565b610bb38161085a565b8114610bbe57600080fd5b50565b600081519050610bd081610baa565b92915050565b600060208284031215610bec57610beb610741565b5b6000610bfa84828501610bc1565b9150509291505056fea2646970667358221220f42268ac1e87c4259a16a5b6ad86fee7ab196f6a05349655ce4e8b320000682164736f6c634300080a0033",
					"opcodes": "PUSH1 0x80 PUSH1 0x40 MSTORE PUSH9 0xAD78EBC5AC6200000 PUSH1 0x3 SSTORE CALLVALUE DUP1 ISZERO PUSH3 0x1E JUMPI PUSH1 0x0 DUP1 REVERT JUMPDEST POP PUSH1 0x40 MLOAD PUSH3 0xE78 CODESIZE SUB DUP1 PUSH3 0xE78 DUP4 CODECOPY DUP2 DUP2 ADD PUSH1 0x40 MSTORE DUP2 ADD SWAP1 PUSH3 0x44 SWAP2 SWAP1 PUSH3 0x1D3 JUMP JUMPDEST DUP3 PUSH1 0x0 DUP1 PUSH2 0x100 EXP DUP2 SLOAD DUP2 PUSH20 0xFFFFFFFFFFFFFFFFFFFFFFFFFFFFFFFFFFFFFFFF MUL NOT AND SWAP1 DUP4 PUSH20 0xFFFFFFFFFFFFFFFFFFFFFFFFFFFFFFFFFFFFFFFF AND MUL OR SWAP1 SSTORE POP DUP2 PUSH1 0x2 DUP2 SWAP1 SSTORE POP DUP1 PUSH1 0x1 PUSH1 0x0 PUSH2 0x100 EXP DUP2 SLOAD DUP2 PUSH20 0xFFFFFFFFFFFFFFFFFFFFFFFFFFFFFFFFFFFFFFFF MUL NOT AND SWAP1 DUP4 PUSH20 0xFFFFFFFFFFFFFFFFFFFFFFFFFFFFFFFFFFFFFFFF AND MUL OR SWAP1 SSTORE POP POP POP POP PUSH3 0x22F JUMP JUMPDEST PUSH1 0x0 DUP1 REVERT JUMPDEST PUSH1 0x0 PUSH20 0xFFFFFFFFFFFFFFFFFFFFFFFFFFFFFFFFFFFFFFFF DUP3 AND SWAP1 POP SWAP2 SWAP1 POP JUMP JUMPDEST PUSH1 0x0 PUSH3 0x107 DUP3 PUSH3 0xDA JUMP JUMPDEST SWAP1 POP SWAP2 SWAP1 POP JUMP JUMPDEST PUSH1 0x0 PUSH3 0x11B DUP3 PUSH3 0xFA JUMP JUMPDEST SWAP1 POP SWAP2 SWAP1 POP JUMP JUMPDEST PUSH3 0x12D DUP2 PUSH3 0x10E JUMP JUMPDEST DUP2 EQ PUSH3 0x139 JUMPI PUSH1 0x0 DUP1 REVERT JUMPDEST POP JUMP JUMPDEST PUSH1 0x0 DUP2 MLOAD SWAP1 POP PUSH3 0x14D DUP2 PUSH3 0x122 JUMP JUMPDEST SWAP3 SWAP2 POP POP JUMP JUMPDEST PUSH1 0x0 DUP2 SWAP1 POP SWAP2 SWAP1 POP JUMP JUMPDEST PUSH3 0x168 DUP2 PUSH3 0x153 JUMP JUMPDEST DUP2 EQ PUSH3 0x174 JUMPI PUSH1 0x0 DUP1 REVERT JUMPDEST POP JUMP JUMPDEST PUSH1 0x0 DUP2 MLOAD SWAP1 POP PUSH3 0x188 DUP2 PUSH3 0x15D JUMP JUMPDEST SWAP3 SWAP2 POP POP JUMP JUMPDEST PUSH1 0x0 PUSH3 0x19B DUP3 PUSH3 0xFA JUMP JUMPDEST SWAP1 POP SWAP2 SWAP1 POP JUMP JUMPDEST PUSH3 0x1AD DUP2 PUSH3 0x18E JUMP JUMPDEST DUP2 EQ PUSH3 0x1B9 JUMPI PUSH1 0x0 DUP1 REVERT JUMPDEST POP JUMP JUMPDEST PUSH1 0x0 DUP2 MLOAD SWAP1 POP PUSH3 0x1CD DUP2 PUSH3 0x1A2 JUMP JUMPDEST SWAP3 SWAP2 POP POP JUMP JUMPDEST PUSH1 0x0 DUP1 PUSH1 0x0 PUSH1 0x60 DUP5 DUP7 SUB SLT ISZERO PUSH3 0x1EF JUMPI PUSH3 0x1EE PUSH3 0xD5 JUMP JUMPDEST JUMPDEST PUSH1 0x0 PUSH3 0x1FF DUP7 DUP3 DUP8 ADD PUSH3 0x13C JUMP JUMPDEST SWAP4 POP POP PUSH1 0x20 PUSH3 0x212 DUP7 DUP3 DUP8 ADD PUSH3 0x177 JUMP JUMPDEST SWAP3 POP POP PUSH1 0x40 PUSH3 0x225 DUP7 DUP3 DUP8 ADD PUSH3 0x1BC JUMP JUMPDEST SWAP2 POP POP SWAP3 POP SWAP3 POP SWAP3 JUMP JUMPDEST PUSH2 0xC39 DUP1 PUSH3 0x23F PUSH1 0x0 CODECOPY PUSH1 0x0 RETURN INVALID PUSH1 0x80 PUSH1 0x40 MSTORE CALLVALUE DUP1 ISZERO PUSH2 0x10 JUMPI PUSH1 0x0 DUP1 REVERT JUMPDEST POP PUSH1 0x4 CALLDATASIZE LT PUSH2 0x4C JUMPI PUSH1 0x0 CALLDATALOAD PUSH1 0xE0 SHR DUP1 PUSH4 0x66E5F2C5 EQ PUSH2 0x51 JUMPI DUP1 PUSH4 0x89D38951 EQ PUSH2 0x6D JUMPI DUP1 PUSH4 0xABAB7FA0 EQ PUSH2 0x9D JUMPI DUP1 PUSH4 0xCB7BE0FD EQ PUSH2 0xCD JUMPI JUMPDEST PUSH1 0x0 DUP1 REVERT JUMPDEST PUSH2 0x6B PUSH1 0x4 DUP1 CALLDATASIZE SUB DUP2 ADD SWAP1 PUSH2 0x66 SWAP2 SWAP1 PUSH2 0x7DA JUMP JUMPDEST PUSH2 0xE9 JUMP JUMPDEST STOP JUMPDEST PUSH2 0x87 PUSH1 0x4 DUP1 CALLDATASIZE SUB DUP2 ADD SWAP1 PUSH2 0x82 SWAP2 SWAP1 PUSH2 0x81A JUMP JUMPDEST PUSH2 0x563 JUMP JUMPDEST PUSH1 0x40 MLOAD PUSH2 0x94 SWAP2 SWAP1 PUSH2 0x875 JUMP JUMPDEST PUSH1 0x40 MLOAD DUP1 SWAP2 SUB SWAP1 RETURN JUMPDEST PUSH2 0xB7 PUSH1 0x4 DUP1 CALLDATASIZE SUB DUP2 ADD SWAP1 PUSH2 0xB2 SWAP2 SWAP1 PUSH2 0x81A JUMP JUMPDEST PUSH2 0x592 JUMP JUMPDEST PUSH1 0x40 MLOAD PUSH2 0xC4 SWAP2 SWAP1 PUSH2 0x89F JUMP JUMPDEST PUSH1 0x40 MLOAD DUP1 SWAP2 SUB SWAP1 RETURN JUMPDEST PUSH2 0xE7 PUSH1 0x4 DUP1 CALLDATASIZE SUB DUP2 ADD SWAP1 PUSH2 0xE2 SWAP2 SWAP1 PUSH2 0x8BA JUMP JUMPDEST PUSH2 0x5B7 JUMP JUMPDEST STOP JUMPDEST DUP1 PUSH1 0x0 DUP1 SLOAD SWAP1 PUSH2 0x100 EXP SWAP1 DIV PUSH20 0xFFFFFFFFFFFFFFFFFFFFFFFFFFFFFFFFFFFFFFFF AND PUSH20 0xFFFFFFFFFFFFFFFFFFFFFFFFFFFFFFFFFFFFFFFF AND PUSH4 0x70A08231 CALLER PUSH1 0x40 MLOAD DUP3 PUSH4 0xFFFFFFFF AND PUSH1 0xE0 SHL DUP2 MSTORE PUSH1 0x4 ADD PUSH2 0x143 SWAP2 SWAP1 PUSH2 0x8F6 JUMP JUMPDEST PUSH1 0x20 PUSH1 0x40 MLOAD DUP1 DUP4 SUB DUP2 DUP7 GAS STATICCALL ISZERO DUP1 ISZERO PUSH2 0x160 JUMPI RETURNDATASIZE PUSH1 0x0 DUP1 RETURNDATACOPY RETURNDATASIZE PUSH1 0x0 REVERT JUMPDEST POP POP POP POP PUSH1 0x40 MLOAD RETURNDATASIZE PUSH1 0x1F NOT PUSH1 0x1F DUP3 ADD AND DUP3 ADD DUP1 PUSH1 0x40 MSTORE POP DUP2 ADD SWAP1 PUSH2 0x184 SWAP2 SWAP1 PUSH2 0x926 JUMP JUMPDEST LT ISZERO PUSH2 0x1C5 JUMPI PUSH1 0x40 MLOAD PUSH32 0x8C379A000000000000000000000000000000000000000000000000000000000 DUP2 MSTORE PUSH1 0x4 ADD PUSH2 0x1BC SWAP1 PUSH2 0x9B0 JUMP JUMPDEST PUSH1 0x40 MLOAD DUP1 SWAP2 SUB SWAP1 REVERT JUMPDEST PUSH1 0x0 DUP2 PUSH1 0x2 SLOAD PUSH2 0x1D5 SWAP2 SWAP1 PUSH2 0x9FF JUMP JUMPDEST EQ PUSH2 0x215 JUMPI PUSH1 0x40 MLOAD PUSH32 0x8C379A000000000000000000000000000000000000000000000000000000000 DUP2 MSTORE PUSH1 0x4 ADD PUSH2 0x20C SWAP1 PUSH2 0xA7C JUMP JUMPDEST PUSH1 0x40 MLOAD DUP1 SWAP2 SUB SWAP1 REVERT JUMPDEST PUSH1 0x4 PUSH1 0x0 CALLER PUSH20 0xFFFFFFFFFFFFFFFFFFFFFFFFFFFFFFFFFFFFFFFF AND PUSH20 0xFFFFFFFFFFFFFFFFFFFFFFFFFFFFFFFFFFFFFFFF AND DUP2 MSTORE PUSH1 0x20 ADD SWAP1 DUP2 MSTORE PUSH1 0x20 ADD PUSH1 0x0 KECCAK256 PUSH1 0x0 DUP4 PUSH20 0xFFFFFFFFFFFFFFFFFFFFFFFFFFFFFFFFFFFFFFFF AND PUSH20 0xFFFFFFFFFFFFFFFFFFFFFFFFFFFFFFFFFFFFFFFF AND DUP2 MSTORE PUSH1 0x20 ADD SWAP1 DUP2 MSTORE PUSH1 0x20 ADD PUSH1 0x0 KECCAK256 PUSH1 0x0 SWAP1 SLOAD SWAP1 PUSH2 0x100 EXP SWAP1 DIV PUSH1 0xFF AND ISZERO PUSH2 0x2AD JUMPI PUSH2 0x2AC PUSH2 0xA9C JUMP JUMPDEST JUMPDEST PUSH1 0x0 PUSH1 0x2 SLOAD DUP3 PUSH2 0x2BD SWAP2 SWAP1 PUSH2 0xAFA JUMP JUMPDEST SWAP1 POP PUSH1 0x0 DUP1 SLOAD SWAP1 PUSH2 0x100 EXP SWAP1 DIV PUSH20 0xFFFFFFFFFFFFFFFFFFFFFFFFFFFFFFFFFFFFFFFF AND PUSH20 0xFFFFFFFFFFFFFFFFFFFFFFFFFFFFFFFFFFFFFFFF AND PUSH4 0xCEC1460B DUP4 DUP6 PUSH1 0x40 MLOAD DUP4 PUSH4 0xFFFFFFFF AND PUSH1 0xE0 SHL DUP2 MSTORE PUSH1 0x4 ADD PUSH2 0x31A SWAP3 SWAP2 SWAP1 PUSH2 0xB2B JUMP JUMPDEST PUSH1 0x0 PUSH1 0x40 MLOAD DUP1 DUP4 SUB DUP2 PUSH1 0x0 DUP8 DUP1 EXTCODESIZE ISZERO DUP1 ISZERO PUSH2 0x334 JUMPI PUSH1 0x0 DUP1 REVERT JUMPDEST POP GAS CALL ISZERO DUP1 ISZERO PUSH2 0x348 JUMPI RETURNDATASIZE PUSH1 0x0 DUP1 RETURNDATACOPY RETURNDATASIZE PUSH1 0x0 REVERT JUMPDEST POP POP POP POP DUP1 PUSH1 0x5 PUSH1 0x0 CALLER PUSH20 0xFFFFFFFFFFFFFFFFFFFFFFFFFFFFFFFFFFFFFFFF AND PUSH20 0xFFFFFFFFFFFFFFFFFFFFFFFFFFFFFFFFFFFFFFFF AND DUP2 MSTORE PUSH1 0x20 ADD SWAP1 DUP2 MSTORE PUSH1 0x20 ADD PUSH1 0x0 KECCAK256 PUSH1 0x0 DUP6 PUSH20 0xFFFFFFFFFFFFFFFFFFFFFFFFFFFFFFFFFFFFFFFF AND PUSH20 0xFFFFFFFFFFFFFFFFFFFFFFFFFFFFFFFFFFFFFFFF AND DUP2 MSTORE PUSH1 0x20 ADD SWAP1 DUP2 MSTORE PUSH1 0x20 ADD PUSH1 0x0 KECCAK256 PUSH1 0x0 DUP3 DUP3 SLOAD PUSH2 0x3D8 SWAP2 SWAP1 PUSH2 0xB54 JUMP JUMPDEST SWAP3 POP POP DUP2 SWAP1 SSTORE POP PUSH1 0x3 SLOAD PUSH1 0x5 PUSH1 0x0 CALLER PUSH20 0xFFFFFFFFFFFFFFFFFFFFFFFFFFFFFFFFFFFFFFFF AND PUSH20 0xFFFFFFFFFFFFFFFFFFFFFFFFFFFFFFFFFFFFFFFF AND DUP2 MSTORE PUSH1 0x20 ADD SWAP1 DUP2 MSTORE PUSH1 0x20 ADD PUSH1 0x0 KECCAK256 PUSH1 0x0 DUP6 PUSH20 0xFFFFFFFFFFFFFFFFFFFFFFFFFFFFFFFFFFFFFFFF AND PUSH20 0xFFFFFFFFFFFFFFFFFFFFFFFFFFFFFFFFFFFFFFFF AND DUP2 MSTORE PUSH1 0x20 ADD SWAP1 DUP2 MSTORE PUSH1 0x20 ADD PUSH1 0x0 KECCAK256 SLOAD LT PUSH2 0x504 JUMPI PUSH1 0x1 PUSH1 0x0 SWAP1 SLOAD SWAP1 PUSH2 0x100 EXP SWAP1 DIV PUSH20 0xFFFFFFFFFFFFFFFFFFFFFFFFFFFFFFFFFFFFFFFF AND PUSH20 0xFFFFFFFFFFFFFFFFFFFFFFFFFFFFFFFFFFFFFFFF AND PUSH4 0x14204DBB DUP5 PUSH1 0x40 MLOAD DUP3 PUSH4 0xFFFFFFFF AND PUSH1 0xE0 SHL DUP2 MSTORE PUSH1 0x4 ADD PUSH2 0x4BF SWAP2 SWAP1 PUSH2 0x8F6 JUMP JUMPDEST PUSH1 0x20 PUSH1 0x40 MLOAD DUP1 DUP4 SUB DUP2 PUSH1 0x0 DUP8 GAS CALL ISZERO DUP1 ISZERO PUSH2 0x4DE JUMPI RETURNDATASIZE PUSH1 0x0 DUP1 RETURNDATACOPY RETURNDATASIZE PUSH1 0x0 REVERT JUMPDEST POP POP POP POP PUSH1 0x40 MLOAD RETURNDATASIZE PUSH1 0x1F NOT PUSH1 0x1F DUP3 ADD AND DUP3 ADD DUP1 PUSH1 0x40 MSTORE POP DUP2 ADD SWAP1 PUSH2 0x502 SWAP2 SWAP1 PUSH2 0xBD6 JUMP JUMPDEST POP JUMPDEST DUP3 PUSH20 0xFFFFFFFFFFFFFFFFFFFFFFFFFFFFFFFFFFFFFFFF AND CALLER PUSH20 0xFFFFFFFFFFFFFFFFFFFFFFFFFFFFFFFFFFFFFFFF AND PUSH32 0xCE0C7A2A940807F7DC2CE7A615C2532E915E6C0AC9A08BC4ED9D515A710A53E2 PUSH1 0x40 MLOAD PUSH1 0x40 MLOAD DUP1 SWAP2 SUB SWAP1 LOG3 POP POP POP JUMP JUMPDEST PUSH1 0x4 PUSH1 0x20 MSTORE DUP2 PUSH1 0x0 MSTORE PUSH1 0x40 PUSH1 0x0 KECCAK256 PUSH1 0x20 MSTORE DUP1 PUSH1 0x0 MSTORE PUSH1 0x40 PUSH1 0x0 KECCAK256 PUSH1 0x0 SWAP2 POP SWAP2 POP SWAP1 SLOAD SWAP1 PUSH2 0x100 EXP SWAP1 DIV PUSH1 0xFF AND DUP2 JUMP JUMPDEST PUSH1 0x5 PUSH1 0x20 MSTORE DUP2 PUSH1 0x0 MSTORE PUSH1 0x40 PUSH1 0x0 KECCAK256 PUSH1 0x20 MSTORE DUP1 PUSH1 0x0 MSTORE PUSH1 0x40 PUSH1 0x0 KECCAK256 PUSH1 0x0 SWAP2 POP SWAP2 POP POP SLOAD DUP2 JUMP JUMPDEST PUSH1 0x0 PUSH1 0x1 PUSH1 0x0 SWAP1 SLOAD SWAP1 PUSH2 0x100 EXP SWAP1 DIV PUSH20 0xFFFFFFFFFFFFFFFFFFFFFFFFFFFFFFFFFFFFFFFF AND PUSH20 0xFFFFFFFFFFFFFFFFFFFFFFFFFFFFFFFFFFFFFFFF AND PUSH4 0xD5247DDA DUP4 PUSH1 0x40 MLOAD DUP3 PUSH4 0xFFFFFFFF AND PUSH1 0xE0 SHL DUP2 MSTORE PUSH1 0x4 ADD PUSH2 0x614 SWAP2 SWAP1 PUSH2 0x8F6 JUMP JUMPDEST PUSH1 0x20 PUSH1 0x40 MLOAD DUP1 DUP4 SUB DUP2 DUP7 GAS STATICCALL ISZERO DUP1 ISZERO PUSH2 0x631 JUMPI RETURNDATASIZE PUSH1 0x0 DUP1 RETURNDATACOPY RETURNDATASIZE PUSH1 0x0 REVERT JUMPDEST POP POP POP POP PUSH1 0x40 MLOAD RETURNDATASIZE PUSH1 0x1F NOT PUSH1 0x1F DUP3 ADD AND DUP3 ADD DUP1 PUSH1 0x40 MSTORE POP DUP2 ADD SWAP1 PUSH2 0x655 SWAP2 SWAP1 PUSH2 0xBD6 JUMP JUMPDEST SWAP1 POP PUSH1 0x1 ISZERO ISZERO DUP2 ISZERO ISZERO EQ PUSH2 0x66C JUMPI PUSH2 0x66B PUSH2 0xA9C JUMP JUMPDEST JUMPDEST PUSH1 0x0 DUP1 SLOAD SWAP1 PUSH2 0x100 EXP SWAP1 DIV PUSH20 0xFFFFFFFFFFFFFFFFFFFFFFFFFFFFFFFFFFFFFFFF AND PUSH20 0xFFFFFFFFFFFFFFFFFFFFFFFFFFFFFFFFFFFFFFFF AND PUSH4 0xBADE9D84 DUP4 PUSH1 0x40 MLOAD DUP3 PUSH4 0xFFFFFFFF AND PUSH1 0xE0 SHL DUP2 MSTORE PUSH1 0x4 ADD PUSH2 0x6C5 SWAP2 SWAP1 PUSH2 0x8F6 JUMP JUMPDEST PUSH1 0x0 PUSH1 0x40 MLOAD DUP1 DUP4 SUB DUP2 PUSH1 0x0 DUP8 DUP1 EXTCODESIZE ISZERO DUP1 ISZERO PUSH2 0x6DF JUMPI PUSH1 0x0 DUP1 REVERT JUMPDEST POP GAS CALL ISZERO DUP1 ISZERO PUSH2 0x6F3 JUMPI RETURNDATASIZE PUSH1 0x0 DUP1 RETURNDATACOPY RETURNDATASIZE PUSH1 0x0 REVERT JUMPDEST POP POP POP POP DUP1 ISZERO ISZERO CALLER PUSH20 0xFFFFFFFFFFFFFFFFFFFFFFFFFFFFFFFFFFFFFFFF AND PUSH32 0x1DD8ABD0BE84D78BA492E7DA57B14DB47AA163DF6475AF336FD802F47964421A PUSH1 0x40 MLOAD PUSH1 0x40 MLOAD DUP1 SWAP2 SUB SWAP1 LOG3 POP POP JUMP JUMPDEST PUSH1 0x0 DUP1 REVERT JUMPDEST PUSH1 0x0 PUSH20 0xFFFFFFFFFFFFFFFFFFFFFFFFFFFFFFFFFFFFFFFF DUP3 AND SWAP1 POP SWAP2 SWAP1 POP JUMP JUMPDEST PUSH1 0x0 PUSH2 0x771 DUP3 PUSH2 0x746 JUMP JUMPDEST SWAP1 POP SWAP2 SWAP1 POP JUMP JUMPDEST PUSH2 0x781 DUP2 PUSH2 0x766 JUMP JUMPDEST DUP2 EQ PUSH2 0x78C JUMPI PUSH1 0x0 DUP1 REVERT JUMPDEST POP JUMP JUMPDEST PUSH1 0x0 DUP2 CALLDATALOAD SWAP1 POP PUSH2 0x79E DUP2 PUSH2 0x778 JUMP JUMPDEST SWAP3 SWAP2 POP POP JUMP JUMPDEST PUSH1 0x0 DUP2 SWAP1 POP SWAP2 SWAP1 POP JUMP JUMPDEST PUSH2 0x7B7 DUP2 PUSH2 0x7A4 JUMP JUMPDEST DUP2 EQ PUSH2 0x7C2 JUMPI PUSH1 0x0 DUP1 REVERT JUMPDEST POP JUMP JUMPDEST PUSH1 0x0 DUP2 CALLDATALOAD SWAP1 POP PUSH2 0x7D4 DUP2 PUSH2 0x7AE JUMP JUMPDEST SWAP3 SWAP2 POP POP JUMP JUMPDEST PUSH1 0x0 DUP1 PUSH1 0x40 DUP4 DUP6 SUB SLT ISZERO PUSH2 0x7F1 JUMPI PUSH2 0x7F0 PUSH2 0x741 JUMP JUMPDEST JUMPDEST PUSH1 0x0 PUSH2 0x7FF DUP6 DUP3 DUP7 ADD PUSH2 0x78F JUMP JUMPDEST SWAP3 POP POP PUSH1 0x20 PUSH2 0x810 DUP6 DUP3 DUP7 ADD PUSH2 0x7C5 JUMP JUMPDEST SWAP2 POP POP SWAP3 POP SWAP3 SWAP1 POP JUMP JUMPDEST PUSH1 0x0 DUP1 PUSH1 0x40 DUP4 DUP6 SUB SLT ISZERO PUSH2 0x831 JUMPI PUSH2 0x830 PUSH2 0x741 JUMP JUMPDEST JUMPDEST PUSH1 0x0 PUSH2 0x83F DUP6 DUP3 DUP7 ADD PUSH2 0x78F JUMP JUMPDEST SWAP3 POP POP PUSH1 0x20 PUSH2 0x850 DUP6 DUP3 DUP7 ADD PUSH2 0x78F JUMP JUMPDEST SWAP2 POP POP SWAP3 POP SWAP3 SWAP1 POP JUMP JUMPDEST PUSH1 0x0 DUP2 ISZERO ISZERO SWAP1 POP SWAP2 SWAP1 POP JUMP JUMPDEST PUSH2 0x86F DUP2 PUSH2 0x85A JUMP JUMPDEST DUP3 MSTORE POP POP JUMP JUMPDEST PUSH1 0x0 PUSH1 0x20 DUP3 ADD SWAP1 POP PUSH2 0x88A PUSH1 0x0 DUP4 ADD DUP5 PUSH2 0x866 JUMP JUMPDEST SWAP3 SWAP2 POP POP JUMP JUMPDEST PUSH2 0x899 DUP2 PUSH2 0x7A4 JUMP JUMPDEST DUP3 MSTORE POP POP JUMP JUMPDEST PUSH1 0x0 PUSH1 0x20 DUP3 ADD SWAP1 POP PUSH2 0x8B4 PUSH1 0x0 DUP4 ADD DUP5 PUSH2 0x890 JUMP JUMPDEST SWAP3 SWAP2 POP POP JUMP JUMPDEST PUSH1 0x0 PUSH1 0x20 DUP3 DUP5 SUB SLT ISZERO PUSH2 0x8D0 JUMPI PUSH2 0x8CF PUSH2 0x741 JUMP JUMPDEST JUMPDEST PUSH1 0x0 PUSH2 0x8DE DUP5 DUP3 DUP6 ADD PUSH2 0x78F JUMP JUMPDEST SWAP2 POP POP SWAP3 SWAP2 POP POP JUMP JUMPDEST PUSH2 0x8F0 DUP2 PUSH2 0x766 JUMP JUMPDEST DUP3 MSTORE POP POP JUMP JUMPDEST PUSH1 0x0 PUSH1 0x20 DUP3 ADD SWAP1 POP PUSH2 0x90B PUSH1 0x0 DUP4 ADD DUP5 PUSH2 0x8E7 JUMP JUMPDEST SWAP3 SWAP2 POP POP JUMP JUMPDEST PUSH1 0x0 DUP2 MLOAD SWAP1 POP PUSH2 0x920 DUP2 PUSH2 0x7AE JUMP JUMPDEST SWAP3 SWAP2 POP POP JUMP JUMPDEST PUSH1 0x0 PUSH1 0x20 DUP3 DUP5 SUB SLT ISZERO PUSH2 0x93C JUMPI PUSH2 0x93B PUSH2 0x741 JUMP JUMPDEST JUMPDEST PUSH1 0x0 PUSH2 0x94A DUP5 DUP3 DUP6 ADD PUSH2 0x911 JUMP JUMPDEST SWAP2 POP POP SWAP3 SWAP2 POP POP JUMP JUMPDEST PUSH1 0x0 DUP3 DUP3 MSTORE PUSH1 0x20 DUP3 ADD SWAP1 POP SWAP3 SWAP2 POP POP JUMP JUMPDEST PUSH32 0x696E73756666696369656E742062616C616E6365000000000000000000000000 PUSH1 0x0 DUP3 ADD MSTORE POP JUMP JUMPDEST PUSH1 0x0 PUSH2 0x99A PUSH1 0x14 DUP4 PUSH2 0x953 JUMP JUMPDEST SWAP2 POP PUSH2 0x9A5 DUP3 PUSH2 0x964 JUMP JUMPDEST PUSH1 0x20 DUP3 ADD SWAP1 POP SWAP2 SWAP1 POP JUMP JUMPDEST PUSH1 0x0 PUSH1 0x20 DUP3 ADD SWAP1 POP DUP2 DUP2 SUB PUSH1 0x0 DUP4 ADD MSTORE PUSH2 0x9C9 DUP2 PUSH2 0x98D JUMP JUMPDEST SWAP1 POP SWAP2 SWAP1 POP JUMP JUMPDEST PUSH32 0x4E487B7100000000000000000000000000000000000000000000000000000000 PUSH1 0x0 MSTORE PUSH1 0x12 PUSH1 0x4 MSTORE PUSH1 0x24 PUSH1 0x0 REVERT JUMPDEST PUSH1 0x0 PUSH2 0xA0A DUP3 PUSH2 0x7A4 JUMP JUMPDEST SWAP2 POP PUSH2 0xA15 DUP4 PUSH2 0x7A4 JUMP JUMPDEST SWAP3 POP DUP3 PUSH2 0xA25 JUMPI PUSH2 0xA24 PUSH2 0x9D0 JUMP JUMPDEST JUMPDEST DUP3 DUP3 MOD SWAP1 POP SWAP3 SWAP2 POP POP JUMP JUMPDEST PUSH32 0x313020746F6B656E732069732031207965730000000000000000000000000000 PUSH1 0x0 DUP3 ADD MSTORE POP JUMP JUMPDEST PUSH1 0x0 PUSH2 0xA66 PUSH1 0x12 DUP4 PUSH2 0x953 JUMP JUMPDEST SWAP2 POP PUSH2 0xA71 DUP3 PUSH2 0xA30 JUMP JUMPDEST PUSH1 0x20 DUP3 ADD SWAP1 POP SWAP2 SWAP1 POP JUMP JUMPDEST PUSH1 0x0 PUSH1 0x20 DUP3 ADD SWAP1 POP DUP2 DUP2 SUB PUSH1 0x0 DUP4 ADD MSTORE PUSH2 0xA95 DUP2 PUSH2 0xA59 JUMP JUMPDEST SWAP1 POP SWAP2 SWAP1 POP JUMP JUMPDEST PUSH32 0x4E487B7100000000000000000000000000000000000000000000000000000000 PUSH1 0x0 MSTORE PUSH1 0x1 PUSH1 0x4 MSTORE PUSH1 0x24 PUSH1 0x0 REVERT JUMPDEST PUSH32 0x4E487B7100000000000000000000000000000000000000000000000000000000 PUSH1 0x0 MSTORE PUSH1 0x11 PUSH1 0x4 MSTORE PUSH1 0x24 PUSH1 0x0 REVERT JUMPDEST PUSH1 0x0 PUSH2 0xB05 DUP3 PUSH2 0x7A4 JUMP JUMPDEST SWAP2 POP PUSH2 0xB10 DUP4 PUSH2 0x7A4 JUMP JUMPDEST SWAP3 POP DUP3 PUSH2 0xB20 JUMPI PUSH2 0xB1F PUSH2 0x9D0 JUMP JUMPDEST JUMPDEST DUP3 DUP3 DIV SWAP1 POP SWAP3 SWAP2 POP POP JUMP JUMPDEST PUSH1 0x0 PUSH1 0x40 DUP3 ADD SWAP1 POP PUSH2 0xB40 PUSH1 0x0 DUP4 ADD DUP6 PUSH2 0x890 JUMP JUMPDEST PUSH2 0xB4D PUSH1 0x20 DUP4 ADD DUP5 PUSH2 0x8E7 JUMP JUMPDEST SWAP4 SWAP3 POP POP POP JUMP JUMPDEST PUSH1 0x0 PUSH2 0xB5F DUP3 PUSH2 0x7A4 JUMP JUMPDEST SWAP2 POP PUSH2 0xB6A DUP4 PUSH2 0x7A4 JUMP JUMPDEST SWAP3 POP DUP3 PUSH32 0xFFFFFFFFFFFFFFFFFFFFFFFFFFFFFFFFFFFFFFFFFFFFFFFFFFFFFFFFFFFFFFFF SUB DUP3 GT ISZERO PUSH2 0xB9F JUMPI PUSH2 0xB9E PUSH2 0xACB JUMP JUMPDEST JUMPDEST DUP3 DUP3 ADD SWAP1 POP SWAP3 SWAP2 POP POP JUMP JUMPDEST PUSH2 0xBB3 DUP2 PUSH2 0x85A JUMP JUMPDEST DUP2 EQ PUSH2 0xBBE JUMPI PUSH1 0x0 DUP1 REVERT JUMPDEST POP JUMP JUMPDEST PUSH1 0x0 DUP2 MLOAD SWAP1 POP PUSH2 0xBD0 DUP2 PUSH2 0xBAA JUMP JUMPDEST SWAP3 SWAP2 POP POP JUMP JUMPDEST PUSH1 0x0 PUSH1 0x20 DUP3 DUP5 SUB SLT ISZERO PUSH2 0xBEC JUMPI PUSH2 0xBEB PUSH2 0x741 JUMP JUMPDEST JUMPDEST PUSH1 0x0 PUSH2 0xBFA DUP5 DUP3 DUP6 ADD PUSH2 0xBC1 JUMP JUMPDEST SWAP2 POP POP SWAP3 SWAP2 POP POP JUMP INVALID LOG2 PUSH5 0x6970667358 0x22 SLT KECCAK256 DELEGATECALL 0x22 PUSH9 0xAC1E87C4259A16A5B6 0xAD DUP7 INVALID 0xE7 0xAB NOT PUSH16 0x6A05349655CE4E8B320000682164736F PUSH13 0x634300080A0033000000000000 "
				},
				"gasEstimates": {
					"creation": {
						"codeDepositCost": "625800",
						"executionCost": "infinite",
						"totalCost": "infinite"
					},
					"external": {
						"govVote(address,address)": "infinite",
						"govVoteCount(address,address)": "infinite",
						"unLocked(address)": "infinite",
						"voteProposal(address,uint256)": "infinite"
					}
				},
				"methodIdentifiers": {
					"govVote(address,address)": "89d38951",
					"govVoteCount(address,address)": "abab7fa0",
					"unLocked(address)": "cb7be0fd",
					"voteProposal(address,uint256)": "66e5f2c5"
				}
			},
			"storageLayout": {
				"storage": [
					{
						"astId": 1257,
						"contract": "backend/src/voting.sol:Voting",
						"label": "govToken",
						"offset": 0,
						"slot": "0",
						"type": "t_contract(FunderGovToken)1250"
					},
					{
						"astId": 1260,
						"contract": "backend/src/voting.sol:Voting",
						"label": "funder",
						"offset": 0,
						"slot": "1",
						"type": "t_contract(Funder)560"
					},
					{
						"astId": 1262,
						"contract": "backend/src/voting.sol:Voting",
						"label": "aYesVote",
						"offset": 0,
						"slot": "2",
						"type": "t_uint256"
					},
					{
						"astId": 1265,
						"contract": "backend/src/voting.sol:Voting",
						"label": "MINIMUMAPPROVAL",
						"offset": 0,
						"slot": "3",
						"type": "t_uint256"
					},
					{
						"astId": 1271,
						"contract": "backend/src/voting.sol:Voting",
						"label": "govVote",
						"offset": 0,
						"slot": "4",
						"type": "t_mapping(t_address,t_mapping(t_address,t_bool))"
					},
					{
						"astId": 1277,
						"contract": "backend/src/voting.sol:Voting",
						"label": "govVoteCount",
						"offset": 0,
						"slot": "5",
						"type": "t_mapping(t_address,t_mapping(t_address,t_uint256))"
					}
				],
				"types": {
					"t_address": {
						"encoding": "inplace",
						"label": "address",
						"numberOfBytes": "20"
					},
					"t_bool": {
						"encoding": "inplace",
						"label": "bool",
						"numberOfBytes": "1"
					},
					"t_contract(Funder)560": {
						"encoding": "inplace",
						"label": "contract Funder",
						"numberOfBytes": "20"
					},
					"t_contract(FunderGovToken)1250": {
						"encoding": "inplace",
						"label": "contract FunderGovToken",
						"numberOfBytes": "20"
					},
					"t_mapping(t_address,t_bool)": {
						"encoding": "mapping",
						"key": "t_address",
						"label": "mapping(address => bool)",
						"numberOfBytes": "32",
						"value": "t_bool"
					},
					"t_mapping(t_address,t_mapping(t_address,t_bool))": {
						"encoding": "mapping",
						"key": "t_address",
						"label": "mapping(address => mapping(address => bool))",
						"numberOfBytes": "32",
						"value": "t_mapping(t_address,t_bool)"
					},
					"t_mapping(t_address,t_mapping(t_address,t_uint256))": {
						"encoding": "mapping",
						"key": "t_address",
						"label": "mapping(address => mapping(address => uint256))",
						"numberOfBytes": "32",
						"value": "t_mapping(t_address,t_uint256)"
					},
					"t_mapping(t_address,t_uint256)": {
						"encoding": "mapping",
						"key": "t_address",
						"label": "mapping(address => uint256)",
						"numberOfBytes": "32",
						"value": "t_uint256"
					},
					"t_uint256": {
						"encoding": "inplace",
						"label": "uint256",
						"numberOfBytes": "32"
					}
				}
			},
			"userdoc": {
				"kind": "user",
				"methods": {},
				"version": 1
			}
		}
	}
}