{
	"backend/src/funderGovToken.sol": {
		"FunderGovToken": {
			"abi": [
				{
					"inputs": [
						{
							"internalType": "string",
							"name": "name_",
							"type": "string"
						},
						{
							"internalType": "string",
							"name": "symbol_",
							"type": "string"
						},
						{
							"internalType": "contract Voting",
							"name": "_vote",
							"type": "address"
						}
					],
					"stateMutability": "nonpayable",
					"type": "constructor"
				},
				{
					"anonymous": false,
					"inputs": [
						{
							"indexed": true,
							"internalType": "address",
							"name": "owner",
							"type": "address"
						},
						{
							"indexed": true,
							"internalType": "address",
							"name": "spender",
							"type": "address"
						},
						{
							"indexed": false,
							"internalType": "uint256",
							"name": "value",
							"type": "uint256"
						}
					],
					"name": "Approval",
					"type": "event"
				},
				{
					"anonymous": false,
					"inputs": [
						{
							"indexed": true,
							"internalType": "address",
							"name": "from",
							"type": "address"
						},
						{
							"indexed": true,
							"internalType": "address",
							"name": "to",
							"type": "address"
						},
						{
							"indexed": false,
							"internalType": "uint256",
							"name": "value",
							"type": "uint256"
						}
					],
					"name": "Transfer",
					"type": "event"
				},
				{
					"inputs": [
						{
							"internalType": "address",
							"name": "owner",
							"type": "address"
						},
						{
							"internalType": "address",
							"name": "spender",
							"type": "address"
						}
					],
					"name": "allowance",
					"outputs": [
						{
							"internalType": "uint256",
							"name": "",
							"type": "uint256"
						}
					],
					"stateMutability": "view",
					"type": "function"
				},
				{
					"inputs": [
						{
							"internalType": "address",
							"name": "spender",
							"type": "address"
						},
						{
							"internalType": "uint256",
							"name": "amount",
							"type": "uint256"
						}
					],
					"name": "approve",
					"outputs": [
						{
							"internalType": "bool",
							"name": "",
							"type": "bool"
						}
					],
					"stateMutability": "nonpayable",
					"type": "function"
				},
				{
					"inputs": [
						{
							"internalType": "address",
							"name": "account",
							"type": "address"
						}
					],
					"name": "balanceOf",
					"outputs": [
						{
							"internalType": "uint256",
							"name": "",
							"type": "uint256"
						}
					],
					"stateMutability": "view",
					"type": "function"
				},
				{
					"inputs": [],
					"name": "decimals",
					"outputs": [
						{
							"internalType": "uint8",
							"name": "",
							"type": "uint8"
						}
					],
					"stateMutability": "view",
					"type": "function"
				},
				{
					"inputs": [
						{
							"internalType": "address",
							"name": "spender",
							"type": "address"
						},
						{
							"internalType": "uint256",
							"name": "subtractedValue",
							"type": "uint256"
						}
					],
					"name": "decreaseAllowance",
					"outputs": [
						{
							"internalType": "bool",
							"name": "",
							"type": "bool"
						}
					],
					"stateMutability": "nonpayable",
					"type": "function"
				},
				{
					"inputs": [
						{
							"internalType": "address",
							"name": "spender",
							"type": "address"
						},
						{
							"internalType": "uint256",
							"name": "addedValue",
							"type": "uint256"
						}
					],
					"name": "increaseAllowance",
					"outputs": [
						{
							"internalType": "bool",
							"name": "",
							"type": "bool"
						}
					],
					"stateMutability": "nonpayable",
					"type": "function"
				},
				{
					"inputs": [
						{
							"internalType": "uint256",
							"name": "_amount",
							"type": "uint256"
						},
						{
							"internalType": "address",
							"name": "castVote",
							"type": "address"
						}
					],
					"name": "lockToken",
					"outputs": [],
					"stateMutability": "nonpayable",
					"type": "function"
				},
				{
					"inputs": [],
					"name": "name",
					"outputs": [
						{
							"internalType": "string",
							"name": "",
							"type": "string"
						}
					],
					"stateMutability": "view",
					"type": "function"
				},
				{
					"inputs": [],
					"name": "symbol",
					"outputs": [
						{
							"internalType": "string",
							"name": "",
							"type": "string"
						}
					],
					"stateMutability": "view",
					"type": "function"
				},
				{
					"inputs": [],
					"name": "totalSupply",
					"outputs": [
						{
							"internalType": "uint256",
							"name": "",
							"type": "uint256"
						}
					],
					"stateMutability": "view",
					"type": "function"
				},
				{
					"inputs": [
						{
							"internalType": "address",
							"name": "to",
							"type": "address"
						},
						{
							"internalType": "uint256",
							"name": "amount",
							"type": "uint256"
						}
					],
					"name": "transfer",
					"outputs": [
						{
							"internalType": "bool",
							"name": "",
							"type": "bool"
						}
					],
					"stateMutability": "nonpayable",
					"type": "function"
				},
				{
					"inputs": [
						{
							"internalType": "address",
							"name": "from",
							"type": "address"
						},
						{
							"internalType": "address",
							"name": "to",
							"type": "address"
						},
						{
							"internalType": "uint256",
							"name": "amount",
							"type": "uint256"
						}
					],
					"name": "transferFrom",
					"outputs": [
						{
							"internalType": "bool",
							"name": "",
							"type": "bool"
						}
					],
					"stateMutability": "nonpayable",
					"type": "function"
				},
				{
					"inputs": [
						{
							"internalType": "address",
							"name": "castVote",
							"type": "address"
						}
					],
					"name": "unLockToken",
					"outputs": [],
					"stateMutability": "nonpayable",
					"type": "function"
				}
			],
			"devdoc": {
				"kind": "dev",
				"methods": {
					"allowance(address,address)": {
						"details": "See {IERC20-allowance}."
					},
					"approve(address,uint256)": {
						"details": "See {IERC20-approve}. NOTE: If `amount` is the maximum `uint256`, the allowance is not updated on `transferFrom`. This is semantically equivalent to an infinite approval. Requirements: - `spender` cannot be the zero address."
					},
					"balanceOf(address)": {
						"details": "See {IERC20-balanceOf}."
					},
					"constructor": {
						"details": "Sets the values for {name} and {symbol}. The default value of {decimals} is 18. To select a different value for {decimals} you should overload it. All two of these values are immutable: they can only be set once during construction."
					},
					"decimals()": {
						"details": "Returns the number of decimals used to get its user representation. For example, if `decimals` equals `2`, a balance of `505` tokens should be displayed to a user as `5.05` (`505 / 10 ** 2`). Tokens usually opt for a value of 18, imitating the relationship between Ether and Wei. This is the value {ERC20} uses, unless this function is overridden; NOTE: This information is only used for _display_ purposes: it in no way affects any of the arithmetic of the contract, including {IERC20-balanceOf} and {IERC20-transfer}."
					},
					"decreaseAllowance(address,uint256)": {
						"details": "Atomically decreases the allowance granted to `spender` by the caller. This is an alternative to {approve} that can be used as a mitigation for problems described in {IERC20-approve}. Emits an {Approval} event indicating the updated allowance. Requirements: - `spender` cannot be the zero address. - `spender` must have allowance for the caller of at least `subtractedValue`."
					},
					"increaseAllowance(address,uint256)": {
						"details": "Atomically increases the allowance granted to `spender` by the caller. This is an alternative to {approve} that can be used as a mitigation for problems described in {IERC20-approve}. Emits an {Approval} event indicating the updated allowance. Requirements: - `spender` cannot be the zero address."
					},
					"name()": {
						"details": "Returns the name of the token."
					},
					"symbol()": {
						"details": "Returns the symbol of the token, usually a shorter version of the name."
					},
					"totalSupply()": {
						"details": "See {IERC20-totalSupply}."
					},
					"transfer(address,uint256)": {
						"details": "Moves `amount` tokens from the caller's account to `to`. Returns a boolean value indicating whether the operation succeeded. Emits a {Transfer} event."
					},
					"transferFrom(address,address,uint256)": {
						"details": "See {IERC20-transferFrom}. Emits an {Approval} event indicating the updated allowance. This is not required by the EIP. See the note at the beginning of {ERC20}. NOTE: Does not update the allowance if the current allowance is the maximum `uint256`. Requirements: - `from` and `to` cannot be the zero address. - `from` must have a balance of at least `amount`. - the caller must have allowance for ``from``'s tokens of at least `amount`."
					}
				},
				"version": 1
			},
			"evm": {
				"assembly": "    /* \"backend/src/funderGovToken.sol\":262:12215  contract FunderGovToken is Context, IERC20, IERC20Metadata{... */\n  mstore(0x40, 0x80)\n    /* \"backend/src/funderGovToken.sol\":1079:1267  constructor(string memory name_, string memory symbol_, Voting _vote) {... */\n  callvalue\n  dup1\n  iszero\n  tag_1\n  jumpi\n  0x00\n  dup1\n  revert\ntag_1:\n  pop\n  mload(0x40)\n  sub(codesize, bytecodeSize)\n  dup1\n  bytecodeSize\n  dup4\n  codecopy\n  dup2\n  dup2\n  add\n  0x40\n  mstore\n  dup2\n  add\n  swap1\n  tag_2\n  swap2\n  swap1\n  tag_3\n  jump\t// in\ntag_2:\n    /* \"backend/src/funderGovToken.sol\":1166:1171  _vote */\n  dup1\n    /* \"backend/src/funderGovToken.sol\":1159:1163  vote */\n  0x03\n  0x00\n    /* \"backend/src/funderGovToken.sol\":1159:1171  vote = _vote */\n  0x0100\n  exp\n  dup2\n  sload\n  dup2\n  0xffffffffffffffffffffffffffffffffffffffff\n  mul\n  not\n  and\n  swap1\n  dup4\n  0xffffffffffffffffffffffffffffffffffffffff\n  and\n  mul\n  or\n  swap1\n  sstore\n  pop\n    /* \"backend/src/funderGovToken.sol\":1189:1194  name_ */\n  dup3\n    /* \"backend/src/funderGovToken.sol\":1181:1186  _name */\n  0x01\n    /* \"backend/src/funderGovToken.sol\":1181:1194  _name = name_ */\n  swap1\n  dup1\n  mload\n  swap1\n  0x20\n  add\n  swap1\n  tag_6\n  swap3\n  swap2\n  swap1\n  tag_7\n  jump\t// in\ntag_6:\n  pop\n    /* \"backend/src/funderGovToken.sol\":1214:1221  symbol_ */\n  dup2\n    /* \"backend/src/funderGovToken.sol\":1204:1211  _symbol */\n  0x02\n    /* \"backend/src/funderGovToken.sol\":1204:1221  _symbol = symbol_ */\n  swap1\n  dup1\n  mload\n  swap1\n  0x20\n  add\n  swap1\n  tag_8\n  swap3\n  swap2\n  swap1\n  tag_7\n  jump\t// in\ntag_8:\n  pop\n    /* \"backend/src/funderGovToken.sol\":1231:1260  _mint(msg.sender, 1000000e18) */\n  tag_9\n    /* \"backend/src/funderGovToken.sol\":1237:1247  msg.sender */\n  caller\n    /* \"backend/src/funderGovToken.sol\":1249:1259  1000000e18 */\n  0xd3c21bcecceda1000000\n    /* \"backend/src/funderGovToken.sol\":1231:1236  _mint */\n  shl(0x20, tag_10)\n    /* \"backend/src/funderGovToken.sol\":1231:1260  _mint(msg.sender, 1000000e18) */\n  0x20\n  shr\n  jump\t// in\ntag_9:\n    /* \"backend/src/funderGovToken.sol\":1079:1267  constructor(string memory name_, string memory symbol_, Voting _vote) {... */\n  pop\n  pop\n  pop\n    /* \"backend/src/funderGovToken.sol\":262:12215  contract FunderGovToken is Context, IERC20, IERC20Metadata{... */\n  jump(tag_11)\n    /* \"backend/src/funderGovToken.sol\":7997:8386  function _mint(address account, uint256 amount) internal virtual {... */\ntag_10:\n    /* \"backend/src/funderGovToken.sol\":8099:8100  0 */\n  0x00\n    /* \"backend/src/funderGovToken.sol\":8080:8101  account != address(0) */\n  0xffffffffffffffffffffffffffffffffffffffff\n  and\n    /* \"backend/src/funderGovToken.sol\":8080:8087  account */\n  dup3\n    /* \"backend/src/funderGovToken.sol\":8080:8101  account != address(0) */\n  0xffffffffffffffffffffffffffffffffffffffff\n  and\n  eq\n  iszero\n    /* \"backend/src/funderGovToken.sol\":8072:8137  require(account != address(0), \"ERC20: mint to the zero address\") */\n  tag_13\n  jumpi\n  mload(0x40)\n  0x08c379a000000000000000000000000000000000000000000000000000000000\n  dup2\n  mstore\n  0x04\n  add\n  tag_14\n  swap1\n  tag_15\n  jump\t// in\ntag_14:\n  mload(0x40)\n  dup1\n  swap2\n  sub\n  swap1\n  revert\ntag_13:\n    /* \"backend/src/funderGovToken.sol\":8148:8197  _beforeTokenTransfer(address(0), account, amount) */\n  tag_16\n    /* \"backend/src/funderGovToken.sol\":8177:8178  0 */\n  0x00\n    /* \"backend/src/funderGovToken.sol\":8181:8188  account */\n  dup4\n    /* \"backend/src/funderGovToken.sol\":8190:8196  amount */\n  dup4\n    /* \"backend/src/funderGovToken.sol\":8148:8168  _beforeTokenTransfer */\n  shl(0x20, tag_17)\n    /* \"backend/src/funderGovToken.sol\":8148:8197  _beforeTokenTransfer(address(0), account, amount) */\n  0x20\n  shr\n  jump\t// in\ntag_16:\n    /* \"backend/src/funderGovToken.sol\":8224:8230  amount */\n  dup1\n    /* \"backend/src/funderGovToken.sol\":8208:8220  _totalSupply */\n  0x00\n  dup1\n    /* \"backend/src/funderGovToken.sol\":8208:8230  _totalSupply += amount */\n  dup3\n  dup3\n  sload\n  tag_18\n  swap2\n  swap1\n  tag_19\n  jump\t// in\ntag_18:\n  swap3\n  pop\n  pop\n  dup2\n  swap1\n  sstore\n  pop\n    /* \"backend/src/funderGovToken.sol\":8262:8268  amount */\n  dup1\n    /* \"backend/src/funderGovToken.sol\":8240:8249  _balances */\n  0x05\n    /* \"backend/src/funderGovToken.sol\":8240:8258  _balances[account] */\n  0x00\n    /* \"backend/src/funderGovToken.sol\":8250:8257  account */\n  dup5\n    /* \"backend/src/funderGovToken.sol\":8240:8258  _balances[account] */\n  0xffffffffffffffffffffffffffffffffffffffff\n  and\n  0xffffffffffffffffffffffffffffffffffffffff\n  and\n  dup2\n  mstore\n  0x20\n  add\n  swap1\n  dup2\n  mstore\n  0x20\n  add\n  0x00\n  keccak256\n  0x00\n    /* \"backend/src/funderGovToken.sol\":8240:8268  _balances[account] += amount */\n  dup3\n  dup3\n  sload\n  tag_20\n  swap2\n  swap1\n  tag_19\n  jump\t// in\ntag_20:\n  swap3\n  pop\n  pop\n  dup2\n  swap1\n  sstore\n  pop\n    /* \"backend/src/funderGovToken.sol\":8304:8311  account */\n  dup2\n    /* \"backend/src/funderGovToken.sol\":8283:8320  Transfer(address(0), account, amount) */\n  0xffffffffffffffffffffffffffffffffffffffff\n  and\n    /* \"backend/src/funderGovToken.sol\":8300:8301  0 */\n  0x00\n    /* \"backend/src/funderGovToken.sol\":8283:8320  Transfer(address(0), account, amount) */\n  0xffffffffffffffffffffffffffffffffffffffff\n  and\n  0xddf252ad1be2c89b69c2b068fc378daa952ba7f163c4a11628f55a4df523b3ef\n    /* \"backend/src/funderGovToken.sol\":8313:8319  amount */\n  dup4\n    /* \"backend/src/funderGovToken.sol\":8283:8320  Transfer(address(0), account, amount) */\n  mload(0x40)\n  tag_21\n  swap2\n  swap1\n  tag_22\n  jump\t// in\ntag_21:\n  mload(0x40)\n  dup1\n  swap2\n  sub\n  swap1\n  log3\n    /* \"backend/src/funderGovToken.sol\":8331:8379  _afterTokenTransfer(address(0), account, amount) */\n  tag_23\n    /* \"backend/src/funderGovToken.sol\":8359:8360  0 */\n  0x00\n    /* \"backend/src/funderGovToken.sol\":8363:8370  account */\n  dup4\n    /* \"backend/src/funderGovToken.sol\":8372:8378  amount */\n  dup4\n    /* \"backend/src/funderGovToken.sol\":8331:8350  _afterTokenTransfer */\n  shl(0x20, tag_24)\n    /* \"backend/src/funderGovToken.sol\":8331:8379  _afterTokenTransfer(address(0), account, amount) */\n  0x20\n  shr\n  jump\t// in\ntag_23:\n    /* \"backend/src/funderGovToken.sol\":7997:8386  function _mint(address account, uint256 amount) internal virtual {... */\n  pop\n  pop\n  jump\t// out\n    /* \"backend/src/funderGovToken.sol\":11381:11502  function _beforeTokenTransfer(... */\ntag_17:\n  pop\n  pop\n  pop\n  jump\t// out\n    /* \"backend/src/funderGovToken.sol\":12090:12210  function _afterTokenTransfer(... */\ntag_24:\n  pop\n  pop\n  pop\n  jump\t// out\n    /* \"backend/src/funderGovToken.sol\":262:12215  contract FunderGovToken is Context, IERC20, IERC20Metadata{... */\ntag_7:\n  dup3\n  dup1\n  sload\n  tag_27\n  swap1\n  tag_28\n  jump\t// in\ntag_27:\n  swap1\n  0x00\n  mstore\n  keccak256(0x00, 0x20)\n  swap1\n  0x1f\n  add\n  0x20\n  swap1\n  div\n  dup2\n  add\n  swap3\n  dup3\n  tag_30\n  jumpi\n  0x00\n  dup6\n  sstore\n  jump(tag_29)\ntag_30:\n  dup3\n  0x1f\n  lt\n  tag_31\n  jumpi\n  dup1\n  mload\n  not(0xff)\n  and\n  dup4\n  dup1\n  add\n  or\n  dup6\n  sstore\n  jump(tag_29)\ntag_31:\n  dup3\n  dup1\n  add\n  0x01\n  add\n  dup6\n  sstore\n  dup3\n  iszero\n  tag_29\n  jumpi\n  swap2\n  dup3\n  add\ntag_32:\n  dup3\n  dup2\n  gt\n  iszero\n  tag_33\n  jumpi\n  dup3\n  mload\n  dup3\n  sstore\n  swap2\n  0x20\n  add\n  swap2\n  swap1\n  0x01\n  add\n  swap1\n  jump(tag_32)\ntag_33:\ntag_29:\n  pop\n  swap1\n  pop\n  tag_34\n  swap2\n  swap1\n  tag_35\n  jump\t// in\ntag_34:\n  pop\n  swap1\n  jump\t// out\ntag_35:\ntag_36:\n  dup1\n  dup3\n  gt\n  iszero\n  tag_37\n  jumpi\n  0x00\n  dup2\n  0x00\n  swap1\n  sstore\n  pop\n  0x01\n  add\n  jump(tag_36)\ntag_37:\n  pop\n  swap1\n  jump\t// out\n    /* \"#utility.yul\":7:82   */\ntag_38:\n    /* \"#utility.yul\":40:46   */\n  0x00\n    /* \"#utility.yul\":73:75   */\n  0x40\n    /* \"#utility.yul\":67:76   */\n  mload\n    /* \"#utility.yul\":57:76   */\n  swap1\n  pop\n    /* \"#utility.yul\":7:82   */\n  swap1\n  jump\t// out\n    /* \"#utility.yul\":88:205   */\ntag_39:\n    /* \"#utility.yul\":197:198   */\n  0x00\n    /* \"#utility.yul\":194:195   */\n  dup1\n    /* \"#utility.yul\":187:199   */\n  revert\n    /* \"#utility.yul\":211:328   */\ntag_40:\n    /* \"#utility.yul\":320:321   */\n  0x00\n    /* \"#utility.yul\":317:318   */\n  dup1\n    /* \"#utility.yul\":310:322   */\n  revert\n    /* \"#utility.yul\":334:451   */\ntag_41:\n    /* \"#utility.yul\":443:444   */\n  0x00\n    /* \"#utility.yul\":440:441   */\n  dup1\n    /* \"#utility.yul\":433:445   */\n  revert\n    /* \"#utility.yul\":457:574   */\ntag_42:\n    /* \"#utility.yul\":566:567   */\n  0x00\n    /* \"#utility.yul\":563:564   */\n  dup1\n    /* \"#utility.yul\":556:568   */\n  revert\n    /* \"#utility.yul\":580:682   */\ntag_43:\n    /* \"#utility.yul\":621:627   */\n  0x00\n    /* \"#utility.yul\":672:674   */\n  0x1f\n    /* \"#utility.yul\":668:675   */\n  not\n    /* \"#utility.yul\":663:665   */\n  0x1f\n    /* \"#utility.yul\":656:661   */\n  dup4\n    /* \"#utility.yul\":652:666   */\n  add\n    /* \"#utility.yul\":648:676   */\n  and\n    /* \"#utility.yul\":638:676   */\n  swap1\n  pop\n    /* \"#utility.yul\":580:682   */\n  swap2\n  swap1\n  pop\n  jump\t// out\n    /* \"#utility.yul\":688:868   */\ntag_44:\n    /* \"#utility.yul\":736:813   */\n  0x4e487b7100000000000000000000000000000000000000000000000000000000\n    /* \"#utility.yul\":733:734   */\n  0x00\n    /* \"#utility.yul\":726:814   */\n  mstore\n    /* \"#utility.yul\":833:837   */\n  0x41\n    /* \"#utility.yul\":830:831   */\n  0x04\n    /* \"#utility.yul\":823:838   */\n  mstore\n    /* \"#utility.yul\":857:861   */\n  0x24\n    /* \"#utility.yul\":854:855   */\n  0x00\n    /* \"#utility.yul\":847:862   */\n  revert\n    /* \"#utility.yul\":874:1155   */\ntag_45:\n    /* \"#utility.yul\":957:984   */\n  tag_72\n    /* \"#utility.yul\":979:983   */\n  dup3\n    /* \"#utility.yul\":957:984   */\n  tag_43\n  jump\t// in\ntag_72:\n    /* \"#utility.yul\":949:955   */\n  dup2\n    /* \"#utility.yul\":945:985   */\n  add\n    /* \"#utility.yul\":1087:1093   */\n  dup2\n    /* \"#utility.yul\":1075:1085   */\n  dup2\n    /* \"#utility.yul\":1072:1094   */\n  lt\n    /* \"#utility.yul\":1051:1069   */\n  0xffffffffffffffff\n    /* \"#utility.yul\":1039:1049   */\n  dup3\n    /* \"#utility.yul\":1036:1070   */\n  gt\n    /* \"#utility.yul\":1033:1095   */\n  or\n    /* \"#utility.yul\":1030:1118   */\n  iszero\n  tag_73\n  jumpi\n    /* \"#utility.yul\":1098:1116   */\n  tag_74\n  tag_44\n  jump\t// in\ntag_74:\n    /* \"#utility.yul\":1030:1118   */\ntag_73:\n    /* \"#utility.yul\":1138:1148   */\n  dup1\n    /* \"#utility.yul\":1134:1136   */\n  0x40\n    /* \"#utility.yul\":1127:1149   */\n  mstore\n    /* \"#utility.yul\":917:1155   */\n  pop\n    /* \"#utility.yul\":874:1155   */\n  pop\n  pop\n  jump\t// out\n    /* \"#utility.yul\":1161:1290   */\ntag_46:\n    /* \"#utility.yul\":1195:1201   */\n  0x00\n    /* \"#utility.yul\":1222:1242   */\n  tag_76\n  tag_38\n  jump\t// in\ntag_76:\n    /* \"#utility.yul\":1212:1242   */\n  swap1\n  pop\n    /* \"#utility.yul\":1251:1284   */\n  tag_77\n    /* \"#utility.yul\":1279:1283   */\n  dup3\n    /* \"#utility.yul\":1271:1277   */\n  dup3\n    /* \"#utility.yul\":1251:1284   */\n  tag_45\n  jump\t// in\ntag_77:\n    /* \"#utility.yul\":1161:1290   */\n  swap2\n  swap1\n  pop\n  jump\t// out\n    /* \"#utility.yul\":1296:1604   */\ntag_47:\n    /* \"#utility.yul\":1358:1362   */\n  0x00\n    /* \"#utility.yul\":1448:1466   */\n  0xffffffffffffffff\n    /* \"#utility.yul\":1440:1446   */\n  dup3\n    /* \"#utility.yul\":1437:1467   */\n  gt\n    /* \"#utility.yul\":1434:1490   */\n  iszero\n  tag_79\n  jumpi\n    /* \"#utility.yul\":1470:1488   */\n  tag_80\n  tag_44\n  jump\t// in\ntag_80:\n    /* \"#utility.yul\":1434:1490   */\ntag_79:\n    /* \"#utility.yul\":1508:1537   */\n  tag_81\n    /* \"#utility.yul\":1530:1536   */\n  dup3\n    /* \"#utility.yul\":1508:1537   */\n  tag_43\n  jump\t// in\ntag_81:\n    /* \"#utility.yul\":1500:1537   */\n  swap1\n  pop\n    /* \"#utility.yul\":1592:1596   */\n  0x20\n    /* \"#utility.yul\":1586:1590   */\n  dup2\n    /* \"#utility.yul\":1582:1597   */\n  add\n    /* \"#utility.yul\":1574:1597   */\n  swap1\n  pop\n    /* \"#utility.yul\":1296:1604   */\n  swap2\n  swap1\n  pop\n  jump\t// out\n    /* \"#utility.yul\":1610:1917   */\ntag_48:\n    /* \"#utility.yul\":1678:1679   */\n  0x00\n    /* \"#utility.yul\":1688:1801   */\ntag_83:\n    /* \"#utility.yul\":1702:1708   */\n  dup4\n    /* \"#utility.yul\":1699:1700   */\n  dup2\n    /* \"#utility.yul\":1696:1709   */\n  lt\n    /* \"#utility.yul\":1688:1801   */\n  iszero\n  tag_85\n  jumpi\n    /* \"#utility.yul\":1787:1788   */\n  dup1\n    /* \"#utility.yul\":1782:1785   */\n  dup3\n    /* \"#utility.yul\":1778:1789   */\n  add\n    /* \"#utility.yul\":1772:1790   */\n  mload\n    /* \"#utility.yul\":1768:1769   */\n  dup2\n    /* \"#utility.yul\":1763:1766   */\n  dup5\n    /* \"#utility.yul\":1759:1770   */\n  add\n    /* \"#utility.yul\":1752:1791   */\n  mstore\n    /* \"#utility.yul\":1724:1726   */\n  0x20\n    /* \"#utility.yul\":1721:1722   */\n  dup2\n    /* \"#utility.yul\":1717:1727   */\n  add\n    /* \"#utility.yul\":1712:1727   */\n  swap1\n  pop\n    /* \"#utility.yul\":1688:1801   */\n  jump(tag_83)\ntag_85:\n    /* \"#utility.yul\":1819:1825   */\n  dup4\n    /* \"#utility.yul\":1816:1817   */\n  dup2\n    /* \"#utility.yul\":1813:1826   */\n  gt\n    /* \"#utility.yul\":1810:1911   */\n  iszero\n  tag_86\n  jumpi\n    /* \"#utility.yul\":1899:1900   */\n  0x00\n    /* \"#utility.yul\":1890:1896   */\n  dup5\n    /* \"#utility.yul\":1885:1888   */\n  dup5\n    /* \"#utility.yul\":1881:1897   */\n  add\n    /* \"#utility.yul\":1874:1901   */\n  mstore\n    /* \"#utility.yul\":1810:1911   */\ntag_86:\n    /* \"#utility.yul\":1659:1917   */\n  pop\n    /* \"#utility.yul\":1610:1917   */\n  pop\n  pop\n  pop\n  jump\t// out\n    /* \"#utility.yul\":1923:2344   */\ntag_49:\n    /* \"#utility.yul\":2012:2017   */\n  0x00\n    /* \"#utility.yul\":2037:2103   */\n  tag_88\n    /* \"#utility.yul\":2053:2102   */\n  tag_89\n    /* \"#utility.yul\":2095:2101   */\n  dup5\n    /* \"#utility.yul\":2053:2102   */\n  tag_47\n  jump\t// in\ntag_89:\n    /* \"#utility.yul\":2037:2103   */\n  tag_46\n  jump\t// in\ntag_88:\n    /* \"#utility.yul\":2028:2103   */\n  swap1\n  pop\n    /* \"#utility.yul\":2126:2132   */\n  dup3\n    /* \"#utility.yul\":2119:2124   */\n  dup2\n    /* \"#utility.yul\":2112:2133   */\n  mstore\n    /* \"#utility.yul\":2164:2168   */\n  0x20\n    /* \"#utility.yul\":2157:2162   */\n  dup2\n    /* \"#utility.yul\":2153:2169   */\n  add\n    /* \"#utility.yul\":2202:2205   */\n  dup5\n    /* \"#utility.yul\":2193:2199   */\n  dup5\n    /* \"#utility.yul\":2188:2191   */\n  dup5\n    /* \"#utility.yul\":2184:2200   */\n  add\n    /* \"#utility.yul\":2181:2206   */\n  gt\n    /* \"#utility.yul\":2178:2290   */\n  iszero\n  tag_90\n  jumpi\n    /* \"#utility.yul\":2209:2288   */\n  tag_91\n  tag_42\n  jump\t// in\ntag_91:\n    /* \"#utility.yul\":2178:2290   */\ntag_90:\n    /* \"#utility.yul\":2299:2338   */\n  tag_92\n    /* \"#utility.yul\":2331:2337   */\n  dup5\n    /* \"#utility.yul\":2326:2329   */\n  dup3\n    /* \"#utility.yul\":2321:2324   */\n  dup6\n    /* \"#utility.yul\":2299:2338   */\n  tag_48\n  jump\t// in\ntag_92:\n    /* \"#utility.yul\":2018:2344   */\n  pop\n    /* \"#utility.yul\":1923:2344   */\n  swap4\n  swap3\n  pop\n  pop\n  pop\n  jump\t// out\n    /* \"#utility.yul\":2364:2719   */\ntag_50:\n    /* \"#utility.yul\":2431:2436   */\n  0x00\n    /* \"#utility.yul\":2480:2483   */\n  dup3\n    /* \"#utility.yul\":2473:2477   */\n  0x1f\n    /* \"#utility.yul\":2465:2471   */\n  dup4\n    /* \"#utility.yul\":2461:2478   */\n  add\n    /* \"#utility.yul\":2457:2484   */\n  slt\n    /* \"#utility.yul\":2447:2569   */\n  tag_94\n  jumpi\n    /* \"#utility.yul\":2488:2567   */\n  tag_95\n  tag_41\n  jump\t// in\ntag_95:\n    /* \"#utility.yul\":2447:2569   */\ntag_94:\n    /* \"#utility.yul\":2598:2604   */\n  dup2\n    /* \"#utility.yul\":2592:2605   */\n  mload\n    /* \"#utility.yul\":2623:2713   */\n  tag_96\n    /* \"#utility.yul\":2709:2712   */\n  dup5\n    /* \"#utility.yul\":2701:2707   */\n  dup3\n    /* \"#utility.yul\":2694:2698   */\n  0x20\n    /* \"#utility.yul\":2686:2692   */\n  dup7\n    /* \"#utility.yul\":2682:2699   */\n  add\n    /* \"#utility.yul\":2623:2713   */\n  tag_49\n  jump\t// in\ntag_96:\n    /* \"#utility.yul\":2614:2713   */\n  swap2\n  pop\n    /* \"#utility.yul\":2437:2719   */\n  pop\n    /* \"#utility.yul\":2364:2719   */\n  swap3\n  swap2\n  pop\n  pop\n  jump\t// out\n    /* \"#utility.yul\":2725:2851   */\ntag_51:\n    /* \"#utility.yul\":2762:2769   */\n  0x00\n    /* \"#utility.yul\":2802:2844   */\n  0xffffffffffffffffffffffffffffffffffffffff\n    /* \"#utility.yul\":2795:2800   */\n  dup3\n    /* \"#utility.yul\":2791:2845   */\n  and\n    /* \"#utility.yul\":2780:2845   */\n  swap1\n  pop\n    /* \"#utility.yul\":2725:2851   */\n  swap2\n  swap1\n  pop\n  jump\t// out\n    /* \"#utility.yul\":2857:2953   */\ntag_52:\n    /* \"#utility.yul\":2894:2901   */\n  0x00\n    /* \"#utility.yul\":2923:2947   */\n  tag_99\n    /* \"#utility.yul\":2941:2946   */\n  dup3\n    /* \"#utility.yul\":2923:2947   */\n  tag_51\n  jump\t// in\ntag_99:\n    /* \"#utility.yul\":2912:2947   */\n  swap1\n  pop\n    /* \"#utility.yul\":2857:2953   */\n  swap2\n  swap1\n  pop\n  jump\t// out\n    /* \"#utility.yul\":2959:3070   */\ntag_53:\n    /* \"#utility.yul\":3011:3018   */\n  0x00\n    /* \"#utility.yul\":3040:3064   */\n  tag_101\n    /* \"#utility.yul\":3058:3063   */\n  dup3\n    /* \"#utility.yul\":3040:3064   */\n  tag_52\n  jump\t// in\ntag_101:\n    /* \"#utility.yul\":3029:3064   */\n  swap1\n  pop\n    /* \"#utility.yul\":2959:3070   */\n  swap2\n  swap1\n  pop\n  jump\t// out\n    /* \"#utility.yul\":3076:3228   */\ntag_54:\n    /* \"#utility.yul\":3164:3203   */\n  tag_103\n    /* \"#utility.yul\":3197:3202   */\n  dup2\n    /* \"#utility.yul\":3164:3203   */\n  tag_53\n  jump\t// in\ntag_103:\n    /* \"#utility.yul\":3157:3162   */\n  dup2\n    /* \"#utility.yul\":3154:3204   */\n  eq\n    /* \"#utility.yul\":3144:3222   */\n  tag_104\n  jumpi\n    /* \"#utility.yul\":3218:3219   */\n  0x00\n    /* \"#utility.yul\":3215:3216   */\n  dup1\n    /* \"#utility.yul\":3208:3220   */\n  revert\n    /* \"#utility.yul\":3144:3222   */\ntag_104:\n    /* \"#utility.yul\":3076:3228   */\n  pop\n  jump\t// out\n    /* \"#utility.yul\":3234:3407   */\ntag_55:\n    /* \"#utility.yul\":3306:3311   */\n  0x00\n    /* \"#utility.yul\":3337:3343   */\n  dup2\n    /* \"#utility.yul\":3331:3344   */\n  mload\n    /* \"#utility.yul\":3322:3344   */\n  swap1\n  pop\n    /* \"#utility.yul\":3353:3401   */\n  tag_106\n    /* \"#utility.yul\":3395:3400   */\n  dup2\n    /* \"#utility.yul\":3353:3401   */\n  tag_54\n  jump\t// in\ntag_106:\n    /* \"#utility.yul\":3234:3407   */\n  swap3\n  swap2\n  pop\n  pop\n  jump\t// out\n    /* \"#utility.yul\":3413:4452   */\ntag_3:\n    /* \"#utility.yul\":3536:3542   */\n  0x00\n    /* \"#utility.yul\":3544:3550   */\n  dup1\n    /* \"#utility.yul\":3552:3558   */\n  0x00\n    /* \"#utility.yul\":3601:3603   */\n  0x60\n    /* \"#utility.yul\":3589:3598   */\n  dup5\n    /* \"#utility.yul\":3580:3587   */\n  dup7\n    /* \"#utility.yul\":3576:3599   */\n  sub\n    /* \"#utility.yul\":3572:3604   */\n  slt\n    /* \"#utility.yul\":3569:3688   */\n  iszero\n  tag_108\n  jumpi\n    /* \"#utility.yul\":3607:3686   */\n  tag_109\n  tag_39\n  jump\t// in\ntag_109:\n    /* \"#utility.yul\":3569:3688   */\ntag_108:\n    /* \"#utility.yul\":3748:3749   */\n  0x00\n    /* \"#utility.yul\":3737:3746   */\n  dup5\n    /* \"#utility.yul\":3733:3750   */\n  add\n    /* \"#utility.yul\":3727:3751   */\n  mload\n    /* \"#utility.yul\":3778:3796   */\n  0xffffffffffffffff\n    /* \"#utility.yul\":3770:3776   */\n  dup2\n    /* \"#utility.yul\":3767:3797   */\n  gt\n    /* \"#utility.yul\":3764:3881   */\n  iszero\n  tag_110\n  jumpi\n    /* \"#utility.yul\":3800:3879   */\n  tag_111\n  tag_40\n  jump\t// in\ntag_111:\n    /* \"#utility.yul\":3764:3881   */\ntag_110:\n    /* \"#utility.yul\":3905:3979   */\n  tag_112\n    /* \"#utility.yul\":3971:3978   */\n  dup7\n    /* \"#utility.yul\":3962:3968   */\n  dup3\n    /* \"#utility.yul\":3951:3960   */\n  dup8\n    /* \"#utility.yul\":3947:3969   */\n  add\n    /* \"#utility.yul\":3905:3979   */\n  tag_50\n  jump\t// in\ntag_112:\n    /* \"#utility.yul\":3895:3979   */\n  swap4\n  pop\n    /* \"#utility.yul\":3698:3989   */\n  pop\n    /* \"#utility.yul\":4049:4051   */\n  0x20\n    /* \"#utility.yul\":4038:4047   */\n  dup5\n    /* \"#utility.yul\":4034:4052   */\n  add\n    /* \"#utility.yul\":4028:4053   */\n  mload\n    /* \"#utility.yul\":4080:4098   */\n  0xffffffffffffffff\n    /* \"#utility.yul\":4072:4078   */\n  dup2\n    /* \"#utility.yul\":4069:4099   */\n  gt\n    /* \"#utility.yul\":4066:4183   */\n  iszero\n  tag_113\n  jumpi\n    /* \"#utility.yul\":4102:4181   */\n  tag_114\n  tag_40\n  jump\t// in\ntag_114:\n    /* \"#utility.yul\":4066:4183   */\ntag_113:\n    /* \"#utility.yul\":4207:4281   */\n  tag_115\n    /* \"#utility.yul\":4273:4280   */\n  dup7\n    /* \"#utility.yul\":4264:4270   */\n  dup3\n    /* \"#utility.yul\":4253:4262   */\n  dup8\n    /* \"#utility.yul\":4249:4271   */\n  add\n    /* \"#utility.yul\":4207:4281   */\n  tag_50\n  jump\t// in\ntag_115:\n    /* \"#utility.yul\":4197:4281   */\n  swap3\n  pop\n    /* \"#utility.yul\":3999:4291   */\n  pop\n    /* \"#utility.yul\":4330:4332   */\n  0x40\n    /* \"#utility.yul\":4356:4435   */\n  tag_116\n    /* \"#utility.yul\":4427:4434   */\n  dup7\n    /* \"#utility.yul\":4418:4424   */\n  dup3\n    /* \"#utility.yul\":4407:4416   */\n  dup8\n    /* \"#utility.yul\":4403:4425   */\n  add\n    /* \"#utility.yul\":4356:4435   */\n  tag_55\n  jump\t// in\ntag_116:\n    /* \"#utility.yul\":4346:4435   */\n  swap2\n  pop\n    /* \"#utility.yul\":4301:4445   */\n  pop\n    /* \"#utility.yul\":3413:4452   */\n  swap3\n  pop\n  swap3\n  pop\n  swap3\n  jump\t// out\n    /* \"#utility.yul\":4458:4627   */\ntag_56:\n    /* \"#utility.yul\":4542:4553   */\n  0x00\n    /* \"#utility.yul\":4576:4582   */\n  dup3\n    /* \"#utility.yul\":4571:4574   */\n  dup3\n    /* \"#utility.yul\":4564:4583   */\n  mstore\n    /* \"#utility.yul\":4616:4620   */\n  0x20\n    /* \"#utility.yul\":4611:4614   */\n  dup3\n    /* \"#utility.yul\":4607:4621   */\n  add\n    /* \"#utility.yul\":4592:4621   */\n  swap1\n  pop\n    /* \"#utility.yul\":4458:4627   */\n  swap3\n  swap2\n  pop\n  pop\n  jump\t// out\n    /* \"#utility.yul\":4633:4814   */\ntag_57:\n    /* \"#utility.yul\":4773:4806   */\n  0x45524332303a206d696e7420746f20746865207a65726f206164647265737300\n    /* \"#utility.yul\":4769:4770   */\n  0x00\n    /* \"#utility.yul\":4761:4767   */\n  dup3\n    /* \"#utility.yul\":4757:4771   */\n  add\n    /* \"#utility.yul\":4750:4807   */\n  mstore\n    /* \"#utility.yul\":4633:4814   */\n  pop\n  jump\t// out\n    /* \"#utility.yul\":4820:5186   */\ntag_58:\n    /* \"#utility.yul\":4962:4965   */\n  0x00\n    /* \"#utility.yul\":4983:5050   */\n  tag_120\n    /* \"#utility.yul\":5047:5049   */\n  0x1f\n    /* \"#utility.yul\":5042:5045   */\n  dup4\n    /* \"#utility.yul\":4983:5050   */\n  tag_56\n  jump\t// in\ntag_120:\n    /* \"#utility.yul\":4976:5050   */\n  swap2\n  pop\n    /* \"#utility.yul\":5059:5152   */\n  tag_121\n    /* \"#utility.yul\":5148:5151   */\n  dup3\n    /* \"#utility.yul\":5059:5152   */\n  tag_57\n  jump\t// in\ntag_121:\n    /* \"#utility.yul\":5177:5179   */\n  0x20\n    /* \"#utility.yul\":5172:5175   */\n  dup3\n    /* \"#utility.yul\":5168:5180   */\n  add\n    /* \"#utility.yul\":5161:5180   */\n  swap1\n  pop\n    /* \"#utility.yul\":4820:5186   */\n  swap2\n  swap1\n  pop\n  jump\t// out\n    /* \"#utility.yul\":5192:5611   */\ntag_15:\n    /* \"#utility.yul\":5358:5362   */\n  0x00\n    /* \"#utility.yul\":5396:5398   */\n  0x20\n    /* \"#utility.yul\":5385:5394   */\n  dup3\n    /* \"#utility.yul\":5381:5399   */\n  add\n    /* \"#utility.yul\":5373:5399   */\n  swap1\n  pop\n    /* \"#utility.yul\":5445:5454   */\n  dup2\n    /* \"#utility.yul\":5439:5443   */\n  dup2\n    /* \"#utility.yul\":5435:5455   */\n  sub\n    /* \"#utility.yul\":5431:5432   */\n  0x00\n    /* \"#utility.yul\":5420:5429   */\n  dup4\n    /* \"#utility.yul\":5416:5433   */\n  add\n    /* \"#utility.yul\":5409:5456   */\n  mstore\n    /* \"#utility.yul\":5473:5604   */\n  tag_123\n    /* \"#utility.yul\":5599:5603   */\n  dup2\n    /* \"#utility.yul\":5473:5604   */\n  tag_58\n  jump\t// in\ntag_123:\n    /* \"#utility.yul\":5465:5604   */\n  swap1\n  pop\n    /* \"#utility.yul\":5192:5611   */\n  swap2\n  swap1\n  pop\n  jump\t// out\n    /* \"#utility.yul\":5617:5694   */\ntag_59:\n    /* \"#utility.yul\":5654:5661   */\n  0x00\n    /* \"#utility.yul\":5683:5688   */\n  dup2\n    /* \"#utility.yul\":5672:5688   */\n  swap1\n  pop\n    /* \"#utility.yul\":5617:5694   */\n  swap2\n  swap1\n  pop\n  jump\t// out\n    /* \"#utility.yul\":5700:5880   */\ntag_60:\n    /* \"#utility.yul\":5748:5825   */\n  0x4e487b7100000000000000000000000000000000000000000000000000000000\n    /* \"#utility.yul\":5745:5746   */\n  0x00\n    /* \"#utility.yul\":5738:5826   */\n  mstore\n    /* \"#utility.yul\":5845:5849   */\n  0x11\n    /* \"#utility.yul\":5842:5843   */\n  0x04\n    /* \"#utility.yul\":5835:5850   */\n  mstore\n    /* \"#utility.yul\":5869:5873   */\n  0x24\n    /* \"#utility.yul\":5866:5867   */\n  0x00\n    /* \"#utility.yul\":5859:5874   */\n  revert\n    /* \"#utility.yul\":5886:6191   */\ntag_19:\n    /* \"#utility.yul\":5926:5929   */\n  0x00\n    /* \"#utility.yul\":5945:5965   */\n  tag_127\n    /* \"#utility.yul\":5963:5964   */\n  dup3\n    /* \"#utility.yul\":5945:5965   */\n  tag_59\n  jump\t// in\ntag_127:\n    /* \"#utility.yul\":5940:5965   */\n  swap2\n  pop\n    /* \"#utility.yul\":5979:5999   */\n  tag_128\n    /* \"#utility.yul\":5997:5998   */\n  dup4\n    /* \"#utility.yul\":5979:5999   */\n  tag_59\n  jump\t// in\ntag_128:\n    /* \"#utility.yul\":5974:5999   */\n  swap3\n  pop\n    /* \"#utility.yul\":6133:6134   */\n  dup3\n    /* \"#utility.yul\":6065:6131   */\n  0xffffffffffffffffffffffffffffffffffffffffffffffffffffffffffffffff\n    /* \"#utility.yul\":6061:6135   */\n  sub\n    /* \"#utility.yul\":6058:6059   */\n  dup3\n    /* \"#utility.yul\":6055:6136   */\n  gt\n    /* \"#utility.yul\":6052:6159   */\n  iszero\n  tag_129\n  jumpi\n    /* \"#utility.yul\":6139:6157   */\n  tag_130\n  tag_60\n  jump\t// in\ntag_130:\n    /* \"#utility.yul\":6052:6159   */\ntag_129:\n    /* \"#utility.yul\":6183:6184   */\n  dup3\n    /* \"#utility.yul\":6180:6181   */\n  dup3\n    /* \"#utility.yul\":6176:6185   */\n  add\n    /* \"#utility.yul\":6169:6185   */\n  swap1\n  pop\n    /* \"#utility.yul\":5886:6191   */\n  swap3\n  swap2\n  pop\n  pop\n  jump\t// out\n    /* \"#utility.yul\":6197:6315   */\ntag_61:\n    /* \"#utility.yul\":6284:6308   */\n  tag_132\n    /* \"#utility.yul\":6302:6307   */\n  dup2\n    /* \"#utility.yul\":6284:6308   */\n  tag_59\n  jump\t// in\ntag_132:\n    /* \"#utility.yul\":6279:6282   */\n  dup3\n    /* \"#utility.yul\":6272:6309   */\n  mstore\n    /* \"#utility.yul\":6197:6315   */\n  pop\n  pop\n  jump\t// out\n    /* \"#utility.yul\":6321:6543   */\ntag_22:\n    /* \"#utility.yul\":6414:6418   */\n  0x00\n    /* \"#utility.yul\":6452:6454   */\n  0x20\n    /* \"#utility.yul\":6441:6450   */\n  dup3\n    /* \"#utility.yul\":6437:6455   */\n  add\n    /* \"#utility.yul\":6429:6455   */\n  swap1\n  pop\n    /* \"#utility.yul\":6465:6536   */\n  tag_134\n    /* \"#utility.yul\":6533:6534   */\n  0x00\n    /* \"#utility.yul\":6522:6531   */\n  dup4\n    /* \"#utility.yul\":6518:6535   */\n  add\n    /* \"#utility.yul\":6509:6515   */\n  dup5\n    /* \"#utility.yul\":6465:6536   */\n  tag_61\n  jump\t// in\ntag_134:\n    /* \"#utility.yul\":6321:6543   */\n  swap3\n  swap2\n  pop\n  pop\n  jump\t// out\n    /* \"#utility.yul\":6549:6729   */\ntag_62:\n    /* \"#utility.yul\":6597:6674   */\n  0x4e487b7100000000000000000000000000000000000000000000000000000000\n    /* \"#utility.yul\":6594:6595   */\n  0x00\n    /* \"#utility.yul\":6587:6675   */\n  mstore\n    /* \"#utility.yul\":6694:6698   */\n  0x22\n    /* \"#utility.yul\":6691:6692   */\n  0x04\n    /* \"#utility.yul\":6684:6699   */\n  mstore\n    /* \"#utility.yul\":6718:6722   */\n  0x24\n    /* \"#utility.yul\":6715:6716   */\n  0x00\n    /* \"#utility.yul\":6708:6723   */\n  revert\n    /* \"#utility.yul\":6735:7055   */\ntag_28:\n    /* \"#utility.yul\":6779:6785   */\n  0x00\n    /* \"#utility.yul\":6816:6817   */\n  0x02\n    /* \"#utility.yul\":6810:6814   */\n  dup3\n    /* \"#utility.yul\":6806:6818   */\n  div\n    /* \"#utility.yul\":6796:6818   */\n  swap1\n  pop\n    /* \"#utility.yul\":6863:6864   */\n  0x01\n    /* \"#utility.yul\":6857:6861   */\n  dup3\n    /* \"#utility.yul\":6853:6865   */\n  and\n    /* \"#utility.yul\":6884:6902   */\n  dup1\n    /* \"#utility.yul\":6874:6955   */\n  tag_137\n  jumpi\n    /* \"#utility.yul\":6940:6944   */\n  0x7f\n    /* \"#utility.yul\":6932:6938   */\n  dup3\n    /* \"#utility.yul\":6928:6945   */\n  and\n    /* \"#utility.yul\":6918:6945   */\n  swap2\n  pop\n    /* \"#utility.yul\":6874:6955   */\ntag_137:\n    /* \"#utility.yul\":7002:7004   */\n  0x20\n    /* \"#utility.yul\":6994:7000   */\n  dup3\n    /* \"#utility.yul\":6991:7005   */\n  lt\n    /* \"#utility.yul\":6971:6989   */\n  dup2\n    /* \"#utility.yul\":6968:7006   */\n  eq\n    /* \"#utility.yul\":6965:7049   */\n  iszero\n  tag_138\n  jumpi\n    /* \"#utility.yul\":7021:7039   */\n  tag_139\n  tag_62\n  jump\t// in\ntag_139:\n    /* \"#utility.yul\":6965:7049   */\ntag_138:\n    /* \"#utility.yul\":6786:7055   */\n  pop\n    /* \"#utility.yul\":6735:7055   */\n  swap2\n  swap1\n  pop\n  jump\t// out\n    /* \"backend/src/funderGovToken.sol\":262:12215  contract FunderGovToken is Context, IERC20, IERC20Metadata{... */\ntag_11:\n  dataSize(sub_0)\n  dup1\n  dataOffset(sub_0)\n  0x00\n  codecopy\n  0x00\n  return\nstop\n\nsub_0: assembly {\n        /* \"backend/src/funderGovToken.sol\":262:12215  contract FunderGovToken is Context, IERC20, IERC20Metadata{... */\n      mstore(0x40, 0x80)\n      callvalue\n      dup1\n      iszero\n      tag_1\n      jumpi\n      0x00\n      dup1\n      revert\n    tag_1:\n      pop\n      jumpi(tag_2, lt(calldatasize, 0x04))\n      shr(0xe0, calldataload(0x00))\n      dup1\n      0x70a08231\n      gt\n      tag_16\n      jumpi\n      dup1\n      0xa9059cbb\n      gt\n      tag_17\n      jumpi\n      dup1\n      0xa9059cbb\n      eq\n      tag_12\n      jumpi\n      dup1\n      0xbade9d84\n      eq\n      tag_13\n      jumpi\n      dup1\n      0xcec1460b\n      eq\n      tag_14\n      jumpi\n      dup1\n      0xdd62ed3e\n      eq\n      tag_15\n      jumpi\n      jump(tag_2)\n    tag_17:\n      dup1\n      0x70a08231\n      eq\n      tag_9\n      jumpi\n      dup1\n      0x95d89b41\n      eq\n      tag_10\n      jumpi\n      dup1\n      0xa457c2d7\n      eq\n      tag_11\n      jumpi\n      jump(tag_2)\n    tag_16:\n      dup1\n      0x06fdde03\n      eq\n      tag_3\n      jumpi\n      dup1\n      0x095ea7b3\n      eq\n      tag_4\n      jumpi\n      dup1\n      0x18160ddd\n      eq\n      tag_5\n      jumpi\n      dup1\n      0x23b872dd\n      eq\n      tag_6\n      jumpi\n      dup1\n      0x313ce567\n      eq\n      tag_7\n      jumpi\n      dup1\n      0x39509351\n      eq\n      tag_8\n      jumpi\n    tag_2:\n      0x00\n      dup1\n      revert\n        /* \"backend/src/funderGovToken.sol\":1392:1490  function name() public view virtual override returns (string memory) {... */\n    tag_3:\n      tag_18\n      tag_19\n      jump\t// in\n    tag_18:\n      mload(0x40)\n      tag_20\n      swap2\n      swap1\n      tag_21\n      jump\t// in\n    tag_20:\n      mload(0x40)\n      dup1\n      swap2\n      sub\n      swap1\n      return\n        /* \"backend/src/funderGovToken.sol\":3923:4120  function approve(address spender, uint256 amount) public virtual override returns (bool) {... */\n    tag_4:\n      tag_22\n      0x04\n      dup1\n      calldatasize\n      sub\n      dup2\n      add\n      swap1\n      tag_23\n      swap2\n      swap1\n      tag_24\n      jump\t// in\n    tag_23:\n      tag_25\n      jump\t// in\n    tag_22:\n      mload(0x40)\n      tag_26\n      swap2\n      swap1\n      tag_27\n      jump\t// in\n    tag_26:\n      mload(0x40)\n      dup1\n      swap2\n      sub\n      swap1\n      return\n        /* \"backend/src/funderGovToken.sol\":2481:2587  function totalSupply() public view virtual override returns (uint256) {... */\n    tag_5:\n      tag_28\n      tag_29\n      jump\t// in\n    tag_28:\n      mload(0x40)\n      tag_30\n      swap2\n      swap1\n      tag_31\n      jump\t// in\n    tag_30:\n      mload(0x40)\n      dup1\n      swap2\n      sub\n      swap1\n      return\n        /* \"backend/src/funderGovToken.sol\":4682:4968  function transferFrom(... */\n    tag_6:\n      tag_32\n      0x04\n      dup1\n      calldatasize\n      sub\n      dup2\n      add\n      swap1\n      tag_33\n      swap2\n      swap1\n      tag_34\n      jump\t// in\n    tag_33:\n      tag_35\n      jump\t// in\n    tag_32:\n      mload(0x40)\n      tag_36\n      swap2\n      swap1\n      tag_27\n      jump\t// in\n    tag_36:\n      mload(0x40)\n      dup1\n      swap2\n      sub\n      swap1\n      return\n        /* \"backend/src/funderGovToken.sol\":2330:2421  function decimals() public view virtual override returns (uint8) {... */\n    tag_7:\n      tag_37\n      tag_38\n      jump\t// in\n    tag_37:\n      mload(0x40)\n      tag_39\n      swap2\n      swap1\n      tag_40\n      jump\t// in\n    tag_39:\n      mload(0x40)\n      dup1\n      swap2\n      sub\n      swap1\n      return\n        /* \"backend/src/funderGovToken.sol\":5363:5597  function increaseAllowance(address spender, uint256 addedValue) public virtual returns (bool) {... */\n    tag_8:\n      tag_41\n      0x04\n      dup1\n      calldatasize\n      sub\n      dup2\n      add\n      swap1\n      tag_42\n      swap2\n      swap1\n      tag_24\n      jump\t// in\n    tag_42:\n      tag_43\n      jump\t// in\n    tag_41:\n      mload(0x40)\n      tag_44\n      swap2\n      swap1\n      tag_27\n      jump\t// in\n    tag_44:\n      mload(0x40)\n      dup1\n      swap2\n      sub\n      swap1\n      return\n        /* \"backend/src/funderGovToken.sol\":2645:2770  function balanceOf(address account) public view virtual override returns (uint256) {... */\n    tag_9:\n      tag_45\n      0x04\n      dup1\n      calldatasize\n      sub\n      dup2\n      add\n      swap1\n      tag_46\n      swap2\n      swap1\n      tag_47\n      jump\t// in\n    tag_46:\n      tag_48\n      jump\t// in\n    tag_45:\n      mload(0x40)\n      tag_49\n      swap2\n      swap1\n      tag_31\n      jump\t// in\n    tag_49:\n      mload(0x40)\n      dup1\n      swap2\n      sub\n      swap1\n      return\n        /* \"backend/src/funderGovToken.sol\":1603:1705  function symbol() public view virtual override returns (string memory) {... */\n    tag_10:\n      tag_50\n      tag_51\n      jump\t// in\n    tag_50:\n      mload(0x40)\n      tag_52\n      swap2\n      swap1\n      tag_21\n      jump\t// in\n    tag_52:\n      mload(0x40)\n      dup1\n      swap2\n      sub\n      swap1\n      return\n        /* \"backend/src/funderGovToken.sol\":6084:6511  function decreaseAllowance(address spender, uint256 subtractedValue) public virtual returns (bool) {... */\n    tag_11:\n      tag_53\n      0x04\n      dup1\n      calldatasize\n      sub\n      dup2\n      add\n      swap1\n      tag_54\n      swap2\n      swap1\n      tag_24\n      jump\t// in\n    tag_54:\n      tag_55\n      jump\t// in\n    tag_53:\n      mload(0x40)\n      tag_56\n      swap2\n      swap1\n      tag_27\n      jump\t// in\n    tag_56:\n      mload(0x40)\n      dup1\n      swap2\n      sub\n      swap1\n      return\n        /* \"backend/src/funderGovToken.sol\":3226:3407  function transfer(address to, uint256 amount) public override returns (bool) {... */\n    tag_12:\n      tag_57\n      0x04\n      dup1\n      calldatasize\n      sub\n      dup2\n      add\n      swap1\n      tag_58\n      swap2\n      swap1\n      tag_24\n      jump\t// in\n    tag_58:\n      tag_59\n      jump\t// in\n    tag_57:\n      mload(0x40)\n      tag_60\n      swap2\n      swap1\n      tag_27\n      jump\t// in\n    tag_60:\n      mload(0x40)\n      dup1\n      swap2\n      sub\n      swap1\n      return\n        /* \"backend/src/funderGovToken.sol\":2933:3219  function unLockToken(address castVote) external{... */\n    tag_13:\n      tag_61\n      0x04\n      dup1\n      calldatasize\n      sub\n      dup2\n      add\n      swap1\n      tag_62\n      swap2\n      swap1\n      tag_47\n      jump\t// in\n    tag_62:\n      tag_63\n      jump\t// in\n    tag_61:\n      stop\n        /* \"backend/src/funderGovToken.sol\":2774:2930  function lockToken(uint _amount, address castVote) public {... */\n    tag_14:\n      tag_64\n      0x04\n      dup1\n      calldatasize\n      sub\n      dup2\n      add\n      swap1\n      tag_65\n      swap2\n      swap1\n      tag_66\n      jump\t// in\n    tag_65:\n      tag_67\n      jump\t// in\n    tag_64:\n      stop\n        /* \"backend/src/funderGovToken.sol\":3466:3615  function allowance(address owner, address spender) public view virtual override returns (uint256) {... */\n    tag_15:\n      tag_68\n      0x04\n      dup1\n      calldatasize\n      sub\n      dup2\n      add\n      swap1\n      tag_69\n      swap2\n      swap1\n      tag_70\n      jump\t// in\n    tag_69:\n      tag_71\n      jump\t// in\n    tag_68:\n      mload(0x40)\n      tag_72\n      swap2\n      swap1\n      tag_31\n      jump\t// in\n    tag_72:\n      mload(0x40)\n      dup1\n      swap2\n      sub\n      swap1\n      return\n        /* \"backend/src/funderGovToken.sol\":1392:1490  function name() public view virtual override returns (string memory) {... */\n    tag_19:\n        /* \"backend/src/funderGovToken.sol\":1446:1459  string memory */\n      0x60\n        /* \"backend/src/funderGovToken.sol\":1478:1483  _name */\n      0x01\n        /* \"backend/src/funderGovToken.sol\":1471:1483  return _name */\n      dup1\n      sload\n      tag_74\n      swap1\n      tag_75\n      jump\t// in\n    tag_74:\n      dup1\n      0x1f\n      add\n      0x20\n      dup1\n      swap2\n      div\n      mul\n      0x20\n      add\n      mload(0x40)\n      swap1\n      dup2\n      add\n      0x40\n      mstore\n      dup1\n      swap3\n      swap2\n      swap1\n      dup2\n      dup2\n      mstore\n      0x20\n      add\n      dup3\n      dup1\n      sload\n      tag_76\n      swap1\n      tag_75\n      jump\t// in\n    tag_76:\n      dup1\n      iszero\n      tag_77\n      jumpi\n      dup1\n      0x1f\n      lt\n      tag_78\n      jumpi\n      0x0100\n      dup1\n      dup4\n      sload\n      div\n      mul\n      dup4\n      mstore\n      swap2\n      0x20\n      add\n      swap2\n      jump(tag_77)\n    tag_78:\n      dup3\n      add\n      swap2\n      swap1\n      0x00\n      mstore\n      keccak256(0x00, 0x20)\n      swap1\n    tag_79:\n      dup2\n      sload\n      dup2\n      mstore\n      swap1\n      0x01\n      add\n      swap1\n      0x20\n      add\n      dup1\n      dup4\n      gt\n      tag_79\n      jumpi\n      dup3\n      swap1\n      sub\n      0x1f\n      and\n      dup3\n      add\n      swap2\n    tag_77:\n      pop\n      pop\n      pop\n      pop\n      pop\n      swap1\n      pop\n        /* \"backend/src/funderGovToken.sol\":1392:1490  function name() public view virtual override returns (string memory) {... */\n      swap1\n      jump\t// out\n        /* \"backend/src/funderGovToken.sol\":3923:4120  function approve(address spender, uint256 amount) public virtual override returns (bool) {... */\n    tag_25:\n        /* \"backend/src/funderGovToken.sol\":4006:4010  bool */\n      0x00\n        /* \"backend/src/funderGovToken.sol\":4022:4035  address owner */\n      dup1\n        /* \"backend/src/funderGovToken.sol\":4038:4050  _msgSender() */\n      tag_81\n        /* \"backend/src/funderGovToken.sol\":4038:4048  _msgSender */\n      tag_82\n        /* \"backend/src/funderGovToken.sol\":4038:4050  _msgSender() */\n      jump\t// in\n    tag_81:\n        /* \"backend/src/funderGovToken.sol\":4022:4050  address owner = _msgSender() */\n      swap1\n      pop\n        /* \"backend/src/funderGovToken.sol\":4060:4092  _approve(owner, spender, amount) */\n      tag_83\n        /* \"backend/src/funderGovToken.sol\":4069:4074  owner */\n      dup2\n        /* \"backend/src/funderGovToken.sol\":4076:4083  spender */\n      dup6\n        /* \"backend/src/funderGovToken.sol\":4085:4091  amount */\n      dup6\n        /* \"backend/src/funderGovToken.sol\":4060:4068  _approve */\n      tag_84\n        /* \"backend/src/funderGovToken.sol\":4060:4092  _approve(owner, spender, amount) */\n      jump\t// in\n    tag_83:\n        /* \"backend/src/funderGovToken.sol\":4109:4113  true */\n      0x01\n        /* \"backend/src/funderGovToken.sol\":4102:4113  return true */\n      swap2\n      pop\n      pop\n        /* \"backend/src/funderGovToken.sol\":3923:4120  function approve(address spender, uint256 amount) public virtual override returns (bool) {... */\n      swap3\n      swap2\n      pop\n      pop\n      jump\t// out\n        /* \"backend/src/funderGovToken.sol\":2481:2587  function totalSupply() public view virtual override returns (uint256) {... */\n    tag_29:\n        /* \"backend/src/funderGovToken.sol\":2542:2549  uint256 */\n      0x00\n        /* \"backend/src/funderGovToken.sol\":2568:2580  _totalSupply */\n      dup1\n      sload\n        /* \"backend/src/funderGovToken.sol\":2561:2580  return _totalSupply */\n      swap1\n      pop\n        /* \"backend/src/funderGovToken.sol\":2481:2587  function totalSupply() public view virtual override returns (uint256) {... */\n      swap1\n      jump\t// out\n        /* \"backend/src/funderGovToken.sol\":4682:4968  function transferFrom(... */\n    tag_35:\n        /* \"backend/src/funderGovToken.sol\":4809:4813  bool */\n      0x00\n        /* \"backend/src/funderGovToken.sol\":4825:4840  address spender */\n      dup1\n        /* \"backend/src/funderGovToken.sol\":4843:4855  _msgSender() */\n      tag_87\n        /* \"backend/src/funderGovToken.sol\":4843:4853  _msgSender */\n      tag_82\n        /* \"backend/src/funderGovToken.sol\":4843:4855  _msgSender() */\n      jump\t// in\n    tag_87:\n        /* \"backend/src/funderGovToken.sol\":4825:4855  address spender = _msgSender() */\n      swap1\n      pop\n        /* \"backend/src/funderGovToken.sol\":4865:4903  _spendAllowance(from, spender, amount) */\n      tag_88\n        /* \"backend/src/funderGovToken.sol\":4881:4885  from */\n      dup6\n        /* \"backend/src/funderGovToken.sol\":4887:4894  spender */\n      dup3\n        /* \"backend/src/funderGovToken.sol\":4896:4902  amount */\n      dup6\n        /* \"backend/src/funderGovToken.sol\":4865:4880  _spendAllowance */\n      tag_89\n        /* \"backend/src/funderGovToken.sol\":4865:4903  _spendAllowance(from, spender, amount) */\n      jump\t// in\n    tag_88:\n        /* \"backend/src/funderGovToken.sol\":4913:4940  _transfer(from, to, amount) */\n      tag_90\n        /* \"backend/src/funderGovToken.sol\":4923:4927  from */\n      dup6\n        /* \"backend/src/funderGovToken.sol\":4929:4931  to */\n      dup6\n        /* \"backend/src/funderGovToken.sol\":4933:4939  amount */\n      dup6\n        /* \"backend/src/funderGovToken.sol\":4913:4922  _transfer */\n      tag_91\n        /* \"backend/src/funderGovToken.sol\":4913:4940  _transfer(from, to, amount) */\n      jump\t// in\n    tag_90:\n        /* \"backend/src/funderGovToken.sol\":4957:4961  true */\n      0x01\n        /* \"backend/src/funderGovToken.sol\":4950:4961  return true */\n      swap2\n      pop\n      pop\n        /* \"backend/src/funderGovToken.sol\":4682:4968  function transferFrom(... */\n      swap4\n      swap3\n      pop\n      pop\n      pop\n      jump\t// out\n        /* \"backend/src/funderGovToken.sol\":2330:2421  function decimals() public view virtual override returns (uint8) {... */\n    tag_38:\n        /* \"backend/src/funderGovToken.sol\":2388:2393  uint8 */\n      0x00\n        /* \"backend/src/funderGovToken.sol\":2412:2414  18 */\n      0x12\n        /* \"backend/src/funderGovToken.sol\":2405:2414  return 18 */\n      swap1\n      pop\n        /* \"backend/src/funderGovToken.sol\":2330:2421  function decimals() public view virtual override returns (uint8) {... */\n      swap1\n      jump\t// out\n        /* \"backend/src/funderGovToken.sol\":5363:5597  function increaseAllowance(address spender, uint256 addedValue) public virtual returns (bool) {... */\n    tag_43:\n        /* \"backend/src/funderGovToken.sol\":5451:5455  bool */\n      0x00\n        /* \"backend/src/funderGovToken.sol\":5467:5480  address owner */\n      dup1\n        /* \"backend/src/funderGovToken.sol\":5483:5495  _msgSender() */\n      tag_94\n        /* \"backend/src/funderGovToken.sol\":5483:5493  _msgSender */\n      tag_82\n        /* \"backend/src/funderGovToken.sol\":5483:5495  _msgSender() */\n      jump\t// in\n    tag_94:\n        /* \"backend/src/funderGovToken.sol\":5467:5495  address owner = _msgSender() */\n      swap1\n      pop\n        /* \"backend/src/funderGovToken.sol\":5505:5569  _approve(owner, spender, allowance(owner, spender) + addedValue) */\n      tag_95\n        /* \"backend/src/funderGovToken.sol\":5514:5519  owner */\n      dup2\n        /* \"backend/src/funderGovToken.sol\":5521:5528  spender */\n      dup6\n        /* \"backend/src/funderGovToken.sol\":5558:5568  addedValue */\n      dup6\n        /* \"backend/src/funderGovToken.sol\":5530:5555  allowance(owner, spender) */\n      tag_96\n        /* \"backend/src/funderGovToken.sol\":5540:5545  owner */\n      dup6\n        /* \"backend/src/funderGovToken.sol\":5547:5554  spender */\n      dup10\n        /* \"backend/src/funderGovToken.sol\":5530:5539  allowance */\n      tag_71\n        /* \"backend/src/funderGovToken.sol\":5530:5555  allowance(owner, spender) */\n      jump\t// in\n    tag_96:\n        /* \"backend/src/funderGovToken.sol\":5530:5568  allowance(owner, spender) + addedValue */\n      tag_97\n      swap2\n      swap1\n      tag_98\n      jump\t// in\n    tag_97:\n        /* \"backend/src/funderGovToken.sol\":5505:5513  _approve */\n      tag_84\n        /* \"backend/src/funderGovToken.sol\":5505:5569  _approve(owner, spender, allowance(owner, spender) + addedValue) */\n      jump\t// in\n    tag_95:\n        /* \"backend/src/funderGovToken.sol\":5586:5590  true */\n      0x01\n        /* \"backend/src/funderGovToken.sol\":5579:5590  return true */\n      swap2\n      pop\n      pop\n        /* \"backend/src/funderGovToken.sol\":5363:5597  function increaseAllowance(address spender, uint256 addedValue) public virtual returns (bool) {... */\n      swap3\n      swap2\n      pop\n      pop\n      jump\t// out\n        /* \"backend/src/funderGovToken.sol\":2645:2770  function balanceOf(address account) public view virtual override returns (uint256) {... */\n    tag_48:\n        /* \"backend/src/funderGovToken.sol\":2719:2726  uint256 */\n      0x00\n        /* \"backend/src/funderGovToken.sol\":2745:2754  _balances */\n      0x05\n        /* \"backend/src/funderGovToken.sol\":2745:2763  _balances[account] */\n      0x00\n        /* \"backend/src/funderGovToken.sol\":2755:2762  account */\n      dup4\n        /* \"backend/src/funderGovToken.sol\":2745:2763  _balances[account] */\n      0xffffffffffffffffffffffffffffffffffffffff\n      and\n      0xffffffffffffffffffffffffffffffffffffffff\n      and\n      dup2\n      mstore\n      0x20\n      add\n      swap1\n      dup2\n      mstore\n      0x20\n      add\n      0x00\n      keccak256\n      sload\n        /* \"backend/src/funderGovToken.sol\":2738:2763  return _balances[account] */\n      swap1\n      pop\n        /* \"backend/src/funderGovToken.sol\":2645:2770  function balanceOf(address account) public view virtual override returns (uint256) {... */\n      swap2\n      swap1\n      pop\n      jump\t// out\n        /* \"backend/src/funderGovToken.sol\":1603:1705  function symbol() public view virtual override returns (string memory) {... */\n    tag_51:\n        /* \"backend/src/funderGovToken.sol\":1659:1672  string memory */\n      0x60\n        /* \"backend/src/funderGovToken.sol\":1691:1698  _symbol */\n      0x02\n        /* \"backend/src/funderGovToken.sol\":1684:1698  return _symbol */\n      dup1\n      sload\n      tag_101\n      swap1\n      tag_75\n      jump\t// in\n    tag_101:\n      dup1\n      0x1f\n      add\n      0x20\n      dup1\n      swap2\n      div\n      mul\n      0x20\n      add\n      mload(0x40)\n      swap1\n      dup2\n      add\n      0x40\n      mstore\n      dup1\n      swap3\n      swap2\n      swap1\n      dup2\n      dup2\n      mstore\n      0x20\n      add\n      dup3\n      dup1\n      sload\n      tag_102\n      swap1\n      tag_75\n      jump\t// in\n    tag_102:\n      dup1\n      iszero\n      tag_103\n      jumpi\n      dup1\n      0x1f\n      lt\n      tag_104\n      jumpi\n      0x0100\n      dup1\n      dup4\n      sload\n      div\n      mul\n      dup4\n      mstore\n      swap2\n      0x20\n      add\n      swap2\n      jump(tag_103)\n    tag_104:\n      dup3\n      add\n      swap2\n      swap1\n      0x00\n      mstore\n      keccak256(0x00, 0x20)\n      swap1\n    tag_105:\n      dup2\n      sload\n      dup2\n      mstore\n      swap1\n      0x01\n      add\n      swap1\n      0x20\n      add\n      dup1\n      dup4\n      gt\n      tag_105\n      jumpi\n      dup3\n      swap1\n      sub\n      0x1f\n      and\n      dup3\n      add\n      swap2\n    tag_103:\n      pop\n      pop\n      pop\n      pop\n      pop\n      swap1\n      pop\n        /* \"backend/src/funderGovToken.sol\":1603:1705  function symbol() public view virtual override returns (string memory) {... */\n      swap1\n      jump\t// out\n        /* \"backend/src/funderGovToken.sol\":6084:6511  function decreaseAllowance(address spender, uint256 subtractedValue) public virtual returns (bool) {... */\n    tag_55:\n        /* \"backend/src/funderGovToken.sol\":6177:6181  bool */\n      0x00\n        /* \"backend/src/funderGovToken.sol\":6193:6206  address owner */\n      dup1\n        /* \"backend/src/funderGovToken.sol\":6209:6221  _msgSender() */\n      tag_107\n        /* \"backend/src/funderGovToken.sol\":6209:6219  _msgSender */\n      tag_82\n        /* \"backend/src/funderGovToken.sol\":6209:6221  _msgSender() */\n      jump\t// in\n    tag_107:\n        /* \"backend/src/funderGovToken.sol\":6193:6221  address owner = _msgSender() */\n      swap1\n      pop\n        /* \"backend/src/funderGovToken.sol\":6231:6255  uint256 currentAllowance */\n      0x00\n        /* \"backend/src/funderGovToken.sol\":6258:6283  allowance(owner, spender) */\n      tag_108\n        /* \"backend/src/funderGovToken.sol\":6268:6273  owner */\n      dup3\n        /* \"backend/src/funderGovToken.sol\":6275:6282  spender */\n      dup7\n        /* \"backend/src/funderGovToken.sol\":6258:6267  allowance */\n      tag_71\n        /* \"backend/src/funderGovToken.sol\":6258:6283  allowance(owner, spender) */\n      jump\t// in\n    tag_108:\n        /* \"backend/src/funderGovToken.sol\":6231:6283  uint256 currentAllowance = allowance(owner, spender) */\n      swap1\n      pop\n        /* \"backend/src/funderGovToken.sol\":6321:6336  subtractedValue */\n      dup4\n        /* \"backend/src/funderGovToken.sol\":6301:6317  currentAllowance */\n      dup2\n        /* \"backend/src/funderGovToken.sol\":6301:6336  currentAllowance >= subtractedValue */\n      lt\n      iszero\n        /* \"backend/src/funderGovToken.sol\":6293:6378  require(currentAllowance >= subtractedValue, \"ERC20: decreased allowance below zero\") */\n      tag_109\n      jumpi\n      mload(0x40)\n      0x08c379a000000000000000000000000000000000000000000000000000000000\n      dup2\n      mstore\n      0x04\n      add\n      tag_110\n      swap1\n      tag_111\n      jump\t// in\n    tag_110:\n      mload(0x40)\n      dup1\n      swap2\n      sub\n      swap1\n      revert\n    tag_109:\n        /* \"backend/src/funderGovToken.sol\":6412:6472  _approve(owner, spender, currentAllowance - subtractedValue) */\n      tag_112\n        /* \"backend/src/funderGovToken.sol\":6421:6426  owner */\n      dup3\n        /* \"backend/src/funderGovToken.sol\":6428:6435  spender */\n      dup7\n        /* \"backend/src/funderGovToken.sol\":6456:6471  subtractedValue */\n      dup7\n        /* \"backend/src/funderGovToken.sol\":6437:6453  currentAllowance */\n      dup5\n        /* \"backend/src/funderGovToken.sol\":6437:6471  currentAllowance - subtractedValue */\n      sub\n        /* \"backend/src/funderGovToken.sol\":6412:6420  _approve */\n      tag_84\n        /* \"backend/src/funderGovToken.sol\":6412:6472  _approve(owner, spender, currentAllowance - subtractedValue) */\n      jump\t// in\n    tag_112:\n        /* \"backend/src/funderGovToken.sol\":6500:6504  true */\n      0x01\n        /* \"backend/src/funderGovToken.sol\":6493:6504  return true */\n      swap3\n      pop\n      pop\n      pop\n        /* \"backend/src/funderGovToken.sol\":6084:6511  function decreaseAllowance(address spender, uint256 subtractedValue) public virtual returns (bool) {... */\n      swap3\n      swap2\n      pop\n      pop\n      jump\t// out\n        /* \"backend/src/funderGovToken.sol\":3226:3407  function transfer(address to, uint256 amount) public override returns (bool) {... */\n    tag_59:\n        /* \"backend/src/funderGovToken.sol\":3297:3301  bool */\n      0x00\n        /* \"backend/src/funderGovToken.sol\":3313:3326  address owner */\n      dup1\n        /* \"backend/src/funderGovToken.sol\":3329:3341  _msgSender() */\n      tag_114\n        /* \"backend/src/funderGovToken.sol\":3329:3339  _msgSender */\n      tag_82\n        /* \"backend/src/funderGovToken.sol\":3329:3341  _msgSender() */\n      jump\t// in\n    tag_114:\n        /* \"backend/src/funderGovToken.sol\":3313:3341  address owner = _msgSender() */\n      swap1\n      pop\n        /* \"backend/src/funderGovToken.sol\":3351:3379  _transfer(owner, to, amount) */\n      tag_115\n        /* \"backend/src/funderGovToken.sol\":3361:3366  owner */\n      dup2\n        /* \"backend/src/funderGovToken.sol\":3368:3370  to */\n      dup6\n        /* \"backend/src/funderGovToken.sol\":3372:3378  amount */\n      dup6\n        /* \"backend/src/funderGovToken.sol\":3351:3360  _transfer */\n      tag_91\n        /* \"backend/src/funderGovToken.sol\":3351:3379  _transfer(owner, to, amount) */\n      jump\t// in\n    tag_115:\n        /* \"backend/src/funderGovToken.sol\":3396:3400  true */\n      0x01\n        /* \"backend/src/funderGovToken.sol\":3389:3400  return true */\n      swap2\n      pop\n      pop\n        /* \"backend/src/funderGovToken.sol\":3226:3407  function transfer(address to, uint256 amount) public override returns (bool) {... */\n      swap3\n      swap2\n      pop\n      pop\n      jump\t// out\n        /* \"backend/src/funderGovToken.sol\":2933:3219  function unLockToken(address castVote) external{... */\n    tag_63:\n        /* \"backend/src/funderGovToken.sol\":3018:3022  vote */\n      0x03\n      0x00\n      swap1\n      sload\n      swap1\n      0x0100\n      exp\n      swap1\n      div\n      0xffffffffffffffffffffffffffffffffffffffff\n      and\n        /* \"backend/src/funderGovToken.sol\":2996:3023  msg.sender == address(vote) */\n      0xffffffffffffffffffffffffffffffffffffffff\n      and\n        /* \"backend/src/funderGovToken.sol\":2996:3006  msg.sender */\n      caller\n        /* \"backend/src/funderGovToken.sol\":2996:3023  msg.sender == address(vote) */\n      0xffffffffffffffffffffffffffffffffffffffff\n      and\n      eq\n        /* \"backend/src/funderGovToken.sol\":2988:3066  require(msg.sender == address(vote), \"msg.sender must be the voting contract\") */\n      tag_117\n      jumpi\n      mload(0x40)\n      0x08c379a000000000000000000000000000000000000000000000000000000000\n      dup2\n      mstore\n      0x04\n      add\n      tag_118\n      swap1\n      tag_119\n      jump\t// in\n    tag_118:\n      mload(0x40)\n      dup1\n      swap2\n      sub\n      swap1\n      revert\n    tag_117:\n        /* \"backend/src/funderGovToken.sol\":3074:3087  uint256 value */\n      0x00\n        /* \"backend/src/funderGovToken.sol\":3091:3102  tokenOwners */\n      0x04\n        /* \"backend/src/funderGovToken.sol\":3091:3114  tokenOwners[msg.sender] */\n      0x00\n        /* \"backend/src/funderGovToken.sol\":3103:3113  msg.sender */\n      caller\n        /* \"backend/src/funderGovToken.sol\":3091:3114  tokenOwners[msg.sender] */\n      0xffffffffffffffffffffffffffffffffffffffff\n      and\n      0xffffffffffffffffffffffffffffffffffffffff\n      and\n      dup2\n      mstore\n      0x20\n      add\n      swap1\n      dup2\n      mstore\n      0x20\n      add\n      0x00\n      keccak256\n        /* \"backend/src/funderGovToken.sol\":3091:3124  tokenOwners[msg.sender][castVote] */\n      0x00\n        /* \"backend/src/funderGovToken.sol\":3115:3123  castVote */\n      dup4\n        /* \"backend/src/funderGovToken.sol\":3091:3124  tokenOwners[msg.sender][castVote] */\n      0xffffffffffffffffffffffffffffffffffffffff\n      and\n      0xffffffffffffffffffffffffffffffffffffffff\n      and\n      dup2\n      mstore\n      0x20\n      add\n      swap1\n      dup2\n      mstore\n      0x20\n      add\n      0x00\n      keccak256\n      sload\n        /* \"backend/src/funderGovToken.sol\":3074:3124  uint256 value =  tokenOwners[msg.sender][castVote] */\n      swap1\n      pop\n        /* \"backend/src/funderGovToken.sol\":3159:3164  value */\n      dup1\n        /* \"backend/src/funderGovToken.sol\":3132:3143  lockedToken */\n      0x06\n        /* \"backend/src/funderGovToken.sol\":3132:3155  lockedToken[msg.sender] */\n      0x00\n        /* \"backend/src/funderGovToken.sol\":3144:3154  msg.sender */\n      caller\n        /* \"backend/src/funderGovToken.sol\":3132:3155  lockedToken[msg.sender] */\n      0xffffffffffffffffffffffffffffffffffffffff\n      and\n      0xffffffffffffffffffffffffffffffffffffffff\n      and\n      dup2\n      mstore\n      0x20\n      add\n      swap1\n      dup2\n      mstore\n      0x20\n      add\n      0x00\n      keccak256\n      0x00\n        /* \"backend/src/funderGovToken.sol\":3132:3164  lockedToken[msg.sender] -= value */\n      dup3\n      dup3\n      sload\n      tag_120\n      swap2\n      swap1\n      tag_121\n      jump\t// in\n    tag_120:\n      swap3\n      pop\n      pop\n      dup2\n      swap1\n      sstore\n      pop\n        /* \"backend/src/funderGovToken.sol\":3208:3213  value */\n      dup1\n        /* \"backend/src/funderGovToken.sol\":3172:3183  tokenOwners */\n      0x04\n        /* \"backend/src/funderGovToken.sol\":3172:3195  tokenOwners[msg.sender] */\n      0x00\n        /* \"backend/src/funderGovToken.sol\":3184:3194  msg.sender */\n      caller\n        /* \"backend/src/funderGovToken.sol\":3172:3195  tokenOwners[msg.sender] */\n      0xffffffffffffffffffffffffffffffffffffffff\n      and\n      0xffffffffffffffffffffffffffffffffffffffff\n      and\n      dup2\n      mstore\n      0x20\n      add\n      swap1\n      dup2\n      mstore\n      0x20\n      add\n      0x00\n      keccak256\n        /* \"backend/src/funderGovToken.sol\":3172:3205  tokenOwners[msg.sender][castVote] */\n      0x00\n        /* \"backend/src/funderGovToken.sol\":3196:3204  castVote */\n      dup5\n        /* \"backend/src/funderGovToken.sol\":3172:3205  tokenOwners[msg.sender][castVote] */\n      0xffffffffffffffffffffffffffffffffffffffff\n      and\n      0xffffffffffffffffffffffffffffffffffffffff\n      and\n      dup2\n      mstore\n      0x20\n      add\n      swap1\n      dup2\n      mstore\n      0x20\n      add\n      0x00\n      keccak256\n      0x00\n        /* \"backend/src/funderGovToken.sol\":3172:3213  tokenOwners[msg.sender][castVote]-= value */\n      dup3\n      dup3\n      sload\n      tag_122\n      swap2\n      swap1\n      tag_121\n      jump\t// in\n    tag_122:\n      swap3\n      pop\n      pop\n      dup2\n      swap1\n      sstore\n      pop\n        /* \"backend/src/funderGovToken.sol\":2980:3219  {... */\n      pop\n        /* \"backend/src/funderGovToken.sol\":2933:3219  function unLockToken(address castVote) external{... */\n      pop\n      jump\t// out\n        /* \"backend/src/funderGovToken.sol\":2774:2930  function lockToken(uint _amount, address castVote) public {... */\n    tag_67:\n        /* \"backend/src/funderGovToken.sol\":2876:2883  _amount */\n      dup2\n        /* \"backend/src/funderGovToken.sol\":2840:2851  tokenOwners */\n      0x04\n        /* \"backend/src/funderGovToken.sol\":2840:2863  tokenOwners[msg.sender] */\n      0x00\n        /* \"backend/src/funderGovToken.sol\":2852:2862  msg.sender */\n      caller\n        /* \"backend/src/funderGovToken.sol\":2840:2863  tokenOwners[msg.sender] */\n      0xffffffffffffffffffffffffffffffffffffffff\n      and\n      0xffffffffffffffffffffffffffffffffffffffff\n      and\n      dup2\n      mstore\n      0x20\n      add\n      swap1\n      dup2\n      mstore\n      0x20\n      add\n      0x00\n      keccak256\n        /* \"backend/src/funderGovToken.sol\":2840:2873  tokenOwners[msg.sender][castVote] */\n      0x00\n        /* \"backend/src/funderGovToken.sol\":2864:2872  castVote */\n      dup4\n        /* \"backend/src/funderGovToken.sol\":2840:2873  tokenOwners[msg.sender][castVote] */\n      0xffffffffffffffffffffffffffffffffffffffff\n      and\n      0xffffffffffffffffffffffffffffffffffffffff\n      and\n      dup2\n      mstore\n      0x20\n      add\n      swap1\n      dup2\n      mstore\n      0x20\n      add\n      0x00\n      keccak256\n      0x00\n        /* \"backend/src/funderGovToken.sol\":2840:2883  tokenOwners[msg.sender][castVote]+= _amount */\n      dup3\n      dup3\n      sload\n      tag_124\n      swap2\n      swap1\n      tag_98\n      jump\t// in\n    tag_124:\n      swap3\n      pop\n      pop\n      dup2\n      swap1\n      sstore\n      pop\n        /* \"backend/src/funderGovToken.sol\":2918:2925  _amount */\n      dup2\n        /* \"backend/src/funderGovToken.sol\":2891:2902  lockedToken */\n      0x06\n        /* \"backend/src/funderGovToken.sol\":2891:2914  lockedToken[msg.sender] */\n      0x00\n        /* \"backend/src/funderGovToken.sol\":2903:2913  msg.sender */\n      caller\n        /* \"backend/src/funderGovToken.sol\":2891:2914  lockedToken[msg.sender] */\n      0xffffffffffffffffffffffffffffffffffffffff\n      and\n      0xffffffffffffffffffffffffffffffffffffffff\n      and\n      dup2\n      mstore\n      0x20\n      add\n      swap1\n      dup2\n      mstore\n      0x20\n      add\n      0x00\n      keccak256\n      0x00\n        /* \"backend/src/funderGovToken.sol\":2891:2925  lockedToken[msg.sender] += _amount */\n      dup3\n      dup3\n      sload\n      tag_125\n      swap2\n      swap1\n      tag_98\n      jump\t// in\n    tag_125:\n      swap3\n      pop\n      pop\n      dup2\n      swap1\n      sstore\n      pop\n        /* \"backend/src/funderGovToken.sol\":2774:2930  function lockToken(uint _amount, address castVote) public {... */\n      pop\n      pop\n      jump\t// out\n        /* \"backend/src/funderGovToken.sol\":3466:3615  function allowance(address owner, address spender) public view virtual override returns (uint256) {... */\n    tag_71:\n        /* \"backend/src/funderGovToken.sol\":3555:3562  uint256 */\n      0x00\n        /* \"backend/src/funderGovToken.sol\":3581:3592  _allowances */\n      0x07\n        /* \"backend/src/funderGovToken.sol\":3581:3599  _allowances[owner] */\n      0x00\n        /* \"backend/src/funderGovToken.sol\":3593:3598  owner */\n      dup5\n        /* \"backend/src/funderGovToken.sol\":3581:3599  _allowances[owner] */\n      0xffffffffffffffffffffffffffffffffffffffff\n      and\n      0xffffffffffffffffffffffffffffffffffffffff\n      and\n      dup2\n      mstore\n      0x20\n      add\n      swap1\n      dup2\n      mstore\n      0x20\n      add\n      0x00\n      keccak256\n        /* \"backend/src/funderGovToken.sol\":3581:3608  _allowances[owner][spender] */\n      0x00\n        /* \"backend/src/funderGovToken.sol\":3600:3607  spender */\n      dup4\n        /* \"backend/src/funderGovToken.sol\":3581:3608  _allowances[owner][spender] */\n      0xffffffffffffffffffffffffffffffffffffffff\n      and\n      0xffffffffffffffffffffffffffffffffffffffff\n      and\n      dup2\n      mstore\n      0x20\n      add\n      swap1\n      dup2\n      mstore\n      0x20\n      add\n      0x00\n      keccak256\n      sload\n        /* \"backend/src/funderGovToken.sol\":3574:3608  return _allowances[owner][spender] */\n      swap1\n      pop\n        /* \"backend/src/funderGovToken.sol\":3466:3615  function allowance(address owner, address spender) public view virtual override returns (uint256) {... */\n      swap3\n      swap2\n      pop\n      pop\n      jump\t// out\n        /* \"@openzeppelin/contracts/utils/Context.sol\":640:736  function _msgSender() internal view virtual returns (address) {... */\n    tag_82:\n        /* \"@openzeppelin/contracts/utils/Context.sol\":693:700  address */\n      0x00\n        /* \"@openzeppelin/contracts/utils/Context.sol\":719:729  msg.sender */\n      caller\n        /* \"@openzeppelin/contracts/utils/Context.sol\":712:729  return msg.sender */\n      swap1\n      pop\n        /* \"@openzeppelin/contracts/utils/Context.sol\":640:736  function _msgSender() internal view virtual returns (address) {... */\n      swap1\n      jump\t// out\n        /* \"backend/src/funderGovToken.sol\":9705:10075  function _approve(... */\n    tag_84:\n        /* \"backend/src/funderGovToken.sol\":9853:9854  0 */\n      0x00\n        /* \"backend/src/funderGovToken.sol\":9836:9855  owner != address(0) */\n      0xffffffffffffffffffffffffffffffffffffffff\n      and\n        /* \"backend/src/funderGovToken.sol\":9836:9841  owner */\n      dup4\n        /* \"backend/src/funderGovToken.sol\":9836:9855  owner != address(0) */\n      0xffffffffffffffffffffffffffffffffffffffff\n      and\n      eq\n      iszero\n        /* \"backend/src/funderGovToken.sol\":9828:9896  require(owner != address(0), \"ERC20: approve from the zero address\") */\n      tag_129\n      jumpi\n      mload(0x40)\n      0x08c379a000000000000000000000000000000000000000000000000000000000\n      dup2\n      mstore\n      0x04\n      add\n      tag_130\n      swap1\n      tag_131\n      jump\t// in\n    tag_130:\n      mload(0x40)\n      dup1\n      swap2\n      sub\n      swap1\n      revert\n    tag_129:\n        /* \"backend/src/funderGovToken.sol\":9933:9934  0 */\n      0x00\n        /* \"backend/src/funderGovToken.sol\":9914:9935  spender != address(0) */\n      0xffffffffffffffffffffffffffffffffffffffff\n      and\n        /* \"backend/src/funderGovToken.sol\":9914:9921  spender */\n      dup3\n        /* \"backend/src/funderGovToken.sol\":9914:9935  spender != address(0) */\n      0xffffffffffffffffffffffffffffffffffffffff\n      and\n      eq\n      iszero\n        /* \"backend/src/funderGovToken.sol\":9906:9974  require(spender != address(0), \"ERC20: approve to the zero address\") */\n      tag_132\n      jumpi\n      mload(0x40)\n      0x08c379a000000000000000000000000000000000000000000000000000000000\n      dup2\n      mstore\n      0x04\n      add\n      tag_133\n      swap1\n      tag_134\n      jump\t// in\n    tag_133:\n      mload(0x40)\n      dup1\n      swap2\n      sub\n      swap1\n      revert\n    tag_132:\n        /* \"backend/src/funderGovToken.sol\":10015:10021  amount */\n      dup1\n        /* \"backend/src/funderGovToken.sol\":9985:9996  _allowances */\n      0x07\n        /* \"backend/src/funderGovToken.sol\":9985:10003  _allowances[owner] */\n      0x00\n        /* \"backend/src/funderGovToken.sol\":9997:10002  owner */\n      dup6\n        /* \"backend/src/funderGovToken.sol\":9985:10003  _allowances[owner] */\n      0xffffffffffffffffffffffffffffffffffffffff\n      and\n      0xffffffffffffffffffffffffffffffffffffffff\n      and\n      dup2\n      mstore\n      0x20\n      add\n      swap1\n      dup2\n      mstore\n      0x20\n      add\n      0x00\n      keccak256\n        /* \"backend/src/funderGovToken.sol\":9985:10012  _allowances[owner][spender] */\n      0x00\n        /* \"backend/src/funderGovToken.sol\":10004:10011  spender */\n      dup5\n        /* \"backend/src/funderGovToken.sol\":9985:10012  _allowances[owner][spender] */\n      0xffffffffffffffffffffffffffffffffffffffff\n      and\n      0xffffffffffffffffffffffffffffffffffffffff\n      and\n      dup2\n      mstore\n      0x20\n      add\n      swap1\n      dup2\n      mstore\n      0x20\n      add\n      0x00\n      keccak256\n        /* \"backend/src/funderGovToken.sol\":9985:10021  _allowances[owner][spender] = amount */\n      dup2\n      swap1\n      sstore\n      pop\n        /* \"backend/src/funderGovToken.sol\":10052:10059  spender */\n      dup2\n        /* \"backend/src/funderGovToken.sol\":10036:10068  Approval(owner, spender, amount) */\n      0xffffffffffffffffffffffffffffffffffffffff\n      and\n        /* \"backend/src/funderGovToken.sol\":10045:10050  owner */\n      dup4\n        /* \"backend/src/funderGovToken.sol\":10036:10068  Approval(owner, spender, amount) */\n      0xffffffffffffffffffffffffffffffffffffffff\n      and\n      0x8c5be1e5ebec7d5bd14f71427d1e84f3dd0314c0f7b2291e5b200ac8c7c3b925\n        /* \"backend/src/funderGovToken.sol\":10061:10067  amount */\n      dup4\n        /* \"backend/src/funderGovToken.sol\":10036:10068  Approval(owner, spender, amount) */\n      mload(0x40)\n      tag_135\n      swap2\n      swap1\n      tag_31\n      jump\t// in\n    tag_135:\n      mload(0x40)\n      dup1\n      swap2\n      sub\n      swap1\n      log3\n        /* \"backend/src/funderGovToken.sol\":9705:10075  function _approve(... */\n      pop\n      pop\n      pop\n      jump\t// out\n        /* \"backend/src/funderGovToken.sol\":10356:10797  function _spendAllowance(... */\n    tag_89:\n        /* \"backend/src/funderGovToken.sol\":10486:10510  uint256 currentAllowance */\n      0x00\n        /* \"backend/src/funderGovToken.sol\":10513:10538  allowance(owner, spender) */\n      tag_137\n        /* \"backend/src/funderGovToken.sol\":10523:10528  owner */\n      dup5\n        /* \"backend/src/funderGovToken.sol\":10530:10537  spender */\n      dup5\n        /* \"backend/src/funderGovToken.sol\":10513:10522  allowance */\n      tag_71\n        /* \"backend/src/funderGovToken.sol\":10513:10538  allowance(owner, spender) */\n      jump\t// in\n    tag_137:\n        /* \"backend/src/funderGovToken.sol\":10486:10538  uint256 currentAllowance = allowance(owner, spender) */\n      swap1\n      pop\n        /* \"backend/src/funderGovToken.sol\":10572:10589  type(uint256).max */\n      0xffffffffffffffffffffffffffffffffffffffffffffffffffffffffffffffff\n        /* \"backend/src/funderGovToken.sol\":10552:10568  currentAllowance */\n      dup2\n        /* \"backend/src/funderGovToken.sol\":10552:10589  currentAllowance != type(uint256).max */\n      eq\n        /* \"backend/src/funderGovToken.sol\":10548:10791  if (currentAllowance != type(uint256).max) {... */\n      tag_138\n      jumpi\n        /* \"backend/src/funderGovToken.sol\":10633:10639  amount */\n      dup2\n        /* \"backend/src/funderGovToken.sol\":10613:10629  currentAllowance */\n      dup2\n        /* \"backend/src/funderGovToken.sol\":10613:10639  currentAllowance >= amount */\n      lt\n      iszero\n        /* \"backend/src/funderGovToken.sol\":10605:10673  require(currentAllowance >= amount, \"ERC20: insufficient allowance\") */\n      tag_139\n      jumpi\n      mload(0x40)\n      0x08c379a000000000000000000000000000000000000000000000000000000000\n      dup2\n      mstore\n      0x04\n      add\n      tag_140\n      swap1\n      tag_141\n      jump\t// in\n    tag_140:\n      mload(0x40)\n      dup1\n      swap2\n      sub\n      swap1\n      revert\n    tag_139:\n        /* \"backend/src/funderGovToken.sol\":10715:10766  _approve(owner, spender, currentAllowance - amount) */\n      tag_142\n        /* \"backend/src/funderGovToken.sol\":10724:10729  owner */\n      dup5\n        /* \"backend/src/funderGovToken.sol\":10731:10738  spender */\n      dup5\n        /* \"backend/src/funderGovToken.sol\":10759:10765  amount */\n      dup5\n        /* \"backend/src/funderGovToken.sol\":10740:10756  currentAllowance */\n      dup5\n        /* \"backend/src/funderGovToken.sol\":10740:10765  currentAllowance - amount */\n      sub\n        /* \"backend/src/funderGovToken.sol\":10715:10723  _approve */\n      tag_84\n        /* \"backend/src/funderGovToken.sol\":10715:10766  _approve(owner, spender, currentAllowance - amount) */\n      jump\t// in\n    tag_142:\n        /* \"backend/src/funderGovToken.sol\":10548:10791  if (currentAllowance != type(uint256).max) {... */\n    tag_138:\n        /* \"backend/src/funderGovToken.sol\":10476:10797  {... */\n      pop\n        /* \"backend/src/funderGovToken.sol\":10356:10797  function _spendAllowance(... */\n      pop\n      pop\n      pop\n      jump\t// out\n        /* \"backend/src/funderGovToken.sol\":6965:7720  function _transfer(... */\n    tag_91:\n        /* \"backend/src/funderGovToken.sol\":7099:7100  0 */\n      0x00\n        /* \"backend/src/funderGovToken.sol\":7083:7101  from != address(0) */\n      0xffffffffffffffffffffffffffffffffffffffff\n      and\n        /* \"backend/src/funderGovToken.sol\":7083:7087  from */\n      dup4\n        /* \"backend/src/funderGovToken.sol\":7083:7101  from != address(0) */\n      0xffffffffffffffffffffffffffffffffffffffff\n      and\n      eq\n      iszero\n        /* \"backend/src/funderGovToken.sol\":7075:7143  require(from != address(0), \"ERC20: transfer from the zero address\") */\n      tag_144\n      jumpi\n      mload(0x40)\n      0x08c379a000000000000000000000000000000000000000000000000000000000\n      dup2\n      mstore\n      0x04\n      add\n      tag_145\n      swap1\n      tag_146\n      jump\t// in\n    tag_145:\n      mload(0x40)\n      dup1\n      swap2\n      sub\n      swap1\n      revert\n    tag_144:\n        /* \"backend/src/funderGovToken.sol\":7175:7176  0 */\n      0x00\n        /* \"backend/src/funderGovToken.sol\":7161:7177  to != address(0) */\n      0xffffffffffffffffffffffffffffffffffffffff\n      and\n        /* \"backend/src/funderGovToken.sol\":7161:7163  to */\n      dup3\n        /* \"backend/src/funderGovToken.sol\":7161:7177  to != address(0) */\n      0xffffffffffffffffffffffffffffffffffffffff\n      and\n      eq\n      iszero\n        /* \"backend/src/funderGovToken.sol\":7153:7217  require(to != address(0), \"ERC20: transfer to the zero address\") */\n      tag_147\n      jumpi\n      mload(0x40)\n      0x08c379a000000000000000000000000000000000000000000000000000000000\n      dup2\n      mstore\n      0x04\n      add\n      tag_148\n      swap1\n      tag_149\n      jump\t// in\n    tag_148:\n      mload(0x40)\n      dup1\n      swap2\n      sub\n      swap1\n      revert\n    tag_147:\n        /* \"backend/src/funderGovToken.sol\":7228:7266  _beforeTokenTransfer(from, to, amount) */\n      tag_150\n        /* \"backend/src/funderGovToken.sol\":7249:7253  from */\n      dup4\n        /* \"backend/src/funderGovToken.sol\":7255:7257  to */\n      dup4\n        /* \"backend/src/funderGovToken.sol\":7259:7265  amount */\n      dup4\n        /* \"backend/src/funderGovToken.sol\":7228:7248  _beforeTokenTransfer */\n      tag_151\n        /* \"backend/src/funderGovToken.sol\":7228:7266  _beforeTokenTransfer(from, to, amount) */\n      jump\t// in\n    tag_150:\n        /* \"backend/src/funderGovToken.sol\":7277:7288  uint locked */\n      0x00\n        /* \"backend/src/funderGovToken.sol\":7291:7302  lockedToken */\n      0x06\n        /* \"backend/src/funderGovToken.sol\":7291:7314  lockedToken[msg.sender] */\n      0x00\n        /* \"backend/src/funderGovToken.sol\":7303:7313  msg.sender */\n      caller\n        /* \"backend/src/funderGovToken.sol\":7291:7314  lockedToken[msg.sender] */\n      0xffffffffffffffffffffffffffffffffffffffff\n      and\n      0xffffffffffffffffffffffffffffffffffffffff\n      and\n      dup2\n      mstore\n      0x20\n      add\n      swap1\n      dup2\n      mstore\n      0x20\n      add\n      0x00\n      keccak256\n      sload\n        /* \"backend/src/funderGovToken.sol\":7277:7314  uint locked = lockedToken[msg.sender] */\n      swap1\n      pop\n        /* \"backend/src/funderGovToken.sol\":7324:7343  uint256 fromBalance */\n      0x00\n        /* \"backend/src/funderGovToken.sol\":7346:7355  _balances */\n      0x05\n        /* \"backend/src/funderGovToken.sol\":7346:7361  _balances[from] */\n      0x00\n        /* \"backend/src/funderGovToken.sol\":7356:7360  from */\n      dup7\n        /* \"backend/src/funderGovToken.sol\":7346:7361  _balances[from] */\n      0xffffffffffffffffffffffffffffffffffffffff\n      and\n      0xffffffffffffffffffffffffffffffffffffffff\n      and\n      dup2\n      mstore\n      0x20\n      add\n      swap1\n      dup2\n      mstore\n      0x20\n      add\n      0x00\n      keccak256\n      sload\n        /* \"backend/src/funderGovToken.sol\":7324:7361  uint256 fromBalance = _balances[from] */\n      swap1\n      pop\n        /* \"backend/src/funderGovToken.sol\":7371:7393  uint transferableToken */\n      0x00\n        /* \"backend/src/funderGovToken.sol\":7410:7416  locked */\n      dup3\n        /* \"backend/src/funderGovToken.sol\":7396:7407  fromBalance */\n      dup3\n        /* \"backend/src/funderGovToken.sol\":7396:7416  fromBalance - locked */\n      tag_152\n      swap2\n      swap1\n      tag_121\n      jump\t// in\n    tag_152:\n        /* \"backend/src/funderGovToken.sol\":7371:7416  uint transferableToken = fromBalance - locked */\n      swap1\n      pop\n        /* \"backend/src/funderGovToken.sol\":7455:7461  amount */\n      dup4\n        /* \"backend/src/funderGovToken.sol\":7434:7451  transferableToken */\n      dup2\n        /* \"backend/src/funderGovToken.sol\":7434:7461  transferableToken >= amount */\n      lt\n      iszero\n        /* \"backend/src/funderGovToken.sol\":7426:7508  require(transferableToken >= amount, \"ERC20: transferable amount exceeds balance\") */\n      tag_153\n      jumpi\n      mload(0x40)\n      0x08c379a000000000000000000000000000000000000000000000000000000000\n      dup2\n      mstore\n      0x04\n      add\n      tag_154\n      swap1\n      tag_155\n      jump\t// in\n    tag_154:\n      mload(0x40)\n      dup1\n      swap2\n      sub\n      swap1\n      revert\n    tag_153:\n        /* \"backend/src/funderGovToken.sol\":7574:7580  amount */\n      dup4\n        /* \"backend/src/funderGovToken.sol\":7560:7571  fromBalance */\n      dup3\n        /* \"backend/src/funderGovToken.sol\":7560:7580  fromBalance - amount */\n      sub\n        /* \"backend/src/funderGovToken.sol\":7542:7551  _balances */\n      0x05\n        /* \"backend/src/funderGovToken.sol\":7542:7557  _balances[from] */\n      0x00\n        /* \"backend/src/funderGovToken.sol\":7552:7556  from */\n      dup9\n        /* \"backend/src/funderGovToken.sol\":7542:7557  _balances[from] */\n      0xffffffffffffffffffffffffffffffffffffffff\n      and\n      0xffffffffffffffffffffffffffffffffffffffff\n      and\n      dup2\n      mstore\n      0x20\n      add\n      swap1\n      dup2\n      mstore\n      0x20\n      add\n      0x00\n      keccak256\n        /* \"backend/src/funderGovToken.sol\":7542:7580  _balances[from] = fromBalance - amount */\n      dup2\n      swap1\n      sstore\n      pop\n        /* \"backend/src/funderGovToken.sol\":7617:7623  amount */\n      dup4\n        /* \"backend/src/funderGovToken.sol\":7600:7609  _balances */\n      0x05\n        /* \"backend/src/funderGovToken.sol\":7600:7613  _balances[to] */\n      0x00\n        /* \"backend/src/funderGovToken.sol\":7610:7612  to */\n      dup8\n        /* \"backend/src/funderGovToken.sol\":7600:7613  _balances[to] */\n      0xffffffffffffffffffffffffffffffffffffffff\n      and\n      0xffffffffffffffffffffffffffffffffffffffff\n      and\n      dup2\n      mstore\n      0x20\n      add\n      swap1\n      dup2\n      mstore\n      0x20\n      add\n      0x00\n      keccak256\n      0x00\n        /* \"backend/src/funderGovToken.sol\":7600:7623  _balances[to] += amount */\n      dup3\n      dup3\n      sload\n      tag_156\n      swap2\n      swap1\n      tag_98\n      jump\t// in\n    tag_156:\n      swap3\n      pop\n      pop\n      dup2\n      swap1\n      sstore\n      pop\n        /* \"backend/src/funderGovToken.sol\":7654:7656  to */\n      dup5\n        /* \"backend/src/funderGovToken.sol\":7639:7665  Transfer(from, to, amount) */\n      0xffffffffffffffffffffffffffffffffffffffff\n      and\n        /* \"backend/src/funderGovToken.sol\":7648:7652  from */\n      dup7\n        /* \"backend/src/funderGovToken.sol\":7639:7665  Transfer(from, to, amount) */\n      0xffffffffffffffffffffffffffffffffffffffff\n      and\n      0xddf252ad1be2c89b69c2b068fc378daa952ba7f163c4a11628f55a4df523b3ef\n        /* \"backend/src/funderGovToken.sol\":7658:7664  amount */\n      dup7\n        /* \"backend/src/funderGovToken.sol\":7639:7665  Transfer(from, to, amount) */\n      mload(0x40)\n      tag_157\n      swap2\n      swap1\n      tag_31\n      jump\t// in\n    tag_157:\n      mload(0x40)\n      dup1\n      swap2\n      sub\n      swap1\n      log3\n        /* \"backend/src/funderGovToken.sol\":7676:7713  _afterTokenTransfer(from, to, amount) */\n      tag_158\n        /* \"backend/src/funderGovToken.sol\":7696:7700  from */\n      dup7\n        /* \"backend/src/funderGovToken.sol\":7702:7704  to */\n      dup7\n        /* \"backend/src/funderGovToken.sol\":7706:7712  amount */\n      dup7\n        /* \"backend/src/funderGovToken.sol\":7676:7695  _afterTokenTransfer */\n      tag_159\n        /* \"backend/src/funderGovToken.sol\":7676:7713  _afterTokenTransfer(from, to, amount) */\n      jump\t// in\n    tag_158:\n        /* \"backend/src/funderGovToken.sol\":7065:7720  {... */\n      pop\n      pop\n      pop\n        /* \"backend/src/funderGovToken.sol\":6965:7720  function _transfer(... */\n      pop\n      pop\n      pop\n      jump\t// out\n        /* \"backend/src/funderGovToken.sol\":11381:11502  function _beforeTokenTransfer(... */\n    tag_151:\n      pop\n      pop\n      pop\n      jump\t// out\n        /* \"backend/src/funderGovToken.sol\":12090:12210  function _afterTokenTransfer(... */\n    tag_159:\n      pop\n      pop\n      pop\n      jump\t// out\n        /* \"#utility.yul\":7:106   */\n    tag_162:\n        /* \"#utility.yul\":59:65   */\n      0x00\n        /* \"#utility.yul\":93:98   */\n      dup2\n        /* \"#utility.yul\":87:99   */\n      mload\n        /* \"#utility.yul\":77:99   */\n      swap1\n      pop\n        /* \"#utility.yul\":7:106   */\n      swap2\n      swap1\n      pop\n      jump\t// out\n        /* \"#utility.yul\":112:281   */\n    tag_163:\n        /* \"#utility.yul\":196:207   */\n      0x00\n        /* \"#utility.yul\":230:236   */\n      dup3\n        /* \"#utility.yul\":225:228   */\n      dup3\n        /* \"#utility.yul\":218:237   */\n      mstore\n        /* \"#utility.yul\":270:274   */\n      0x20\n        /* \"#utility.yul\":265:268   */\n      dup3\n        /* \"#utility.yul\":261:275   */\n      add\n        /* \"#utility.yul\":246:275   */\n      swap1\n      pop\n        /* \"#utility.yul\":112:281   */\n      swap3\n      swap2\n      pop\n      pop\n      jump\t// out\n        /* \"#utility.yul\":287:594   */\n    tag_164:\n        /* \"#utility.yul\":355:356   */\n      0x00\n        /* \"#utility.yul\":365:478   */\n    tag_204:\n        /* \"#utility.yul\":379:385   */\n      dup4\n        /* \"#utility.yul\":376:377   */\n      dup2\n        /* \"#utility.yul\":373:386   */\n      lt\n        /* \"#utility.yul\":365:478   */\n      iszero\n      tag_206\n      jumpi\n        /* \"#utility.yul\":464:465   */\n      dup1\n        /* \"#utility.yul\":459:462   */\n      dup3\n        /* \"#utility.yul\":455:466   */\n      add\n        /* \"#utility.yul\":449:467   */\n      mload\n        /* \"#utility.yul\":445:446   */\n      dup2\n        /* \"#utility.yul\":440:443   */\n      dup5\n        /* \"#utility.yul\":436:447   */\n      add\n        /* \"#utility.yul\":429:468   */\n      mstore\n        /* \"#utility.yul\":401:403   */\n      0x20\n        /* \"#utility.yul\":398:399   */\n      dup2\n        /* \"#utility.yul\":394:404   */\n      add\n        /* \"#utility.yul\":389:404   */\n      swap1\n      pop\n        /* \"#utility.yul\":365:478   */\n      jump(tag_204)\n    tag_206:\n        /* \"#utility.yul\":496:502   */\n      dup4\n        /* \"#utility.yul\":493:494   */\n      dup2\n        /* \"#utility.yul\":490:503   */\n      gt\n        /* \"#utility.yul\":487:588   */\n      iszero\n      tag_207\n      jumpi\n        /* \"#utility.yul\":576:577   */\n      0x00\n        /* \"#utility.yul\":567:573   */\n      dup5\n        /* \"#utility.yul\":562:565   */\n      dup5\n        /* \"#utility.yul\":558:574   */\n      add\n        /* \"#utility.yul\":551:578   */\n      mstore\n        /* \"#utility.yul\":487:588   */\n    tag_207:\n        /* \"#utility.yul\":336:594   */\n      pop\n        /* \"#utility.yul\":287:594   */\n      pop\n      pop\n      pop\n      jump\t// out\n        /* \"#utility.yul\":600:702   */\n    tag_165:\n        /* \"#utility.yul\":641:647   */\n      0x00\n        /* \"#utility.yul\":692:694   */\n      0x1f\n        /* \"#utility.yul\":688:695   */\n      not\n        /* \"#utility.yul\":683:685   */\n      0x1f\n        /* \"#utility.yul\":676:681   */\n      dup4\n        /* \"#utility.yul\":672:686   */\n      add\n        /* \"#utility.yul\":668:696   */\n      and\n        /* \"#utility.yul\":658:696   */\n      swap1\n      pop\n        /* \"#utility.yul\":600:702   */\n      swap2\n      swap1\n      pop\n      jump\t// out\n        /* \"#utility.yul\":708:1072   */\n    tag_166:\n        /* \"#utility.yul\":796:799   */\n      0x00\n        /* \"#utility.yul\":824:863   */\n      tag_210\n        /* \"#utility.yul\":857:862   */\n      dup3\n        /* \"#utility.yul\":824:863   */\n      tag_162\n      jump\t// in\n    tag_210:\n        /* \"#utility.yul\":879:950   */\n      tag_211\n        /* \"#utility.yul\":943:949   */\n      dup2\n        /* \"#utility.yul\":938:941   */\n      dup6\n        /* \"#utility.yul\":879:950   */\n      tag_163\n      jump\t// in\n    tag_211:\n        /* \"#utility.yul\":872:950   */\n      swap4\n      pop\n        /* \"#utility.yul\":959:1011   */\n      tag_212\n        /* \"#utility.yul\":1004:1010   */\n      dup2\n        /* \"#utility.yul\":999:1002   */\n      dup6\n        /* \"#utility.yul\":992:996   */\n      0x20\n        /* \"#utility.yul\":985:990   */\n      dup7\n        /* \"#utility.yul\":981:997   */\n      add\n        /* \"#utility.yul\":959:1011   */\n      tag_164\n      jump\t// in\n    tag_212:\n        /* \"#utility.yul\":1036:1065   */\n      tag_213\n        /* \"#utility.yul\":1058:1064   */\n      dup2\n        /* \"#utility.yul\":1036:1065   */\n      tag_165\n      jump\t// in\n    tag_213:\n        /* \"#utility.yul\":1031:1034   */\n      dup5\n        /* \"#utility.yul\":1027:1066   */\n      add\n        /* \"#utility.yul\":1020:1066   */\n      swap2\n      pop\n        /* \"#utility.yul\":800:1072   */\n      pop\n        /* \"#utility.yul\":708:1072   */\n      swap3\n      swap2\n      pop\n      pop\n      jump\t// out\n        /* \"#utility.yul\":1078:1391   */\n    tag_21:\n        /* \"#utility.yul\":1191:1195   */\n      0x00\n        /* \"#utility.yul\":1229:1231   */\n      0x20\n        /* \"#utility.yul\":1218:1227   */\n      dup3\n        /* \"#utility.yul\":1214:1232   */\n      add\n        /* \"#utility.yul\":1206:1232   */\n      swap1\n      pop\n        /* \"#utility.yul\":1278:1287   */\n      dup2\n        /* \"#utility.yul\":1272:1276   */\n      dup2\n        /* \"#utility.yul\":1268:1288   */\n      sub\n        /* \"#utility.yul\":1264:1265   */\n      0x00\n        /* \"#utility.yul\":1253:1262   */\n      dup4\n        /* \"#utility.yul\":1249:1266   */\n      add\n        /* \"#utility.yul\":1242:1289   */\n      mstore\n        /* \"#utility.yul\":1306:1384   */\n      tag_215\n        /* \"#utility.yul\":1379:1383   */\n      dup2\n        /* \"#utility.yul\":1370:1376   */\n      dup5\n        /* \"#utility.yul\":1306:1384   */\n      tag_166\n      jump\t// in\n    tag_215:\n        /* \"#utility.yul\":1298:1384   */\n      swap1\n      pop\n        /* \"#utility.yul\":1078:1391   */\n      swap3\n      swap2\n      pop\n      pop\n      jump\t// out\n        /* \"#utility.yul\":1478:1595   */\n    tag_168:\n        /* \"#utility.yul\":1587:1588   */\n      0x00\n        /* \"#utility.yul\":1584:1585   */\n      dup1\n        /* \"#utility.yul\":1577:1589   */\n      revert\n        /* \"#utility.yul\":1724:1850   */\n    tag_170:\n        /* \"#utility.yul\":1761:1768   */\n      0x00\n        /* \"#utility.yul\":1801:1843   */\n      0xffffffffffffffffffffffffffffffffffffffff\n        /* \"#utility.yul\":1794:1799   */\n      dup3\n        /* \"#utility.yul\":1790:1844   */\n      and\n        /* \"#utility.yul\":1779:1844   */\n      swap1\n      pop\n        /* \"#utility.yul\":1724:1850   */\n      swap2\n      swap1\n      pop\n      jump\t// out\n        /* \"#utility.yul\":1856:1952   */\n    tag_171:\n        /* \"#utility.yul\":1893:1900   */\n      0x00\n        /* \"#utility.yul\":1922:1946   */\n      tag_221\n        /* \"#utility.yul\":1940:1945   */\n      dup3\n        /* \"#utility.yul\":1922:1946   */\n      tag_170\n      jump\t// in\n    tag_221:\n        /* \"#utility.yul\":1911:1946   */\n      swap1\n      pop\n        /* \"#utility.yul\":1856:1952   */\n      swap2\n      swap1\n      pop\n      jump\t// out\n        /* \"#utility.yul\":1958:2080   */\n    tag_172:\n        /* \"#utility.yul\":2031:2055   */\n      tag_223\n        /* \"#utility.yul\":2049:2054   */\n      dup2\n        /* \"#utility.yul\":2031:2055   */\n      tag_171\n      jump\t// in\n    tag_223:\n        /* \"#utility.yul\":2024:2029   */\n      dup2\n        /* \"#utility.yul\":2021:2056   */\n      eq\n        /* \"#utility.yul\":2011:2074   */\n      tag_224\n      jumpi\n        /* \"#utility.yul\":2070:2071   */\n      0x00\n        /* \"#utility.yul\":2067:2068   */\n      dup1\n        /* \"#utility.yul\":2060:2072   */\n      revert\n        /* \"#utility.yul\":2011:2074   */\n    tag_224:\n        /* \"#utility.yul\":1958:2080   */\n      pop\n      jump\t// out\n        /* \"#utility.yul\":2086:2225   */\n    tag_173:\n        /* \"#utility.yul\":2132:2137   */\n      0x00\n        /* \"#utility.yul\":2170:2176   */\n      dup2\n        /* \"#utility.yul\":2157:2177   */\n      calldataload\n        /* \"#utility.yul\":2148:2177   */\n      swap1\n      pop\n        /* \"#utility.yul\":2186:2219   */\n      tag_226\n        /* \"#utility.yul\":2213:2218   */\n      dup2\n        /* \"#utility.yul\":2186:2219   */\n      tag_172\n      jump\t// in\n    tag_226:\n        /* \"#utility.yul\":2086:2225   */\n      swap3\n      swap2\n      pop\n      pop\n      jump\t// out\n        /* \"#utility.yul\":2231:2308   */\n    tag_174:\n        /* \"#utility.yul\":2268:2275   */\n      0x00\n        /* \"#utility.yul\":2297:2302   */\n      dup2\n        /* \"#utility.yul\":2286:2302   */\n      swap1\n      pop\n        /* \"#utility.yul\":2231:2308   */\n      swap2\n      swap1\n      pop\n      jump\t// out\n        /* \"#utility.yul\":2314:2436   */\n    tag_175:\n        /* \"#utility.yul\":2387:2411   */\n      tag_229\n        /* \"#utility.yul\":2405:2410   */\n      dup2\n        /* \"#utility.yul\":2387:2411   */\n      tag_174\n      jump\t// in\n    tag_229:\n        /* \"#utility.yul\":2380:2385   */\n      dup2\n        /* \"#utility.yul\":2377:2412   */\n      eq\n        /* \"#utility.yul\":2367:2430   */\n      tag_230\n      jumpi\n        /* \"#utility.yul\":2426:2427   */\n      0x00\n        /* \"#utility.yul\":2423:2424   */\n      dup1\n        /* \"#utility.yul\":2416:2428   */\n      revert\n        /* \"#utility.yul\":2367:2430   */\n    tag_230:\n        /* \"#utility.yul\":2314:2436   */\n      pop\n      jump\t// out\n        /* \"#utility.yul\":2442:2581   */\n    tag_176:\n        /* \"#utility.yul\":2488:2493   */\n      0x00\n        /* \"#utility.yul\":2526:2532   */\n      dup2\n        /* \"#utility.yul\":2513:2533   */\n      calldataload\n        /* \"#utility.yul\":2504:2533   */\n      swap1\n      pop\n        /* \"#utility.yul\":2542:2575   */\n      tag_232\n        /* \"#utility.yul\":2569:2574   */\n      dup2\n        /* \"#utility.yul\":2542:2575   */\n      tag_175\n      jump\t// in\n    tag_232:\n        /* \"#utility.yul\":2442:2581   */\n      swap3\n      swap2\n      pop\n      pop\n      jump\t// out\n        /* \"#utility.yul\":2587:3061   */\n    tag_24:\n        /* \"#utility.yul\":2655:2661   */\n      0x00\n        /* \"#utility.yul\":2663:2669   */\n      dup1\n        /* \"#utility.yul\":2712:2714   */\n      0x40\n        /* \"#utility.yul\":2700:2709   */\n      dup4\n        /* \"#utility.yul\":2691:2698   */\n      dup6\n        /* \"#utility.yul\":2687:2710   */\n      sub\n        /* \"#utility.yul\":2683:2715   */\n      slt\n        /* \"#utility.yul\":2680:2799   */\n      iszero\n      tag_234\n      jumpi\n        /* \"#utility.yul\":2718:2797   */\n      tag_235\n      tag_168\n      jump\t// in\n    tag_235:\n        /* \"#utility.yul\":2680:2799   */\n    tag_234:\n        /* \"#utility.yul\":2838:2839   */\n      0x00\n        /* \"#utility.yul\":2863:2916   */\n      tag_236\n        /* \"#utility.yul\":2908:2915   */\n      dup6\n        /* \"#utility.yul\":2899:2905   */\n      dup3\n        /* \"#utility.yul\":2888:2897   */\n      dup7\n        /* \"#utility.yul\":2884:2906   */\n      add\n        /* \"#utility.yul\":2863:2916   */\n      tag_173\n      jump\t// in\n    tag_236:\n        /* \"#utility.yul\":2853:2916   */\n      swap3\n      pop\n        /* \"#utility.yul\":2809:2926   */\n      pop\n        /* \"#utility.yul\":2965:2967   */\n      0x20\n        /* \"#utility.yul\":2991:3044   */\n      tag_237\n        /* \"#utility.yul\":3036:3043   */\n      dup6\n        /* \"#utility.yul\":3027:3033   */\n      dup3\n        /* \"#utility.yul\":3016:3025   */\n      dup7\n        /* \"#utility.yul\":3012:3034   */\n      add\n        /* \"#utility.yul\":2991:3044   */\n      tag_176\n      jump\t// in\n    tag_237:\n        /* \"#utility.yul\":2981:3044   */\n      swap2\n      pop\n        /* \"#utility.yul\":2936:3054   */\n      pop\n        /* \"#utility.yul\":2587:3061   */\n      swap3\n      pop\n      swap3\n      swap1\n      pop\n      jump\t// out\n        /* \"#utility.yul\":3067:3157   */\n    tag_177:\n        /* \"#utility.yul\":3101:3108   */\n      0x00\n        /* \"#utility.yul\":3144:3149   */\n      dup2\n        /* \"#utility.yul\":3137:3150   */\n      iszero\n        /* \"#utility.yul\":3130:3151   */\n      iszero\n        /* \"#utility.yul\":3119:3151   */\n      swap1\n      pop\n        /* \"#utility.yul\":3067:3157   */\n      swap2\n      swap1\n      pop\n      jump\t// out\n        /* \"#utility.yul\":3163:3272   */\n    tag_178:\n        /* \"#utility.yul\":3244:3265   */\n      tag_240\n        /* \"#utility.yul\":3259:3264   */\n      dup2\n        /* \"#utility.yul\":3244:3265   */\n      tag_177\n      jump\t// in\n    tag_240:\n        /* \"#utility.yul\":3239:3242   */\n      dup3\n        /* \"#utility.yul\":3232:3266   */\n      mstore\n        /* \"#utility.yul\":3163:3272   */\n      pop\n      pop\n      jump\t// out\n        /* \"#utility.yul\":3278:3488   */\n    tag_27:\n        /* \"#utility.yul\":3365:3369   */\n      0x00\n        /* \"#utility.yul\":3403:3405   */\n      0x20\n        /* \"#utility.yul\":3392:3401   */\n      dup3\n        /* \"#utility.yul\":3388:3406   */\n      add\n        /* \"#utility.yul\":3380:3406   */\n      swap1\n      pop\n        /* \"#utility.yul\":3416:3481   */\n      tag_242\n        /* \"#utility.yul\":3478:3479   */\n      0x00\n        /* \"#utility.yul\":3467:3476   */\n      dup4\n        /* \"#utility.yul\":3463:3480   */\n      add\n        /* \"#utility.yul\":3454:3460   */\n      dup5\n        /* \"#utility.yul\":3416:3481   */\n      tag_178\n      jump\t// in\n    tag_242:\n        /* \"#utility.yul\":3278:3488   */\n      swap3\n      swap2\n      pop\n      pop\n      jump\t// out\n        /* \"#utility.yul\":3494:3612   */\n    tag_179:\n        /* \"#utility.yul\":3581:3605   */\n      tag_244\n        /* \"#utility.yul\":3599:3604   */\n      dup2\n        /* \"#utility.yul\":3581:3605   */\n      tag_174\n      jump\t// in\n    tag_244:\n        /* \"#utility.yul\":3576:3579   */\n      dup3\n        /* \"#utility.yul\":3569:3606   */\n      mstore\n        /* \"#utility.yul\":3494:3612   */\n      pop\n      pop\n      jump\t// out\n        /* \"#utility.yul\":3618:3840   */\n    tag_31:\n        /* \"#utility.yul\":3711:3715   */\n      0x00\n        /* \"#utility.yul\":3749:3751   */\n      0x20\n        /* \"#utility.yul\":3738:3747   */\n      dup3\n        /* \"#utility.yul\":3734:3752   */\n      add\n        /* \"#utility.yul\":3726:3752   */\n      swap1\n      pop\n        /* \"#utility.yul\":3762:3833   */\n      tag_246\n        /* \"#utility.yul\":3830:3831   */\n      0x00\n        /* \"#utility.yul\":3819:3828   */\n      dup4\n        /* \"#utility.yul\":3815:3832   */\n      add\n        /* \"#utility.yul\":3806:3812   */\n      dup5\n        /* \"#utility.yul\":3762:3833   */\n      tag_179\n      jump\t// in\n    tag_246:\n        /* \"#utility.yul\":3618:3840   */\n      swap3\n      swap2\n      pop\n      pop\n      jump\t// out\n        /* \"#utility.yul\":3846:4465   */\n    tag_34:\n        /* \"#utility.yul\":3923:3929   */\n      0x00\n        /* \"#utility.yul\":3931:3937   */\n      dup1\n        /* \"#utility.yul\":3939:3945   */\n      0x00\n        /* \"#utility.yul\":3988:3990   */\n      0x60\n        /* \"#utility.yul\":3976:3985   */\n      dup5\n        /* \"#utility.yul\":3967:3974   */\n      dup7\n        /* \"#utility.yul\":3963:3986   */\n      sub\n        /* \"#utility.yul\":3959:3991   */\n      slt\n        /* \"#utility.yul\":3956:4075   */\n      iszero\n      tag_248\n      jumpi\n        /* \"#utility.yul\":3994:4073   */\n      tag_249\n      tag_168\n      jump\t// in\n    tag_249:\n        /* \"#utility.yul\":3956:4075   */\n    tag_248:\n        /* \"#utility.yul\":4114:4115   */\n      0x00\n        /* \"#utility.yul\":4139:4192   */\n      tag_250\n        /* \"#utility.yul\":4184:4191   */\n      dup7\n        /* \"#utility.yul\":4175:4181   */\n      dup3\n        /* \"#utility.yul\":4164:4173   */\n      dup8\n        /* \"#utility.yul\":4160:4182   */\n      add\n        /* \"#utility.yul\":4139:4192   */\n      tag_173\n      jump\t// in\n    tag_250:\n        /* \"#utility.yul\":4129:4192   */\n      swap4\n      pop\n        /* \"#utility.yul\":4085:4202   */\n      pop\n        /* \"#utility.yul\":4241:4243   */\n      0x20\n        /* \"#utility.yul\":4267:4320   */\n      tag_251\n        /* \"#utility.yul\":4312:4319   */\n      dup7\n        /* \"#utility.yul\":4303:4309   */\n      dup3\n        /* \"#utility.yul\":4292:4301   */\n      dup8\n        /* \"#utility.yul\":4288:4310   */\n      add\n        /* \"#utility.yul\":4267:4320   */\n      tag_173\n      jump\t// in\n    tag_251:\n        /* \"#utility.yul\":4257:4320   */\n      swap3\n      pop\n        /* \"#utility.yul\":4212:4330   */\n      pop\n        /* \"#utility.yul\":4369:4371   */\n      0x40\n        /* \"#utility.yul\":4395:4448   */\n      tag_252\n        /* \"#utility.yul\":4440:4447   */\n      dup7\n        /* \"#utility.yul\":4431:4437   */\n      dup3\n        /* \"#utility.yul\":4420:4429   */\n      dup8\n        /* \"#utility.yul\":4416:4438   */\n      add\n        /* \"#utility.yul\":4395:4448   */\n      tag_176\n      jump\t// in\n    tag_252:\n        /* \"#utility.yul\":4385:4448   */\n      swap2\n      pop\n        /* \"#utility.yul\":4340:4458   */\n      pop\n        /* \"#utility.yul\":3846:4465   */\n      swap3\n      pop\n      swap3\n      pop\n      swap3\n      jump\t// out\n        /* \"#utility.yul\":4471:4557   */\n    tag_180:\n        /* \"#utility.yul\":4506:4513   */\n      0x00\n        /* \"#utility.yul\":4546:4550   */\n      0xff\n        /* \"#utility.yul\":4539:4544   */\n      dup3\n        /* \"#utility.yul\":4535:4551   */\n      and\n        /* \"#utility.yul\":4524:4551   */\n      swap1\n      pop\n        /* \"#utility.yul\":4471:4557   */\n      swap2\n      swap1\n      pop\n      jump\t// out\n        /* \"#utility.yul\":4563:4675   */\n    tag_181:\n        /* \"#utility.yul\":4646:4668   */\n      tag_255\n        /* \"#utility.yul\":4662:4667   */\n      dup2\n        /* \"#utility.yul\":4646:4668   */\n      tag_180\n      jump\t// in\n    tag_255:\n        /* \"#utility.yul\":4641:4644   */\n      dup3\n        /* \"#utility.yul\":4634:4669   */\n      mstore\n        /* \"#utility.yul\":4563:4675   */\n      pop\n      pop\n      jump\t// out\n        /* \"#utility.yul\":4681:4895   */\n    tag_40:\n        /* \"#utility.yul\":4770:4774   */\n      0x00\n        /* \"#utility.yul\":4808:4810   */\n      0x20\n        /* \"#utility.yul\":4797:4806   */\n      dup3\n        /* \"#utility.yul\":4793:4811   */\n      add\n        /* \"#utility.yul\":4785:4811   */\n      swap1\n      pop\n        /* \"#utility.yul\":4821:4888   */\n      tag_257\n        /* \"#utility.yul\":4885:4886   */\n      0x00\n        /* \"#utility.yul\":4874:4883   */\n      dup4\n        /* \"#utility.yul\":4870:4887   */\n      add\n        /* \"#utility.yul\":4861:4867   */\n      dup5\n        /* \"#utility.yul\":4821:4888   */\n      tag_181\n      jump\t// in\n    tag_257:\n        /* \"#utility.yul\":4681:4895   */\n      swap3\n      swap2\n      pop\n      pop\n      jump\t// out\n        /* \"#utility.yul\":4901:5230   */\n    tag_47:\n        /* \"#utility.yul\":4960:4966   */\n      0x00\n        /* \"#utility.yul\":5009:5011   */\n      0x20\n        /* \"#utility.yul\":4997:5006   */\n      dup3\n        /* \"#utility.yul\":4988:4995   */\n      dup5\n        /* \"#utility.yul\":4984:5007   */\n      sub\n        /* \"#utility.yul\":4980:5012   */\n      slt\n        /* \"#utility.yul\":4977:5096   */\n      iszero\n      tag_259\n      jumpi\n        /* \"#utility.yul\":5015:5094   */\n      tag_260\n      tag_168\n      jump\t// in\n    tag_260:\n        /* \"#utility.yul\":4977:5096   */\n    tag_259:\n        /* \"#utility.yul\":5135:5136   */\n      0x00\n        /* \"#utility.yul\":5160:5213   */\n      tag_261\n        /* \"#utility.yul\":5205:5212   */\n      dup5\n        /* \"#utility.yul\":5196:5202   */\n      dup3\n        /* \"#utility.yul\":5185:5194   */\n      dup6\n        /* \"#utility.yul\":5181:5203   */\n      add\n        /* \"#utility.yul\":5160:5213   */\n      tag_173\n      jump\t// in\n    tag_261:\n        /* \"#utility.yul\":5150:5213   */\n      swap2\n      pop\n        /* \"#utility.yul\":5106:5223   */\n      pop\n        /* \"#utility.yul\":4901:5230   */\n      swap3\n      swap2\n      pop\n      pop\n      jump\t// out\n        /* \"#utility.yul\":5236:5710   */\n    tag_66:\n        /* \"#utility.yul\":5304:5310   */\n      0x00\n        /* \"#utility.yul\":5312:5318   */\n      dup1\n        /* \"#utility.yul\":5361:5363   */\n      0x40\n        /* \"#utility.yul\":5349:5358   */\n      dup4\n        /* \"#utility.yul\":5340:5347   */\n      dup6\n        /* \"#utility.yul\":5336:5359   */\n      sub\n        /* \"#utility.yul\":5332:5364   */\n      slt\n        /* \"#utility.yul\":5329:5448   */\n      iszero\n      tag_263\n      jumpi\n        /* \"#utility.yul\":5367:5446   */\n      tag_264\n      tag_168\n      jump\t// in\n    tag_264:\n        /* \"#utility.yul\":5329:5448   */\n    tag_263:\n        /* \"#utility.yul\":5487:5488   */\n      0x00\n        /* \"#utility.yul\":5512:5565   */\n      tag_265\n        /* \"#utility.yul\":5557:5564   */\n      dup6\n        /* \"#utility.yul\":5548:5554   */\n      dup3\n        /* \"#utility.yul\":5537:5546   */\n      dup7\n        /* \"#utility.yul\":5533:5555   */\n      add\n        /* \"#utility.yul\":5512:5565   */\n      tag_176\n      jump\t// in\n    tag_265:\n        /* \"#utility.yul\":5502:5565   */\n      swap3\n      pop\n        /* \"#utility.yul\":5458:5575   */\n      pop\n        /* \"#utility.yul\":5614:5616   */\n      0x20\n        /* \"#utility.yul\":5640:5693   */\n      tag_266\n        /* \"#utility.yul\":5685:5692   */\n      dup6\n        /* \"#utility.yul\":5676:5682   */\n      dup3\n        /* \"#utility.yul\":5665:5674   */\n      dup7\n        /* \"#utility.yul\":5661:5683   */\n      add\n        /* \"#utility.yul\":5640:5693   */\n      tag_173\n      jump\t// in\n    tag_266:\n        /* \"#utility.yul\":5630:5693   */\n      swap2\n      pop\n        /* \"#utility.yul\":5585:5703   */\n      pop\n        /* \"#utility.yul\":5236:5710   */\n      swap3\n      pop\n      swap3\n      swap1\n      pop\n      jump\t// out\n        /* \"#utility.yul\":5716:6190   */\n    tag_70:\n        /* \"#utility.yul\":5784:5790   */\n      0x00\n        /* \"#utility.yul\":5792:5798   */\n      dup1\n        /* \"#utility.yul\":5841:5843   */\n      0x40\n        /* \"#utility.yul\":5829:5838   */\n      dup4\n        /* \"#utility.yul\":5820:5827   */\n      dup6\n        /* \"#utility.yul\":5816:5839   */\n      sub\n        /* \"#utility.yul\":5812:5844   */\n      slt\n        /* \"#utility.yul\":5809:5928   */\n      iszero\n      tag_268\n      jumpi\n        /* \"#utility.yul\":5847:5926   */\n      tag_269\n      tag_168\n      jump\t// in\n    tag_269:\n        /* \"#utility.yul\":5809:5928   */\n    tag_268:\n        /* \"#utility.yul\":5967:5968   */\n      0x00\n        /* \"#utility.yul\":5992:6045   */\n      tag_270\n        /* \"#utility.yul\":6037:6044   */\n      dup6\n        /* \"#utility.yul\":6028:6034   */\n      dup3\n        /* \"#utility.yul\":6017:6026   */\n      dup7\n        /* \"#utility.yul\":6013:6035   */\n      add\n        /* \"#utility.yul\":5992:6045   */\n      tag_173\n      jump\t// in\n    tag_270:\n        /* \"#utility.yul\":5982:6045   */\n      swap3\n      pop\n        /* \"#utility.yul\":5938:6055   */\n      pop\n        /* \"#utility.yul\":6094:6096   */\n      0x20\n        /* \"#utility.yul\":6120:6173   */\n      tag_271\n        /* \"#utility.yul\":6165:6172   */\n      dup6\n        /* \"#utility.yul\":6156:6162   */\n      dup3\n        /* \"#utility.yul\":6145:6154   */\n      dup7\n        /* \"#utility.yul\":6141:6163   */\n      add\n        /* \"#utility.yul\":6120:6173   */\n      tag_173\n      jump\t// in\n    tag_271:\n        /* \"#utility.yul\":6110:6173   */\n      swap2\n      pop\n        /* \"#utility.yul\":6065:6183   */\n      pop\n        /* \"#utility.yul\":5716:6190   */\n      swap3\n      pop\n      swap3\n      swap1\n      pop\n      jump\t// out\n        /* \"#utility.yul\":6196:6376   */\n    tag_182:\n        /* \"#utility.yul\":6244:6321   */\n      0x4e487b7100000000000000000000000000000000000000000000000000000000\n        /* \"#utility.yul\":6241:6242   */\n      0x00\n        /* \"#utility.yul\":6234:6322   */\n      mstore\n        /* \"#utility.yul\":6341:6345   */\n      0x22\n        /* \"#utility.yul\":6338:6339   */\n      0x04\n        /* \"#utility.yul\":6331:6346   */\n      mstore\n        /* \"#utility.yul\":6365:6369   */\n      0x24\n        /* \"#utility.yul\":6362:6363   */\n      0x00\n        /* \"#utility.yul\":6355:6370   */\n      revert\n        /* \"#utility.yul\":6382:6702   */\n    tag_75:\n        /* \"#utility.yul\":6426:6432   */\n      0x00\n        /* \"#utility.yul\":6463:6464   */\n      0x02\n        /* \"#utility.yul\":6457:6461   */\n      dup3\n        /* \"#utility.yul\":6453:6465   */\n      div\n        /* \"#utility.yul\":6443:6465   */\n      swap1\n      pop\n        /* \"#utility.yul\":6510:6511   */\n      0x01\n        /* \"#utility.yul\":6504:6508   */\n      dup3\n        /* \"#utility.yul\":6500:6512   */\n      and\n        /* \"#utility.yul\":6531:6549   */\n      dup1\n        /* \"#utility.yul\":6521:6602   */\n      tag_274\n      jumpi\n        /* \"#utility.yul\":6587:6591   */\n      0x7f\n        /* \"#utility.yul\":6579:6585   */\n      dup3\n        /* \"#utility.yul\":6575:6592   */\n      and\n        /* \"#utility.yul\":6565:6592   */\n      swap2\n      pop\n        /* \"#utility.yul\":6521:6602   */\n    tag_274:\n        /* \"#utility.yul\":6649:6651   */\n      0x20\n        /* \"#utility.yul\":6641:6647   */\n      dup3\n        /* \"#utility.yul\":6638:6652   */\n      lt\n        /* \"#utility.yul\":6618:6636   */\n      dup2\n        /* \"#utility.yul\":6615:6653   */\n      eq\n        /* \"#utility.yul\":6612:6696   */\n      iszero\n      tag_275\n      jumpi\n        /* \"#utility.yul\":6668:6686   */\n      tag_276\n      tag_182\n      jump\t// in\n    tag_276:\n        /* \"#utility.yul\":6612:6696   */\n    tag_275:\n        /* \"#utility.yul\":6433:6702   */\n      pop\n        /* \"#utility.yul\":6382:6702   */\n      swap2\n      swap1\n      pop\n      jump\t// out\n        /* \"#utility.yul\":6708:6888   */\n    tag_183:\n        /* \"#utility.yul\":6756:6833   */\n      0x4e487b7100000000000000000000000000000000000000000000000000000000\n        /* \"#utility.yul\":6753:6754   */\n      0x00\n        /* \"#utility.yul\":6746:6834   */\n      mstore\n        /* \"#utility.yul\":6853:6857   */\n      0x11\n        /* \"#utility.yul\":6850:6851   */\n      0x04\n        /* \"#utility.yul\":6843:6858   */\n      mstore\n        /* \"#utility.yul\":6877:6881   */\n      0x24\n        /* \"#utility.yul\":6874:6875   */\n      0x00\n        /* \"#utility.yul\":6867:6882   */\n      revert\n        /* \"#utility.yul\":6894:7199   */\n    tag_98:\n        /* \"#utility.yul\":6934:6937   */\n      0x00\n        /* \"#utility.yul\":6953:6973   */\n      tag_279\n        /* \"#utility.yul\":6971:6972   */\n      dup3\n        /* \"#utility.yul\":6953:6973   */\n      tag_174\n      jump\t// in\n    tag_279:\n        /* \"#utility.yul\":6948:6973   */\n      swap2\n      pop\n        /* \"#utility.yul\":6987:7007   */\n      tag_280\n        /* \"#utility.yul\":7005:7006   */\n      dup4\n        /* \"#utility.yul\":6987:7007   */\n      tag_174\n      jump\t// in\n    tag_280:\n        /* \"#utility.yul\":6982:7007   */\n      swap3\n      pop\n        /* \"#utility.yul\":7141:7142   */\n      dup3\n        /* \"#utility.yul\":7073:7139   */\n      0xffffffffffffffffffffffffffffffffffffffffffffffffffffffffffffffff\n        /* \"#utility.yul\":7069:7143   */\n      sub\n        /* \"#utility.yul\":7066:7067   */\n      dup3\n        /* \"#utility.yul\":7063:7144   */\n      gt\n        /* \"#utility.yul\":7060:7167   */\n      iszero\n      tag_281\n      jumpi\n        /* \"#utility.yul\":7147:7165   */\n      tag_282\n      tag_183\n      jump\t// in\n    tag_282:\n        /* \"#utility.yul\":7060:7167   */\n    tag_281:\n        /* \"#utility.yul\":7191:7192   */\n      dup3\n        /* \"#utility.yul\":7188:7189   */\n      dup3\n        /* \"#utility.yul\":7184:7193   */\n      add\n        /* \"#utility.yul\":7177:7193   */\n      swap1\n      pop\n        /* \"#utility.yul\":6894:7199   */\n      swap3\n      swap2\n      pop\n      pop\n      jump\t// out\n        /* \"#utility.yul\":7205:7429   */\n    tag_184:\n        /* \"#utility.yul\":7345:7379   */\n      0x45524332303a2064656372656173656420616c6c6f77616e63652062656c6f77\n        /* \"#utility.yul\":7341:7342   */\n      0x00\n        /* \"#utility.yul\":7333:7339   */\n      dup3\n        /* \"#utility.yul\":7329:7343   */\n      add\n        /* \"#utility.yul\":7322:7380   */\n      mstore\n        /* \"#utility.yul\":7414:7421   */\n      0x207a65726f000000000000000000000000000000000000000000000000000000\n        /* \"#utility.yul\":7409:7411   */\n      0x20\n        /* \"#utility.yul\":7401:7407   */\n      dup3\n        /* \"#utility.yul\":7397:7412   */\n      add\n        /* \"#utility.yul\":7390:7422   */\n      mstore\n        /* \"#utility.yul\":7205:7429   */\n      pop\n      jump\t// out\n        /* \"#utility.yul\":7435:7801   */\n    tag_185:\n        /* \"#utility.yul\":7577:7580   */\n      0x00\n        /* \"#utility.yul\":7598:7665   */\n      tag_285\n        /* \"#utility.yul\":7662:7664   */\n      0x25\n        /* \"#utility.yul\":7657:7660   */\n      dup4\n        /* \"#utility.yul\":7598:7665   */\n      tag_163\n      jump\t// in\n    tag_285:\n        /* \"#utility.yul\":7591:7665   */\n      swap2\n      pop\n        /* \"#utility.yul\":7674:7767   */\n      tag_286\n        /* \"#utility.yul\":7763:7766   */\n      dup3\n        /* \"#utility.yul\":7674:7767   */\n      tag_184\n      jump\t// in\n    tag_286:\n        /* \"#utility.yul\":7792:7794   */\n      0x40\n        /* \"#utility.yul\":7787:7790   */\n      dup3\n        /* \"#utility.yul\":7783:7795   */\n      add\n        /* \"#utility.yul\":7776:7795   */\n      swap1\n      pop\n        /* \"#utility.yul\":7435:7801   */\n      swap2\n      swap1\n      pop\n      jump\t// out\n        /* \"#utility.yul\":7807:8226   */\n    tag_111:\n        /* \"#utility.yul\":7973:7977   */\n      0x00\n        /* \"#utility.yul\":8011:8013   */\n      0x20\n        /* \"#utility.yul\":8000:8009   */\n      dup3\n        /* \"#utility.yul\":7996:8014   */\n      add\n        /* \"#utility.yul\":7988:8014   */\n      swap1\n      pop\n        /* \"#utility.yul\":8060:8069   */\n      dup2\n        /* \"#utility.yul\":8054:8058   */\n      dup2\n        /* \"#utility.yul\":8050:8070   */\n      sub\n        /* \"#utility.yul\":8046:8047   */\n      0x00\n        /* \"#utility.yul\":8035:8044   */\n      dup4\n        /* \"#utility.yul\":8031:8048   */\n      add\n        /* \"#utility.yul\":8024:8071   */\n      mstore\n        /* \"#utility.yul\":8088:8219   */\n      tag_288\n        /* \"#utility.yul\":8214:8218   */\n      dup2\n        /* \"#utility.yul\":8088:8219   */\n      tag_185\n      jump\t// in\n    tag_288:\n        /* \"#utility.yul\":8080:8219   */\n      swap1\n      pop\n        /* \"#utility.yul\":7807:8226   */\n      swap2\n      swap1\n      pop\n      jump\t// out\n        /* \"#utility.yul\":8232:8457   */\n    tag_186:\n        /* \"#utility.yul\":8372:8406   */\n      0x6d73672e73656e646572206d7573742062652074686520766f74696e6720636f\n        /* \"#utility.yul\":8368:8369   */\n      0x00\n        /* \"#utility.yul\":8360:8366   */\n      dup3\n        /* \"#utility.yul\":8356:8370   */\n      add\n        /* \"#utility.yul\":8349:8407   */\n      mstore\n        /* \"#utility.yul\":8441:8449   */\n      0x6e74726163740000000000000000000000000000000000000000000000000000\n        /* \"#utility.yul\":8436:8438   */\n      0x20\n        /* \"#utility.yul\":8428:8434   */\n      dup3\n        /* \"#utility.yul\":8424:8439   */\n      add\n        /* \"#utility.yul\":8417:8450   */\n      mstore\n        /* \"#utility.yul\":8232:8457   */\n      pop\n      jump\t// out\n        /* \"#utility.yul\":8463:8829   */\n    tag_187:\n        /* \"#utility.yul\":8605:8608   */\n      0x00\n        /* \"#utility.yul\":8626:8693   */\n      tag_291\n        /* \"#utility.yul\":8690:8692   */\n      0x26\n        /* \"#utility.yul\":8685:8688   */\n      dup4\n        /* \"#utility.yul\":8626:8693   */\n      tag_163\n      jump\t// in\n    tag_291:\n        /* \"#utility.yul\":8619:8693   */\n      swap2\n      pop\n        /* \"#utility.yul\":8702:8795   */\n      tag_292\n        /* \"#utility.yul\":8791:8794   */\n      dup3\n        /* \"#utility.yul\":8702:8795   */\n      tag_186\n      jump\t// in\n    tag_292:\n        /* \"#utility.yul\":8820:8822   */\n      0x40\n        /* \"#utility.yul\":8815:8818   */\n      dup3\n        /* \"#utility.yul\":8811:8823   */\n      add\n        /* \"#utility.yul\":8804:8823   */\n      swap1\n      pop\n        /* \"#utility.yul\":8463:8829   */\n      swap2\n      swap1\n      pop\n      jump\t// out\n        /* \"#utility.yul\":8835:9254   */\n    tag_119:\n        /* \"#utility.yul\":9001:9005   */\n      0x00\n        /* \"#utility.yul\":9039:9041   */\n      0x20\n        /* \"#utility.yul\":9028:9037   */\n      dup3\n        /* \"#utility.yul\":9024:9042   */\n      add\n        /* \"#utility.yul\":9016:9042   */\n      swap1\n      pop\n        /* \"#utility.yul\":9088:9097   */\n      dup2\n        /* \"#utility.yul\":9082:9086   */\n      dup2\n        /* \"#utility.yul\":9078:9098   */\n      sub\n        /* \"#utility.yul\":9074:9075   */\n      0x00\n        /* \"#utility.yul\":9063:9072   */\n      dup4\n        /* \"#utility.yul\":9059:9076   */\n      add\n        /* \"#utility.yul\":9052:9099   */\n      mstore\n        /* \"#utility.yul\":9116:9247   */\n      tag_294\n        /* \"#utility.yul\":9242:9246   */\n      dup2\n        /* \"#utility.yul\":9116:9247   */\n      tag_187\n      jump\t// in\n    tag_294:\n        /* \"#utility.yul\":9108:9247   */\n      swap1\n      pop\n        /* \"#utility.yul\":8835:9254   */\n      swap2\n      swap1\n      pop\n      jump\t// out\n        /* \"#utility.yul\":9260:9451   */\n    tag_121:\n        /* \"#utility.yul\":9300:9304   */\n      0x00\n        /* \"#utility.yul\":9320:9340   */\n      tag_296\n        /* \"#utility.yul\":9338:9339   */\n      dup3\n        /* \"#utility.yul\":9320:9340   */\n      tag_174\n      jump\t// in\n    tag_296:\n        /* \"#utility.yul\":9315:9340   */\n      swap2\n      pop\n        /* \"#utility.yul\":9354:9374   */\n      tag_297\n        /* \"#utility.yul\":9372:9373   */\n      dup4\n        /* \"#utility.yul\":9354:9374   */\n      tag_174\n      jump\t// in\n    tag_297:\n        /* \"#utility.yul\":9349:9374   */\n      swap3\n      pop\n        /* \"#utility.yul\":9393:9394   */\n      dup3\n        /* \"#utility.yul\":9390:9391   */\n      dup3\n        /* \"#utility.yul\":9387:9395   */\n      lt\n        /* \"#utility.yul\":9384:9418   */\n      iszero\n      tag_298\n      jumpi\n        /* \"#utility.yul\":9398:9416   */\n      tag_299\n      tag_183\n      jump\t// in\n    tag_299:\n        /* \"#utility.yul\":9384:9418   */\n    tag_298:\n        /* \"#utility.yul\":9443:9444   */\n      dup3\n        /* \"#utility.yul\":9440:9441   */\n      dup3\n        /* \"#utility.yul\":9436:9445   */\n      sub\n        /* \"#utility.yul\":9428:9445   */\n      swap1\n      pop\n        /* \"#utility.yul\":9260:9451   */\n      swap3\n      swap2\n      pop\n      pop\n      jump\t// out\n        /* \"#utility.yul\":9457:9680   */\n    tag_188:\n        /* \"#utility.yul\":9597:9631   */\n      0x45524332303a20617070726f76652066726f6d20746865207a65726f20616464\n        /* \"#utility.yul\":9593:9594   */\n      0x00\n        /* \"#utility.yul\":9585:9591   */\n      dup3\n        /* \"#utility.yul\":9581:9595   */\n      add\n        /* \"#utility.yul\":9574:9632   */\n      mstore\n        /* \"#utility.yul\":9666:9672   */\n      0x7265737300000000000000000000000000000000000000000000000000000000\n        /* \"#utility.yul\":9661:9663   */\n      0x20\n        /* \"#utility.yul\":9653:9659   */\n      dup3\n        /* \"#utility.yul\":9649:9664   */\n      add\n        /* \"#utility.yul\":9642:9673   */\n      mstore\n        /* \"#utility.yul\":9457:9680   */\n      pop\n      jump\t// out\n        /* \"#utility.yul\":9686:10052   */\n    tag_189:\n        /* \"#utility.yul\":9828:9831   */\n      0x00\n        /* \"#utility.yul\":9849:9916   */\n      tag_302\n        /* \"#utility.yul\":9913:9915   */\n      0x24\n        /* \"#utility.yul\":9908:9911   */\n      dup4\n        /* \"#utility.yul\":9849:9916   */\n      tag_163\n      jump\t// in\n    tag_302:\n        /* \"#utility.yul\":9842:9916   */\n      swap2\n      pop\n        /* \"#utility.yul\":9925:10018   */\n      tag_303\n        /* \"#utility.yul\":10014:10017   */\n      dup3\n        /* \"#utility.yul\":9925:10018   */\n      tag_188\n      jump\t// in\n    tag_303:\n        /* \"#utility.yul\":10043:10045   */\n      0x40\n        /* \"#utility.yul\":10038:10041   */\n      dup3\n        /* \"#utility.yul\":10034:10046   */\n      add\n        /* \"#utility.yul\":10027:10046   */\n      swap1\n      pop\n        /* \"#utility.yul\":9686:10052   */\n      swap2\n      swap1\n      pop\n      jump\t// out\n        /* \"#utility.yul\":10058:10477   */\n    tag_131:\n        /* \"#utility.yul\":10224:10228   */\n      0x00\n        /* \"#utility.yul\":10262:10264   */\n      0x20\n        /* \"#utility.yul\":10251:10260   */\n      dup3\n        /* \"#utility.yul\":10247:10265   */\n      add\n        /* \"#utility.yul\":10239:10265   */\n      swap1\n      pop\n        /* \"#utility.yul\":10311:10320   */\n      dup2\n        /* \"#utility.yul\":10305:10309   */\n      dup2\n        /* \"#utility.yul\":10301:10321   */\n      sub\n        /* \"#utility.yul\":10297:10298   */\n      0x00\n        /* \"#utility.yul\":10286:10295   */\n      dup4\n        /* \"#utility.yul\":10282:10299   */\n      add\n        /* \"#utility.yul\":10275:10322   */\n      mstore\n        /* \"#utility.yul\":10339:10470   */\n      tag_305\n        /* \"#utility.yul\":10465:10469   */\n      dup2\n        /* \"#utility.yul\":10339:10470   */\n      tag_189\n      jump\t// in\n    tag_305:\n        /* \"#utility.yul\":10331:10470   */\n      swap1\n      pop\n        /* \"#utility.yul\":10058:10477   */\n      swap2\n      swap1\n      pop\n      jump\t// out\n        /* \"#utility.yul\":10483:10704   */\n    tag_190:\n        /* \"#utility.yul\":10623:10657   */\n      0x45524332303a20617070726f766520746f20746865207a65726f206164647265\n        /* \"#utility.yul\":10619:10620   */\n      0x00\n        /* \"#utility.yul\":10611:10617   */\n      dup3\n        /* \"#utility.yul\":10607:10621   */\n      add\n        /* \"#utility.yul\":10600:10658   */\n      mstore\n        /* \"#utility.yul\":10692:10696   */\n      0x7373000000000000000000000000000000000000000000000000000000000000\n        /* \"#utility.yul\":10687:10689   */\n      0x20\n        /* \"#utility.yul\":10679:10685   */\n      dup3\n        /* \"#utility.yul\":10675:10690   */\n      add\n        /* \"#utility.yul\":10668:10697   */\n      mstore\n        /* \"#utility.yul\":10483:10704   */\n      pop\n      jump\t// out\n        /* \"#utility.yul\":10710:11076   */\n    tag_191:\n        /* \"#utility.yul\":10852:10855   */\n      0x00\n        /* \"#utility.yul\":10873:10940   */\n      tag_308\n        /* \"#utility.yul\":10937:10939   */\n      0x22\n        /* \"#utility.yul\":10932:10935   */\n      dup4\n        /* \"#utility.yul\":10873:10940   */\n      tag_163\n      jump\t// in\n    tag_308:\n        /* \"#utility.yul\":10866:10940   */\n      swap2\n      pop\n        /* \"#utility.yul\":10949:11042   */\n      tag_309\n        /* \"#utility.yul\":11038:11041   */\n      dup3\n        /* \"#utility.yul\":10949:11042   */\n      tag_190\n      jump\t// in\n    tag_309:\n        /* \"#utility.yul\":11067:11069   */\n      0x40\n        /* \"#utility.yul\":11062:11065   */\n      dup3\n        /* \"#utility.yul\":11058:11070   */\n      add\n        /* \"#utility.yul\":11051:11070   */\n      swap1\n      pop\n        /* \"#utility.yul\":10710:11076   */\n      swap2\n      swap1\n      pop\n      jump\t// out\n        /* \"#utility.yul\":11082:11501   */\n    tag_134:\n        /* \"#utility.yul\":11248:11252   */\n      0x00\n        /* \"#utility.yul\":11286:11288   */\n      0x20\n        /* \"#utility.yul\":11275:11284   */\n      dup3\n        /* \"#utility.yul\":11271:11289   */\n      add\n        /* \"#utility.yul\":11263:11289   */\n      swap1\n      pop\n        /* \"#utility.yul\":11335:11344   */\n      dup2\n        /* \"#utility.yul\":11329:11333   */\n      dup2\n        /* \"#utility.yul\":11325:11345   */\n      sub\n        /* \"#utility.yul\":11321:11322   */\n      0x00\n        /* \"#utility.yul\":11310:11319   */\n      dup4\n        /* \"#utility.yul\":11306:11323   */\n      add\n        /* \"#utility.yul\":11299:11346   */\n      mstore\n        /* \"#utility.yul\":11363:11494   */\n      tag_311\n        /* \"#utility.yul\":11489:11493   */\n      dup2\n        /* \"#utility.yul\":11363:11494   */\n      tag_191\n      jump\t// in\n    tag_311:\n        /* \"#utility.yul\":11355:11494   */\n      swap1\n      pop\n        /* \"#utility.yul\":11082:11501   */\n      swap2\n      swap1\n      pop\n      jump\t// out\n        /* \"#utility.yul\":11507:11686   */\n    tag_192:\n        /* \"#utility.yul\":11647:11678   */\n      0x45524332303a20696e73756666696369656e7420616c6c6f77616e6365000000\n        /* \"#utility.yul\":11643:11644   */\n      0x00\n        /* \"#utility.yul\":11635:11641   */\n      dup3\n        /* \"#utility.yul\":11631:11645   */\n      add\n        /* \"#utility.yul\":11624:11679   */\n      mstore\n        /* \"#utility.yul\":11507:11686   */\n      pop\n      jump\t// out\n        /* \"#utility.yul\":11692:12058   */\n    tag_193:\n        /* \"#utility.yul\":11834:11837   */\n      0x00\n        /* \"#utility.yul\":11855:11922   */\n      tag_314\n        /* \"#utility.yul\":11919:11921   */\n      0x1d\n        /* \"#utility.yul\":11914:11917   */\n      dup4\n        /* \"#utility.yul\":11855:11922   */\n      tag_163\n      jump\t// in\n    tag_314:\n        /* \"#utility.yul\":11848:11922   */\n      swap2\n      pop\n        /* \"#utility.yul\":11931:12024   */\n      tag_315\n        /* \"#utility.yul\":12020:12023   */\n      dup3\n        /* \"#utility.yul\":11931:12024   */\n      tag_192\n      jump\t// in\n    tag_315:\n        /* \"#utility.yul\":12049:12051   */\n      0x20\n        /* \"#utility.yul\":12044:12047   */\n      dup3\n        /* \"#utility.yul\":12040:12052   */\n      add\n        /* \"#utility.yul\":12033:12052   */\n      swap1\n      pop\n        /* \"#utility.yul\":11692:12058   */\n      swap2\n      swap1\n      pop\n      jump\t// out\n        /* \"#utility.yul\":12064:12483   */\n    tag_141:\n        /* \"#utility.yul\":12230:12234   */\n      0x00\n        /* \"#utility.yul\":12268:12270   */\n      0x20\n        /* \"#utility.yul\":12257:12266   */\n      dup3\n        /* \"#utility.yul\":12253:12271   */\n      add\n        /* \"#utility.yul\":12245:12271   */\n      swap1\n      pop\n        /* \"#utility.yul\":12317:12326   */\n      dup2\n        /* \"#utility.yul\":12311:12315   */\n      dup2\n        /* \"#utility.yul\":12307:12327   */\n      sub\n        /* \"#utility.yul\":12303:12304   */\n      0x00\n        /* \"#utility.yul\":12292:12301   */\n      dup4\n        /* \"#utility.yul\":12288:12305   */\n      add\n        /* \"#utility.yul\":12281:12328   */\n      mstore\n        /* \"#utility.yul\":12345:12476   */\n      tag_317\n        /* \"#utility.yul\":12471:12475   */\n      dup2\n        /* \"#utility.yul\":12345:12476   */\n      tag_193\n      jump\t// in\n    tag_317:\n        /* \"#utility.yul\":12337:12476   */\n      swap1\n      pop\n        /* \"#utility.yul\":12064:12483   */\n      swap2\n      swap1\n      pop\n      jump\t// out\n        /* \"#utility.yul\":12489:12713   */\n    tag_194:\n        /* \"#utility.yul\":12629:12663   */\n      0x45524332303a207472616e736665722066726f6d20746865207a65726f206164\n        /* \"#utility.yul\":12625:12626   */\n      0x00\n        /* \"#utility.yul\":12617:12623   */\n      dup3\n        /* \"#utility.yul\":12613:12627   */\n      add\n        /* \"#utility.yul\":12606:12664   */\n      mstore\n        /* \"#utility.yul\":12698:12705   */\n      0x6472657373000000000000000000000000000000000000000000000000000000\n        /* \"#utility.yul\":12693:12695   */\n      0x20\n        /* \"#utility.yul\":12685:12691   */\n      dup3\n        /* \"#utility.yul\":12681:12696   */\n      add\n        /* \"#utility.yul\":12674:12706   */\n      mstore\n        /* \"#utility.yul\":12489:12713   */\n      pop\n      jump\t// out\n        /* \"#utility.yul\":12719:13085   */\n    tag_195:\n        /* \"#utility.yul\":12861:12864   */\n      0x00\n        /* \"#utility.yul\":12882:12949   */\n      tag_320\n        /* \"#utility.yul\":12946:12948   */\n      0x25\n        /* \"#utility.yul\":12941:12944   */\n      dup4\n        /* \"#utility.yul\":12882:12949   */\n      tag_163\n      jump\t// in\n    tag_320:\n        /* \"#utility.yul\":12875:12949   */\n      swap2\n      pop\n        /* \"#utility.yul\":12958:13051   */\n      tag_321\n        /* \"#utility.yul\":13047:13050   */\n      dup3\n        /* \"#utility.yul\":12958:13051   */\n      tag_194\n      jump\t// in\n    tag_321:\n        /* \"#utility.yul\":13076:13078   */\n      0x40\n        /* \"#utility.yul\":13071:13074   */\n      dup3\n        /* \"#utility.yul\":13067:13079   */\n      add\n        /* \"#utility.yul\":13060:13079   */\n      swap1\n      pop\n        /* \"#utility.yul\":12719:13085   */\n      swap2\n      swap1\n      pop\n      jump\t// out\n        /* \"#utility.yul\":13091:13510   */\n    tag_146:\n        /* \"#utility.yul\":13257:13261   */\n      0x00\n        /* \"#utility.yul\":13295:13297   */\n      0x20\n        /* \"#utility.yul\":13284:13293   */\n      dup3\n        /* \"#utility.yul\":13280:13298   */\n      add\n        /* \"#utility.yul\":13272:13298   */\n      swap1\n      pop\n        /* \"#utility.yul\":13344:13353   */\n      dup2\n        /* \"#utility.yul\":13338:13342   */\n      dup2\n        /* \"#utility.yul\":13334:13354   */\n      sub\n        /* \"#utility.yul\":13330:13331   */\n      0x00\n        /* \"#utility.yul\":13319:13328   */\n      dup4\n        /* \"#utility.yul\":13315:13332   */\n      add\n        /* \"#utility.yul\":13308:13355   */\n      mstore\n        /* \"#utility.yul\":13372:13503   */\n      tag_323\n        /* \"#utility.yul\":13498:13502   */\n      dup2\n        /* \"#utility.yul\":13372:13503   */\n      tag_195\n      jump\t// in\n    tag_323:\n        /* \"#utility.yul\":13364:13503   */\n      swap1\n      pop\n        /* \"#utility.yul\":13091:13510   */\n      swap2\n      swap1\n      pop\n      jump\t// out\n        /* \"#utility.yul\":13516:13738   */\n    tag_196:\n        /* \"#utility.yul\":13656:13690   */\n      0x45524332303a207472616e7366657220746f20746865207a65726f2061646472\n        /* \"#utility.yul\":13652:13653   */\n      0x00\n        /* \"#utility.yul\":13644:13650   */\n      dup3\n        /* \"#utility.yul\":13640:13654   */\n      add\n        /* \"#utility.yul\":13633:13691   */\n      mstore\n        /* \"#utility.yul\":13725:13730   */\n      0x6573730000000000000000000000000000000000000000000000000000000000\n        /* \"#utility.yul\":13720:13722   */\n      0x20\n        /* \"#utility.yul\":13712:13718   */\n      dup3\n        /* \"#utility.yul\":13708:13723   */\n      add\n        /* \"#utility.yul\":13701:13731   */\n      mstore\n        /* \"#utility.yul\":13516:13738   */\n      pop\n      jump\t// out\n        /* \"#utility.yul\":13744:14110   */\n    tag_197:\n        /* \"#utility.yul\":13886:13889   */\n      0x00\n        /* \"#utility.yul\":13907:13974   */\n      tag_326\n        /* \"#utility.yul\":13971:13973   */\n      0x23\n        /* \"#utility.yul\":13966:13969   */\n      dup4\n        /* \"#utility.yul\":13907:13974   */\n      tag_163\n      jump\t// in\n    tag_326:\n        /* \"#utility.yul\":13900:13974   */\n      swap2\n      pop\n        /* \"#utility.yul\":13983:14076   */\n      tag_327\n        /* \"#utility.yul\":14072:14075   */\n      dup3\n        /* \"#utility.yul\":13983:14076   */\n      tag_196\n      jump\t// in\n    tag_327:\n        /* \"#utility.yul\":14101:14103   */\n      0x40\n        /* \"#utility.yul\":14096:14099   */\n      dup3\n        /* \"#utility.yul\":14092:14104   */\n      add\n        /* \"#utility.yul\":14085:14104   */\n      swap1\n      pop\n        /* \"#utility.yul\":13744:14110   */\n      swap2\n      swap1\n      pop\n      jump\t// out\n        /* \"#utility.yul\":14116:14535   */\n    tag_149:\n        /* \"#utility.yul\":14282:14286   */\n      0x00\n        /* \"#utility.yul\":14320:14322   */\n      0x20\n        /* \"#utility.yul\":14309:14318   */\n      dup3\n        /* \"#utility.yul\":14305:14323   */\n      add\n        /* \"#utility.yul\":14297:14323   */\n      swap1\n      pop\n        /* \"#utility.yul\":14369:14378   */\n      dup2\n        /* \"#utility.yul\":14363:14367   */\n      dup2\n        /* \"#utility.yul\":14359:14379   */\n      sub\n        /* \"#utility.yul\":14355:14356   */\n      0x00\n        /* \"#utility.yul\":14344:14353   */\n      dup4\n        /* \"#utility.yul\":14340:14357   */\n      add\n        /* \"#utility.yul\":14333:14380   */\n      mstore\n        /* \"#utility.yul\":14397:14528   */\n      tag_329\n        /* \"#utility.yul\":14523:14527   */\n      dup2\n        /* \"#utility.yul\":14397:14528   */\n      tag_197\n      jump\t// in\n    tag_329:\n        /* \"#utility.yul\":14389:14528   */\n      swap1\n      pop\n        /* \"#utility.yul\":14116:14535   */\n      swap2\n      swap1\n      pop\n      jump\t// out\n        /* \"#utility.yul\":14541:14770   */\n    tag_198:\n        /* \"#utility.yul\":14681:14715   */\n      0x45524332303a207472616e7366657261626c6520616d6f756e74206578636565\n        /* \"#utility.yul\":14677:14678   */\n      0x00\n        /* \"#utility.yul\":14669:14675   */\n      dup3\n        /* \"#utility.yul\":14665:14679   */\n      add\n        /* \"#utility.yul\":14658:14716   */\n      mstore\n        /* \"#utility.yul\":14750:14762   */\n      0x64732062616c616e636500000000000000000000000000000000000000000000\n        /* \"#utility.yul\":14745:14747   */\n      0x20\n        /* \"#utility.yul\":14737:14743   */\n      dup3\n        /* \"#utility.yul\":14733:14748   */\n      add\n        /* \"#utility.yul\":14726:14763   */\n      mstore\n        /* \"#utility.yul\":14541:14770   */\n      pop\n      jump\t// out\n        /* \"#utility.yul\":14776:15142   */\n    tag_199:\n        /* \"#utility.yul\":14918:14921   */\n      0x00\n        /* \"#utility.yul\":14939:15006   */\n      tag_332\n        /* \"#utility.yul\":15003:15005   */\n      0x2a\n        /* \"#utility.yul\":14998:15001   */\n      dup4\n        /* \"#utility.yul\":14939:15006   */\n      tag_163\n      jump\t// in\n    tag_332:\n        /* \"#utility.yul\":14932:15006   */\n      swap2\n      pop\n        /* \"#utility.yul\":15015:15108   */\n      tag_333\n        /* \"#utility.yul\":15104:15107   */\n      dup3\n        /* \"#utility.yul\":15015:15108   */\n      tag_198\n      jump\t// in\n    tag_333:\n        /* \"#utility.yul\":15133:15135   */\n      0x40\n        /* \"#utility.yul\":15128:15131   */\n      dup3\n        /* \"#utility.yul\":15124:15136   */\n      add\n        /* \"#utility.yul\":15117:15136   */\n      swap1\n      pop\n        /* \"#utility.yul\":14776:15142   */\n      swap2\n      swap1\n      pop\n      jump\t// out\n        /* \"#utility.yul\":15148:15567   */\n    tag_155:\n        /* \"#utility.yul\":15314:15318   */\n      0x00\n        /* \"#utility.yul\":15352:15354   */\n      0x20\n        /* \"#utility.yul\":15341:15350   */\n      dup3\n        /* \"#utility.yul\":15337:15355   */\n      add\n        /* \"#utility.yul\":15329:15355   */\n      swap1\n      pop\n        /* \"#utility.yul\":15401:15410   */\n      dup2\n        /* \"#utility.yul\":15395:15399   */\n      dup2\n        /* \"#utility.yul\":15391:15411   */\n      sub\n        /* \"#utility.yul\":15387:15388   */\n      0x00\n        /* \"#utility.yul\":15376:15385   */\n      dup4\n        /* \"#utility.yul\":15372:15389   */\n      add\n        /* \"#utility.yul\":15365:15412   */\n      mstore\n        /* \"#utility.yul\":15429:15560   */\n      tag_335\n        /* \"#utility.yul\":15555:15559   */\n      dup2\n        /* \"#utility.yul\":15429:15560   */\n      tag_199\n      jump\t// in\n    tag_335:\n        /* \"#utility.yul\":15421:15560   */\n      swap1\n      pop\n        /* \"#utility.yul\":15148:15567   */\n      swap2\n      swap1\n      pop\n      jump\t// out\n\n    auxdata: 0xa264697066735822122039ac1bbd26d2e4848785fa03033f6541bbb1019535229d9a7876f8778b95f75164736f6c634300080a0033\n}\n",
				"bytecode": {
					"linkReferences": {},
					"object": "60806040523480156200001157600080fd5b5060405162001e7e38038062001e7e833981810160405281019062000037919062000518565b80600360006101000a81548173ffffffffffffffffffffffffffffffffffffffff021916908373ffffffffffffffffffffffffffffffffffffffff16021790555082600190805190602001906200009092919062000252565b508160029080519060200190620000a992919062000252565b50620000c63369d3c21bcecceda1000000620000cf60201b60201c565b5050506200075e565b600073ffffffffffffffffffffffffffffffffffffffff168273ffffffffffffffffffffffffffffffffffffffff16141562000142576040517f08c379a0000000000000000000000000000000000000000000000000000000008152600401620001399062000613565b60405180910390fd5b62000156600083836200024860201b60201c565b806000808282546200016991906200066e565b9250508190555080600560008473ffffffffffffffffffffffffffffffffffffffff1673ffffffffffffffffffffffffffffffffffffffff1681526020019081526020016000206000828254620001c191906200066e565b925050819055508173ffffffffffffffffffffffffffffffffffffffff16600073ffffffffffffffffffffffffffffffffffffffff167fddf252ad1be2c89b69c2b068fc378daa952ba7f163c4a11628f55a4df523b3ef83604051620002289190620006dc565b60405180910390a362000244600083836200024d60201b60201c565b5050565b505050565b505050565b828054620002609062000728565b90600052602060002090601f016020900481019282620002845760008555620002d0565b82601f106200029f57805160ff1916838001178555620002d0565b82800160010185558215620002d0579182015b82811115620002cf578251825591602001919060010190620002b2565b5b509050620002df9190620002e3565b5090565b5b80821115620002fe576000816000905550600101620002e4565b5090565b6000604051905090565b600080fd5b600080fd5b600080fd5b600080fd5b6000601f19601f8301169050919050565b7f4e487b7100000000000000000000000000000000000000000000000000000000600052604160045260246000fd5b6200036b8262000320565b810181811067ffffffffffffffff821117156200038d576200038c62000331565b5b80604052505050565b6000620003a262000302565b9050620003b0828262000360565b919050565b600067ffffffffffffffff821115620003d357620003d262000331565b5b620003de8262000320565b9050602081019050919050565b60005b838110156200040b578082015181840152602081019050620003ee565b838111156200041b576000848401525b50505050565b6000620004386200043284620003b5565b62000396565b9050828152602081018484840111156200045757620004566200031b565b5b62000464848285620003eb565b509392505050565b600082601f83011262000484576200048362000316565b5b81516200049684826020860162000421565b91505092915050565b600073ffffffffffffffffffffffffffffffffffffffff82169050919050565b6000620004cc826200049f565b9050919050565b6000620004e082620004bf565b9050919050565b620004f281620004d3565b8114620004fe57600080fd5b50565b6000815190506200051281620004e7565b92915050565b6000806000606084860312156200053457620005336200030c565b5b600084015167ffffffffffffffff81111562000555576200055462000311565b5b62000563868287016200046c565b935050602084015167ffffffffffffffff81111562000587576200058662000311565b5b62000595868287016200046c565b9250506040620005a88682870162000501565b9150509250925092565b600082825260208201905092915050565b7f45524332303a206d696e7420746f20746865207a65726f206164647265737300600082015250565b6000620005fb601f83620005b2565b91506200060882620005c3565b602082019050919050565b600060208201905081810360008301526200062e81620005ec565b9050919050565b6000819050919050565b7f4e487b7100000000000000000000000000000000000000000000000000000000600052601160045260246000fd5b60006200067b8262000635565b9150620006888362000635565b9250827fffffffffffffffffffffffffffffffffffffffffffffffffffffffffffffffff03821115620006c057620006bf6200063f565b5b828201905092915050565b620006d68162000635565b82525050565b6000602082019050620006f36000830184620006cb565b92915050565b7f4e487b7100000000000000000000000000000000000000000000000000000000600052602260045260246000fd5b600060028204905060018216806200074157607f821691505b60208210811415620007585762000757620006f9565b5b50919050565b611710806200076e6000396000f3fe608060405234801561001057600080fd5b50600436106100cf5760003560e01c806370a082311161008c578063a9059cbb11610066578063a9059cbb1461023c578063bade9d841461026c578063cec1460b14610288578063dd62ed3e146102a4576100cf565b806370a08231146101be57806395d89b41146101ee578063a457c2d71461020c576100cf565b806306fdde03146100d4578063095ea7b3146100f257806318160ddd1461012257806323b872dd14610140578063313ce56714610170578063395093511461018e575b600080fd5b6100dc6102d4565b6040516100e99190610ec4565b60405180910390f35b61010c60048036038101906101079190610f7f565b610366565b6040516101199190610fda565b60405180910390f35b61012a610389565b6040516101379190611004565b60405180910390f35b61015a6004803603810190610155919061101f565b610392565b6040516101679190610fda565b60405180910390f35b6101786103c1565b604051610185919061108e565b60405180910390f35b6101a860048036038101906101a39190610f7f565b6103ca565b6040516101b59190610fda565b60405180910390f35b6101d860048036038101906101d391906110a9565b610401565b6040516101e59190611004565b60405180910390f35b6101f661044a565b6040516102039190610ec4565b60405180910390f35b61022660048036038101906102219190610f7f565b6104dc565b6040516102339190610fda565b60405180910390f35b61025660048036038101906102519190610f7f565b610553565b6040516102639190610fda565b60405180910390f35b610286600480360381019061028191906110a9565b610576565b005b6102a2600480360381019061029d91906110d6565b610774565b005b6102be60048036038101906102b99190611116565b610861565b6040516102cb9190611004565b60405180910390f35b6060600180546102e390611185565b80601f016020809104026020016040519081016040528092919081815260200182805461030f90611185565b801561035c5780601f106103315761010080835404028352916020019161035c565b820191906000526020600020905b81548152906001019060200180831161033f57829003601f168201915b5050505050905090565b6000806103716108e8565b905061037e8185856108f0565b600191505092915050565b60008054905090565b60008061039d6108e8565b90506103aa858285610abb565b6103b5858585610b47565b60019150509392505050565b60006012905090565b6000806103d56108e8565b90506103f68185856103e78589610861565b6103f191906111e6565b6108f0565b600191505092915050565b6000600560008373ffffffffffffffffffffffffffffffffffffffff1673ffffffffffffffffffffffffffffffffffffffff168152602001908152602001600020549050919050565b60606002805461045990611185565b80601f016020809104026020016040519081016040528092919081815260200182805461048590611185565b80156104d25780601f106104a7576101008083540402835291602001916104d2565b820191906000526020600020905b8154815290600101906020018083116104b557829003601f168201915b5050505050905090565b6000806104e76108e8565b905060006104f58286610861565b90508381101561053a576040517f08c379a0000000000000000000000000000000000000000000000000000000008152600401610531906112ae565b60405180910390fd5b61054782868684036108f0565b60019250505092915050565b60008061055e6108e8565b905061056b818585610b47565b600191505092915050565b600360009054906101000a900473ffffffffffffffffffffffffffffffffffffffff1673ffffffffffffffffffffffffffffffffffffffff163373ffffffffffffffffffffffffffffffffffffffff1614610606576040517f08c379a00000000000000000000000000000000000000000000000000000000081526004016105fd90611340565b60405180910390fd5b6000600460003373ffffffffffffffffffffffffffffffffffffffff1673ffffffffffffffffffffffffffffffffffffffff16815260200190815260200160002060008373ffffffffffffffffffffffffffffffffffffffff1673ffffffffffffffffffffffffffffffffffffffff16815260200190815260200160002054905080600660003373ffffffffffffffffffffffffffffffffffffffff1673ffffffffffffffffffffffffffffffffffffffff16815260200190815260200160002060008282546106d69190611360565b9250508190555080600460003373ffffffffffffffffffffffffffffffffffffffff1673ffffffffffffffffffffffffffffffffffffffff16815260200190815260200160002060008473ffffffffffffffffffffffffffffffffffffffff1673ffffffffffffffffffffffffffffffffffffffff16815260200190815260200160002060008282546107699190611360565b925050819055505050565b81600460003373ffffffffffffffffffffffffffffffffffffffff1673ffffffffffffffffffffffffffffffffffffffff16815260200190815260200160002060008373ffffffffffffffffffffffffffffffffffffffff1673ffffffffffffffffffffffffffffffffffffffff168152602001908152602001600020600082825461080091906111e6565b9250508190555081600660003373ffffffffffffffffffffffffffffffffffffffff1673ffffffffffffffffffffffffffffffffffffffff168152602001908152602001600020600082825461085691906111e6565b925050819055505050565b6000600760008473ffffffffffffffffffffffffffffffffffffffff1673ffffffffffffffffffffffffffffffffffffffff16815260200190815260200160002060008373ffffffffffffffffffffffffffffffffffffffff1673ffffffffffffffffffffffffffffffffffffffff16815260200190815260200160002054905092915050565b600033905090565b600073ffffffffffffffffffffffffffffffffffffffff168373ffffffffffffffffffffffffffffffffffffffff161415610960576040517f08c379a000000000000000000000000000000000000000000000000000000000815260040161095790611406565b60405180910390fd5b600073ffffffffffffffffffffffffffffffffffffffff168273ffffffffffffffffffffffffffffffffffffffff1614156109d0576040517f08c379a00000000000000000000000000000000000000000000000000000000081526004016109c790611498565b60405180910390fd5b80600760008573ffffffffffffffffffffffffffffffffffffffff1673ffffffffffffffffffffffffffffffffffffffff16815260200190815260200160002060008473ffffffffffffffffffffffffffffffffffffffff1673ffffffffffffffffffffffffffffffffffffffff168152602001908152602001600020819055508173ffffffffffffffffffffffffffffffffffffffff168373ffffffffffffffffffffffffffffffffffffffff167f8c5be1e5ebec7d5bd14f71427d1e84f3dd0314c0f7b2291e5b200ac8c7c3b92583604051610aae9190611004565b60405180910390a3505050565b6000610ac78484610861565b90507fffffffffffffffffffffffffffffffffffffffffffffffffffffffffffffffff8114610b415781811015610b33576040517f08c379a0000000000000000000000000000000000000000000000000000000008152600401610b2a90611504565b60405180910390fd5b610b4084848484036108f0565b5b50505050565b600073ffffffffffffffffffffffffffffffffffffffff168373ffffffffffffffffffffffffffffffffffffffff161415610bb7576040517f08c379a0000000000000000000000000000000000000000000000000000000008152600401610bae90611596565b60405180910390fd5b600073ffffffffffffffffffffffffffffffffffffffff168273ffffffffffffffffffffffffffffffffffffffff161415610c27576040517f08c379a0000000000000000000000000000000000000000000000000000000008152600401610c1e90611628565b60405180910390fd5b610c32838383610e21565b6000600660003373ffffffffffffffffffffffffffffffffffffffff1673ffffffffffffffffffffffffffffffffffffffff1681526020019081526020016000205490506000600560008673ffffffffffffffffffffffffffffffffffffffff1673ffffffffffffffffffffffffffffffffffffffff16815260200190815260200160002054905060008282610cc89190611360565b905083811015610d0d576040517f08c379a0000000000000000000000000000000000000000000000000000000008152600401610d04906116ba565b60405180910390fd5b838203600560008873ffffffffffffffffffffffffffffffffffffffff1673ffffffffffffffffffffffffffffffffffffffff1681526020019081526020016000208190555083600560008773ffffffffffffffffffffffffffffffffffffffff1673ffffffffffffffffffffffffffffffffffffffff1681526020019081526020016000206000828254610da291906111e6565b925050819055508473ffffffffffffffffffffffffffffffffffffffff168673ffffffffffffffffffffffffffffffffffffffff167fddf252ad1be2c89b69c2b068fc378daa952ba7f163c4a11628f55a4df523b3ef86604051610e069190611004565b60405180910390a3610e19868686610e26565b505050505050565b505050565b505050565b600081519050919050565b600082825260208201905092915050565b60005b83811015610e65578082015181840152602081019050610e4a565b83811115610e74576000848401525b50505050565b6000601f19601f8301169050919050565b6000610e9682610e2b565b610ea08185610e36565b9350610eb0818560208601610e47565b610eb981610e7a565b840191505092915050565b60006020820190508181036000830152610ede8184610e8b565b905092915050565b600080fd5b600073ffffffffffffffffffffffffffffffffffffffff82169050919050565b6000610f1682610eeb565b9050919050565b610f2681610f0b565b8114610f3157600080fd5b50565b600081359050610f4381610f1d565b92915050565b6000819050919050565b610f5c81610f49565b8114610f6757600080fd5b50565b600081359050610f7981610f53565b92915050565b60008060408385031215610f9657610f95610ee6565b5b6000610fa485828601610f34565b9250506020610fb585828601610f6a565b9150509250929050565b60008115159050919050565b610fd481610fbf565b82525050565b6000602082019050610fef6000830184610fcb565b92915050565b610ffe81610f49565b82525050565b60006020820190506110196000830184610ff5565b92915050565b60008060006060848603121561103857611037610ee6565b5b600061104686828701610f34565b935050602061105786828701610f34565b925050604061106886828701610f6a565b9150509250925092565b600060ff82169050919050565b61108881611072565b82525050565b60006020820190506110a3600083018461107f565b92915050565b6000602082840312156110bf576110be610ee6565b5b60006110cd84828501610f34565b91505092915050565b600080604083850312156110ed576110ec610ee6565b5b60006110fb85828601610f6a565b925050602061110c85828601610f34565b9150509250929050565b6000806040838503121561112d5761112c610ee6565b5b600061113b85828601610f34565b925050602061114c85828601610f34565b9150509250929050565b7f4e487b7100000000000000000000000000000000000000000000000000000000600052602260045260246000fd5b6000600282049050600182168061119d57607f821691505b602082108114156111b1576111b0611156565b5b50919050565b7f4e487b7100000000000000000000000000000000000000000000000000000000600052601160045260246000fd5b60006111f182610f49565b91506111fc83610f49565b9250827fffffffffffffffffffffffffffffffffffffffffffffffffffffffffffffffff03821115611231576112306111b7565b5b828201905092915050565b7f45524332303a2064656372656173656420616c6c6f77616e63652062656c6f7760008201527f207a65726f000000000000000000000000000000000000000000000000000000602082015250565b6000611298602583610e36565b91506112a38261123c565b604082019050919050565b600060208201905081810360008301526112c78161128b565b9050919050565b7f6d73672e73656e646572206d7573742062652074686520766f74696e6720636f60008201527f6e74726163740000000000000000000000000000000000000000000000000000602082015250565b600061132a602683610e36565b9150611335826112ce565b604082019050919050565b600060208201905081810360008301526113598161131d565b9050919050565b600061136b82610f49565b915061137683610f49565b925082821015611389576113886111b7565b5b828203905092915050565b7f45524332303a20617070726f76652066726f6d20746865207a65726f2061646460008201527f7265737300000000000000000000000000000000000000000000000000000000602082015250565b60006113f0602483610e36565b91506113fb82611394565b604082019050919050565b6000602082019050818103600083015261141f816113e3565b9050919050565b7f45524332303a20617070726f766520746f20746865207a65726f20616464726560008201527f7373000000000000000000000000000000000000000000000000000000000000602082015250565b6000611482602283610e36565b915061148d82611426565b604082019050919050565b600060208201905081810360008301526114b181611475565b9050919050565b7f45524332303a20696e73756666696369656e7420616c6c6f77616e6365000000600082015250565b60006114ee601d83610e36565b91506114f9826114b8565b602082019050919050565b6000602082019050818103600083015261151d816114e1565b9050919050565b7f45524332303a207472616e736665722066726f6d20746865207a65726f20616460008201527f6472657373000000000000000000000000000000000000000000000000000000602082015250565b6000611580602583610e36565b915061158b82611524565b604082019050919050565b600060208201905081810360008301526115af81611573565b9050919050565b7f45524332303a207472616e7366657220746f20746865207a65726f206164647260008201527f6573730000000000000000000000000000000000000000000000000000000000602082015250565b6000611612602383610e36565b915061161d826115b6565b604082019050919050565b6000602082019050818103600083015261164181611605565b9050919050565b7f45524332303a207472616e7366657261626c6520616d6f756e7420657863656560008201527f64732062616c616e636500000000000000000000000000000000000000000000602082015250565b60006116a4602a83610e36565b91506116af82611648565b604082019050919050565b600060208201905081810360008301526116d381611697565b905091905056fea264697066735822122039ac1bbd26d2e4848785fa03033f6541bbb1019535229d9a7876f8778b95f75164736f6c634300080a0033",
					"opcodes": "PUSH1 0x80 PUSH1 0x40 MSTORE CALLVALUE DUP1 ISZERO PUSH3 0x11 JUMPI PUSH1 0x0 DUP1 REVERT JUMPDEST POP PUSH1 0x40 MLOAD PUSH3 0x1E7E CODESIZE SUB DUP1 PUSH3 0x1E7E DUP4 CODECOPY DUP2 DUP2 ADD PUSH1 0x40 MSTORE DUP2 ADD SWAP1 PUSH3 0x37 SWAP2 SWAP1 PUSH3 0x518 JUMP JUMPDEST DUP1 PUSH1 0x3 PUSH1 0x0 PUSH2 0x100 EXP DUP2 SLOAD DUP2 PUSH20 0xFFFFFFFFFFFFFFFFFFFFFFFFFFFFFFFFFFFFFFFF MUL NOT AND SWAP1 DUP4 PUSH20 0xFFFFFFFFFFFFFFFFFFFFFFFFFFFFFFFFFFFFFFFF AND MUL OR SWAP1 SSTORE POP DUP3 PUSH1 0x1 SWAP1 DUP1 MLOAD SWAP1 PUSH1 0x20 ADD SWAP1 PUSH3 0x90 SWAP3 SWAP2 SWAP1 PUSH3 0x252 JUMP JUMPDEST POP DUP2 PUSH1 0x2 SWAP1 DUP1 MLOAD SWAP1 PUSH1 0x20 ADD SWAP1 PUSH3 0xA9 SWAP3 SWAP2 SWAP1 PUSH3 0x252 JUMP JUMPDEST POP PUSH3 0xC6 CALLER PUSH10 0xD3C21BCECCEDA1000000 PUSH3 0xCF PUSH1 0x20 SHL PUSH1 0x20 SHR JUMP JUMPDEST POP POP POP PUSH3 0x75E JUMP JUMPDEST PUSH1 0x0 PUSH20 0xFFFFFFFFFFFFFFFFFFFFFFFFFFFFFFFFFFFFFFFF AND DUP3 PUSH20 0xFFFFFFFFFFFFFFFFFFFFFFFFFFFFFFFFFFFFFFFF AND EQ ISZERO PUSH3 0x142 JUMPI PUSH1 0x40 MLOAD PUSH32 0x8C379A000000000000000000000000000000000000000000000000000000000 DUP2 MSTORE PUSH1 0x4 ADD PUSH3 0x139 SWAP1 PUSH3 0x613 JUMP JUMPDEST PUSH1 0x40 MLOAD DUP1 SWAP2 SUB SWAP1 REVERT JUMPDEST PUSH3 0x156 PUSH1 0x0 DUP4 DUP4 PUSH3 0x248 PUSH1 0x20 SHL PUSH1 0x20 SHR JUMP JUMPDEST DUP1 PUSH1 0x0 DUP1 DUP3 DUP3 SLOAD PUSH3 0x169 SWAP2 SWAP1 PUSH3 0x66E JUMP JUMPDEST SWAP3 POP POP DUP2 SWAP1 SSTORE POP DUP1 PUSH1 0x5 PUSH1 0x0 DUP5 PUSH20 0xFFFFFFFFFFFFFFFFFFFFFFFFFFFFFFFFFFFFFFFF AND PUSH20 0xFFFFFFFFFFFFFFFFFFFFFFFFFFFFFFFFFFFFFFFF AND DUP2 MSTORE PUSH1 0x20 ADD SWAP1 DUP2 MSTORE PUSH1 0x20 ADD PUSH1 0x0 KECCAK256 PUSH1 0x0 DUP3 DUP3 SLOAD PUSH3 0x1C1 SWAP2 SWAP1 PUSH3 0x66E JUMP JUMPDEST SWAP3 POP POP DUP2 SWAP1 SSTORE POP DUP2 PUSH20 0xFFFFFFFFFFFFFFFFFFFFFFFFFFFFFFFFFFFFFFFF AND PUSH1 0x0 PUSH20 0xFFFFFFFFFFFFFFFFFFFFFFFFFFFFFFFFFFFFFFFF AND PUSH32 0xDDF252AD1BE2C89B69C2B068FC378DAA952BA7F163C4A11628F55A4DF523B3EF DUP4 PUSH1 0x40 MLOAD PUSH3 0x228 SWAP2 SWAP1 PUSH3 0x6DC JUMP JUMPDEST PUSH1 0x40 MLOAD DUP1 SWAP2 SUB SWAP1 LOG3 PUSH3 0x244 PUSH1 0x0 DUP4 DUP4 PUSH3 0x24D PUSH1 0x20 SHL PUSH1 0x20 SHR JUMP JUMPDEST POP POP JUMP JUMPDEST POP POP POP JUMP JUMPDEST POP POP POP JUMP JUMPDEST DUP3 DUP1 SLOAD PUSH3 0x260 SWAP1 PUSH3 0x728 JUMP JUMPDEST SWAP1 PUSH1 0x0 MSTORE PUSH1 0x20 PUSH1 0x0 KECCAK256 SWAP1 PUSH1 0x1F ADD PUSH1 0x20 SWAP1 DIV DUP2 ADD SWAP3 DUP3 PUSH3 0x284 JUMPI PUSH1 0x0 DUP6 SSTORE PUSH3 0x2D0 JUMP JUMPDEST DUP3 PUSH1 0x1F LT PUSH3 0x29F JUMPI DUP1 MLOAD PUSH1 0xFF NOT AND DUP4 DUP1 ADD OR DUP6 SSTORE PUSH3 0x2D0 JUMP JUMPDEST DUP3 DUP1 ADD PUSH1 0x1 ADD DUP6 SSTORE DUP3 ISZERO PUSH3 0x2D0 JUMPI SWAP2 DUP3 ADD JUMPDEST DUP3 DUP2 GT ISZERO PUSH3 0x2CF JUMPI DUP3 MLOAD DUP3 SSTORE SWAP2 PUSH1 0x20 ADD SWAP2 SWAP1 PUSH1 0x1 ADD SWAP1 PUSH3 0x2B2 JUMP JUMPDEST JUMPDEST POP SWAP1 POP PUSH3 0x2DF SWAP2 SWAP1 PUSH3 0x2E3 JUMP JUMPDEST POP SWAP1 JUMP JUMPDEST JUMPDEST DUP1 DUP3 GT ISZERO PUSH3 0x2FE JUMPI PUSH1 0x0 DUP2 PUSH1 0x0 SWAP1 SSTORE POP PUSH1 0x1 ADD PUSH3 0x2E4 JUMP JUMPDEST POP SWAP1 JUMP JUMPDEST PUSH1 0x0 PUSH1 0x40 MLOAD SWAP1 POP SWAP1 JUMP JUMPDEST PUSH1 0x0 DUP1 REVERT JUMPDEST PUSH1 0x0 DUP1 REVERT JUMPDEST PUSH1 0x0 DUP1 REVERT JUMPDEST PUSH1 0x0 DUP1 REVERT JUMPDEST PUSH1 0x0 PUSH1 0x1F NOT PUSH1 0x1F DUP4 ADD AND SWAP1 POP SWAP2 SWAP1 POP JUMP JUMPDEST PUSH32 0x4E487B7100000000000000000000000000000000000000000000000000000000 PUSH1 0x0 MSTORE PUSH1 0x41 PUSH1 0x4 MSTORE PUSH1 0x24 PUSH1 0x0 REVERT JUMPDEST PUSH3 0x36B DUP3 PUSH3 0x320 JUMP JUMPDEST DUP2 ADD DUP2 DUP2 LT PUSH8 0xFFFFFFFFFFFFFFFF DUP3 GT OR ISZERO PUSH3 0x38D JUMPI PUSH3 0x38C PUSH3 0x331 JUMP JUMPDEST JUMPDEST DUP1 PUSH1 0x40 MSTORE POP POP POP JUMP JUMPDEST PUSH1 0x0 PUSH3 0x3A2 PUSH3 0x302 JUMP JUMPDEST SWAP1 POP PUSH3 0x3B0 DUP3 DUP3 PUSH3 0x360 JUMP JUMPDEST SWAP2 SWAP1 POP JUMP JUMPDEST PUSH1 0x0 PUSH8 0xFFFFFFFFFFFFFFFF DUP3 GT ISZERO PUSH3 0x3D3 JUMPI PUSH3 0x3D2 PUSH3 0x331 JUMP JUMPDEST JUMPDEST PUSH3 0x3DE DUP3 PUSH3 0x320 JUMP JUMPDEST SWAP1 POP PUSH1 0x20 DUP2 ADD SWAP1 POP SWAP2 SWAP1 POP JUMP JUMPDEST PUSH1 0x0 JUMPDEST DUP4 DUP2 LT ISZERO PUSH3 0x40B JUMPI DUP1 DUP3 ADD MLOAD DUP2 DUP5 ADD MSTORE PUSH1 0x20 DUP2 ADD SWAP1 POP PUSH3 0x3EE JUMP JUMPDEST DUP4 DUP2 GT ISZERO PUSH3 0x41B JUMPI PUSH1 0x0 DUP5 DUP5 ADD MSTORE JUMPDEST POP POP POP POP JUMP JUMPDEST PUSH1 0x0 PUSH3 0x438 PUSH3 0x432 DUP5 PUSH3 0x3B5 JUMP JUMPDEST PUSH3 0x396 JUMP JUMPDEST SWAP1 POP DUP3 DUP2 MSTORE PUSH1 0x20 DUP2 ADD DUP5 DUP5 DUP5 ADD GT ISZERO PUSH3 0x457 JUMPI PUSH3 0x456 PUSH3 0x31B JUMP JUMPDEST JUMPDEST PUSH3 0x464 DUP5 DUP3 DUP6 PUSH3 0x3EB JUMP JUMPDEST POP SWAP4 SWAP3 POP POP POP JUMP JUMPDEST PUSH1 0x0 DUP3 PUSH1 0x1F DUP4 ADD SLT PUSH3 0x484 JUMPI PUSH3 0x483 PUSH3 0x316 JUMP JUMPDEST JUMPDEST DUP2 MLOAD PUSH3 0x496 DUP5 DUP3 PUSH1 0x20 DUP7 ADD PUSH3 0x421 JUMP JUMPDEST SWAP2 POP POP SWAP3 SWAP2 POP POP JUMP JUMPDEST PUSH1 0x0 PUSH20 0xFFFFFFFFFFFFFFFFFFFFFFFFFFFFFFFFFFFFFFFF DUP3 AND SWAP1 POP SWAP2 SWAP1 POP JUMP JUMPDEST PUSH1 0x0 PUSH3 0x4CC DUP3 PUSH3 0x49F JUMP JUMPDEST SWAP1 POP SWAP2 SWAP1 POP JUMP JUMPDEST PUSH1 0x0 PUSH3 0x4E0 DUP3 PUSH3 0x4BF JUMP JUMPDEST SWAP1 POP SWAP2 SWAP1 POP JUMP JUMPDEST PUSH3 0x4F2 DUP2 PUSH3 0x4D3 JUMP JUMPDEST DUP2 EQ PUSH3 0x4FE JUMPI PUSH1 0x0 DUP1 REVERT JUMPDEST POP JUMP JUMPDEST PUSH1 0x0 DUP2 MLOAD SWAP1 POP PUSH3 0x512 DUP2 PUSH3 0x4E7 JUMP JUMPDEST SWAP3 SWAP2 POP POP JUMP JUMPDEST PUSH1 0x0 DUP1 PUSH1 0x0 PUSH1 0x60 DUP5 DUP7 SUB SLT ISZERO PUSH3 0x534 JUMPI PUSH3 0x533 PUSH3 0x30C JUMP JUMPDEST JUMPDEST PUSH1 0x0 DUP5 ADD MLOAD PUSH8 0xFFFFFFFFFFFFFFFF DUP2 GT ISZERO PUSH3 0x555 JUMPI PUSH3 0x554 PUSH3 0x311 JUMP JUMPDEST JUMPDEST PUSH3 0x563 DUP7 DUP3 DUP8 ADD PUSH3 0x46C JUMP JUMPDEST SWAP4 POP POP PUSH1 0x20 DUP5 ADD MLOAD PUSH8 0xFFFFFFFFFFFFFFFF DUP2 GT ISZERO PUSH3 0x587 JUMPI PUSH3 0x586 PUSH3 0x311 JUMP JUMPDEST JUMPDEST PUSH3 0x595 DUP7 DUP3 DUP8 ADD PUSH3 0x46C JUMP JUMPDEST SWAP3 POP POP PUSH1 0x40 PUSH3 0x5A8 DUP7 DUP3 DUP8 ADD PUSH3 0x501 JUMP JUMPDEST SWAP2 POP POP SWAP3 POP SWAP3 POP SWAP3 JUMP JUMPDEST PUSH1 0x0 DUP3 DUP3 MSTORE PUSH1 0x20 DUP3 ADD SWAP1 POP SWAP3 SWAP2 POP POP JUMP JUMPDEST PUSH32 0x45524332303A206D696E7420746F20746865207A65726F206164647265737300 PUSH1 0x0 DUP3 ADD MSTORE POP JUMP JUMPDEST PUSH1 0x0 PUSH3 0x5FB PUSH1 0x1F DUP4 PUSH3 0x5B2 JUMP JUMPDEST SWAP2 POP PUSH3 0x608 DUP3 PUSH3 0x5C3 JUMP JUMPDEST PUSH1 0x20 DUP3 ADD SWAP1 POP SWAP2 SWAP1 POP JUMP JUMPDEST PUSH1 0x0 PUSH1 0x20 DUP3 ADD SWAP1 POP DUP2 DUP2 SUB PUSH1 0x0 DUP4 ADD MSTORE PUSH3 0x62E DUP2 PUSH3 0x5EC JUMP JUMPDEST SWAP1 POP SWAP2 SWAP1 POP JUMP JUMPDEST PUSH1 0x0 DUP2 SWAP1 POP SWAP2 SWAP1 POP JUMP JUMPDEST PUSH32 0x4E487B7100000000000000000000000000000000000000000000000000000000 PUSH1 0x0 MSTORE PUSH1 0x11 PUSH1 0x4 MSTORE PUSH1 0x24 PUSH1 0x0 REVERT JUMPDEST PUSH1 0x0 PUSH3 0x67B DUP3 PUSH3 0x635 JUMP JUMPDEST SWAP2 POP PUSH3 0x688 DUP4 PUSH3 0x635 JUMP JUMPDEST SWAP3 POP DUP3 PUSH32 0xFFFFFFFFFFFFFFFFFFFFFFFFFFFFFFFFFFFFFFFFFFFFFFFFFFFFFFFFFFFFFFFF SUB DUP3 GT ISZERO PUSH3 0x6C0 JUMPI PUSH3 0x6BF PUSH3 0x63F JUMP JUMPDEST JUMPDEST DUP3 DUP3 ADD SWAP1 POP SWAP3 SWAP2 POP POP JUMP JUMPDEST PUSH3 0x6D6 DUP2 PUSH3 0x635 JUMP JUMPDEST DUP3 MSTORE POP POP JUMP JUMPDEST PUSH1 0x0 PUSH1 0x20 DUP3 ADD SWAP1 POP PUSH3 0x6F3 PUSH1 0x0 DUP4 ADD DUP5 PUSH3 0x6CB JUMP JUMPDEST SWAP3 SWAP2 POP POP JUMP JUMPDEST PUSH32 0x4E487B7100000000000000000000000000000000000000000000000000000000 PUSH1 0x0 MSTORE PUSH1 0x22 PUSH1 0x4 MSTORE PUSH1 0x24 PUSH1 0x0 REVERT JUMPDEST PUSH1 0x0 PUSH1 0x2 DUP3 DIV SWAP1 POP PUSH1 0x1 DUP3 AND DUP1 PUSH3 0x741 JUMPI PUSH1 0x7F DUP3 AND SWAP2 POP JUMPDEST PUSH1 0x20 DUP3 LT DUP2 EQ ISZERO PUSH3 0x758 JUMPI PUSH3 0x757 PUSH3 0x6F9 JUMP JUMPDEST JUMPDEST POP SWAP2 SWAP1 POP JUMP JUMPDEST PUSH2 0x1710 DUP1 PUSH3 0x76E PUSH1 0x0 CODECOPY PUSH1 0x0 RETURN INVALID PUSH1 0x80 PUSH1 0x40 MSTORE CALLVALUE DUP1 ISZERO PUSH2 0x10 JUMPI PUSH1 0x0 DUP1 REVERT JUMPDEST POP PUSH1 0x4 CALLDATASIZE LT PUSH2 0xCF JUMPI PUSH1 0x0 CALLDATALOAD PUSH1 0xE0 SHR DUP1 PUSH4 0x70A08231 GT PUSH2 0x8C JUMPI DUP1 PUSH4 0xA9059CBB GT PUSH2 0x66 JUMPI DUP1 PUSH4 0xA9059CBB EQ PUSH2 0x23C JUMPI DUP1 PUSH4 0xBADE9D84 EQ PUSH2 0x26C JUMPI DUP1 PUSH4 0xCEC1460B EQ PUSH2 0x288 JUMPI DUP1 PUSH4 0xDD62ED3E EQ PUSH2 0x2A4 JUMPI PUSH2 0xCF JUMP JUMPDEST DUP1 PUSH4 0x70A08231 EQ PUSH2 0x1BE JUMPI DUP1 PUSH4 0x95D89B41 EQ PUSH2 0x1EE JUMPI DUP1 PUSH4 0xA457C2D7 EQ PUSH2 0x20C JUMPI PUSH2 0xCF JUMP JUMPDEST DUP1 PUSH4 0x6FDDE03 EQ PUSH2 0xD4 JUMPI DUP1 PUSH4 0x95EA7B3 EQ PUSH2 0xF2 JUMPI DUP1 PUSH4 0x18160DDD EQ PUSH2 0x122 JUMPI DUP1 PUSH4 0x23B872DD EQ PUSH2 0x140 JUMPI DUP1 PUSH4 0x313CE567 EQ PUSH2 0x170 JUMPI DUP1 PUSH4 0x39509351 EQ PUSH2 0x18E JUMPI JUMPDEST PUSH1 0x0 DUP1 REVERT JUMPDEST PUSH2 0xDC PUSH2 0x2D4 JUMP JUMPDEST PUSH1 0x40 MLOAD PUSH2 0xE9 SWAP2 SWAP1 PUSH2 0xEC4 JUMP JUMPDEST PUSH1 0x40 MLOAD DUP1 SWAP2 SUB SWAP1 RETURN JUMPDEST PUSH2 0x10C PUSH1 0x4 DUP1 CALLDATASIZE SUB DUP2 ADD SWAP1 PUSH2 0x107 SWAP2 SWAP1 PUSH2 0xF7F JUMP JUMPDEST PUSH2 0x366 JUMP JUMPDEST PUSH1 0x40 MLOAD PUSH2 0x119 SWAP2 SWAP1 PUSH2 0xFDA JUMP JUMPDEST PUSH1 0x40 MLOAD DUP1 SWAP2 SUB SWAP1 RETURN JUMPDEST PUSH2 0x12A PUSH2 0x389 JUMP JUMPDEST PUSH1 0x40 MLOAD PUSH2 0x137 SWAP2 SWAP1 PUSH2 0x1004 JUMP JUMPDEST PUSH1 0x40 MLOAD DUP1 SWAP2 SUB SWAP1 RETURN JUMPDEST PUSH2 0x15A PUSH1 0x4 DUP1 CALLDATASIZE SUB DUP2 ADD SWAP1 PUSH2 0x155 SWAP2 SWAP1 PUSH2 0x101F JUMP JUMPDEST PUSH2 0x392 JUMP JUMPDEST PUSH1 0x40 MLOAD PUSH2 0x167 SWAP2 SWAP1 PUSH2 0xFDA JUMP JUMPDEST PUSH1 0x40 MLOAD DUP1 SWAP2 SUB SWAP1 RETURN JUMPDEST PUSH2 0x178 PUSH2 0x3C1 JUMP JUMPDEST PUSH1 0x40 MLOAD PUSH2 0x185 SWAP2 SWAP1 PUSH2 0x108E JUMP JUMPDEST PUSH1 0x40 MLOAD DUP1 SWAP2 SUB SWAP1 RETURN JUMPDEST PUSH2 0x1A8 PUSH1 0x4 DUP1 CALLDATASIZE SUB DUP2 ADD SWAP1 PUSH2 0x1A3 SWAP2 SWAP1 PUSH2 0xF7F JUMP JUMPDEST PUSH2 0x3CA JUMP JUMPDEST PUSH1 0x40 MLOAD PUSH2 0x1B5 SWAP2 SWAP1 PUSH2 0xFDA JUMP JUMPDEST PUSH1 0x40 MLOAD DUP1 SWAP2 SUB SWAP1 RETURN JUMPDEST PUSH2 0x1D8 PUSH1 0x4 DUP1 CALLDATASIZE SUB DUP2 ADD SWAP1 PUSH2 0x1D3 SWAP2 SWAP1 PUSH2 0x10A9 JUMP JUMPDEST PUSH2 0x401 JUMP JUMPDEST PUSH1 0x40 MLOAD PUSH2 0x1E5 SWAP2 SWAP1 PUSH2 0x1004 JUMP JUMPDEST PUSH1 0x40 MLOAD DUP1 SWAP2 SUB SWAP1 RETURN JUMPDEST PUSH2 0x1F6 PUSH2 0x44A JUMP JUMPDEST PUSH1 0x40 MLOAD PUSH2 0x203 SWAP2 SWAP1 PUSH2 0xEC4 JUMP JUMPDEST PUSH1 0x40 MLOAD DUP1 SWAP2 SUB SWAP1 RETURN JUMPDEST PUSH2 0x226 PUSH1 0x4 DUP1 CALLDATASIZE SUB DUP2 ADD SWAP1 PUSH2 0x221 SWAP2 SWAP1 PUSH2 0xF7F JUMP JUMPDEST PUSH2 0x4DC JUMP JUMPDEST PUSH1 0x40 MLOAD PUSH2 0x233 SWAP2 SWAP1 PUSH2 0xFDA JUMP JUMPDEST PUSH1 0x40 MLOAD DUP1 SWAP2 SUB SWAP1 RETURN JUMPDEST PUSH2 0x256 PUSH1 0x4 DUP1 CALLDATASIZE SUB DUP2 ADD SWAP1 PUSH2 0x251 SWAP2 SWAP1 PUSH2 0xF7F JUMP JUMPDEST PUSH2 0x553 JUMP JUMPDEST PUSH1 0x40 MLOAD PUSH2 0x263 SWAP2 SWAP1 PUSH2 0xFDA JUMP JUMPDEST PUSH1 0x40 MLOAD DUP1 SWAP2 SUB SWAP1 RETURN JUMPDEST PUSH2 0x286 PUSH1 0x4 DUP1 CALLDATASIZE SUB DUP2 ADD SWAP1 PUSH2 0x281 SWAP2 SWAP1 PUSH2 0x10A9 JUMP JUMPDEST PUSH2 0x576 JUMP JUMPDEST STOP JUMPDEST PUSH2 0x2A2 PUSH1 0x4 DUP1 CALLDATASIZE SUB DUP2 ADD SWAP1 PUSH2 0x29D SWAP2 SWAP1 PUSH2 0x10D6 JUMP JUMPDEST PUSH2 0x774 JUMP JUMPDEST STOP JUMPDEST PUSH2 0x2BE PUSH1 0x4 DUP1 CALLDATASIZE SUB DUP2 ADD SWAP1 PUSH2 0x2B9 SWAP2 SWAP1 PUSH2 0x1116 JUMP JUMPDEST PUSH2 0x861 JUMP JUMPDEST PUSH1 0x40 MLOAD PUSH2 0x2CB SWAP2 SWAP1 PUSH2 0x1004 JUMP JUMPDEST PUSH1 0x40 MLOAD DUP1 SWAP2 SUB SWAP1 RETURN JUMPDEST PUSH1 0x60 PUSH1 0x1 DUP1 SLOAD PUSH2 0x2E3 SWAP1 PUSH2 0x1185 JUMP JUMPDEST DUP1 PUSH1 0x1F ADD PUSH1 0x20 DUP1 SWAP2 DIV MUL PUSH1 0x20 ADD PUSH1 0x40 MLOAD SWAP1 DUP2 ADD PUSH1 0x40 MSTORE DUP1 SWAP3 SWAP2 SWAP1 DUP2 DUP2 MSTORE PUSH1 0x20 ADD DUP3 DUP1 SLOAD PUSH2 0x30F SWAP1 PUSH2 0x1185 JUMP JUMPDEST DUP1 ISZERO PUSH2 0x35C JUMPI DUP1 PUSH1 0x1F LT PUSH2 0x331 JUMPI PUSH2 0x100 DUP1 DUP4 SLOAD DIV MUL DUP4 MSTORE SWAP2 PUSH1 0x20 ADD SWAP2 PUSH2 0x35C JUMP JUMPDEST DUP3 ADD SWAP2 SWAP1 PUSH1 0x0 MSTORE PUSH1 0x20 PUSH1 0x0 KECCAK256 SWAP1 JUMPDEST DUP2 SLOAD DUP2 MSTORE SWAP1 PUSH1 0x1 ADD SWAP1 PUSH1 0x20 ADD DUP1 DUP4 GT PUSH2 0x33F JUMPI DUP3 SWAP1 SUB PUSH1 0x1F AND DUP3 ADD SWAP2 JUMPDEST POP POP POP POP POP SWAP1 POP SWAP1 JUMP JUMPDEST PUSH1 0x0 DUP1 PUSH2 0x371 PUSH2 0x8E8 JUMP JUMPDEST SWAP1 POP PUSH2 0x37E DUP2 DUP6 DUP6 PUSH2 0x8F0 JUMP JUMPDEST PUSH1 0x1 SWAP2 POP POP SWAP3 SWAP2 POP POP JUMP JUMPDEST PUSH1 0x0 DUP1 SLOAD SWAP1 POP SWAP1 JUMP JUMPDEST PUSH1 0x0 DUP1 PUSH2 0x39D PUSH2 0x8E8 JUMP JUMPDEST SWAP1 POP PUSH2 0x3AA DUP6 DUP3 DUP6 PUSH2 0xABB JUMP JUMPDEST PUSH2 0x3B5 DUP6 DUP6 DUP6 PUSH2 0xB47 JUMP JUMPDEST PUSH1 0x1 SWAP2 POP POP SWAP4 SWAP3 POP POP POP JUMP JUMPDEST PUSH1 0x0 PUSH1 0x12 SWAP1 POP SWAP1 JUMP JUMPDEST PUSH1 0x0 DUP1 PUSH2 0x3D5 PUSH2 0x8E8 JUMP JUMPDEST SWAP1 POP PUSH2 0x3F6 DUP2 DUP6 DUP6 PUSH2 0x3E7 DUP6 DUP10 PUSH2 0x861 JUMP JUMPDEST PUSH2 0x3F1 SWAP2 SWAP1 PUSH2 0x11E6 JUMP JUMPDEST PUSH2 0x8F0 JUMP JUMPDEST PUSH1 0x1 SWAP2 POP POP SWAP3 SWAP2 POP POP JUMP JUMPDEST PUSH1 0x0 PUSH1 0x5 PUSH1 0x0 DUP4 PUSH20 0xFFFFFFFFFFFFFFFFFFFFFFFFFFFFFFFFFFFFFFFF AND PUSH20 0xFFFFFFFFFFFFFFFFFFFFFFFFFFFFFFFFFFFFFFFF AND DUP2 MSTORE PUSH1 0x20 ADD SWAP1 DUP2 MSTORE PUSH1 0x20 ADD PUSH1 0x0 KECCAK256 SLOAD SWAP1 POP SWAP2 SWAP1 POP JUMP JUMPDEST PUSH1 0x60 PUSH1 0x2 DUP1 SLOAD PUSH2 0x459 SWAP1 PUSH2 0x1185 JUMP JUMPDEST DUP1 PUSH1 0x1F ADD PUSH1 0x20 DUP1 SWAP2 DIV MUL PUSH1 0x20 ADD PUSH1 0x40 MLOAD SWAP1 DUP2 ADD PUSH1 0x40 MSTORE DUP1 SWAP3 SWAP2 SWAP1 DUP2 DUP2 MSTORE PUSH1 0x20 ADD DUP3 DUP1 SLOAD PUSH2 0x485 SWAP1 PUSH2 0x1185 JUMP JUMPDEST DUP1 ISZERO PUSH2 0x4D2 JUMPI DUP1 PUSH1 0x1F LT PUSH2 0x4A7 JUMPI PUSH2 0x100 DUP1 DUP4 SLOAD DIV MUL DUP4 MSTORE SWAP2 PUSH1 0x20 ADD SWAP2 PUSH2 0x4D2 JUMP JUMPDEST DUP3 ADD SWAP2 SWAP1 PUSH1 0x0 MSTORE PUSH1 0x20 PUSH1 0x0 KECCAK256 SWAP1 JUMPDEST DUP2 SLOAD DUP2 MSTORE SWAP1 PUSH1 0x1 ADD SWAP1 PUSH1 0x20 ADD DUP1 DUP4 GT PUSH2 0x4B5 JUMPI DUP3 SWAP1 SUB PUSH1 0x1F AND DUP3 ADD SWAP2 JUMPDEST POP POP POP POP POP SWAP1 POP SWAP1 JUMP JUMPDEST PUSH1 0x0 DUP1 PUSH2 0x4E7 PUSH2 0x8E8 JUMP JUMPDEST SWAP1 POP PUSH1 0x0 PUSH2 0x4F5 DUP3 DUP7 PUSH2 0x861 JUMP JUMPDEST SWAP1 POP DUP4 DUP2 LT ISZERO PUSH2 0x53A JUMPI PUSH1 0x40 MLOAD PUSH32 0x8C379A000000000000000000000000000000000000000000000000000000000 DUP2 MSTORE PUSH1 0x4 ADD PUSH2 0x531 SWAP1 PUSH2 0x12AE JUMP JUMPDEST PUSH1 0x40 MLOAD DUP1 SWAP2 SUB SWAP1 REVERT JUMPDEST PUSH2 0x547 DUP3 DUP7 DUP7 DUP5 SUB PUSH2 0x8F0 JUMP JUMPDEST PUSH1 0x1 SWAP3 POP POP POP SWAP3 SWAP2 POP POP JUMP JUMPDEST PUSH1 0x0 DUP1 PUSH2 0x55E PUSH2 0x8E8 JUMP JUMPDEST SWAP1 POP PUSH2 0x56B DUP2 DUP6 DUP6 PUSH2 0xB47 JUMP JUMPDEST PUSH1 0x1 SWAP2 POP POP SWAP3 SWAP2 POP POP JUMP JUMPDEST PUSH1 0x3 PUSH1 0x0 SWAP1 SLOAD SWAP1 PUSH2 0x100 EXP SWAP1 DIV PUSH20 0xFFFFFFFFFFFFFFFFFFFFFFFFFFFFFFFFFFFFFFFF AND PUSH20 0xFFFFFFFFFFFFFFFFFFFFFFFFFFFFFFFFFFFFFFFF AND CALLER PUSH20 0xFFFFFFFFFFFFFFFFFFFFFFFFFFFFFFFFFFFFFFFF AND EQ PUSH2 0x606 JUMPI PUSH1 0x40 MLOAD PUSH32 0x8C379A000000000000000000000000000000000000000000000000000000000 DUP2 MSTORE PUSH1 0x4 ADD PUSH2 0x5FD SWAP1 PUSH2 0x1340 JUMP JUMPDEST PUSH1 0x40 MLOAD DUP1 SWAP2 SUB SWAP1 REVERT JUMPDEST PUSH1 0x0 PUSH1 0x4 PUSH1 0x0 CALLER PUSH20 0xFFFFFFFFFFFFFFFFFFFFFFFFFFFFFFFFFFFFFFFF AND PUSH20 0xFFFFFFFFFFFFFFFFFFFFFFFFFFFFFFFFFFFFFFFF AND DUP2 MSTORE PUSH1 0x20 ADD SWAP1 DUP2 MSTORE PUSH1 0x20 ADD PUSH1 0x0 KECCAK256 PUSH1 0x0 DUP4 PUSH20 0xFFFFFFFFFFFFFFFFFFFFFFFFFFFFFFFFFFFFFFFF AND PUSH20 0xFFFFFFFFFFFFFFFFFFFFFFFFFFFFFFFFFFFFFFFF AND DUP2 MSTORE PUSH1 0x20 ADD SWAP1 DUP2 MSTORE PUSH1 0x20 ADD PUSH1 0x0 KECCAK256 SLOAD SWAP1 POP DUP1 PUSH1 0x6 PUSH1 0x0 CALLER PUSH20 0xFFFFFFFFFFFFFFFFFFFFFFFFFFFFFFFFFFFFFFFF AND PUSH20 0xFFFFFFFFFFFFFFFFFFFFFFFFFFFFFFFFFFFFFFFF AND DUP2 MSTORE PUSH1 0x20 ADD SWAP1 DUP2 MSTORE PUSH1 0x20 ADD PUSH1 0x0 KECCAK256 PUSH1 0x0 DUP3 DUP3 SLOAD PUSH2 0x6D6 SWAP2 SWAP1 PUSH2 0x1360 JUMP JUMPDEST SWAP3 POP POP DUP2 SWAP1 SSTORE POP DUP1 PUSH1 0x4 PUSH1 0x0 CALLER PUSH20 0xFFFFFFFFFFFFFFFFFFFFFFFFFFFFFFFFFFFFFFFF AND PUSH20 0xFFFFFFFFFFFFFFFFFFFFFFFFFFFFFFFFFFFFFFFF AND DUP2 MSTORE PUSH1 0x20 ADD SWAP1 DUP2 MSTORE PUSH1 0x20 ADD PUSH1 0x0 KECCAK256 PUSH1 0x0 DUP5 PUSH20 0xFFFFFFFFFFFFFFFFFFFFFFFFFFFFFFFFFFFFFFFF AND PUSH20 0xFFFFFFFFFFFFFFFFFFFFFFFFFFFFFFFFFFFFFFFF AND DUP2 MSTORE PUSH1 0x20 ADD SWAP1 DUP2 MSTORE PUSH1 0x20 ADD PUSH1 0x0 KECCAK256 PUSH1 0x0 DUP3 DUP3 SLOAD PUSH2 0x769 SWAP2 SWAP1 PUSH2 0x1360 JUMP JUMPDEST SWAP3 POP POP DUP2 SWAP1 SSTORE POP POP POP JUMP JUMPDEST DUP2 PUSH1 0x4 PUSH1 0x0 CALLER PUSH20 0xFFFFFFFFFFFFFFFFFFFFFFFFFFFFFFFFFFFFFFFF AND PUSH20 0xFFFFFFFFFFFFFFFFFFFFFFFFFFFFFFFFFFFFFFFF AND DUP2 MSTORE PUSH1 0x20 ADD SWAP1 DUP2 MSTORE PUSH1 0x20 ADD PUSH1 0x0 KECCAK256 PUSH1 0x0 DUP4 PUSH20 0xFFFFFFFFFFFFFFFFFFFFFFFFFFFFFFFFFFFFFFFF AND PUSH20 0xFFFFFFFFFFFFFFFFFFFFFFFFFFFFFFFFFFFFFFFF AND DUP2 MSTORE PUSH1 0x20 ADD SWAP1 DUP2 MSTORE PUSH1 0x20 ADD PUSH1 0x0 KECCAK256 PUSH1 0x0 DUP3 DUP3 SLOAD PUSH2 0x800 SWAP2 SWAP1 PUSH2 0x11E6 JUMP JUMPDEST SWAP3 POP POP DUP2 SWAP1 SSTORE POP DUP2 PUSH1 0x6 PUSH1 0x0 CALLER PUSH20 0xFFFFFFFFFFFFFFFFFFFFFFFFFFFFFFFFFFFFFFFF AND PUSH20 0xFFFFFFFFFFFFFFFFFFFFFFFFFFFFFFFFFFFFFFFF AND DUP2 MSTORE PUSH1 0x20 ADD SWAP1 DUP2 MSTORE PUSH1 0x20 ADD PUSH1 0x0 KECCAK256 PUSH1 0x0 DUP3 DUP3 SLOAD PUSH2 0x856 SWAP2 SWAP1 PUSH2 0x11E6 JUMP JUMPDEST SWAP3 POP POP DUP2 SWAP1 SSTORE POP POP POP JUMP JUMPDEST PUSH1 0x0 PUSH1 0x7 PUSH1 0x0 DUP5 PUSH20 0xFFFFFFFFFFFFFFFFFFFFFFFFFFFFFFFFFFFFFFFF AND PUSH20 0xFFFFFFFFFFFFFFFFFFFFFFFFFFFFFFFFFFFFFFFF AND DUP2 MSTORE PUSH1 0x20 ADD SWAP1 DUP2 MSTORE PUSH1 0x20 ADD PUSH1 0x0 KECCAK256 PUSH1 0x0 DUP4 PUSH20 0xFFFFFFFFFFFFFFFFFFFFFFFFFFFFFFFFFFFFFFFF AND PUSH20 0xFFFFFFFFFFFFFFFFFFFFFFFFFFFFFFFFFFFFFFFF AND DUP2 MSTORE PUSH1 0x20 ADD SWAP1 DUP2 MSTORE PUSH1 0x20 ADD PUSH1 0x0 KECCAK256 SLOAD SWAP1 POP SWAP3 SWAP2 POP POP JUMP JUMPDEST PUSH1 0x0 CALLER SWAP1 POP SWAP1 JUMP JUMPDEST PUSH1 0x0 PUSH20 0xFFFFFFFFFFFFFFFFFFFFFFFFFFFFFFFFFFFFFFFF AND DUP4 PUSH20 0xFFFFFFFFFFFFFFFFFFFFFFFFFFFFFFFFFFFFFFFF AND EQ ISZERO PUSH2 0x960 JUMPI PUSH1 0x40 MLOAD PUSH32 0x8C379A000000000000000000000000000000000000000000000000000000000 DUP2 MSTORE PUSH1 0x4 ADD PUSH2 0x957 SWAP1 PUSH2 0x1406 JUMP JUMPDEST PUSH1 0x40 MLOAD DUP1 SWAP2 SUB SWAP1 REVERT JUMPDEST PUSH1 0x0 PUSH20 0xFFFFFFFFFFFFFFFFFFFFFFFFFFFFFFFFFFFFFFFF AND DUP3 PUSH20 0xFFFFFFFFFFFFFFFFFFFFFFFFFFFFFFFFFFFFFFFF AND EQ ISZERO PUSH2 0x9D0 JUMPI PUSH1 0x40 MLOAD PUSH32 0x8C379A000000000000000000000000000000000000000000000000000000000 DUP2 MSTORE PUSH1 0x4 ADD PUSH2 0x9C7 SWAP1 PUSH2 0x1498 JUMP JUMPDEST PUSH1 0x40 MLOAD DUP1 SWAP2 SUB SWAP1 REVERT JUMPDEST DUP1 PUSH1 0x7 PUSH1 0x0 DUP6 PUSH20 0xFFFFFFFFFFFFFFFFFFFFFFFFFFFFFFFFFFFFFFFF AND PUSH20 0xFFFFFFFFFFFFFFFFFFFFFFFFFFFFFFFFFFFFFFFF AND DUP2 MSTORE PUSH1 0x20 ADD SWAP1 DUP2 MSTORE PUSH1 0x20 ADD PUSH1 0x0 KECCAK256 PUSH1 0x0 DUP5 PUSH20 0xFFFFFFFFFFFFFFFFFFFFFFFFFFFFFFFFFFFFFFFF AND PUSH20 0xFFFFFFFFFFFFFFFFFFFFFFFFFFFFFFFFFFFFFFFF AND DUP2 MSTORE PUSH1 0x20 ADD SWAP1 DUP2 MSTORE PUSH1 0x20 ADD PUSH1 0x0 KECCAK256 DUP2 SWAP1 SSTORE POP DUP2 PUSH20 0xFFFFFFFFFFFFFFFFFFFFFFFFFFFFFFFFFFFFFFFF AND DUP4 PUSH20 0xFFFFFFFFFFFFFFFFFFFFFFFFFFFFFFFFFFFFFFFF AND PUSH32 0x8C5BE1E5EBEC7D5BD14F71427D1E84F3DD0314C0F7B2291E5B200AC8C7C3B925 DUP4 PUSH1 0x40 MLOAD PUSH2 0xAAE SWAP2 SWAP1 PUSH2 0x1004 JUMP JUMPDEST PUSH1 0x40 MLOAD DUP1 SWAP2 SUB SWAP1 LOG3 POP POP POP JUMP JUMPDEST PUSH1 0x0 PUSH2 0xAC7 DUP5 DUP5 PUSH2 0x861 JUMP JUMPDEST SWAP1 POP PUSH32 0xFFFFFFFFFFFFFFFFFFFFFFFFFFFFFFFFFFFFFFFFFFFFFFFFFFFFFFFFFFFFFFFF DUP2 EQ PUSH2 0xB41 JUMPI DUP2 DUP2 LT ISZERO PUSH2 0xB33 JUMPI PUSH1 0x40 MLOAD PUSH32 0x8C379A000000000000000000000000000000000000000000000000000000000 DUP2 MSTORE PUSH1 0x4 ADD PUSH2 0xB2A SWAP1 PUSH2 0x1504 JUMP JUMPDEST PUSH1 0x40 MLOAD DUP1 SWAP2 SUB SWAP1 REVERT JUMPDEST PUSH2 0xB40 DUP5 DUP5 DUP5 DUP5 SUB PUSH2 0x8F0 JUMP JUMPDEST JUMPDEST POP POP POP POP JUMP JUMPDEST PUSH1 0x0 PUSH20 0xFFFFFFFFFFFFFFFFFFFFFFFFFFFFFFFFFFFFFFFF AND DUP4 PUSH20 0xFFFFFFFFFFFFFFFFFFFFFFFFFFFFFFFFFFFFFFFF AND EQ ISZERO PUSH2 0xBB7 JUMPI PUSH1 0x40 MLOAD PUSH32 0x8C379A000000000000000000000000000000000000000000000000000000000 DUP2 MSTORE PUSH1 0x4 ADD PUSH2 0xBAE SWAP1 PUSH2 0x1596 JUMP JUMPDEST PUSH1 0x40 MLOAD DUP1 SWAP2 SUB SWAP1 REVERT JUMPDEST PUSH1 0x0 PUSH20 0xFFFFFFFFFFFFFFFFFFFFFFFFFFFFFFFFFFFFFFFF AND DUP3 PUSH20 0xFFFFFFFFFFFFFFFFFFFFFFFFFFFFFFFFFFFFFFFF AND EQ ISZERO PUSH2 0xC27 JUMPI PUSH1 0x40 MLOAD PUSH32 0x8C379A000000000000000000000000000000000000000000000000000000000 DUP2 MSTORE PUSH1 0x4 ADD PUSH2 0xC1E SWAP1 PUSH2 0x1628 JUMP JUMPDEST PUSH1 0x40 MLOAD DUP1 SWAP2 SUB SWAP1 REVERT JUMPDEST PUSH2 0xC32 DUP4 DUP4 DUP4 PUSH2 0xE21 JUMP JUMPDEST PUSH1 0x0 PUSH1 0x6 PUSH1 0x0 CALLER PUSH20 0xFFFFFFFFFFFFFFFFFFFFFFFFFFFFFFFFFFFFFFFF AND PUSH20 0xFFFFFFFFFFFFFFFFFFFFFFFFFFFFFFFFFFFFFFFF AND DUP2 MSTORE PUSH1 0x20 ADD SWAP1 DUP2 MSTORE PUSH1 0x20 ADD PUSH1 0x0 KECCAK256 SLOAD SWAP1 POP PUSH1 0x0 PUSH1 0x5 PUSH1 0x0 DUP7 PUSH20 0xFFFFFFFFFFFFFFFFFFFFFFFFFFFFFFFFFFFFFFFF AND PUSH20 0xFFFFFFFFFFFFFFFFFFFFFFFFFFFFFFFFFFFFFFFF AND DUP2 MSTORE PUSH1 0x20 ADD SWAP1 DUP2 MSTORE PUSH1 0x20 ADD PUSH1 0x0 KECCAK256 SLOAD SWAP1 POP PUSH1 0x0 DUP3 DUP3 PUSH2 0xCC8 SWAP2 SWAP1 PUSH2 0x1360 JUMP JUMPDEST SWAP1 POP DUP4 DUP2 LT ISZERO PUSH2 0xD0D JUMPI PUSH1 0x40 MLOAD PUSH32 0x8C379A000000000000000000000000000000000000000000000000000000000 DUP2 MSTORE PUSH1 0x4 ADD PUSH2 0xD04 SWAP1 PUSH2 0x16BA JUMP JUMPDEST PUSH1 0x40 MLOAD DUP1 SWAP2 SUB SWAP1 REVERT JUMPDEST DUP4 DUP3 SUB PUSH1 0x5 PUSH1 0x0 DUP9 PUSH20 0xFFFFFFFFFFFFFFFFFFFFFFFFFFFFFFFFFFFFFFFF AND PUSH20 0xFFFFFFFFFFFFFFFFFFFFFFFFFFFFFFFFFFFFFFFF AND DUP2 MSTORE PUSH1 0x20 ADD SWAP1 DUP2 MSTORE PUSH1 0x20 ADD PUSH1 0x0 KECCAK256 DUP2 SWAP1 SSTORE POP DUP4 PUSH1 0x5 PUSH1 0x0 DUP8 PUSH20 0xFFFFFFFFFFFFFFFFFFFFFFFFFFFFFFFFFFFFFFFF AND PUSH20 0xFFFFFFFFFFFFFFFFFFFFFFFFFFFFFFFFFFFFFFFF AND DUP2 MSTORE PUSH1 0x20 ADD SWAP1 DUP2 MSTORE PUSH1 0x20 ADD PUSH1 0x0 KECCAK256 PUSH1 0x0 DUP3 DUP3 SLOAD PUSH2 0xDA2 SWAP2 SWAP1 PUSH2 0x11E6 JUMP JUMPDEST SWAP3 POP POP DUP2 SWAP1 SSTORE POP DUP5 PUSH20 0xFFFFFFFFFFFFFFFFFFFFFFFFFFFFFFFFFFFFFFFF AND DUP7 PUSH20 0xFFFFFFFFFFFFFFFFFFFFFFFFFFFFFFFFFFFFFFFF AND PUSH32 0xDDF252AD1BE2C89B69C2B068FC378DAA952BA7F163C4A11628F55A4DF523B3EF DUP7 PUSH1 0x40 MLOAD PUSH2 0xE06 SWAP2 SWAP1 PUSH2 0x1004 JUMP JUMPDEST PUSH1 0x40 MLOAD DUP1 SWAP2 SUB SWAP1 LOG3 PUSH2 0xE19 DUP7 DUP7 DUP7 PUSH2 0xE26 JUMP JUMPDEST POP POP POP POP POP POP JUMP JUMPDEST POP POP POP JUMP JUMPDEST POP POP POP JUMP JUMPDEST PUSH1 0x0 DUP2 MLOAD SWAP1 POP SWAP2 SWAP1 POP JUMP JUMPDEST PUSH1 0x0 DUP3 DUP3 MSTORE PUSH1 0x20 DUP3 ADD SWAP1 POP SWAP3 SWAP2 POP POP JUMP JUMPDEST PUSH1 0x0 JUMPDEST DUP4 DUP2 LT ISZERO PUSH2 0xE65 JUMPI DUP1 DUP3 ADD MLOAD DUP2 DUP5 ADD MSTORE PUSH1 0x20 DUP2 ADD SWAP1 POP PUSH2 0xE4A JUMP JUMPDEST DUP4 DUP2 GT ISZERO PUSH2 0xE74 JUMPI PUSH1 0x0 DUP5 DUP5 ADD MSTORE JUMPDEST POP POP POP POP JUMP JUMPDEST PUSH1 0x0 PUSH1 0x1F NOT PUSH1 0x1F DUP4 ADD AND SWAP1 POP SWAP2 SWAP1 POP JUMP JUMPDEST PUSH1 0x0 PUSH2 0xE96 DUP3 PUSH2 0xE2B JUMP JUMPDEST PUSH2 0xEA0 DUP2 DUP6 PUSH2 0xE36 JUMP JUMPDEST SWAP4 POP PUSH2 0xEB0 DUP2 DUP6 PUSH1 0x20 DUP7 ADD PUSH2 0xE47 JUMP JUMPDEST PUSH2 0xEB9 DUP2 PUSH2 0xE7A JUMP JUMPDEST DUP5 ADD SWAP2 POP POP SWAP3 SWAP2 POP POP JUMP JUMPDEST PUSH1 0x0 PUSH1 0x20 DUP3 ADD SWAP1 POP DUP2 DUP2 SUB PUSH1 0x0 DUP4 ADD MSTORE PUSH2 0xEDE DUP2 DUP5 PUSH2 0xE8B JUMP JUMPDEST SWAP1 POP SWAP3 SWAP2 POP POP JUMP JUMPDEST PUSH1 0x0 DUP1 REVERT JUMPDEST PUSH1 0x0 PUSH20 0xFFFFFFFFFFFFFFFFFFFFFFFFFFFFFFFFFFFFFFFF DUP3 AND SWAP1 POP SWAP2 SWAP1 POP JUMP JUMPDEST PUSH1 0x0 PUSH2 0xF16 DUP3 PUSH2 0xEEB JUMP JUMPDEST SWAP1 POP SWAP2 SWAP1 POP JUMP JUMPDEST PUSH2 0xF26 DUP2 PUSH2 0xF0B JUMP JUMPDEST DUP2 EQ PUSH2 0xF31 JUMPI PUSH1 0x0 DUP1 REVERT JUMPDEST POP JUMP JUMPDEST PUSH1 0x0 DUP2 CALLDATALOAD SWAP1 POP PUSH2 0xF43 DUP2 PUSH2 0xF1D JUMP JUMPDEST SWAP3 SWAP2 POP POP JUMP JUMPDEST PUSH1 0x0 DUP2 SWAP1 POP SWAP2 SWAP1 POP JUMP JUMPDEST PUSH2 0xF5C DUP2 PUSH2 0xF49 JUMP JUMPDEST DUP2 EQ PUSH2 0xF67 JUMPI PUSH1 0x0 DUP1 REVERT JUMPDEST POP JUMP JUMPDEST PUSH1 0x0 DUP2 CALLDATALOAD SWAP1 POP PUSH2 0xF79 DUP2 PUSH2 0xF53 JUMP JUMPDEST SWAP3 SWAP2 POP POP JUMP JUMPDEST PUSH1 0x0 DUP1 PUSH1 0x40 DUP4 DUP6 SUB SLT ISZERO PUSH2 0xF96 JUMPI PUSH2 0xF95 PUSH2 0xEE6 JUMP JUMPDEST JUMPDEST PUSH1 0x0 PUSH2 0xFA4 DUP6 DUP3 DUP7 ADD PUSH2 0xF34 JUMP JUMPDEST SWAP3 POP POP PUSH1 0x20 PUSH2 0xFB5 DUP6 DUP3 DUP7 ADD PUSH2 0xF6A JUMP JUMPDEST SWAP2 POP POP SWAP3 POP SWAP3 SWAP1 POP JUMP JUMPDEST PUSH1 0x0 DUP2 ISZERO ISZERO SWAP1 POP SWAP2 SWAP1 POP JUMP JUMPDEST PUSH2 0xFD4 DUP2 PUSH2 0xFBF JUMP JUMPDEST DUP3 MSTORE POP POP JUMP JUMPDEST PUSH1 0x0 PUSH1 0x20 DUP3 ADD SWAP1 POP PUSH2 0xFEF PUSH1 0x0 DUP4 ADD DUP5 PUSH2 0xFCB JUMP JUMPDEST SWAP3 SWAP2 POP POP JUMP JUMPDEST PUSH2 0xFFE DUP2 PUSH2 0xF49 JUMP JUMPDEST DUP3 MSTORE POP POP JUMP JUMPDEST PUSH1 0x0 PUSH1 0x20 DUP3 ADD SWAP1 POP PUSH2 0x1019 PUSH1 0x0 DUP4 ADD DUP5 PUSH2 0xFF5 JUMP JUMPDEST SWAP3 SWAP2 POP POP JUMP JUMPDEST PUSH1 0x0 DUP1 PUSH1 0x0 PUSH1 0x60 DUP5 DUP7 SUB SLT ISZERO PUSH2 0x1038 JUMPI PUSH2 0x1037 PUSH2 0xEE6 JUMP JUMPDEST JUMPDEST PUSH1 0x0 PUSH2 0x1046 DUP7 DUP3 DUP8 ADD PUSH2 0xF34 JUMP JUMPDEST SWAP4 POP POP PUSH1 0x20 PUSH2 0x1057 DUP7 DUP3 DUP8 ADD PUSH2 0xF34 JUMP JUMPDEST SWAP3 POP POP PUSH1 0x40 PUSH2 0x1068 DUP7 DUP3 DUP8 ADD PUSH2 0xF6A JUMP JUMPDEST SWAP2 POP POP SWAP3 POP SWAP3 POP SWAP3 JUMP JUMPDEST PUSH1 0x0 PUSH1 0xFF DUP3 AND SWAP1 POP SWAP2 SWAP1 POP JUMP JUMPDEST PUSH2 0x1088 DUP2 PUSH2 0x1072 JUMP JUMPDEST DUP3 MSTORE POP POP JUMP JUMPDEST PUSH1 0x0 PUSH1 0x20 DUP3 ADD SWAP1 POP PUSH2 0x10A3 PUSH1 0x0 DUP4 ADD DUP5 PUSH2 0x107F JUMP JUMPDEST SWAP3 SWAP2 POP POP JUMP JUMPDEST PUSH1 0x0 PUSH1 0x20 DUP3 DUP5 SUB SLT ISZERO PUSH2 0x10BF JUMPI PUSH2 0x10BE PUSH2 0xEE6 JUMP JUMPDEST JUMPDEST PUSH1 0x0 PUSH2 0x10CD DUP5 DUP3 DUP6 ADD PUSH2 0xF34 JUMP JUMPDEST SWAP2 POP POP SWAP3 SWAP2 POP POP JUMP JUMPDEST PUSH1 0x0 DUP1 PUSH1 0x40 DUP4 DUP6 SUB SLT ISZERO PUSH2 0x10ED JUMPI PUSH2 0x10EC PUSH2 0xEE6 JUMP JUMPDEST JUMPDEST PUSH1 0x0 PUSH2 0x10FB DUP6 DUP3 DUP7 ADD PUSH2 0xF6A JUMP JUMPDEST SWAP3 POP POP PUSH1 0x20 PUSH2 0x110C DUP6 DUP3 DUP7 ADD PUSH2 0xF34 JUMP JUMPDEST SWAP2 POP POP SWAP3 POP SWAP3 SWAP1 POP JUMP JUMPDEST PUSH1 0x0 DUP1 PUSH1 0x40 DUP4 DUP6 SUB SLT ISZERO PUSH2 0x112D JUMPI PUSH2 0x112C PUSH2 0xEE6 JUMP JUMPDEST JUMPDEST PUSH1 0x0 PUSH2 0x113B DUP6 DUP3 DUP7 ADD PUSH2 0xF34 JUMP JUMPDEST SWAP3 POP POP PUSH1 0x20 PUSH2 0x114C DUP6 DUP3 DUP7 ADD PUSH2 0xF34 JUMP JUMPDEST SWAP2 POP POP SWAP3 POP SWAP3 SWAP1 POP JUMP JUMPDEST PUSH32 0x4E487B7100000000000000000000000000000000000000000000000000000000 PUSH1 0x0 MSTORE PUSH1 0x22 PUSH1 0x4 MSTORE PUSH1 0x24 PUSH1 0x0 REVERT JUMPDEST PUSH1 0x0 PUSH1 0x2 DUP3 DIV SWAP1 POP PUSH1 0x1 DUP3 AND DUP1 PUSH2 0x119D JUMPI PUSH1 0x7F DUP3 AND SWAP2 POP JUMPDEST PUSH1 0x20 DUP3 LT DUP2 EQ ISZERO PUSH2 0x11B1 JUMPI PUSH2 0x11B0 PUSH2 0x1156 JUMP JUMPDEST JUMPDEST POP SWAP2 SWAP1 POP JUMP JUMPDEST PUSH32 0x4E487B7100000000000000000000000000000000000000000000000000000000 PUSH1 0x0 MSTORE PUSH1 0x11 PUSH1 0x4 MSTORE PUSH1 0x24 PUSH1 0x0 REVERT JUMPDEST PUSH1 0x0 PUSH2 0x11F1 DUP3 PUSH2 0xF49 JUMP JUMPDEST SWAP2 POP PUSH2 0x11FC DUP4 PUSH2 0xF49 JUMP JUMPDEST SWAP3 POP DUP3 PUSH32 0xFFFFFFFFFFFFFFFFFFFFFFFFFFFFFFFFFFFFFFFFFFFFFFFFFFFFFFFFFFFFFFFF SUB DUP3 GT ISZERO PUSH2 0x1231 JUMPI PUSH2 0x1230 PUSH2 0x11B7 JUMP JUMPDEST JUMPDEST DUP3 DUP3 ADD SWAP1 POP SWAP3 SWAP2 POP POP JUMP JUMPDEST PUSH32 0x45524332303A2064656372656173656420616C6C6F77616E63652062656C6F77 PUSH1 0x0 DUP3 ADD MSTORE PUSH32 0x207A65726F000000000000000000000000000000000000000000000000000000 PUSH1 0x20 DUP3 ADD MSTORE POP JUMP JUMPDEST PUSH1 0x0 PUSH2 0x1298 PUSH1 0x25 DUP4 PUSH2 0xE36 JUMP JUMPDEST SWAP2 POP PUSH2 0x12A3 DUP3 PUSH2 0x123C JUMP JUMPDEST PUSH1 0x40 DUP3 ADD SWAP1 POP SWAP2 SWAP1 POP JUMP JUMPDEST PUSH1 0x0 PUSH1 0x20 DUP3 ADD SWAP1 POP DUP2 DUP2 SUB PUSH1 0x0 DUP4 ADD MSTORE PUSH2 0x12C7 DUP2 PUSH2 0x128B JUMP JUMPDEST SWAP1 POP SWAP2 SWAP1 POP JUMP JUMPDEST PUSH32 0x6D73672E73656E646572206D7573742062652074686520766F74696E6720636F PUSH1 0x0 DUP3 ADD MSTORE PUSH32 0x6E74726163740000000000000000000000000000000000000000000000000000 PUSH1 0x20 DUP3 ADD MSTORE POP JUMP JUMPDEST PUSH1 0x0 PUSH2 0x132A PUSH1 0x26 DUP4 PUSH2 0xE36 JUMP JUMPDEST SWAP2 POP PUSH2 0x1335 DUP3 PUSH2 0x12CE JUMP JUMPDEST PUSH1 0x40 DUP3 ADD SWAP1 POP SWAP2 SWAP1 POP JUMP JUMPDEST PUSH1 0x0 PUSH1 0x20 DUP3 ADD SWAP1 POP DUP2 DUP2 SUB PUSH1 0x0 DUP4 ADD MSTORE PUSH2 0x1359 DUP2 PUSH2 0x131D JUMP JUMPDEST SWAP1 POP SWAP2 SWAP1 POP JUMP JUMPDEST PUSH1 0x0 PUSH2 0x136B DUP3 PUSH2 0xF49 JUMP JUMPDEST SWAP2 POP PUSH2 0x1376 DUP4 PUSH2 0xF49 JUMP JUMPDEST SWAP3 POP DUP3 DUP3 LT ISZERO PUSH2 0x1389 JUMPI PUSH2 0x1388 PUSH2 0x11B7 JUMP JUMPDEST JUMPDEST DUP3 DUP3 SUB SWAP1 POP SWAP3 SWAP2 POP POP JUMP JUMPDEST PUSH32 0x45524332303A20617070726F76652066726F6D20746865207A65726F20616464 PUSH1 0x0 DUP3 ADD MSTORE PUSH32 0x7265737300000000000000000000000000000000000000000000000000000000 PUSH1 0x20 DUP3 ADD MSTORE POP JUMP JUMPDEST PUSH1 0x0 PUSH2 0x13F0 PUSH1 0x24 DUP4 PUSH2 0xE36 JUMP JUMPDEST SWAP2 POP PUSH2 0x13FB DUP3 PUSH2 0x1394 JUMP JUMPDEST PUSH1 0x40 DUP3 ADD SWAP1 POP SWAP2 SWAP1 POP JUMP JUMPDEST PUSH1 0x0 PUSH1 0x20 DUP3 ADD SWAP1 POP DUP2 DUP2 SUB PUSH1 0x0 DUP4 ADD MSTORE PUSH2 0x141F DUP2 PUSH2 0x13E3 JUMP JUMPDEST SWAP1 POP SWAP2 SWAP1 POP JUMP JUMPDEST PUSH32 0x45524332303A20617070726F766520746F20746865207A65726F206164647265 PUSH1 0x0 DUP3 ADD MSTORE PUSH32 0x7373000000000000000000000000000000000000000000000000000000000000 PUSH1 0x20 DUP3 ADD MSTORE POP JUMP JUMPDEST PUSH1 0x0 PUSH2 0x1482 PUSH1 0x22 DUP4 PUSH2 0xE36 JUMP JUMPDEST SWAP2 POP PUSH2 0x148D DUP3 PUSH2 0x1426 JUMP JUMPDEST PUSH1 0x40 DUP3 ADD SWAP1 POP SWAP2 SWAP1 POP JUMP JUMPDEST PUSH1 0x0 PUSH1 0x20 DUP3 ADD SWAP1 POP DUP2 DUP2 SUB PUSH1 0x0 DUP4 ADD MSTORE PUSH2 0x14B1 DUP2 PUSH2 0x1475 JUMP JUMPDEST SWAP1 POP SWAP2 SWAP1 POP JUMP JUMPDEST PUSH32 0x45524332303A20696E73756666696369656E7420616C6C6F77616E6365000000 PUSH1 0x0 DUP3 ADD MSTORE POP JUMP JUMPDEST PUSH1 0x0 PUSH2 0x14EE PUSH1 0x1D DUP4 PUSH2 0xE36 JUMP JUMPDEST SWAP2 POP PUSH2 0x14F9 DUP3 PUSH2 0x14B8 JUMP JUMPDEST PUSH1 0x20 DUP3 ADD SWAP1 POP SWAP2 SWAP1 POP JUMP JUMPDEST PUSH1 0x0 PUSH1 0x20 DUP3 ADD SWAP1 POP DUP2 DUP2 SUB PUSH1 0x0 DUP4 ADD MSTORE PUSH2 0x151D DUP2 PUSH2 0x14E1 JUMP JUMPDEST SWAP1 POP SWAP2 SWAP1 POP JUMP JUMPDEST PUSH32 0x45524332303A207472616E736665722066726F6D20746865207A65726F206164 PUSH1 0x0 DUP3 ADD MSTORE PUSH32 0x6472657373000000000000000000000000000000000000000000000000000000 PUSH1 0x20 DUP3 ADD MSTORE POP JUMP JUMPDEST PUSH1 0x0 PUSH2 0x1580 PUSH1 0x25 DUP4 PUSH2 0xE36 JUMP JUMPDEST SWAP2 POP PUSH2 0x158B DUP3 PUSH2 0x1524 JUMP JUMPDEST PUSH1 0x40 DUP3 ADD SWAP1 POP SWAP2 SWAP1 POP JUMP JUMPDEST PUSH1 0x0 PUSH1 0x20 DUP3 ADD SWAP1 POP DUP2 DUP2 SUB PUSH1 0x0 DUP4 ADD MSTORE PUSH2 0x15AF DUP2 PUSH2 0x1573 JUMP JUMPDEST SWAP1 POP SWAP2 SWAP1 POP JUMP JUMPDEST PUSH32 0x45524332303A207472616E7366657220746F20746865207A65726F2061646472 PUSH1 0x0 DUP3 ADD MSTORE PUSH32 0x6573730000000000000000000000000000000000000000000000000000000000 PUSH1 0x20 DUP3 ADD MSTORE POP JUMP JUMPDEST PUSH1 0x0 PUSH2 0x1612 PUSH1 0x23 DUP4 PUSH2 0xE36 JUMP JUMPDEST SWAP2 POP PUSH2 0x161D DUP3 PUSH2 0x15B6 JUMP JUMPDEST PUSH1 0x40 DUP3 ADD SWAP1 POP SWAP2 SWAP1 POP JUMP JUMPDEST PUSH1 0x0 PUSH1 0x20 DUP3 ADD SWAP1 POP DUP2 DUP2 SUB PUSH1 0x0 DUP4 ADD MSTORE PUSH2 0x1641 DUP2 PUSH2 0x1605 JUMP JUMPDEST SWAP1 POP SWAP2 SWAP1 POP JUMP JUMPDEST PUSH32 0x45524332303A207472616E7366657261626C6520616D6F756E74206578636565 PUSH1 0x0 DUP3 ADD MSTORE PUSH32 0x64732062616C616E636500000000000000000000000000000000000000000000 PUSH1 0x20 DUP3 ADD MSTORE POP JUMP JUMPDEST PUSH1 0x0 PUSH2 0x16A4 PUSH1 0x2A DUP4 PUSH2 0xE36 JUMP JUMPDEST SWAP2 POP PUSH2 0x16AF DUP3 PUSH2 0x1648 JUMP JUMPDEST PUSH1 0x40 DUP3 ADD SWAP1 POP SWAP2 SWAP1 POP JUMP JUMPDEST PUSH1 0x0 PUSH1 0x20 DUP3 ADD SWAP1 POP DUP2 DUP2 SUB PUSH1 0x0 DUP4 ADD MSTORE PUSH2 0x16D3 DUP2 PUSH2 0x1697 JUMP JUMPDEST SWAP1 POP SWAP2 SWAP1 POP JUMP INVALID LOG2 PUSH5 0x6970667358 0x22 SLT KECCAK256 CODECOPY 0xAC SHL 0xBD 0x26 0xD2 0xE4 DUP5 DUP8 DUP6 STATICCALL SUB SUB EXTCODEHASH PUSH6 0x41BBB1019535 0x22 SWAP14 SWAP11 PUSH25 0x76F8778B95F75164736F6C634300080A003300000000000000 "
				},
				"gasEstimates": {
					"creation": {
						"codeDepositCost": "1180800",
						"executionCost": "infinite",
						"totalCost": "infinite"
					},
					"external": {
						"allowance(address,address)": "infinite",
						"approve(address,uint256)": "infinite",
						"balanceOf(address)": "2864",
						"decimals()": "432",
						"decreaseAllowance(address,uint256)": "infinite",
						"increaseAllowance(address,uint256)": "infinite",
						"lockToken(uint256,address)": "infinite",
						"name()": "infinite",
						"symbol()": "infinite",
						"totalSupply()": "2482",
						"transfer(address,uint256)": "infinite",
						"transferFrom(address,address,uint256)": "infinite",
						"unLockToken(address)": "infinite"
					},
					"internal": {
						"_afterTokenTransfer(address,address,uint256)": "15",
						"_approve(address,address,uint256)": "infinite",
						"_beforeTokenTransfer(address,address,uint256)": "15",
						"_burn(address,uint256)": "infinite",
						"_mint(address,uint256)": "infinite",
						"_spendAllowance(address,address,uint256)": "infinite",
						"_transfer(address,address,uint256)": "infinite"
					}
				},
				"methodIdentifiers": {
					"allowance(address,address)": "dd62ed3e",
					"approve(address,uint256)": "095ea7b3",
					"balanceOf(address)": "70a08231",
					"decimals()": "313ce567",
					"decreaseAllowance(address,uint256)": "a457c2d7",
					"increaseAllowance(address,uint256)": "39509351",
					"lockToken(uint256,address)": "cec1460b",
					"name()": "06fdde03",
					"symbol()": "95d89b41",
					"totalSupply()": "18160ddd",
					"transfer(address,uint256)": "a9059cbb",
					"transferFrom(address,address,uint256)": "23b872dd",
					"unLockToken(address)": "bade9d84"
				}
			},
			"storageLayout": {
				"storage": [
					{
						"astId": 574,
						"contract": "backend/src/funderGovToken.sol:FunderGovToken",
						"label": "_totalSupply",
						"offset": 0,
						"slot": "0",
						"type": "t_uint256"
					},
					{
						"astId": 576,
						"contract": "backend/src/funderGovToken.sol:FunderGovToken",
						"label": "_name",
						"offset": 0,
						"slot": "1",
						"type": "t_string_storage"
					},
					{
						"astId": 578,
						"contract": "backend/src/funderGovToken.sol:FunderGovToken",
						"label": "_symbol",
						"offset": 0,
						"slot": "2",
						"type": "t_string_storage"
					},
					{
						"astId": 581,
						"contract": "backend/src/funderGovToken.sol:FunderGovToken",
						"label": "vote",
						"offset": 0,
						"slot": "3",
						"type": "t_contract(Voting)1428"
					},
					{
						"astId": 587,
						"contract": "backend/src/funderGovToken.sol:FunderGovToken",
						"label": "tokenOwners",
						"offset": 0,
						"slot": "4",
						"type": "t_mapping(t_address,t_mapping(t_address,t_uint256))"
					},
					{
						"astId": 591,
						"contract": "backend/src/funderGovToken.sol:FunderGovToken",
						"label": "_balances",
						"offset": 0,
						"slot": "5",
						"type": "t_mapping(t_address,t_uint256)"
					},
					{
						"astId": 595,
						"contract": "backend/src/funderGovToken.sol:FunderGovToken",
						"label": "lockedToken",
						"offset": 0,
						"slot": "6",
						"type": "t_mapping(t_address,t_uint256)"
					},
					{
						"astId": 601,
						"contract": "backend/src/funderGovToken.sol:FunderGovToken",
						"label": "_allowances",
						"offset": 0,
						"slot": "7",
						"type": "t_mapping(t_address,t_mapping(t_address,t_uint256))"
					}
				],
				"types": {
					"t_address": {
						"encoding": "inplace",
						"label": "address",
						"numberOfBytes": "20"
					},
					"t_contract(Voting)1428": {
						"encoding": "inplace",
						"label": "contract Voting",
						"numberOfBytes": "20"
					},
					"t_mapping(t_address,t_mapping(t_address,t_uint256))": {
						"encoding": "mapping",
						"key": "t_address",
						"label": "mapping(address => mapping(address => uint256))",
						"numberOfBytes": "32",
						"value": "t_mapping(t_address,t_uint256)"
					},
					"t_mapping(t_address,t_uint256)": {
						"encoding": "mapping",
						"key": "t_address",
						"label": "mapping(address => uint256)",
						"numberOfBytes": "32",
						"value": "t_uint256"
					},
					"t_string_storage": {
						"encoding": "bytes",
						"label": "string",
						"numberOfBytes": "32"
					},
					"t_uint256": {
						"encoding": "inplace",
						"label": "uint256",
						"numberOfBytes": "32"
					}
				}
			},
			"userdoc": {
				"kind": "user",
				"methods": {},
				"version": 1
			}
		}
	}
}