{
	"backend/src/funder.sol": {
		"Funder": {
			"abi": [
				{
					"inputs": [
						{
							"internalType": "address",
							"name": "_token",
							"type": "address"
						},
						{
							"internalType": "address",
							"name": "_govVoting",
							"type": "address"
						}
					],
					"stateMutability": "nonpayable",
					"type": "constructor"
				},
				{
					"anonymous": false,
					"inputs": [
						{
							"indexed": false,
							"internalType": "address",
							"name": "owner",
							"type": "address"
						},
						{
							"indexed": false,
							"internalType": "string",
							"name": "purpose",
							"type": "string"
						},
						{
							"indexed": false,
							"internalType": "uint256",
							"name": "amount",
							"type": "uint256"
						}
					],
					"name": "Request",
					"type": "event"
				},
				{
					"anonymous": false,
					"inputs": [
						{
							"indexed": false,
							"internalType": "address",
							"name": "owner",
							"type": "address"
						},
						{
							"indexed": false,
							"internalType": "address",
							"name": "beneficiary",
							"type": "address"
						},
						{
							"indexed": false,
							"internalType": "uint256",
							"name": "amount",
							"type": "uint256"
						}
					],
					"name": "donate",
					"type": "event"
				},
				{
					"anonymous": false,
					"inputs": [
						{
							"indexed": false,
							"internalType": "address",
							"name": "owner",
							"type": "address"
						},
						{
							"indexed": false,
							"internalType": "uint256",
							"name": "amount",
							"type": "uint256"
						},
						{
							"indexed": false,
							"internalType": "bool",
							"name": "status",
							"type": "bool"
						}
					],
					"name": "withdraw",
					"type": "event"
				},
				{
					"inputs": [
						{
							"internalType": "address",
							"name": "owner",
							"type": "address"
						}
					],
					"name": "checkBalanceOf",
					"outputs": [
						{
							"internalType": "uint256",
							"name": "",
							"type": "uint256"
						}
					],
					"stateMutability": "view",
					"type": "function"
				},
				{
					"inputs": [],
					"name": "checkBalanceOfContract",
					"outputs": [
						{
							"internalType": "uint256",
							"name": "",
							"type": "uint256"
						}
					],
					"stateMutability": "view",
					"type": "function"
				},
				{
					"inputs": [
						{
							"internalType": "address",
							"name": "beneficiary",
							"type": "address"
						}
					],
					"name": "donateFunds",
					"outputs": [],
					"stateMutability": "payable",
					"type": "function"
				},
				{
					"inputs": [
						{
							"internalType": "address",
							"name": "",
							"type": "address"
						}
					],
					"name": "fundsprosps",
					"outputs": [
						{
							"internalType": "string",
							"name": "Purpose",
							"type": "string"
						},
						{
							"internalType": "uint256",
							"name": "amount",
							"type": "uint256"
						},
						{
							"internalType": "uint256",
							"name": "amountGenerared",
							"type": "uint256"
						},
						{
							"internalType": "bool",
							"name": "status",
							"type": "bool"
						}
					],
					"stateMutability": "view",
					"type": "function"
				},
				{
					"inputs": [
						{
							"internalType": "address",
							"name": "beneficiary",
							"type": "address"
						}
					],
					"name": "getBeneficiaryProps",
					"outputs": [
						{
							"components": [
								{
									"internalType": "string",
									"name": "Purpose",
									"type": "string"
								},
								{
									"internalType": "uint256",
									"name": "amount",
									"type": "uint256"
								},
								{
									"internalType": "uint256",
									"name": "amountGenerared",
									"type": "uint256"
								},
								{
									"internalType": "bool",
									"name": "status",
									"type": "bool"
								}
							],
							"internalType": "struct Funder.FundProps",
							"name": "props",
							"type": "tuple"
						}
					],
					"stateMutability": "view",
					"type": "function"
				},
				{
					"inputs": [
						{
							"internalType": "address",
							"name": "beneficiary",
							"type": "address"
						}
					],
					"name": "getBeneficiaryStatus",
					"outputs": [
						{
							"internalType": "bool",
							"name": "status",
							"type": "bool"
						}
					],
					"stateMutability": "view",
					"type": "function"
				},
				{
					"inputs": [
						{
							"internalType": "address",
							"name": "",
							"type": "address"
						}
					],
					"name": "investors",
					"outputs": [
						{
							"internalType": "uint256",
							"name": "",
							"type": "uint256"
						}
					],
					"stateMutability": "view",
					"type": "function"
				},
				{
					"inputs": [
						{
							"internalType": "string",
							"name": "_purpose",
							"type": "string"
						},
						{
							"internalType": "uint256",
							"name": "_amount",
							"type": "uint256"
						}
					],
					"name": "requestFund",
					"outputs": [],
					"stateMutability": "nonpayable",
					"type": "function"
				},
				{
					"inputs": [
						{
							"internalType": "address",
							"name": "beneficiary",
							"type": "address"
						}
					],
					"name": "setStatus",
					"outputs": [
						{
							"internalType": "bool",
							"name": "",
							"type": "bool"
						}
					],
					"stateMutability": "nonpayable",
					"type": "function"
				},
				{
					"inputs": [],
					"name": "withdrawAll",
					"outputs": [],
					"stateMutability": "payable",
					"type": "function"
				},
				{
					"inputs": [
						{
							"internalType": "uint256",
							"name": "amount",
							"type": "uint256"
						}
					],
					"name": "withdrawPart",
					"outputs": [],
					"stateMutability": "payable",
					"type": "function"
				}
			],
			"devdoc": {
				"kind": "dev",
				"methods": {
					"checkBalanceOf(address)": {
						"returns": {
							"_0": "return the amount generated*"
						}
					},
					"donateFunds(address)": {
						"params": {
							"beneficiary": "The spender of the funds being donated"
						}
					},
					"requestFund(string,uint256)": {
						"params": {
							"_amount": "The amount needed to fulfill the purpose",
							"_purpose": "The Purpose of the fund requested for"
						}
					},
					"withdrawPart(uint256)": {
						"params": {
							"amount": "The amount to withdraw from the total amount generated"
						}
					}
				},
				"version": 1
			},
			"evm": {
				"assembly": "    /* \"backend/src/funder.sol\":161:4721  contract Funder {... */\n  mstore(0x40, 0x80)\n    /* \"backend/src/funder.sol\":1018:1141  constructor(address _token, address _govVoting){... */\n  callvalue\n  dup1\n  iszero\n  tag_1\n  jumpi\n  0x00\n  dup1\n  revert\ntag_1:\n  pop\n  mload(0x40)\n  sub(codesize, bytecodeSize)\n  dup1\n  bytecodeSize\n  dup4\n  codecopy\n  dup2\n  dup2\n  add\n  0x40\n  mstore\n  dup2\n  add\n  swap1\n  tag_2\n  swap2\n  swap1\n  tag_3\n  jump\t// in\ntag_2:\n    /* \"backend/src/funder.sol\":1086:1092  _token */\n  dup2\n    /* \"backend/src/funder.sol\":1075:1083  govToken */\n  0x00\n  dup1\n    /* \"backend/src/funder.sol\":1075:1092  govToken = _token */\n  0x0100\n  exp\n  dup2\n  sload\n  dup2\n  0xffffffffffffffffffffffffffffffffffffffff\n  mul\n  not\n  and\n  swap1\n  dup4\n  0xffffffffffffffffffffffffffffffffffffffff\n  and\n  mul\n  or\n  swap1\n  sstore\n  pop\n    /* \"backend/src/funder.sol\":1114:1124  _govVoting */\n  dup1\n    /* \"backend/src/funder.sol\":1102:1111  govVoting */\n  0x01\n  0x00\n    /* \"backend/src/funder.sol\":1102:1124  govVoting = _govVoting */\n  0x0100\n  exp\n  dup2\n  sload\n  dup2\n  0xffffffffffffffffffffffffffffffffffffffff\n  mul\n  not\n  and\n  swap1\n  dup4\n  0xffffffffffffffffffffffffffffffffffffffff\n  and\n  mul\n  or\n  swap1\n  sstore\n  pop\n    /* \"backend/src/funder.sol\":1018:1141  constructor(address _token, address _govVoting){... */\n  pop\n  pop\n    /* \"backend/src/funder.sol\":161:4721  contract Funder {... */\n  jump(tag_6)\n    /* \"#utility.yul\":88:205   */\ntag_8:\n    /* \"#utility.yul\":197:198   */\n  0x00\n    /* \"#utility.yul\":194:195   */\n  dup1\n    /* \"#utility.yul\":187:199   */\n  revert\n    /* \"#utility.yul\":334:460   */\ntag_10:\n    /* \"#utility.yul\":371:378   */\n  0x00\n    /* \"#utility.yul\":411:453   */\n  0xffffffffffffffffffffffffffffffffffffffff\n    /* \"#utility.yul\":404:409   */\n  dup3\n    /* \"#utility.yul\":400:454   */\n  and\n    /* \"#utility.yul\":389:454   */\n  swap1\n  pop\n    /* \"#utility.yul\":334:460   */\n  swap2\n  swap1\n  pop\n  jump\t// out\n    /* \"#utility.yul\":466:562   */\ntag_11:\n    /* \"#utility.yul\":503:510   */\n  0x00\n    /* \"#utility.yul\":532:556   */\n  tag_20\n    /* \"#utility.yul\":550:555   */\n  dup3\n    /* \"#utility.yul\":532:556   */\n  tag_10\n  jump\t// in\ntag_20:\n    /* \"#utility.yul\":521:556   */\n  swap1\n  pop\n    /* \"#utility.yul\":466:562   */\n  swap2\n  swap1\n  pop\n  jump\t// out\n    /* \"#utility.yul\":568:690   */\ntag_12:\n    /* \"#utility.yul\":641:665   */\n  tag_22\n    /* \"#utility.yul\":659:664   */\n  dup2\n    /* \"#utility.yul\":641:665   */\n  tag_11\n  jump\t// in\ntag_22:\n    /* \"#utility.yul\":634:639   */\n  dup2\n    /* \"#utility.yul\":631:666   */\n  eq\n    /* \"#utility.yul\":621:684   */\n  tag_23\n  jumpi\n    /* \"#utility.yul\":680:681   */\n  0x00\n    /* \"#utility.yul\":677:678   */\n  dup1\n    /* \"#utility.yul\":670:682   */\n  revert\n    /* \"#utility.yul\":621:684   */\ntag_23:\n    /* \"#utility.yul\":568:690   */\n  pop\n  jump\t// out\n    /* \"#utility.yul\":696:839   */\ntag_13:\n    /* \"#utility.yul\":753:758   */\n  0x00\n    /* \"#utility.yul\":784:790   */\n  dup2\n    /* \"#utility.yul\":778:791   */\n  mload\n    /* \"#utility.yul\":769:791   */\n  swap1\n  pop\n    /* \"#utility.yul\":800:833   */\n  tag_25\n    /* \"#utility.yul\":827:832   */\n  dup2\n    /* \"#utility.yul\":800:833   */\n  tag_12\n  jump\t// in\ntag_25:\n    /* \"#utility.yul\":696:839   */\n  swap3\n  swap2\n  pop\n  pop\n  jump\t// out\n    /* \"#utility.yul\":845:1352   */\ntag_3:\n    /* \"#utility.yul\":924:930   */\n  0x00\n    /* \"#utility.yul\":932:938   */\n  dup1\n    /* \"#utility.yul\":981:983   */\n  0x40\n    /* \"#utility.yul\":969:978   */\n  dup4\n    /* \"#utility.yul\":960:967   */\n  dup6\n    /* \"#utility.yul\":956:979   */\n  sub\n    /* \"#utility.yul\":952:984   */\n  slt\n    /* \"#utility.yul\":949:1068   */\n  iszero\n  tag_27\n  jumpi\n    /* \"#utility.yul\":987:1066   */\n  tag_28\n  tag_8\n  jump\t// in\ntag_28:\n    /* \"#utility.yul\":949:1068   */\ntag_27:\n    /* \"#utility.yul\":1107:1108   */\n  0x00\n    /* \"#utility.yul\":1132:1196   */\n  tag_29\n    /* \"#utility.yul\":1188:1195   */\n  dup6\n    /* \"#utility.yul\":1179:1185   */\n  dup3\n    /* \"#utility.yul\":1168:1177   */\n  dup7\n    /* \"#utility.yul\":1164:1186   */\n  add\n    /* \"#utility.yul\":1132:1196   */\n  tag_13\n  jump\t// in\ntag_29:\n    /* \"#utility.yul\":1122:1196   */\n  swap3\n  pop\n    /* \"#utility.yul\":1078:1206   */\n  pop\n    /* \"#utility.yul\":1245:1247   */\n  0x20\n    /* \"#utility.yul\":1271:1335   */\n  tag_30\n    /* \"#utility.yul\":1327:1334   */\n  dup6\n    /* \"#utility.yul\":1318:1324   */\n  dup3\n    /* \"#utility.yul\":1307:1316   */\n  dup7\n    /* \"#utility.yul\":1303:1325   */\n  add\n    /* \"#utility.yul\":1271:1335   */\n  tag_13\n  jump\t// in\ntag_30:\n    /* \"#utility.yul\":1261:1335   */\n  swap2\n  pop\n    /* \"#utility.yul\":1216:1345   */\n  pop\n    /* \"#utility.yul\":845:1352   */\n  swap3\n  pop\n  swap3\n  swap1\n  pop\n  jump\t// out\n    /* \"backend/src/funder.sol\":161:4721  contract Funder {... */\ntag_6:\n  dataSize(sub_0)\n  dup1\n  dataOffset(sub_0)\n  0x00\n  codecopy\n  0x00\n  return\nstop\n\nsub_0: assembly {\n        /* \"backend/src/funder.sol\":161:4721  contract Funder {... */\n      mstore(0x40, 0x80)\n      jumpi(tag_1, lt(calldatasize, 0x04))\n      shr(0xe0, calldataload(0x00))\n      dup1\n      0x7b9cd8c2\n      gt\n      tag_13\n      jumpi\n      dup1\n      0x7b9cd8c2\n      eq\n      tag_7\n      jumpi\n      dup1\n      0x7daf06fd\n      eq\n      tag_8\n      jumpi\n      dup1\n      0x853828b6\n      eq\n      tag_9\n      jumpi\n      dup1\n      0xb540795b\n      eq\n      tag_10\n      jumpi\n      dup1\n      0xb7f1b3a4\n      eq\n      tag_11\n      jumpi\n      dup1\n      0xd5247dda\n      eq\n      tag_12\n      jumpi\n      jump(tag_1)\n    tag_13:\n      dup1\n      0x03147f39\n      eq\n      tag_2\n      jumpi\n      dup1\n      0x0e60bfad\n      eq\n      tag_3\n      jumpi\n      dup1\n      0x14204dbb\n      eq\n      tag_4\n      jumpi\n      dup1\n      0x4fb2d09d\n      eq\n      tag_5\n      jumpi\n      dup1\n      0x6f7bc9be\n      eq\n      tag_6\n      jumpi\n    tag_1:\n      0x00\n      dup1\n      revert\n        /* \"backend/src/funder.sol\":4077:4205  function checkBalanceOf(address owner) external view returns (uint256){... */\n    tag_2:\n      callvalue\n      dup1\n      iszero\n      tag_14\n      jumpi\n      0x00\n      dup1\n      revert\n    tag_14:\n      pop\n      tag_15\n      0x04\n      dup1\n      calldatasize\n      sub\n      dup2\n      add\n      swap1\n      tag_16\n      swap2\n      swap1\n      tag_17\n      jump\t// in\n    tag_16:\n      tag_18\n      jump\t// in\n    tag_15:\n      mload(0x40)\n      tag_19\n      swap2\n      swap1\n      tag_20\n      jump\t// in\n    tag_19:\n      mload(0x40)\n      dup1\n      swap2\n      sub\n      swap1\n      return\n        /* \"backend/src/funder.sol\":4326:4714  function getBeneficiaryProps(address beneficiary) external view returns(FundProps memory props){... */\n    tag_3:\n      callvalue\n      dup1\n      iszero\n      tag_21\n      jumpi\n      0x00\n      dup1\n      revert\n    tag_21:\n      pop\n      tag_22\n      0x04\n      dup1\n      calldatasize\n      sub\n      dup2\n      add\n      swap1\n      tag_23\n      swap2\n      swap1\n      tag_17\n      jump\t// in\n    tag_23:\n      tag_24\n      jump\t// in\n    tag_22:\n      mload(0x40)\n      tag_25\n      swap2\n      swap1\n      tag_26\n      jump\t// in\n    tag_25:\n      mload(0x40)\n      dup1\n      swap2\n      sub\n      swap1\n      return\n        /* \"backend/src/funder.sol\":1680:1899  function setStatus(address beneficiary) external returns(bool) {... */\n    tag_4:\n      callvalue\n      dup1\n      iszero\n      tag_27\n      jumpi\n      0x00\n      dup1\n      revert\n    tag_27:\n      pop\n      tag_28\n      0x04\n      dup1\n      calldatasize\n      sub\n      dup2\n      add\n      swap1\n      tag_29\n      swap2\n      swap1\n      tag_17\n      jump\t// in\n    tag_29:\n      tag_30\n      jump\t// in\n    tag_28:\n      mload(0x40)\n      tag_31\n      swap2\n      swap1\n      tag_32\n      jump\t// in\n    tag_31:\n      mload(0x40)\n      dup1\n      swap2\n      sub\n      swap1\n      return\n        /* \"backend/src/funder.sol\":2040:2526  function donateFunds(address beneficiary) external payable{... */\n    tag_5:\n      tag_33\n      0x04\n      dup1\n      calldatasize\n      sub\n      dup2\n      add\n      swap1\n      tag_34\n      swap2\n      swap1\n      tag_17\n      jump\t// in\n    tag_34:\n      tag_35\n      jump\t// in\n    tag_33:\n      stop\n        /* \"backend/src/funder.sol\":604:646  mapping (address => uint) public investors */\n    tag_6:\n      callvalue\n      dup1\n      iszero\n      tag_36\n      jumpi\n      0x00\n      dup1\n      revert\n    tag_36:\n      pop\n      tag_37\n      0x04\n      dup1\n      calldatasize\n      sub\n      dup2\n      add\n      swap1\n      tag_38\n      swap2\n      swap1\n      tag_17\n      jump\t// in\n    tag_38:\n      tag_39\n      jump\t// in\n    tag_37:\n      mload(0x40)\n      tag_40\n      swap2\n      swap1\n      tag_20\n      jump\t// in\n    tag_40:\n      mload(0x40)\n      dup1\n      swap2\n      sub\n      swap1\n      return\n        /* \"backend/src/funder.sol\":4211:4320  function checkBalanceOfContract() external view returns(uint256){... */\n    tag_7:\n      callvalue\n      dup1\n      iszero\n      tag_41\n      jumpi\n      0x00\n      dup1\n      revert\n    tag_41:\n      pop\n      tag_42\n      tag_43\n      jump\t// in\n    tag_42:\n      mload(0x40)\n      tag_44\n      swap2\n      swap1\n      tag_20\n      jump\t// in\n    tag_44:\n      mload(0x40)\n      dup1\n      swap2\n      sub\n      swap1\n      return\n        /* \"backend/src/funder.sol\":3206:3692  function withdrawPart(uint amount) external payable {... */\n    tag_8:\n      tag_45\n      0x04\n      dup1\n      calldatasize\n      sub\n      dup2\n      add\n      swap1\n      tag_46\n      swap2\n      swap1\n      tag_47\n      jump\t// in\n    tag_46:\n      tag_48\n      jump\t// in\n    tag_45:\n      stop\n        /* \"backend/src/funder.sol\":2626:3059  function withdrawAll() external payable{... */\n    tag_9:\n      tag_49\n      tag_50\n      jump\t// in\n    tag_49:\n      stop\n        /* \"backend/src/funder.sol\":549:598  mapping (address => FundProps) public fundsprosps */\n    tag_10:\n      callvalue\n      dup1\n      iszero\n      tag_51\n      jumpi\n      0x00\n      dup1\n      revert\n    tag_51:\n      pop\n      tag_52\n      0x04\n      dup1\n      calldatasize\n      sub\n      dup2\n      add\n      swap1\n      tag_53\n      swap2\n      swap1\n      tag_17\n      jump\t// in\n    tag_53:\n      tag_54\n      jump\t// in\n    tag_52:\n      mload(0x40)\n      tag_55\n      swap5\n      swap4\n      swap3\n      swap2\n      swap1\n      tag_56\n      jump\t// in\n    tag_55:\n      mload(0x40)\n      dup1\n      swap2\n      sub\n      swap1\n      return\n        /* \"backend/src/funder.sol\":1429:1674  function requestFund(string memory _purpose, uint _amount) external {... */\n    tag_11:\n      callvalue\n      dup1\n      iszero\n      tag_57\n      jumpi\n      0x00\n      dup1\n      revert\n    tag_57:\n      pop\n      tag_58\n      0x04\n      dup1\n      calldatasize\n      sub\n      dup2\n      add\n      swap1\n      tag_59\n      swap2\n      swap1\n      tag_60\n      jump\t// in\n    tag_59:\n      tag_61\n      jump\t// in\n    tag_58:\n      stop\n        /* \"backend/src/funder.sol\":3771:3952  function getBeneficiaryStatus(address beneficiary)  public view returns(bool status){... */\n    tag_12:\n      callvalue\n      dup1\n      iszero\n      tag_62\n      jumpi\n      0x00\n      dup1\n      revert\n    tag_62:\n      pop\n      tag_63\n      0x04\n      dup1\n      calldatasize\n      sub\n      dup2\n      add\n      swap1\n      tag_64\n      swap2\n      swap1\n      tag_17\n      jump\t// in\n    tag_64:\n      tag_65\n      jump\t// in\n    tag_63:\n      mload(0x40)\n      tag_66\n      swap2\n      swap1\n      tag_32\n      jump\t// in\n    tag_66:\n      mload(0x40)\n      dup1\n      swap2\n      sub\n      swap1\n      return\n        /* \"backend/src/funder.sol\":4077:4205  function checkBalanceOf(address owner) external view returns (uint256){... */\n    tag_18:\n        /* \"backend/src/funder.sol\":4139:4146  uint256 */\n      0x00\n        /* \"backend/src/funder.sol\":4164:4175  fundsprosps */\n      0x02\n        /* \"backend/src/funder.sol\":4164:4182  fundsprosps[owner] */\n      0x00\n        /* \"backend/src/funder.sol\":4176:4181  owner */\n      dup4\n        /* \"backend/src/funder.sol\":4164:4182  fundsprosps[owner] */\n      0xffffffffffffffffffffffffffffffffffffffff\n      and\n      0xffffffffffffffffffffffffffffffffffffffff\n      and\n      dup2\n      mstore\n      0x20\n      add\n      swap1\n      dup2\n      mstore\n      0x20\n      add\n      0x00\n      keccak256\n        /* \"backend/src/funder.sol\":4164:4198  fundsprosps[owner].amountGenerared */\n      0x02\n      add\n      sload\n        /* \"backend/src/funder.sol\":4157:4198  return fundsprosps[owner].amountGenerared */\n      swap1\n      pop\n        /* \"backend/src/funder.sol\":4077:4205  function checkBalanceOf(address owner) external view returns (uint256){... */\n      swap2\n      swap1\n      pop\n      jump\t// out\n        /* \"backend/src/funder.sol\":4326:4714  function getBeneficiaryProps(address beneficiary) external view returns(FundProps memory props){... */\n    tag_24:\n        /* \"backend/src/funder.sol\":4398:4420  FundProps memory props */\n      tag_68\n      tag_69\n      jump\t// in\n    tag_68:\n        /* \"backend/src/funder.sol\":4439:4450  fundsprosps */\n      0x02\n        /* \"backend/src/funder.sol\":4439:4463  fundsprosps[beneficiary] */\n      0x00\n        /* \"backend/src/funder.sol\":4451:4462  beneficiary */\n      dup4\n        /* \"backend/src/funder.sol\":4439:4463  fundsprosps[beneficiary] */\n      0xffffffffffffffffffffffffffffffffffffffff\n      and\n      0xffffffffffffffffffffffffffffffffffffffff\n      and\n      dup2\n      mstore\n      0x20\n      add\n      swap1\n      dup2\n      mstore\n      0x20\n      add\n      0x00\n      keccak256\n        /* \"backend/src/funder.sol\":4431:4463  props = fundsprosps[beneficiary] */\n      mload(0x40)\n      dup1\n      0x80\n      add\n      0x40\n      mstore\n      swap1\n      dup2\n      0x00\n      dup3\n      add\n      dup1\n      sload\n      tag_71\n      swap1\n      tag_72\n      jump\t// in\n    tag_71:\n      dup1\n      0x1f\n      add\n      0x20\n      dup1\n      swap2\n      div\n      mul\n      0x20\n      add\n      mload(0x40)\n      swap1\n      dup2\n      add\n      0x40\n      mstore\n      dup1\n      swap3\n      swap2\n      swap1\n      dup2\n      dup2\n      mstore\n      0x20\n      add\n      dup3\n      dup1\n      sload\n      tag_73\n      swap1\n      tag_72\n      jump\t// in\n    tag_73:\n      dup1\n      iszero\n      tag_74\n      jumpi\n      dup1\n      0x1f\n      lt\n      tag_75\n      jumpi\n      0x0100\n      dup1\n      dup4\n      sload\n      div\n      mul\n      dup4\n      mstore\n      swap2\n      0x20\n      add\n      swap2\n      jump(tag_74)\n    tag_75:\n      dup3\n      add\n      swap2\n      swap1\n      0x00\n      mstore\n      keccak256(0x00, 0x20)\n      swap1\n    tag_76:\n      dup2\n      sload\n      dup2\n      mstore\n      swap1\n      0x01\n      add\n      swap1\n      0x20\n      add\n      dup1\n      dup4\n      gt\n      tag_76\n      jumpi\n      dup3\n      swap1\n      sub\n      0x1f\n      and\n      dup3\n      add\n      swap2\n    tag_74:\n      pop\n      pop\n      pop\n      pop\n      pop\n      dup2\n      mstore\n      0x20\n      add\n      0x01\n      dup3\n      add\n      sload\n      dup2\n      mstore\n      0x20\n      add\n      0x02\n      dup3\n      add\n      sload\n      dup2\n      mstore\n      0x20\n      add\n      0x03\n      dup3\n      add\n      0x00\n      swap1\n      sload\n      swap1\n      0x0100\n      exp\n      swap1\n      div\n      0xff\n      and\n      iszero\n      iszero\n      iszero\n      iszero\n      dup2\n      mstore\n      pop\n      pop\n      swap1\n      pop\n        /* \"backend/src/funder.sol\":4489:4500  fundsprosps */\n      0x02\n        /* \"backend/src/funder.sol\":4489:4513  fundsprosps[beneficiary] */\n      0x00\n        /* \"backend/src/funder.sol\":4501:4512  beneficiary */\n      dup4\n        /* \"backend/src/funder.sol\":4489:4513  fundsprosps[beneficiary] */\n      0xffffffffffffffffffffffffffffffffffffffff\n      and\n      0xffffffffffffffffffffffffffffffffffffffff\n      and\n      dup2\n      mstore\n      0x20\n      add\n      swap1\n      dup2\n      mstore\n      0x20\n      add\n      0x00\n      keccak256\n        /* \"backend/src/funder.sol\":4489:4521  fundsprosps[beneficiary].Purpose */\n      0x00\n      add\n        /* \"backend/src/funder.sol\":4473:4521  props.Purpose = fundsprosps[beneficiary].Purpose */\n      dup1\n      sload\n      tag_77\n      swap1\n      tag_72\n      jump\t// in\n    tag_77:\n      dup1\n      0x1f\n      add\n      0x20\n      dup1\n      swap2\n      div\n      mul\n      0x20\n      add\n      mload(0x40)\n      swap1\n      dup2\n      add\n      0x40\n      mstore\n      dup1\n      swap3\n      swap2\n      swap1\n      dup2\n      dup2\n      mstore\n      0x20\n      add\n      dup3\n      dup1\n      sload\n      tag_78\n      swap1\n      tag_72\n      jump\t// in\n    tag_78:\n      dup1\n      iszero\n      tag_79\n      jumpi\n      dup1\n      0x1f\n      lt\n      tag_80\n      jumpi\n      0x0100\n      dup1\n      dup4\n      sload\n      div\n      mul\n      dup4\n      mstore\n      swap2\n      0x20\n      add\n      swap2\n      jump(tag_79)\n    tag_80:\n      dup3\n      add\n      swap2\n      swap1\n      0x00\n      mstore\n      keccak256(0x00, 0x20)\n      swap1\n    tag_81:\n      dup2\n      sload\n      dup2\n      mstore\n      swap1\n      0x01\n      add\n      swap1\n      0x20\n      add\n      dup1\n      dup4\n      gt\n      tag_81\n      jumpi\n      dup3\n      swap1\n      sub\n      0x1f\n      and\n      dup3\n      add\n      swap2\n    tag_79:\n      pop\n      pop\n      pop\n      pop\n      pop\n        /* \"backend/src/funder.sol\":4473:4478  props */\n      dup2\n        /* \"backend/src/funder.sol\":4473:4486  props.Purpose */\n      0x00\n      add\n        /* \"backend/src/funder.sol\":4473:4521  props.Purpose = fundsprosps[beneficiary].Purpose */\n      dup2\n      swap1\n      mstore\n      pop\n        /* \"backend/src/funder.sol\":4546:4557  fundsprosps */\n      0x02\n        /* \"backend/src/funder.sol\":4546:4570  fundsprosps[beneficiary] */\n      0x00\n        /* \"backend/src/funder.sol\":4558:4569  beneficiary */\n      dup4\n        /* \"backend/src/funder.sol\":4546:4570  fundsprosps[beneficiary] */\n      0xffffffffffffffffffffffffffffffffffffffff\n      and\n      0xffffffffffffffffffffffffffffffffffffffff\n      and\n      dup2\n      mstore\n      0x20\n      add\n      swap1\n      dup2\n      mstore\n      0x20\n      add\n      0x00\n      keccak256\n        /* \"backend/src/funder.sol\":4546:4577  fundsprosps[beneficiary].amount */\n      0x01\n      add\n      sload\n        /* \"backend/src/funder.sol\":4531:4536  props */\n      dup2\n        /* \"backend/src/funder.sol\":4531:4543  props.amount */\n      0x20\n      add\n        /* \"backend/src/funder.sol\":4531:4577  props.amount = fundsprosps[beneficiary].amount */\n      dup2\n      dup2\n      mstore\n      pop\n      pop\n        /* \"backend/src/funder.sol\":4611:4622  fundsprosps */\n      0x02\n        /* \"backend/src/funder.sol\":4611:4635  fundsprosps[beneficiary] */\n      0x00\n        /* \"backend/src/funder.sol\":4623:4634  beneficiary */\n      dup4\n        /* \"backend/src/funder.sol\":4611:4635  fundsprosps[beneficiary] */\n      0xffffffffffffffffffffffffffffffffffffffff\n      and\n      0xffffffffffffffffffffffffffffffffffffffff\n      and\n      dup2\n      mstore\n      0x20\n      add\n      swap1\n      dup2\n      mstore\n      0x20\n      add\n      0x00\n      keccak256\n        /* \"backend/src/funder.sol\":4611:4651  fundsprosps[beneficiary].amountGenerared */\n      0x02\n      add\n      sload\n        /* \"backend/src/funder.sol\":4587:4592  props */\n      dup2\n        /* \"backend/src/funder.sol\":4587:4608  props.amountGenerared */\n      0x40\n      add\n        /* \"backend/src/funder.sol\":4587:4651  props.amountGenerared = fundsprosps[beneficiary].amountGenerared */\n      dup2\n      dup2\n      mstore\n      pop\n      pop\n        /* \"backend/src/funder.sol\":4676:4687  fundsprosps */\n      0x02\n        /* \"backend/src/funder.sol\":4676:4700  fundsprosps[beneficiary] */\n      0x00\n        /* \"backend/src/funder.sol\":4688:4699  beneficiary */\n      dup4\n        /* \"backend/src/funder.sol\":4676:4700  fundsprosps[beneficiary] */\n      0xffffffffffffffffffffffffffffffffffffffff\n      and\n      0xffffffffffffffffffffffffffffffffffffffff\n      and\n      dup2\n      mstore\n      0x20\n      add\n      swap1\n      dup2\n      mstore\n      0x20\n      add\n      0x00\n      keccak256\n        /* \"backend/src/funder.sol\":4676:4707  fundsprosps[beneficiary].status */\n      0x03\n      add\n      0x00\n      swap1\n      sload\n      swap1\n      0x0100\n      exp\n      swap1\n      div\n      0xff\n      and\n        /* \"backend/src/funder.sol\":4661:4666  props */\n      dup2\n        /* \"backend/src/funder.sol\":4661:4673  props.status */\n      0x60\n      add\n        /* \"backend/src/funder.sol\":4661:4707  props.status = fundsprosps[beneficiary].status */\n      swap1\n      iszero\n      iszero\n      swap1\n      dup2\n      iszero\n      iszero\n      dup2\n      mstore\n      pop\n      pop\n        /* \"backend/src/funder.sol\":4326:4714  function getBeneficiaryProps(address beneficiary) external view returns(FundProps memory props){... */\n      swap2\n      swap1\n      pop\n      jump\t// out\n        /* \"backend/src/funder.sol\":1680:1899  function setStatus(address beneficiary) external returns(bool) {... */\n    tag_30:\n        /* \"backend/src/funder.sol\":1737:1741  bool */\n      0x00\n        /* \"backend/src/funder.sol\":1773:1782  govVoting */\n      0x01\n      0x00\n      swap1\n      sload\n      swap1\n      0x0100\n      exp\n      swap1\n      div\n      0xffffffffffffffffffffffffffffffffffffffff\n      and\n        /* \"backend/src/funder.sol\":1759:1782  msg.sender == govVoting */\n      0xffffffffffffffffffffffffffffffffffffffff\n      and\n        /* \"backend/src/funder.sol\":1759:1769  msg.sender */\n      caller\n        /* \"backend/src/funder.sol\":1759:1782  msg.sender == govVoting */\n      0xffffffffffffffffffffffffffffffffffffffff\n      and\n      eq\n        /* \"backend/src/funder.sol\":1751:1783  require(msg.sender == govVoting) */\n      tag_83\n      jumpi\n      0x00\n      dup1\n      revert\n    tag_83:\n        /* \"backend/src/funder.sol\":1793:1813  FundProps storage FP */\n      0x00\n        /* \"backend/src/funder.sol\":1816:1827  fundsprosps */\n      0x02\n        /* \"backend/src/funder.sol\":1816:1840  fundsprosps[beneficiary] */\n      0x00\n        /* \"backend/src/funder.sol\":1828:1839  beneficiary */\n      dup5\n        /* \"backend/src/funder.sol\":1816:1840  fundsprosps[beneficiary] */\n      0xffffffffffffffffffffffffffffffffffffffff\n      and\n      0xffffffffffffffffffffffffffffffffffffffff\n      and\n      dup2\n      mstore\n      0x20\n      add\n      swap1\n      dup2\n      mstore\n      0x20\n      add\n      0x00\n      keccak256\n        /* \"backend/src/funder.sol\":1793:1840  FundProps storage FP = fundsprosps[beneficiary] */\n      swap1\n      pop\n        /* \"backend/src/funder.sol\":1862:1866  true */\n      0x01\n        /* \"backend/src/funder.sol\":1850:1852  FP */\n      dup2\n        /* \"backend/src/funder.sol\":1850:1859  FP.status */\n      0x03\n      add\n      0x00\n        /* \"backend/src/funder.sol\":1850:1866  FP.status = true */\n      0x0100\n      exp\n      dup2\n      sload\n      dup2\n      0xff\n      mul\n      not\n      and\n      swap1\n      dup4\n      iszero\n      iszero\n      mul\n      or\n      swap1\n      sstore\n      pop\n        /* \"backend/src/funder.sol\":1883:1885  FP */\n      dup1\n        /* \"backend/src/funder.sol\":1883:1892  FP.status */\n      0x03\n      add\n      0x00\n      swap1\n      sload\n      swap1\n      0x0100\n      exp\n      swap1\n      div\n      0xff\n      and\n        /* \"backend/src/funder.sol\":1876:1892  return FP.status */\n      swap2\n      pop\n      pop\n        /* \"backend/src/funder.sol\":1680:1899  function setStatus(address beneficiary) external returns(bool) {... */\n      swap2\n      swap1\n      pop\n      jump\t// out\n        /* \"backend/src/funder.sol\":2040:2526  function donateFunds(address beneficiary) external payable{... */\n    tag_35:\n        /* \"backend/src/funder.sol\":2108:2128  FundProps storage FP */\n      0x00\n        /* \"backend/src/funder.sol\":2131:2142  fundsprosps */\n      0x02\n        /* \"backend/src/funder.sol\":2131:2155  fundsprosps[beneficiary] */\n      0x00\n        /* \"backend/src/funder.sol\":2143:2154  beneficiary */\n      dup4\n        /* \"backend/src/funder.sol\":2131:2155  fundsprosps[beneficiary] */\n      0xffffffffffffffffffffffffffffffffffffffff\n      and\n      0xffffffffffffffffffffffffffffffffffffffff\n      and\n      dup2\n      mstore\n      0x20\n      add\n      swap1\n      dup2\n      mstore\n      0x20\n      add\n      0x00\n      keccak256\n        /* \"backend/src/funder.sol\":2108:2155  FundProps storage FP = fundsprosps[beneficiary] */\n      swap1\n      pop\n        /* \"backend/src/funder.sol\":2186:2187  0 */\n      0x00\n        /* \"backend/src/funder.sol\":2173:2182  msg.value */\n      callvalue\n        /* \"backend/src/funder.sol\":2173:2187  msg.value != 0 */\n      eq\n      iszero\n        /* \"backend/src/funder.sol\":2165:2218  require(msg.value != 0, \"you can't transfer 0 value\") */\n      tag_85\n      jumpi\n      mload(0x40)\n      0x08c379a000000000000000000000000000000000000000000000000000000000\n      dup2\n      mstore\n      0x04\n      add\n      tag_86\n      swap1\n      tag_87\n      jump\t// in\n    tag_86:\n      mload(0x40)\n      dup1\n      swap2\n      sub\n      swap1\n      revert\n    tag_85:\n        /* \"backend/src/funder.sol\":2249:2253  true */\n      0x01\n        /* \"backend/src/funder.sol\":2236:2253  FP.status == true */\n      iszero\n      iszero\n        /* \"backend/src/funder.sol\":2236:2238  FP */\n      dup2\n        /* \"backend/src/funder.sol\":2236:2245  FP.status */\n      0x03\n      add\n      0x00\n      swap1\n      sload\n      swap1\n      0x0100\n      exp\n      swap1\n      div\n      0xff\n      and\n        /* \"backend/src/funder.sol\":2236:2253  FP.status == true */\n      iszero\n      iszero\n      eq\n        /* \"backend/src/funder.sol\":2228:2294  require(FP.status == true, \"this donation is no longer available\") */\n      tag_88\n      jumpi\n      mload(0x40)\n      0x08c379a000000000000000000000000000000000000000000000000000000000\n      dup2\n      mstore\n      0x04\n      add\n      tag_89\n      swap1\n      tag_90\n      jump\t// in\n    tag_89:\n      mload(0x40)\n      dup1\n      swap2\n      sub\n      swap1\n      revert\n    tag_88:\n        /* \"backend/src/funder.sol\":2334:2336  FP */\n      dup1\n        /* \"backend/src/funder.sol\":2334:2343  FP.amount */\n      0x01\n      add\n      sload\n        /* \"backend/src/funder.sol\":2312:2314  FP */\n      dup2\n        /* \"backend/src/funder.sol\":2312:2330  FP.amountGenerared */\n      0x02\n      add\n      sload\n        /* \"backend/src/funder.sol\":2312:2343  FP.amountGenerared <= FP.amount */\n      gt\n      iszero\n        /* \"backend/src/funder.sol\":2304:2377  require(FP.amountGenerared <= FP.amount, \"target reachead for this fund\") */\n      tag_91\n      jumpi\n      mload(0x40)\n      0x08c379a000000000000000000000000000000000000000000000000000000000\n      dup2\n      mstore\n      0x04\n      add\n      tag_92\n      swap1\n      tag_93\n      jump\t// in\n    tag_92:\n      mload(0x40)\n      dup1\n      swap2\n      sub\n      swap1\n      revert\n    tag_91:\n        /* \"backend/src/funder.sol\":2409:2418  msg.value */\n      callvalue\n        /* \"backend/src/funder.sol\":2387:2389  FP */\n      dup2\n        /* \"backend/src/funder.sol\":2387:2405  FP.amountGenerared */\n      0x02\n      add\n      0x00\n        /* \"backend/src/funder.sol\":2387:2418  FP.amountGenerared += msg.value */\n      dup3\n      dup3\n      sload\n      tag_94\n      swap2\n      swap1\n      tag_95\n      jump\t// in\n    tag_94:\n      swap3\n      pop\n      pop\n      dup2\n      swap1\n      sstore\n      pop\n        /* \"backend/src/funder.sol\":2452:2461  msg.value */\n      callvalue\n        /* \"backend/src/funder.sol\":2428:2437  investors */\n      0x03\n        /* \"backend/src/funder.sol\":2428:2449  investors[msg.sender] */\n      0x00\n        /* \"backend/src/funder.sol\":2438:2448  msg.sender */\n      caller\n        /* \"backend/src/funder.sol\":2428:2449  investors[msg.sender] */\n      0xffffffffffffffffffffffffffffffffffffffff\n      and\n      0xffffffffffffffffffffffffffffffffffffffff\n      and\n      dup2\n      mstore\n      0x20\n      add\n      swap1\n      dup2\n      mstore\n      0x20\n      add\n      0x00\n      keccak256\n      0x00\n        /* \"backend/src/funder.sol\":2428:2461  investors[msg.sender]+= msg.value */\n      dup3\n      dup3\n      sload\n      tag_96\n      swap2\n      swap1\n      tag_95\n      jump\t// in\n    tag_96:\n      swap3\n      pop\n      pop\n      dup2\n      swap1\n      sstore\n      pop\n        /* \"backend/src/funder.sol\":2476:2518  donate(msg.sender, beneficiary, msg.value) */\n      0x386bc05a2408454571efe4cbeeabd68940d5a301c55f31319f2b6aef331fedfc\n        /* \"backend/src/funder.sol\":2483:2493  msg.sender */\n      caller\n        /* \"backend/src/funder.sol\":2495:2506  beneficiary */\n      dup4\n        /* \"backend/src/funder.sol\":2508:2517  msg.value */\n      callvalue\n        /* \"backend/src/funder.sol\":2476:2518  donate(msg.sender, beneficiary, msg.value) */\n      mload(0x40)\n      tag_97\n      swap4\n      swap3\n      swap2\n      swap1\n      tag_98\n      jump\t// in\n    tag_97:\n      mload(0x40)\n      dup1\n      swap2\n      sub\n      swap1\n      log1\n        /* \"backend/src/funder.sol\":2098:2526  {... */\n      pop\n        /* \"backend/src/funder.sol\":2040:2526  function donateFunds(address beneficiary) external payable{... */\n      pop\n      jump\t// out\n        /* \"backend/src/funder.sol\":604:646  mapping (address => uint) public investors */\n    tag_39:\n      mstore(0x20, 0x03)\n      dup1\n      0x00\n      mstore\n      keccak256(0x00, 0x40)\n      0x00\n      swap2\n      pop\n      swap1\n      pop\n      sload\n      dup2\n      jump\t// out\n        /* \"backend/src/funder.sol\":4211:4320  function checkBalanceOfContract() external view returns(uint256){... */\n    tag_43:\n        /* \"backend/src/funder.sol\":4267:4274  uint256 */\n      0x00\n        /* \"backend/src/funder.sol\":4292:4313  address(this).balance */\n      selfbalance\n        /* \"backend/src/funder.sol\":4285:4313  return address(this).balance */\n      swap1\n      pop\n        /* \"backend/src/funder.sol\":4211:4320  function checkBalanceOfContract() external view returns(uint256){... */\n      swap1\n      jump\t// out\n        /* \"backend/src/funder.sol\":3206:3692  function withdrawPart(uint amount) external payable {... */\n    tag_48:\n        /* \"backend/src/funder.sol\":3268:3288  FundProps storage FP */\n      0x00\n        /* \"backend/src/funder.sol\":3291:3302  fundsprosps */\n      0x02\n        /* \"backend/src/funder.sol\":3291:3314  fundsprosps[msg.sender] */\n      0x00\n        /* \"backend/src/funder.sol\":3303:3313  msg.sender */\n      caller\n        /* \"backend/src/funder.sol\":3291:3314  fundsprosps[msg.sender] */\n      0xffffffffffffffffffffffffffffffffffffffff\n      and\n      0xffffffffffffffffffffffffffffffffffffffff\n      and\n      dup2\n      mstore\n      0x20\n      add\n      swap1\n      dup2\n      mstore\n      0x20\n      add\n      0x00\n      keccak256\n        /* \"backend/src/funder.sol\":3268:3314  FundProps storage FP = fundsprosps[msg.sender] */\n      swap1\n      pop\n        /* \"backend/src/funder.sol\":3345:3349  true */\n      0x01\n        /* \"backend/src/funder.sol\":3332:3349  FP.status == true */\n      iszero\n      iszero\n        /* \"backend/src/funder.sol\":3332:3334  FP */\n      dup2\n        /* \"backend/src/funder.sol\":3332:3341  FP.status */\n      0x03\n      add\n      0x00\n      swap1\n      sload\n      swap1\n      0x0100\n      exp\n      swap1\n      div\n      0xff\n      and\n        /* \"backend/src/funder.sol\":3332:3349  FP.status == true */\n      iszero\n      iszero\n      eq\n        /* \"backend/src/funder.sol\":3324:3378  require(FP.status == true, \"No request for fund made\") */\n      tag_101\n      jumpi\n      mload(0x40)\n      0x08c379a000000000000000000000000000000000000000000000000000000000\n      dup2\n      mstore\n      0x04\n      add\n      tag_102\n      swap1\n      tag_103\n      jump\t// in\n    tag_102:\n      mload(0x40)\n      dup1\n      swap2\n      sub\n      swap1\n      revert\n    tag_101:\n        /* \"backend/src/funder.sol\":3419:3425  amount */\n      dup2\n        /* \"backend/src/funder.sol\":3396:3398  FP */\n      dup2\n        /* \"backend/src/funder.sol\":3396:3414  FP.amountGenerared */\n      0x02\n      add\n      sload\n        /* \"backend/src/funder.sol\":3396:3425  FP.amountGenerared  >= amount */\n      lt\n      iszero\n        /* \"backend/src/funder.sol\":3388:3448  require(FP.amountGenerared  >= amount, \"insufficient funds\") */\n      tag_104\n      jumpi\n      mload(0x40)\n      0x08c379a000000000000000000000000000000000000000000000000000000000\n      dup2\n      mstore\n      0x04\n      add\n      tag_105\n      swap1\n      tag_106\n      jump\t// in\n    tag_105:\n      mload(0x40)\n      dup1\n      swap2\n      sub\n      swap1\n      revert\n    tag_104:\n        /* \"backend/src/funder.sol\":3480:3486  amount */\n      dup2\n        /* \"backend/src/funder.sol\":3458:3460  FP */\n      dup2\n        /* \"backend/src/funder.sol\":3458:3476  FP.amountGenerared */\n      0x02\n      add\n      0x00\n        /* \"backend/src/funder.sol\":3458:3486  FP.amountGenerared -= amount */\n      dup3\n      dup3\n      sload\n      tag_107\n      swap2\n      swap1\n      tag_108\n      jump\t// in\n    tag_107:\n      swap3\n      pop\n      pop\n      dup2\n      swap1\n      sstore\n      pop\n        /* \"backend/src/funder.sol\":3509:3515  amount */\n      dup2\n        /* \"backend/src/funder.sol\":3496:3498  FP */\n      dup2\n        /* \"backend/src/funder.sol\":3496:3505  FP.amount */\n      0x01\n      add\n      0x00\n        /* \"backend/src/funder.sol\":3496:3515  FP.amount -= amount */\n      dup3\n      dup3\n      sload\n      tag_109\n      swap2\n      swap1\n      tag_108\n      jump\t// in\n    tag_109:\n      swap3\n      pop\n      pop\n      dup2\n      swap1\n      sstore\n      pop\n        /* \"backend/src/funder.sol\":3533:3543  msg.sender */\n      caller\n        /* \"backend/src/funder.sol\":3525:3553  payable(msg.sender).transfer */\n      0xffffffffffffffffffffffffffffffffffffffff\n      and\n        /* \"backend/src/funder.sol\":3525:3561  payable(msg.sender).transfer(amount) */\n      0x08fc\n        /* \"backend/src/funder.sol\":3554:3560  amount */\n      dup4\n        /* \"backend/src/funder.sol\":3525:3561  payable(msg.sender).transfer(amount) */\n      swap1\n      dup2\n      iszero\n      mul\n      swap1\n      mload(0x40)\n      0x00\n      mload(0x40)\n      dup1\n      dup4\n      sub\n      dup2\n      dup6\n      dup9\n      dup9\n      call\n      swap4\n      pop\n      pop\n      pop\n      pop\n      iszero\n      dup1\n      iszero\n      tag_111\n      jumpi\n      returndatasize\n      0x00\n      dup1\n      returndatacopy\n      revert(0x00, returndatasize)\n    tag_111:\n      pop\n        /* \"backend/src/funder.sol\":3593:3594  0 */\n      0x00\n        /* \"backend/src/funder.sol\":3571:3573  FP */\n      dup2\n        /* \"backend/src/funder.sol\":3571:3589  FP.amountGenerared */\n      0x02\n      add\n      sload\n        /* \"backend/src/funder.sol\":3571:3594  FP.amountGenerared == 0 */\n      eq\n        /* \"backend/src/funder.sol\":3571:3631  FP.amountGenerared == 0? FP.status = false: FP.status = true */\n      tag_112\n      jumpi\n        /* \"backend/src/funder.sol\":3627:3631  true */\n      0x01\n        /* \"backend/src/funder.sol\":3615:3617  FP */\n      dup2\n        /* \"backend/src/funder.sol\":3615:3624  FP.status */\n      0x03\n      add\n      0x00\n        /* \"backend/src/funder.sol\":3615:3631  FP.status = true */\n      0x0100\n      exp\n      dup2\n      sload\n      dup2\n      0xff\n      mul\n      not\n      and\n      swap1\n      dup4\n      iszero\n      iszero\n      mul\n      or\n      swap1\n      sstore\n        /* \"backend/src/funder.sol\":3571:3631  FP.amountGenerared == 0? FP.status = false: FP.status = true */\n      jump(tag_113)\n    tag_112:\n        /* \"backend/src/funder.sol\":3608:3613  false */\n      0x00\n        /* \"backend/src/funder.sol\":3596:3598  FP */\n      dup2\n        /* \"backend/src/funder.sol\":3596:3605  FP.status */\n      0x03\n      add\n      0x00\n        /* \"backend/src/funder.sol\":3596:3613  FP.status = false */\n      0x0100\n      exp\n      dup2\n      sload\n      dup2\n      0xff\n      mul\n      not\n      and\n      swap1\n      dup4\n      iszero\n      iszero\n      mul\n      or\n      swap1\n      sstore\n        /* \"backend/src/funder.sol\":3571:3631  FP.amountGenerared == 0? FP.status = false: FP.status = true */\n    tag_113:\n      pop\n        /* \"backend/src/funder.sol\":3646:3685  withdraw(msg.sender, amount, FP.status) */\n      0xead5d35910f3e2d6b0422579a65a204ac86cdeb6a6c0436657a33a90d397fb53\n        /* \"backend/src/funder.sol\":3655:3665  msg.sender */\n      caller\n        /* \"backend/src/funder.sol\":3667:3673  amount */\n      dup4\n        /* \"backend/src/funder.sol\":3675:3677  FP */\n      dup4\n        /* \"backend/src/funder.sol\":3675:3684  FP.status */\n      0x03\n      add\n      0x00\n      swap1\n      sload\n      swap1\n      0x0100\n      exp\n      swap1\n      div\n      0xff\n      and\n        /* \"backend/src/funder.sol\":3646:3685  withdraw(msg.sender, amount, FP.status) */\n      mload(0x40)\n      tag_114\n      swap4\n      swap3\n      swap2\n      swap1\n      tag_115\n      jump\t// in\n    tag_114:\n      mload(0x40)\n      dup1\n      swap2\n      sub\n      swap1\n      log1\n        /* \"backend/src/funder.sol\":3258:3692  {... */\n      pop\n        /* \"backend/src/funder.sol\":3206:3692  function withdrawPart(uint amount) external payable {... */\n      pop\n      jump\t// out\n        /* \"backend/src/funder.sol\":2626:3059  function withdrawAll() external payable{... */\n    tag_50:\n        /* \"backend/src/funder.sol\":2675:2695  FundProps storage FP */\n      0x00\n        /* \"backend/src/funder.sol\":2698:2709  fundsprosps */\n      0x02\n        /* \"backend/src/funder.sol\":2698:2721  fundsprosps[msg.sender] */\n      0x00\n        /* \"backend/src/funder.sol\":2710:2720  msg.sender */\n      caller\n        /* \"backend/src/funder.sol\":2698:2721  fundsprosps[msg.sender] */\n      0xffffffffffffffffffffffffffffffffffffffff\n      and\n      0xffffffffffffffffffffffffffffffffffffffff\n      and\n      dup2\n      mstore\n      0x20\n      add\n      swap1\n      dup2\n      mstore\n      0x20\n      add\n      0x00\n      keccak256\n        /* \"backend/src/funder.sol\":2675:2721  FundProps storage FP = fundsprosps[msg.sender] */\n      swap1\n      pop\n        /* \"backend/src/funder.sol\":2752:2756  true */\n      0x01\n        /* \"backend/src/funder.sol\":2739:2756  FP.status == true */\n      iszero\n      iszero\n        /* \"backend/src/funder.sol\":2739:2741  FP */\n      dup2\n        /* \"backend/src/funder.sol\":2739:2748  FP.status */\n      0x03\n      add\n      0x00\n      swap1\n      sload\n      swap1\n      0x0100\n      exp\n      swap1\n      div\n      0xff\n      and\n        /* \"backend/src/funder.sol\":2739:2756  FP.status == true */\n      iszero\n      iszero\n      eq\n        /* \"backend/src/funder.sol\":2731:2785  require(FP.status == true, \"No request for fund made\") */\n      tag_117\n      jumpi\n      mload(0x40)\n      0x08c379a000000000000000000000000000000000000000000000000000000000\n      dup2\n      mstore\n      0x04\n      add\n      tag_118\n      swap1\n      tag_103\n      jump\t// in\n    tag_118:\n      mload(0x40)\n      dup1\n      swap2\n      sub\n      swap1\n      revert\n    tag_117:\n        /* \"backend/src/funder.sol\":2825:2826  0 */\n      0x00\n        /* \"backend/src/funder.sol\":2803:2805  FP */\n      dup2\n        /* \"backend/src/funder.sol\":2803:2821  FP.amountGenerared */\n      0x02\n      add\n      sload\n        /* \"backend/src/funder.sol\":2803:2826  FP.amountGenerared != 0 */\n      eq\n      iszero\n        /* \"backend/src/funder.sol\":2795:2854  require(FP.amountGenerared != 0, \"NO funds raised for you\") */\n      tag_119\n      jumpi\n      mload(0x40)\n      0x08c379a000000000000000000000000000000000000000000000000000000000\n      dup2\n      mstore\n      0x04\n      add\n      tag_120\n      swap1\n      tag_121\n      jump\t// in\n    tag_120:\n      mload(0x40)\n      dup1\n      swap2\n      sub\n      swap1\n      revert\n    tag_119:\n        /* \"backend/src/funder.sol\":2864:2874  uint value */\n      0x00\n        /* \"backend/src/funder.sol\":2877:2879  FP */\n      dup2\n        /* \"backend/src/funder.sol\":2877:2895  FP.amountGenerared */\n      0x02\n      add\n      sload\n        /* \"backend/src/funder.sol\":2864:2895  uint value = FP.amountGenerared */\n      swap1\n      pop\n        /* \"backend/src/funder.sol\":2926:2927  0 */\n      0x00\n        /* \"backend/src/funder.sol\":2905:2907  FP */\n      dup3\n        /* \"backend/src/funder.sol\":2905:2923  FP.amountGenerared */\n      0x02\n      add\n        /* \"backend/src/funder.sol\":2905:2927  FP.amountGenerared = 0 */\n      dup2\n      swap1\n      sstore\n      pop\n        /* \"backend/src/funder.sol\":2949:2954  false */\n      0x00\n        /* \"backend/src/funder.sol\":2937:2939  FP */\n      dup3\n        /* \"backend/src/funder.sol\":2937:2946  FP.status */\n      0x03\n      add\n      0x00\n        /* \"backend/src/funder.sol\":2937:2954  FP.status = false */\n      0x0100\n      exp\n      dup2\n      sload\n      dup2\n      0xff\n      mul\n      not\n      and\n      swap1\n      dup4\n      iszero\n      iszero\n      mul\n      or\n      swap1\n      sstore\n      pop\n        /* \"backend/src/funder.sol\":2972:2982  msg.sender */\n      caller\n        /* \"backend/src/funder.sol\":2964:2992  payable(msg.sender).transfer */\n      0xffffffffffffffffffffffffffffffffffffffff\n      and\n        /* \"backend/src/funder.sol\":2964:2999  payable(msg.sender).transfer(value) */\n      0x08fc\n        /* \"backend/src/funder.sol\":2993:2998  value */\n      dup3\n        /* \"backend/src/funder.sol\":2964:2999  payable(msg.sender).transfer(value) */\n      swap1\n      dup2\n      iszero\n      mul\n      swap1\n      mload(0x40)\n      0x00\n      mload(0x40)\n      dup1\n      dup4\n      sub\n      dup2\n      dup6\n      dup9\n      dup9\n      call\n      swap4\n      pop\n      pop\n      pop\n      pop\n      iszero\n      dup1\n      iszero\n      tag_123\n      jumpi\n      returndatasize\n      0x00\n      dup1\n      returndatacopy\n      revert(0x00, returndatasize)\n    tag_123:\n      pop\n        /* \"backend/src/funder.sol\":3014:3052  withdraw(msg.sender, value, FP.status) */\n      0xead5d35910f3e2d6b0422579a65a204ac86cdeb6a6c0436657a33a90d397fb53\n        /* \"backend/src/funder.sol\":3023:3033  msg.sender */\n      caller\n        /* \"backend/src/funder.sol\":3035:3040  value */\n      dup3\n        /* \"backend/src/funder.sol\":3042:3044  FP */\n      dup5\n        /* \"backend/src/funder.sol\":3042:3051  FP.status */\n      0x03\n      add\n      0x00\n      swap1\n      sload\n      swap1\n      0x0100\n      exp\n      swap1\n      div\n      0xff\n      and\n        /* \"backend/src/funder.sol\":3014:3052  withdraw(msg.sender, value, FP.status) */\n      mload(0x40)\n      tag_124\n      swap4\n      swap3\n      swap2\n      swap1\n      tag_115\n      jump\t// in\n    tag_124:\n      mload(0x40)\n      dup1\n      swap2\n      sub\n      swap1\n      log1\n        /* \"backend/src/funder.sol\":2665:3059  {... */\n      pop\n      pop\n        /* \"backend/src/funder.sol\":2626:3059  function withdrawAll() external payable{... */\n      jump\t// out\n        /* \"backend/src/funder.sol\":549:598  mapping (address => FundProps) public fundsprosps */\n    tag_54:\n      mstore(0x20, 0x02)\n      dup1\n      0x00\n      mstore\n      keccak256(0x00, 0x40)\n      0x00\n      swap2\n      pop\n      swap1\n      pop\n      dup1\n      0x00\n      add\n      dup1\n      sload\n      tag_125\n      swap1\n      tag_72\n      jump\t// in\n    tag_125:\n      dup1\n      0x1f\n      add\n      0x20\n      dup1\n      swap2\n      div\n      mul\n      0x20\n      add\n      mload(0x40)\n      swap1\n      dup2\n      add\n      0x40\n      mstore\n      dup1\n      swap3\n      swap2\n      swap1\n      dup2\n      dup2\n      mstore\n      0x20\n      add\n      dup3\n      dup1\n      sload\n      tag_126\n      swap1\n      tag_72\n      jump\t// in\n    tag_126:\n      dup1\n      iszero\n      tag_127\n      jumpi\n      dup1\n      0x1f\n      lt\n      tag_128\n      jumpi\n      0x0100\n      dup1\n      dup4\n      sload\n      div\n      mul\n      dup4\n      mstore\n      swap2\n      0x20\n      add\n      swap2\n      jump(tag_127)\n    tag_128:\n      dup3\n      add\n      swap2\n      swap1\n      0x00\n      mstore\n      keccak256(0x00, 0x20)\n      swap1\n    tag_129:\n      dup2\n      sload\n      dup2\n      mstore\n      swap1\n      0x01\n      add\n      swap1\n      0x20\n      add\n      dup1\n      dup4\n      gt\n      tag_129\n      jumpi\n      dup3\n      swap1\n      sub\n      0x1f\n      and\n      dup3\n      add\n      swap2\n    tag_127:\n      pop\n      pop\n      pop\n      pop\n      pop\n      swap1\n      dup1\n      0x01\n      add\n      sload\n      swap1\n      dup1\n      0x02\n      add\n      sload\n      swap1\n      dup1\n      0x03\n      add\n      0x00\n      swap1\n      sload\n      swap1\n      0x0100\n      exp\n      swap1\n      div\n      0xff\n      and\n      swap1\n      pop\n      dup5\n      jump\t// out\n        /* \"backend/src/funder.sol\":1429:1674  function requestFund(string memory _purpose, uint _amount) external {... */\n    tag_61:\n        /* \"backend/src/funder.sol\":1507:1527  FundProps storage FP */\n      0x00\n        /* \"backend/src/funder.sol\":1531:1542  fundsprosps */\n      0x02\n        /* \"backend/src/funder.sol\":1531:1554  fundsprosps[msg.sender] */\n      0x00\n        /* \"backend/src/funder.sol\":1543:1553  msg.sender */\n      caller\n        /* \"backend/src/funder.sol\":1531:1554  fundsprosps[msg.sender] */\n      0xffffffffffffffffffffffffffffffffffffffff\n      and\n      0xffffffffffffffffffffffffffffffffffffffff\n      and\n      dup2\n      mstore\n      0x20\n      add\n      swap1\n      dup2\n      mstore\n      0x20\n      add\n      0x00\n      keccak256\n        /* \"backend/src/funder.sol\":1507:1554  FundProps storage FP =  fundsprosps[msg.sender] */\n      swap1\n      pop\n        /* \"backend/src/funder.sol\":1576:1583  _amount */\n      dup2\n        /* \"backend/src/funder.sol\":1564:1566  FP */\n      dup2\n        /* \"backend/src/funder.sol\":1564:1573  FP.amount */\n      0x01\n      add\n        /* \"backend/src/funder.sol\":1564:1583  FP.amount = _amount */\n      dup2\n      swap1\n      sstore\n      pop\n        /* \"backend/src/funder.sol\":1606:1614  _purpose */\n      dup3\n        /* \"backend/src/funder.sol\":1593:1595  FP */\n      dup2\n        /* \"backend/src/funder.sol\":1593:1603  FP.Purpose */\n      0x00\n      add\n        /* \"backend/src/funder.sol\":1593:1614  FP.Purpose = _purpose */\n      swap1\n      dup1\n      mload\n      swap1\n      0x20\n      add\n      swap1\n      tag_131\n      swap3\n      swap2\n      swap1\n      tag_132\n      jump\t// in\n    tag_131:\n      pop\n        /* \"backend/src/funder.sol\":1629:1667  Request(msg.sender, _purpose, _amount) */\n      0xf69a88136bb57871f0559f33e167c9cc90ed27fb806571f9bd595ccea4200082\n        /* \"backend/src/funder.sol\":1637:1647  msg.sender */\n      caller\n        /* \"backend/src/funder.sol\":1649:1657  _purpose */\n      dup5\n        /* \"backend/src/funder.sol\":1659:1666  _amount */\n      dup5\n        /* \"backend/src/funder.sol\":1629:1667  Request(msg.sender, _purpose, _amount) */\n      mload(0x40)\n      tag_133\n      swap4\n      swap3\n      swap2\n      swap1\n      tag_134\n      jump\t// in\n    tag_133:\n      mload(0x40)\n      dup1\n      swap2\n      sub\n      swap1\n      log1\n        /* \"backend/src/funder.sol\":1497:1674  {... */\n      pop\n        /* \"backend/src/funder.sol\":1429:1674  function requestFund(string memory _purpose, uint _amount) external {... */\n      pop\n      pop\n      jump\t// out\n        /* \"backend/src/funder.sol\":3771:3952  function getBeneficiaryStatus(address beneficiary)  public view returns(bool status){... */\n    tag_65:\n        /* \"backend/src/funder.sol\":3843:3854  bool status */\n      0x00\n        /* \"backend/src/funder.sol\":3865:3885  FundProps storage FP */\n      dup1\n        /* \"backend/src/funder.sol\":3888:3899  fundsprosps */\n      0x02\n        /* \"backend/src/funder.sol\":3888:3912  fundsprosps[beneficiary] */\n      0x00\n        /* \"backend/src/funder.sol\":3900:3911  beneficiary */\n      dup5\n        /* \"backend/src/funder.sol\":3888:3912  fundsprosps[beneficiary] */\n      0xffffffffffffffffffffffffffffffffffffffff\n      and\n      0xffffffffffffffffffffffffffffffffffffffff\n      and\n      dup2\n      mstore\n      0x20\n      add\n      swap1\n      dup2\n      mstore\n      0x20\n      add\n      0x00\n      keccak256\n        /* \"backend/src/funder.sol\":3865:3912  FundProps storage FP = fundsprosps[beneficiary] */\n      swap1\n      pop\n        /* \"backend/src/funder.sol\":3931:3933  FP */\n      dup1\n        /* \"backend/src/funder.sol\":3931:3940  FP.status */\n      0x03\n      add\n      0x00\n      swap1\n      sload\n      swap1\n      0x0100\n      exp\n      swap1\n      div\n      0xff\n      and\n        /* \"backend/src/funder.sol\":3922:3940  status = FP.status */\n      swap2\n      pop\n        /* \"backend/src/funder.sol\":3855:3952  {... */\n      pop\n        /* \"backend/src/funder.sol\":3771:3952  function getBeneficiaryStatus(address beneficiary)  public view returns(bool status){... */\n      swap2\n      swap1\n      pop\n      jump\t// out\n    tag_69:\n      mload(0x40)\n      dup1\n      0x80\n      add\n      0x40\n      mstore\n      dup1\n      0x60\n      dup2\n      mstore\n      0x20\n      add\n      0x00\n      dup2\n      mstore\n      0x20\n      add\n      0x00\n      dup2\n      mstore\n      0x20\n      add\n      iszero(iszero(0x00))\n      dup2\n      mstore\n      pop\n      swap1\n      jump\t// out\n    tag_132:\n      dup3\n      dup1\n      sload\n      tag_136\n      swap1\n      tag_72\n      jump\t// in\n    tag_136:\n      swap1\n      0x00\n      mstore\n      keccak256(0x00, 0x20)\n      swap1\n      0x1f\n      add\n      0x20\n      swap1\n      div\n      dup2\n      add\n      swap3\n      dup3\n      tag_138\n      jumpi\n      0x00\n      dup6\n      sstore\n      jump(tag_137)\n    tag_138:\n      dup3\n      0x1f\n      lt\n      tag_139\n      jumpi\n      dup1\n      mload\n      not(0xff)\n      and\n      dup4\n      dup1\n      add\n      or\n      dup6\n      sstore\n      jump(tag_137)\n    tag_139:\n      dup3\n      dup1\n      add\n      0x01\n      add\n      dup6\n      sstore\n      dup3\n      iszero\n      tag_137\n      jumpi\n      swap2\n      dup3\n      add\n    tag_140:\n      dup3\n      dup2\n      gt\n      iszero\n      tag_141\n      jumpi\n      dup3\n      mload\n      dup3\n      sstore\n      swap2\n      0x20\n      add\n      swap2\n      swap1\n      0x01\n      add\n      swap1\n      jump(tag_140)\n    tag_141:\n    tag_137:\n      pop\n      swap1\n      pop\n      tag_142\n      swap2\n      swap1\n      tag_143\n      jump\t// in\n    tag_142:\n      pop\n      swap1\n      jump\t// out\n    tag_143:\n    tag_144:\n      dup1\n      dup3\n      gt\n      iszero\n      tag_145\n      jumpi\n      0x00\n      dup2\n      0x00\n      swap1\n      sstore\n      pop\n      0x01\n      add\n      jump(tag_144)\n    tag_145:\n      pop\n      swap1\n      jump\t// out\n        /* \"#utility.yul\":7:82   */\n    tag_146:\n        /* \"#utility.yul\":40:46   */\n      0x00\n        /* \"#utility.yul\":73:75   */\n      0x40\n        /* \"#utility.yul\":67:76   */\n      mload\n        /* \"#utility.yul\":57:76   */\n      swap1\n      pop\n        /* \"#utility.yul\":7:82   */\n      swap1\n      jump\t// out\n        /* \"#utility.yul\":88:205   */\n    tag_147:\n        /* \"#utility.yul\":197:198   */\n      0x00\n        /* \"#utility.yul\":194:195   */\n      dup1\n        /* \"#utility.yul\":187:199   */\n      revert\n        /* \"#utility.yul\":211:328   */\n    tag_148:\n        /* \"#utility.yul\":320:321   */\n      0x00\n        /* \"#utility.yul\":317:318   */\n      dup1\n        /* \"#utility.yul\":310:322   */\n      revert\n        /* \"#utility.yul\":334:460   */\n    tag_149:\n        /* \"#utility.yul\":371:378   */\n      0x00\n        /* \"#utility.yul\":411:453   */\n      0xffffffffffffffffffffffffffffffffffffffff\n        /* \"#utility.yul\":404:409   */\n      dup3\n        /* \"#utility.yul\":400:454   */\n      and\n        /* \"#utility.yul\":389:454   */\n      swap1\n      pop\n        /* \"#utility.yul\":334:460   */\n      swap2\n      swap1\n      pop\n      jump\t// out\n        /* \"#utility.yul\":466:562   */\n    tag_150:\n        /* \"#utility.yul\":503:510   */\n      0x00\n        /* \"#utility.yul\":532:556   */\n      tag_199\n        /* \"#utility.yul\":550:555   */\n      dup3\n        /* \"#utility.yul\":532:556   */\n      tag_149\n      jump\t// in\n    tag_199:\n        /* \"#utility.yul\":521:556   */\n      swap1\n      pop\n        /* \"#utility.yul\":466:562   */\n      swap2\n      swap1\n      pop\n      jump\t// out\n        /* \"#utility.yul\":568:690   */\n    tag_151:\n        /* \"#utility.yul\":641:665   */\n      tag_201\n        /* \"#utility.yul\":659:664   */\n      dup2\n        /* \"#utility.yul\":641:665   */\n      tag_150\n      jump\t// in\n    tag_201:\n        /* \"#utility.yul\":634:639   */\n      dup2\n        /* \"#utility.yul\":631:666   */\n      eq\n        /* \"#utility.yul\":621:684   */\n      tag_202\n      jumpi\n        /* \"#utility.yul\":680:681   */\n      0x00\n        /* \"#utility.yul\":677:678   */\n      dup1\n        /* \"#utility.yul\":670:682   */\n      revert\n        /* \"#utility.yul\":621:684   */\n    tag_202:\n        /* \"#utility.yul\":568:690   */\n      pop\n      jump\t// out\n        /* \"#utility.yul\":696:835   */\n    tag_152:\n        /* \"#utility.yul\":742:747   */\n      0x00\n        /* \"#utility.yul\":780:786   */\n      dup2\n        /* \"#utility.yul\":767:787   */\n      calldataload\n        /* \"#utility.yul\":758:787   */\n      swap1\n      pop\n        /* \"#utility.yul\":796:829   */\n      tag_204\n        /* \"#utility.yul\":823:828   */\n      dup2\n        /* \"#utility.yul\":796:829   */\n      tag_151\n      jump\t// in\n    tag_204:\n        /* \"#utility.yul\":696:835   */\n      swap3\n      swap2\n      pop\n      pop\n      jump\t// out\n        /* \"#utility.yul\":841:1170   */\n    tag_17:\n        /* \"#utility.yul\":900:906   */\n      0x00\n        /* \"#utility.yul\":949:951   */\n      0x20\n        /* \"#utility.yul\":937:946   */\n      dup3\n        /* \"#utility.yul\":928:935   */\n      dup5\n        /* \"#utility.yul\":924:947   */\n      sub\n        /* \"#utility.yul\":920:952   */\n      slt\n        /* \"#utility.yul\":917:1036   */\n      iszero\n      tag_206\n      jumpi\n        /* \"#utility.yul\":955:1034   */\n      tag_207\n      tag_147\n      jump\t// in\n    tag_207:\n        /* \"#utility.yul\":917:1036   */\n    tag_206:\n        /* \"#utility.yul\":1075:1076   */\n      0x00\n        /* \"#utility.yul\":1100:1153   */\n      tag_208\n        /* \"#utility.yul\":1145:1152   */\n      dup5\n        /* \"#utility.yul\":1136:1142   */\n      dup3\n        /* \"#utility.yul\":1125:1134   */\n      dup6\n        /* \"#utility.yul\":1121:1143   */\n      add\n        /* \"#utility.yul\":1100:1153   */\n      tag_152\n      jump\t// in\n    tag_208:\n        /* \"#utility.yul\":1090:1153   */\n      swap2\n      pop\n        /* \"#utility.yul\":1046:1163   */\n      pop\n        /* \"#utility.yul\":841:1170   */\n      swap3\n      swap2\n      pop\n      pop\n      jump\t// out\n        /* \"#utility.yul\":1176:1253   */\n    tag_153:\n        /* \"#utility.yul\":1213:1220   */\n      0x00\n        /* \"#utility.yul\":1242:1247   */\n      dup2\n        /* \"#utility.yul\":1231:1247   */\n      swap1\n      pop\n        /* \"#utility.yul\":1176:1253   */\n      swap2\n      swap1\n      pop\n      jump\t// out\n        /* \"#utility.yul\":1259:1377   */\n    tag_154:\n        /* \"#utility.yul\":1346:1370   */\n      tag_211\n        /* \"#utility.yul\":1364:1369   */\n      dup2\n        /* \"#utility.yul\":1346:1370   */\n      tag_153\n      jump\t// in\n    tag_211:\n        /* \"#utility.yul\":1341:1344   */\n      dup3\n        /* \"#utility.yul\":1334:1371   */\n      mstore\n        /* \"#utility.yul\":1259:1377   */\n      pop\n      pop\n      jump\t// out\n        /* \"#utility.yul\":1383:1605   */\n    tag_20:\n        /* \"#utility.yul\":1476:1480   */\n      0x00\n        /* \"#utility.yul\":1514:1516   */\n      0x20\n        /* \"#utility.yul\":1503:1512   */\n      dup3\n        /* \"#utility.yul\":1499:1517   */\n      add\n        /* \"#utility.yul\":1491:1517   */\n      swap1\n      pop\n        /* \"#utility.yul\":1527:1598   */\n      tag_213\n        /* \"#utility.yul\":1595:1596   */\n      0x00\n        /* \"#utility.yul\":1584:1593   */\n      dup4\n        /* \"#utility.yul\":1580:1597   */\n      add\n        /* \"#utility.yul\":1571:1577   */\n      dup5\n        /* \"#utility.yul\":1527:1598   */\n      tag_154\n      jump\t// in\n    tag_213:\n        /* \"#utility.yul\":1383:1605   */\n      swap3\n      swap2\n      pop\n      pop\n      jump\t// out\n        /* \"#utility.yul\":1611:1710   */\n    tag_155:\n        /* \"#utility.yul\":1663:1669   */\n      0x00\n        /* \"#utility.yul\":1697:1702   */\n      dup2\n        /* \"#utility.yul\":1691:1703   */\n      mload\n        /* \"#utility.yul\":1681:1703   */\n      swap1\n      pop\n        /* \"#utility.yul\":1611:1710   */\n      swap2\n      swap1\n      pop\n      jump\t// out\n        /* \"#utility.yul\":1716:1875   */\n    tag_156:\n        /* \"#utility.yul\":1790:1801   */\n      0x00\n        /* \"#utility.yul\":1824:1830   */\n      dup3\n        /* \"#utility.yul\":1819:1822   */\n      dup3\n        /* \"#utility.yul\":1812:1831   */\n      mstore\n        /* \"#utility.yul\":1864:1868   */\n      0x20\n        /* \"#utility.yul\":1859:1862   */\n      dup3\n        /* \"#utility.yul\":1855:1869   */\n      add\n        /* \"#utility.yul\":1840:1869   */\n      swap1\n      pop\n        /* \"#utility.yul\":1716:1875   */\n      swap3\n      swap2\n      pop\n      pop\n      jump\t// out\n        /* \"#utility.yul\":1881:2188   */\n    tag_157:\n        /* \"#utility.yul\":1949:1950   */\n      0x00\n        /* \"#utility.yul\":1959:2072   */\n    tag_217:\n        /* \"#utility.yul\":1973:1979   */\n      dup4\n        /* \"#utility.yul\":1970:1971   */\n      dup2\n        /* \"#utility.yul\":1967:1980   */\n      lt\n        /* \"#utility.yul\":1959:2072   */\n      iszero\n      tag_219\n      jumpi\n        /* \"#utility.yul\":2058:2059   */\n      dup1\n        /* \"#utility.yul\":2053:2056   */\n      dup3\n        /* \"#utility.yul\":2049:2060   */\n      add\n        /* \"#utility.yul\":2043:2061   */\n      mload\n        /* \"#utility.yul\":2039:2040   */\n      dup2\n        /* \"#utility.yul\":2034:2037   */\n      dup5\n        /* \"#utility.yul\":2030:2041   */\n      add\n        /* \"#utility.yul\":2023:2062   */\n      mstore\n        /* \"#utility.yul\":1995:1997   */\n      0x20\n        /* \"#utility.yul\":1992:1993   */\n      dup2\n        /* \"#utility.yul\":1988:1998   */\n      add\n        /* \"#utility.yul\":1983:1998   */\n      swap1\n      pop\n        /* \"#utility.yul\":1959:2072   */\n      jump(tag_217)\n    tag_219:\n        /* \"#utility.yul\":2090:2096   */\n      dup4\n        /* \"#utility.yul\":2087:2088   */\n      dup2\n        /* \"#utility.yul\":2084:2097   */\n      gt\n        /* \"#utility.yul\":2081:2182   */\n      iszero\n      tag_220\n      jumpi\n        /* \"#utility.yul\":2170:2171   */\n      0x00\n        /* \"#utility.yul\":2161:2167   */\n      dup5\n        /* \"#utility.yul\":2156:2159   */\n      dup5\n        /* \"#utility.yul\":2152:2168   */\n      add\n        /* \"#utility.yul\":2145:2172   */\n      mstore\n        /* \"#utility.yul\":2081:2182   */\n    tag_220:\n        /* \"#utility.yul\":1930:2188   */\n      pop\n        /* \"#utility.yul\":1881:2188   */\n      pop\n      pop\n      pop\n      jump\t// out\n        /* \"#utility.yul\":2194:2296   */\n    tag_158:\n        /* \"#utility.yul\":2235:2241   */\n      0x00\n        /* \"#utility.yul\":2286:2288   */\n      0x1f\n        /* \"#utility.yul\":2282:2289   */\n      not\n        /* \"#utility.yul\":2277:2279   */\n      0x1f\n        /* \"#utility.yul\":2270:2275   */\n      dup4\n        /* \"#utility.yul\":2266:2280   */\n      add\n        /* \"#utility.yul\":2262:2290   */\n      and\n        /* \"#utility.yul\":2252:2290   */\n      swap1\n      pop\n        /* \"#utility.yul\":2194:2296   */\n      swap2\n      swap1\n      pop\n      jump\t// out\n        /* \"#utility.yul\":2302:2646   */\n    tag_159:\n        /* \"#utility.yul\":2380:2383   */\n      0x00\n        /* \"#utility.yul\":2408:2447   */\n      tag_223\n        /* \"#utility.yul\":2441:2446   */\n      dup3\n        /* \"#utility.yul\":2408:2447   */\n      tag_155\n      jump\t// in\n    tag_223:\n        /* \"#utility.yul\":2463:2524   */\n      tag_224\n        /* \"#utility.yul\":2517:2523   */\n      dup2\n        /* \"#utility.yul\":2512:2515   */\n      dup6\n        /* \"#utility.yul\":2463:2524   */\n      tag_156\n      jump\t// in\n    tag_224:\n        /* \"#utility.yul\":2456:2524   */\n      swap4\n      pop\n        /* \"#utility.yul\":2533:2585   */\n      tag_225\n        /* \"#utility.yul\":2578:2584   */\n      dup2\n        /* \"#utility.yul\":2573:2576   */\n      dup6\n        /* \"#utility.yul\":2566:2570   */\n      0x20\n        /* \"#utility.yul\":2559:2564   */\n      dup7\n        /* \"#utility.yul\":2555:2571   */\n      add\n        /* \"#utility.yul\":2533:2585   */\n      tag_157\n      jump\t// in\n    tag_225:\n        /* \"#utility.yul\":2610:2639   */\n      tag_226\n        /* \"#utility.yul\":2632:2638   */\n      dup2\n        /* \"#utility.yul\":2610:2639   */\n      tag_158\n      jump\t// in\n    tag_226:\n        /* \"#utility.yul\":2605:2608   */\n      dup5\n        /* \"#utility.yul\":2601:2640   */\n      add\n        /* \"#utility.yul\":2594:2640   */\n      swap2\n      pop\n        /* \"#utility.yul\":2384:2646   */\n      pop\n        /* \"#utility.yul\":2302:2646   */\n      swap3\n      swap2\n      pop\n      pop\n      jump\t// out\n        /* \"#utility.yul\":2652:2760   */\n    tag_160:\n        /* \"#utility.yul\":2729:2753   */\n      tag_228\n        /* \"#utility.yul\":2747:2752   */\n      dup2\n        /* \"#utility.yul\":2729:2753   */\n      tag_153\n      jump\t// in\n    tag_228:\n        /* \"#utility.yul\":2724:2727   */\n      dup3\n        /* \"#utility.yul\":2717:2754   */\n      mstore\n        /* \"#utility.yul\":2652:2760   */\n      pop\n      pop\n      jump\t// out\n        /* \"#utility.yul\":2766:2856   */\n    tag_161:\n        /* \"#utility.yul\":2800:2807   */\n      0x00\n        /* \"#utility.yul\":2843:2848   */\n      dup2\n        /* \"#utility.yul\":2836:2849   */\n      iszero\n        /* \"#utility.yul\":2829:2850   */\n      iszero\n        /* \"#utility.yul\":2818:2850   */\n      swap1\n      pop\n        /* \"#utility.yul\":2766:2856   */\n      swap2\n      swap1\n      pop\n      jump\t// out\n        /* \"#utility.yul\":2862:2961   */\n    tag_162:\n        /* \"#utility.yul\":2933:2954   */\n      tag_231\n        /* \"#utility.yul\":2948:2953   */\n      dup2\n        /* \"#utility.yul\":2933:2954   */\n      tag_161\n      jump\t// in\n    tag_231:\n        /* \"#utility.yul\":2928:2931   */\n      dup3\n        /* \"#utility.yul\":2921:2955   */\n      mstore\n        /* \"#utility.yul\":2862:2961   */\n      pop\n      pop\n      jump\t// out\n        /* \"#utility.yul\":3025:3991   */\n    tag_163:\n        /* \"#utility.yul\":3144:3147   */\n      0x00\n        /* \"#utility.yul\":3180:3184   */\n      0x80\n        /* \"#utility.yul\":3175:3178   */\n      dup4\n        /* \"#utility.yul\":3171:3185   */\n      add\n        /* \"#utility.yul\":3270:3274   */\n      0x00\n        /* \"#utility.yul\":3263:3268   */\n      dup4\n        /* \"#utility.yul\":3259:3275   */\n      add\n        /* \"#utility.yul\":3253:3276   */\n      mload\n        /* \"#utility.yul\":3323:3326   */\n      dup5\n        /* \"#utility.yul\":3317:3321   */\n      dup3\n        /* \"#utility.yul\":3313:3327   */\n      sub\n        /* \"#utility.yul\":3306:3310   */\n      0x00\n        /* \"#utility.yul\":3301:3304   */\n      dup7\n        /* \"#utility.yul\":3297:3311   */\n      add\n        /* \"#utility.yul\":3290:3328   */\n      mstore\n        /* \"#utility.yul\":3349:3422   */\n      tag_233\n        /* \"#utility.yul\":3417:3421   */\n      dup3\n        /* \"#utility.yul\":3403:3415   */\n      dup3\n        /* \"#utility.yul\":3349:3422   */\n      tag_159\n      jump\t// in\n    tag_233:\n        /* \"#utility.yul\":3341:3422   */\n      swap2\n      pop\n        /* \"#utility.yul\":3195:3433   */\n      pop\n        /* \"#utility.yul\":3517:3521   */\n      0x20\n        /* \"#utility.yul\":3510:3515   */\n      dup4\n        /* \"#utility.yul\":3506:3522   */\n      add\n        /* \"#utility.yul\":3500:3523   */\n      mload\n        /* \"#utility.yul\":3536:3599   */\n      tag_234\n        /* \"#utility.yul\":3593:3597   */\n      0x20\n        /* \"#utility.yul\":3588:3591   */\n      dup7\n        /* \"#utility.yul\":3584:3598   */\n      add\n        /* \"#utility.yul\":3570:3582   */\n      dup3\n        /* \"#utility.yul\":3536:3599   */\n      tag_160\n      jump\t// in\n    tag_234:\n        /* \"#utility.yul\":3443:3609   */\n      pop\n        /* \"#utility.yul\":3702:3706   */\n      0x40\n        /* \"#utility.yul\":3695:3700   */\n      dup4\n        /* \"#utility.yul\":3691:3707   */\n      add\n        /* \"#utility.yul\":3685:3708   */\n      mload\n        /* \"#utility.yul\":3721:3784   */\n      tag_235\n        /* \"#utility.yul\":3778:3782   */\n      0x40\n        /* \"#utility.yul\":3773:3776   */\n      dup7\n        /* \"#utility.yul\":3769:3783   */\n      add\n        /* \"#utility.yul\":3755:3767   */\n      dup3\n        /* \"#utility.yul\":3721:3784   */\n      tag_160\n      jump\t// in\n    tag_235:\n        /* \"#utility.yul\":3619:3794   */\n      pop\n        /* \"#utility.yul\":3878:3882   */\n      0x60\n        /* \"#utility.yul\":3871:3876   */\n      dup4\n        /* \"#utility.yul\":3867:3883   */\n      add\n        /* \"#utility.yul\":3861:3884   */\n      mload\n        /* \"#utility.yul\":3897:3954   */\n      tag_236\n        /* \"#utility.yul\":3948:3952   */\n      0x60\n        /* \"#utility.yul\":3943:3946   */\n      dup7\n        /* \"#utility.yul\":3939:3953   */\n      add\n        /* \"#utility.yul\":3925:3937   */\n      dup3\n        /* \"#utility.yul\":3897:3954   */\n      tag_162\n      jump\t// in\n    tag_236:\n        /* \"#utility.yul\":3804:3964   */\n      pop\n        /* \"#utility.yul\":3981:3985   */\n      dup1\n        /* \"#utility.yul\":3974:3985   */\n      swap2\n      pop\n        /* \"#utility.yul\":3149:3991   */\n      pop\n        /* \"#utility.yul\":3025:3991   */\n      swap3\n      swap2\n      pop\n      pop\n      jump\t// out\n        /* \"#utility.yul\":3997:4370   */\n    tag_26:\n        /* \"#utility.yul\":4140:4144   */\n      0x00\n        /* \"#utility.yul\":4178:4180   */\n      0x20\n        /* \"#utility.yul\":4167:4176   */\n      dup3\n        /* \"#utility.yul\":4163:4181   */\n      add\n        /* \"#utility.yul\":4155:4181   */\n      swap1\n      pop\n        /* \"#utility.yul\":4227:4236   */\n      dup2\n        /* \"#utility.yul\":4221:4225   */\n      dup2\n        /* \"#utility.yul\":4217:4237   */\n      sub\n        /* \"#utility.yul\":4213:4214   */\n      0x00\n        /* \"#utility.yul\":4202:4211   */\n      dup4\n        /* \"#utility.yul\":4198:4215   */\n      add\n        /* \"#utility.yul\":4191:4238   */\n      mstore\n        /* \"#utility.yul\":4255:4363   */\n      tag_238\n        /* \"#utility.yul\":4358:4362   */\n      dup2\n        /* \"#utility.yul\":4349:4355   */\n      dup5\n        /* \"#utility.yul\":4255:4363   */\n      tag_163\n      jump\t// in\n    tag_238:\n        /* \"#utility.yul\":4247:4363   */\n      swap1\n      pop\n        /* \"#utility.yul\":3997:4370   */\n      swap3\n      swap2\n      pop\n      pop\n      jump\t// out\n        /* \"#utility.yul\":4376:4485   */\n    tag_164:\n        /* \"#utility.yul\":4457:4478   */\n      tag_240\n        /* \"#utility.yul\":4472:4477   */\n      dup2\n        /* \"#utility.yul\":4457:4478   */\n      tag_161\n      jump\t// in\n    tag_240:\n        /* \"#utility.yul\":4452:4455   */\n      dup3\n        /* \"#utility.yul\":4445:4479   */\n      mstore\n        /* \"#utility.yul\":4376:4485   */\n      pop\n      pop\n      jump\t// out\n        /* \"#utility.yul\":4491:4701   */\n    tag_32:\n        /* \"#utility.yul\":4578:4582   */\n      0x00\n        /* \"#utility.yul\":4616:4618   */\n      0x20\n        /* \"#utility.yul\":4605:4614   */\n      dup3\n        /* \"#utility.yul\":4601:4619   */\n      add\n        /* \"#utility.yul\":4593:4619   */\n      swap1\n      pop\n        /* \"#utility.yul\":4629:4694   */\n      tag_242\n        /* \"#utility.yul\":4691:4692   */\n      0x00\n        /* \"#utility.yul\":4680:4689   */\n      dup4\n        /* \"#utility.yul\":4676:4693   */\n      add\n        /* \"#utility.yul\":4667:4673   */\n      dup5\n        /* \"#utility.yul\":4629:4694   */\n      tag_164\n      jump\t// in\n    tag_242:\n        /* \"#utility.yul\":4491:4701   */\n      swap3\n      swap2\n      pop\n      pop\n      jump\t// out\n        /* \"#utility.yul\":4707:4829   */\n    tag_165:\n        /* \"#utility.yul\":4780:4804   */\n      tag_244\n        /* \"#utility.yul\":4798:4803   */\n      dup2\n        /* \"#utility.yul\":4780:4804   */\n      tag_153\n      jump\t// in\n    tag_244:\n        /* \"#utility.yul\":4773:4778   */\n      dup2\n        /* \"#utility.yul\":4770:4805   */\n      eq\n        /* \"#utility.yul\":4760:4823   */\n      tag_245\n      jumpi\n        /* \"#utility.yul\":4819:4820   */\n      0x00\n        /* \"#utility.yul\":4816:4817   */\n      dup1\n        /* \"#utility.yul\":4809:4821   */\n      revert\n        /* \"#utility.yul\":4760:4823   */\n    tag_245:\n        /* \"#utility.yul\":4707:4829   */\n      pop\n      jump\t// out\n        /* \"#utility.yul\":4835:4974   */\n    tag_166:\n        /* \"#utility.yul\":4881:4886   */\n      0x00\n        /* \"#utility.yul\":4919:4925   */\n      dup2\n        /* \"#utility.yul\":4906:4926   */\n      calldataload\n        /* \"#utility.yul\":4897:4926   */\n      swap1\n      pop\n        /* \"#utility.yul\":4935:4968   */\n      tag_247\n        /* \"#utility.yul\":4962:4967   */\n      dup2\n        /* \"#utility.yul\":4935:4968   */\n      tag_165\n      jump\t// in\n    tag_247:\n        /* \"#utility.yul\":4835:4974   */\n      swap3\n      swap2\n      pop\n      pop\n      jump\t// out\n        /* \"#utility.yul\":4980:5309   */\n    tag_47:\n        /* \"#utility.yul\":5039:5045   */\n      0x00\n        /* \"#utility.yul\":5088:5090   */\n      0x20\n        /* \"#utility.yul\":5076:5085   */\n      dup3\n        /* \"#utility.yul\":5067:5074   */\n      dup5\n        /* \"#utility.yul\":5063:5086   */\n      sub\n        /* \"#utility.yul\":5059:5091   */\n      slt\n        /* \"#utility.yul\":5056:5175   */\n      iszero\n      tag_249\n      jumpi\n        /* \"#utility.yul\":5094:5173   */\n      tag_250\n      tag_147\n      jump\t// in\n    tag_250:\n        /* \"#utility.yul\":5056:5175   */\n    tag_249:\n        /* \"#utility.yul\":5214:5215   */\n      0x00\n        /* \"#utility.yul\":5239:5292   */\n      tag_251\n        /* \"#utility.yul\":5284:5291   */\n      dup5\n        /* \"#utility.yul\":5275:5281   */\n      dup3\n        /* \"#utility.yul\":5264:5273   */\n      dup6\n        /* \"#utility.yul\":5260:5282   */\n      add\n        /* \"#utility.yul\":5239:5292   */\n      tag_166\n      jump\t// in\n    tag_251:\n        /* \"#utility.yul\":5229:5292   */\n      swap2\n      pop\n        /* \"#utility.yul\":5185:5302   */\n      pop\n        /* \"#utility.yul\":4980:5309   */\n      swap3\n      swap2\n      pop\n      pop\n      jump\t// out\n        /* \"#utility.yul\":5315:5484   */\n    tag_167:\n        /* \"#utility.yul\":5399:5410   */\n      0x00\n        /* \"#utility.yul\":5433:5439   */\n      dup3\n        /* \"#utility.yul\":5428:5431   */\n      dup3\n        /* \"#utility.yul\":5421:5440   */\n      mstore\n        /* \"#utility.yul\":5473:5477   */\n      0x20\n        /* \"#utility.yul\":5468:5471   */\n      dup3\n        /* \"#utility.yul\":5464:5478   */\n      add\n        /* \"#utility.yul\":5449:5478   */\n      swap1\n      pop\n        /* \"#utility.yul\":5315:5484   */\n      swap3\n      swap2\n      pop\n      pop\n      jump\t// out\n        /* \"#utility.yul\":5490:5854   */\n    tag_168:\n        /* \"#utility.yul\":5578:5581   */\n      0x00\n        /* \"#utility.yul\":5606:5645   */\n      tag_254\n        /* \"#utility.yul\":5639:5644   */\n      dup3\n        /* \"#utility.yul\":5606:5645   */\n      tag_155\n      jump\t// in\n    tag_254:\n        /* \"#utility.yul\":5661:5732   */\n      tag_255\n        /* \"#utility.yul\":5725:5731   */\n      dup2\n        /* \"#utility.yul\":5720:5723   */\n      dup6\n        /* \"#utility.yul\":5661:5732   */\n      tag_167\n      jump\t// in\n    tag_255:\n        /* \"#utility.yul\":5654:5732   */\n      swap4\n      pop\n        /* \"#utility.yul\":5741:5793   */\n      tag_256\n        /* \"#utility.yul\":5786:5792   */\n      dup2\n        /* \"#utility.yul\":5781:5784   */\n      dup6\n        /* \"#utility.yul\":5774:5778   */\n      0x20\n        /* \"#utility.yul\":5767:5772   */\n      dup7\n        /* \"#utility.yul\":5763:5779   */\n      add\n        /* \"#utility.yul\":5741:5793   */\n      tag_157\n      jump\t// in\n    tag_256:\n        /* \"#utility.yul\":5818:5847   */\n      tag_257\n        /* \"#utility.yul\":5840:5846   */\n      dup2\n        /* \"#utility.yul\":5818:5847   */\n      tag_158\n      jump\t// in\n    tag_257:\n        /* \"#utility.yul\":5813:5816   */\n      dup5\n        /* \"#utility.yul\":5809:5848   */\n      add\n        /* \"#utility.yul\":5802:5848   */\n      swap2\n      pop\n        /* \"#utility.yul\":5582:5854   */\n      pop\n        /* \"#utility.yul\":5490:5854   */\n      swap3\n      swap2\n      pop\n      pop\n      jump\t// out\n        /* \"#utility.yul\":5860:6492   */\n    tag_56:\n        /* \"#utility.yul\":6051:6055   */\n      0x00\n        /* \"#utility.yul\":6089:6092   */\n      0x80\n        /* \"#utility.yul\":6078:6087   */\n      dup3\n        /* \"#utility.yul\":6074:6093   */\n      add\n        /* \"#utility.yul\":6066:6093   */\n      swap1\n      pop\n        /* \"#utility.yul\":6139:6148   */\n      dup2\n        /* \"#utility.yul\":6133:6137   */\n      dup2\n        /* \"#utility.yul\":6129:6149   */\n      sub\n        /* \"#utility.yul\":6125:6126   */\n      0x00\n        /* \"#utility.yul\":6114:6123   */\n      dup4\n        /* \"#utility.yul\":6110:6127   */\n      add\n        /* \"#utility.yul\":6103:6150   */\n      mstore\n        /* \"#utility.yul\":6167:6245   */\n      tag_259\n        /* \"#utility.yul\":6240:6244   */\n      dup2\n        /* \"#utility.yul\":6231:6237   */\n      dup8\n        /* \"#utility.yul\":6167:6245   */\n      tag_168\n      jump\t// in\n    tag_259:\n        /* \"#utility.yul\":6159:6245   */\n      swap1\n      pop\n        /* \"#utility.yul\":6255:6327   */\n      tag_260\n        /* \"#utility.yul\":6323:6325   */\n      0x20\n        /* \"#utility.yul\":6312:6321   */\n      dup4\n        /* \"#utility.yul\":6308:6326   */\n      add\n        /* \"#utility.yul\":6299:6305   */\n      dup7\n        /* \"#utility.yul\":6255:6327   */\n      tag_154\n      jump\t// in\n    tag_260:\n        /* \"#utility.yul\":6337:6409   */\n      tag_261\n        /* \"#utility.yul\":6405:6407   */\n      0x40\n        /* \"#utility.yul\":6394:6403   */\n      dup4\n        /* \"#utility.yul\":6390:6408   */\n      add\n        /* \"#utility.yul\":6381:6387   */\n      dup6\n        /* \"#utility.yul\":6337:6409   */\n      tag_154\n      jump\t// in\n    tag_261:\n        /* \"#utility.yul\":6419:6485   */\n      tag_262\n        /* \"#utility.yul\":6481:6483   */\n      0x60\n        /* \"#utility.yul\":6470:6479   */\n      dup4\n        /* \"#utility.yul\":6466:6484   */\n      add\n        /* \"#utility.yul\":6457:6463   */\n      dup5\n        /* \"#utility.yul\":6419:6485   */\n      tag_164\n      jump\t// in\n    tag_262:\n        /* \"#utility.yul\":5860:6492   */\n      swap6\n      swap5\n      pop\n      pop\n      pop\n      pop\n      pop\n      jump\t// out\n        /* \"#utility.yul\":6498:6615   */\n    tag_169:\n        /* \"#utility.yul\":6607:6608   */\n      0x00\n        /* \"#utility.yul\":6604:6605   */\n      dup1\n        /* \"#utility.yul\":6597:6609   */\n      revert\n        /* \"#utility.yul\":6621:6738   */\n    tag_170:\n        /* \"#utility.yul\":6730:6731   */\n      0x00\n        /* \"#utility.yul\":6727:6728   */\n      dup1\n        /* \"#utility.yul\":6720:6732   */\n      revert\n        /* \"#utility.yul\":6744:6924   */\n    tag_171:\n        /* \"#utility.yul\":6792:6869   */\n      0x4e487b7100000000000000000000000000000000000000000000000000000000\n        /* \"#utility.yul\":6789:6790   */\n      0x00\n        /* \"#utility.yul\":6782:6870   */\n      mstore\n        /* \"#utility.yul\":6889:6893   */\n      0x41\n        /* \"#utility.yul\":6886:6887   */\n      0x04\n        /* \"#utility.yul\":6879:6894   */\n      mstore\n        /* \"#utility.yul\":6913:6917   */\n      0x24\n        /* \"#utility.yul\":6910:6911   */\n      0x00\n        /* \"#utility.yul\":6903:6918   */\n      revert\n        /* \"#utility.yul\":6930:7211   */\n    tag_172:\n        /* \"#utility.yul\":7013:7040   */\n      tag_267\n        /* \"#utility.yul\":7035:7039   */\n      dup3\n        /* \"#utility.yul\":7013:7040   */\n      tag_158\n      jump\t// in\n    tag_267:\n        /* \"#utility.yul\":7005:7011   */\n      dup2\n        /* \"#utility.yul\":7001:7041   */\n      add\n        /* \"#utility.yul\":7143:7149   */\n      dup2\n        /* \"#utility.yul\":7131:7141   */\n      dup2\n        /* \"#utility.yul\":7128:7150   */\n      lt\n        /* \"#utility.yul\":7107:7125   */\n      0xffffffffffffffff\n        /* \"#utility.yul\":7095:7105   */\n      dup3\n        /* \"#utility.yul\":7092:7126   */\n      gt\n        /* \"#utility.yul\":7089:7151   */\n      or\n        /* \"#utility.yul\":7086:7174   */\n      iszero\n      tag_268\n      jumpi\n        /* \"#utility.yul\":7154:7172   */\n      tag_269\n      tag_171\n      jump\t// in\n    tag_269:\n        /* \"#utility.yul\":7086:7174   */\n    tag_268:\n        /* \"#utility.yul\":7194:7204   */\n      dup1\n        /* \"#utility.yul\":7190:7192   */\n      0x40\n        /* \"#utility.yul\":7183:7205   */\n      mstore\n        /* \"#utility.yul\":6973:7211   */\n      pop\n        /* \"#utility.yul\":6930:7211   */\n      pop\n      pop\n      jump\t// out\n        /* \"#utility.yul\":7217:7346   */\n    tag_173:\n        /* \"#utility.yul\":7251:7257   */\n      0x00\n        /* \"#utility.yul\":7278:7298   */\n      tag_271\n      tag_146\n      jump\t// in\n    tag_271:\n        /* \"#utility.yul\":7268:7298   */\n      swap1\n      pop\n        /* \"#utility.yul\":7307:7340   */\n      tag_272\n        /* \"#utility.yul\":7335:7339   */\n      dup3\n        /* \"#utility.yul\":7327:7333   */\n      dup3\n        /* \"#utility.yul\":7307:7340   */\n      tag_172\n      jump\t// in\n    tag_272:\n        /* \"#utility.yul\":7217:7346   */\n      swap2\n      swap1\n      pop\n      jump\t// out\n        /* \"#utility.yul\":7352:7660   */\n    tag_174:\n        /* \"#utility.yul\":7414:7418   */\n      0x00\n        /* \"#utility.yul\":7504:7522   */\n      0xffffffffffffffff\n        /* \"#utility.yul\":7496:7502   */\n      dup3\n        /* \"#utility.yul\":7493:7523   */\n      gt\n        /* \"#utility.yul\":7490:7546   */\n      iszero\n      tag_274\n      jumpi\n        /* \"#utility.yul\":7526:7544   */\n      tag_275\n      tag_171\n      jump\t// in\n    tag_275:\n        /* \"#utility.yul\":7490:7546   */\n    tag_274:\n        /* \"#utility.yul\":7564:7593   */\n      tag_276\n        /* \"#utility.yul\":7586:7592   */\n      dup3\n        /* \"#utility.yul\":7564:7593   */\n      tag_158\n      jump\t// in\n    tag_276:\n        /* \"#utility.yul\":7556:7593   */\n      swap1\n      pop\n        /* \"#utility.yul\":7648:7652   */\n      0x20\n        /* \"#utility.yul\":7642:7646   */\n      dup2\n        /* \"#utility.yul\":7638:7653   */\n      add\n        /* \"#utility.yul\":7630:7653   */\n      swap1\n      pop\n        /* \"#utility.yul\":7352:7660   */\n      swap2\n      swap1\n      pop\n      jump\t// out\n        /* \"#utility.yul\":7666:7820   */\n    tag_175:\n        /* \"#utility.yul\":7750:7756   */\n      dup3\n        /* \"#utility.yul\":7745:7748   */\n      dup2\n        /* \"#utility.yul\":7740:7743   */\n      dup4\n        /* \"#utility.yul\":7727:7757   */\n      calldatacopy\n        /* \"#utility.yul\":7812:7813   */\n      0x00\n        /* \"#utility.yul\":7803:7809   */\n      dup4\n        /* \"#utility.yul\":7798:7801   */\n      dup4\n        /* \"#utility.yul\":7794:7810   */\n      add\n        /* \"#utility.yul\":7787:7814   */\n      mstore\n        /* \"#utility.yul\":7666:7820   */\n      pop\n      pop\n      pop\n      jump\t// out\n        /* \"#utility.yul\":7826:8238   */\n    tag_176:\n        /* \"#utility.yul\":7904:7909   */\n      0x00\n        /* \"#utility.yul\":7929:7995   */\n      tag_279\n        /* \"#utility.yul\":7945:7994   */\n      tag_280\n        /* \"#utility.yul\":7987:7993   */\n      dup5\n        /* \"#utility.yul\":7945:7994   */\n      tag_174\n      jump\t// in\n    tag_280:\n        /* \"#utility.yul\":7929:7995   */\n      tag_173\n      jump\t// in\n    tag_279:\n        /* \"#utility.yul\":7920:7995   */\n      swap1\n      pop\n        /* \"#utility.yul\":8018:8024   */\n      dup3\n        /* \"#utility.yul\":8011:8016   */\n      dup2\n        /* \"#utility.yul\":8004:8025   */\n      mstore\n        /* \"#utility.yul\":8056:8060   */\n      0x20\n        /* \"#utility.yul\":8049:8054   */\n      dup2\n        /* \"#utility.yul\":8045:8061   */\n      add\n        /* \"#utility.yul\":8094:8097   */\n      dup5\n        /* \"#utility.yul\":8085:8091   */\n      dup5\n        /* \"#utility.yul\":8080:8083   */\n      dup5\n        /* \"#utility.yul\":8076:8092   */\n      add\n        /* \"#utility.yul\":8073:8098   */\n      gt\n        /* \"#utility.yul\":8070:8182   */\n      iszero\n      tag_281\n      jumpi\n        /* \"#utility.yul\":8101:8180   */\n      tag_282\n      tag_170\n      jump\t// in\n    tag_282:\n        /* \"#utility.yul\":8070:8182   */\n    tag_281:\n        /* \"#utility.yul\":8191:8232   */\n      tag_283\n        /* \"#utility.yul\":8225:8231   */\n      dup5\n        /* \"#utility.yul\":8220:8223   */\n      dup3\n        /* \"#utility.yul\":8215:8218   */\n      dup6\n        /* \"#utility.yul\":8191:8232   */\n      tag_175\n      jump\t// in\n    tag_283:\n        /* \"#utility.yul\":7910:8238   */\n      pop\n        /* \"#utility.yul\":7826:8238   */\n      swap4\n      swap3\n      pop\n      pop\n      pop\n      jump\t// out\n        /* \"#utility.yul\":8258:8598   */\n    tag_177:\n        /* \"#utility.yul\":8314:8319   */\n      0x00\n        /* \"#utility.yul\":8363:8366   */\n      dup3\n        /* \"#utility.yul\":8356:8360   */\n      0x1f\n        /* \"#utility.yul\":8348:8354   */\n      dup4\n        /* \"#utility.yul\":8344:8361   */\n      add\n        /* \"#utility.yul\":8340:8367   */\n      slt\n        /* \"#utility.yul\":8330:8452   */\n      tag_285\n      jumpi\n        /* \"#utility.yul\":8371:8450   */\n      tag_286\n      tag_169\n      jump\t// in\n    tag_286:\n        /* \"#utility.yul\":8330:8452   */\n    tag_285:\n        /* \"#utility.yul\":8488:8494   */\n      dup2\n        /* \"#utility.yul\":8475:8495   */\n      calldataload\n        /* \"#utility.yul\":8513:8592   */\n      tag_287\n        /* \"#utility.yul\":8588:8591   */\n      dup5\n        /* \"#utility.yul\":8580:8586   */\n      dup3\n        /* \"#utility.yul\":8573:8577   */\n      0x20\n        /* \"#utility.yul\":8565:8571   */\n      dup7\n        /* \"#utility.yul\":8561:8578   */\n      add\n        /* \"#utility.yul\":8513:8592   */\n      tag_176\n      jump\t// in\n    tag_287:\n        /* \"#utility.yul\":8504:8592   */\n      swap2\n      pop\n        /* \"#utility.yul\":8320:8598   */\n      pop\n        /* \"#utility.yul\":8258:8598   */\n      swap3\n      swap2\n      pop\n      pop\n      jump\t// out\n        /* \"#utility.yul\":8604:9258   */\n    tag_60:\n        /* \"#utility.yul\":8682:8688   */\n      0x00\n        /* \"#utility.yul\":8690:8696   */\n      dup1\n        /* \"#utility.yul\":8739:8741   */\n      0x40\n        /* \"#utility.yul\":8727:8736   */\n      dup4\n        /* \"#utility.yul\":8718:8725   */\n      dup6\n        /* \"#utility.yul\":8714:8737   */\n      sub\n        /* \"#utility.yul\":8710:8742   */\n      slt\n        /* \"#utility.yul\":8707:8826   */\n      iszero\n      tag_289\n      jumpi\n        /* \"#utility.yul\":8745:8824   */\n      tag_290\n      tag_147\n      jump\t// in\n    tag_290:\n        /* \"#utility.yul\":8707:8826   */\n    tag_289:\n        /* \"#utility.yul\":8893:8894   */\n      0x00\n        /* \"#utility.yul\":8882:8891   */\n      dup4\n        /* \"#utility.yul\":8878:8895   */\n      add\n        /* \"#utility.yul\":8865:8896   */\n      calldataload\n        /* \"#utility.yul\":8923:8941   */\n      0xffffffffffffffff\n        /* \"#utility.yul\":8915:8921   */\n      dup2\n        /* \"#utility.yul\":8912:8942   */\n      gt\n        /* \"#utility.yul\":8909:9026   */\n      iszero\n      tag_291\n      jumpi\n        /* \"#utility.yul\":8945:9024   */\n      tag_292\n      tag_148\n      jump\t// in\n    tag_292:\n        /* \"#utility.yul\":8909:9026   */\n    tag_291:\n        /* \"#utility.yul\":9050:9113   */\n      tag_293\n        /* \"#utility.yul\":9105:9112   */\n      dup6\n        /* \"#utility.yul\":9096:9102   */\n      dup3\n        /* \"#utility.yul\":9085:9094   */\n      dup7\n        /* \"#utility.yul\":9081:9103   */\n      add\n        /* \"#utility.yul\":9050:9113   */\n      tag_177\n      jump\t// in\n    tag_293:\n        /* \"#utility.yul\":9040:9113   */\n      swap3\n      pop\n        /* \"#utility.yul\":8836:9123   */\n      pop\n        /* \"#utility.yul\":9162:9164   */\n      0x20\n        /* \"#utility.yul\":9188:9241   */\n      tag_294\n        /* \"#utility.yul\":9233:9240   */\n      dup6\n        /* \"#utility.yul\":9224:9230   */\n      dup3\n        /* \"#utility.yul\":9213:9222   */\n      dup7\n        /* \"#utility.yul\":9209:9231   */\n      add\n        /* \"#utility.yul\":9188:9241   */\n      tag_166\n      jump\t// in\n    tag_294:\n        /* \"#utility.yul\":9178:9241   */\n      swap2\n      pop\n        /* \"#utility.yul\":9133:9251   */\n      pop\n        /* \"#utility.yul\":8604:9258   */\n      swap3\n      pop\n      swap3\n      swap1\n      pop\n      jump\t// out\n        /* \"#utility.yul\":9264:9444   */\n    tag_178:\n        /* \"#utility.yul\":9312:9389   */\n      0x4e487b7100000000000000000000000000000000000000000000000000000000\n        /* \"#utility.yul\":9309:9310   */\n      0x00\n        /* \"#utility.yul\":9302:9390   */\n      mstore\n        /* \"#utility.yul\":9409:9413   */\n      0x22\n        /* \"#utility.yul\":9406:9407   */\n      0x04\n        /* \"#utility.yul\":9399:9414   */\n      mstore\n        /* \"#utility.yul\":9433:9437   */\n      0x24\n        /* \"#utility.yul\":9430:9431   */\n      0x00\n        /* \"#utility.yul\":9423:9438   */\n      revert\n        /* \"#utility.yul\":9450:9770   */\n    tag_72:\n        /* \"#utility.yul\":9494:9500   */\n      0x00\n        /* \"#utility.yul\":9531:9532   */\n      0x02\n        /* \"#utility.yul\":9525:9529   */\n      dup3\n        /* \"#utility.yul\":9521:9533   */\n      div\n        /* \"#utility.yul\":9511:9533   */\n      swap1\n      pop\n        /* \"#utility.yul\":9578:9579   */\n      0x01\n        /* \"#utility.yul\":9572:9576   */\n      dup3\n        /* \"#utility.yul\":9568:9580   */\n      and\n        /* \"#utility.yul\":9599:9617   */\n      dup1\n        /* \"#utility.yul\":9589:9670   */\n      tag_297\n      jumpi\n        /* \"#utility.yul\":9655:9659   */\n      0x7f\n        /* \"#utility.yul\":9647:9653   */\n      dup3\n        /* \"#utility.yul\":9643:9660   */\n      and\n        /* \"#utility.yul\":9633:9660   */\n      swap2\n      pop\n        /* \"#utility.yul\":9589:9670   */\n    tag_297:\n        /* \"#utility.yul\":9717:9719   */\n      0x20\n        /* \"#utility.yul\":9709:9715   */\n      dup3\n        /* \"#utility.yul\":9706:9720   */\n      lt\n        /* \"#utility.yul\":9686:9704   */\n      dup2\n        /* \"#utility.yul\":9683:9721   */\n      eq\n        /* \"#utility.yul\":9680:9764   */\n      iszero\n      tag_298\n      jumpi\n        /* \"#utility.yul\":9736:9754   */\n      tag_299\n      tag_178\n      jump\t// in\n    tag_299:\n        /* \"#utility.yul\":9680:9764   */\n    tag_298:\n        /* \"#utility.yul\":9501:9770   */\n      pop\n        /* \"#utility.yul\":9450:9770   */\n      swap2\n      swap1\n      pop\n      jump\t// out\n        /* \"#utility.yul\":9776:9952   */\n    tag_179:\n        /* \"#utility.yul\":9916:9944   */\n      0x796f752063616e2774207472616e7366657220302076616c7565000000000000\n        /* \"#utility.yul\":9912:9913   */\n      0x00\n        /* \"#utility.yul\":9904:9910   */\n      dup3\n        /* \"#utility.yul\":9900:9914   */\n      add\n        /* \"#utility.yul\":9893:9945   */\n      mstore\n        /* \"#utility.yul\":9776:9952   */\n      pop\n      jump\t// out\n        /* \"#utility.yul\":9958:10324   */\n    tag_180:\n        /* \"#utility.yul\":10100:10103   */\n      0x00\n        /* \"#utility.yul\":10121:10188   */\n      tag_302\n        /* \"#utility.yul\":10185:10187   */\n      0x1a\n        /* \"#utility.yul\":10180:10183   */\n      dup4\n        /* \"#utility.yul\":10121:10188   */\n      tag_167\n      jump\t// in\n    tag_302:\n        /* \"#utility.yul\":10114:10188   */\n      swap2\n      pop\n        /* \"#utility.yul\":10197:10290   */\n      tag_303\n        /* \"#utility.yul\":10286:10289   */\n      dup3\n        /* \"#utility.yul\":10197:10290   */\n      tag_179\n      jump\t// in\n    tag_303:\n        /* \"#utility.yul\":10315:10317   */\n      0x20\n        /* \"#utility.yul\":10310:10313   */\n      dup3\n        /* \"#utility.yul\":10306:10318   */\n      add\n        /* \"#utility.yul\":10299:10318   */\n      swap1\n      pop\n        /* \"#utility.yul\":9958:10324   */\n      swap2\n      swap1\n      pop\n      jump\t// out\n        /* \"#utility.yul\":10330:10749   */\n    tag_87:\n        /* \"#utility.yul\":10496:10500   */\n      0x00\n        /* \"#utility.yul\":10534:10536   */\n      0x20\n        /* \"#utility.yul\":10523:10532   */\n      dup3\n        /* \"#utility.yul\":10519:10537   */\n      add\n        /* \"#utility.yul\":10511:10537   */\n      swap1\n      pop\n        /* \"#utility.yul\":10583:10592   */\n      dup2\n        /* \"#utility.yul\":10577:10581   */\n      dup2\n        /* \"#utility.yul\":10573:10593   */\n      sub\n        /* \"#utility.yul\":10569:10570   */\n      0x00\n        /* \"#utility.yul\":10558:10567   */\n      dup4\n        /* \"#utility.yul\":10554:10571   */\n      add\n        /* \"#utility.yul\":10547:10594   */\n      mstore\n        /* \"#utility.yul\":10611:10742   */\n      tag_305\n        /* \"#utility.yul\":10737:10741   */\n      dup2\n        /* \"#utility.yul\":10611:10742   */\n      tag_180\n      jump\t// in\n    tag_305:\n        /* \"#utility.yul\":10603:10742   */\n      swap1\n      pop\n        /* \"#utility.yul\":10330:10749   */\n      swap2\n      swap1\n      pop\n      jump\t// out\n        /* \"#utility.yul\":10755:10978   */\n    tag_181:\n        /* \"#utility.yul\":10895:10929   */\n      0x7468697320646f6e6174696f6e206973206e6f206c6f6e67657220617661696c\n        /* \"#utility.yul\":10891:10892   */\n      0x00\n        /* \"#utility.yul\":10883:10889   */\n      dup3\n        /* \"#utility.yul\":10879:10893   */\n      add\n        /* \"#utility.yul\":10872:10930   */\n      mstore\n        /* \"#utility.yul\":10964:10970   */\n      0x61626c6500000000000000000000000000000000000000000000000000000000\n        /* \"#utility.yul\":10959:10961   */\n      0x20\n        /* \"#utility.yul\":10951:10957   */\n      dup3\n        /* \"#utility.yul\":10947:10962   */\n      add\n        /* \"#utility.yul\":10940:10971   */\n      mstore\n        /* \"#utility.yul\":10755:10978   */\n      pop\n      jump\t// out\n        /* \"#utility.yul\":10984:11350   */\n    tag_182:\n        /* \"#utility.yul\":11126:11129   */\n      0x00\n        /* \"#utility.yul\":11147:11214   */\n      tag_308\n        /* \"#utility.yul\":11211:11213   */\n      0x24\n        /* \"#utility.yul\":11206:11209   */\n      dup4\n        /* \"#utility.yul\":11147:11214   */\n      tag_167\n      jump\t// in\n    tag_308:\n        /* \"#utility.yul\":11140:11214   */\n      swap2\n      pop\n        /* \"#utility.yul\":11223:11316   */\n      tag_309\n        /* \"#utility.yul\":11312:11315   */\n      dup3\n        /* \"#utility.yul\":11223:11316   */\n      tag_181\n      jump\t// in\n    tag_309:\n        /* \"#utility.yul\":11341:11343   */\n      0x40\n        /* \"#utility.yul\":11336:11339   */\n      dup3\n        /* \"#utility.yul\":11332:11344   */\n      add\n        /* \"#utility.yul\":11325:11344   */\n      swap1\n      pop\n        /* \"#utility.yul\":10984:11350   */\n      swap2\n      swap1\n      pop\n      jump\t// out\n        /* \"#utility.yul\":11356:11775   */\n    tag_90:\n        /* \"#utility.yul\":11522:11526   */\n      0x00\n        /* \"#utility.yul\":11560:11562   */\n      0x20\n        /* \"#utility.yul\":11549:11558   */\n      dup3\n        /* \"#utility.yul\":11545:11563   */\n      add\n        /* \"#utility.yul\":11537:11563   */\n      swap1\n      pop\n        /* \"#utility.yul\":11609:11618   */\n      dup2\n        /* \"#utility.yul\":11603:11607   */\n      dup2\n        /* \"#utility.yul\":11599:11619   */\n      sub\n        /* \"#utility.yul\":11595:11596   */\n      0x00\n        /* \"#utility.yul\":11584:11593   */\n      dup4\n        /* \"#utility.yul\":11580:11597   */\n      add\n        /* \"#utility.yul\":11573:11620   */\n      mstore\n        /* \"#utility.yul\":11637:11768   */\n      tag_311\n        /* \"#utility.yul\":11763:11767   */\n      dup2\n        /* \"#utility.yul\":11637:11768   */\n      tag_182\n      jump\t// in\n    tag_311:\n        /* \"#utility.yul\":11629:11768   */\n      swap1\n      pop\n        /* \"#utility.yul\":11356:11775   */\n      swap2\n      swap1\n      pop\n      jump\t// out\n        /* \"#utility.yul\":11781:11960   */\n    tag_183:\n        /* \"#utility.yul\":11921:11952   */\n      0x74617267657420726561636865616420666f7220746869732066756e64000000\n        /* \"#utility.yul\":11917:11918   */\n      0x00\n        /* \"#utility.yul\":11909:11915   */\n      dup3\n        /* \"#utility.yul\":11905:11919   */\n      add\n        /* \"#utility.yul\":11898:11953   */\n      mstore\n        /* \"#utility.yul\":11781:11960   */\n      pop\n      jump\t// out\n        /* \"#utility.yul\":11966:12332   */\n    tag_184:\n        /* \"#utility.yul\":12108:12111   */\n      0x00\n        /* \"#utility.yul\":12129:12196   */\n      tag_314\n        /* \"#utility.yul\":12193:12195   */\n      0x1d\n        /* \"#utility.yul\":12188:12191   */\n      dup4\n        /* \"#utility.yul\":12129:12196   */\n      tag_167\n      jump\t// in\n    tag_314:\n        /* \"#utility.yul\":12122:12196   */\n      swap2\n      pop\n        /* \"#utility.yul\":12205:12298   */\n      tag_315\n        /* \"#utility.yul\":12294:12297   */\n      dup3\n        /* \"#utility.yul\":12205:12298   */\n      tag_183\n      jump\t// in\n    tag_315:\n        /* \"#utility.yul\":12323:12325   */\n      0x20\n        /* \"#utility.yul\":12318:12321   */\n      dup3\n        /* \"#utility.yul\":12314:12326   */\n      add\n        /* \"#utility.yul\":12307:12326   */\n      swap1\n      pop\n        /* \"#utility.yul\":11966:12332   */\n      swap2\n      swap1\n      pop\n      jump\t// out\n        /* \"#utility.yul\":12338:12757   */\n    tag_93:\n        /* \"#utility.yul\":12504:12508   */\n      0x00\n        /* \"#utility.yul\":12542:12544   */\n      0x20\n        /* \"#utility.yul\":12531:12540   */\n      dup3\n        /* \"#utility.yul\":12527:12545   */\n      add\n        /* \"#utility.yul\":12519:12545   */\n      swap1\n      pop\n        /* \"#utility.yul\":12591:12600   */\n      dup2\n        /* \"#utility.yul\":12585:12589   */\n      dup2\n        /* \"#utility.yul\":12581:12601   */\n      sub\n        /* \"#utility.yul\":12577:12578   */\n      0x00\n        /* \"#utility.yul\":12566:12575   */\n      dup4\n        /* \"#utility.yul\":12562:12579   */\n      add\n        /* \"#utility.yul\":12555:12602   */\n      mstore\n        /* \"#utility.yul\":12619:12750   */\n      tag_317\n        /* \"#utility.yul\":12745:12749   */\n      dup2\n        /* \"#utility.yul\":12619:12750   */\n      tag_184\n      jump\t// in\n    tag_317:\n        /* \"#utility.yul\":12611:12750   */\n      swap1\n      pop\n        /* \"#utility.yul\":12338:12757   */\n      swap2\n      swap1\n      pop\n      jump\t// out\n        /* \"#utility.yul\":12763:12943   */\n    tag_185:\n        /* \"#utility.yul\":12811:12888   */\n      0x4e487b7100000000000000000000000000000000000000000000000000000000\n        /* \"#utility.yul\":12808:12809   */\n      0x00\n        /* \"#utility.yul\":12801:12889   */\n      mstore\n        /* \"#utility.yul\":12908:12912   */\n      0x11\n        /* \"#utility.yul\":12905:12906   */\n      0x04\n        /* \"#utility.yul\":12898:12913   */\n      mstore\n        /* \"#utility.yul\":12932:12936   */\n      0x24\n        /* \"#utility.yul\":12929:12930   */\n      0x00\n        /* \"#utility.yul\":12922:12937   */\n      revert\n        /* \"#utility.yul\":12949:13254   */\n    tag_95:\n        /* \"#utility.yul\":12989:12992   */\n      0x00\n        /* \"#utility.yul\":13008:13028   */\n      tag_320\n        /* \"#utility.yul\":13026:13027   */\n      dup3\n        /* \"#utility.yul\":13008:13028   */\n      tag_153\n      jump\t// in\n    tag_320:\n        /* \"#utility.yul\":13003:13028   */\n      swap2\n      pop\n        /* \"#utility.yul\":13042:13062   */\n      tag_321\n        /* \"#utility.yul\":13060:13061   */\n      dup4\n        /* \"#utility.yul\":13042:13062   */\n      tag_153\n      jump\t// in\n    tag_321:\n        /* \"#utility.yul\":13037:13062   */\n      swap3\n      pop\n        /* \"#utility.yul\":13196:13197   */\n      dup3\n        /* \"#utility.yul\":13128:13194   */\n      0xffffffffffffffffffffffffffffffffffffffffffffffffffffffffffffffff\n        /* \"#utility.yul\":13124:13198   */\n      sub\n        /* \"#utility.yul\":13121:13122   */\n      dup3\n        /* \"#utility.yul\":13118:13199   */\n      gt\n        /* \"#utility.yul\":13115:13222   */\n      iszero\n      tag_322\n      jumpi\n        /* \"#utility.yul\":13202:13220   */\n      tag_323\n      tag_185\n      jump\t// in\n    tag_323:\n        /* \"#utility.yul\":13115:13222   */\n    tag_322:\n        /* \"#utility.yul\":13246:13247   */\n      dup3\n        /* \"#utility.yul\":13243:13244   */\n      dup3\n        /* \"#utility.yul\":13239:13248   */\n      add\n        /* \"#utility.yul\":13232:13248   */\n      swap1\n      pop\n        /* \"#utility.yul\":12949:13254   */\n      swap3\n      swap2\n      pop\n      pop\n      jump\t// out\n        /* \"#utility.yul\":13260:13378   */\n    tag_186:\n        /* \"#utility.yul\":13347:13371   */\n      tag_325\n        /* \"#utility.yul\":13365:13370   */\n      dup2\n        /* \"#utility.yul\":13347:13371   */\n      tag_150\n      jump\t// in\n    tag_325:\n        /* \"#utility.yul\":13342:13345   */\n      dup3\n        /* \"#utility.yul\":13335:13372   */\n      mstore\n        /* \"#utility.yul\":13260:13378   */\n      pop\n      pop\n      jump\t// out\n        /* \"#utility.yul\":13384:13826   */\n    tag_98:\n        /* \"#utility.yul\":13533:13537   */\n      0x00\n        /* \"#utility.yul\":13571:13573   */\n      0x60\n        /* \"#utility.yul\":13560:13569   */\n      dup3\n        /* \"#utility.yul\":13556:13574   */\n      add\n        /* \"#utility.yul\":13548:13574   */\n      swap1\n      pop\n        /* \"#utility.yul\":13584:13655   */\n      tag_327\n        /* \"#utility.yul\":13652:13653   */\n      0x00\n        /* \"#utility.yul\":13641:13650   */\n      dup4\n        /* \"#utility.yul\":13637:13654   */\n      add\n        /* \"#utility.yul\":13628:13634   */\n      dup7\n        /* \"#utility.yul\":13584:13655   */\n      tag_186\n      jump\t// in\n    tag_327:\n        /* \"#utility.yul\":13665:13737   */\n      tag_328\n        /* \"#utility.yul\":13733:13735   */\n      0x20\n        /* \"#utility.yul\":13722:13731   */\n      dup4\n        /* \"#utility.yul\":13718:13736   */\n      add\n        /* \"#utility.yul\":13709:13715   */\n      dup6\n        /* \"#utility.yul\":13665:13737   */\n      tag_186\n      jump\t// in\n    tag_328:\n        /* \"#utility.yul\":13747:13819   */\n      tag_329\n        /* \"#utility.yul\":13815:13817   */\n      0x40\n        /* \"#utility.yul\":13804:13813   */\n      dup4\n        /* \"#utility.yul\":13800:13818   */\n      add\n        /* \"#utility.yul\":13791:13797   */\n      dup5\n        /* \"#utility.yul\":13747:13819   */\n      tag_154\n      jump\t// in\n    tag_329:\n        /* \"#utility.yul\":13384:13826   */\n      swap5\n      swap4\n      pop\n      pop\n      pop\n      pop\n      jump\t// out\n        /* \"#utility.yul\":13832:14006   */\n    tag_187:\n        /* \"#utility.yul\":13972:13998   */\n      0x4e6f207265717565737420666f722066756e64206d6164650000000000000000\n        /* \"#utility.yul\":13968:13969   */\n      0x00\n        /* \"#utility.yul\":13960:13966   */\n      dup3\n        /* \"#utility.yul\":13956:13970   */\n      add\n        /* \"#utility.yul\":13949:13999   */\n      mstore\n        /* \"#utility.yul\":13832:14006   */\n      pop\n      jump\t// out\n        /* \"#utility.yul\":14012:14378   */\n    tag_188:\n        /* \"#utility.yul\":14154:14157   */\n      0x00\n        /* \"#utility.yul\":14175:14242   */\n      tag_332\n        /* \"#utility.yul\":14239:14241   */\n      0x18\n        /* \"#utility.yul\":14234:14237   */\n      dup4\n        /* \"#utility.yul\":14175:14242   */\n      tag_167\n      jump\t// in\n    tag_332:\n        /* \"#utility.yul\":14168:14242   */\n      swap2\n      pop\n        /* \"#utility.yul\":14251:14344   */\n      tag_333\n        /* \"#utility.yul\":14340:14343   */\n      dup3\n        /* \"#utility.yul\":14251:14344   */\n      tag_187\n      jump\t// in\n    tag_333:\n        /* \"#utility.yul\":14369:14371   */\n      0x20\n        /* \"#utility.yul\":14364:14367   */\n      dup3\n        /* \"#utility.yul\":14360:14372   */\n      add\n        /* \"#utility.yul\":14353:14372   */\n      swap1\n      pop\n        /* \"#utility.yul\":14012:14378   */\n      swap2\n      swap1\n      pop\n      jump\t// out\n        /* \"#utility.yul\":14384:14803   */\n    tag_103:\n        /* \"#utility.yul\":14550:14554   */\n      0x00\n        /* \"#utility.yul\":14588:14590   */\n      0x20\n        /* \"#utility.yul\":14577:14586   */\n      dup3\n        /* \"#utility.yul\":14573:14591   */\n      add\n        /* \"#utility.yul\":14565:14591   */\n      swap1\n      pop\n        /* \"#utility.yul\":14637:14646   */\n      dup2\n        /* \"#utility.yul\":14631:14635   */\n      dup2\n        /* \"#utility.yul\":14627:14647   */\n      sub\n        /* \"#utility.yul\":14623:14624   */\n      0x00\n        /* \"#utility.yul\":14612:14621   */\n      dup4\n        /* \"#utility.yul\":14608:14625   */\n      add\n        /* \"#utility.yul\":14601:14648   */\n      mstore\n        /* \"#utility.yul\":14665:14796   */\n      tag_335\n        /* \"#utility.yul\":14791:14795   */\n      dup2\n        /* \"#utility.yul\":14665:14796   */\n      tag_188\n      jump\t// in\n    tag_335:\n        /* \"#utility.yul\":14657:14796   */\n      swap1\n      pop\n        /* \"#utility.yul\":14384:14803   */\n      swap2\n      swap1\n      pop\n      jump\t// out\n        /* \"#utility.yul\":14809:14977   */\n    tag_189:\n        /* \"#utility.yul\":14949:14969   */\n      0x696e73756666696369656e742066756e64730000000000000000000000000000\n        /* \"#utility.yul\":14945:14946   */\n      0x00\n        /* \"#utility.yul\":14937:14943   */\n      dup3\n        /* \"#utility.yul\":14933:14947   */\n      add\n        /* \"#utility.yul\":14926:14970   */\n      mstore\n        /* \"#utility.yul\":14809:14977   */\n      pop\n      jump\t// out\n        /* \"#utility.yul\":14983:15349   */\n    tag_190:\n        /* \"#utility.yul\":15125:15128   */\n      0x00\n        /* \"#utility.yul\":15146:15213   */\n      tag_338\n        /* \"#utility.yul\":15210:15212   */\n      0x12\n        /* \"#utility.yul\":15205:15208   */\n      dup4\n        /* \"#utility.yul\":15146:15213   */\n      tag_167\n      jump\t// in\n    tag_338:\n        /* \"#utility.yul\":15139:15213   */\n      swap2\n      pop\n        /* \"#utility.yul\":15222:15315   */\n      tag_339\n        /* \"#utility.yul\":15311:15314   */\n      dup3\n        /* \"#utility.yul\":15222:15315   */\n      tag_189\n      jump\t// in\n    tag_339:\n        /* \"#utility.yul\":15340:15342   */\n      0x20\n        /* \"#utility.yul\":15335:15338   */\n      dup3\n        /* \"#utility.yul\":15331:15343   */\n      add\n        /* \"#utility.yul\":15324:15343   */\n      swap1\n      pop\n        /* \"#utility.yul\":14983:15349   */\n      swap2\n      swap1\n      pop\n      jump\t// out\n        /* \"#utility.yul\":15355:15774   */\n    tag_106:\n        /* \"#utility.yul\":15521:15525   */\n      0x00\n        /* \"#utility.yul\":15559:15561   */\n      0x20\n        /* \"#utility.yul\":15548:15557   */\n      dup3\n        /* \"#utility.yul\":15544:15562   */\n      add\n        /* \"#utility.yul\":15536:15562   */\n      swap1\n      pop\n        /* \"#utility.yul\":15608:15617   */\n      dup2\n        /* \"#utility.yul\":15602:15606   */\n      dup2\n        /* \"#utility.yul\":15598:15618   */\n      sub\n        /* \"#utility.yul\":15594:15595   */\n      0x00\n        /* \"#utility.yul\":15583:15592   */\n      dup4\n        /* \"#utility.yul\":15579:15596   */\n      add\n        /* \"#utility.yul\":15572:15619   */\n      mstore\n        /* \"#utility.yul\":15636:15767   */\n      tag_341\n        /* \"#utility.yul\":15762:15766   */\n      dup2\n        /* \"#utility.yul\":15636:15767   */\n      tag_190\n      jump\t// in\n    tag_341:\n        /* \"#utility.yul\":15628:15767   */\n      swap1\n      pop\n        /* \"#utility.yul\":15355:15774   */\n      swap2\n      swap1\n      pop\n      jump\t// out\n        /* \"#utility.yul\":15780:15971   */\n    tag_108:\n        /* \"#utility.yul\":15820:15824   */\n      0x00\n        /* \"#utility.yul\":15840:15860   */\n      tag_343\n        /* \"#utility.yul\":15858:15859   */\n      dup3\n        /* \"#utility.yul\":15840:15860   */\n      tag_153\n      jump\t// in\n    tag_343:\n        /* \"#utility.yul\":15835:15860   */\n      swap2\n      pop\n        /* \"#utility.yul\":15874:15894   */\n      tag_344\n        /* \"#utility.yul\":15892:15893   */\n      dup4\n        /* \"#utility.yul\":15874:15894   */\n      tag_153\n      jump\t// in\n    tag_344:\n        /* \"#utility.yul\":15869:15894   */\n      swap3\n      pop\n        /* \"#utility.yul\":15913:15914   */\n      dup3\n        /* \"#utility.yul\":15910:15911   */\n      dup3\n        /* \"#utility.yul\":15907:15915   */\n      lt\n        /* \"#utility.yul\":15904:15938   */\n      iszero\n      tag_345\n      jumpi\n        /* \"#utility.yul\":15918:15936   */\n      tag_346\n      tag_185\n      jump\t// in\n    tag_346:\n        /* \"#utility.yul\":15904:15938   */\n    tag_345:\n        /* \"#utility.yul\":15963:15964   */\n      dup3\n        /* \"#utility.yul\":15960:15961   */\n      dup3\n        /* \"#utility.yul\":15956:15965   */\n      sub\n        /* \"#utility.yul\":15948:15965   */\n      swap1\n      pop\n        /* \"#utility.yul\":15780:15971   */\n      swap3\n      swap2\n      pop\n      pop\n      jump\t// out\n        /* \"#utility.yul\":15977:16407   */\n    tag_115:\n        /* \"#utility.yul\":16120:16124   */\n      0x00\n        /* \"#utility.yul\":16158:16160   */\n      0x60\n        /* \"#utility.yul\":16147:16156   */\n      dup3\n        /* \"#utility.yul\":16143:16161   */\n      add\n        /* \"#utility.yul\":16135:16161   */\n      swap1\n      pop\n        /* \"#utility.yul\":16171:16242   */\n      tag_348\n        /* \"#utility.yul\":16239:16240   */\n      0x00\n        /* \"#utility.yul\":16228:16237   */\n      dup4\n        /* \"#utility.yul\":16224:16241   */\n      add\n        /* \"#utility.yul\":16215:16221   */\n      dup7\n        /* \"#utility.yul\":16171:16242   */\n      tag_186\n      jump\t// in\n    tag_348:\n        /* \"#utility.yul\":16252:16324   */\n      tag_349\n        /* \"#utility.yul\":16320:16322   */\n      0x20\n        /* \"#utility.yul\":16309:16318   */\n      dup4\n        /* \"#utility.yul\":16305:16323   */\n      add\n        /* \"#utility.yul\":16296:16302   */\n      dup6\n        /* \"#utility.yul\":16252:16324   */\n      tag_154\n      jump\t// in\n    tag_349:\n        /* \"#utility.yul\":16334:16400   */\n      tag_350\n        /* \"#utility.yul\":16396:16398   */\n      0x40\n        /* \"#utility.yul\":16385:16394   */\n      dup4\n        /* \"#utility.yul\":16381:16399   */\n      add\n        /* \"#utility.yul\":16372:16378   */\n      dup5\n        /* \"#utility.yul\":16334:16400   */\n      tag_164\n      jump\t// in\n    tag_350:\n        /* \"#utility.yul\":15977:16407   */\n      swap5\n      swap4\n      pop\n      pop\n      pop\n      pop\n      jump\t// out\n        /* \"#utility.yul\":16413:16586   */\n    tag_191:\n        /* \"#utility.yul\":16553:16578   */\n      0x4e4f2066756e64732072616973656420666f7220796f75000000000000000000\n        /* \"#utility.yul\":16549:16550   */\n      0x00\n        /* \"#utility.yul\":16541:16547   */\n      dup3\n        /* \"#utility.yul\":16537:16551   */\n      add\n        /* \"#utility.yul\":16530:16579   */\n      mstore\n        /* \"#utility.yul\":16413:16586   */\n      pop\n      jump\t// out\n        /* \"#utility.yul\":16592:16958   */\n    tag_192:\n        /* \"#utility.yul\":16734:16737   */\n      0x00\n        /* \"#utility.yul\":16755:16822   */\n      tag_353\n        /* \"#utility.yul\":16819:16821   */\n      0x17\n        /* \"#utility.yul\":16814:16817   */\n      dup4\n        /* \"#utility.yul\":16755:16822   */\n      tag_167\n      jump\t// in\n    tag_353:\n        /* \"#utility.yul\":16748:16822   */\n      swap2\n      pop\n        /* \"#utility.yul\":16831:16924   */\n      tag_354\n        /* \"#utility.yul\":16920:16923   */\n      dup3\n        /* \"#utility.yul\":16831:16924   */\n      tag_191\n      jump\t// in\n    tag_354:\n        /* \"#utility.yul\":16949:16951   */\n      0x20\n        /* \"#utility.yul\":16944:16947   */\n      dup3\n        /* \"#utility.yul\":16940:16952   */\n      add\n        /* \"#utility.yul\":16933:16952   */\n      swap1\n      pop\n        /* \"#utility.yul\":16592:16958   */\n      swap2\n      swap1\n      pop\n      jump\t// out\n        /* \"#utility.yul\":16964:17383   */\n    tag_121:\n        /* \"#utility.yul\":17130:17134   */\n      0x00\n        /* \"#utility.yul\":17168:17170   */\n      0x20\n        /* \"#utility.yul\":17157:17166   */\n      dup3\n        /* \"#utility.yul\":17153:17171   */\n      add\n        /* \"#utility.yul\":17145:17171   */\n      swap1\n      pop\n        /* \"#utility.yul\":17217:17226   */\n      dup2\n        /* \"#utility.yul\":17211:17215   */\n      dup2\n        /* \"#utility.yul\":17207:17227   */\n      sub\n        /* \"#utility.yul\":17203:17204   */\n      0x00\n        /* \"#utility.yul\":17192:17201   */\n      dup4\n        /* \"#utility.yul\":17188:17205   */\n      add\n        /* \"#utility.yul\":17181:17228   */\n      mstore\n        /* \"#utility.yul\":17245:17376   */\n      tag_356\n        /* \"#utility.yul\":17371:17375   */\n      dup2\n        /* \"#utility.yul\":17245:17376   */\n      tag_192\n      jump\t// in\n    tag_356:\n        /* \"#utility.yul\":17237:17376   */\n      swap1\n      pop\n        /* \"#utility.yul\":16964:17383   */\n      swap2\n      swap1\n      pop\n      jump\t// out\n        /* \"#utility.yul\":17389:17922   */\n    tag_134:\n        /* \"#utility.yul\":17558:17562   */\n      0x00\n        /* \"#utility.yul\":17596:17598   */\n      0x60\n        /* \"#utility.yul\":17585:17594   */\n      dup3\n        /* \"#utility.yul\":17581:17599   */\n      add\n        /* \"#utility.yul\":17573:17599   */\n      swap1\n      pop\n        /* \"#utility.yul\":17609:17680   */\n      tag_358\n        /* \"#utility.yul\":17677:17678   */\n      0x00\n        /* \"#utility.yul\":17666:17675   */\n      dup4\n        /* \"#utility.yul\":17662:17679   */\n      add\n        /* \"#utility.yul\":17653:17659   */\n      dup7\n        /* \"#utility.yul\":17609:17680   */\n      tag_186\n      jump\t// in\n    tag_358:\n        /* \"#utility.yul\":17727:17736   */\n      dup2\n        /* \"#utility.yul\":17721:17725   */\n      dup2\n        /* \"#utility.yul\":17717:17737   */\n      sub\n        /* \"#utility.yul\":17712:17714   */\n      0x20\n        /* \"#utility.yul\":17701:17710   */\n      dup4\n        /* \"#utility.yul\":17697:17715   */\n      add\n        /* \"#utility.yul\":17690:17738   */\n      mstore\n        /* \"#utility.yul\":17755:17833   */\n      tag_359\n        /* \"#utility.yul\":17828:17832   */\n      dup2\n        /* \"#utility.yul\":17819:17825   */\n      dup6\n        /* \"#utility.yul\":17755:17833   */\n      tag_168\n      jump\t// in\n    tag_359:\n        /* \"#utility.yul\":17747:17833   */\n      swap1\n      pop\n        /* \"#utility.yul\":17843:17915   */\n      tag_360\n        /* \"#utility.yul\":17911:17913   */\n      0x40\n        /* \"#utility.yul\":17900:17909   */\n      dup4\n        /* \"#utility.yul\":17896:17914   */\n      add\n        /* \"#utility.yul\":17887:17893   */\n      dup5\n        /* \"#utility.yul\":17843:17915   */\n      tag_154\n      jump\t// in\n    tag_360:\n        /* \"#utility.yul\":17389:17922   */\n      swap5\n      swap4\n      pop\n      pop\n      pop\n      pop\n      jump\t// out\n\n    auxdata: 0xa2646970667358221220acb6143b7c9a666a00ecfd05f5612e1215a7cf868a758adde6add9892b1b795164736f6c634300080a0033\n}\n",
				"bytecode": {
					"linkReferences": {},
					"object": "60806040523480156200001157600080fd5b50604051620019e0380380620019e083398181016040528101906200003791906200012a565b816000806101000a81548173ffffffffffffffffffffffffffffffffffffffff021916908373ffffffffffffffffffffffffffffffffffffffff16021790555080600160006101000a81548173ffffffffffffffffffffffffffffffffffffffff021916908373ffffffffffffffffffffffffffffffffffffffff160217905550505062000171565b600080fd5b600073ffffffffffffffffffffffffffffffffffffffff82169050919050565b6000620000f282620000c5565b9050919050565b6200010481620000e5565b81146200011057600080fd5b50565b6000815190506200012481620000f9565b92915050565b60008060408385031215620001445762000143620000c0565b5b6000620001548582860162000113565b9250506020620001678582860162000113565b9150509250929050565b61185f80620001816000396000f3fe60806040526004361061009c5760003560e01c80637b9cd8c2116100645780637b9cd8c2146101b15780637daf06fd146101dc578063853828b6146101f8578063b540795b14610202578063b7f1b3a414610242578063d5247dda1461026b5761009c565b806303147f39146100a15780630e60bfad146100de57806314204dbb1461011b5780634fb2d09d146101585780636f7bc9be14610174575b600080fd5b3480156100ad57600080fd5b506100c860048036038101906100c39190610f53565b6102a8565b6040516100d59190610f99565b60405180910390f35b3480156100ea57600080fd5b5061010560048036038101906101009190610f53565b6102f4565b60405161011291906110da565b60405180910390f35b34801561012757600080fd5b50610142600480360381019061013d9190610f53565b6105d8565b60405161014f919061110b565b60405180910390f35b610172600480360381019061016d9190610f53565b6106ae565b005b34801561018057600080fd5b5061019b60048036038101906101969190610f53565b610888565b6040516101a89190610f99565b60405180910390f35b3480156101bd57600080fd5b506101c66108a0565b6040516101d39190610f99565b60405180910390f35b6101f660048036038101906101f19190611152565b6108a8565b005b610200610aa2565b005b34801561020e57600080fd5b5061022960048036038101906102249190610f53565b610c4c565b60405161023994939291906111c9565b60405180910390f35b34801561024e57600080fd5b506102696004803603810190610264919061134a565b610d11565b005b34801561027757600080fd5b50610292600480360381019061028d9190610f53565b610db6565b60405161029f919061110b565b60405180910390f35b6000600260008373ffffffffffffffffffffffffffffffffffffffff1673ffffffffffffffffffffffffffffffffffffffff168152602001908152602001600020600201549050919050565b6102fc610e14565b600260008373ffffffffffffffffffffffffffffffffffffffff1673ffffffffffffffffffffffffffffffffffffffff168152602001908152602001600020604051806080016040529081600082018054610356906113d5565b80601f0160208091040260200160405190810160405280929190818152602001828054610382906113d5565b80156103cf5780601f106103a4576101008083540402835291602001916103cf565b820191906000526020600020905b8154815290600101906020018083116103b257829003601f168201915b5050505050815260200160018201548152602001600282015481526020016003820160009054906101000a900460ff1615151515815250509050600260008373ffffffffffffffffffffffffffffffffffffffff1673ffffffffffffffffffffffffffffffffffffffff1681526020019081526020016000206000018054610456906113d5565b80601f0160208091040260200160405190810160405280929190818152602001828054610482906113d5565b80156104cf5780601f106104a4576101008083540402835291602001916104cf565b820191906000526020600020905b8154815290600101906020018083116104b257829003601f168201915b50505050508160000181905250600260008373ffffffffffffffffffffffffffffffffffffffff1673ffffffffffffffffffffffffffffffffffffffff16815260200190815260200160002060010154816020018181525050600260008373ffffffffffffffffffffffffffffffffffffffff1673ffffffffffffffffffffffffffffffffffffffff16815260200190815260200160002060020154816040018181525050600260008373ffffffffffffffffffffffffffffffffffffffff1673ffffffffffffffffffffffffffffffffffffffff16815260200190815260200160002060030160009054906101000a900460ff16816060019015159081151581525050919050565b6000600160009054906101000a900473ffffffffffffffffffffffffffffffffffffffff1673ffffffffffffffffffffffffffffffffffffffff163373ffffffffffffffffffffffffffffffffffffffff161461063457600080fd5b6000600260008473ffffffffffffffffffffffffffffffffffffffff1673ffffffffffffffffffffffffffffffffffffffff168152602001908152602001600020905060018160030160006101000a81548160ff0219169083151502179055508060030160009054906101000a900460ff16915050919050565b6000600260008373ffffffffffffffffffffffffffffffffffffffff1673ffffffffffffffffffffffffffffffffffffffff16815260200190815260200160002090506000341415610735576040517f08c379a000000000000000000000000000000000000000000000000000000000815260040161072c90611453565b60405180910390fd5b600115158160030160009054906101000a900460ff1615151461078d576040517f08c379a0000000000000000000000000000000000000000000000000000000008152600401610784906114e5565b60405180910390fd5b8060010154816002015411156107d8576040517f08c379a00000000000000000000000000000000000000000000000000000000081526004016107cf90611551565b60405180910390fd5b348160020160008282546107ec91906115a0565b9250508190555034600360003373ffffffffffffffffffffffffffffffffffffffff1673ffffffffffffffffffffffffffffffffffffffff168152602001908152602001600020600082825461084291906115a0565b925050819055507f386bc05a2408454571efe4cbeeabd68940d5a301c55f31319f2b6aef331fedfc33833460405161087c93929190611605565b60405180910390a15050565b60036020528060005260406000206000915090505481565b600047905090565b6000600260003373ffffffffffffffffffffffffffffffffffffffff1673ffffffffffffffffffffffffffffffffffffffff1681526020019081526020016000209050600115158160030160009054906101000a900460ff16151514610943576040517f08c379a000000000000000000000000000000000000000000000000000000000815260040161093a90611688565b60405180910390fd5b818160020154101561098a576040517f08c379a0000000000000000000000000000000000000000000000000000000008152600401610981906116f4565b60405180910390fd5b8181600201600082825461099e9190611714565b92505081905550818160010160008282546109b99190611714565b925050819055503373ffffffffffffffffffffffffffffffffffffffff166108fc839081150290604051600060405180830381858888f19350505050158015610a06573d6000803e3d6000fd5b506000816002015414610a345760018160030160006101000a81548160ff0219169083151502179055610a51565b60008160030160006101000a81548160ff02191690831515021790555b507fead5d35910f3e2d6b0422579a65a204ac86cdeb6a6c0436657a33a90d397fb5333838360030160009054906101000a900460ff16604051610a9693929190611748565b60405180910390a15050565b6000600260003373ffffffffffffffffffffffffffffffffffffffff1673ffffffffffffffffffffffffffffffffffffffff1681526020019081526020016000209050600115158160030160009054906101000a900460ff16151514610b3d576040517f08c379a0000000000000000000000000000000000000000000000000000000008152600401610b3490611688565b60405180910390fd5b600081600201541415610b85576040517f08c379a0000000000000000000000000000000000000000000000000000000008152600401610b7c906117cb565b60405180910390fd5b6000816002015490506000826002018190555060008260030160006101000a81548160ff0219169083151502179055503373ffffffffffffffffffffffffffffffffffffffff166108fc829081150290604051600060405180830381858888f19350505050158015610bfb573d6000803e3d6000fd5b507fead5d35910f3e2d6b0422579a65a204ac86cdeb6a6c0436657a33a90d397fb5333828460030160009054906101000a900460ff16604051610c4093929190611748565b60405180910390a15050565b6002602052806000526040600020600091509050806000018054610c6f906113d5565b80601f0160208091040260200160405190810160405280929190818152602001828054610c9b906113d5565b8015610ce85780601f10610cbd57610100808354040283529160200191610ce8565b820191906000526020600020905b815481529060010190602001808311610ccb57829003601f168201915b5050505050908060010154908060020154908060030160009054906101000a900460ff16905084565b6000600260003373ffffffffffffffffffffffffffffffffffffffff1673ffffffffffffffffffffffffffffffffffffffff168152602001908152602001600020905081816001018190555082816000019080519060200190610d75929190610e3e565b507ff69a88136bb57871f0559f33e167c9cc90ed27fb806571f9bd595ccea4200082338484604051610da9939291906117eb565b60405180910390a1505050565b600080600260008473ffffffffffffffffffffffffffffffffffffffff1673ffffffffffffffffffffffffffffffffffffffff16815260200190815260200160002090508060030160009054906101000a900460ff16915050919050565b60405180608001604052806060815260200160008152602001600081526020016000151581525090565b828054610e4a906113d5565b90600052602060002090601f016020900481019282610e6c5760008555610eb3565b82601f10610e8557805160ff1916838001178555610eb3565b82800160010185558215610eb3579182015b82811115610eb2578251825591602001919060010190610e97565b5b509050610ec09190610ec4565b5090565b5b80821115610edd576000816000905550600101610ec5565b5090565b6000604051905090565b600080fd5b600080fd5b600073ffffffffffffffffffffffffffffffffffffffff82169050919050565b6000610f2082610ef5565b9050919050565b610f3081610f15565b8114610f3b57600080fd5b50565b600081359050610f4d81610f27565b92915050565b600060208284031215610f6957610f68610eeb565b5b6000610f7784828501610f3e565b91505092915050565b6000819050919050565b610f9381610f80565b82525050565b6000602082019050610fae6000830184610f8a565b92915050565b600081519050919050565b600082825260208201905092915050565b60005b83811015610fee578082015181840152602081019050610fd3565b83811115610ffd576000848401525b50505050565b6000601f19601f8301169050919050565b600061101f82610fb4565b6110298185610fbf565b9350611039818560208601610fd0565b61104281611003565b840191505092915050565b61105681610f80565b82525050565b60008115159050919050565b6110718161105c565b82525050565b600060808301600083015184820360008601526110948282611014565b91505060208301516110a9602086018261104d565b5060408301516110bc604086018261104d565b5060608301516110cf6060860182611068565b508091505092915050565b600060208201905081810360008301526110f48184611077565b905092915050565b6111058161105c565b82525050565b600060208201905061112060008301846110fc565b92915050565b61112f81610f80565b811461113a57600080fd5b50565b60008135905061114c81611126565b92915050565b60006020828403121561116857611167610eeb565b5b60006111768482850161113d565b91505092915050565b600082825260208201905092915050565b600061119b82610fb4565b6111a5818561117f565b93506111b5818560208601610fd0565b6111be81611003565b840191505092915050565b600060808201905081810360008301526111e38187611190565b90506111f26020830186610f8a565b6111ff6040830185610f8a565b61120c60608301846110fc565b95945050505050565b600080fd5b600080fd5b7f4e487b7100000000000000000000000000000000000000000000000000000000600052604160045260246000fd5b61125782611003565b810181811067ffffffffffffffff821117156112765761127561121f565b5b80604052505050565b6000611289610ee1565b9050611295828261124e565b919050565b600067ffffffffffffffff8211156112b5576112b461121f565b5b6112be82611003565b9050602081019050919050565b82818337600083830152505050565b60006112ed6112e88461129a565b61127f565b9050828152602081018484840111156113095761130861121a565b5b6113148482856112cb565b509392505050565b600082601f83011261133157611330611215565b5b81356113418482602086016112da565b91505092915050565b6000806040838503121561136157611360610eeb565b5b600083013567ffffffffffffffff81111561137f5761137e610ef0565b5b61138b8582860161131c565b925050602061139c8582860161113d565b9150509250929050565b7f4e487b7100000000000000000000000000000000000000000000000000000000600052602260045260246000fd5b600060028204905060018216806113ed57607f821691505b60208210811415611401576114006113a6565b5b50919050565b7f796f752063616e2774207472616e7366657220302076616c7565000000000000600082015250565b600061143d601a8361117f565b915061144882611407565b602082019050919050565b6000602082019050818103600083015261146c81611430565b9050919050565b7f7468697320646f6e6174696f6e206973206e6f206c6f6e67657220617661696c60008201527f61626c6500000000000000000000000000000000000000000000000000000000602082015250565b60006114cf60248361117f565b91506114da82611473565b604082019050919050565b600060208201905081810360008301526114fe816114c2565b9050919050565b7f74617267657420726561636865616420666f7220746869732066756e64000000600082015250565b600061153b601d8361117f565b915061154682611505565b602082019050919050565b6000602082019050818103600083015261156a8161152e565b9050919050565b7f4e487b7100000000000000000000000000000000000000000000000000000000600052601160045260246000fd5b60006115ab82610f80565b91506115b683610f80565b9250827fffffffffffffffffffffffffffffffffffffffffffffffffffffffffffffffff038211156115eb576115ea611571565b5b828201905092915050565b6115ff81610f15565b82525050565b600060608201905061161a60008301866115f6565b61162760208301856115f6565b6116346040830184610f8a565b949350505050565b7f4e6f207265717565737420666f722066756e64206d6164650000000000000000600082015250565b600061167260188361117f565b915061167d8261163c565b602082019050919050565b600060208201905081810360008301526116a181611665565b9050919050565b7f696e73756666696369656e742066756e64730000000000000000000000000000600082015250565b60006116de60128361117f565b91506116e9826116a8565b602082019050919050565b6000602082019050818103600083015261170d816116d1565b9050919050565b600061171f82610f80565b915061172a83610f80565b92508282101561173d5761173c611571565b5b828203905092915050565b600060608201905061175d60008301866115f6565b61176a6020830185610f8a565b61177760408301846110fc565b949350505050565b7f4e4f2066756e64732072616973656420666f7220796f75000000000000000000600082015250565b60006117b560178361117f565b91506117c08261177f565b602082019050919050565b600060208201905081810360008301526117e4816117a8565b9050919050565b600060608201905061180060008301866115f6565b81810360208301526118128185611190565b90506118216040830184610f8a565b94935050505056fea2646970667358221220acb6143b7c9a666a00ecfd05f5612e1215a7cf868a758adde6add9892b1b795164736f6c634300080a0033",
					"opcodes": "PUSH1 0x80 PUSH1 0x40 MSTORE CALLVALUE DUP1 ISZERO PUSH3 0x11 JUMPI PUSH1 0x0 DUP1 REVERT JUMPDEST POP PUSH1 0x40 MLOAD PUSH3 0x19E0 CODESIZE SUB DUP1 PUSH3 0x19E0 DUP4 CODECOPY DUP2 DUP2 ADD PUSH1 0x40 MSTORE DUP2 ADD SWAP1 PUSH3 0x37 SWAP2 SWAP1 PUSH3 0x12A JUMP JUMPDEST DUP2 PUSH1 0x0 DUP1 PUSH2 0x100 EXP DUP2 SLOAD DUP2 PUSH20 0xFFFFFFFFFFFFFFFFFFFFFFFFFFFFFFFFFFFFFFFF MUL NOT AND SWAP1 DUP4 PUSH20 0xFFFFFFFFFFFFFFFFFFFFFFFFFFFFFFFFFFFFFFFF AND MUL OR SWAP1 SSTORE POP DUP1 PUSH1 0x1 PUSH1 0x0 PUSH2 0x100 EXP DUP2 SLOAD DUP2 PUSH20 0xFFFFFFFFFFFFFFFFFFFFFFFFFFFFFFFFFFFFFFFF MUL NOT AND SWAP1 DUP4 PUSH20 0xFFFFFFFFFFFFFFFFFFFFFFFFFFFFFFFFFFFFFFFF AND MUL OR SWAP1 SSTORE POP POP POP PUSH3 0x171 JUMP JUMPDEST PUSH1 0x0 DUP1 REVERT JUMPDEST PUSH1 0x0 PUSH20 0xFFFFFFFFFFFFFFFFFFFFFFFFFFFFFFFFFFFFFFFF DUP3 AND SWAP1 POP SWAP2 SWAP1 POP JUMP JUMPDEST PUSH1 0x0 PUSH3 0xF2 DUP3 PUSH3 0xC5 JUMP JUMPDEST SWAP1 POP SWAP2 SWAP1 POP JUMP JUMPDEST PUSH3 0x104 DUP2 PUSH3 0xE5 JUMP JUMPDEST DUP2 EQ PUSH3 0x110 JUMPI PUSH1 0x0 DUP1 REVERT JUMPDEST POP JUMP JUMPDEST PUSH1 0x0 DUP2 MLOAD SWAP1 POP PUSH3 0x124 DUP2 PUSH3 0xF9 JUMP JUMPDEST SWAP3 SWAP2 POP POP JUMP JUMPDEST PUSH1 0x0 DUP1 PUSH1 0x40 DUP4 DUP6 SUB SLT ISZERO PUSH3 0x144 JUMPI PUSH3 0x143 PUSH3 0xC0 JUMP JUMPDEST JUMPDEST PUSH1 0x0 PUSH3 0x154 DUP6 DUP3 DUP7 ADD PUSH3 0x113 JUMP JUMPDEST SWAP3 POP POP PUSH1 0x20 PUSH3 0x167 DUP6 DUP3 DUP7 ADD PUSH3 0x113 JUMP JUMPDEST SWAP2 POP POP SWAP3 POP SWAP3 SWAP1 POP JUMP JUMPDEST PUSH2 0x185F DUP1 PUSH3 0x181 PUSH1 0x0 CODECOPY PUSH1 0x0 RETURN INVALID PUSH1 0x80 PUSH1 0x40 MSTORE PUSH1 0x4 CALLDATASIZE LT PUSH2 0x9C JUMPI PUSH1 0x0 CALLDATALOAD PUSH1 0xE0 SHR DUP1 PUSH4 0x7B9CD8C2 GT PUSH2 0x64 JUMPI DUP1 PUSH4 0x7B9CD8C2 EQ PUSH2 0x1B1 JUMPI DUP1 PUSH4 0x7DAF06FD EQ PUSH2 0x1DC JUMPI DUP1 PUSH4 0x853828B6 EQ PUSH2 0x1F8 JUMPI DUP1 PUSH4 0xB540795B EQ PUSH2 0x202 JUMPI DUP1 PUSH4 0xB7F1B3A4 EQ PUSH2 0x242 JUMPI DUP1 PUSH4 0xD5247DDA EQ PUSH2 0x26B JUMPI PUSH2 0x9C JUMP JUMPDEST DUP1 PUSH4 0x3147F39 EQ PUSH2 0xA1 JUMPI DUP1 PUSH4 0xE60BFAD EQ PUSH2 0xDE JUMPI DUP1 PUSH4 0x14204DBB EQ PUSH2 0x11B JUMPI DUP1 PUSH4 0x4FB2D09D EQ PUSH2 0x158 JUMPI DUP1 PUSH4 0x6F7BC9BE EQ PUSH2 0x174 JUMPI JUMPDEST PUSH1 0x0 DUP1 REVERT JUMPDEST CALLVALUE DUP1 ISZERO PUSH2 0xAD JUMPI PUSH1 0x0 DUP1 REVERT JUMPDEST POP PUSH2 0xC8 PUSH1 0x4 DUP1 CALLDATASIZE SUB DUP2 ADD SWAP1 PUSH2 0xC3 SWAP2 SWAP1 PUSH2 0xF53 JUMP JUMPDEST PUSH2 0x2A8 JUMP JUMPDEST PUSH1 0x40 MLOAD PUSH2 0xD5 SWAP2 SWAP1 PUSH2 0xF99 JUMP JUMPDEST PUSH1 0x40 MLOAD DUP1 SWAP2 SUB SWAP1 RETURN JUMPDEST CALLVALUE DUP1 ISZERO PUSH2 0xEA JUMPI PUSH1 0x0 DUP1 REVERT JUMPDEST POP PUSH2 0x105 PUSH1 0x4 DUP1 CALLDATASIZE SUB DUP2 ADD SWAP1 PUSH2 0x100 SWAP2 SWAP1 PUSH2 0xF53 JUMP JUMPDEST PUSH2 0x2F4 JUMP JUMPDEST PUSH1 0x40 MLOAD PUSH2 0x112 SWAP2 SWAP1 PUSH2 0x10DA JUMP JUMPDEST PUSH1 0x40 MLOAD DUP1 SWAP2 SUB SWAP1 RETURN JUMPDEST CALLVALUE DUP1 ISZERO PUSH2 0x127 JUMPI PUSH1 0x0 DUP1 REVERT JUMPDEST POP PUSH2 0x142 PUSH1 0x4 DUP1 CALLDATASIZE SUB DUP2 ADD SWAP1 PUSH2 0x13D SWAP2 SWAP1 PUSH2 0xF53 JUMP JUMPDEST PUSH2 0x5D8 JUMP JUMPDEST PUSH1 0x40 MLOAD PUSH2 0x14F SWAP2 SWAP1 PUSH2 0x110B JUMP JUMPDEST PUSH1 0x40 MLOAD DUP1 SWAP2 SUB SWAP1 RETURN JUMPDEST PUSH2 0x172 PUSH1 0x4 DUP1 CALLDATASIZE SUB DUP2 ADD SWAP1 PUSH2 0x16D SWAP2 SWAP1 PUSH2 0xF53 JUMP JUMPDEST PUSH2 0x6AE JUMP JUMPDEST STOP JUMPDEST CALLVALUE DUP1 ISZERO PUSH2 0x180 JUMPI PUSH1 0x0 DUP1 REVERT JUMPDEST POP PUSH2 0x19B PUSH1 0x4 DUP1 CALLDATASIZE SUB DUP2 ADD SWAP1 PUSH2 0x196 SWAP2 SWAP1 PUSH2 0xF53 JUMP JUMPDEST PUSH2 0x888 JUMP JUMPDEST PUSH1 0x40 MLOAD PUSH2 0x1A8 SWAP2 SWAP1 PUSH2 0xF99 JUMP JUMPDEST PUSH1 0x40 MLOAD DUP1 SWAP2 SUB SWAP1 RETURN JUMPDEST CALLVALUE DUP1 ISZERO PUSH2 0x1BD JUMPI PUSH1 0x0 DUP1 REVERT JUMPDEST POP PUSH2 0x1C6 PUSH2 0x8A0 JUMP JUMPDEST PUSH1 0x40 MLOAD PUSH2 0x1D3 SWAP2 SWAP1 PUSH2 0xF99 JUMP JUMPDEST PUSH1 0x40 MLOAD DUP1 SWAP2 SUB SWAP1 RETURN JUMPDEST PUSH2 0x1F6 PUSH1 0x4 DUP1 CALLDATASIZE SUB DUP2 ADD SWAP1 PUSH2 0x1F1 SWAP2 SWAP1 PUSH2 0x1152 JUMP JUMPDEST PUSH2 0x8A8 JUMP JUMPDEST STOP JUMPDEST PUSH2 0x200 PUSH2 0xAA2 JUMP JUMPDEST STOP JUMPDEST CALLVALUE DUP1 ISZERO PUSH2 0x20E JUMPI PUSH1 0x0 DUP1 REVERT JUMPDEST POP PUSH2 0x229 PUSH1 0x4 DUP1 CALLDATASIZE SUB DUP2 ADD SWAP1 PUSH2 0x224 SWAP2 SWAP1 PUSH2 0xF53 JUMP JUMPDEST PUSH2 0xC4C JUMP JUMPDEST PUSH1 0x40 MLOAD PUSH2 0x239 SWAP5 SWAP4 SWAP3 SWAP2 SWAP1 PUSH2 0x11C9 JUMP JUMPDEST PUSH1 0x40 MLOAD DUP1 SWAP2 SUB SWAP1 RETURN JUMPDEST CALLVALUE DUP1 ISZERO PUSH2 0x24E JUMPI PUSH1 0x0 DUP1 REVERT JUMPDEST POP PUSH2 0x269 PUSH1 0x4 DUP1 CALLDATASIZE SUB DUP2 ADD SWAP1 PUSH2 0x264 SWAP2 SWAP1 PUSH2 0x134A JUMP JUMPDEST PUSH2 0xD11 JUMP JUMPDEST STOP JUMPDEST CALLVALUE DUP1 ISZERO PUSH2 0x277 JUMPI PUSH1 0x0 DUP1 REVERT JUMPDEST POP PUSH2 0x292 PUSH1 0x4 DUP1 CALLDATASIZE SUB DUP2 ADD SWAP1 PUSH2 0x28D SWAP2 SWAP1 PUSH2 0xF53 JUMP JUMPDEST PUSH2 0xDB6 JUMP JUMPDEST PUSH1 0x40 MLOAD PUSH2 0x29F SWAP2 SWAP1 PUSH2 0x110B JUMP JUMPDEST PUSH1 0x40 MLOAD DUP1 SWAP2 SUB SWAP1 RETURN JUMPDEST PUSH1 0x0 PUSH1 0x2 PUSH1 0x0 DUP4 PUSH20 0xFFFFFFFFFFFFFFFFFFFFFFFFFFFFFFFFFFFFFFFF AND PUSH20 0xFFFFFFFFFFFFFFFFFFFFFFFFFFFFFFFFFFFFFFFF AND DUP2 MSTORE PUSH1 0x20 ADD SWAP1 DUP2 MSTORE PUSH1 0x20 ADD PUSH1 0x0 KECCAK256 PUSH1 0x2 ADD SLOAD SWAP1 POP SWAP2 SWAP1 POP JUMP JUMPDEST PUSH2 0x2FC PUSH2 0xE14 JUMP JUMPDEST PUSH1 0x2 PUSH1 0x0 DUP4 PUSH20 0xFFFFFFFFFFFFFFFFFFFFFFFFFFFFFFFFFFFFFFFF AND PUSH20 0xFFFFFFFFFFFFFFFFFFFFFFFFFFFFFFFFFFFFFFFF AND DUP2 MSTORE PUSH1 0x20 ADD SWAP1 DUP2 MSTORE PUSH1 0x20 ADD PUSH1 0x0 KECCAK256 PUSH1 0x40 MLOAD DUP1 PUSH1 0x80 ADD PUSH1 0x40 MSTORE SWAP1 DUP2 PUSH1 0x0 DUP3 ADD DUP1 SLOAD PUSH2 0x356 SWAP1 PUSH2 0x13D5 JUMP JUMPDEST DUP1 PUSH1 0x1F ADD PUSH1 0x20 DUP1 SWAP2 DIV MUL PUSH1 0x20 ADD PUSH1 0x40 MLOAD SWAP1 DUP2 ADD PUSH1 0x40 MSTORE DUP1 SWAP3 SWAP2 SWAP1 DUP2 DUP2 MSTORE PUSH1 0x20 ADD DUP3 DUP1 SLOAD PUSH2 0x382 SWAP1 PUSH2 0x13D5 JUMP JUMPDEST DUP1 ISZERO PUSH2 0x3CF JUMPI DUP1 PUSH1 0x1F LT PUSH2 0x3A4 JUMPI PUSH2 0x100 DUP1 DUP4 SLOAD DIV MUL DUP4 MSTORE SWAP2 PUSH1 0x20 ADD SWAP2 PUSH2 0x3CF JUMP JUMPDEST DUP3 ADD SWAP2 SWAP1 PUSH1 0x0 MSTORE PUSH1 0x20 PUSH1 0x0 KECCAK256 SWAP1 JUMPDEST DUP2 SLOAD DUP2 MSTORE SWAP1 PUSH1 0x1 ADD SWAP1 PUSH1 0x20 ADD DUP1 DUP4 GT PUSH2 0x3B2 JUMPI DUP3 SWAP1 SUB PUSH1 0x1F AND DUP3 ADD SWAP2 JUMPDEST POP POP POP POP POP DUP2 MSTORE PUSH1 0x20 ADD PUSH1 0x1 DUP3 ADD SLOAD DUP2 MSTORE PUSH1 0x20 ADD PUSH1 0x2 DUP3 ADD SLOAD DUP2 MSTORE PUSH1 0x20 ADD PUSH1 0x3 DUP3 ADD PUSH1 0x0 SWAP1 SLOAD SWAP1 PUSH2 0x100 EXP SWAP1 DIV PUSH1 0xFF AND ISZERO ISZERO ISZERO ISZERO DUP2 MSTORE POP POP SWAP1 POP PUSH1 0x2 PUSH1 0x0 DUP4 PUSH20 0xFFFFFFFFFFFFFFFFFFFFFFFFFFFFFFFFFFFFFFFF AND PUSH20 0xFFFFFFFFFFFFFFFFFFFFFFFFFFFFFFFFFFFFFFFF AND DUP2 MSTORE PUSH1 0x20 ADD SWAP1 DUP2 MSTORE PUSH1 0x20 ADD PUSH1 0x0 KECCAK256 PUSH1 0x0 ADD DUP1 SLOAD PUSH2 0x456 SWAP1 PUSH2 0x13D5 JUMP JUMPDEST DUP1 PUSH1 0x1F ADD PUSH1 0x20 DUP1 SWAP2 DIV MUL PUSH1 0x20 ADD PUSH1 0x40 MLOAD SWAP1 DUP2 ADD PUSH1 0x40 MSTORE DUP1 SWAP3 SWAP2 SWAP1 DUP2 DUP2 MSTORE PUSH1 0x20 ADD DUP3 DUP1 SLOAD PUSH2 0x482 SWAP1 PUSH2 0x13D5 JUMP JUMPDEST DUP1 ISZERO PUSH2 0x4CF JUMPI DUP1 PUSH1 0x1F LT PUSH2 0x4A4 JUMPI PUSH2 0x100 DUP1 DUP4 SLOAD DIV MUL DUP4 MSTORE SWAP2 PUSH1 0x20 ADD SWAP2 PUSH2 0x4CF JUMP JUMPDEST DUP3 ADD SWAP2 SWAP1 PUSH1 0x0 MSTORE PUSH1 0x20 PUSH1 0x0 KECCAK256 SWAP1 JUMPDEST DUP2 SLOAD DUP2 MSTORE SWAP1 PUSH1 0x1 ADD SWAP1 PUSH1 0x20 ADD DUP1 DUP4 GT PUSH2 0x4B2 JUMPI DUP3 SWAP1 SUB PUSH1 0x1F AND DUP3 ADD SWAP2 JUMPDEST POP POP POP POP POP DUP2 PUSH1 0x0 ADD DUP2 SWAP1 MSTORE POP PUSH1 0x2 PUSH1 0x0 DUP4 PUSH20 0xFFFFFFFFFFFFFFFFFFFFFFFFFFFFFFFFFFFFFFFF AND PUSH20 0xFFFFFFFFFFFFFFFFFFFFFFFFFFFFFFFFFFFFFFFF AND DUP2 MSTORE PUSH1 0x20 ADD SWAP1 DUP2 MSTORE PUSH1 0x20 ADD PUSH1 0x0 KECCAK256 PUSH1 0x1 ADD SLOAD DUP2 PUSH1 0x20 ADD DUP2 DUP2 MSTORE POP POP PUSH1 0x2 PUSH1 0x0 DUP4 PUSH20 0xFFFFFFFFFFFFFFFFFFFFFFFFFFFFFFFFFFFFFFFF AND PUSH20 0xFFFFFFFFFFFFFFFFFFFFFFFFFFFFFFFFFFFFFFFF AND DUP2 MSTORE PUSH1 0x20 ADD SWAP1 DUP2 MSTORE PUSH1 0x20 ADD PUSH1 0x0 KECCAK256 PUSH1 0x2 ADD SLOAD DUP2 PUSH1 0x40 ADD DUP2 DUP2 MSTORE POP POP PUSH1 0x2 PUSH1 0x0 DUP4 PUSH20 0xFFFFFFFFFFFFFFFFFFFFFFFFFFFFFFFFFFFFFFFF AND PUSH20 0xFFFFFFFFFFFFFFFFFFFFFFFFFFFFFFFFFFFFFFFF AND DUP2 MSTORE PUSH1 0x20 ADD SWAP1 DUP2 MSTORE PUSH1 0x20 ADD PUSH1 0x0 KECCAK256 PUSH1 0x3 ADD PUSH1 0x0 SWAP1 SLOAD SWAP1 PUSH2 0x100 EXP SWAP1 DIV PUSH1 0xFF AND DUP2 PUSH1 0x60 ADD SWAP1 ISZERO ISZERO SWAP1 DUP2 ISZERO ISZERO DUP2 MSTORE POP POP SWAP2 SWAP1 POP JUMP JUMPDEST PUSH1 0x0 PUSH1 0x1 PUSH1 0x0 SWAP1 SLOAD SWAP1 PUSH2 0x100 EXP SWAP1 DIV PUSH20 0xFFFFFFFFFFFFFFFFFFFFFFFFFFFFFFFFFFFFFFFF AND PUSH20 0xFFFFFFFFFFFFFFFFFFFFFFFFFFFFFFFFFFFFFFFF AND CALLER PUSH20 0xFFFFFFFFFFFFFFFFFFFFFFFFFFFFFFFFFFFFFFFF AND EQ PUSH2 0x634 JUMPI PUSH1 0x0 DUP1 REVERT JUMPDEST PUSH1 0x0 PUSH1 0x2 PUSH1 0x0 DUP5 PUSH20 0xFFFFFFFFFFFFFFFFFFFFFFFFFFFFFFFFFFFFFFFF AND PUSH20 0xFFFFFFFFFFFFFFFFFFFFFFFFFFFFFFFFFFFFFFFF AND DUP2 MSTORE PUSH1 0x20 ADD SWAP1 DUP2 MSTORE PUSH1 0x20 ADD PUSH1 0x0 KECCAK256 SWAP1 POP PUSH1 0x1 DUP2 PUSH1 0x3 ADD PUSH1 0x0 PUSH2 0x100 EXP DUP2 SLOAD DUP2 PUSH1 0xFF MUL NOT AND SWAP1 DUP4 ISZERO ISZERO MUL OR SWAP1 SSTORE POP DUP1 PUSH1 0x3 ADD PUSH1 0x0 SWAP1 SLOAD SWAP1 PUSH2 0x100 EXP SWAP1 DIV PUSH1 0xFF AND SWAP2 POP POP SWAP2 SWAP1 POP JUMP JUMPDEST PUSH1 0x0 PUSH1 0x2 PUSH1 0x0 DUP4 PUSH20 0xFFFFFFFFFFFFFFFFFFFFFFFFFFFFFFFFFFFFFFFF AND PUSH20 0xFFFFFFFFFFFFFFFFFFFFFFFFFFFFFFFFFFFFFFFF AND DUP2 MSTORE PUSH1 0x20 ADD SWAP1 DUP2 MSTORE PUSH1 0x20 ADD PUSH1 0x0 KECCAK256 SWAP1 POP PUSH1 0x0 CALLVALUE EQ ISZERO PUSH2 0x735 JUMPI PUSH1 0x40 MLOAD PUSH32 0x8C379A000000000000000000000000000000000000000000000000000000000 DUP2 MSTORE PUSH1 0x4 ADD PUSH2 0x72C SWAP1 PUSH2 0x1453 JUMP JUMPDEST PUSH1 0x40 MLOAD DUP1 SWAP2 SUB SWAP1 REVERT JUMPDEST PUSH1 0x1 ISZERO ISZERO DUP2 PUSH1 0x3 ADD PUSH1 0x0 SWAP1 SLOAD SWAP1 PUSH2 0x100 EXP SWAP1 DIV PUSH1 0xFF AND ISZERO ISZERO EQ PUSH2 0x78D JUMPI PUSH1 0x40 MLOAD PUSH32 0x8C379A000000000000000000000000000000000000000000000000000000000 DUP2 MSTORE PUSH1 0x4 ADD PUSH2 0x784 SWAP1 PUSH2 0x14E5 JUMP JUMPDEST PUSH1 0x40 MLOAD DUP1 SWAP2 SUB SWAP1 REVERT JUMPDEST DUP1 PUSH1 0x1 ADD SLOAD DUP2 PUSH1 0x2 ADD SLOAD GT ISZERO PUSH2 0x7D8 JUMPI PUSH1 0x40 MLOAD PUSH32 0x8C379A000000000000000000000000000000000000000000000000000000000 DUP2 MSTORE PUSH1 0x4 ADD PUSH2 0x7CF SWAP1 PUSH2 0x1551 JUMP JUMPDEST PUSH1 0x40 MLOAD DUP1 SWAP2 SUB SWAP1 REVERT JUMPDEST CALLVALUE DUP2 PUSH1 0x2 ADD PUSH1 0x0 DUP3 DUP3 SLOAD PUSH2 0x7EC SWAP2 SWAP1 PUSH2 0x15A0 JUMP JUMPDEST SWAP3 POP POP DUP2 SWAP1 SSTORE POP CALLVALUE PUSH1 0x3 PUSH1 0x0 CALLER PUSH20 0xFFFFFFFFFFFFFFFFFFFFFFFFFFFFFFFFFFFFFFFF AND PUSH20 0xFFFFFFFFFFFFFFFFFFFFFFFFFFFFFFFFFFFFFFFF AND DUP2 MSTORE PUSH1 0x20 ADD SWAP1 DUP2 MSTORE PUSH1 0x20 ADD PUSH1 0x0 KECCAK256 PUSH1 0x0 DUP3 DUP3 SLOAD PUSH2 0x842 SWAP2 SWAP1 PUSH2 0x15A0 JUMP JUMPDEST SWAP3 POP POP DUP2 SWAP1 SSTORE POP PUSH32 0x386BC05A2408454571EFE4CBEEABD68940D5A301C55F31319F2B6AEF331FEDFC CALLER DUP4 CALLVALUE PUSH1 0x40 MLOAD PUSH2 0x87C SWAP4 SWAP3 SWAP2 SWAP1 PUSH2 0x1605 JUMP JUMPDEST PUSH1 0x40 MLOAD DUP1 SWAP2 SUB SWAP1 LOG1 POP POP JUMP JUMPDEST PUSH1 0x3 PUSH1 0x20 MSTORE DUP1 PUSH1 0x0 MSTORE PUSH1 0x40 PUSH1 0x0 KECCAK256 PUSH1 0x0 SWAP2 POP SWAP1 POP SLOAD DUP2 JUMP JUMPDEST PUSH1 0x0 SELFBALANCE SWAP1 POP SWAP1 JUMP JUMPDEST PUSH1 0x0 PUSH1 0x2 PUSH1 0x0 CALLER PUSH20 0xFFFFFFFFFFFFFFFFFFFFFFFFFFFFFFFFFFFFFFFF AND PUSH20 0xFFFFFFFFFFFFFFFFFFFFFFFFFFFFFFFFFFFFFFFF AND DUP2 MSTORE PUSH1 0x20 ADD SWAP1 DUP2 MSTORE PUSH1 0x20 ADD PUSH1 0x0 KECCAK256 SWAP1 POP PUSH1 0x1 ISZERO ISZERO DUP2 PUSH1 0x3 ADD PUSH1 0x0 SWAP1 SLOAD SWAP1 PUSH2 0x100 EXP SWAP1 DIV PUSH1 0xFF AND ISZERO ISZERO EQ PUSH2 0x943 JUMPI PUSH1 0x40 MLOAD PUSH32 0x8C379A000000000000000000000000000000000000000000000000000000000 DUP2 MSTORE PUSH1 0x4 ADD PUSH2 0x93A SWAP1 PUSH2 0x1688 JUMP JUMPDEST PUSH1 0x40 MLOAD DUP1 SWAP2 SUB SWAP1 REVERT JUMPDEST DUP2 DUP2 PUSH1 0x2 ADD SLOAD LT ISZERO PUSH2 0x98A JUMPI PUSH1 0x40 MLOAD PUSH32 0x8C379A000000000000000000000000000000000000000000000000000000000 DUP2 MSTORE PUSH1 0x4 ADD PUSH2 0x981 SWAP1 PUSH2 0x16F4 JUMP JUMPDEST PUSH1 0x40 MLOAD DUP1 SWAP2 SUB SWAP1 REVERT JUMPDEST DUP2 DUP2 PUSH1 0x2 ADD PUSH1 0x0 DUP3 DUP3 SLOAD PUSH2 0x99E SWAP2 SWAP1 PUSH2 0x1714 JUMP JUMPDEST SWAP3 POP POP DUP2 SWAP1 SSTORE POP DUP2 DUP2 PUSH1 0x1 ADD PUSH1 0x0 DUP3 DUP3 SLOAD PUSH2 0x9B9 SWAP2 SWAP1 PUSH2 0x1714 JUMP JUMPDEST SWAP3 POP POP DUP2 SWAP1 SSTORE POP CALLER PUSH20 0xFFFFFFFFFFFFFFFFFFFFFFFFFFFFFFFFFFFFFFFF AND PUSH2 0x8FC DUP4 SWAP1 DUP2 ISZERO MUL SWAP1 PUSH1 0x40 MLOAD PUSH1 0x0 PUSH1 0x40 MLOAD DUP1 DUP4 SUB DUP2 DUP6 DUP9 DUP9 CALL SWAP4 POP POP POP POP ISZERO DUP1 ISZERO PUSH2 0xA06 JUMPI RETURNDATASIZE PUSH1 0x0 DUP1 RETURNDATACOPY RETURNDATASIZE PUSH1 0x0 REVERT JUMPDEST POP PUSH1 0x0 DUP2 PUSH1 0x2 ADD SLOAD EQ PUSH2 0xA34 JUMPI PUSH1 0x1 DUP2 PUSH1 0x3 ADD PUSH1 0x0 PUSH2 0x100 EXP DUP2 SLOAD DUP2 PUSH1 0xFF MUL NOT AND SWAP1 DUP4 ISZERO ISZERO MUL OR SWAP1 SSTORE PUSH2 0xA51 JUMP JUMPDEST PUSH1 0x0 DUP2 PUSH1 0x3 ADD PUSH1 0x0 PUSH2 0x100 EXP DUP2 SLOAD DUP2 PUSH1 0xFF MUL NOT AND SWAP1 DUP4 ISZERO ISZERO MUL OR SWAP1 SSTORE JUMPDEST POP PUSH32 0xEAD5D35910F3E2D6B0422579A65A204AC86CDEB6A6C0436657A33A90D397FB53 CALLER DUP4 DUP4 PUSH1 0x3 ADD PUSH1 0x0 SWAP1 SLOAD SWAP1 PUSH2 0x100 EXP SWAP1 DIV PUSH1 0xFF AND PUSH1 0x40 MLOAD PUSH2 0xA96 SWAP4 SWAP3 SWAP2 SWAP1 PUSH2 0x1748 JUMP JUMPDEST PUSH1 0x40 MLOAD DUP1 SWAP2 SUB SWAP1 LOG1 POP POP JUMP JUMPDEST PUSH1 0x0 PUSH1 0x2 PUSH1 0x0 CALLER PUSH20 0xFFFFFFFFFFFFFFFFFFFFFFFFFFFFFFFFFFFFFFFF AND PUSH20 0xFFFFFFFFFFFFFFFFFFFFFFFFFFFFFFFFFFFFFFFF AND DUP2 MSTORE PUSH1 0x20 ADD SWAP1 DUP2 MSTORE PUSH1 0x20 ADD PUSH1 0x0 KECCAK256 SWAP1 POP PUSH1 0x1 ISZERO ISZERO DUP2 PUSH1 0x3 ADD PUSH1 0x0 SWAP1 SLOAD SWAP1 PUSH2 0x100 EXP SWAP1 DIV PUSH1 0xFF AND ISZERO ISZERO EQ PUSH2 0xB3D JUMPI PUSH1 0x40 MLOAD PUSH32 0x8C379A000000000000000000000000000000000000000000000000000000000 DUP2 MSTORE PUSH1 0x4 ADD PUSH2 0xB34 SWAP1 PUSH2 0x1688 JUMP JUMPDEST PUSH1 0x40 MLOAD DUP1 SWAP2 SUB SWAP1 REVERT JUMPDEST PUSH1 0x0 DUP2 PUSH1 0x2 ADD SLOAD EQ ISZERO PUSH2 0xB85 JUMPI PUSH1 0x40 MLOAD PUSH32 0x8C379A000000000000000000000000000000000000000000000000000000000 DUP2 MSTORE PUSH1 0x4 ADD PUSH2 0xB7C SWAP1 PUSH2 0x17CB JUMP JUMPDEST PUSH1 0x40 MLOAD DUP1 SWAP2 SUB SWAP1 REVERT JUMPDEST PUSH1 0x0 DUP2 PUSH1 0x2 ADD SLOAD SWAP1 POP PUSH1 0x0 DUP3 PUSH1 0x2 ADD DUP2 SWAP1 SSTORE POP PUSH1 0x0 DUP3 PUSH1 0x3 ADD PUSH1 0x0 PUSH2 0x100 EXP DUP2 SLOAD DUP2 PUSH1 0xFF MUL NOT AND SWAP1 DUP4 ISZERO ISZERO MUL OR SWAP1 SSTORE POP CALLER PUSH20 0xFFFFFFFFFFFFFFFFFFFFFFFFFFFFFFFFFFFFFFFF AND PUSH2 0x8FC DUP3 SWAP1 DUP2 ISZERO MUL SWAP1 PUSH1 0x40 MLOAD PUSH1 0x0 PUSH1 0x40 MLOAD DUP1 DUP4 SUB DUP2 DUP6 DUP9 DUP9 CALL SWAP4 POP POP POP POP ISZERO DUP1 ISZERO PUSH2 0xBFB JUMPI RETURNDATASIZE PUSH1 0x0 DUP1 RETURNDATACOPY RETURNDATASIZE PUSH1 0x0 REVERT JUMPDEST POP PUSH32 0xEAD5D35910F3E2D6B0422579A65A204AC86CDEB6A6C0436657A33A90D397FB53 CALLER DUP3 DUP5 PUSH1 0x3 ADD PUSH1 0x0 SWAP1 SLOAD SWAP1 PUSH2 0x100 EXP SWAP1 DIV PUSH1 0xFF AND PUSH1 0x40 MLOAD PUSH2 0xC40 SWAP4 SWAP3 SWAP2 SWAP1 PUSH2 0x1748 JUMP JUMPDEST PUSH1 0x40 MLOAD DUP1 SWAP2 SUB SWAP1 LOG1 POP POP JUMP JUMPDEST PUSH1 0x2 PUSH1 0x20 MSTORE DUP1 PUSH1 0x0 MSTORE PUSH1 0x40 PUSH1 0x0 KECCAK256 PUSH1 0x0 SWAP2 POP SWAP1 POP DUP1 PUSH1 0x0 ADD DUP1 SLOAD PUSH2 0xC6F SWAP1 PUSH2 0x13D5 JUMP JUMPDEST DUP1 PUSH1 0x1F ADD PUSH1 0x20 DUP1 SWAP2 DIV MUL PUSH1 0x20 ADD PUSH1 0x40 MLOAD SWAP1 DUP2 ADD PUSH1 0x40 MSTORE DUP1 SWAP3 SWAP2 SWAP1 DUP2 DUP2 MSTORE PUSH1 0x20 ADD DUP3 DUP1 SLOAD PUSH2 0xC9B SWAP1 PUSH2 0x13D5 JUMP JUMPDEST DUP1 ISZERO PUSH2 0xCE8 JUMPI DUP1 PUSH1 0x1F LT PUSH2 0xCBD JUMPI PUSH2 0x100 DUP1 DUP4 SLOAD DIV MUL DUP4 MSTORE SWAP2 PUSH1 0x20 ADD SWAP2 PUSH2 0xCE8 JUMP JUMPDEST DUP3 ADD SWAP2 SWAP1 PUSH1 0x0 MSTORE PUSH1 0x20 PUSH1 0x0 KECCAK256 SWAP1 JUMPDEST DUP2 SLOAD DUP2 MSTORE SWAP1 PUSH1 0x1 ADD SWAP1 PUSH1 0x20 ADD DUP1 DUP4 GT PUSH2 0xCCB JUMPI DUP3 SWAP1 SUB PUSH1 0x1F AND DUP3 ADD SWAP2 JUMPDEST POP POP POP POP POP SWAP1 DUP1 PUSH1 0x1 ADD SLOAD SWAP1 DUP1 PUSH1 0x2 ADD SLOAD SWAP1 DUP1 PUSH1 0x3 ADD PUSH1 0x0 SWAP1 SLOAD SWAP1 PUSH2 0x100 EXP SWAP1 DIV PUSH1 0xFF AND SWAP1 POP DUP5 JUMP JUMPDEST PUSH1 0x0 PUSH1 0x2 PUSH1 0x0 CALLER PUSH20 0xFFFFFFFFFFFFFFFFFFFFFFFFFFFFFFFFFFFFFFFF AND PUSH20 0xFFFFFFFFFFFFFFFFFFFFFFFFFFFFFFFFFFFFFFFF AND DUP2 MSTORE PUSH1 0x20 ADD SWAP1 DUP2 MSTORE PUSH1 0x20 ADD PUSH1 0x0 KECCAK256 SWAP1 POP DUP2 DUP2 PUSH1 0x1 ADD DUP2 SWAP1 SSTORE POP DUP3 DUP2 PUSH1 0x0 ADD SWAP1 DUP1 MLOAD SWAP1 PUSH1 0x20 ADD SWAP1 PUSH2 0xD75 SWAP3 SWAP2 SWAP1 PUSH2 0xE3E JUMP JUMPDEST POP PUSH32 0xF69A88136BB57871F0559F33E167C9CC90ED27FB806571F9BD595CCEA4200082 CALLER DUP5 DUP5 PUSH1 0x40 MLOAD PUSH2 0xDA9 SWAP4 SWAP3 SWAP2 SWAP1 PUSH2 0x17EB JUMP JUMPDEST PUSH1 0x40 MLOAD DUP1 SWAP2 SUB SWAP1 LOG1 POP POP POP JUMP JUMPDEST PUSH1 0x0 DUP1 PUSH1 0x2 PUSH1 0x0 DUP5 PUSH20 0xFFFFFFFFFFFFFFFFFFFFFFFFFFFFFFFFFFFFFFFF AND PUSH20 0xFFFFFFFFFFFFFFFFFFFFFFFFFFFFFFFFFFFFFFFF AND DUP2 MSTORE PUSH1 0x20 ADD SWAP1 DUP2 MSTORE PUSH1 0x20 ADD PUSH1 0x0 KECCAK256 SWAP1 POP DUP1 PUSH1 0x3 ADD PUSH1 0x0 SWAP1 SLOAD SWAP1 PUSH2 0x100 EXP SWAP1 DIV PUSH1 0xFF AND SWAP2 POP POP SWAP2 SWAP1 POP JUMP JUMPDEST PUSH1 0x40 MLOAD DUP1 PUSH1 0x80 ADD PUSH1 0x40 MSTORE DUP1 PUSH1 0x60 DUP2 MSTORE PUSH1 0x20 ADD PUSH1 0x0 DUP2 MSTORE PUSH1 0x20 ADD PUSH1 0x0 DUP2 MSTORE PUSH1 0x20 ADD PUSH1 0x0 ISZERO ISZERO DUP2 MSTORE POP SWAP1 JUMP JUMPDEST DUP3 DUP1 SLOAD PUSH2 0xE4A SWAP1 PUSH2 0x13D5 JUMP JUMPDEST SWAP1 PUSH1 0x0 MSTORE PUSH1 0x20 PUSH1 0x0 KECCAK256 SWAP1 PUSH1 0x1F ADD PUSH1 0x20 SWAP1 DIV DUP2 ADD SWAP3 DUP3 PUSH2 0xE6C JUMPI PUSH1 0x0 DUP6 SSTORE PUSH2 0xEB3 JUMP JUMPDEST DUP3 PUSH1 0x1F LT PUSH2 0xE85 JUMPI DUP1 MLOAD PUSH1 0xFF NOT AND DUP4 DUP1 ADD OR DUP6 SSTORE PUSH2 0xEB3 JUMP JUMPDEST DUP3 DUP1 ADD PUSH1 0x1 ADD DUP6 SSTORE DUP3 ISZERO PUSH2 0xEB3 JUMPI SWAP2 DUP3 ADD JUMPDEST DUP3 DUP2 GT ISZERO PUSH2 0xEB2 JUMPI DUP3 MLOAD DUP3 SSTORE SWAP2 PUSH1 0x20 ADD SWAP2 SWAP1 PUSH1 0x1 ADD SWAP1 PUSH2 0xE97 JUMP JUMPDEST JUMPDEST POP SWAP1 POP PUSH2 0xEC0 SWAP2 SWAP1 PUSH2 0xEC4 JUMP JUMPDEST POP SWAP1 JUMP JUMPDEST JUMPDEST DUP1 DUP3 GT ISZERO PUSH2 0xEDD JUMPI PUSH1 0x0 DUP2 PUSH1 0x0 SWAP1 SSTORE POP PUSH1 0x1 ADD PUSH2 0xEC5 JUMP JUMPDEST POP SWAP1 JUMP JUMPDEST PUSH1 0x0 PUSH1 0x40 MLOAD SWAP1 POP SWAP1 JUMP JUMPDEST PUSH1 0x0 DUP1 REVERT JUMPDEST PUSH1 0x0 DUP1 REVERT JUMPDEST PUSH1 0x0 PUSH20 0xFFFFFFFFFFFFFFFFFFFFFFFFFFFFFFFFFFFFFFFF DUP3 AND SWAP1 POP SWAP2 SWAP1 POP JUMP JUMPDEST PUSH1 0x0 PUSH2 0xF20 DUP3 PUSH2 0xEF5 JUMP JUMPDEST SWAP1 POP SWAP2 SWAP1 POP JUMP JUMPDEST PUSH2 0xF30 DUP2 PUSH2 0xF15 JUMP JUMPDEST DUP2 EQ PUSH2 0xF3B JUMPI PUSH1 0x0 DUP1 REVERT JUMPDEST POP JUMP JUMPDEST PUSH1 0x0 DUP2 CALLDATALOAD SWAP1 POP PUSH2 0xF4D DUP2 PUSH2 0xF27 JUMP JUMPDEST SWAP3 SWAP2 POP POP JUMP JUMPDEST PUSH1 0x0 PUSH1 0x20 DUP3 DUP5 SUB SLT ISZERO PUSH2 0xF69 JUMPI PUSH2 0xF68 PUSH2 0xEEB JUMP JUMPDEST JUMPDEST PUSH1 0x0 PUSH2 0xF77 DUP5 DUP3 DUP6 ADD PUSH2 0xF3E JUMP JUMPDEST SWAP2 POP POP SWAP3 SWAP2 POP POP JUMP JUMPDEST PUSH1 0x0 DUP2 SWAP1 POP SWAP2 SWAP1 POP JUMP JUMPDEST PUSH2 0xF93 DUP2 PUSH2 0xF80 JUMP JUMPDEST DUP3 MSTORE POP POP JUMP JUMPDEST PUSH1 0x0 PUSH1 0x20 DUP3 ADD SWAP1 POP PUSH2 0xFAE PUSH1 0x0 DUP4 ADD DUP5 PUSH2 0xF8A JUMP JUMPDEST SWAP3 SWAP2 POP POP JUMP JUMPDEST PUSH1 0x0 DUP2 MLOAD SWAP1 POP SWAP2 SWAP1 POP JUMP JUMPDEST PUSH1 0x0 DUP3 DUP3 MSTORE PUSH1 0x20 DUP3 ADD SWAP1 POP SWAP3 SWAP2 POP POP JUMP JUMPDEST PUSH1 0x0 JUMPDEST DUP4 DUP2 LT ISZERO PUSH2 0xFEE JUMPI DUP1 DUP3 ADD MLOAD DUP2 DUP5 ADD MSTORE PUSH1 0x20 DUP2 ADD SWAP1 POP PUSH2 0xFD3 JUMP JUMPDEST DUP4 DUP2 GT ISZERO PUSH2 0xFFD JUMPI PUSH1 0x0 DUP5 DUP5 ADD MSTORE JUMPDEST POP POP POP POP JUMP JUMPDEST PUSH1 0x0 PUSH1 0x1F NOT PUSH1 0x1F DUP4 ADD AND SWAP1 POP SWAP2 SWAP1 POP JUMP JUMPDEST PUSH1 0x0 PUSH2 0x101F DUP3 PUSH2 0xFB4 JUMP JUMPDEST PUSH2 0x1029 DUP2 DUP6 PUSH2 0xFBF JUMP JUMPDEST SWAP4 POP PUSH2 0x1039 DUP2 DUP6 PUSH1 0x20 DUP7 ADD PUSH2 0xFD0 JUMP JUMPDEST PUSH2 0x1042 DUP2 PUSH2 0x1003 JUMP JUMPDEST DUP5 ADD SWAP2 POP POP SWAP3 SWAP2 POP POP JUMP JUMPDEST PUSH2 0x1056 DUP2 PUSH2 0xF80 JUMP JUMPDEST DUP3 MSTORE POP POP JUMP JUMPDEST PUSH1 0x0 DUP2 ISZERO ISZERO SWAP1 POP SWAP2 SWAP1 POP JUMP JUMPDEST PUSH2 0x1071 DUP2 PUSH2 0x105C JUMP JUMPDEST DUP3 MSTORE POP POP JUMP JUMPDEST PUSH1 0x0 PUSH1 0x80 DUP4 ADD PUSH1 0x0 DUP4 ADD MLOAD DUP5 DUP3 SUB PUSH1 0x0 DUP7 ADD MSTORE PUSH2 0x1094 DUP3 DUP3 PUSH2 0x1014 JUMP JUMPDEST SWAP2 POP POP PUSH1 0x20 DUP4 ADD MLOAD PUSH2 0x10A9 PUSH1 0x20 DUP7 ADD DUP3 PUSH2 0x104D JUMP JUMPDEST POP PUSH1 0x40 DUP4 ADD MLOAD PUSH2 0x10BC PUSH1 0x40 DUP7 ADD DUP3 PUSH2 0x104D JUMP JUMPDEST POP PUSH1 0x60 DUP4 ADD MLOAD PUSH2 0x10CF PUSH1 0x60 DUP7 ADD DUP3 PUSH2 0x1068 JUMP JUMPDEST POP DUP1 SWAP2 POP POP SWAP3 SWAP2 POP POP JUMP JUMPDEST PUSH1 0x0 PUSH1 0x20 DUP3 ADD SWAP1 POP DUP2 DUP2 SUB PUSH1 0x0 DUP4 ADD MSTORE PUSH2 0x10F4 DUP2 DUP5 PUSH2 0x1077 JUMP JUMPDEST SWAP1 POP SWAP3 SWAP2 POP POP JUMP JUMPDEST PUSH2 0x1105 DUP2 PUSH2 0x105C JUMP JUMPDEST DUP3 MSTORE POP POP JUMP JUMPDEST PUSH1 0x0 PUSH1 0x20 DUP3 ADD SWAP1 POP PUSH2 0x1120 PUSH1 0x0 DUP4 ADD DUP5 PUSH2 0x10FC JUMP JUMPDEST SWAP3 SWAP2 POP POP JUMP JUMPDEST PUSH2 0x112F DUP2 PUSH2 0xF80 JUMP JUMPDEST DUP2 EQ PUSH2 0x113A JUMPI PUSH1 0x0 DUP1 REVERT JUMPDEST POP JUMP JUMPDEST PUSH1 0x0 DUP2 CALLDATALOAD SWAP1 POP PUSH2 0x114C DUP2 PUSH2 0x1126 JUMP JUMPDEST SWAP3 SWAP2 POP POP JUMP JUMPDEST PUSH1 0x0 PUSH1 0x20 DUP3 DUP5 SUB SLT ISZERO PUSH2 0x1168 JUMPI PUSH2 0x1167 PUSH2 0xEEB JUMP JUMPDEST JUMPDEST PUSH1 0x0 PUSH2 0x1176 DUP5 DUP3 DUP6 ADD PUSH2 0x113D JUMP JUMPDEST SWAP2 POP POP SWAP3 SWAP2 POP POP JUMP JUMPDEST PUSH1 0x0 DUP3 DUP3 MSTORE PUSH1 0x20 DUP3 ADD SWAP1 POP SWAP3 SWAP2 POP POP JUMP JUMPDEST PUSH1 0x0 PUSH2 0x119B DUP3 PUSH2 0xFB4 JUMP JUMPDEST PUSH2 0x11A5 DUP2 DUP6 PUSH2 0x117F JUMP JUMPDEST SWAP4 POP PUSH2 0x11B5 DUP2 DUP6 PUSH1 0x20 DUP7 ADD PUSH2 0xFD0 JUMP JUMPDEST PUSH2 0x11BE DUP2 PUSH2 0x1003 JUMP JUMPDEST DUP5 ADD SWAP2 POP POP SWAP3 SWAP2 POP POP JUMP JUMPDEST PUSH1 0x0 PUSH1 0x80 DUP3 ADD SWAP1 POP DUP2 DUP2 SUB PUSH1 0x0 DUP4 ADD MSTORE PUSH2 0x11E3 DUP2 DUP8 PUSH2 0x1190 JUMP JUMPDEST SWAP1 POP PUSH2 0x11F2 PUSH1 0x20 DUP4 ADD DUP7 PUSH2 0xF8A JUMP JUMPDEST PUSH2 0x11FF PUSH1 0x40 DUP4 ADD DUP6 PUSH2 0xF8A JUMP JUMPDEST PUSH2 0x120C PUSH1 0x60 DUP4 ADD DUP5 PUSH2 0x10FC JUMP JUMPDEST SWAP6 SWAP5 POP POP POP POP POP JUMP JUMPDEST PUSH1 0x0 DUP1 REVERT JUMPDEST PUSH1 0x0 DUP1 REVERT JUMPDEST PUSH32 0x4E487B7100000000000000000000000000000000000000000000000000000000 PUSH1 0x0 MSTORE PUSH1 0x41 PUSH1 0x4 MSTORE PUSH1 0x24 PUSH1 0x0 REVERT JUMPDEST PUSH2 0x1257 DUP3 PUSH2 0x1003 JUMP JUMPDEST DUP2 ADD DUP2 DUP2 LT PUSH8 0xFFFFFFFFFFFFFFFF DUP3 GT OR ISZERO PUSH2 0x1276 JUMPI PUSH2 0x1275 PUSH2 0x121F JUMP JUMPDEST JUMPDEST DUP1 PUSH1 0x40 MSTORE POP POP POP JUMP JUMPDEST PUSH1 0x0 PUSH2 0x1289 PUSH2 0xEE1 JUMP JUMPDEST SWAP1 POP PUSH2 0x1295 DUP3 DUP3 PUSH2 0x124E JUMP JUMPDEST SWAP2 SWAP1 POP JUMP JUMPDEST PUSH1 0x0 PUSH8 0xFFFFFFFFFFFFFFFF DUP3 GT ISZERO PUSH2 0x12B5 JUMPI PUSH2 0x12B4 PUSH2 0x121F JUMP JUMPDEST JUMPDEST PUSH2 0x12BE DUP3 PUSH2 0x1003 JUMP JUMPDEST SWAP1 POP PUSH1 0x20 DUP2 ADD SWAP1 POP SWAP2 SWAP1 POP JUMP JUMPDEST DUP3 DUP2 DUP4 CALLDATACOPY PUSH1 0x0 DUP4 DUP4 ADD MSTORE POP POP POP JUMP JUMPDEST PUSH1 0x0 PUSH2 0x12ED PUSH2 0x12E8 DUP5 PUSH2 0x129A JUMP JUMPDEST PUSH2 0x127F JUMP JUMPDEST SWAP1 POP DUP3 DUP2 MSTORE PUSH1 0x20 DUP2 ADD DUP5 DUP5 DUP5 ADD GT ISZERO PUSH2 0x1309 JUMPI PUSH2 0x1308 PUSH2 0x121A JUMP JUMPDEST JUMPDEST PUSH2 0x1314 DUP5 DUP3 DUP6 PUSH2 0x12CB JUMP JUMPDEST POP SWAP4 SWAP3 POP POP POP JUMP JUMPDEST PUSH1 0x0 DUP3 PUSH1 0x1F DUP4 ADD SLT PUSH2 0x1331 JUMPI PUSH2 0x1330 PUSH2 0x1215 JUMP JUMPDEST JUMPDEST DUP2 CALLDATALOAD PUSH2 0x1341 DUP5 DUP3 PUSH1 0x20 DUP7 ADD PUSH2 0x12DA JUMP JUMPDEST SWAP2 POP POP SWAP3 SWAP2 POP POP JUMP JUMPDEST PUSH1 0x0 DUP1 PUSH1 0x40 DUP4 DUP6 SUB SLT ISZERO PUSH2 0x1361 JUMPI PUSH2 0x1360 PUSH2 0xEEB JUMP JUMPDEST JUMPDEST PUSH1 0x0 DUP4 ADD CALLDATALOAD PUSH8 0xFFFFFFFFFFFFFFFF DUP2 GT ISZERO PUSH2 0x137F JUMPI PUSH2 0x137E PUSH2 0xEF0 JUMP JUMPDEST JUMPDEST PUSH2 0x138B DUP6 DUP3 DUP7 ADD PUSH2 0x131C JUMP JUMPDEST SWAP3 POP POP PUSH1 0x20 PUSH2 0x139C DUP6 DUP3 DUP7 ADD PUSH2 0x113D JUMP JUMPDEST SWAP2 POP POP SWAP3 POP SWAP3 SWAP1 POP JUMP JUMPDEST PUSH32 0x4E487B7100000000000000000000000000000000000000000000000000000000 PUSH1 0x0 MSTORE PUSH1 0x22 PUSH1 0x4 MSTORE PUSH1 0x24 PUSH1 0x0 REVERT JUMPDEST PUSH1 0x0 PUSH1 0x2 DUP3 DIV SWAP1 POP PUSH1 0x1 DUP3 AND DUP1 PUSH2 0x13ED JUMPI PUSH1 0x7F DUP3 AND SWAP2 POP JUMPDEST PUSH1 0x20 DUP3 LT DUP2 EQ ISZERO PUSH2 0x1401 JUMPI PUSH2 0x1400 PUSH2 0x13A6 JUMP JUMPDEST JUMPDEST POP SWAP2 SWAP1 POP JUMP JUMPDEST PUSH32 0x796F752063616E2774207472616E7366657220302076616C7565000000000000 PUSH1 0x0 DUP3 ADD MSTORE POP JUMP JUMPDEST PUSH1 0x0 PUSH2 0x143D PUSH1 0x1A DUP4 PUSH2 0x117F JUMP JUMPDEST SWAP2 POP PUSH2 0x1448 DUP3 PUSH2 0x1407 JUMP JUMPDEST PUSH1 0x20 DUP3 ADD SWAP1 POP SWAP2 SWAP1 POP JUMP JUMPDEST PUSH1 0x0 PUSH1 0x20 DUP3 ADD SWAP1 POP DUP2 DUP2 SUB PUSH1 0x0 DUP4 ADD MSTORE PUSH2 0x146C DUP2 PUSH2 0x1430 JUMP JUMPDEST SWAP1 POP SWAP2 SWAP1 POP JUMP JUMPDEST PUSH32 0x7468697320646F6E6174696F6E206973206E6F206C6F6E67657220617661696C PUSH1 0x0 DUP3 ADD MSTORE PUSH32 0x61626C6500000000000000000000000000000000000000000000000000000000 PUSH1 0x20 DUP3 ADD MSTORE POP JUMP JUMPDEST PUSH1 0x0 PUSH2 0x14CF PUSH1 0x24 DUP4 PUSH2 0x117F JUMP JUMPDEST SWAP2 POP PUSH2 0x14DA DUP3 PUSH2 0x1473 JUMP JUMPDEST PUSH1 0x40 DUP3 ADD SWAP1 POP SWAP2 SWAP1 POP JUMP JUMPDEST PUSH1 0x0 PUSH1 0x20 DUP3 ADD SWAP1 POP DUP2 DUP2 SUB PUSH1 0x0 DUP4 ADD MSTORE PUSH2 0x14FE DUP2 PUSH2 0x14C2 JUMP JUMPDEST SWAP1 POP SWAP2 SWAP1 POP JUMP JUMPDEST PUSH32 0x74617267657420726561636865616420666F7220746869732066756E64000000 PUSH1 0x0 DUP3 ADD MSTORE POP JUMP JUMPDEST PUSH1 0x0 PUSH2 0x153B PUSH1 0x1D DUP4 PUSH2 0x117F JUMP JUMPDEST SWAP2 POP PUSH2 0x1546 DUP3 PUSH2 0x1505 JUMP JUMPDEST PUSH1 0x20 DUP3 ADD SWAP1 POP SWAP2 SWAP1 POP JUMP JUMPDEST PUSH1 0x0 PUSH1 0x20 DUP3 ADD SWAP1 POP DUP2 DUP2 SUB PUSH1 0x0 DUP4 ADD MSTORE PUSH2 0x156A DUP2 PUSH2 0x152E JUMP JUMPDEST SWAP1 POP SWAP2 SWAP1 POP JUMP JUMPDEST PUSH32 0x4E487B7100000000000000000000000000000000000000000000000000000000 PUSH1 0x0 MSTORE PUSH1 0x11 PUSH1 0x4 MSTORE PUSH1 0x24 PUSH1 0x0 REVERT JUMPDEST PUSH1 0x0 PUSH2 0x15AB DUP3 PUSH2 0xF80 JUMP JUMPDEST SWAP2 POP PUSH2 0x15B6 DUP4 PUSH2 0xF80 JUMP JUMPDEST SWAP3 POP DUP3 PUSH32 0xFFFFFFFFFFFFFFFFFFFFFFFFFFFFFFFFFFFFFFFFFFFFFFFFFFFFFFFFFFFFFFFF SUB DUP3 GT ISZERO PUSH2 0x15EB JUMPI PUSH2 0x15EA PUSH2 0x1571 JUMP JUMPDEST JUMPDEST DUP3 DUP3 ADD SWAP1 POP SWAP3 SWAP2 POP POP JUMP JUMPDEST PUSH2 0x15FF DUP2 PUSH2 0xF15 JUMP JUMPDEST DUP3 MSTORE POP POP JUMP JUMPDEST PUSH1 0x0 PUSH1 0x60 DUP3 ADD SWAP1 POP PUSH2 0x161A PUSH1 0x0 DUP4 ADD DUP7 PUSH2 0x15F6 JUMP JUMPDEST PUSH2 0x1627 PUSH1 0x20 DUP4 ADD DUP6 PUSH2 0x15F6 JUMP JUMPDEST PUSH2 0x1634 PUSH1 0x40 DUP4 ADD DUP5 PUSH2 0xF8A JUMP JUMPDEST SWAP5 SWAP4 POP POP POP POP JUMP JUMPDEST PUSH32 0x4E6F207265717565737420666F722066756E64206D6164650000000000000000 PUSH1 0x0 DUP3 ADD MSTORE POP JUMP JUMPDEST PUSH1 0x0 PUSH2 0x1672 PUSH1 0x18 DUP4 PUSH2 0x117F JUMP JUMPDEST SWAP2 POP PUSH2 0x167D DUP3 PUSH2 0x163C JUMP JUMPDEST PUSH1 0x20 DUP3 ADD SWAP1 POP SWAP2 SWAP1 POP JUMP JUMPDEST PUSH1 0x0 PUSH1 0x20 DUP3 ADD SWAP1 POP DUP2 DUP2 SUB PUSH1 0x0 DUP4 ADD MSTORE PUSH2 0x16A1 DUP2 PUSH2 0x1665 JUMP JUMPDEST SWAP1 POP SWAP2 SWAP1 POP JUMP JUMPDEST PUSH32 0x696E73756666696369656E742066756E64730000000000000000000000000000 PUSH1 0x0 DUP3 ADD MSTORE POP JUMP JUMPDEST PUSH1 0x0 PUSH2 0x16DE PUSH1 0x12 DUP4 PUSH2 0x117F JUMP JUMPDEST SWAP2 POP PUSH2 0x16E9 DUP3 PUSH2 0x16A8 JUMP JUMPDEST PUSH1 0x20 DUP3 ADD SWAP1 POP SWAP2 SWAP1 POP JUMP JUMPDEST PUSH1 0x0 PUSH1 0x20 DUP3 ADD SWAP1 POP DUP2 DUP2 SUB PUSH1 0x0 DUP4 ADD MSTORE PUSH2 0x170D DUP2 PUSH2 0x16D1 JUMP JUMPDEST SWAP1 POP SWAP2 SWAP1 POP JUMP JUMPDEST PUSH1 0x0 PUSH2 0x171F DUP3 PUSH2 0xF80 JUMP JUMPDEST SWAP2 POP PUSH2 0x172A DUP4 PUSH2 0xF80 JUMP JUMPDEST SWAP3 POP DUP3 DUP3 LT ISZERO PUSH2 0x173D JUMPI PUSH2 0x173C PUSH2 0x1571 JUMP JUMPDEST JUMPDEST DUP3 DUP3 SUB SWAP1 POP SWAP3 SWAP2 POP POP JUMP JUMPDEST PUSH1 0x0 PUSH1 0x60 DUP3 ADD SWAP1 POP PUSH2 0x175D PUSH1 0x0 DUP4 ADD DUP7 PUSH2 0x15F6 JUMP JUMPDEST PUSH2 0x176A PUSH1 0x20 DUP4 ADD DUP6 PUSH2 0xF8A JUMP JUMPDEST PUSH2 0x1777 PUSH1 0x40 DUP4 ADD DUP5 PUSH2 0x10FC JUMP JUMPDEST SWAP5 SWAP4 POP POP POP POP JUMP JUMPDEST PUSH32 0x4E4F2066756E64732072616973656420666F7220796F75000000000000000000 PUSH1 0x0 DUP3 ADD MSTORE POP JUMP JUMPDEST PUSH1 0x0 PUSH2 0x17B5 PUSH1 0x17 DUP4 PUSH2 0x117F JUMP JUMPDEST SWAP2 POP PUSH2 0x17C0 DUP3 PUSH2 0x177F JUMP JUMPDEST PUSH1 0x20 DUP3 ADD SWAP1 POP SWAP2 SWAP1 POP JUMP JUMPDEST PUSH1 0x0 PUSH1 0x20 DUP3 ADD SWAP1 POP DUP2 DUP2 SUB PUSH1 0x0 DUP4 ADD MSTORE PUSH2 0x17E4 DUP2 PUSH2 0x17A8 JUMP JUMPDEST SWAP1 POP SWAP2 SWAP1 POP JUMP JUMPDEST PUSH1 0x0 PUSH1 0x60 DUP3 ADD SWAP1 POP PUSH2 0x1800 PUSH1 0x0 DUP4 ADD DUP7 PUSH2 0x15F6 JUMP JUMPDEST DUP2 DUP2 SUB PUSH1 0x20 DUP4 ADD MSTORE PUSH2 0x1812 DUP2 DUP6 PUSH2 0x1190 JUMP JUMPDEST SWAP1 POP PUSH2 0x1821 PUSH1 0x40 DUP4 ADD DUP5 PUSH2 0xF8A JUMP JUMPDEST SWAP5 SWAP4 POP POP POP POP JUMP INVALID LOG2 PUSH5 0x6970667358 0x22 SLT KECCAK256 0xAC 0xB6 EQ EXTCODESIZE PUSH29 0x9A666A00ECFD05F5612E1215A7CF868A758ADDE6ADD9892B1B79516473 PUSH16 0x6C634300080A00330000000000000000 "
				},
				"gasEstimates": {
					"creation": {
						"codeDepositCost": "1247800",
						"executionCost": "infinite",
						"totalCost": "infinite"
					},
					"external": {
						"checkBalanceOf(address)": "2848",
						"checkBalanceOfContract()": "339",
						"donateFunds(address)": "infinite",
						"fundsprosps(address)": "infinite",
						"getBeneficiaryProps(address)": "infinite",
						"getBeneficiaryStatus(address)": "3012",
						"investors(address)": "2903",
						"requestFund(string,uint256)": "infinite",
						"setStatus(address)": "29390",
						"withdrawAll()": "infinite",
						"withdrawPart(uint256)": "infinite"
					}
				},
				"methodIdentifiers": {
					"checkBalanceOf(address)": "03147f39",
					"checkBalanceOfContract()": "7b9cd8c2",
					"donateFunds(address)": "4fb2d09d",
					"fundsprosps(address)": "b540795b",
					"getBeneficiaryProps(address)": "0e60bfad",
					"getBeneficiaryStatus(address)": "d5247dda",
					"investors(address)": "6f7bc9be",
					"requestFund(string,uint256)": "b7f1b3a4",
					"setStatus(address)": "14204dbb",
					"withdrawAll()": "853828b6",
					"withdrawPart(uint256)": "7daf06fd"
				}
			},
			"storageLayout": {
				"storage": [
					{
						"astId": 3,
						"contract": "backend/src/funder.sol:Funder",
						"label": "govToken",
						"offset": 0,
						"slot": "0",
						"type": "t_address"
					},
					{
						"astId": 5,
						"contract": "backend/src/funder.sol:Funder",
						"label": "govVoting",
						"offset": 0,
						"slot": "1",
						"type": "t_address"
					},
					{
						"astId": 19,
						"contract": "backend/src/funder.sol:Funder",
						"label": "fundsprosps",
						"offset": 0,
						"slot": "2",
						"type": "t_mapping(t_address,t_struct(FundProps)14_storage)"
					},
					{
						"astId": 23,
						"contract": "backend/src/funder.sol:Funder",
						"label": "investors",
						"offset": 0,
						"slot": "3",
						"type": "t_mapping(t_address,t_uint256)"
					},
					{
						"astId": 27,
						"contract": "backend/src/funder.sol:Funder",
						"label": "RequestStatus",
						"offset": 0,
						"slot": "4",
						"type": "t_mapping(t_address,t_uint256)"
					}
				],
				"types": {
					"t_address": {
						"encoding": "inplace",
						"label": "address",
						"numberOfBytes": "20"
					},
					"t_bool": {
						"encoding": "inplace",
						"label": "bool",
						"numberOfBytes": "1"
					},
					"t_mapping(t_address,t_struct(FundProps)14_storage)": {
						"encoding": "mapping",
						"key": "t_address",
						"label": "mapping(address => struct Funder.FundProps)",
						"numberOfBytes": "32",
						"value": "t_struct(FundProps)14_storage"
					},
					"t_mapping(t_address,t_uint256)": {
						"encoding": "mapping",
						"key": "t_address",
						"label": "mapping(address => uint256)",
						"numberOfBytes": "32",
						"value": "t_uint256"
					},
					"t_string_storage": {
						"encoding": "bytes",
						"label": "string",
						"numberOfBytes": "32"
					},
					"t_struct(FundProps)14_storage": {
						"encoding": "inplace",
						"label": "struct Funder.FundProps",
						"members": [
							{
								"astId": 7,
								"contract": "backend/src/funder.sol:Funder",
								"label": "Purpose",
								"offset": 0,
								"slot": "0",
								"type": "t_string_storage"
							},
							{
								"astId": 9,
								"contract": "backend/src/funder.sol:Funder",
								"label": "amount",
								"offset": 0,
								"slot": "1",
								"type": "t_uint256"
							},
							{
								"astId": 11,
								"contract": "backend/src/funder.sol:Funder",
								"label": "amountGenerared",
								"offset": 0,
								"slot": "2",
								"type": "t_uint256"
							},
							{
								"astId": 13,
								"contract": "backend/src/funder.sol:Funder",
								"label": "status",
								"offset": 0,
								"slot": "3",
								"type": "t_bool"
							}
						],
						"numberOfBytes": "128"
					},
					"t_uint256": {
						"encoding": "inplace",
						"label": "uint256",
						"numberOfBytes": "32"
					}
				}
			},
			"userdoc": {
				"kind": "user",
				"methods": {
					"checkBalanceOf(address)": {
						"notice": "check the amount generated by a beneficiary"
					},
					"donateFunds(address)": {
						"notice": "Donate Funds for a beneficiary"
					},
					"requestFund(string,uint256)": {
						"notice": "Construct the FundsProperty for a benficiary"
					},
					"withdrawAll()": {
						"notice": "Withdraw all money contributed on behalf of the msg.sender;"
					},
					"withdrawPart(uint256)": {
						"notice": "Construct an interest rate model"
					}
				},
				"version": 1
			}
		}
	}
}