{
  "abi": [
    {
      "inputs": [
        {
          "internalType": "string",
          "name": "name_",
          "type": "string"
        },
        {
          "internalType": "string",
          "name": "symbol_",
          "type": "string"
        }
      ],
      "stateMutability": "nonpayable",
      "type": "constructor"
    },
    {
      "anonymous": false,
      "inputs": [
        {
          "indexed": true,
          "internalType": "address",
          "name": "owner",
          "type": "address"
        },
        {
          "indexed": true,
          "internalType": "address",
          "name": "spender",
          "type": "address"
        },
        {
          "indexed": false,
          "internalType": "uint256",
          "name": "value",
          "type": "uint256"
        }
      ],
      "name": "Approval",
      "type": "event"
    },
    {
      "anonymous": false,
      "inputs": [
        {
          "indexed": true,
          "internalType": "address",
          "name": "from",
          "type": "address"
        },
        {
          "indexed": true,
          "internalType": "address",
          "name": "to",
          "type": "address"
        },
        {
          "indexed": false,
          "internalType": "uint256",
          "name": "value",
          "type": "uint256"
        }
      ],
      "name": "Transfer",
      "type": "event"
    },
    {
      "inputs": [
        {
          "internalType": "address",
          "name": "owner",
          "type": "address"
        },
        {
          "internalType": "address",
          "name": "spender",
          "type": "address"
        }
      ],
      "name": "allowance",
      "outputs": [
        {
          "internalType": "uint256",
          "name": "",
          "type": "uint256"
        }
      ],
      "stateMutability": "view",
      "type": "function"
    },
    {
      "inputs": [
        {
          "internalType": "address",
          "name": "spender",
          "type": "address"
        },
        {
          "internalType": "uint256",
          "name": "amount",
          "type": "uint256"
        }
      ],
      "name": "approve",
      "outputs": [
        {
          "internalType": "bool",
          "name": "",
          "type": "bool"
        }
      ],
      "stateMutability": "nonpayable",
      "type": "function"
    },
    {
      "inputs": [
        {
          "internalType": "address",
          "name": "account",
          "type": "address"
        }
      ],
      "name": "balanceOf",
      "outputs": [
        {
          "internalType": "uint256",
          "name": "",
          "type": "uint256"
        }
      ],
      "stateMutability": "view",
      "type": "function"
    },
    {
      "inputs": [],
      "name": "decimals",
      "outputs": [
        {
          "internalType": "uint8",
          "name": "",
          "type": "uint8"
        }
      ],
      "stateMutability": "view",
      "type": "function"
    },
    {
      "inputs": [
        {
          "internalType": "address",
          "name": "spender",
          "type": "address"
        },
        {
          "internalType": "uint256",
          "name": "subtractedValue",
          "type": "uint256"
        }
      ],
      "name": "decreaseAllowance",
      "outputs": [
        {
          "internalType": "bool",
          "name": "",
          "type": "bool"
        }
      ],
      "stateMutability": "nonpayable",
      "type": "function"
    },
    {
      "inputs": [
        {
          "internalType": "address",
          "name": "spender",
          "type": "address"
        },
        {
          "internalType": "uint256",
          "name": "addedValue",
          "type": "uint256"
        }
      ],
      "name": "increaseAllowance",
      "outputs": [
        {
          "internalType": "bool",
          "name": "",
          "type": "bool"
        }
      ],
      "stateMutability": "nonpayable",
      "type": "function"
    },
    {
      "inputs": [
        {
          "internalType": "uint256",
          "name": "_amount",
          "type": "uint256"
        },
        {
          "internalType": "address",
          "name": "castVote",
          "type": "address"
        }
      ],
      "name": "lockToken",
      "outputs": [],
      "stateMutability": "nonpayable",
      "type": "function"
    },
    {
      "inputs": [],
      "name": "name",
      "outputs": [
        {
          "internalType": "string",
          "name": "",
          "type": "string"
        }
      ],
      "stateMutability": "view",
      "type": "function"
    },
    {
      "inputs": [],
      "name": "symbol",
      "outputs": [
        {
          "internalType": "string",
          "name": "",
          "type": "string"
        }
      ],
      "stateMutability": "view",
      "type": "function"
    },
    {
      "inputs": [],
      "name": "totalSupply",
      "outputs": [
        {
          "internalType": "uint256",
          "name": "",
          "type": "uint256"
        }
      ],
      "stateMutability": "view",
      "type": "function"
    },
    {
      "inputs": [
        {
          "internalType": "address",
          "name": "to",
          "type": "address"
        },
        {
          "internalType": "uint256",
          "name": "amount",
          "type": "uint256"
        }
      ],
      "name": "transfer",
      "outputs": [
        {
          "internalType": "bool",
          "name": "",
          "type": "bool"
        }
      ],
      "stateMutability": "nonpayable",
      "type": "function"
    },
    {
      "inputs": [
        {
          "internalType": "address",
          "name": "from",
          "type": "address"
        },
        {
          "internalType": "address",
          "name": "to",
          "type": "address"
        },
        {
          "internalType": "uint256",
          "name": "amount",
          "type": "uint256"
        }
      ],
      "name": "transferFrom",
      "outputs": [
        {
          "internalType": "bool",
          "name": "",
          "type": "bool"
        }
      ],
      "stateMutability": "nonpayable",
      "type": "function"
    },
    {
      "inputs": [
        {
          "internalType": "address",
          "name": "holder",
          "type": "address"
        },
        {
          "internalType": "address",
          "name": "castVote",
          "type": "address"
        }
      ],
      "name": "unLockToken",
      "outputs": [],
      "stateMutability": "nonpayable",
      "type": "function"
    }
  ],
  "bytecode": {
    "object": "0x60806040523480156200001157600080fd5b5060405162000dd938038062000dd98339810160408190526200003491620002d8565b81516200004990600190602085019062000165565b5080516200005f90600290602084019062000165565b50620000763369d3c21bcecceda10000006200007e565b5050620003a6565b6001600160a01b038216620000d95760405162461bcd60e51b815260206004820152601f60248201527f45524332303a206d696e7420746f20746865207a65726f206164647265737300604482015260640160405180910390fd5b80600080828254620000ec919062000342565b90915550506001600160a01b038216600090815260046020526040812080548392906200011b90849062000342565b90915550506040518181526001600160a01b038316906000907fddf252ad1be2c89b69c2b068fc378daa952ba7f163c4a11628f55a4df523b3ef9060200160405180910390a35050565b828054620001739062000369565b90600052602060002090601f016020900481019282620001975760008555620001e2565b82601f10620001b257805160ff1916838001178555620001e2565b82800160010185558215620001e2579182015b82811115620001e2578251825591602001919060010190620001c5565b50620001f0929150620001f4565b5090565b5b80821115620001f05760008155600101620001f5565b634e487b7160e01b600052604160045260246000fd5b600082601f8301126200023357600080fd5b81516001600160401b03808211156200025057620002506200020b565b604051601f8301601f19908116603f011681019082821181831017156200027b576200027b6200020b565b816040528381526020925086838588010111156200029857600080fd5b600091505b83821015620002bc57858201830151818301840152908201906200029d565b83821115620002ce5760008385830101525b9695505050505050565b60008060408385031215620002ec57600080fd5b82516001600160401b03808211156200030457600080fd5b620003128683870162000221565b935060208501519150808211156200032957600080fd5b50620003388582860162000221565b9150509250929050565b600082198211156200036457634e487b7160e01b600052601160045260246000fd5b500190565b600181811c908216806200037e57607f821691505b60208210811415620003a057634e487b7160e01b600052602260045260246000fd5b50919050565b610a2380620003b66000396000f3fe608060405234801561001057600080fd5b50600436106100cf5760003560e01c806370a082311161008c578063a9059cbb11610066578063a9059cbb146101a0578063ad72c830146101b3578063cec1460b146101c8578063dd62ed3e146101db57600080fd5b806370a082311461015c57806395d89b4114610185578063a457c2d71461018d57600080fd5b806306fdde03146100d4578063095ea7b3146100f257806318160ddd1461011557806323b872dd14610127578063313ce5671461013a5780633950935114610149575b600080fd5b6100dc6101ee565b6040516100e9919061081e565b60405180910390f35b61010561010036600461088f565b610280565b60405190151581526020016100e9565b6000545b6040519081526020016100e9565b6101056101353660046108b9565b610298565b604051601281526020016100e9565b61010561015736600461088f565b6102bc565b61011961016a3660046108f5565b6001600160a01b031660009081526004602052604090205490565b6100dc6102de565b61010561019b36600461088f565b6102ed565b6101056101ae36600461088f565b61036d565b6101c66101c1366004610917565b61037b565b005b6101c66101d636600461094a565b610404565b6101196101e9366004610917565b610464565b6060600180546101fd9061096d565b80601f01602080910402602001604051908101604052809291908181526020018280546102299061096d565b80156102765780601f1061024b57610100808354040283529160200191610276565b820191906000526020600020905b81548152906001019060200180831161025957829003601f168201915b5050505050905090565b60003361028e81858561048f565b5060019392505050565b6000336102a68582856105b3565b6102b185858561062d565b506001949350505050565b60003361028e8185856102cf8383610464565b6102d991906109be565b61048f565b6060600280546101fd9061096d565b600033816102fb8286610464565b9050838110156103605760405162461bcd60e51b815260206004820152602560248201527f45524332303a2064656372656173656420616c6c6f77616e63652062656c6f77604482015264207a65726f60d81b60648201526084015b60405180910390fd5b6102b1828686840361048f565b60003361028e81858561062d565b6001600160a01b038083166000818152600360209081526040808320948616835293815283822054928252600590529182208054919283926103be9084906109d6565b90915550506001600160a01b038084166000908152600360209081526040808320938616835292905290812080548392906103fa9084906109d6565b9091555050505050565b3360009081526003602090815260408083206001600160a01b0385168452909152812080548492906104379084906109be565b9091555050336000908152600560205260408120805484929061045b9084906109be565b90915550505050565b6001600160a01b03918216600090815260066020908152604080832093909416825291909152205490565b6001600160a01b0383166104f15760405162461bcd60e51b8152602060048201526024808201527f45524332303a20617070726f76652066726f6d20746865207a65726f206164646044820152637265737360e01b6064820152608401610357565b6001600160a01b0382166105525760405162461bcd60e51b815260206004820152602260248201527f45524332303a20617070726f766520746f20746865207a65726f206164647265604482015261737360f01b6064820152608401610357565b6001600160a01b0383811660008181526006602090815260408083209487168084529482529182902085905590518481527f8c5be1e5ebec7d5bd14f71427d1e84f3dd0314c0f7b2291e5b200ac8c7c3b925910160405180910390a3505050565b60006105bf8484610464565b90506000198114610627578181101561061a5760405162461bcd60e51b815260206004820152601d60248201527f45524332303a20696e73756666696369656e7420616c6c6f77616e63650000006044820152606401610357565b610627848484840361048f565b50505050565b6001600160a01b0383166106915760405162461bcd60e51b815260206004820152602560248201527f45524332303a207472616e736665722066726f6d20746865207a65726f206164604482015264647265737360d81b6064820152608401610357565b6001600160a01b0382166106f35760405162461bcd60e51b815260206004820152602360248201527f45524332303a207472616e7366657220746f20746865207a65726f206164647260448201526265737360e81b6064820152608401610357565b336000908152600560209081526040808320546001600160a01b03871684526004909252822054909161072683836109d6565b90508381101561078b5760405162461bcd60e51b815260206004820152602a60248201527f45524332303a207472616e7366657261626c6520616d6f756e7420657863656560448201526964732062616c616e636560b01b6064820152608401610357565b6001600160a01b038087166000908152600460205260408082208786039055918716815290812080548692906107c29084906109be565b92505081905550846001600160a01b0316866001600160a01b03167fddf252ad1be2c89b69c2b068fc378daa952ba7f163c4a11628f55a4df523b3ef8660405161080e91815260200190565b60405180910390a3505050505050565b600060208083528351808285015260005b8181101561084b5785810183015185820160400152820161082f565b8181111561085d576000604083870101525b50601f01601f1916929092016040019392505050565b80356001600160a01b038116811461088a57600080fd5b919050565b600080604083850312156108a257600080fd5b6108ab83610873565b946020939093013593505050565b6000806000606084860312156108ce57600080fd5b6108d784610873565b92506108e560208501610873565b9150604084013590509250925092565b60006020828403121561090757600080fd5b61091082610873565b9392505050565b6000806040838503121561092a57600080fd5b61093383610873565b915061094160208401610873565b90509250929050565b6000806040838503121561095d57600080fd5b8235915061094160208401610873565b600181811c9082168061098157607f821691505b602082108114156109a257634e487b7160e01b600052602260045260246000fd5b50919050565b634e487b7160e01b600052601160045260246000fd5b600082198211156109d1576109d16109a8565b500190565b6000828210156109e8576109e86109a8565b50039056fea26469706673582212203393fab5bf6033a2e6b5c0d19c5154a2252f028d93ec506d6f5f1dcb222ee7c364736f6c634300080a0033",
    "linkReferences": {}
  }
}