{
  "abi": [
    {
      "inputs": [
        {
          "internalType": "string",
          "name": "name_",
          "type": "string"
        },
        {
          "internalType": "string",
          "name": "symbol_",
          "type": "string"
        },
        {
          "internalType": "contract Voting",
          "name": "_vote",
          "type": "address"
        }
      ],
      "stateMutability": "nonpayable",
      "type": "constructor"
    },
    {
      "anonymous": false,
      "inputs": [
        {
          "indexed": true,
          "internalType": "address",
          "name": "owner",
          "type": "address"
        },
        {
          "indexed": true,
          "internalType": "address",
          "name": "spender",
          "type": "address"
        },
        {
          "indexed": false,
          "internalType": "uint256",
          "name": "value",
          "type": "uint256"
        }
      ],
      "name": "Approval",
      "type": "event"
    },
    {
      "anonymous": false,
      "inputs": [
        {
          "indexed": true,
          "internalType": "address",
          "name": "from",
          "type": "address"
        },
        {
          "indexed": true,
          "internalType": "address",
          "name": "to",
          "type": "address"
        },
        {
          "indexed": false,
          "internalType": "uint256",
          "name": "value",
          "type": "uint256"
        }
      ],
      "name": "Transfer",
      "type": "event"
    },
    {
      "inputs": [
        {
          "internalType": "address",
          "name": "owner",
          "type": "address"
        },
        {
          "internalType": "address",
          "name": "spender",
          "type": "address"
        }
      ],
      "name": "allowance",
      "outputs": [
        {
          "internalType": "uint256",
          "name": "",
          "type": "uint256"
        }
      ],
      "stateMutability": "view",
      "type": "function"
    },
    {
      "inputs": [
        {
          "internalType": "address",
          "name": "spender",
          "type": "address"
        },
        {
          "internalType": "uint256",
          "name": "amount",
          "type": "uint256"
        }
      ],
      "name": "approve",
      "outputs": [
        {
          "internalType": "bool",
          "name": "",
          "type": "bool"
        }
      ],
      "stateMutability": "nonpayable",
      "type": "function"
    },
    {
      "inputs": [
        {
          "internalType": "address",
          "name": "account",
          "type": "address"
        }
      ],
      "name": "balanceOf",
      "outputs": [
        {
          "internalType": "uint256",
          "name": "",
          "type": "uint256"
        }
      ],
      "stateMutability": "view",
      "type": "function"
    },
    {
      "inputs": [],
      "name": "decimals",
      "outputs": [
        {
          "internalType": "uint8",
          "name": "",
          "type": "uint8"
        }
      ],
      "stateMutability": "view",
      "type": "function"
    },
    {
      "inputs": [
        {
          "internalType": "address",
          "name": "spender",
          "type": "address"
        },
        {
          "internalType": "uint256",
          "name": "subtractedValue",
          "type": "uint256"
        }
      ],
      "name": "decreaseAllowance",
      "outputs": [
        {
          "internalType": "bool",
          "name": "",
          "type": "bool"
        }
      ],
      "stateMutability": "nonpayable",
      "type": "function"
    },
    {
      "inputs": [
        {
          "internalType": "address",
          "name": "spender",
          "type": "address"
        },
        {
          "internalType": "uint256",
          "name": "addedValue",
          "type": "uint256"
        }
      ],
      "name": "increaseAllowance",
      "outputs": [
        {
          "internalType": "bool",
          "name": "",
          "type": "bool"
        }
      ],
      "stateMutability": "nonpayable",
      "type": "function"
    },
    {
      "inputs": [
        {
          "internalType": "uint256",
          "name": "_amount",
          "type": "uint256"
        },
        {
          "internalType": "address",
          "name": "castVote",
          "type": "address"
        }
      ],
      "name": "lockToken",
      "outputs": [],
      "stateMutability": "nonpayable",
      "type": "function"
    },
    {
      "inputs": [],
      "name": "name",
      "outputs": [
        {
          "internalType": "string",
          "name": "",
          "type": "string"
        }
      ],
      "stateMutability": "view",
      "type": "function"
    },
    {
      "inputs": [],
      "name": "symbol",
      "outputs": [
        {
          "internalType": "string",
          "name": "",
          "type": "string"
        }
      ],
      "stateMutability": "view",
      "type": "function"
    },
    {
      "inputs": [],
      "name": "totalSupply",
      "outputs": [
        {
          "internalType": "uint256",
          "name": "",
          "type": "uint256"
        }
      ],
      "stateMutability": "view",
      "type": "function"
    },
    {
      "inputs": [
        {
          "internalType": "address",
          "name": "to",
          "type": "address"
        },
        {
          "internalType": "uint256",
          "name": "amount",
          "type": "uint256"
        }
      ],
      "name": "transfer",
      "outputs": [
        {
          "internalType": "bool",
          "name": "",
          "type": "bool"
        }
      ],
      "stateMutability": "nonpayable",
      "type": "function"
    },
    {
      "inputs": [
        {
          "internalType": "address",
          "name": "from",
          "type": "address"
        },
        {
          "internalType": "address",
          "name": "to",
          "type": "address"
        },
        {
          "internalType": "uint256",
          "name": "amount",
          "type": "uint256"
        }
      ],
      "name": "transferFrom",
      "outputs": [
        {
          "internalType": "bool",
          "name": "",
          "type": "bool"
        }
      ],
      "stateMutability": "nonpayable",
      "type": "function"
    },
    {
      "inputs": [
        {
          "internalType": "address",
          "name": "castVote",
          "type": "address"
        }
      ],
      "name": "unLockToken",
      "outputs": [],
      "stateMutability": "nonpayable",
      "type": "function"
    }
  ],
  "bytecode": {
    "object": "0x60806040523480156200001157600080fd5b5060405162000e6e38038062000e6e8339810160408190526200003491620002f4565b600380546001600160a01b0319166001600160a01b03831617905582516200006490600190602086019062000181565b5081516200007a90600290602085019062000181565b50620000913369d3c21bcecceda10000006200009a565b505050620003e5565b6001600160a01b038216620000f55760405162461bcd60e51b815260206004820152601f60248201527f45524332303a206d696e7420746f20746865207a65726f206164647265737300604482015260640160405180910390fd5b8060008082825462000108919062000381565b90915550506001600160a01b038216600090815260056020526040812080548392906200013790849062000381565b90915550506040518181526001600160a01b038316906000907fddf252ad1be2c89b69c2b068fc378daa952ba7f163c4a11628f55a4df523b3ef9060200160405180910390a35050565b8280546200018f90620003a8565b90600052602060002090601f016020900481019282620001b35760008555620001fe565b82601f10620001ce57805160ff1916838001178555620001fe565b82800160010185558215620001fe579182015b82811115620001fe578251825591602001919060010190620001e1565b506200020c92915062000210565b5090565b5b808211156200020c576000815560010162000211565b634e487b7160e01b600052604160045260246000fd5b600082601f8301126200024f57600080fd5b81516001600160401b03808211156200026c576200026c62000227565b604051601f8301601f19908116603f0116810190828211818310171562000297576200029762000227565b81604052838152602092508683858801011115620002b457600080fd5b600091505b83821015620002d85785820183015181830184015290820190620002b9565b83821115620002ea5760008385830101525b9695505050505050565b6000806000606084860312156200030a57600080fd5b83516001600160401b03808211156200032257600080fd5b62000330878388016200023d565b945060208601519150808211156200034757600080fd5b5062000356868287016200023d565b604086015190935090506001600160a01b03811681146200037657600080fd5b809150509250925092565b60008219821115620003a357634e487b7160e01b600052601160045260246000fd5b500190565b600181811c90821680620003bd57607f821691505b60208210811415620003df57634e487b7160e01b600052602260045260246000fd5b50919050565b610a7980620003f56000396000f3fe608060405234801561001057600080fd5b50600436106100cf5760003560e01c806370a082311161008c578063a9059cbb11610066578063a9059cbb146101a0578063bade9d84146101b3578063cec1460b146101c8578063dd62ed3e146101db57600080fd5b806370a082311461015c57806395d89b4114610185578063a457c2d71461018d57600080fd5b806306fdde03146100d4578063095ea7b3146100f257806318160ddd1461011557806323b872dd14610127578063313ce5671461013a5780633950935114610149575b600080fd5b6100dc6101ee565b6040516100e99190610874565b60405180910390f35b6101056101003660046108e5565b610280565b60405190151581526020016100e9565b6000545b6040519081526020016100e9565b61010561013536600461090f565b610298565b604051601281526020016100e9565b6101056101573660046108e5565b6102bc565b61011961016a36600461094b565b6001600160a01b031660009081526005602052604090205490565b6100dc6102de565b61010561019b3660046108e5565b6102ed565b6101056101ae3660046108e5565b61036d565b6101c66101c136600461094b565b61037b565b005b6101c66101d636600461096d565b610463565b6101196101e9366004610999565b6104ba565b6060600180546101fd906109c3565b80601f0160208091040260200160405190810160405280929190818152602001828054610229906109c3565b80156102765780601f1061024b57610100808354040283529160200191610276565b820191906000526020600020905b81548152906001019060200180831161025957829003601f168201915b5050505050905090565b60003361028e8185856104e5565b5060019392505050565b6000336102a6858285610609565b6102b1858585610683565b506001949350505050565b60003361028e8185856102cf83836104ba565b6102d99190610a14565b6104e5565b6060600280546101fd906109c3565b600033816102fb82866104ba565b9050838110156103605760405162461bcd60e51b815260206004820152602560248201527f45524332303a2064656372656173656420616c6c6f77616e63652062656c6f77604482015264207a65726f60d81b60648201526084015b60405180910390fd5b6102b182868684036104e5565b60003361028e818585610683565b6003546001600160a01b031633146103e45760405162461bcd60e51b815260206004820152602660248201527f6d73672e73656e646572206d7573742062652074686520766f74696e6720636f6044820152651b9d1c9858dd60d21b6064820152608401610357565b3360008181526004602090815260408083206001600160a01b0386168452825280832054938352600690915281208054839290610422908490610a2c565b90915550503360009081526004602090815260408083206001600160a01b03861684529091528120805483929061045a908490610a2c565b90915550505050565b3360009081526004602090815260408083206001600160a01b038516845290915281208054849290610496908490610a14565b9091555050336000908152600660205260408120805484929061045a908490610a14565b6001600160a01b03918216600090815260076020908152604080832093909416825291909152205490565b6001600160a01b0383166105475760405162461bcd60e51b8152602060048201526024808201527f45524332303a20617070726f76652066726f6d20746865207a65726f206164646044820152637265737360e01b6064820152608401610357565b6001600160a01b0382166105a85760405162461bcd60e51b815260206004820152602260248201527f45524332303a20617070726f766520746f20746865207a65726f206164647265604482015261737360f01b6064820152608401610357565b6001600160a01b0383811660008181526007602090815260408083209487168084529482529182902085905590518481527f8c5be1e5ebec7d5bd14f71427d1e84f3dd0314c0f7b2291e5b200ac8c7c3b925910160405180910390a3505050565b600061061584846104ba565b9050600019811461067d57818110156106705760405162461bcd60e51b815260206004820152601d60248201527f45524332303a20696e73756666696369656e7420616c6c6f77616e63650000006044820152606401610357565b61067d84848484036104e5565b50505050565b6001600160a01b0383166106e75760405162461bcd60e51b815260206004820152602560248201527f45524332303a207472616e736665722066726f6d20746865207a65726f206164604482015264647265737360d81b6064820152608401610357565b6001600160a01b0382166107495760405162461bcd60e51b815260206004820152602360248201527f45524332303a207472616e7366657220746f20746865207a65726f206164647260448201526265737360e81b6064820152608401610357565b336000908152600660209081526040808320546001600160a01b03871684526005909252822054909161077c8383610a2c565b9050838110156107e15760405162461bcd60e51b815260206004820152602a60248201527f45524332303a207472616e7366657261626c6520616d6f756e7420657863656560448201526964732062616c616e636560b01b6064820152608401610357565b6001600160a01b03808716600090815260056020526040808220878603905591871681529081208054869290610818908490610a14565b92505081905550846001600160a01b0316866001600160a01b03167fddf252ad1be2c89b69c2b068fc378daa952ba7f163c4a11628f55a4df523b3ef8660405161086491815260200190565b60405180910390a3505050505050565b600060208083528351808285015260005b818110156108a157858101830151858201604001528201610885565b818111156108b3576000604083870101525b50601f01601f1916929092016040019392505050565b80356001600160a01b03811681146108e057600080fd5b919050565b600080604083850312156108f857600080fd5b610901836108c9565b946020939093013593505050565b60008060006060848603121561092457600080fd5b61092d846108c9565b925061093b602085016108c9565b9150604084013590509250925092565b60006020828403121561095d57600080fd5b610966826108c9565b9392505050565b6000806040838503121561098057600080fd5b82359150610990602084016108c9565b90509250929050565b600080604083850312156109ac57600080fd5b6109b5836108c9565b9150610990602084016108c9565b600181811c908216806109d757607f821691505b602082108114156109f857634e487b7160e01b600052602260045260246000fd5b50919050565b634e487b7160e01b600052601160045260246000fd5b60008219821115610a2757610a276109fe565b500190565b600082821015610a3e57610a3e6109fe565b50039056fea264697066735822122096ff9e4bafa7aff3afdf8d14213cb7ca43cab9ea2e7b0980a3d75f33ff0818d564736f6c634300080a0033",
    "linkReferences": {}
  }
}