{
  "abi": [
    {
      "anonymous": false,
      "inputs": [
        {
          "indexed": false,
          "internalType": "address",
          "name": "owner",
          "type": "address"
        },
        {
          "indexed": false,
          "internalType": "string",
          "name": "purpose",
          "type": "string"
        },
        {
          "indexed": false,
          "internalType": "uint256",
          "name": "amount",
          "type": "uint256"
        }
      ],
      "name": "Request",
      "type": "event"
    },
    {
      "anonymous": false,
      "inputs": [
        {
          "indexed": false,
          "internalType": "address",
          "name": "owner",
          "type": "address"
        },
        {
          "indexed": false,
          "internalType": "address",
          "name": "beneficiary",
          "type": "address"
        },
        {
          "indexed": false,
          "internalType": "uint256",
          "name": "amount",
          "type": "uint256"
        }
      ],
      "name": "donate",
      "type": "event"
    },
    {
      "anonymous": false,
      "inputs": [
        {
          "indexed": false,
          "internalType": "address",
          "name": "owner",
          "type": "address"
        },
        {
          "indexed": false,
          "internalType": "uint256",
          "name": "amount",
          "type": "uint256"
        },
        {
          "indexed": false,
          "internalType": "bool",
          "name": "status",
          "type": "bool"
        }
      ],
      "name": "withdraw",
      "type": "event"
    },
    {
      "inputs": [
        {
          "internalType": "address",
          "name": "owner",
          "type": "address"
        }
      ],
      "name": "checkBalanceOf",
      "outputs": [
        {
          "internalType": "uint256",
          "name": "",
          "type": "uint256"
        }
      ],
      "stateMutability": "view",
      "type": "function"
    },
    {
      "inputs": [],
      "name": "checkBalanceOfContract",
      "outputs": [
        {
          "internalType": "uint256",
          "name": "",
          "type": "uint256"
        }
      ],
      "stateMutability": "view",
      "type": "function"
    },
    {
      "inputs": [
        {
          "internalType": "address",
          "name": "beneficiary",
          "type": "address"
        }
      ],
      "name": "donateFunds",
      "outputs": [],
      "stateMutability": "payable",
      "type": "function"
    },
    {
      "inputs": [
        {
          "internalType": "address",
          "name": "",
          "type": "address"
        }
      ],
      "name": "fundsprosps",
      "outputs": [
        {
          "internalType": "string",
          "name": "Purpose",
          "type": "string"
        },
        {
          "internalType": "uint256",
          "name": "amount",
          "type": "uint256"
        },
        {
          "internalType": "uint256",
          "name": "amountGenerared",
          "type": "uint256"
        },
        {
          "internalType": "bool",
          "name": "status",
          "type": "bool"
        }
      ],
      "stateMutability": "view",
      "type": "function"
    },
    {
      "inputs": [
        {
          "internalType": "address",
          "name": "",
          "type": "address"
        }
      ],
      "name": "investors",
      "outputs": [
        {
          "internalType": "uint256",
          "name": "",
          "type": "uint256"
        }
      ],
      "stateMutability": "view",
      "type": "function"
    },
    {
      "inputs": [
        {
          "internalType": "string",
          "name": "_purpose",
          "type": "string"
        },
        {
          "internalType": "uint256",
          "name": "_amount",
          "type": "uint256"
        }
      ],
      "name": "requestFund",
      "outputs": [],
      "stateMutability": "nonpayable",
      "type": "function"
    },
    {
      "inputs": [],
      "name": "withdrawAll",
      "outputs": [],
      "stateMutability": "payable",
      "type": "function"
    },
    {
      "inputs": [
        {
          "internalType": "uint256",
          "name": "amount",
          "type": "uint256"
        }
      ],
      "name": "withdrawPart",
      "outputs": [],
      "stateMutability": "payable",
      "type": "function"
    }
  ],
  "bytecode": {
    "object": "0x608060405234801561001057600080fd5b50610aa3806100206000396000f3fe60806040526004361061007b5760003560e01c80637daf06fd1161004e5780637daf06fd14610121578063853828b614610134578063b540795b1461013c578063b7f1b3a41461016c57600080fd5b806303147f39146100805780634fb2d09d146100cc5780636f7bc9be146100e15780637b9cd8c21461010e575b600080fd5b34801561008c57600080fd5b506100b961009b366004610827565b6001600160a01b031660009081526020819052604090206002015490565b6040519081526020015b60405180910390f35b6100df6100da366004610827565b61018c565b005b3480156100ed57600080fd5b506100b96100fc366004610827565b60016020526000908152604090205481565b34801561011a57600080fd5b50476100b9565b6100df61012f366004610857565b610340565b6100df6104c7565b34801561014857600080fd5b5061015c610157366004610827565b61060a565b6040516100c394939291906108bd565b34801561017857600080fd5b506100df610187366004610904565b6106bf565b6001600160a01b0381166000908152602081905260409020346101f65760405162461bcd60e51b815260206004820152601a60248201527f796f752063616e2774207472616e7366657220302076616c756500000000000060448201526064015b60405180910390fd5b600381015460ff16151560011461025b5760405162461bcd60e51b8152602060048201526024808201527f7468697320646f6e6174696f6e206973206e6f206c6f6e67657220617661696c60448201526361626c6560e01b60648201526084016101ed565b8060010154816002015411156102b35760405162461bcd60e51b815260206004820152601d60248201527f74617267657420726561636865616420666f7220746869732066756e6400000060448201526064016101ed565b348160020160008282546102c791906109cf565b909155505033600090815260016020526040812080543492906102eb9084906109cf565b9091555050604080513381526001600160a01b038416602082015234918101919091527f386bc05a2408454571efe4cbeeabd68940d5a301c55f31319f2b6aef331fedfc906060015b60405180910390a15050565b336000908152602081905260409020600381015460ff1615156001146103a35760405162461bcd60e51b81526020600482015260186024820152774e6f207265717565737420666f722066756e64206d61646560401b60448201526064016101ed565b81816002015410156103ec5760405162461bcd60e51b8152602060048201526012602482015271696e73756666696369656e742066756e647360701b60448201526064016101ed565b8181600201600082825461040091906109e7565b925050819055508181600101600082825461041b91906109e7565b9091555050604051339083156108fc029084906000818181858888f1935050505015801561044d573d6000803e3d6000fd5b5060028101541561046f5760038101805460ff1916600190811790915561047e565b60038101805460ff1916905560005b506003810154604080513381526020810185905260ff9092161515908201527fead5d35910f3e2d6b0422579a65a204ac86cdeb6a6c0436657a33a90d397fb5390606001610334565b336000908152602081905260409020600381015460ff16151560011461052a5760405162461bcd60e51b81526020600482015260186024820152774e6f207265717565737420666f722066756e64206d61646560401b60448201526064016101ed565b600281015461057b5760405162461bcd60e51b815260206004820152601760248201527f4e4f2066756e64732072616973656420666f7220796f7500000000000000000060448201526064016101ed565b60028101805460009182905560038301805460ff191690556040519091339183156108fc0291849190818181858888f193505050501580156105c1573d6000803e3d6000fd5b506003820154604080513381526020810184905260ff9092161515908201527fead5d35910f3e2d6b0422579a65a204ac86cdeb6a6c0436657a33a90d397fb5390606001610334565b600060208190529081526040902080548190610625906109fe565b80601f0160208091040260200160405190810160405280929190818152602001828054610651906109fe565b801561069e5780601f106106735761010080835404028352916020019161069e565b820191906000526020600020905b81548152906001019060200180831161068157829003601f168201915b50505050600183015460028401546003909401549293909290915060ff1684565b6106ec60405180608001604052806060815260200160008152602001600081526020016000151581525090565b6020808201839052838252600160608301523360009081528082526040902082518051849361071f92849291019061078e565b506020820151600182015560408083015160028301556060909201516003909101805460ff1916911515919091179055517ff69a88136bb57871f0559f33e167c9cc90ed27fb806571f9bd595ccea42000829061078190339086908690610a39565b60405180910390a1505050565b82805461079a906109fe565b90600052602060002090601f0160209004810192826107bc5760008555610802565b82601f106107d557805160ff1916838001178555610802565b82800160010185558215610802579182015b828111156108025782518255916020019190600101906107e7565b5061080e929150610812565b5090565b5b8082111561080e5760008155600101610813565b60006020828403121561083957600080fd5b81356001600160a01b038116811461085057600080fd5b9392505050565b60006020828403121561086957600080fd5b5035919050565b6000815180845260005b818110156108965760208185018101518683018201520161087a565b818111156108a8576000602083870101525b50601f01601f19169290920160200192915050565b6080815260006108d06080830187610870565b60208301959095525060408101929092521515606090910152919050565b634e487b7160e01b600052604160045260246000fd5b6000806040838503121561091757600080fd5b823567ffffffffffffffff8082111561092f57600080fd5b818501915085601f83011261094357600080fd5b813581811115610955576109556108ee565b604051601f8201601f19908116603f0116810190838211818310171561097d5761097d6108ee565b8160405282815288602084870101111561099657600080fd5b826020860160208301376000602093820184015298969091013596505050505050565b634e487b7160e01b600052601160045260246000fd5b600082198211156109e2576109e26109b9565b500190565b6000828210156109f9576109f96109b9565b500390565b600181811c90821680610a1257607f821691505b60208210811415610a3357634e487b7160e01b600052602260045260246000fd5b50919050565b6001600160a01b0384168152606060208201819052600090610a5d90830185610870565b905082604083015294935050505056fea26469706673582212204afc5e68405d296ce12c74c95754db38a38e576f0b954be7569646cdb36548a164736f6c634300080a0033",
    "linkReferences": {}
  }
}