{
  "abi": [
    {
      "anonymous": false,
      "inputs": [
        {
          "indexed": false,
          "internalType": "address",
          "name": "owner",
          "type": "address"
        },
        {
          "indexed": false,
          "internalType": "string",
          "name": "purpose",
          "type": "string"
        },
        {
          "indexed": false,
          "internalType": "uint256",
          "name": "amount",
          "type": "uint256"
        }
      ],
      "name": "Request",
      "type": "event"
    },
    {
      "anonymous": false,
      "inputs": [
        {
          "indexed": false,
          "internalType": "address",
          "name": "owner",
          "type": "address"
        },
        {
          "indexed": false,
          "internalType": "address",
          "name": "beneficiary",
          "type": "address"
        },
        {
          "indexed": false,
          "internalType": "uint256",
          "name": "amount",
          "type": "uint256"
        }
      ],
      "name": "donate",
      "type": "event"
    },
    {
      "anonymous": false,
      "inputs": [
        {
          "indexed": false,
          "internalType": "address",
          "name": "owner",
          "type": "address"
        },
        {
          "indexed": false,
          "internalType": "uint256",
          "name": "amount",
          "type": "uint256"
        },
        {
          "indexed": false,
          "internalType": "bool",
          "name": "status",
          "type": "bool"
        }
      ],
      "name": "withdraw",
      "type": "event"
    },
    {
      "inputs": [
        {
          "internalType": "address",
          "name": "owner",
          "type": "address"
        }
      ],
      "name": "checkBalanceOf",
      "outputs": [
        {
          "internalType": "uint256",
          "name": "",
          "type": "uint256"
        }
      ],
      "stateMutability": "view",
      "type": "function"
    },
    {
      "inputs": [],
      "name": "checkBalanceOfContract",
      "outputs": [
        {
          "internalType": "uint256",
          "name": "",
          "type": "uint256"
        }
      ],
      "stateMutability": "view",
      "type": "function"
    },
    {
      "inputs": [
        {
          "internalType": "address",
          "name": "beneficiary",
          "type": "address"
        }
      ],
      "name": "donateFunds",
      "outputs": [],
      "stateMutability": "payable",
      "type": "function"
    },
    {
      "inputs": [
        {
          "internalType": "address",
          "name": "",
          "type": "address"
        }
      ],
      "name": "fundsprosps",
      "outputs": [
        {
          "internalType": "string",
          "name": "Purpose",
          "type": "string"
        },
        {
          "internalType": "uint256",
          "name": "amount",
          "type": "uint256"
        },
        {
          "internalType": "uint256",
          "name": "amountGenerared",
          "type": "uint256"
        },
        {
          "internalType": "bool",
          "name": "status",
          "type": "bool"
        }
      ],
      "stateMutability": "view",
      "type": "function"
    },
    {
      "inputs": [
        {
          "internalType": "address",
          "name": "beneficiary",
          "type": "address"
        }
      ],
      "name": "getBeneficiaryProps",
      "outputs": [
        {
          "components": [
            {
              "internalType": "string",
              "name": "Purpose",
              "type": "string"
            },
            {
              "internalType": "uint256",
              "name": "amount",
              "type": "uint256"
            },
            {
              "internalType": "uint256",
              "name": "amountGenerared",
              "type": "uint256"
            },
            {
              "internalType": "bool",
              "name": "status",
              "type": "bool"
            }
          ],
          "internalType": "struct Funder.FundProps",
          "name": "props",
          "type": "tuple"
        }
      ],
      "stateMutability": "view",
      "type": "function"
    },
    {
      "inputs": [
        {
          "internalType": "address",
          "name": "beneficiary",
          "type": "address"
        }
      ],
      "name": "getBeneficiaryStatus",
      "outputs": [
        {
          "internalType": "bool",
          "name": "status",
          "type": "bool"
        }
      ],
      "stateMutability": "view",
      "type": "function"
    },
    {
      "inputs": [
        {
          "internalType": "address",
          "name": "",
          "type": "address"
        }
      ],
      "name": "investors",
      "outputs": [
        {
          "internalType": "uint256",
          "name": "",
          "type": "uint256"
        }
      ],
      "stateMutability": "view",
      "type": "function"
    },
    {
      "inputs": [
        {
          "internalType": "string",
          "name": "_purpose",
          "type": "string"
        },
        {
          "internalType": "uint256",
          "name": "_amount",
          "type": "uint256"
        }
      ],
      "name": "requestFund",
      "outputs": [],
      "stateMutability": "nonpayable",
      "type": "function"
    },
    {
      "inputs": [
        {
          "internalType": "address",
          "name": "beneficiary",
          "type": "address"
        }
      ],
      "name": "setStatus",
      "outputs": [
        {
          "internalType": "bool",
          "name": "",
          "type": "bool"
        }
      ],
      "stateMutability": "nonpayable",
      "type": "function"
    },
    {
      "inputs": [],
      "name": "withdrawAll",
      "outputs": [],
      "stateMutability": "payable",
      "type": "function"
    },
    {
      "inputs": [
        {
          "internalType": "uint256",
          "name": "amount",
          "type": "uint256"
        }
      ],
      "name": "withdrawPart",
      "outputs": [],
      "stateMutability": "payable",
      "type": "function"
    }
  ],
  "bytecode": {
    "object": "0x608060405234801561001057600080fd5b50610d69806100206000396000f3fe60806040526004361061009c5760003560e01c80637b9cd8c2116100645780637b9cd8c2146101b15780637daf06fd146101c4578063853828b6146101d7578063b540795b146101df578063b7f1b3a41461020f578063d5247dda1461022f57600080fd5b806303147f39146100a15780630e60bfad146100ed57806314204dbb1461011a5780634fb2d09d1461016f5780636f7bc9be14610184575b600080fd5b3480156100ad57600080fd5b506100da6100bc366004610aa5565b6001600160a01b031660009081526001602052604090206002015490565b6040519081526020015b60405180910390f35b3480156100f957600080fd5b5061010d610108366004610aa5565b61026b565b6040516100e49190610b22565b34801561012657600080fd5b5061015f610135366004610aa5565b6001600160a01b03166000908152600160208190526040909120600301805460ff19168217905590565b60405190151581526020016100e4565b61018261017d366004610aa5565b610465565b005b34801561019057600080fd5b506100da61019f366004610aa5565b60026020526000908152604090205481565b3480156101bd57600080fd5b50476100da565b6101826101d2366004610b6a565b610618565b6101826107a4565b3480156101eb57600080fd5b506101ff6101fa366004610aa5565b6108ec565b6040516100e49493929190610b83565b34801561021b57600080fd5b5061018261022a366004610bca565b6109a1565b34801561023b57600080fd5b5061015f61024a366004610aa5565b6001600160a01b031660009081526001602052604090206003015460ff1690565b61029860405180608001604052806060815260200160008152602001600081526020016000151581525090565b6001600160a01b038216600090815260016020526040908190208151608081019092528054829082906102ca90610c7f565b80601f01602080910402602001604051908101604052809291908181526020018280546102f690610c7f565b80156103435780601f1061031857610100808354040283529160200191610343565b820191906000526020600020905b81548152906001019060200180831161032657829003601f168201915b5050509183525050600182810154602080840191909152600284015460408085019190915260039094015460ff1615156060909301929092526001600160a01b038616600090815291522080549192509061039d90610c7f565b80601f01602080910402602001604051908101604052809291908181526020018280546103c990610c7f565b80156104165780601f106103eb57610100808354040283529160200191610416565b820191906000526020600020905b8154815290600101906020018083116103f957829003601f168201915b50505091835250506001600160a01b03909116600081815260016020818152604080842080840154838801526002810154918701919091529390925290526003015460ff161515606082015290565b6001600160a01b0381166000908152600160205260409020346104cf5760405162461bcd60e51b815260206004820152601a60248201527f796f752063616e2774207472616e7366657220302076616c756500000000000060448201526064015b60405180910390fd5b600381015460ff1615156001146105345760405162461bcd60e51b8152602060048201526024808201527f7468697320646f6e6174696f6e206973206e6f206c6f6e67657220617661696c60448201526361626c6560e01b60648201526084016104c6565b806001015481600201541061058b5760405162461bcd60e51b815260206004820152601d60248201527f74617267657420726561636865616420666f7220746869732066756e6400000060448201526064016104c6565b3481600201600082825461059f9190610cd0565b909155505033600090815260026020526040812080543492906105c3908490610cd0565b9091555050604080513381526001600160a01b038416602082015234918101919091527f386bc05a2408454571efe4cbeeabd68940d5a301c55f31319f2b6aef331fedfc906060015b60405180910390a15050565b3360009081526001602081905260409091206003810154909160ff9091161515146106805760405162461bcd60e51b81526020600482015260186024820152774e6f207265717565737420666f722066756e64206d61646560401b60448201526064016104c6565b81816002015410156106c95760405162461bcd60e51b8152602060048201526012602482015271696e73756666696369656e742066756e647360701b60448201526064016104c6565b818160020160008282546106dd9190610ce8565b92505081905550818160010160008282546106f89190610ce8565b9091555050604051339083156108fc029084906000818181858888f1935050505015801561072a573d6000803e3d6000fd5b5060028101541561074c5760038101805460ff1916600190811790915561075b565b60038101805460ff1916905560005b506003810154604080513381526020810185905260ff9092161515908201527fead5d35910f3e2d6b0422579a65a204ac86cdeb6a6c0436657a33a90d397fb539060600161060c565b3360009081526001602081905260409091206003810154909160ff90911615151461080c5760405162461bcd60e51b81526020600482015260186024820152774e6f207265717565737420666f722066756e64206d61646560401b60448201526064016104c6565b600281015461085d5760405162461bcd60e51b815260206004820152601760248201527f4e4f2066756e64732072616973656420666f7220796f7500000000000000000060448201526064016104c6565b60028101805460009182905560038301805460ff191690556040519091339183156108fc0291849190818181858888f193505050501580156108a3573d6000803e3d6000fd5b506003820154604080513381526020810184905260ff9092161515908201527fead5d35910f3e2d6b0422579a65a204ac86cdeb6a6c0436657a33a90d397fb539060600161060c565b60016020526000908152604090208054819061090790610c7f565b80601f016020809104026020016040519081016040528092919081815260200182805461093390610c7f565b80156109805780601f1061095557610100808354040283529160200191610980565b820191906000526020600020905b81548152906001019060200180831161096357829003601f168201915b50505050600183015460028401546003909401549293909290915060ff1684565b336000908152600160208181526040909220908101839055835190916109cb918391860190610a0c565b507ff69a88136bb57871f0559f33e167c9cc90ed27fb806571f9bd595ccea42000823384846040516109ff93929190610cff565b60405180910390a1505050565b828054610a1890610c7f565b90600052602060002090601f016020900481019282610a3a5760008555610a80565b82601f10610a5357805160ff1916838001178555610a80565b82800160010185558215610a80579182015b82811115610a80578251825591602001919060010190610a65565b50610a8c929150610a90565b5090565b5b80821115610a8c5760008155600101610a91565b600060208284031215610ab757600080fd5b81356001600160a01b0381168114610ace57600080fd5b9392505050565b6000815180845260005b81811015610afb57602081850181015186830182015201610adf565b81811115610b0d576000602083870101525b50601f01601f19169290920160200192915050565b602081526000825160806020840152610b3e60a0840182610ad5565b905060208401516040840152604084015160608401526060840151151560808401528091505092915050565b600060208284031215610b7c57600080fd5b5035919050565b608081526000610b966080830187610ad5565b60208301959095525060408101929092521515606090910152919050565b634e487b7160e01b600052604160045260246000fd5b60008060408385031215610bdd57600080fd5b823567ffffffffffffffff80821115610bf557600080fd5b818501915085601f830112610c0957600080fd5b813581811115610c1b57610c1b610bb4565b604051601f8201601f19908116603f01168101908382118183101715610c4357610c43610bb4565b81604052828152886020848701011115610c5c57600080fd5b826020860160208301376000602093820184015298969091013596505050505050565b600181811c90821680610c9357607f821691505b60208210811415610cb457634e487b7160e01b600052602260045260246000fd5b50919050565b634e487b7160e01b600052601160045260246000fd5b60008219821115610ce357610ce3610cba565b500190565b600082821015610cfa57610cfa610cba565b500390565b6001600160a01b0384168152606060208201819052600090610d2390830185610ad5565b905082604083015294935050505056fea2646970667358221220aa15ea7cd53fdc5fa88e555d0e2a6e27743fbeb7769028c52cd0319a6ab4892364736f6c634300080a0033",
    "linkReferences": {}
  }
}