{
  "abi": [
    {
      "inputs": [
        {
          "internalType": "contract Voting",
          "name": "_vote",
          "type": "address"
        }
      ],
      "stateMutability": "nonpayable",
      "type": "constructor"
    },
    {
      "anonymous": false,
      "inputs": [
        {
          "indexed": false,
          "internalType": "address",
          "name": "owner",
          "type": "address"
        },
        {
          "indexed": false,
          "internalType": "string",
          "name": "purpose",
          "type": "string"
        },
        {
          "indexed": false,
          "internalType": "uint256",
          "name": "amount",
          "type": "uint256"
        }
      ],
      "name": "Request",
      "type": "event"
    },
    {
      "anonymous": false,
      "inputs": [
        {
          "indexed": false,
          "internalType": "address",
          "name": "owner",
          "type": "address"
        },
        {
          "indexed": false,
          "internalType": "address",
          "name": "beneficiary",
          "type": "address"
        },
        {
          "indexed": false,
          "internalType": "uint256",
          "name": "amount",
          "type": "uint256"
        }
      ],
      "name": "donate",
      "type": "event"
    },
    {
      "anonymous": false,
      "inputs": [
        {
          "indexed": false,
          "internalType": "address",
          "name": "owner",
          "type": "address"
        },
        {
          "indexed": false,
          "internalType": "uint256",
          "name": "amount",
          "type": "uint256"
        },
        {
          "indexed": false,
          "internalType": "bool",
          "name": "status",
          "type": "bool"
        }
      ],
      "name": "withdraw",
      "type": "event"
    },
    {
      "inputs": [
        {
          "internalType": "address",
          "name": "owner",
          "type": "address"
        }
      ],
      "name": "checkBalanceOf",
      "outputs": [
        {
          "internalType": "uint256",
          "name": "",
          "type": "uint256"
        }
      ],
      "stateMutability": "view",
      "type": "function"
    },
    {
      "inputs": [],
      "name": "checkBalanceOfContract",
      "outputs": [
        {
          "internalType": "uint256",
          "name": "",
          "type": "uint256"
        }
      ],
      "stateMutability": "view",
      "type": "function"
    },
    {
      "inputs": [
        {
          "internalType": "address",
          "name": "beneficiary",
          "type": "address"
        }
      ],
      "name": "donateFunds",
      "outputs": [],
      "stateMutability": "payable",
      "type": "function"
    },
    {
      "inputs": [
        {
          "internalType": "address",
          "name": "",
          "type": "address"
        }
      ],
      "name": "fundsprosps",
      "outputs": [
        {
          "internalType": "string",
          "name": "Purpose",
          "type": "string"
        },
        {
          "internalType": "uint256",
          "name": "amount",
          "type": "uint256"
        },
        {
          "internalType": "uint256",
          "name": "amountGenerared",
          "type": "uint256"
        },
        {
          "internalType": "uint256",
          "name": "time",
          "type": "uint256"
        },
        {
          "internalType": "bool",
          "name": "status",
          "type": "bool"
        }
      ],
      "stateMutability": "view",
      "type": "function"
    },
    {
      "inputs": [
        {
          "internalType": "address",
          "name": "beneficiary",
          "type": "address"
        }
      ],
      "name": "getBeneficiaryProps",
      "outputs": [
        {
          "components": [
            {
              "internalType": "string",
              "name": "Purpose",
              "type": "string"
            },
            {
              "internalType": "uint256",
              "name": "amount",
              "type": "uint256"
            },
            {
              "internalType": "uint256",
              "name": "amountGenerared",
              "type": "uint256"
            },
            {
              "internalType": "uint256",
              "name": "time",
              "type": "uint256"
            },
            {
              "internalType": "bool",
              "name": "status",
              "type": "bool"
            }
          ],
          "internalType": "struct Funder.FundProps",
          "name": "props",
          "type": "tuple"
        }
      ],
      "stateMutability": "view",
      "type": "function"
    },
    {
      "inputs": [
        {
          "internalType": "address",
          "name": "beneficiary",
          "type": "address"
        }
      ],
      "name": "getBeneficiaryStatus",
      "outputs": [
        {
          "internalType": "bool",
          "name": "status",
          "type": "bool"
        }
      ],
      "stateMutability": "view",
      "type": "function"
    },
    {
      "inputs": [
        {
          "internalType": "address",
          "name": "",
          "type": "address"
        }
      ],
      "name": "investors",
      "outputs": [
        {
          "internalType": "uint256",
          "name": "",
          "type": "uint256"
        }
      ],
      "stateMutability": "view",
      "type": "function"
    },
    {
      "inputs": [
        {
          "internalType": "string",
          "name": "_purpose",
          "type": "string"
        },
        {
          "internalType": "uint256",
          "name": "_amount",
          "type": "uint256"
        },
        {
          "internalType": "uint256",
          "name": "_time",
          "type": "uint256"
        }
      ],
      "name": "requestFund",
      "outputs": [],
      "stateMutability": "nonpayable",
      "type": "function"
    },
    {
      "inputs": [
        {
          "internalType": "address",
          "name": "beneficiary",
          "type": "address"
        }
      ],
      "name": "setStatus",
      "outputs": [],
      "stateMutability": "nonpayable",
      "type": "function"
    },
    {
      "inputs": [],
      "name": "withdrawAll",
      "outputs": [],
      "stateMutability": "payable",
      "type": "function"
    },
    {
      "inputs": [
        {
          "internalType": "uint256",
          "name": "amount",
          "type": "uint256"
        }
      ],
      "name": "withdrawPart",
      "outputs": [],
      "stateMutability": "payable",
      "type": "function"
    }
  ],
  "bytecode": {
    "object": "0x608060405234801561001057600080fd5b50604051610f6c380380610f6c83398101604081905261002f91610054565b600080546001600160a01b0319166001600160a01b0392909216919091179055610084565b60006020828403121561006657600080fd5b81516001600160a01b038116811461007d57600080fd5b9392505050565b610ed9806100936000396000f3fe60806040526004361061009c5760003560e01c80637b9cd8c2116100645780637b9cd8c21461017c5780637daf06fd1461018f578063853828b6146101a2578063b540795b146101aa578063b6ec54de146101db578063d5247dda146101fb57600080fd5b806303147f39146100a15780630e60bfad146100ed57806314204dbb1461011a5780634fb2d09d1461013c5780636f7bc9be1461014f575b600080fd5b3480156100ad57600080fd5b506100da6100bc366004610bd2565b6001600160a01b031660009081526001602052604090206002015490565b6040519081526020015b60405180910390f35b3480156100f957600080fd5b5061010d610108366004610bd2565b610247565b6040516100e49190610c4f565b34801561012657600080fd5b5061013a610135366004610bd2565b61045c565b005b61013a61014a366004610bd2565b610553565b34801561015b57600080fd5b506100da61016a366004610bd2565b60026020526000908152604090205481565b34801561018857600080fd5b50476100da565b61013a61019d366004610ca1565b610706565b61013a6108a9565b3480156101b657600080fd5b506101ca6101c5366004610bd2565b610a00565b6040516100e4959493929190610cba565b3480156101e757600080fd5b5061013a6101f6366004610d09565b610aba565b34801561020757600080fd5b50610237610216366004610bd2565b6001600160a01b031660009081526001602052604090206004015460ff1690565b60405190151581526020016100e4565b61027b6040518060a00160405280606081526020016000815260200160008152602001600081526020016000151581525090565b6001600160a01b03821660009081526001602052604090819020815160a081019092528054829082906102ad90610dcd565b80601f01602080910402602001604051908101604052809291908181526020018280546102d990610dcd565b80156103265780601f106102fb57610100808354040283529160200191610326565b820191906000526020600020905b81548152906001019060200180831161030957829003601f168201915b505050918352505060018281015460208084019190915260028401546040808501919091526003850154606085015260049094015460ff1615156080909301929092526001600160a01b038616600090815291522080549192509061038a90610dcd565b80601f01602080910402602001604051908101604052809291908181526020018280546103b690610dcd565b80156104035780601f106103d857610100808354040283529160200191610403565b820191906000526020600020905b8154815290600101906020018083116103e657829003601f168201915b50505091835250506001600160a01b0390911660008181526001602081815260408084208084015483880152600281015491870191909152600381015460608701529390925290526004015460ff161515608082015290565b6001600160a01b038181166000818152600160205260408082208254915163e3a17b3b60e01b8152600481019490945293919291169063e3a17b3b90602401602060405180830381865afa1580156104b8573d6000803e3d6000fd5b505050506040513d601f19601f820116820180604052508101906104dc9190610e08565b90506001811515146105415760405162461bcd60e51b8152602060048201526024808201527f766f746520666f72207468697320726571756573742069732079657420746f206044820152637061737360e01b60648201526084015b60405180910390fd5b50600401805460ff1916600117905550565b6001600160a01b0381166000908152600160205260409020346105b85760405162461bcd60e51b815260206004820152601a60248201527f796f752063616e2774207472616e7366657220302076616c75650000000000006044820152606401610538565b600481015460ff1615156001146106225760405162461bcd60e51b815260206004820152602860248201527f746869732070726f706f73616c206e6f7420617661696c61626c6520666f72206044820152673237b730ba34b7b760c11b6064820152608401610538565b80600101548160020154106106795760405162461bcd60e51b815260206004820152601d60248201527f74617267657420726561636865616420666f7220746869732066756e640000006044820152606401610538565b3481600201600082825461068d9190610e40565b909155505033600090815260026020526040812080543492906106b1908490610e40565b9091555050604080513381526001600160a01b038416602082015234918101919091527f386bc05a2408454571efe4cbeeabd68940d5a301c55f31319f2b6aef331fedfc906060015b60405180910390a15050565b3360009081526001602081905260409091206004810154909160ff9091161515146107735760405162461bcd60e51b815260206004820152601e60248201527f70726f706f73616c20686173206e6f74206265656e20617070726f76656400006044820152606401610538565b80600101548160020154148061078c5750806003015442115b6107ce5760405162461bcd60e51b815260206004820152601360248201527246756e64732079657420746f206d617475726560681b6044820152606401610538565b818160020160008282546107e29190610e58565b92505081905550818160010160008282546107fd9190610e58565b9091555050604051339083156108fc029084906000818181858888f1935050505015801561082f573d6000803e3d6000fd5b506002810154156108515760048101805460ff19166001908117909155610860565b60048101805460ff1916905560005b506004810154604080513381526020810185905260ff9092161515908201527fead5d35910f3e2d6b0422579a65a204ac86cdeb6a6c0436657a33a90d397fb53906060016106fa565b3360009081526001602081905260409091206004810154909160ff9091161515146109165760405162461bcd60e51b815260206004820152601e60248201527f70726f706f73616c20686173206e6f74206265656e20617070726f76656400006044820152606401610538565b80600101548160020154148061092f5750806003015442115b6109715760405162461bcd60e51b815260206004820152601360248201527246756e64732079657420746f206d617475726560681b6044820152606401610538565b60028101805460009182905560048301805460ff191690556040519091339183156108fc0291849190818181858888f193505050501580156109b7573d6000803e3d6000fd5b506004820154604080513381526020810184905260ff9092161515908201527fead5d35910f3e2d6b0422579a65a204ac86cdeb6a6c0436657a33a90d397fb53906060016106fa565b600160205260009081526040902080548190610a1b90610dcd565b80601f0160208091040260200160405190810160405280929190818152602001828054610a4790610dcd565b8015610a945780601f10610a6957610100808354040283529160200191610a94565b820191906000526020600020905b815481529060010190602001808311610a7757829003601f168201915b505050506001830154600284015460038501546004909501549394919390925060ff1685565b33600090815260016020818152604090922090810184905584519091610ae4918391870190610b39565b50610af2826202a300610e40565b60038201556040517ff69a88136bb57871f0559f33e167c9cc90ed27fb806571f9bd595ccea420008290610b2b90339087908790610e6f565b60405180910390a150505050565b828054610b4590610dcd565b90600052602060002090601f016020900481019282610b675760008555610bad565b82601f10610b8057805160ff1916838001178555610bad565b82800160010185558215610bad579182015b82811115610bad578251825591602001919060010190610b92565b50610bb9929150610bbd565b5090565b5b80821115610bb95760008155600101610bbe565b600060208284031215610be457600080fd5b81356001600160a01b0381168114610bfb57600080fd5b9392505050565b6000815180845260005b81811015610c2857602081850181015186830182015201610c0c565b81811115610c3a576000602083870101525b50601f01601f19169290920160200192915050565b602081526000825160a06020840152610c6b60c0840182610c02565b90506020840151604084015260408401516060840152606084015160808401526080840151151560a08401528091505092915050565b600060208284031215610cb357600080fd5b5035919050565b60a081526000610ccd60a0830188610c02565b905085602083015284604083015283606083015282151560808301529695505050505050565b634e487b7160e01b600052604160045260246000fd5b600080600060608486031215610d1e57600080fd5b833567ffffffffffffffff80821115610d3657600080fd5b818601915086601f830112610d4a57600080fd5b813581811115610d5c57610d5c610cf3565b604051601f8201601f19908116603f01168101908382118183101715610d8457610d84610cf3565b81604052828152896020848701011115610d9d57600080fd5b82602086016020830137600060208483010152809750505050505060208401359150604084013590509250925092565b600181811c90821680610de157607f821691505b60208210811415610e0257634e487b7160e01b600052602260045260246000fd5b50919050565b600060208284031215610e1a57600080fd5b81518015158114610bfb57600080fd5b634e487b7160e01b600052601160045260246000fd5b60008219821115610e5357610e53610e2a565b500190565b600082821015610e6a57610e6a610e2a565b500390565b6001600160a01b0384168152606060208201819052600090610e9390830185610c02565b905082604083015294935050505056fea26469706673582212206b66a9201e2dfc30ae7b70cdc2a7f691f9c375c0a0116a01e7c534ca421da50b64736f6c634300080a0033",
    "linkReferences": {}
  }
}